{
  "address": "0x3e695C1D82900BFb9b491fd9fB1127054EAEF1df",
  "abi": [
    {
      "anonymous": false,
      "inputs": [
        {
          "indexed": true,
          "internalType": "address",
          "name": "owner",
          "type": "address"
        },
        {
          "indexed": true,
          "internalType": "address",
          "name": "spender",
          "type": "address"
        },
        {
          "indexed": false,
          "internalType": "uint256",
          "name": "value",
          "type": "uint256"
        }
      ],
      "name": "Approval",
      "type": "event"
    },
    {
      "anonymous": false,
      "inputs": [
        {
          "indexed": true,
          "internalType": "address",
          "name": "bdstable_oracle_addr",
          "type": "address"
        },
        {
          "indexed": true,
          "internalType": "address",
          "name": "weth_address",
          "type": "address"
        }
      ],
      "name": "BDStable_WETH_OracleSet",
      "type": "event"
    },
    {
      "anonymous": false,
      "inputs": [
        {
          "indexed": true,
          "internalType": "address",
          "name": "bdx_oracle_address",
          "type": "address"
        },
        {
          "indexed": true,
          "internalType": "address",
          "name": "weth_address",
          "type": "address"
        }
      ],
      "name": "BDX_WETH_OracleSet",
      "type": "event"
    },
    {
      "anonymous": false,
      "inputs": [
        {
          "indexed": true,
          "internalType": "address",
          "name": "from",
          "type": "address"
        },
        {
          "indexed": true,
          "internalType": "address",
          "name": "to",
          "type": "address"
        },
        {
          "indexed": false,
          "internalType": "uint256",
          "name": "amount",
          "type": "uint256"
        }
      ],
      "name": "BdStableBurned",
      "type": "event"
    },
    {
      "anonymous": false,
      "inputs": [
        {
          "indexed": true,
          "internalType": "address",
          "name": "from",
          "type": "address"
        },
        {
          "indexed": true,
          "internalType": "address",
          "name": "to",
          "type": "address"
        },
        {
          "indexed": false,
          "internalType": "uint256",
          "name": "amount",
          "type": "uint256"
        }
      ],
      "name": "BdStableMinted",
      "type": "event"
    },
    {
      "anonymous": false,
      "inputs": [
        {
          "indexed": false,
          "internalType": "uint256",
          "name": "bdStable_step_d12",
          "type": "uint256"
        }
      ],
      "name": "BdStableStepSet",
      "type": "event"
    },
    {
      "anonymous": false,
      "inputs": [
        {
          "indexed": false,
          "internalType": "uint256",
          "name": "lockedCR_d12",
          "type": "uint256"
        }
      ],
      "name": "CollateralRatioLocked",
      "type": "event"
    },
    {
      "anonymous": false,
      "inputs": [
        {
          "indexed": false,
          "internalType": "bool",
          "name": "collateral_ratio_paused",
          "type": "bool"
        }
      ],
      "name": "CollateralRatioPausedToggled",
      "type": "event"
    },
    {
      "anonymous": false,
      "inputs": [
        {
          "indexed": false,
          "internalType": "uint256",
          "name": "global_collateral_ratio",
          "type": "uint256"
        }
      ],
      "name": "CollateralRatioRefreshed",
      "type": "event"
    },
    {
      "anonymous": false,
      "inputs": [
        {
          "indexed": false,
          "internalType": "address",
          "name": "eth_fiat_consumer_address",
          "type": "address"
        }
      ],
      "name": "EthFiatOracleSet",
      "type": "event"
    },
    {
      "anonymous": false,
      "inputs": [
        {
          "indexed": true,
          "internalType": "address",
          "name": "newOwner",
          "type": "address"
        }
      ],
      "name": "OwnerSet",
      "type": "event"
    },
    {
      "anonymous": false,
      "inputs": [
        {
          "indexed": false,
          "internalType": "address",
          "name": "pool_address",
          "type": "address"
        }
      ],
      "name": "PoolAdded",
      "type": "event"
    },
    {
      "anonymous": false,
      "inputs": [
        {
          "indexed": false,
          "internalType": "address",
          "name": "pool_address",
          "type": "address"
        }
      ],
      "name": "PoolRemoved",
      "type": "event"
    },
    {
      "anonymous": false,
      "inputs": [
        {
          "indexed": false,
          "internalType": "uint256",
          "name": "_price_band_d12",
          "type": "uint256"
        }
      ],
      "name": "PriceBandSet",
      "type": "event"
    },
    {
      "anonymous": false,
      "inputs": [
        {
          "indexed": false,
          "internalType": "uint256",
          "name": "_price_target_d12",
          "type": "uint256"
        }
      ],
      "name": "PriceTargetSet",
      "type": "event"
    },
    {
      "anonymous": false,
      "inputs": [
        {
          "indexed": true,
          "internalType": "address",
          "name": "from",
          "type": "address"
        },
        {
          "indexed": true,
          "internalType": "address",
          "name": "to",
          "type": "address"
        },
        {
          "indexed": false,
          "internalType": "uint256",
          "name": "value",
          "type": "uint256"
        }
      ],
      "name": "Transfer",
      "type": "event"
    },
    {
      "inputs": [],
      "name": "BDX_price_d12",
      "outputs": [
        {
          "internalType": "uint256",
          "name": "",
          "type": "uint256"
        }
      ],
      "stateMutability": "view",
      "type": "function"
    },
    {
      "inputs": [
        {
          "internalType": "address",
          "name": "pool_address",
          "type": "address"
        }
      ],
      "name": "addPool",
      "outputs": [],
      "stateMutability": "nonpayable",
      "type": "function"
    },
    {
      "inputs": [
        {
          "internalType": "address",
          "name": "owner",
          "type": "address"
        },
        {
          "internalType": "address",
          "name": "spender",
          "type": "address"
        }
      ],
      "name": "allowance",
      "outputs": [
        {
          "internalType": "uint256",
          "name": "",
          "type": "uint256"
        }
      ],
      "stateMutability": "view",
      "type": "function"
    },
    {
      "inputs": [
        {
          "internalType": "address",
          "name": "spender",
          "type": "address"
        },
        {
          "internalType": "uint256",
          "name": "amount",
          "type": "uint256"
        }
      ],
      "name": "approve",
      "outputs": [
        {
          "internalType": "bool",
          "name": "",
          "type": "bool"
        }
      ],
      "stateMutability": "nonpayable",
      "type": "function"
    },
    {
      "inputs": [
        {
          "internalType": "address",
          "name": "account",
          "type": "address"
        }
      ],
      "name": "balanceOf",
      "outputs": [
        {
          "internalType": "uint256",
          "name": "",
          "type": "uint256"
        }
      ],
      "stateMutability": "view",
      "type": "function"
    },
    {
      "inputs": [],
      "name": "bdStable_step_d12",
      "outputs": [
        {
          "internalType": "uint256",
          "name": "",
          "type": "uint256"
        }
      ],
      "stateMutability": "view",
      "type": "function"
    },
    {
      "inputs": [
        {
          "internalType": "address",
          "name": "",
          "type": "address"
        }
      ],
      "name": "bdstable_pools",
      "outputs": [
        {
          "internalType": "bool",
          "name": "",
          "type": "bool"
        }
      ],
      "stateMutability": "view",
      "type": "function"
    },
    {
      "inputs": [
        {
          "internalType": "uint256",
          "name": "",
          "type": "uint256"
        }
      ],
      "name": "bdstable_pools_array",
      "outputs": [
        {
          "internalType": "address",
          "name": "",
          "type": "address"
        }
      ],
      "stateMutability": "view",
      "type": "function"
    },
    {
      "inputs": [],
      "name": "bdstable_price_d12",
      "outputs": [
        {
          "internalType": "uint256",
          "name": "",
          "type": "uint256"
        }
      ],
      "stateMutability": "view",
      "type": "function"
    },
    {
      "inputs": [],
      "name": "bdx_address",
      "outputs": [
        {
          "internalType": "address",
          "name": "",
          "type": "address"
        }
      ],
      "stateMutability": "view",
      "type": "function"
    },
    {
      "inputs": [
        {
          "internalType": "uint256",
          "name": "amount",
          "type": "uint256"
        }
      ],
      "name": "burn",
      "outputs": [],
      "stateMutability": "nonpayable",
      "type": "function"
    },
    {
      "inputs": [
        {
          "internalType": "address",
          "name": "account",
          "type": "address"
        },
        {
          "internalType": "uint256",
          "name": "amount",
          "type": "uint256"
        }
      ],
      "name": "burnFrom",
      "outputs": [],
      "stateMutability": "nonpayable",
      "type": "function"
    },
    {
      "inputs": [
        {
          "internalType": "address",
          "name": "who",
          "type": "address"
        }
      ],
      "name": "canLegallyRedeem",
      "outputs": [
        {
          "internalType": "bool",
          "name": "",
          "type": "bool"
        }
      ],
      "stateMutability": "view",
      "type": "function"
    },
    {
      "inputs": [],
      "name": "collateral_ratio_paused",
      "outputs": [
        {
          "internalType": "bool",
          "name": "",
          "type": "bool"
        }
      ],
      "stateMutability": "view",
      "type": "function"
    },
    {
      "inputs": [],
      "name": "decimals",
      "outputs": [
        {
          "internalType": "uint8",
          "name": "",
          "type": "uint8"
        }
      ],
      "stateMutability": "view",
      "type": "function"
    },
    {
      "inputs": [
        {
          "internalType": "address",
          "name": "spender",
          "type": "address"
        },
        {
          "internalType": "uint256",
          "name": "subtractedValue",
          "type": "uint256"
        }
      ],
      "name": "decreaseAllowance",
      "outputs": [
        {
          "internalType": "bool",
          "name": "",
          "type": "bool"
        }
      ],
      "stateMutability": "nonpayable",
      "type": "function"
    },
    {
      "inputs": [],
      "name": "effective_global_collateral_ratio_d12",
      "outputs": [
        {
          "internalType": "uint256",
          "name": "",
          "type": "uint256"
        }
      ],
      "stateMutability": "view",
      "type": "function"
    },
    {
      "inputs": [],
      "name": "fiat",
      "outputs": [
        {
          "internalType": "string",
          "name": "",
          "type": "string"
        }
      ],
      "stateMutability": "view",
      "type": "function"
    },
    {
      "inputs": [],
      "name": "getBdStablesPoolsLength",
      "outputs": [
        {
          "internalType": "uint256",
          "name": "",
          "type": "uint256"
        }
      ],
      "stateMutability": "view",
      "type": "function"
    },
    {
      "inputs": [],
      "name": "globalCollateralValue",
      "outputs": [
        {
          "internalType": "uint256",
          "name": "",
          "type": "uint256"
        }
      ],
      "stateMutability": "view",
      "type": "function"
    },
    {
      "inputs": [],
      "name": "global_collateral_ratio_d12",
      "outputs": [
        {
          "internalType": "uint256",
          "name": "",
          "type": "uint256"
        }
      ],
      "stateMutability": "view",
      "type": "function"
    },
    {
      "inputs": [
        {
          "internalType": "address",
          "name": "spender",
          "type": "address"
        },
        {
          "internalType": "uint256",
          "name": "addedValue",
          "type": "uint256"
        }
      ],
      "name": "increaseAllowance",
      "outputs": [
        {
          "internalType": "bool",
          "name": "",
          "type": "bool"
        }
      ],
      "stateMutability": "nonpayable",
      "type": "function"
    },
    {
      "inputs": [
        {
          "internalType": "string",
          "name": "_name",
          "type": "string"
        },
        {
          "internalType": "string",
          "name": "_symbol",
          "type": "string"
        },
        {
          "internalType": "string",
          "name": "_fiat",
          "type": "string"
        },
        {
          "internalType": "address",
          "name": "_owner_address",
          "type": "address"
        },
        {
          "internalType": "address",
          "name": "_treasury_address",
          "type": "address"
        },
        {
          "internalType": "address",
          "name": "_bdx_address",
          "type": "address"
        },
        {
          "internalType": "uint256",
          "name": "_initalBdStableToOwner_d18",
          "type": "uint256"
        }
      ],
      "name": "initialize",
      "outputs": [],
      "stateMutability": "nonpayable",
      "type": "function"
    },
    {
      "inputs": [
        {
          "internalType": "address",
          "name": "",
          "type": "address"
        }
      ],
      "name": "lastMintByUserBlock",
      "outputs": [
        {
          "internalType": "uint256",
          "name": "",
          "type": "uint256"
        }
      ],
      "stateMutability": "view",
      "type": "function"
    },
    {
      "inputs": [
        {
          "internalType": "uint256",
          "name": "wantedCR_d12",
          "type": "uint256"
        }
      ],
      "name": "lockCollateralRatioAt",
      "outputs": [],
      "stateMutability": "nonpayable",
      "type": "function"
    },
    {
      "inputs": [],
      "name": "name",
      "outputs": [
        {
          "internalType": "string",
          "name": "",
          "type": "string"
        }
      ],
      "stateMutability": "view",
      "type": "function"
    },
    {
      "inputs": [],
      "name": "owner_address",
      "outputs": [
        {
          "internalType": "address",
          "name": "",
          "type": "address"
        }
      ],
      "stateMutability": "view",
      "type": "function"
    },
    {
      "inputs": [
        {
          "internalType": "address",
          "name": "b_address",
          "type": "address"
        },
        {
          "internalType": "uint256",
          "name": "b_amount",
          "type": "uint256"
        }
      ],
      "name": "pool_burn_from",
      "outputs": [],
      "stateMutability": "nonpayable",
      "type": "function"
    },
    {
      "inputs": [
        {
          "internalType": "address",
          "name": "m_address",
          "type": "address"
        },
        {
          "internalType": "uint256",
          "name": "m_amount",
          "type": "uint256"
        }
      ],
      "name": "pool_mint",
      "outputs": [],
      "stateMutability": "nonpayable",
      "type": "function"
    },
    {
      "inputs": [],
      "name": "price_band_d12",
      "outputs": [
        {
          "internalType": "uint256",
          "name": "",
          "type": "uint256"
        }
      ],
      "stateMutability": "view",
      "type": "function"
    },
    {
      "inputs": [],
      "name": "price_target_d12",
      "outputs": [
        {
          "internalType": "uint256",
          "name": "",
          "type": "uint256"
        }
      ],
      "stateMutability": "view",
      "type": "function"
    },
    {
      "inputs": [],
      "name": "refreshCollateralRatio",
      "outputs": [],
      "stateMutability": "nonpayable",
      "type": "function"
    },
    {
      "inputs": [],
      "name": "refreshCollateralRatio_last_call_time",
      "outputs": [
        {
          "internalType": "uint256",
          "name": "",
          "type": "uint256"
        }
      ],
      "stateMutability": "view",
      "type": "function"
    },
    {
      "inputs": [],
      "name": "refresh_cooldown",
      "outputs": [
        {
          "internalType": "uint256",
          "name": "",
          "type": "uint256"
        }
      ],
      "stateMutability": "view",
      "type": "function"
    },
    {
      "inputs": [
        {
          "internalType": "address",
          "name": "pool_address",
          "type": "address"
        }
      ],
      "name": "removePool",
      "outputs": [],
      "stateMutability": "nonpayable",
      "type": "function"
    },
    {
      "inputs": [
        {
          "internalType": "address",
          "name": "_bdstable_oracle_addr",
          "type": "address"
        },
        {
          "internalType": "address",
          "name": "_weth_address",
          "type": "address"
        }
      ],
      "name": "setBDStable_WETH_Oracle",
      "outputs": [],
      "stateMutability": "nonpayable",
      "type": "function"
    },
    {
      "inputs": [
        {
          "internalType": "address",
          "name": "_bdx_oracle_addr",
          "type": "address"
        },
        {
          "internalType": "address",
          "name": "_weth_address",
          "type": "address"
        }
      ],
      "name": "setBDX_WETH_Oracle",
      "outputs": [],
      "stateMutability": "nonpayable",
      "type": "function"
    },
    {
      "inputs": [
        {
          "internalType": "uint256",
          "name": "_bdStable_step_d12",
          "type": "uint256"
        }
      ],
      "name": "setBdStable_step_d12",
      "outputs": [],
      "stateMutability": "nonpayable",
      "type": "function"
    },
    {
      "inputs": [
        {
          "internalType": "address",
          "name": "_eth_fiat_consumer_address",
          "type": "address"
        }
      ],
      "name": "setETH_fiat_Oracle",
      "outputs": [],
      "stateMutability": "nonpayable",
      "type": "function"
    },
    {
      "inputs": [
        {
          "internalType": "uint256",
          "name": "_minimumMintRedeemDelayInBlocks",
          "type": "uint256"
        }
      ],
      "name": "setMinimumSwapsDelayInBlocks",
      "outputs": [],
      "stateMutability": "nonpayable",
      "type": "function"
    },
    {
      "inputs": [
        {
          "internalType": "address",
          "name": "_owner_address",
          "type": "address"
        }
      ],
      "name": "setOwner",
      "outputs": [],
      "stateMutability": "nonpayable",
      "type": "function"
    },
    {
      "inputs": [
        {
          "internalType": "address",
          "name": "_treasury_address",
          "type": "address"
        }
      ],
      "name": "setTreasury_address",
      "outputs": [],
      "stateMutability": "nonpayable",
      "type": "function"
    },
    {
      "inputs": [
        {
          "internalType": "uint256",
          "name": "_price_band_d12",
          "type": "uint256"
        }
      ],
      "name": "set_price_band_d12",
      "outputs": [],
      "stateMutability": "nonpayable",
      "type": "function"
    },
    {
      "inputs": [
        {
          "internalType": "uint256",
          "name": "_price_target_d12",
          "type": "uint256"
        }
      ],
      "name": "set_price_target_d12",
      "outputs": [],
      "stateMutability": "nonpayable",
      "type": "function"
    },
    {
      "inputs": [],
      "name": "shouldUpdateOracles",
      "outputs": [
        {
          "internalType": "bool",
          "name": "",
          "type": "bool"
        }
      ],
      "stateMutability": "view",
      "type": "function"
    },
    {
      "inputs": [],
      "name": "symbol",
      "outputs": [
        {
          "internalType": "string",
          "name": "",
          "type": "string"
        }
      ],
      "stateMutability": "view",
      "type": "function"
    },
    {
      "inputs": [],
      "name": "toggleCollateralRatioPaused",
      "outputs": [],
      "stateMutability": "nonpayable",
      "type": "function"
    },
    {
      "inputs": [],
      "name": "totalSupply",
      "outputs": [
        {
          "internalType": "uint256",
          "name": "",
          "type": "uint256"
        }
      ],
      "stateMutability": "view",
      "type": "function"
    },
    {
      "inputs": [
        {
          "internalType": "address",
          "name": "recipient",
          "type": "address"
        },
        {
          "internalType": "uint256",
          "name": "amount",
          "type": "uint256"
        }
      ],
      "name": "transfer",
      "outputs": [
        {
          "internalType": "bool",
          "name": "",
          "type": "bool"
        }
      ],
      "stateMutability": "nonpayable",
      "type": "function"
    },
    {
      "inputs": [
        {
          "internalType": "address",
          "name": "sender",
          "type": "address"
        },
        {
          "internalType": "address",
          "name": "recipient",
          "type": "address"
        },
        {
          "internalType": "uint256",
          "name": "amount",
          "type": "uint256"
        }
      ],
      "name": "transferFrom",
      "outputs": [
        {
          "internalType": "bool",
          "name": "",
          "type": "bool"
        }
      ],
      "stateMutability": "nonpayable",
      "type": "function"
    },
    {
      "inputs": [],
      "name": "treasury_address",
      "outputs": [
        {
          "internalType": "address",
          "name": "",
          "type": "address"
        }
      ],
      "stateMutability": "view",
      "type": "function"
    },
    {
      "inputs": [],
      "name": "updateOraclesIfNeeded",
      "outputs": [],
      "stateMutability": "nonpayable",
      "type": "function"
    },
    {
      "inputs": [],
      "name": "weth_address",
      "outputs": [
        {
          "internalType": "address",
          "name": "",
          "type": "address"
        }
      ],
      "stateMutability": "view",
      "type": "function"
    },
    {
      "inputs": [],
      "name": "weth_fiat_price",
      "outputs": [
        {
          "internalType": "uint256",
          "name": "",
          "type": "uint256"
        }
      ],
      "stateMutability": "view",
      "type": "function"
    }
  ],
  "transactionHash": "0x36dc7b7b943c97251680db92b5d66f725f29680fa7d5e5729c1972ce35bf6684",
  "args": [],
  "solcInputHash": "43f116f97573b6edbff460d0f2c8b612",
  "bytecode": "0x6080604052600260425534801561001557600080fd5b50612bb0806100256000396000f3fe608060405234801561001057600080fd5b50600436106103425760003560e01c806387a140c3116101b8578063b4f56b2611610104578063da6ed553116100a2578063ed99250c1161007c578063ed99250c1461064c578063eef772f214610654578063fa62921914610667578063fadb1b021461066f57610342565b8063da6ed5531461061e578063dd62ed3e14610626578063ed7e119f1461063957610342565b8063c03f7be3116100de578063c03f7be3146105f3578063ce202603146105fb578063d2d97b0614610603578063d914cd4b1461060b57610342565b8063b4f56b26146105d0578063b843153a146105e3578063bcdede5b146105eb57610342565b8063a50edca011610171578063abfd85751161014b578063abfd85751461058f578063b02f6aec146105a2578063b20b02aa146105b5578063b2d23622146105bd57610342565b8063a50edca014610561578063a8a778ae14610569578063a9059cbb1461057c57610342565b806387a140c31461051057806395d89b41146105185780639e92f14f146105205780639f5f79e014610533578063a367e27d14610546578063a457c2d71461054e57610342565b80633950935111610292578063686d14e61161023057806370a082311161020a57806370a08231146104da57806379cc6790146104ed57806380edef8e14610500578063870cfeab1461050857610342565b8063686d14e6146104b7578063688c0f47146104ca5780636c7ff97b146104d257610342565b806342966c681161026c57806342966c6814610476578063497b59611461048957806349daf9a41461049c5780635b078c76146104af57610342565b806339509351146104485780633b7d09461461045b5780634013124a1461046e57610342565b80631c098458116102ff57806325f10c9b116102d957806325f10c9b1461041057806326191e4b146104185780632fe16b9614610420578063313ce5671461043357610342565b80631c098458146103d557806323b872dd146103e8578063246126bd146103fb57610342565b806306fdde031461034757806308acfd2e14610365578063095ea7b31461037a5780631096f1031461039a57806313af4035146103ad57806318160ddd146103c0575b600080fd5b61034f610677565b60405161035c91906125ef565b60405180910390f35b6103786103733660046123ca565b610705565b005b61038d610388366004612459565b61075a565b60405161035c91906125e4565b61038d6103a83660046123ca565b610778565b6103786103bb3660046123ca565b6107b0565b6103c861084a565b60405161035c9190612a95565b6103786103e3366004612566565b610851565b61038d6103f6366004612419565b6108bb565b610403610948565b60405161035c91906125b7565b6103c8610957565b6103c8610968565b61038d61042e3660046123ca565b61096e565b61043b610983565b60405161035c9190612a9e565b61038d610456366004612459565b610988565b6103786104693660046123ca565b6109dc565b610378610b70565b610378610484366004612566565b610d85565b610403610497366004612566565b610d99565b6103786104aa3660046124a3565b610dc0565b6103c8610f30565b6103786104c53660046123ca565b610fd9565b6103c86110e0565b6103786110e6565b6103c86104e83660046123ca565b6112cf565b6103786104fb366004612459565b6112ea565b610403611345565b6103c8611354565b61038d61135a565b61034f611363565b61037861052e3660046123e5565b6113be565b610378610541366004612566565b611446565b6104036114a5565b61038d61055c366004612459565b6114b4565b61034f611522565b610378610577366004612459565b61157d565b61038d61058a366004612459565b61160a565b61037861059d366004612566565b61161e565b6103786105b0366004612566565b61167b565b6103c86116e7565b6103786105cb3660046123e5565b6116ed565b6103786105de366004612459565b611775565b610403611800565b61038d61180f565b6103c8611918565b6103c861191e565b6103c8611924565b6103786106193660046123ca565b6119e1565b610378611afd565b6103c86106343660046123e5565b611b75565b6103c86106473660046123ca565b611ba0565b6103c8611bb2565b610378610662366004612566565b611bbe565b6103c8611bed565b6103c8611c29565b6032805460408051602060026001851615610100026000190190941693909304601f810184900484028201840190925281815292918301828280156106fd5780601f106106d2576101008083540402835291602001916106fd565b820191906000526020600020905b8154815290600101906020018083116106e057829003601f168201915b505050505081565b6034546001600160a01b031633146107385760405162461bcd60e51b815260040161072f906127b0565b60405180910390fd5b603680546001600160a01b0319166001600160a01b0392909216919091179055565b600061076e610767611c2f565b8484611c33565b5060015b92915050565b6042546001600160a01b0382166000908152604460205260408120549091906107a890439063ffffffff611ce716565b101592915050565b6034546001600160a01b031633146107da5760405162461bcd60e51b815260040161072f906127b0565b6001600160a01b0381166108005760405162461bcd60e51b815260040161072f906129c9565b603480546001600160a01b0319166001600160a01b0383169081179091556040517f50146d0e3c60aa1d17a70635b05494f864e86144a2201275021014fbf08bafe290600090a250565b6002545b90565b6034546001600160a01b0316331461087b5760405162461bcd60e51b815260040161072f906127b0565b603e8190556040517fa603e975ae74b9c52c4ab59b67b328222c699f765f89b808e8a2ae7c9ae2428e906108b0908390612a95565b60405180910390a150565b60006108c8848484611d0f565b61093e846108d4611c2f565b61093985604051806060016040528060288152602001612b0a602891396001600160a01b038a16600090815260016020526040812090610912611c2f565b6001600160a01b03168152602081019190915260400160002054919063ffffffff611e3016565b611c33565b5060019392505050565b603b546001600160a01b031681565b60006109636000611e5c565b905090565b603e5481565b603d6020526000908152604090205460ff1681565b601281565b600061076e610995611c2f565b8461093985600160006109a6611c2f565b6001600160a01b03908116825260208083019390935260409182016000908120918c16815292529020549063ffffffff611ff416565b6034546001600160a01b03163314610a065760405162461bcd60e51b815260040161072f906127b0565b6001600160a01b0381166000908152603d602052604090205460ff161515600114610a435760405162461bcd60e51b815260040161072f906126fe565b6001600160a01b0381166000908152603d60205260408120805460ff191690555b603c54811015610b4057816001600160a01b0316603c8281548110610a8557fe5b6000918252602090912001546001600160a01b03161415610b3857603c80546000198101908110610ab257fe5b600091825260209091200154603c80546001600160a01b039092169183908110610ad857fe5b9060005260206000200160006101000a8154816001600160a01b0302191690836001600160a01b03160217905550603c805480610b1157fe5b600082815260209020810160001990810180546001600160a01b0319169055019055610b40565b600101610a64565b507f4106dfdaa577573db51c0ca93f766dbedfa0758faa2e7f5bcdb7c142be803c3f816040516108b091906125b7565b60435460ff16151560011415610b8557610d83565b603f5460455442031015610b9857610d83565b603760009054906101000a90046001600160a01b03166001600160a01b03166309bf39ed6040518163ffffffff1660e01b815260040160206040518083038186803b158015610be657600080fd5b505afa158015610bfa573d6000803e3d6000fd5b505050506040513d601f19601f82011682018060405250810190610c1e9190612483565b15610c8c57603760009054906101000a90046001600160a01b03166001600160a01b031663d6f124f06040518163ffffffff1660e01b8152600401600060405180830381600087803b158015610c7357600080fd5b505af1158015610c87573d6000803e3d6000fd5b505050505b6000610c96610957565b9050610caf604154604054611ff490919063ffffffff16565b811115610ce957603e54603a5411610ccb576000603a55610ce4565b603e54603a54610ce09163ffffffff611ce716565b603a555b610d4e565b604154604054610cfe9163ffffffff611ce716565b811015610d4e5764e8d4a51000610d22603e54603a54611ff490919063ffffffff16565b10610d355764e8d4a51000603a55610d4e565b603e54603a54610d4a9163ffffffff611ff416565b603a555b42604555603a546040517fb1200af9b3ac4dec88c9d01e1fb7cc7fa1f0fe55bf4afac1f30cc4fc2b2d1dd2916108b091612a95565b565b610d96610d90611c2f565b82612020565b50565b603c8181548110610da657fe5b6000918252602090912001546001600160a01b0316905081565b603054610100900460ff1680610dd95750610dd9612102565b80610de7575060305460ff16155b610e035760405162461bcd60e51b815260040161072f90612816565b603054610100900460ff16158015610e2e576030805460ff1961ff0019909116610100171660011790555b8751610e419060329060208b019061229d565b508651610e559060319060208a019061229d565b508551610e6990603390602089019061229d565b50603480546001600160a01b038088166001600160a01b031992831617909255603680548784169083161790556035805492861692909116919091179055610ecf612710610ec364e8d4a51000601963ffffffff61211316565b9063ffffffff61214d16565b603e5564e8d4a51000603a8190556040819055610efb9061271090610ec390603263ffffffff61211316565b604155610e10603f558115610f1457610f14858361217f565b8015610f26576030805461ff00191690555b5050505050505050565b6039546040805163f245a92f60e01b815290516000926109639260ff600160a01b830416600a0a92610ec39264e8d4a51000926001600160a01b039091169163f245a92f91600480820192602092909190829003018186803b158015610f9557600080fd5b505afa158015610fa9573d6000803e3d6000fd5b505050506040513d601f19601f82011682018060405250810190610fcd919061257e565b9063ffffffff61211316565b6034546001600160a01b031633146110035760405162461bcd60e51b815260040161072f906127b0565b603980546001600160a01b0319166001600160a01b03838116919091179182905560408051633c05076160e21b81529051929091169163f0141d8491600480820192602092909190829003018186803b15801561105f57600080fd5b505afa158015611073573d6000803e3d6000fd5b505050506040513d601f19601f820116820180604052508101906110979190612596565b603960146101000a81548160ff021916908360ff1602179055507f6643a1fbc87d792d8e737bc2f2d5c0f1c7477ab534d0254404a448decceb3d97816040516108b091906125b7565b603c5490565b603860009054906101000a90046001600160a01b03166001600160a01b03166309bf39ed6040518163ffffffff1660e01b815260040160206040518083038186803b15801561113457600080fd5b505afa158015611148573d6000803e3d6000fd5b505050506040513d601f19601f8201168201806040525081019061116c9190612483565b156111da57603860009054906101000a90046001600160a01b03166001600160a01b031663d6f124f06040518163ffffffff1660e01b8152600401600060405180830381600087803b1580156111c157600080fd5b505af11580156111d5573d6000803e3d6000fd5b505050505b603760009054906101000a90046001600160a01b03166001600160a01b03166309bf39ed6040518163ffffffff1660e01b815260040160206040518083038186803b15801561122857600080fd5b505afa15801561123c573d6000803e3d6000fd5b505050506040513d601f19601f820116820180604052508101906112609190612483565b15610d8357603760009054906101000a90046001600160a01b03166001600160a01b031663d6f124f06040518163ffffffff1660e01b8152600401600060405180830381600087803b1580156112b557600080fd5b505af11580156112c9573d6000803e3d6000fd5b50505050565b6001600160a01b031660009081526020819052604090205490565b600061132282604051806060016040528060248152602001612b326024913961131586610634611c2f565b919063ffffffff611e3016565b905061133683611330611c2f565b83611c33565b6113408383612020565b505050565b6034546001600160a01b031681565b60455481565b60435460ff1681565b6031805460408051602060026001851615610100026000190190941693909304601f810184900484028201840190925281815292918301828280156106fd5780601f106106d2576101008083540402835291602001916106fd565b6034546001600160a01b031633146113e85760405162461bcd60e51b815260040161072f906127b0565b603880546001600160a01b03199081166001600160a01b03858116918217909355603b80549092169284169283179091556040517fc9f7b9114f19207e2ab326f6283ffa7ca31152981ed14b34a1a8fb039bf562e490600090a35050565b6034546001600160a01b031633146114705760405162461bcd60e51b815260040161072f906127b0565b60418190556040517fe9febe6aec89ff2870eeab6d13333c59cbed275b1d9a95f527c853d99ddb7cf4906108b0908390612a95565b6036546001600160a01b031681565b600061076e6114c1611c2f565b8461093985604051806060016040528060258152602001612b5660259139600160006114eb611c2f565b6001600160a01b03908116825260208083019390935260409182016000908120918d1681529252902054919063ffffffff611e3016565b6033805460408051602060026001851615610100026000190190941693909304601f810184900484028201840190925281815292918301828280156106fd5780601f106106d2576101008083540402835291602001916106fd565b336000908152603d602052604090205460ff1615156001146115b15760405162461bcd60e51b815260040161072f9061276c565b6115bb828261223f565b336001600160a01b0316826001600160a01b03167f12d4d764706ce89037b449ff0dea7e084ef851d40ff63edaa38db6f33a581c7f836040516115fe9190612a95565b60405180910390a35050565b600061076e611617611c2f565b8484611d0f565b6034546001600160a01b031633146116485760405162461bcd60e51b815260040161072f906127b0565b6040818155517f898a2c9df7982133daaa8cfd78b8c49c520cba03205eec6480552c19059f6e3a906108b0908390612a95565b6034546001600160a01b031633146116a55760405162461bcd60e51b815260040161072f906127b0565b603a8190556043805460ff191660011790556040517ff3cd0dd9cc1a87f0d8733b9942a8864d40cb15c961b612792723a0a7858dd53d906108b0908390612a95565b60415481565b6034546001600160a01b031633146117175760405162461bcd60e51b815260040161072f906127b0565b603780546001600160a01b03199081166001600160a01b03858116918217909355603b80549092169284169283179091556040517f7bfb3b83b7a634aa3363e0d152007e16be1802bba198a3def769d8c1e4849f5f90600090a35050565b336000908152603d602052604090205460ff1615156001146117a95760405162461bcd60e51b815260040161072f9061276c565b6117b3828261217f565b6001600160a01b038216600081815260446020526040908190204390555133907f69f651718349cff8d0d00acbb3ebb2bf127edbdfc02746168d5e35fb7998b399906115fe908590612a95565b6035546001600160a01b031681565b603854604080516309bf39ed60e01b815290516000926001600160a01b0316916309bf39ed916004808301926020929190829003018186803b15801561185457600080fd5b505afa158015611868573d6000803e3d6000fd5b505050506040513d601f19601f8201168201806040525081019061188c9190612483565b806109635750603760009054906101000a90046001600160a01b03166001600160a01b03166309bf39ed6040518163ffffffff1660e01b815260040160206040518083038186803b1580156118e057600080fd5b505afa1580156118f4573d6000803e3d6000fd5b505050506040513d601f19601f820116820180604052508101906109639190612483565b603f5481565b60405481565b600080805b603c548110156119db576119d1603c828154811061194357fe5b6000918252602091829020015460408051639ccabfb560e01b815290516001600160a01b0390921692639ccabfb592600480840193829003018186803b15801561198c57600080fd5b505afa1580156119a0573d6000803e3d6000fd5b505050506040513d601f19601f820116820180604052508101906119c4919061257e565b839063ffffffff611ff416565b9150600101611929565b50905090565b6034546001600160a01b03163314611a0b5760405162461bcd60e51b815260040161072f906127b0565b6001600160a01b0381166000908152603d602052604090205460ff1615611a445760405162461bcd60e51b815260040161072f906128a5565b603c54602011611a665760405162461bcd60e51b815260040161072f90612913565b6001600160a01b0381166000818152603d6020526040808220805460ff19166001908117909155603c805491820181559092527fc6bb06cb7f92603de181bf256cd16846b93b752a170ff24824098b31aa008a7e90910180546001600160a01b031916909217909155517f73cca62ab1b520c9715bf4e6c71e3e518c754e7148f65102f43289a7df0efea6906108b09083906125b7565b6034546001600160a01b03163314611b275760405162461bcd60e51b815260040161072f906127b0565b6043805460ff19811660ff9182161517918290556040517f558e3ca434dbb046a1200c25235032a55789c63515e8c78f60495063b75e141f92611b6b9216906125e4565b60405180910390a1565b6001600160a01b03918216600090815260016020908152604080832093909416825291909152205490565b60446020526000908152604090205481565b60006109636001611e5c565b6034546001600160a01b03163314611be85760405162461bcd60e51b815260040161072f906127b0565b604255565b600080611bf861084a565b90506000611c04611924565b90506000611c2183610ec38464e8d4a5100063ffffffff61211316565b935050505090565b603a5481565b3390565b6001600160a01b038316611c595760405162461bcd60e51b815260040161072f90612985565b6001600160a01b038216611c7f5760405162461bcd60e51b815260040161072f90612685565b6001600160a01b0380841660008181526001602090815260408083209487168084529490915290819020849055517f8c5be1e5ebec7d5bd14f71427d1e84f3dd0314c0f7b2291e5b200ac8c7c3b92590611cda908590612a95565b60405180910390a3505050565b600082821115611d095760405162461bcd60e51b815260040161072f90612735565b50900390565b6001600160a01b038316611d355760405162461bcd60e51b815260040161072f90612940565b6001600160a01b038216611d5b5760405162461bcd60e51b815260040161072f90612642565b611d66838383611340565b611da981604051806060016040528060268152602001612ae4602691396001600160a01b038616600090815260208190526040902054919063ffffffff611e3016565b6001600160a01b038085166000908152602081905260408082209390935590841681522054611dde908263ffffffff611ff416565b6001600160a01b0380841660008181526020819052604090819020939093559151908516907fddf252ad1be2c89b69c2b068fc378daa952ba7f163c4a11628f55a4df523b3ef90611cda908590612a95565b60008184841115611e545760405162461bcd60e51b815260040161072f91906125ef565b505050900390565b6039546040805163f245a92f60e01b815290516000928392611ec39260ff600160a01b840416600a0a92610ec39264e8d4a51000926001600160a01b039092169163f245a92f91600480820192602092909190829003018186803b158015610f9557600080fd5b9050600080846001811115611ed457fe5b1415611f6c57603754603b54604051633ddac95360e01b81526001600160a01b0392831692633ddac95392611f159291169064e8d4a51000906004016125cb565b60206040518083038186803b158015611f2d57600080fd5b505afa158015611f41573d6000803e3d6000fd5b505050506040513d601f19601f82011682018060405250810190611f65919061257e565b9050611fd3565b6001846001811115611f7a57fe5b1415611fbb57603854603b54604051633ddac95360e01b81526001600160a01b0392831692633ddac95392611f159291169064e8d4a51000906004016125cb565b60405162461bcd60e51b815260040161072f90612a00565b611fec81610ec38464e8d4a5100063ffffffff61211316565b949350505050565b6000828201838110156120195760405162461bcd60e51b815260040161072f906126c7565b9392505050565b6001600160a01b0382166120465760405162461bcd60e51b815260040161072f906128d2565b61205282600083611340565b61209581604051806060016040528060228152602001612ac2602291396001600160a01b038516600090815260208190526040902054919063ffffffff611e3016565b6001600160a01b0383166000908152602081905260409020556002546120c1908263ffffffff611ce716565b6002556040516000906001600160a01b038416907fddf252ad1be2c89b69c2b068fc378daa952ba7f163c4a11628f55a4df523b3ef906115fe908590612a95565b600061210d30612297565b15905090565b60008261212257506000610772565b8282028284828161212f57fe5b04146120195760405162461bcd60e51b815260040161072f90612864565b600080821161216e5760405162461bcd60e51b815260040161072f906127df565b81838161217757fe5b049392505050565b6001600160a01b0382166121a55760405162461bcd60e51b815260040161072f90612a5e565b6121b160008383611340565b6002546121c4908263ffffffff611ff416565b6002556001600160a01b0382166000908152602081905260409020546121f0908263ffffffff611ff416565b6001600160a01b0383166000818152602081905260408082209390935591519091907fddf252ad1be2c89b69c2b068fc378daa952ba7f163c4a11628f55a4df523b3ef906115fe908590612a95565b6122498282612020565b61229382612255611c2f565b61093984604051806060016040528060248152602001612b32602491396001600160a01b038816600090815260016020526040812090610912611c2f565b5050565b3b151590565b828054600181600116156101000203166002900490600052602060002090601f016020900481019282601f106122de57805160ff191683800117855561230b565b8280016001018555821561230b579182015b8281111561230b5782518255916020019190600101906122f0565b5061231792915061231b565b5090565b61084e91905b808211156123175760008155600101612321565b80356001600160a01b038116811461077257600080fd5b600082601f83011261235c578081fd5b813567ffffffffffffffff80821115612373578283fd5b604051601f8301601f191681016020018281118282101715612393578485fd5b6040528281529250828483016020018610156123ae57600080fd5b8260208601602083013760006020848301015250505092915050565b6000602082840312156123db578081fd5b6120198383612335565b600080604083850312156123f7578081fd5b6124018484612335565b91506124108460208501612335565b90509250929050565b60008060006060848603121561242d578081fd5b833561243881612aac565b9250602084013561244881612aac565b929592945050506040919091013590565b6000806040838503121561246b578182fd5b6124758484612335565b946020939093013593505050565b600060208284031215612494578081fd5b81518015158114612019578182fd5b600080600080600080600060e0888a0312156124bd578283fd5b873567ffffffffffffffff808211156124d4578485fd5b6124e08b838c0161234c565b985060208a01359150808211156124f5578485fd5b6125018b838c0161234c565b975060408a0135915080821115612516578485fd5b506125238a828b0161234c565b9550506125338960608a01612335565b93506125428960808a01612335565b92506125518960a08a01612335565b915060c0880135905092959891949750929550565b600060208284031215612577578081fd5b5035919050565b60006020828403121561258f578081fd5b5051919050565b6000602082840312156125a7578081fd5b815160ff81168114612019578182fd5b6001600160a01b0391909116815260200190565b6001600160a01b03929092168252602082015260400190565b901515815260200190565b6000602080835283518082850152825b8181101561261b578581018301518582016040015282016125ff565b8181111561262c5783604083870101525b50601f01601f1916929092016040019392505050565b60208082526023908201527f45524332303a207472616e7366657220746f20746865207a65726f206164647260408201526265737360e81b606082015260800190565b60208082526022908201527f45524332303a20617070726f766520746f20746865207a65726f206164647265604082015261737360f01b606082015260800190565b6020808252601b908201527f536166654d6174683a206164646974696f6e206f766572666c6f770000000000604082015260600190565b6020808252601d908201527f6164647265737320646f65736e277420657869737420616c7265616479000000604082015260600190565b6020808252601e908201527f536166654d6174683a207375627472616374696f6e206f766572666c6f770000604082015260600190565b60208082526024908201527f4f6e6c7920626420706f6f6c732063616e2063616c6c20746869732066756e636040820152633a34b7b760e11b606082015260800190565b6020808252601590820152742cb7ba9030b932903737ba103a34329037bbb732b960591b604082015260600190565b6020808252601a908201527f536166654d6174683a206469766973696f6e206279207a65726f000000000000604082015260600190565b6020808252602e908201527f496e697469616c697a61626c653a20636f6e747261637420697320616c72656160408201526d191e481a5b9a5d1a585b1a5e995960921b606082015260800190565b60208082526021908201527f536166654d6174683a206d756c7469706c69636174696f6e206f766572666c6f6040820152607760f81b606082015260800190565b602080825260139082015272706f6f6c20616c72656164792065786973747360681b604082015260600190565b60208082526021908201527f45524332303a206275726e2066726f6d20746865207a65726f206164647265736040820152607360f81b606082015260800190565b6020808252601390820152721c1bdbdb1cc81b1a5b5a5d081c995858da1959606a1b604082015260600190565b60208082526025908201527f45524332303a207472616e736665722066726f6d20746865207a65726f206164604082015264647265737360d81b606082015260800190565b60208082526024908201527f45524332303a20617070726f76652066726f6d20746865207a65726f206164646040820152637265737360e01b606082015260800190565b6020808252601f908201527f4e6577206f776e65722063616e2774206265207a65726f206164647265737300604082015260600190565b602080825260409082018190527f494e56414c49442050524943452043484f4943452e204e6565647320746f2062908201527f6520656974686572203020284244535441424c4529206f722031202842445829606082015260800190565b6020808252601f908201527f45524332303a206d696e7420746f20746865207a65726f206164647265737300604082015260600190565b90815260200190565b60ff91909116815260200190565b6001600160a01b0381168114610d9657600080fdfe45524332303a206275726e20616d6f756e7420657863656564732062616c616e636545524332303a207472616e7366657220616d6f756e7420657863656564732062616c616e636545524332303a207472616e7366657220616d6f756e74206578636565647320616c6c6f77616e636545524332303a206275726e20616d6f756e74206578636565647320616c6c6f77616e636545524332303a2064656372656173656420616c6c6f77616e63652062656c6f77207a65726fa26469706673582212204ddbfdb30f4a09725a74c48753a77b2413565b6e899410d7ae7bfa34c2c95a2064736f6c634300060b0033",
  "devdoc": {
    "kind": "dev",
    "methods": {
      "allowance(address,address)": {
        "details": "See {IERC20-allowance}."
      },
      "approve(address,uint256)": {
        "details": "See {IERC20-approve}. Requirements: - `spender` cannot be the zero address.approve(address spender, uint256 amount)"
      },
      "balanceOf(address)": {
        "details": "See {IERC20-balanceOf}."
      },
      "burn(uint256)": {
        "details": "Destroys `amount` tokens from the caller. See {ERC20-_burn}."
      },
      "burnFrom(address,uint256)": {
        "details": "Destroys `amount` tokens from `account`, deducting from the caller's allowance. See {ERC20-_burn} and {ERC20-allowance}. Requirements: - the caller must have allowance for `accounts`'s tokens of at least `amount`."
      },
      "decreaseAllowance(address,uint256)": {
        "details": "Atomically decreases the allowance granted to `spender` by the caller. This is an alternative to {approve} that can be used as a mitigation for problems described in {IERC20-approve}. Emits an {Approval} event indicating the updated allowance. Requirements: - `spender` cannot be the zero address. - `spender` must have allowance for the caller of at least `subtractedValue`."
      },
      "increaseAllowance(address,uint256)": {
        "details": "Atomically increases the allowance granted to `spender` by the caller. This is an alternative to {approve} that can be used as a mitigation for problems described in {IERC20-approve}. Emits an {Approval} event indicating the updated allowance. Requirements: - `spender` cannot be the zero address."
      },
      "totalSupply()": {
        "details": "See {IERC20-totalSupply}."
      },
      "transfer(address,uint256)": {
        "details": "See {IERC20-transfer}. Requirements: - `recipient` cannot be the zero address. - the caller must have a balance of at least `amount`."
      },
      "transferFrom(address,address,uint256)": {
        "details": "See {IERC20-transferFrom}. Emits an {Approval} event indicating the updated allowance. This is not required by the EIP. See the note at the beginning of {ERC20}; Requirements: - `sender` and `recipient` cannot be the zero address. - `sender` must have a balance of at least `amount`. - the caller must have allowance for `sender`'s tokens of at least `amount`."
      }
    },
    "version": 1
  },
  "userdoc": {
    "kind": "user",
    "methods": {},
    "version": 1
  },
  "storageLayout": {
    "storage": [
      {
        "astId": 7042,
        "contract": "contracts/BdStable/BDStable.sol:BDStable",
        "label": "_balances",
        "offset": 0,
        "slot": "0",
        "type": "t_mapping(t_address,t_uint256)"
      },
      {
        "astId": 7048,
        "contract": "contracts/BdStable/BDStable.sol:BDStable",
        "label": "_allowances",
        "offset": 0,
        "slot": "1",
        "type": "t_mapping(t_address,t_mapping(t_address,t_uint256))"
      },
      {
        "astId": 7050,
        "contract": "contracts/BdStable/BDStable.sol:BDStable",
        "label": "_totalSupply",
        "offset": 0,
        "slot": "2",
        "type": "t_uint256"
      },
      {
        "astId": 7542,
        "contract": "contracts/BdStable/BDStable.sol:BDStable",
        "label": "__gap",
        "offset": 0,
        "slot": "3",
        "type": "t_array(t_uint256)45_storage"
      },
      {
        "astId": 492,
        "contract": "contracts/BdStable/BDStable.sol:BDStable",
        "label": "_initialized",
        "offset": 0,
        "slot": "48",
        "type": "t_bool"
      },
      {
        "astId": 495,
        "contract": "contracts/BdStable/BDStable.sol:BDStable",
        "label": "_initializing",
        "offset": 1,
        "slot": "48",
        "type": "t_bool"
      },
      {
        "astId": 3331,
        "contract": "contracts/BdStable/BDStable.sol:BDStable",
        "label": "symbol",
        "offset": 0,
        "slot": "49",
        "type": "t_string_storage"
      },
      {
        "astId": 3333,
        "contract": "contracts/BdStable/BDStable.sol:BDStable",
        "label": "name",
        "offset": 0,
        "slot": "50",
        "type": "t_string_storage"
      },
      {
        "astId": 3335,
        "contract": "contracts/BdStable/BDStable.sol:BDStable",
        "label": "fiat",
        "offset": 0,
        "slot": "51",
        "type": "t_string_storage"
      },
      {
        "astId": 3337,
        "contract": "contracts/BdStable/BDStable.sol:BDStable",
        "label": "owner_address",
        "offset": 0,
        "slot": "52",
        "type": "t_address"
      },
      {
        "astId": 3339,
        "contract": "contracts/BdStable/BDStable.sol:BDStable",
        "label": "bdx_address",
        "offset": 0,
        "slot": "53",
        "type": "t_address"
      },
      {
        "astId": 3341,
        "contract": "contracts/BdStable/BDStable.sol:BDStable",
        "label": "treasury_address",
        "offset": 0,
        "slot": "54",
        "type": "t_address"
      },
      {
        "astId": 3343,
        "contract": "contracts/BdStable/BDStable.sol:BDStable",
        "label": "bdstableWethOracle",
        "offset": 0,
        "slot": "55",
        "type": "t_contract(ICryptoPairOracle)9112"
      },
      {
        "astId": 3345,
        "contract": "contracts/BdStable/BDStable.sol:BDStable",
        "label": "bdxWethOracle",
        "offset": 0,
        "slot": "56",
        "type": "t_contract(ICryptoPairOracle)9112"
      },
      {
        "astId": 3347,
        "contract": "contracts/BdStable/BDStable.sol:BDStable",
        "label": "weth_fiat_pricer",
        "offset": 0,
        "slot": "57",
        "type": "t_contract(IOracleBasedCryptoFiatFeed)9136"
      },
      {
        "astId": 3349,
        "contract": "contracts/BdStable/BDStable.sol:BDStable",
        "label": "weth_fiat_pricer_decimals",
        "offset": 20,
        "slot": "57",
        "type": "t_uint8"
      },
      {
        "astId": 3351,
        "contract": "contracts/BdStable/BDStable.sol:BDStable",
        "label": "global_collateral_ratio_d12",
        "offset": 0,
        "slot": "58",
        "type": "t_uint256"
      },
      {
        "astId": 3353,
        "contract": "contracts/BdStable/BDStable.sol:BDStable",
        "label": "weth_address",
        "offset": 0,
        "slot": "59",
        "type": "t_address"
      },
      {
        "astId": 3356,
        "contract": "contracts/BdStable/BDStable.sol:BDStable",
        "label": "bdstable_pools_array",
        "offset": 0,
        "slot": "60",
        "type": "t_array(t_address)dyn_storage"
      },
      {
        "astId": 3360,
        "contract": "contracts/BdStable/BDStable.sol:BDStable",
        "label": "bdstable_pools",
        "offset": 0,
        "slot": "61",
        "type": "t_mapping(t_address,t_bool)"
      },
      {
        "astId": 3362,
        "contract": "contracts/BdStable/BDStable.sol:BDStable",
        "label": "bdStable_step_d12",
        "offset": 0,
        "slot": "62",
        "type": "t_uint256"
      },
      {
        "astId": 3364,
        "contract": "contracts/BdStable/BDStable.sol:BDStable",
        "label": "refresh_cooldown",
        "offset": 0,
        "slot": "63",
        "type": "t_uint256"
      },
      {
        "astId": 3366,
        "contract": "contracts/BdStable/BDStable.sol:BDStable",
        "label": "price_target_d12",
        "offset": 0,
        "slot": "64",
        "type": "t_uint256"
      },
      {
        "astId": 3368,
        "contract": "contracts/BdStable/BDStable.sol:BDStable",
        "label": "price_band_d12",
        "offset": 0,
        "slot": "65",
        "type": "t_uint256"
      },
      {
        "astId": 3371,
        "contract": "contracts/BdStable/BDStable.sol:BDStable",
        "label": "minimumMintRedeemDelayInBlocks",
        "offset": 0,
        "slot": "66",
        "type": "t_uint256"
      },
      {
        "astId": 3373,
        "contract": "contracts/BdStable/BDStable.sol:BDStable",
        "label": "collateral_ratio_paused",
        "offset": 0,
        "slot": "67",
        "type": "t_bool"
      },
      {
        "astId": 3377,
        "contract": "contracts/BdStable/BDStable.sol:BDStable",
        "label": "lastMintByUserBlock",
        "offset": 0,
        "slot": "68",
        "type": "t_mapping(t_address,t_uint256)"
      },
      {
        "astId": 3379,
        "contract": "contracts/BdStable/BDStable.sol:BDStable",
        "label": "refreshCollateralRatio_last_call_time",
        "offset": 0,
        "slot": "69",
        "type": "t_uint256"
      }
    ],
    "types": {
      "t_address": {
        "encoding": "inplace",
        "label": "address",
        "numberOfBytes": "20"
      },
      "t_array(t_address)dyn_storage": {
        "base": "t_address",
        "encoding": "dynamic_array",
        "label": "address[]",
        "numberOfBytes": "32"
      },
      "t_array(t_uint256)45_storage": {
        "base": "t_uint256",
        "encoding": "inplace",
        "label": "uint256[45]",
        "numberOfBytes": "1440"
      },
      "t_bool": {
        "encoding": "inplace",
        "label": "bool",
        "numberOfBytes": "1"
      },
      "t_contract(ICryptoPairOracle)9112": {
        "encoding": "inplace",
        "label": "contract ICryptoPairOracle",
        "numberOfBytes": "20"
      },
      "t_contract(IOracleBasedCryptoFiatFeed)9136": {
        "encoding": "inplace",
        "label": "contract IOracleBasedCryptoFiatFeed",
        "numberOfBytes": "20"
      },
      "t_mapping(t_address,t_bool)": {
        "encoding": "mapping",
        "key": "t_address",
        "label": "mapping(address => bool)",
        "numberOfBytes": "32",
        "value": "t_bool"
      },
      "t_mapping(t_address,t_mapping(t_address,t_uint256))": {
        "encoding": "mapping",
        "key": "t_address",
        "label": "mapping(address => mapping(address => uint256))",
        "numberOfBytes": "32",
        "value": "t_mapping(t_address,t_uint256)"
      },
      "t_mapping(t_address,t_uint256)": {
        "encoding": "mapping",
        "key": "t_address",
        "label": "mapping(address => uint256)",
        "numberOfBytes": "32",
        "value": "t_uint256"
      },
      "t_string_storage": {
        "encoding": "bytes",
        "label": "string",
        "numberOfBytes": "32"
      },
      "t_uint256": {
        "encoding": "inplace",
        "label": "uint256",
        "numberOfBytes": "32"
      },
      "t_uint8": {
        "encoding": "inplace",
        "label": "uint8",
        "numberOfBytes": "1"
      }
    }
  }
}