{
  "address": "0x7f51660bEdb89559c57eEc9e591D2CdeAB31fbf4",
  "abi": [
    {
      "anonymous": false,
      "inputs": [
        {
          "indexed": true,
          "internalType": "uint256",
          "name": "bdx_amount_paid",
          "type": "uint256"
        },
        {
          "indexed": true,
          "internalType": "uint256",
          "name": "collateral_paid_back",
          "type": "uint256"
        }
      ],
      "name": "BoughtBack",
      "type": "event"
    },
    {
      "anonymous": false,
      "inputs": [
        {
          "indexed": false,
          "internalType": "bool",
          "name": "buybackOnlyForOwner",
          "type": "bool"
        }
      ],
      "name": "BuybackOnlyForOwnerToggled",
      "type": "event"
    },
    {
      "anonymous": false,
      "inputs": [
        {
          "indexed": false,
          "internalType": "bool",
          "name": "toggled",
          "type": "bool"
        }
      ],
      "name": "BuybackPausedToggled",
      "type": "event"
    },
    {
      "anonymous": false,
      "inputs": [
        {
          "indexed": false,
          "internalType": "bool",
          "name": "toggled",
          "type": "bool"
        }
      ],
      "name": "CollateralPriceToggled",
      "type": "event"
    },
    {
      "anonymous": false,
      "inputs": [
        {
          "indexed": true,
          "internalType": "address",
          "name": "collateral_weth_oracle_address",
          "type": "address"
        },
        {
          "indexed": true,
          "internalType": "address",
          "name": "weth_address",
          "type": "address"
        }
      ],
      "name": "CollateralWethOracleSet",
      "type": "event"
    },
    {
      "anonymous": false,
      "inputs": [
        {
          "indexed": false,
          "internalType": "bool",
          "name": "toggled",
          "type": "bool"
        }
      ],
      "name": "MintingPausedToggled",
      "type": "event"
    },
    {
      "anonymous": false,
      "inputs": [
        {
          "indexed": true,
          "internalType": "address",
          "name": "previousOwner",
          "type": "address"
        },
        {
          "indexed": true,
          "internalType": "address",
          "name": "newOwner",
          "type": "address"
        }
      ],
      "name": "OwnershipTransferred",
      "type": "event"
    },
    {
      "anonymous": false,
      "inputs": [
        {
          "indexed": false,
          "internalType": "uint256",
          "name": "new_ceiling",
          "type": "uint256"
        },
        {
          "indexed": false,
          "internalType": "uint256",
          "name": "new_bonus_rate",
          "type": "uint256"
        },
        {
          "indexed": false,
          "internalType": "uint256",
          "name": "new_redemption_delay",
          "type": "uint256"
        },
        {
          "indexed": false,
          "internalType": "uint256",
          "name": "new_mint_fee",
          "type": "uint256"
        },
        {
          "indexed": false,
          "internalType": "uint256",
          "name": "new_redeem_fee",
          "type": "uint256"
        },
        {
          "indexed": false,
          "internalType": "uint256",
          "name": "new_buyback_fee",
          "type": "uint256"
        },
        {
          "indexed": false,
          "internalType": "uint256",
          "name": "new_recollat_fee",
          "type": "uint256"
        }
      ],
      "name": "PoolParametersSet",
      "type": "event"
    },
    {
      "anonymous": false,
      "inputs": [
        {
          "indexed": false,
          "internalType": "bool",
          "name": "recollateralizeOnlyForOwner",
          "type": "bool"
        }
      ],
      "name": "RecollateralizeOnlyForOwnerToggled",
      "type": "event"
    },
    {
      "anonymous": false,
      "inputs": [
        {
          "indexed": false,
          "internalType": "bool",
          "name": "toggled",
          "type": "bool"
        }
      ],
      "name": "RecollateralizePausedToggled",
      "type": "event"
    },
    {
      "anonymous": false,
      "inputs": [
        {
          "indexed": true,
          "internalType": "uint256",
          "name": "collateral_amount_paid",
          "type": "uint256"
        },
        {
          "indexed": true,
          "internalType": "uint256",
          "name": "bdx_paid_back",
          "type": "uint256"
        }
      ],
      "name": "Recollateralized",
      "type": "event"
    },
    {
      "anonymous": false,
      "inputs": [
        {
          "indexed": false,
          "internalType": "bool",
          "name": "toggled",
          "type": "bool"
        }
      ],
      "name": "RedeemingPausedToggled",
      "type": "event"
    },
    {
      "inputs": [],
      "name": "BDSTABLE",
      "outputs": [
        {
          "internalType": "contract BDStable",
          "name": "",
          "type": "address"
        }
      ],
      "stateMutability": "view",
      "type": "function"
    },
    {
      "inputs": [],
      "name": "bonus_rate",
      "outputs": [
        {
          "internalType": "uint256",
          "name": "",
          "type": "uint256"
        }
      ],
      "stateMutability": "view",
      "type": "function"
    },
    {
      "inputs": [
        {
          "internalType": "uint256",
          "name": "BDX_amount",
          "type": "uint256"
        },
        {
          "internalType": "uint256",
          "name": "COLLATERAL_out_min",
          "type": "uint256"
        },
        {
          "internalType": "bool",
          "name": "useNativeToken",
          "type": "bool"
        }
      ],
      "name": "buyBackBDX",
      "outputs": [],
      "stateMutability": "nonpayable",
      "type": "function"
    },
    {
      "inputs": [],
      "name": "buyBackPaused",
      "outputs": [
        {
          "internalType": "bool",
          "name": "",
          "type": "bool"
        }
      ],
      "stateMutability": "view",
      "type": "function"
    },
    {
      "inputs": [],
      "name": "buybackOnlyForOwner",
      "outputs": [
        {
          "internalType": "bool",
          "name": "",
          "type": "bool"
        }
      ],
      "stateMutability": "view",
      "type": "function"
    },
    {
      "inputs": [],
      "name": "buyback_fee",
      "outputs": [
        {
          "internalType": "uint256",
          "name": "",
          "type": "uint256"
        }
      ],
      "stateMutability": "view",
      "type": "function"
    },
    {
      "inputs": [],
      "name": "collatFiatBalance",
      "outputs": [
        {
          "internalType": "uint256",
          "name": "",
          "type": "uint256"
        }
      ],
      "stateMutability": "view",
      "type": "function"
    },
    {
      "inputs": [],
      "name": "collatWEthOracle",
      "outputs": [
        {
          "internalType": "contract ICryptoPairOracle",
          "name": "",
          "type": "address"
        }
      ],
      "stateMutability": "view",
      "type": "function"
    },
    {
      "inputs": [],
      "name": "collateralPricePaused",
      "outputs": [
        {
          "internalType": "bool",
          "name": "",
          "type": "bool"
        }
      ],
      "stateMutability": "view",
      "type": "function"
    },
    {
      "inputs": [],
      "name": "collateral_token",
      "outputs": [
        {
          "internalType": "contract IERC20",
          "name": "",
          "type": "address"
        }
      ],
      "stateMutability": "view",
      "type": "function"
    },
    {
      "inputs": [
        {
          "internalType": "bool",
          "name": "useNativeToken",
          "type": "bool"
        }
      ],
      "name": "collectRedemption",
      "outputs": [],
      "stateMutability": "nonpayable",
      "type": "function"
    },
    {
      "inputs": [],
      "name": "getCollateralPrice_d12",
      "outputs": [
        {
          "internalType": "uint256",
          "name": "",
          "type": "uint256"
        }
      ],
      "stateMutability": "view",
      "type": "function"
    },
    {
      "inputs": [
        {
          "internalType": "address",
          "name": "_bdstable_contract_address",
          "type": "address"
        },
        {
          "internalType": "address",
          "name": "_bdx_contract_address",
          "type": "address"
        },
        {
          "internalType": "address",
          "name": "_collateral_address",
          "type": "address"
        },
        {
          "internalType": "uint256",
          "name": "_collateral_decimals",
          "type": "uint256"
        },
        {
          "internalType": "bool",
          "name": "_is_collateral_wrapping_native_token",
          "type": "bool"
        }
      ],
      "name": "initialize",
      "outputs": [],
      "stateMutability": "nonpayable",
      "type": "function"
    },
    {
      "inputs": [],
      "name": "is_collateral_wrapping_native_token",
      "outputs": [
        {
          "internalType": "bool",
          "name": "",
          "type": "bool"
        }
      ],
      "stateMutability": "view",
      "type": "function"
    },
    {
      "inputs": [
        {
          "internalType": "address",
          "name": "",
          "type": "address"
        }
      ],
      "name": "lastRedeemed",
      "outputs": [
        {
          "internalType": "uint256",
          "name": "",
          "type": "uint256"
        }
      ],
      "stateMutability": "view",
      "type": "function"
    },
    {
      "inputs": [
        {
          "internalType": "uint256",
          "name": "collateral_amount_in_max",
          "type": "uint256"
        },
        {
          "internalType": "uint256",
          "name": "bdx_in_max",
          "type": "uint256"
        },
        {
          "internalType": "uint256",
          "name": "bdStable_out_min",
          "type": "uint256"
        },
        {
          "internalType": "bool",
          "name": "useNativeToken",
          "type": "bool"
        }
      ],
      "name": "mintFractionalBdStable",
      "outputs": [],
      "stateMutability": "payable",
      "type": "function"
    },
    {
      "inputs": [],
      "name": "mintPaused",
      "outputs": [
        {
          "internalType": "bool",
          "name": "",
          "type": "bool"
        }
      ],
      "stateMutability": "view",
      "type": "function"
    },
    {
      "inputs": [],
      "name": "minting_fee",
      "outputs": [
        {
          "internalType": "uint256",
          "name": "",
          "type": "uint256"
        }
      ],
      "stateMutability": "view",
      "type": "function"
    },
    {
      "inputs": [],
      "name": "owner",
      "outputs": [
        {
          "internalType": "address",
          "name": "",
          "type": "address"
        }
      ],
      "stateMutability": "view",
      "type": "function"
    },
    {
      "inputs": [],
      "name": "pausedPrice",
      "outputs": [
        {
          "internalType": "uint256",
          "name": "",
          "type": "uint256"
        }
      ],
      "stateMutability": "view",
      "type": "function"
    },
    {
      "inputs": [],
      "name": "pool_ceiling",
      "outputs": [
        {
          "internalType": "uint256",
          "name": "",
          "type": "uint256"
        }
      ],
      "stateMutability": "view",
      "type": "function"
    },
    {
      "inputs": [],
      "name": "recollat_fee",
      "outputs": [
        {
          "internalType": "uint256",
          "name": "",
          "type": "uint256"
        }
      ],
      "stateMutability": "view",
      "type": "function"
    },
    {
      "inputs": [
        {
          "internalType": "uint256",
          "name": "collateral_amount",
          "type": "uint256"
        },
        {
          "internalType": "uint256",
          "name": "BDX_out_min",
          "type": "uint256"
        },
        {
          "internalType": "bool",
          "name": "useNativeToken",
          "type": "bool"
        }
      ],
      "name": "recollateralizeBdStable",
      "outputs": [],
      "stateMutability": "payable",
      "type": "function"
    },
    {
      "inputs": [],
      "name": "recollateralizeOnlyForOwner",
      "outputs": [
        {
          "internalType": "bool",
          "name": "",
          "type": "bool"
        }
      ],
      "stateMutability": "view",
      "type": "function"
    },
    {
      "inputs": [],
      "name": "recollateralizePaused",
      "outputs": [
        {
          "internalType": "bool",
          "name": "",
          "type": "bool"
        }
      ],
      "stateMutability": "view",
      "type": "function"
    },
    {
      "inputs": [
        {
          "internalType": "address",
          "name": "",
          "type": "address"
        }
      ],
      "name": "redeemBDXBalances",
      "outputs": [
        {
          "internalType": "uint256",
          "name": "",
          "type": "uint256"
        }
      ],
      "stateMutability": "view",
      "type": "function"
    },
    {
      "inputs": [
        {
          "internalType": "address",
          "name": "",
          "type": "address"
        }
      ],
      "name": "redeemCollateralBalances",
      "outputs": [
        {
          "internalType": "uint256",
          "name": "",
          "type": "uint256"
        }
      ],
      "stateMutability": "view",
      "type": "function"
    },
    {
      "inputs": [
        {
          "internalType": "uint256",
          "name": "BdStable_amount",
          "type": "uint256"
        },
        {
          "internalType": "uint256",
          "name": "BDX_out_min",
          "type": "uint256"
        },
        {
          "internalType": "uint256",
          "name": "COLLATERAL_out_min",
          "type": "uint256"
        }
      ],
      "name": "redeemFractionalBdStable",
      "outputs": [],
      "stateMutability": "nonpayable",
      "type": "function"
    },
    {
      "inputs": [],
      "name": "redeemPaused",
      "outputs": [
        {
          "internalType": "bool",
          "name": "",
          "type": "bool"
        }
      ],
      "stateMutability": "view",
      "type": "function"
    },
    {
      "inputs": [],
      "name": "redemption_delay",
      "outputs": [
        {
          "internalType": "uint256",
          "name": "",
          "type": "uint256"
        }
      ],
      "stateMutability": "view",
      "type": "function"
    },
    {
      "inputs": [],
      "name": "redemption_fee",
      "outputs": [
        {
          "internalType": "uint256",
          "name": "",
          "type": "uint256"
        }
      ],
      "stateMutability": "view",
      "type": "function"
    },
    {
      "inputs": [],
      "name": "renounceOwnership",
      "outputs": [],
      "stateMutability": "nonpayable",
      "type": "function"
    },
    {
      "inputs": [
        {
          "internalType": "address",
          "name": "_collateral_weth_oracle_address",
          "type": "address"
        },
        {
          "internalType": "address",
          "name": "_weth_address",
          "type": "address"
        }
      ],
      "name": "setCollatWETHOracle",
      "outputs": [],
      "stateMutability": "nonpayable",
      "type": "function"
    },
    {
      "inputs": [
        {
          "internalType": "uint256",
          "name": "new_ceiling",
          "type": "uint256"
        },
        {
          "internalType": "uint256",
          "name": "new_bonus_rate",
          "type": "uint256"
        },
        {
          "internalType": "uint256",
          "name": "new_redemption_delay",
          "type": "uint256"
        },
        {
          "internalType": "uint256",
          "name": "new_mint_fee",
          "type": "uint256"
        },
        {
          "internalType": "uint256",
          "name": "new_redeem_fee",
          "type": "uint256"
        },
        {
          "internalType": "uint256",
          "name": "new_buyback_fee",
          "type": "uint256"
        },
        {
          "internalType": "uint256",
          "name": "new_recollat_fee",
          "type": "uint256"
        }
      ],
      "name": "setPoolParameters",
      "outputs": [],
      "stateMutability": "nonpayable",
      "type": "function"
    },
    {
      "inputs": [],
      "name": "toggleBuybackOnlyForOwner",
      "outputs": [],
      "stateMutability": "nonpayable",
      "type": "function"
    },
    {
      "inputs": [],
      "name": "toggleBuybackPaused",
      "outputs": [],
      "stateMutability": "nonpayable",
      "type": "function"
    },
    {
      "inputs": [
        {
          "internalType": "uint256",
          "name": "_new_price",
          "type": "uint256"
        }
      ],
      "name": "toggleCollateralPricePaused",
      "outputs": [],
      "stateMutability": "nonpayable",
      "type": "function"
    },
    {
      "inputs": [],
      "name": "toggleMintingPaused",
      "outputs": [],
      "stateMutability": "nonpayable",
      "type": "function"
    },
    {
      "inputs": [],
      "name": "toggleRecollateralizeOnlyForOwner",
      "outputs": [],
      "stateMutability": "nonpayable",
      "type": "function"
    },
    {
      "inputs": [],
      "name": "toggleRecollateralizePaused",
      "outputs": [],
      "stateMutability": "nonpayable",
      "type": "function"
    },
    {
      "inputs": [],
      "name": "toggleRedeemingPaused",
      "outputs": [],
      "stateMutability": "nonpayable",
      "type": "function"
    },
    {
      "inputs": [
        {
          "internalType": "address",
          "name": "newOwner",
          "type": "address"
        }
      ],
      "name": "transferOwnership",
      "outputs": [],
      "stateMutability": "nonpayable",
      "type": "function"
    },
    {
      "inputs": [],
      "name": "unclaimedPoolCollateral",
      "outputs": [
        {
          "internalType": "uint256",
          "name": "",
          "type": "uint256"
        }
      ],
      "stateMutability": "view",
      "type": "function"
    },
    {
      "inputs": [],
      "name": "updateOraclesIfNeeded",
      "outputs": [],
      "stateMutability": "nonpayable",
      "type": "function"
    },
    {
      "stateMutability": "payable",
      "type": "receive"
    }
  ],
  "transactionHash": "0x2b803af7c01cf781d02989783ca4e8f849af2cd6db12fc7a0ea6e722ce941d7d",
  "args": [],
  "solcInputHash": "01a997333ac8c4be7a359727048da4f1",
  "bytecode": "0x608060405234801561001057600080fd5b50613d8f806100206000396000f3fe60806040526004361061026b5760003560e01c80638da5cb5b11610144578063c39e011f116100b6578063ceecb0f21161007a578063ceecb0f21461062d578063deeea8381461064d578063e69d301014610662578063eea39f7914610677578063f2fde38b14610697578063fede5c9c146106b757610286565b8063c39e011f146105c4578063c3abe077146105d9578063c74ec56a146105ee578063cb73999f14610603578063cbf81dba1461061857610286565b8063a9e3a78011610108578063a9e3a78014610530578063abae2c4c14610545578063ac6d7d6b14610565578063b235d46814610585578063bbf0ce1d1461059a578063c3355b8d146105af57610286565b80638da5cb5b146104be5780638e5d63eb146104d35780639ccabfb5146104e8578063a6c2ddf4146104fd578063a6e6aa281461051057610286565b80635f55504c116101dd578063715018a6116101a1578063715018a6146104355780637b0461e91461044a5780637e4831d31461045f5780637f877f85146104745780637fbc9090146104895780638d2ac7a4146104a957610286565b80635f55504c146103c157806364fe5de2146103d65780636526a12a146103f65780636c7ff97b1461040b5780636d2c56151461042057610286565b80632efca5341161022f5780632efca534146103225780633c2957781461034457806341d2a54d146103645780634c634934146103775780634ebbe7621461038c57806357b8631c146103ac57610286565b806308a7493d1461028b578063101197c7146102c157806315128425146102d65780631c309e0a146102eb5780632621db2f1461030057610286565b36610286576066546001600160a01b0316331461028457fe5b005b600080fd5b34801561029757600080fd5b506102ab6102a63660046131e7565b6106cc565b6040516102b89190613cb5565b60405180910390f35b3480156102cd57600080fd5b506102ab6106de565b3480156102e257600080fd5b506102ab6106e4565b3480156102f757600080fd5b506102846106ea565b34801561030c57600080fd5b50610315610796565b6040516102b8919061342f565b34801561032e57600080fd5b506103376107a5565b6040516102b89190613480565b34801561035057600080fd5b5061028461035f36600461329a565b6107b5565b610284610372366004613325565b610977565b34801561038357600080fd5b506102ab610fd4565b34801561039857600080fd5b506102846103a73660046133c8565b610fda565b3480156103b857600080fd5b50610315611089565b3480156103cd57600080fd5b50610284611098565b3480156103e257600080fd5b506102846103f13660046132d2565b61112b565b34801561040257600080fd5b506102ab6111f1565b34801561041757600080fd5b506102846111f7565b34801561042c57600080fd5b50610337611355565b34801561044157600080fd5b50610284611364565b34801561045657600080fd5b506102ab6113ed565b34801561046b57600080fd5b506103376113f3565b34801561048057600080fd5b506103376113fc565b34801561049557600080fd5b506102846104a436600461335d565b61140c565b3480156104b557600080fd5b50610337611b26565b3480156104ca57600080fd5b50610315611b37565b3480156104df57600080fd5b50610337611b47565b3480156104f457600080fd5b506102ab611b57565b61028461050b366004613388565b611c34565b34801561051c57600080fd5b5061028461052b366004613202565b61219a565b34801561053c57600080fd5b50610315612283565b34801561055157600080fd5b506102ab6105603660046131e7565b612292565b34801561057157600080fd5b506102ab6105803660046131e7565b6122a4565b34801561059157600080fd5b506103376122b6565b3480156105a657600080fd5b506102846122c4565b3480156105bb57600080fd5b506102ab612347565b3480156105d057600080fd5b5061028461234d565b3480156105e557600080fd5b506102846123e7565b3480156105fa57600080fd5b506102ab61247e565b34801561060f57600080fd5b506102ab612484565b34801561062457600080fd5b5061028461248a565b34801561063957600080fd5b50610284610648366004613325565b61251f565b34801561065957600080fd5b506103376127ef565b34801561066e57600080fd5b506102ab6127ff565b34801561068357600080fd5b50610284610692366004613236565b61294f565b3480156106a357600080fd5b506102846106b23660046131e7565b612ac8565b3480156106c357600080fd5b506102ab612b89565b606d6020526000908152604090205481565b60735481565b60785481565b6106f2612b8f565b6001600160a01b0316610703611b37565b6001600160a01b0316146107325760405162461bcd60e51b815260040161072990613952565b60405180910390fd5b6070805460ff600160281b808304821615810265ff00000000001990931692909217928390556040517f5500d28fd6f79ee96ffff9ce2f45833d5913c84f586b8a537b6c6f25df0312a39361078c93900490911690613480565b60405180910390a1565b6067546001600160a01b031681565b607054600160281b900460ff1681565b607854336000908152606f602052604090205443916107d49190612b93565b11156107f25760405162461bcd60e51b815260040161072990613682565b336000908152606c60205260408120548190819081901561082857336000908152606c6020526040812080549190556001945091505b336000908152606d6020526040902054156108675750336000908152606d602052604081208054919055606e5461085f9082612bc1565b606e55600192505b600184151514156108d7576068546040516331be54d360e01b81526001600160a01b03909116906331be54d3906108a49033908690600401613443565b600060405180830381600087803b1580156108be57600080fd5b505af11580156108d2573d6000803e3d6000fd5b505050505b6001831515141561097057841561095957606654604051632e1a7d4d60e01b81526001600160a01b0390911690632e1a7d4d90610918908490600401613cb5565b600060405180830381600087803b15801561093257600080fd5b505af1158015610946573d6000803e3d6000fd5b505050506109543382612be9565b610970565b606754610970906001600160a01b03163383612c7b565b5050505050565b60705462010000900460ff16156109a05760405162461bcd60e51b815260040161072990613b2d565b607054600160281b900460ff16156109ea576109ba611b37565b6001600160a01b0316336001600160a01b0316146109ea5760405162461bcd60e51b81526004016107299061390a565b8015610a3857606954600160a01b900460ff16610a195760405162461bcd60e51b815260040161072990613b64565b823414610a385760405162461bcd60e51b8152600401610729906139da565b610a406111f7565b606a5460685460408051633b66494360e21b81529051600a9390930a8602926000926001600160a01b03169163ed99250c916004808301926020929190829003018186803b158015610a9157600080fd5b505afa158015610aa5573d6000803e3d6000fd5b505050506040513d601f19601f82011682018060405250810190610ac991906132ea565b90506000606860009054906101000a90046001600160a01b03166001600160a01b03166318160ddd6040518163ffffffff1660e01b815260040160206040518083038186803b158015610b1b57600080fd5b505afa158015610b2f573d6000803e3d6000fd5b505050506040513d601f19601f82011682018060405250810190610b5391906132ea565b90506000606860009054906101000a90046001600160a01b03166001600160a01b031663fadb1b026040518163ffffffff1660e01b815260040160206040518083038186803b158015610ba557600080fd5b505afa158015610bb9573d6000803e3d6000fd5b505050506040513d601f19601f82011682018060405250810190610bdd91906132ea565b90506000606860009054906101000a90046001600160a01b03166001600160a01b031663d2d97b066040518163ffffffff1660e01b815260040160206040518083038186803b158015610c2f57600080fd5b505afa158015610c43573d6000803e3d6000fd5b505050506040513d601f19601f82011682018060405250810190610c6791906132ea565b905060008073029d1DCcbD7CfF8C7BB8318d6f54BcfD59d06052634e820a3f88610c8f6127ff565b8689896040518663ffffffff1660e01b8152600401610cb2959493929190613ccc565b604080518083038186803b158015610cc957600080fd5b505af4158015610cdd573d6000803e3d6000fd5b505050506040513d601f19601f82011682018060405250810190610d019190613302565b915091506000610d1f606a54600a0a84612cd190919063ffffffff16565b90506000610d5d88610d57610d50607454610d4a60775464e8d4a51000612b9390919063ffffffff16565b90612bc1565b8690612d03565b90612cd1565b90506000606860009054906101000a90046001600160a01b03166001600160a01b03166302c855f86040518163ffffffff1660e01b815260040160206040518083038186803b158015610daf57600080fd5b505afa158015610dc3573d6000803e3d6000fd5b505050506040513d601f19601f82011682018060405250810190610de791906132ea565b9050610dfc64e8d4a51000610d578484612d03565b9150818c1115610e1e5760405162461bcd60e51b815260040161072990613ab5565b606860009054906101000a90046001600160a01b03166001600160a01b0316634013124a6040518163ffffffff1660e01b8152600401600060405180830381600087803b158015610e6e57600080fd5b505af1158015610e82573d6000803e3d6000fd5b505050508a15610f1557606660009054906101000a90046001600160a01b03166001600160a01b031663d0e30db0846040518263ffffffff1660e01b81526004016000604051808303818588803b158015610edc57600080fd5b505af1158015610ef0573d6000803e3d6000fd5b505050505082341115610f1057610f1033610f0b3486612bc1565b612be9565b610f2d565b606754610f2d906001600160a01b0316333086612d3d565b8115610f985760685460405163384c0f5960e11b81526001600160a01b03909116906370981eb290610f659033908690600401613443565b600060405180830381600087803b158015610f7f57600080fd5b505af1158015610f93573d6000803e3d6000fd5b505050505b604051829084907fc2d7df98caa1a9bc768fc3ab167e19ae4febd5da76dad18d3387fb9fc656a37390600090a350505050505050505050505050565b60775481565b610fe2612b8f565b6001600160a01b0316610ff3611b37565b6001600160a01b0316146110195760405162461bcd60e51b815260040161072990613952565b60758790556077869055607885905560718490556072839055607382905560748190556040517f17fe98b66d27bd793ea01bd8a23a54acab8eeb167d9eb016a0c7cd71c573920c90611078908990899089908990899089908990613cef565b60405180910390a150505050505050565b6068546001600160a01b031681565b6110a0612b8f565b6001600160a01b03166110b1611b37565b6001600160a01b0316146110d75760405162461bcd60e51b815260040161072990613952565b6070805460ff610100808304821615810261ff001990931692909217928390556040517fd449302f806044ba9a0f0b2862e496c86cb4ef1f6b3fd474113fb26e46d9b28a9361078c93900490911690613480565b611133612b8f565b6001600160a01b0316611144611b37565b6001600160a01b03161461116a5760405162461bcd60e51b815260040161072990613952565b607054640100000000900460ff1661118657607681905561118c565b60006076555b6070805460ff640100000000808304821615810264ff000000001990931692909217928390556040517fbf1f9e6d8d67bb57a141c627f40368ec23ed7603249f0c3518c16eafbf9c4f6f936111e693900490911690613480565b60405180910390a150565b60755481565b606860009054906101000a90046001600160a01b03166001600160a01b0316636c7ff97b6040518163ffffffff1660e01b8152600401600060405180830381600087803b15801561124757600080fd5b505af115801561125b573d6000803e3d6000fd5b50505050606960009054906101000a90046001600160a01b03166001600160a01b03166309bf39ed6040518163ffffffff1660e01b815260040160206040518083038186803b1580156112ad57600080fd5b505afa1580156112c1573d6000803e3d6000fd5b505050506040513d601f19601f820116820180604052508101906112e591906132b6565b1561135357606960009054906101000a90046001600160a01b03166001600160a01b031663d6f124f06040518163ffffffff1660e01b8152600401600060405180830381600087803b15801561133a57600080fd5b505af115801561134e573d6000803e3d6000fd5b505050505b565b60705462010000900460ff1681565b61136c612b8f565b6001600160a01b031661137d611b37565b6001600160a01b0316146113a35760405162461bcd60e51b815260040161072990613952565b6033546040516000916001600160a01b0316907f8be0079c531659141344cd1fd0a4f28419497f9722a3daafe3b4186f6b6457e0908390a3603380546001600160a01b0319169055565b606e5481565b60705460ff1681565b6070546301000000900460ff1681565b607054610100900460ff16156114345760405162461bcd60e51b815260040161072990613767565b61143c6111f7565b60685460408051637d6d8d8160e11b815290516000926001600160a01b03169163fadb1b02916004808301926020929190829003018186803b15801561148157600080fd5b505afa158015611495573d6000803e3d6000fd5b505050506040513d601f19601f820116820180604052508101906114b991906132ea565b90506000606860009054906101000a90046001600160a01b03166001600160a01b031663fa6292196040518163ffffffff1660e01b815260040160206040518083038186803b15801561150b57600080fd5b505afa15801561151f573d6000803e3d6000fd5b505050506040513d601f19601f8201168201806040525081019061154391906132ea565b905060008282106115545782611556565b815b9050600061158764e8d4a51000610d5761158060725464e8d4a51000612bc190919063ffffffff16565b8a90612d03565b905060006115a86115a164e8d4a51000610d578587612d03565b8390612bc1565b90506000611644606860009054906101000a90046001600160a01b03166001600160a01b031663ed99250c6040518163ffffffff1660e01b815260040160206040518083038186803b1580156115fd57600080fd5b505afa158015611611573d6000803e3d6000fd5b505050506040513d601f19601f8201168201806040525081019061163591906132ea565b610d578464e8d4a51000612d03565b90506000606860009054906101000a90046001600160a01b03166001600160a01b03166302c855f86040518163ffffffff1660e01b815260040160206040518083038186803b15801561169657600080fd5b505afa1580156116aa573d6000803e3d6000fd5b505050506040513d601f19601f820116820180604052508101906116ce91906132ea565b90506116e364e8d4a51000610d578484612d03565b915060006116ff606a54600a0a86612cd190919063ffffffff16565b9050600061171664e8d4a51000610d57848a612d03565b905060006117256116356127ff565b606e546067546040516370a0823160e01b81529293506117af926001600160a01b03909116906370a082319061175f90309060040161342f565b60206040518083038186803b15801561177757600080fd5b505afa15801561178b573d6000803e3d6000fd5b505050506040513d601f19601f82011682018060405250810190610d4a91906132ea565b8111156117ce5760405162461bcd60e51b815260040161072990613c24565b808b11156117ee5760405162461bcd60e51b815260040161072990613608565b848c111561180e5760405162461bcd60e51b8152600401610729906136ea565b606854604051631096f10360e01b81526001600160a01b0390911690631096f1039061183e90339060040161342f565b60206040518083038186803b15801561185657600080fd5b505afa15801561186a573d6000803e3d6000fd5b505050506040513d601f19601f8201168201806040525081019061188e91906132b6565b6118aa5760405162461bcd60e51b815260040161072990613c86565b336000908152606d60205260409020546118c49082612b93565b336000908152606d6020526040902055606e546118e19082612b93565b606e5560685460408051632009892560e11b815290516001600160a01b0390921691634013124a9160048082019260009290919082900301818387803b15801561192a57600080fd5b505af115801561193e573d6000803e3d6000fd5b505050506000851115611a7857606854604051631096f10360e01b81526001600160a01b0390911690631096f1039061197b90339060040161342f565b60206040518083038186803b15801561199357600080fd5b505afa1580156119a7573d6000803e3d6000fd5b505050506040513d601f19601f820116820180604052508101906119cb91906132b6565b6119e75760405162461bcd60e51b815260040161072990613c86565b336000908152606c6020526040902054611a019086612b93565b336000908152606c6020526040908190209190915560685490516369d1679960e01b81526001600160a01b03909116906369d1679990611a45908890600401613cb5565b600060405180830381600087803b158015611a5f57600080fd5b505af1158015611a73573d6000803e3d6000fd5b505050505b43606f6000336001600160a01b03166001600160a01b0316815260200190815260200160002081905550606860009054906101000a90046001600160a01b03166001600160a01b031663a8a778ae338f6040518363ffffffff1660e01b8152600401611ae5929190613443565b600060405180830381600087803b158015611aff57600080fd5b505af1158015611b13573d6000803e3d6000fd5b5050505050505050505050505050505050565b607054640100000000900460ff1681565b6033546001600160a01b03165b90565b606954600160a01b900460ff1681565b607054600090640100000000900460ff16151560011415611bde57611bd764e8d4a51000610d57607654611bd1606a54600a0a611bd1606e54606760009054906101000a90046001600160a01b03166001600160a01b03166370a08231306040518263ffffffff1660e01b815260040161175f919061342f565b90612d03565b9050611b44565b611bd764e8d4a51000610d57611bf26127ff565b606a54606e546067546040516370a0823160e01b8152611bd193600a0a92849290916001600160a01b03909116906370a082319061175f90309060040161342f565b60705460ff1615611c575760405162461bcd60e51b815260040161072990613a53565b8015611ca557606954600160a01b900460ff16611c865760405162461bcd60e51b815260040161072990613b64565b833414611ca55760405162461bcd60e51b815260040161072990613987565b611cad6111f7565b60685460408051633b66494360e21b815290516000926001600160a01b03169163ed99250c916004808301926020929190829003018186803b158015611cf257600080fd5b505afa158015611d06573d6000803e3d6000fd5b505050506040513d601f19601f82011682018060405250810190611d2a91906132ea565b90506000606860009054906101000a90046001600160a01b03166001600160a01b031663fadb1b026040518163ffffffff1660e01b815260040160206040518083038186803b158015611d7c57600080fd5b505afa158015611d90573d6000803e3d6000fd5b505050506040513d601f19601f82011682018060405250810190611db491906132ea565b905080611dc45760009550611dd6565b64e8d4a51000811415611dd657600094505b607554606e546067546040516370a0823160e01b8152611e1c928a92611e16926001600160a01b03909116906370a082319061175f90309060040161342f565b90612b93565b1115611e3a5760405162461bcd60e51b81526004016107299061385a565b606a54600a0a860260008083611edd57604051630810278f60e41b815273029d1DCcbD7CfF8C7BB8318d6f54BcfD59d060529063810278f090611e839088908c90600401613cbe565b60206040518083038186803b158015611e9b57600080fd5b505af4158015611eaf573d6000803e3d6000fd5b505050506040513d601f19601f82011682018060405250810190611ed391906132ea565b9150879050611f9a565b8360011415611f815773029d1DCcbD7CfF8C7BB8318d6f54BcfD59d0605263ba8b1808611f086127ff565b856040518363ffffffff1660e01b8152600401611f26929190613cbe565b60206040518083038186803b158015611f3e57600080fd5b505af4158015611f52573d6000803e3d6000fd5b505050506040513d601f19601f82011682018060405250810190611f7691906132ea565b915060009050611f9a565b611f9485611f8d6127ff565b8587612d5e565b90925090505b611fc764e8d4a51000610d57611fc060715464e8d4a51000612bc190919063ffffffff16565b8590612d03565b915081871115611fe95760405162461bcd60e51b815260040161072990613ab5565b878111156120095760405162461bcd60e51b81526004016107299061350e565b606860009054906101000a90046001600160a01b03166001600160a01b0316634013124a6040518163ffffffff1660e01b8152600401600060405180830381600087803b15801561205957600080fd5b505af115801561206d573d6000803e3d6000fd5b50505050600081111561209957606854606554612099916001600160a01b039182169133911684612d3d565b881561212b57851561211357606660009054906101000a90046001600160a01b03166001600160a01b031663d0e30db08a6040518263ffffffff1660e01b81526004016000604051808303818588803b1580156120f557600080fd5b505af1158015612109573d6000803e3d6000fd5b505050505061212b565b60675461212b906001600160a01b031633308c612d3d565b606854604051635a7ab59360e11b81526001600160a01b039091169063b4f56b269061215d9033908690600401613443565b600060405180830381600087803b15801561217757600080fd5b505af115801561218b573d6000803e3d6000fd5b50505050505050505050505050565b6121a2612b8f565b6001600160a01b03166121b3611b37565b6001600160a01b0316146121d95760405162461bcd60e51b815260040161072990613952565b6001600160a01b0382166121ff5760405162461bcd60e51b815260040161072990613ae5565b6001600160a01b0381166122255760405162461bcd60e51b8152600401610729906135c2565b606980546001600160a01b03199081166001600160a01b03858116918217909355606b80549092169284169283179091556040517f856e4796eef882904bc46a505b32b16c6fbcef9e0930ac95b2f980781517bf6390600090a35050565b6069546001600160a01b031681565b606f6020526000908152604090205481565b606c6020526000908152604090205481565b607054610100900460ff1681565b6122cc612b8f565b6001600160a01b03166122dd611b37565b6001600160a01b0316146123035760405162461bcd60e51b815260040161072990613952565b6070805460ff19811660ff9182161517918290556040517f3f3c6b7e51ec0201fea018ffcf768f21f85a27593219359fd6af1d95c7e8b4419261078c921690613480565b60715481565b612355612b8f565b6001600160a01b0316612366611b37565b6001600160a01b03161461238c5760405162461bcd60e51b815260040161072990613952565b6070805460ff600160301b808304821615810266ff0000000000001990931692909217928390556040517fd5bc042d6e197fb30aec38c1634dabc01e0bb517e3fea6db130cea57537122469361078c93900490911690613480565b6123ef612b8f565b6001600160a01b0316612400611b37565b6001600160a01b0316146124265760405162461bcd60e51b815260040161072990613952565b6070805460ff6301000000808304821615810263ff0000001990931692909217928390556040517fef220f30673af554aae10180ad5ab98f41c923213a66d1207dbe61f00aa75acf9361078c93900490911690613480565b60765481565b60725481565b612492612b8f565b6001600160a01b03166124a3611b37565b6001600160a01b0316146124c95760405162461bcd60e51b815260040161072990613952565b6070805460ff62010000808304821615810262ff00001990931692909217928390556040517f7e9a29a085706d1cf00b68ff18532dae53be17faa8be9bab8821c355a393656a9361078c93900490911690613480565b6070546301000000900460ff16156125495760405162461bcd60e51b815260040161072990613c5b565b607054600160301b900460ff161561259357612563611b37565b6001600160a01b0316336001600160a01b0316146125935760405162461bcd60e51b815260040161072990613bef565b61259b6111f7565b60685460408051633b66494360e21b815290516000926001600160a01b03169163ed99250c916004808301926020929190829003018186803b1580156125e057600080fd5b505afa1580156125f4573d6000803e3d6000fd5b505050506040513d601f19601f8201168201806040525081019061261891906132ea565b905060006126cf64e8d4a51000610d5761264260735464e8d4a51000612bc190919063ffffffff16565b60685460408051637b0d6d5960e11b81529051611bd1926001600160a01b03169163f61adab2916004808301926020929190829003018186803b15801561268857600080fd5b505afa15801561269c573d6000803e3d6000fd5b505050506040513d601f19601f820116820180604052508101906126c091906132ea565b876126c96127ff565b8c612dc1565b905060006126eb606a54600a0a83612cd190919063ffffffff16565b90508085111561270d5760405162461bcd60e51b815260040161072990613ab5565b60685460655461272c916001600160a01b039182169133911689612d3d565b83156127a357606654604051632e1a7d4d60e01b81526001600160a01b0390911690632e1a7d4d90612762908490600401613cb5565b600060405180830381600087803b15801561277c57600080fd5b505af1158015612790573d6000803e3d6000fd5b5050505061279e3382612be9565b6127ba565b6067546127ba906001600160a01b03163383612c7b565b604051819087907f15b90a6a755d5ed0f929f1f40375d58183388d8d9e2f8e9a2efa93043e70f6de90600090a3505050505050565b607054600160301b900460ff1681565b607054600090640100000000900460ff161515600114156128235750607654611b44565b60685460408051632d83c63b60e11b815290516000926001600160a01b031691635b078c76916004808301926020929190829003018186803b15801561286857600080fd5b505afa15801561287c573d6000803e3d6000fd5b505050506040513d601f19601f820116820180604052508101906128a091906132ea565b606954606b54604051633ddac95360e01b81529293506000926001600160a01b0392831692633ddac953926128e19291169064e8d4a5100090600401613443565b60206040518083038186803b1580156128f957600080fd5b505afa15801561290d573d6000803e3d6000fd5b505050506040513d601f19601f8201168201806040525081019061293191906132ea565b905061294681610d578464e8d4a51000612d03565b92505050611b44565b600054610100900460ff16806129685750612968612e39565b80612976575060005460ff16155b6129925760405162461bcd60e51b81526004016107299061380c565b600054610100900460ff161580156129bd576000805460ff1961ff0019909116610100171660011790555b6129c5612e4a565b606880546001600160a01b038089166001600160a01b03199283161790925560658054928816929091169190911790558115612a1757606680546001600160a01b0319166001600160a01b0386161790555b606780546001600160a01b0319166001600160a01b038616179055612a3d601284612bc1565b606a5560698054831515600160a01b0260ff60a01b199091161790556ec097ce7bc90715b34b9f10000000006075556401bf08eb00607755600160785563b2d05e0060718190556072556070805466ff0000000000001965ff000000000019909116600160281b1716600160301b1790558015612ac0576000805461ff00191690555b505050505050565b612ad0612b8f565b6001600160a01b0316612ae1611b37565b6001600160a01b031614612b075760405162461bcd60e51b815260040161072990613952565b6001600160a01b038116612b2d5760405162461bcd60e51b815260040161072990613545565b6033546040516001600160a01b038084169216907f8be0079c531659141344cd1fd0a4f28419497f9722a3daafe3b4186f6b6457e090600090a3603380546001600160a01b0319166001600160a01b0392909216919091179055565b60745481565b3390565b600082820183811015612bb85760405162461bcd60e51b81526004016107299061358b565b90505b92915050565b600082821115612be35760405162461bcd60e51b81526004016107299061364b565b50900390565b604080516000808252602082019092526001600160a01b038416908390604051612c139190613413565b60006040518083038185875af1925050503d8060008114612c50576040519150601f19603f3d011682016040523d82523d6000602084013e612c55565b606091505b5050905080612c765760405162461bcd60e51b815260040161072990613a26565b505050565b612c768363a9059cbb60e01b8484604051602401612c9a929190613443565b60408051601f198184030181529190526020810180516001600160e01b03166001600160e01b031990931692909217909152612edd565b6000808211612cf25760405162461bcd60e51b815260040161072990613794565b818381612cfb57fe5b049392505050565b600082612d1257506000612bbb565b82820282848281612d1f57fe5b0414612bb85760405162461bcd60e51b8152600401610729906138c9565b61134e846323b872dd60e01b858585604051602401612c9a9392919061345c565b60008080612d7564e8d4a51000610d578789612d03565b90506000612d9082610d4a87610d578364e8d4a51000612d03565b90506000612da789610d578464e8d4a51000612d03565b9050612db38383612b93565b999098509650505050505050565b6000808511612de25760405162461bcd60e51b8152600401610729906137cb565b6000612df764e8d4a51000610d578588612d03565b905085811115612e195760405162461bcd60e51b8152600401610729906134be565b6000612e2e85610d578464e8d4a51000612d03565b979650505050505050565b6000612e4430612f6c565b15905090565b600054610100900460ff1680612e635750612e63612e39565b80612e71575060005460ff16155b612e8d5760405162461bcd60e51b81526004016107299061380c565b600054610100900460ff16158015612eb8576000805460ff1961ff0019909116610100171660011790555b612ec0612f72565b612ec8612ff3565b8015612eda576000805461ff00191690555b50565b6060612f32826040518060400160405280602081526020017f5361666545524332303a206c6f772d6c6576656c2063616c6c206661696c6564815250856001600160a01b03166130cd9092919063ffffffff16565b805190915015612c765780806020019051810190612f5091906132b6565b612c765760405162461bcd60e51b815260040161072990613ba5565b3b151590565b600054610100900460ff1680612f8b5750612f8b612e39565b80612f99575060005460ff16155b612fb55760405162461bcd60e51b81526004016107299061380c565b600054610100900460ff16158015612ec8576000805460ff1961ff0019909116610100171660011790558015612eda576000805461ff001916905550565b600054610100900460ff168061300c575061300c612e39565b8061301a575060005460ff16155b6130365760405162461bcd60e51b81526004016107299061380c565b600054610100900460ff16158015613061576000805460ff1961ff0019909116610100171660011790555b600061306b612b8f565b603380546001600160a01b0319166001600160a01b038316908117909155604051919250906000907f8be0079c531659141344cd1fd0a4f28419497f9722a3daafe3b4186f6b6457e0908290a3508015612eda576000805461ff001916905550565b60606130dc84846000856130e6565b90505b9392505050565b6060824710156131085760405162461bcd60e51b815260040161072990613721565b61311185612f6c565b61312d5760405162461bcd60e51b815260040161072990613a7e565b60006060866001600160a01b0316858760405161314a9190613413565b60006040518083038185875af1925050503d8060008114613187576040519150601f19603f3d011682016040523d82523d6000602084013e61318c565b606091505b5091509150612e2e828286606083156131a65750816130df565b8251156131b65782518084602001fd5b8160405162461bcd60e51b8152600401610729919061348b565b80356001600160a01b0381168114612bbb57600080fd5b6000602082840312156131f8578081fd5b6130df83836131d0565b60008060408385031215613214578081fd5b61321e84846131d0565b915061322d84602085016131d0565b90509250929050565b600080600080600060a0868803121561324d578081fd5b61325787876131d0565b945061326687602088016131d0565b935061327587604088016131d0565b925060608601359150608086013561328c81613d4b565b809150509295509295909350565b6000602082840312156132ab578081fd5b8135612bb881613d4b565b6000602082840312156132c7578081fd5b8151612bb881613d4b565b6000602082840312156132e3578081fd5b5035919050565b6000602082840312156132fb578081fd5b5051919050565b60008060408385031215613314578182fd5b505080516020909101519092909150565b600080600060608486031215613339578283fd5b8335925060208401359150604084013561335281613d4b565b809150509250925092565b600080600060608486031215613371578283fd5b505081359360208301359350604090920135919050565b6000806000806080858703121561339d578384fd5b84359350602085013592506040850135915060608501356133bd81613d4b565b939692955090935050565b600080600080600080600060e0888a0312156133e2578182fd5b505085359760208701359750604087013596606081013596506080810135955060a0810135945060c0013592509050565b60008251613425818460208701613d1f565b9190910192915050565b6001600160a01b0391909116815260200190565b6001600160a01b03929092168252602082015260400190565b6001600160a01b039384168152919092166020820152604081019190915260600190565b901515815260200190565b60006020825282518060208401526134aa816040850160208701613d1f565b601f01601f19169190910160400192915050565b60208082526030908201527f596f752061726520747279696e6720746f20627579206261636b206d6f72652060408201526f7468616e20746865206578636573732160801b606082015260800190565b60208082526017908201527f4e6f7420656e6f7567682042445820696e707574746564000000000000000000604082015260600190565b60208082526026908201527f4f776e61626c653a206e6577206f776e657220697320746865207a65726f206160408201526564647265737360d01b606082015260800190565b6020808252601b908201527f536166654d6174683a206164646974696f6e206f766572666c6f770000000000604082015260600190565b60208082526026908201527f574554482063616e6e6f742062652073657420746f20746865207a65726f206160408201526564647265737360d01b606082015260800190565b60208082526023908201527f536c697070616765206c696d69742072656163686564205b636f6c6c61746572604082015262616c5d60e81b606082015260800190565b6020808252601e908201527f536166654d6174683a207375627472616374696f6e206f766572666c6f770000604082015260600190565b60208082526042908201527f4d757374207761697420666f7220726564656d7074696f6e5f64656c6179206260408201527f6c6f636b73206265666f726520636f6c6c656374696e6720726564656d70746960608201526137b760f11b608082015260a00190565b6020808252601c908201527f536c697070616765206c696d69742072656163686564205b4244585d00000000604082015260600190565b60208082526026908201527f416464726573733a20696e73756666696369656e742062616c616e636520666f6040820152651c8818d85b1b60d21b606082015260800190565b60208082526013908201527214995919595b5a5b99c81a5cc81c185d5cd959606a1b604082015260600190565b6020808252601a908201527f536166654d6174683a206469766973696f6e206279207a65726f000000000000604082015260600190565b60208082526021908201527f4e6f2065786365737320636f6c6c61746572616c20746f20627579206261636b6040820152602160f81b606082015260800190565b6020808252602e908201527f496e697469616c697a61626c653a20636f6e747261637420697320616c72656160408201526d191e481a5b9a5d1a585b1a5e995960921b606082015260800190565b60208082526049908201527f506f6f6c206365696c696e6720726561636865642c206e6f206d6f726520426460408201527f537461626c652063616e206265206d696e7465642077697468207468697320636060820152681bdb1b185d195c985b60ba1b608082015260a00190565b60208082526021908201527f536166654d6174683a206d756c7469706c69636174696f6e206f766572666c6f6040820152607760f81b606082015260800190565b60208082526028908201527f43757272656e746c79206f6e6c79206f776e65722063616e207265636f6c6c61604082015267746572616c697a6560c01b606082015260800190565b6020808252818101527f4f776e61626c653a2063616c6c6572206973206e6f7420746865206f776e6572604082015260600190565b60208082526033908201527f6d73672e76616c756520616e6420636f6c6c61746572616c5f616d6f756e745f6040820152720d2dcbedac2f040c8de40dcdee840dac2e8c6d606b1b606082015260800190565b6020808252602c908201527f6d73672e76616c756520616e6420636f6c6c61746572616c5f616d6f756e742060408201526b0c8de40dcdee840dac2e8c6d60a31b606082015260800190565b602080825260139082015272115512081d1c985b9cd9995c8819985a5b1959606a1b604082015260600190565b602080825260119082015270135a5b9d1a5b99c81a5cc81c185d5cd959607a1b604082015260600190565b6020808252601d908201527f416464726573733a2063616c6c20746f206e6f6e2d636f6e7472616374000000604082015260600190565b60208082526016908201527514db1a5c1c1859d9481b1a5b5a5d081c995858da195960521b604082015260600190565b60208082526028908201527f4f7261636c652063616e6e6f742062652073657420746f20746865207a65726f604082015267206164647265737360c01b606082015260800190565b60208082526019908201527f5265636f6c6c61746572616c697a652069732070617573656400000000000000604082015260600190565b60208082526021908201527f506f6f6c20646f65736e277420737570706f7274206e617469766520746f6b656040820152603760f91b606082015260800190565b6020808252602a908201527f5361666545524332303a204552433230206f7065726174696f6e20646964206e6040820152691bdd081cdd58d8d9595960b21b606082015260800190565b6020808252818101527f43757272656e746c79206f6e6c79206f776e65722063616e206275796261636b604082015260600190565b6020808252601d908201527f4e6f7420656e6f75676820636f6c6c61746572616c20696e20706f6f6c000000604082015260600190565b602080825260119082015270109d5e589858dac81a5cc81c185d5cd959607a1b604082015260600190565b60208082526015908201527443616e6e6f74206c6567616c6c792072656465656d60581b604082015260600190565b90815260200190565b918252602082015260400190565b948552602085019390935260408401919091526060830152608082015260a00190565b968752602087019590955260408601939093526060850191909152608084015260a083015260c082015260e00190565b60005b83811015613d3a578181015183820152602001613d22565b8381111561134e5750506000910152565b8015158114612eda57600080fdfea2646970667358221220b608b340a529ff32e1dba1ce5d287c6875cd8ae42d2b062405cc153e29dbce6864736f6c634300060c0033",
  "deployedBytecode": "0x60806040526004361061026b5760003560e01c80638da5cb5b11610144578063c39e011f116100b6578063ceecb0f21161007a578063ceecb0f21461062d578063deeea8381461064d578063e69d301014610662578063eea39f7914610677578063f2fde38b14610697578063fede5c9c146106b757610286565b8063c39e011f146105c4578063c3abe077146105d9578063c74ec56a146105ee578063cb73999f14610603578063cbf81dba1461061857610286565b8063a9e3a78011610108578063a9e3a78014610530578063abae2c4c14610545578063ac6d7d6b14610565578063b235d46814610585578063bbf0ce1d1461059a578063c3355b8d146105af57610286565b80638da5cb5b146104be5780638e5d63eb146104d35780639ccabfb5146104e8578063a6c2ddf4146104fd578063a6e6aa281461051057610286565b80635f55504c116101dd578063715018a6116101a1578063715018a6146104355780637b0461e91461044a5780637e4831d31461045f5780637f877f85146104745780637fbc9090146104895780638d2ac7a4146104a957610286565b80635f55504c146103c157806364fe5de2146103d65780636526a12a146103f65780636c7ff97b1461040b5780636d2c56151461042057610286565b80632efca5341161022f5780632efca534146103225780633c2957781461034457806341d2a54d146103645780634c634934146103775780634ebbe7621461038c57806357b8631c146103ac57610286565b806308a7493d1461028b578063101197c7146102c157806315128425146102d65780631c309e0a146102eb5780632621db2f1461030057610286565b36610286576066546001600160a01b0316331461028457fe5b005b600080fd5b34801561029757600080fd5b506102ab6102a63660046131e7565b6106cc565b6040516102b89190613cb5565b60405180910390f35b3480156102cd57600080fd5b506102ab6106de565b3480156102e257600080fd5b506102ab6106e4565b3480156102f757600080fd5b506102846106ea565b34801561030c57600080fd5b50610315610796565b6040516102b8919061342f565b34801561032e57600080fd5b506103376107a5565b6040516102b89190613480565b34801561035057600080fd5b5061028461035f36600461329a565b6107b5565b610284610372366004613325565b610977565b34801561038357600080fd5b506102ab610fd4565b34801561039857600080fd5b506102846103a73660046133c8565b610fda565b3480156103b857600080fd5b50610315611089565b3480156103cd57600080fd5b50610284611098565b3480156103e257600080fd5b506102846103f13660046132d2565b61112b565b34801561040257600080fd5b506102ab6111f1565b34801561041757600080fd5b506102846111f7565b34801561042c57600080fd5b50610337611355565b34801561044157600080fd5b50610284611364565b34801561045657600080fd5b506102ab6113ed565b34801561046b57600080fd5b506103376113f3565b34801561048057600080fd5b506103376113fc565b34801561049557600080fd5b506102846104a436600461335d565b61140c565b3480156104b557600080fd5b50610337611b26565b3480156104ca57600080fd5b50610315611b37565b3480156104df57600080fd5b50610337611b47565b3480156104f457600080fd5b506102ab611b57565b61028461050b366004613388565b611c34565b34801561051c57600080fd5b5061028461052b366004613202565b61219a565b34801561053c57600080fd5b50610315612283565b34801561055157600080fd5b506102ab6105603660046131e7565b612292565b34801561057157600080fd5b506102ab6105803660046131e7565b6122a4565b34801561059157600080fd5b506103376122b6565b3480156105a657600080fd5b506102846122c4565b3480156105bb57600080fd5b506102ab612347565b3480156105d057600080fd5b5061028461234d565b3480156105e557600080fd5b506102846123e7565b3480156105fa57600080fd5b506102ab61247e565b34801561060f57600080fd5b506102ab612484565b34801561062457600080fd5b5061028461248a565b34801561063957600080fd5b50610284610648366004613325565b61251f565b34801561065957600080fd5b506103376127ef565b34801561066e57600080fd5b506102ab6127ff565b34801561068357600080fd5b50610284610692366004613236565b61294f565b3480156106a357600080fd5b506102846106b23660046131e7565b612ac8565b3480156106c357600080fd5b506102ab612b89565b606d6020526000908152604090205481565b60735481565b60785481565b6106f2612b8f565b6001600160a01b0316610703611b37565b6001600160a01b0316146107325760405162461bcd60e51b815260040161072990613952565b60405180910390fd5b6070805460ff600160281b808304821615810265ff00000000001990931692909217928390556040517f5500d28fd6f79ee96ffff9ce2f45833d5913c84f586b8a537b6c6f25df0312a39361078c93900490911690613480565b60405180910390a1565b6067546001600160a01b031681565b607054600160281b900460ff1681565b607854336000908152606f602052604090205443916107d49190612b93565b11156107f25760405162461bcd60e51b815260040161072990613682565b336000908152606c60205260408120548190819081901561082857336000908152606c6020526040812080549190556001945091505b336000908152606d6020526040902054156108675750336000908152606d602052604081208054919055606e5461085f9082612bc1565b606e55600192505b600184151514156108d7576068546040516331be54d360e01b81526001600160a01b03909116906331be54d3906108a49033908690600401613443565b600060405180830381600087803b1580156108be57600080fd5b505af11580156108d2573d6000803e3d6000fd5b505050505b6001831515141561097057841561095957606654604051632e1a7d4d60e01b81526001600160a01b0390911690632e1a7d4d90610918908490600401613cb5565b600060405180830381600087803b15801561093257600080fd5b505af1158015610946573d6000803e3d6000fd5b505050506109543382612be9565b610970565b606754610970906001600160a01b03163383612c7b565b5050505050565b60705462010000900460ff16156109a05760405162461bcd60e51b815260040161072990613b2d565b607054600160281b900460ff16156109ea576109ba611b37565b6001600160a01b0316336001600160a01b0316146109ea5760405162461bcd60e51b81526004016107299061390a565b8015610a3857606954600160a01b900460ff16610a195760405162461bcd60e51b815260040161072990613b64565b823414610a385760405162461bcd60e51b8152600401610729906139da565b610a406111f7565b606a5460685460408051633b66494360e21b81529051600a9390930a8602926000926001600160a01b03169163ed99250c916004808301926020929190829003018186803b158015610a9157600080fd5b505afa158015610aa5573d6000803e3d6000fd5b505050506040513d601f19601f82011682018060405250810190610ac991906132ea565b90506000606860009054906101000a90046001600160a01b03166001600160a01b03166318160ddd6040518163ffffffff1660e01b815260040160206040518083038186803b158015610b1b57600080fd5b505afa158015610b2f573d6000803e3d6000fd5b505050506040513d601f19601f82011682018060405250810190610b5391906132ea565b90506000606860009054906101000a90046001600160a01b03166001600160a01b031663fadb1b026040518163ffffffff1660e01b815260040160206040518083038186803b158015610ba557600080fd5b505afa158015610bb9573d6000803e3d6000fd5b505050506040513d601f19601f82011682018060405250810190610bdd91906132ea565b90506000606860009054906101000a90046001600160a01b03166001600160a01b031663d2d97b066040518163ffffffff1660e01b815260040160206040518083038186803b158015610c2f57600080fd5b505afa158015610c43573d6000803e3d6000fd5b505050506040513d601f19601f82011682018060405250810190610c6791906132ea565b905060008073__$1b7833db14374605bbf4baa82b35c8734a$__634e820a3f88610c8f6127ff565b8689896040518663ffffffff1660e01b8152600401610cb2959493929190613ccc565b604080518083038186803b158015610cc957600080fd5b505af4158015610cdd573d6000803e3d6000fd5b505050506040513d601f19601f82011682018060405250810190610d019190613302565b915091506000610d1f606a54600a0a84612cd190919063ffffffff16565b90506000610d5d88610d57610d50607454610d4a60775464e8d4a51000612b9390919063ffffffff16565b90612bc1565b8690612d03565b90612cd1565b90506000606860009054906101000a90046001600160a01b03166001600160a01b03166302c855f86040518163ffffffff1660e01b815260040160206040518083038186803b158015610daf57600080fd5b505afa158015610dc3573d6000803e3d6000fd5b505050506040513d601f19601f82011682018060405250810190610de791906132ea565b9050610dfc64e8d4a51000610d578484612d03565b9150818c1115610e1e5760405162461bcd60e51b815260040161072990613ab5565b606860009054906101000a90046001600160a01b03166001600160a01b0316634013124a6040518163ffffffff1660e01b8152600401600060405180830381600087803b158015610e6e57600080fd5b505af1158015610e82573d6000803e3d6000fd5b505050508a15610f1557606660009054906101000a90046001600160a01b03166001600160a01b031663d0e30db0846040518263ffffffff1660e01b81526004016000604051808303818588803b158015610edc57600080fd5b505af1158015610ef0573d6000803e3d6000fd5b505050505082341115610f1057610f1033610f0b3486612bc1565b612be9565b610f2d565b606754610f2d906001600160a01b0316333086612d3d565b8115610f985760685460405163384c0f5960e11b81526001600160a01b03909116906370981eb290610f659033908690600401613443565b600060405180830381600087803b158015610f7f57600080fd5b505af1158015610f93573d6000803e3d6000fd5b505050505b604051829084907fc2d7df98caa1a9bc768fc3ab167e19ae4febd5da76dad18d3387fb9fc656a37390600090a350505050505050505050505050565b60775481565b610fe2612b8f565b6001600160a01b0316610ff3611b37565b6001600160a01b0316146110195760405162461bcd60e51b815260040161072990613952565b60758790556077869055607885905560718490556072839055607382905560748190556040517f17fe98b66d27bd793ea01bd8a23a54acab8eeb167d9eb016a0c7cd71c573920c90611078908990899089908990899089908990613cef565b60405180910390a150505050505050565b6068546001600160a01b031681565b6110a0612b8f565b6001600160a01b03166110b1611b37565b6001600160a01b0316146110d75760405162461bcd60e51b815260040161072990613952565b6070805460ff610100808304821615810261ff001990931692909217928390556040517fd449302f806044ba9a0f0b2862e496c86cb4ef1f6b3fd474113fb26e46d9b28a9361078c93900490911690613480565b611133612b8f565b6001600160a01b0316611144611b37565b6001600160a01b03161461116a5760405162461bcd60e51b815260040161072990613952565b607054640100000000900460ff1661118657607681905561118c565b60006076555b6070805460ff640100000000808304821615810264ff000000001990931692909217928390556040517fbf1f9e6d8d67bb57a141c627f40368ec23ed7603249f0c3518c16eafbf9c4f6f936111e693900490911690613480565b60405180910390a150565b60755481565b606860009054906101000a90046001600160a01b03166001600160a01b0316636c7ff97b6040518163ffffffff1660e01b8152600401600060405180830381600087803b15801561124757600080fd5b505af115801561125b573d6000803e3d6000fd5b50505050606960009054906101000a90046001600160a01b03166001600160a01b03166309bf39ed6040518163ffffffff1660e01b815260040160206040518083038186803b1580156112ad57600080fd5b505afa1580156112c1573d6000803e3d6000fd5b505050506040513d601f19601f820116820180604052508101906112e591906132b6565b1561135357606960009054906101000a90046001600160a01b03166001600160a01b031663d6f124f06040518163ffffffff1660e01b8152600401600060405180830381600087803b15801561133a57600080fd5b505af115801561134e573d6000803e3d6000fd5b505050505b565b60705462010000900460ff1681565b61136c612b8f565b6001600160a01b031661137d611b37565b6001600160a01b0316146113a35760405162461bcd60e51b815260040161072990613952565b6033546040516000916001600160a01b0316907f8be0079c531659141344cd1fd0a4f28419497f9722a3daafe3b4186f6b6457e0908390a3603380546001600160a01b0319169055565b606e5481565b60705460ff1681565b6070546301000000900460ff1681565b607054610100900460ff16156114345760405162461bcd60e51b815260040161072990613767565b61143c6111f7565b60685460408051637d6d8d8160e11b815290516000926001600160a01b03169163fadb1b02916004808301926020929190829003018186803b15801561148157600080fd5b505afa158015611495573d6000803e3d6000fd5b505050506040513d601f19601f820116820180604052508101906114b991906132ea565b90506000606860009054906101000a90046001600160a01b03166001600160a01b031663fa6292196040518163ffffffff1660e01b815260040160206040518083038186803b15801561150b57600080fd5b505afa15801561151f573d6000803e3d6000fd5b505050506040513d601f19601f8201168201806040525081019061154391906132ea565b905060008282106115545782611556565b815b9050600061158764e8d4a51000610d5761158060725464e8d4a51000612bc190919063ffffffff16565b8a90612d03565b905060006115a86115a164e8d4a51000610d578587612d03565b8390612bc1565b90506000611644606860009054906101000a90046001600160a01b03166001600160a01b031663ed99250c6040518163ffffffff1660e01b815260040160206040518083038186803b1580156115fd57600080fd5b505afa158015611611573d6000803e3d6000fd5b505050506040513d601f19601f8201168201806040525081019061163591906132ea565b610d578464e8d4a51000612d03565b90506000606860009054906101000a90046001600160a01b03166001600160a01b03166302c855f86040518163ffffffff1660e01b815260040160206040518083038186803b15801561169657600080fd5b505afa1580156116aa573d6000803e3d6000fd5b505050506040513d601f19601f820116820180604052508101906116ce91906132ea565b90506116e364e8d4a51000610d578484612d03565b915060006116ff606a54600a0a86612cd190919063ffffffff16565b9050600061171664e8d4a51000610d57848a612d03565b905060006117256116356127ff565b606e546067546040516370a0823160e01b81529293506117af926001600160a01b03909116906370a082319061175f90309060040161342f565b60206040518083038186803b15801561177757600080fd5b505afa15801561178b573d6000803e3d6000fd5b505050506040513d601f19601f82011682018060405250810190610d4a91906132ea565b8111156117ce5760405162461bcd60e51b815260040161072990613c24565b808b11156117ee5760405162461bcd60e51b815260040161072990613608565b848c111561180e5760405162461bcd60e51b8152600401610729906136ea565b606854604051631096f10360e01b81526001600160a01b0390911690631096f1039061183e90339060040161342f565b60206040518083038186803b15801561185657600080fd5b505afa15801561186a573d6000803e3d6000fd5b505050506040513d601f19601f8201168201806040525081019061188e91906132b6565b6118aa5760405162461bcd60e51b815260040161072990613c86565b336000908152606d60205260409020546118c49082612b93565b336000908152606d6020526040902055606e546118e19082612b93565b606e5560685460408051632009892560e11b815290516001600160a01b0390921691634013124a9160048082019260009290919082900301818387803b15801561192a57600080fd5b505af115801561193e573d6000803e3d6000fd5b505050506000851115611a7857606854604051631096f10360e01b81526001600160a01b0390911690631096f1039061197b90339060040161342f565b60206040518083038186803b15801561199357600080fd5b505afa1580156119a7573d6000803e3d6000fd5b505050506040513d601f19601f820116820180604052508101906119cb91906132b6565b6119e75760405162461bcd60e51b815260040161072990613c86565b336000908152606c6020526040902054611a019086612b93565b336000908152606c6020526040908190209190915560685490516369d1679960e01b81526001600160a01b03909116906369d1679990611a45908890600401613cb5565b600060405180830381600087803b158015611a5f57600080fd5b505af1158015611a73573d6000803e3d6000fd5b505050505b43606f6000336001600160a01b03166001600160a01b0316815260200190815260200160002081905550606860009054906101000a90046001600160a01b03166001600160a01b031663a8a778ae338f6040518363ffffffff1660e01b8152600401611ae5929190613443565b600060405180830381600087803b158015611aff57600080fd5b505af1158015611b13573d6000803e3d6000fd5b5050505050505050505050505050505050565b607054640100000000900460ff1681565b6033546001600160a01b03165b90565b606954600160a01b900460ff1681565b607054600090640100000000900460ff16151560011415611bde57611bd764e8d4a51000610d57607654611bd1606a54600a0a611bd1606e54606760009054906101000a90046001600160a01b03166001600160a01b03166370a08231306040518263ffffffff1660e01b815260040161175f919061342f565b90612d03565b9050611b44565b611bd764e8d4a51000610d57611bf26127ff565b606a54606e546067546040516370a0823160e01b8152611bd193600a0a92849290916001600160a01b03909116906370a082319061175f90309060040161342f565b60705460ff1615611c575760405162461bcd60e51b815260040161072990613a53565b8015611ca557606954600160a01b900460ff16611c865760405162461bcd60e51b815260040161072990613b64565b833414611ca55760405162461bcd60e51b815260040161072990613987565b611cad6111f7565b60685460408051633b66494360e21b815290516000926001600160a01b03169163ed99250c916004808301926020929190829003018186803b158015611cf257600080fd5b505afa158015611d06573d6000803e3d6000fd5b505050506040513d601f19601f82011682018060405250810190611d2a91906132ea565b90506000606860009054906101000a90046001600160a01b03166001600160a01b031663fadb1b026040518163ffffffff1660e01b815260040160206040518083038186803b158015611d7c57600080fd5b505afa158015611d90573d6000803e3d6000fd5b505050506040513d601f19601f82011682018060405250810190611db491906132ea565b905080611dc45760009550611dd6565b64e8d4a51000811415611dd657600094505b607554606e546067546040516370a0823160e01b8152611e1c928a92611e16926001600160a01b03909116906370a082319061175f90309060040161342f565b90612b93565b1115611e3a5760405162461bcd60e51b81526004016107299061385a565b606a54600a0a860260008083611edd57604051630810278f60e41b815273__$1b7833db14374605bbf4baa82b35c8734a$__9063810278f090611e839088908c90600401613cbe565b60206040518083038186803b158015611e9b57600080fd5b505af4158015611eaf573d6000803e3d6000fd5b505050506040513d601f19601f82011682018060405250810190611ed391906132ea565b9150879050611f9a565b8360011415611f815773__$1b7833db14374605bbf4baa82b35c8734a$__63ba8b1808611f086127ff565b856040518363ffffffff1660e01b8152600401611f26929190613cbe565b60206040518083038186803b158015611f3e57600080fd5b505af4158015611f52573d6000803e3d6000fd5b505050506040513d601f19601f82011682018060405250810190611f7691906132ea565b915060009050611f9a565b611f9485611f8d6127ff565b8587612d5e565b90925090505b611fc764e8d4a51000610d57611fc060715464e8d4a51000612bc190919063ffffffff16565b8590612d03565b915081871115611fe95760405162461bcd60e51b815260040161072990613ab5565b878111156120095760405162461bcd60e51b81526004016107299061350e565b606860009054906101000a90046001600160a01b03166001600160a01b0316634013124a6040518163ffffffff1660e01b8152600401600060405180830381600087803b15801561205957600080fd5b505af115801561206d573d6000803e3d6000fd5b50505050600081111561209957606854606554612099916001600160a01b039182169133911684612d3d565b881561212b57851561211357606660009054906101000a90046001600160a01b03166001600160a01b031663d0e30db08a6040518263ffffffff1660e01b81526004016000604051808303818588803b1580156120f557600080fd5b505af1158015612109573d6000803e3d6000fd5b505050505061212b565b60675461212b906001600160a01b031633308c612d3d565b606854604051635a7ab59360e11b81526001600160a01b039091169063b4f56b269061215d9033908690600401613443565b600060405180830381600087803b15801561217757600080fd5b505af115801561218b573d6000803e3d6000fd5b50505050505050505050505050565b6121a2612b8f565b6001600160a01b03166121b3611b37565b6001600160a01b0316146121d95760405162461bcd60e51b815260040161072990613952565b6001600160a01b0382166121ff5760405162461bcd60e51b815260040161072990613ae5565b6001600160a01b0381166122255760405162461bcd60e51b8152600401610729906135c2565b606980546001600160a01b03199081166001600160a01b03858116918217909355606b80549092169284169283179091556040517f856e4796eef882904bc46a505b32b16c6fbcef9e0930ac95b2f980781517bf6390600090a35050565b6069546001600160a01b031681565b606f6020526000908152604090205481565b606c6020526000908152604090205481565b607054610100900460ff1681565b6122cc612b8f565b6001600160a01b03166122dd611b37565b6001600160a01b0316146123035760405162461bcd60e51b815260040161072990613952565b6070805460ff19811660ff9182161517918290556040517f3f3c6b7e51ec0201fea018ffcf768f21f85a27593219359fd6af1d95c7e8b4419261078c921690613480565b60715481565b612355612b8f565b6001600160a01b0316612366611b37565b6001600160a01b03161461238c5760405162461bcd60e51b815260040161072990613952565b6070805460ff600160301b808304821615810266ff0000000000001990931692909217928390556040517fd5bc042d6e197fb30aec38c1634dabc01e0bb517e3fea6db130cea57537122469361078c93900490911690613480565b6123ef612b8f565b6001600160a01b0316612400611b37565b6001600160a01b0316146124265760405162461bcd60e51b815260040161072990613952565b6070805460ff6301000000808304821615810263ff0000001990931692909217928390556040517fef220f30673af554aae10180ad5ab98f41c923213a66d1207dbe61f00aa75acf9361078c93900490911690613480565b60765481565b60725481565b612492612b8f565b6001600160a01b03166124a3611b37565b6001600160a01b0316146124c95760405162461bcd60e51b815260040161072990613952565b6070805460ff62010000808304821615810262ff00001990931692909217928390556040517f7e9a29a085706d1cf00b68ff18532dae53be17faa8be9bab8821c355a393656a9361078c93900490911690613480565b6070546301000000900460ff16156125495760405162461bcd60e51b815260040161072990613c5b565b607054600160301b900460ff161561259357612563611b37565b6001600160a01b0316336001600160a01b0316146125935760405162461bcd60e51b815260040161072990613bef565b61259b6111f7565b60685460408051633b66494360e21b815290516000926001600160a01b03169163ed99250c916004808301926020929190829003018186803b1580156125e057600080fd5b505afa1580156125f4573d6000803e3d6000fd5b505050506040513d601f19601f8201168201806040525081019061261891906132ea565b905060006126cf64e8d4a51000610d5761264260735464e8d4a51000612bc190919063ffffffff16565b60685460408051637b0d6d5960e11b81529051611bd1926001600160a01b03169163f61adab2916004808301926020929190829003018186803b15801561268857600080fd5b505afa15801561269c573d6000803e3d6000fd5b505050506040513d601f19601f820116820180604052508101906126c091906132ea565b876126c96127ff565b8c612dc1565b905060006126eb606a54600a0a83612cd190919063ffffffff16565b90508085111561270d5760405162461bcd60e51b815260040161072990613ab5565b60685460655461272c916001600160a01b039182169133911689612d3d565b83156127a357606654604051632e1a7d4d60e01b81526001600160a01b0390911690632e1a7d4d90612762908490600401613cb5565b600060405180830381600087803b15801561277c57600080fd5b505af1158015612790573d6000803e3d6000fd5b5050505061279e3382612be9565b6127ba565b6067546127ba906001600160a01b03163383612c7b565b604051819087907f15b90a6a755d5ed0f929f1f40375d58183388d8d9e2f8e9a2efa93043e70f6de90600090a3505050505050565b607054600160301b900460ff1681565b607054600090640100000000900460ff161515600114156128235750607654611b44565b60685460408051632d83c63b60e11b815290516000926001600160a01b031691635b078c76916004808301926020929190829003018186803b15801561286857600080fd5b505afa15801561287c573d6000803e3d6000fd5b505050506040513d601f19601f820116820180604052508101906128a091906132ea565b606954606b54604051633ddac95360e01b81529293506000926001600160a01b0392831692633ddac953926128e19291169064e8d4a5100090600401613443565b60206040518083038186803b1580156128f957600080fd5b505afa15801561290d573d6000803e3d6000fd5b505050506040513d601f19601f8201168201806040525081019061293191906132ea565b905061294681610d578464e8d4a51000612d03565b92505050611b44565b600054610100900460ff16806129685750612968612e39565b80612976575060005460ff16155b6129925760405162461bcd60e51b81526004016107299061380c565b600054610100900460ff161580156129bd576000805460ff1961ff0019909116610100171660011790555b6129c5612e4a565b606880546001600160a01b038089166001600160a01b03199283161790925560658054928816929091169190911790558115612a1757606680546001600160a01b0319166001600160a01b0386161790555b606780546001600160a01b0319166001600160a01b038616179055612a3d601284612bc1565b606a5560698054831515600160a01b0260ff60a01b199091161790556ec097ce7bc90715b34b9f10000000006075556401bf08eb00607755600160785563b2d05e0060718190556072556070805466ff0000000000001965ff000000000019909116600160281b1716600160301b1790558015612ac0576000805461ff00191690555b505050505050565b612ad0612b8f565b6001600160a01b0316612ae1611b37565b6001600160a01b031614612b075760405162461bcd60e51b815260040161072990613952565b6001600160a01b038116612b2d5760405162461bcd60e51b815260040161072990613545565b6033546040516001600160a01b038084169216907f8be0079c531659141344cd1fd0a4f28419497f9722a3daafe3b4186f6b6457e090600090a3603380546001600160a01b0319166001600160a01b0392909216919091179055565b60745481565b3390565b600082820183811015612bb85760405162461bcd60e51b81526004016107299061358b565b90505b92915050565b600082821115612be35760405162461bcd60e51b81526004016107299061364b565b50900390565b604080516000808252602082019092526001600160a01b038416908390604051612c139190613413565b60006040518083038185875af1925050503d8060008114612c50576040519150601f19603f3d011682016040523d82523d6000602084013e612c55565b606091505b5050905080612c765760405162461bcd60e51b815260040161072990613a26565b505050565b612c768363a9059cbb60e01b8484604051602401612c9a929190613443565b60408051601f198184030181529190526020810180516001600160e01b03166001600160e01b031990931692909217909152612edd565b6000808211612cf25760405162461bcd60e51b815260040161072990613794565b818381612cfb57fe5b049392505050565b600082612d1257506000612bbb565b82820282848281612d1f57fe5b0414612bb85760405162461bcd60e51b8152600401610729906138c9565b61134e846323b872dd60e01b858585604051602401612c9a9392919061345c565b60008080612d7564e8d4a51000610d578789612d03565b90506000612d9082610d4a87610d578364e8d4a51000612d03565b90506000612da789610d578464e8d4a51000612d03565b9050612db38383612b93565b999098509650505050505050565b6000808511612de25760405162461bcd60e51b8152600401610729906137cb565b6000612df764e8d4a51000610d578588612d03565b905085811115612e195760405162461bcd60e51b8152600401610729906134be565b6000612e2e85610d578464e8d4a51000612d03565b979650505050505050565b6000612e4430612f6c565b15905090565b600054610100900460ff1680612e635750612e63612e39565b80612e71575060005460ff16155b612e8d5760405162461bcd60e51b81526004016107299061380c565b600054610100900460ff16158015612eb8576000805460ff1961ff0019909116610100171660011790555b612ec0612f72565b612ec8612ff3565b8015612eda576000805461ff00191690555b50565b6060612f32826040518060400160405280602081526020017f5361666545524332303a206c6f772d6c6576656c2063616c6c206661696c6564815250856001600160a01b03166130cd9092919063ffffffff16565b805190915015612c765780806020019051810190612f5091906132b6565b612c765760405162461bcd60e51b815260040161072990613ba5565b3b151590565b600054610100900460ff1680612f8b5750612f8b612e39565b80612f99575060005460ff16155b612fb55760405162461bcd60e51b81526004016107299061380c565b600054610100900460ff16158015612ec8576000805460ff1961ff0019909116610100171660011790558015612eda576000805461ff001916905550565b600054610100900460ff168061300c575061300c612e39565b8061301a575060005460ff16155b6130365760405162461bcd60e51b81526004016107299061380c565b600054610100900460ff16158015613061576000805460ff1961ff0019909116610100171660011790555b600061306b612b8f565b603380546001600160a01b0319166001600160a01b038316908117909155604051919250906000907f8be0079c531659141344cd1fd0a4f28419497f9722a3daafe3b4186f6b6457e0908290a3508015612eda576000805461ff001916905550565b60606130dc84846000856130e6565b90505b9392505050565b6060824710156131085760405162461bcd60e51b815260040161072990613721565b61311185612f6c565b61312d5760405162461bcd60e51b815260040161072990613a7e565b60006060866001600160a01b0316858760405161314a9190613413565b60006040518083038185875af1925050503d8060008114613187576040519150601f19603f3d011682016040523d82523d6000602084013e61318c565b606091505b5091509150612e2e828286606083156131a65750816130df565b8251156131b65782518084602001fd5b8160405162461bcd60e51b8152600401610729919061348b565b80356001600160a01b0381168114612bbb57600080fd5b6000602082840312156131f8578081fd5b6130df83836131d0565b60008060408385031215613214578081fd5b61321e84846131d0565b915061322d84602085016131d0565b90509250929050565b600080600080600060a0868803121561324d578081fd5b61325787876131d0565b945061326687602088016131d0565b935061327587604088016131d0565b925060608601359150608086013561328c81613d4b565b809150509295509295909350565b6000602082840312156132ab578081fd5b8135612bb881613d4b565b6000602082840312156132c7578081fd5b8151612bb881613d4b565b6000602082840312156132e3578081fd5b5035919050565b6000602082840312156132fb578081fd5b5051919050565b60008060408385031215613314578182fd5b505080516020909101519092909150565b600080600060608486031215613339578283fd5b8335925060208401359150604084013561335281613d4b565b809150509250925092565b600080600060608486031215613371578283fd5b505081359360208301359350604090920135919050565b6000806000806080858703121561339d578384fd5b84359350602085013592506040850135915060608501356133bd81613d4b565b939692955090935050565b600080600080600080600060e0888a0312156133e2578182fd5b505085359760208701359750604087013596606081013596506080810135955060a0810135945060c0013592509050565b60008251613425818460208701613d1f565b9190910192915050565b6001600160a01b0391909116815260200190565b6001600160a01b03929092168252602082015260400190565b6001600160a01b039384168152919092166020820152604081019190915260600190565b901515815260200190565b60006020825282518060208401526134aa816040850160208701613d1f565b601f01601f19169190910160400192915050565b60208082526030908201527f596f752061726520747279696e6720746f20627579206261636b206d6f72652060408201526f7468616e20746865206578636573732160801b606082015260800190565b60208082526017908201527f4e6f7420656e6f7567682042445820696e707574746564000000000000000000604082015260600190565b60208082526026908201527f4f776e61626c653a206e6577206f776e657220697320746865207a65726f206160408201526564647265737360d01b606082015260800190565b6020808252601b908201527f536166654d6174683a206164646974696f6e206f766572666c6f770000000000604082015260600190565b60208082526026908201527f574554482063616e6e6f742062652073657420746f20746865207a65726f206160408201526564647265737360d01b606082015260800190565b60208082526023908201527f536c697070616765206c696d69742072656163686564205b636f6c6c61746572604082015262616c5d60e81b606082015260800190565b6020808252601e908201527f536166654d6174683a207375627472616374696f6e206f766572666c6f770000604082015260600190565b60208082526042908201527f4d757374207761697420666f7220726564656d7074696f6e5f64656c6179206260408201527f6c6f636b73206265666f726520636f6c6c656374696e6720726564656d70746960608201526137b760f11b608082015260a00190565b6020808252601c908201527f536c697070616765206c696d69742072656163686564205b4244585d00000000604082015260600190565b60208082526026908201527f416464726573733a20696e73756666696369656e742062616c616e636520666f6040820152651c8818d85b1b60d21b606082015260800190565b60208082526013908201527214995919595b5a5b99c81a5cc81c185d5cd959606a1b604082015260600190565b6020808252601a908201527f536166654d6174683a206469766973696f6e206279207a65726f000000000000604082015260600190565b60208082526021908201527f4e6f2065786365737320636f6c6c61746572616c20746f20627579206261636b6040820152602160f81b606082015260800190565b6020808252602e908201527f496e697469616c697a61626c653a20636f6e747261637420697320616c72656160408201526d191e481a5b9a5d1a585b1a5e995960921b606082015260800190565b60208082526049908201527f506f6f6c206365696c696e6720726561636865642c206e6f206d6f726520426460408201527f537461626c652063616e206265206d696e7465642077697468207468697320636060820152681bdb1b185d195c985b60ba1b608082015260a00190565b60208082526021908201527f536166654d6174683a206d756c7469706c69636174696f6e206f766572666c6f6040820152607760f81b606082015260800190565b60208082526028908201527f43757272656e746c79206f6e6c79206f776e65722063616e207265636f6c6c61604082015267746572616c697a6560c01b606082015260800190565b6020808252818101527f4f776e61626c653a2063616c6c6572206973206e6f7420746865206f776e6572604082015260600190565b60208082526033908201527f6d73672e76616c756520616e6420636f6c6c61746572616c5f616d6f756e745f6040820152720d2dcbedac2f040c8de40dcdee840dac2e8c6d606b1b606082015260800190565b6020808252602c908201527f6d73672e76616c756520616e6420636f6c6c61746572616c5f616d6f756e742060408201526b0c8de40dcdee840dac2e8c6d60a31b606082015260800190565b602080825260139082015272115512081d1c985b9cd9995c8819985a5b1959606a1b604082015260600190565b602080825260119082015270135a5b9d1a5b99c81a5cc81c185d5cd959607a1b604082015260600190565b6020808252601d908201527f416464726573733a2063616c6c20746f206e6f6e2d636f6e7472616374000000604082015260600190565b60208082526016908201527514db1a5c1c1859d9481b1a5b5a5d081c995858da195960521b604082015260600190565b60208082526028908201527f4f7261636c652063616e6e6f742062652073657420746f20746865207a65726f604082015267206164647265737360c01b606082015260800190565b60208082526019908201527f5265636f6c6c61746572616c697a652069732070617573656400000000000000604082015260600190565b60208082526021908201527f506f6f6c20646f65736e277420737570706f7274206e617469766520746f6b656040820152603760f91b606082015260800190565b6020808252602a908201527f5361666545524332303a204552433230206f7065726174696f6e20646964206e6040820152691bdd081cdd58d8d9595960b21b606082015260800190565b6020808252818101527f43757272656e746c79206f6e6c79206f776e65722063616e206275796261636b604082015260600190565b6020808252601d908201527f4e6f7420656e6f75676820636f6c6c61746572616c20696e20706f6f6c000000604082015260600190565b602080825260119082015270109d5e589858dac81a5cc81c185d5cd959607a1b604082015260600190565b60208082526015908201527443616e6e6f74206c6567616c6c792072656465656d60581b604082015260600190565b90815260200190565b918252602082015260400190565b948552602085019390935260408401919091526060830152608082015260a00190565b968752602087019590955260408601939093526060850191909152608084015260a083015260c082015260e00190565b60005b83811015613d3a578181015183820152602001613d22565b8381111561134e5750506000910152565b8015158114612eda57600080fdfea2646970667358221220b608b340a529ff32e1dba1ce5d287c6875cd8ae42d2b062405cc153e29dbce6864736f6c634300060c0033",
  "libraries": {
    "BdPoolLibrary": "0x029d1DCcbD7CfF8C7BB8318d6f54BcfD59d06052"
  },
  "devdoc": {
    "kind": "dev",
    "methods": {
      "owner()": {
        "details": "Returns the address of the current owner."
      },
      "renounceOwnership()": {
        "details": "Leaves the contract without owner. It will not be possible to call `onlyOwner` functions anymore. Can only be called by the current owner. NOTE: Renouncing ownership will leave the contract without an owner, thereby removing any functionality that is only available to the owner."
      },
      "transferOwnership(address)": {
        "details": "Transfers ownership of the contract to a new account (`newOwner`). Can only be called by the current owner."
      }
    },
    "version": 1
  },
  "userdoc": {
    "kind": "user",
    "methods": {},
    "version": 1
  },
  "storageLayout": {
    "storage": [
      {
        "astId": 492,
        "contract": "contracts/BdStable/Pools/BdStablePool.sol:BdStablePool",
        "label": "_initialized",
        "offset": 0,
        "slot": "0",
        "type": "t_bool"
      },
      {
        "astId": 495,
        "contract": "contracts/BdStable/Pools/BdStablePool.sol:BdStablePool",
        "label": "_initializing",
        "offset": 1,
        "slot": "0",
        "type": "t_bool"
      },
      {
        "astId": 1660,
        "contract": "contracts/BdStable/Pools/BdStablePool.sol:BdStablePool",
        "label": "__gap",
        "offset": 0,
        "slot": "1",
        "type": "t_array(t_uint256)50_storage"
      },
      {
        "astId": 10,
        "contract": "contracts/BdStable/Pools/BdStablePool.sol:BdStablePool",
        "label": "_owner",
        "offset": 0,
        "slot": "51",
        "type": "t_address"
      },
      {
        "astId": 129,
        "contract": "contracts/BdStable/Pools/BdStablePool.sol:BdStablePool",
        "label": "__gap",
        "offset": 0,
        "slot": "52",
        "type": "t_array(t_uint256)49_storage"
      },
      {
        "astId": 6653,
        "contract": "contracts/BdStable/Pools/BdStablePool.sol:BdStablePool",
        "label": "BDX",
        "offset": 0,
        "slot": "101",
        "type": "t_contract(IERC20)2820"
      },
      {
        "astId": 6655,
        "contract": "contracts/BdStable/Pools/BdStablePool.sol:BdStablePool",
        "label": "NativeTokenWrapper",
        "offset": 0,
        "slot": "102",
        "type": "t_contract(IWETH)12942"
      },
      {
        "astId": 6657,
        "contract": "contracts/BdStable/Pools/BdStablePool.sol:BdStablePool",
        "label": "collateral_token",
        "offset": 0,
        "slot": "103",
        "type": "t_contract(IERC20)2820"
      },
      {
        "astId": 6659,
        "contract": "contracts/BdStable/Pools/BdStablePool.sol:BdStablePool",
        "label": "BDSTABLE",
        "offset": 0,
        "slot": "104",
        "type": "t_contract(BDStable)6392"
      },
      {
        "astId": 6661,
        "contract": "contracts/BdStable/Pools/BdStablePool.sol:BdStablePool",
        "label": "collatWEthOracle",
        "offset": 0,
        "slot": "105",
        "type": "t_contract(ICryptoPairOracle)9269"
      },
      {
        "astId": 6663,
        "contract": "contracts/BdStable/Pools/BdStablePool.sol:BdStablePool",
        "label": "is_collateral_wrapping_native_token",
        "offset": 20,
        "slot": "105",
        "type": "t_bool"
      },
      {
        "astId": 6665,
        "contract": "contracts/BdStable/Pools/BdStablePool.sol:BdStablePool",
        "label": "missing_decimals",
        "offset": 0,
        "slot": "106",
        "type": "t_uint256"
      },
      {
        "astId": 6667,
        "contract": "contracts/BdStable/Pools/BdStablePool.sol:BdStablePool",
        "label": "weth_address",
        "offset": 0,
        "slot": "107",
        "type": "t_address"
      },
      {
        "astId": 6671,
        "contract": "contracts/BdStable/Pools/BdStablePool.sol:BdStablePool",
        "label": "redeemBDXBalances",
        "offset": 0,
        "slot": "108",
        "type": "t_mapping(t_address,t_uint256)"
      },
      {
        "astId": 6675,
        "contract": "contracts/BdStable/Pools/BdStablePool.sol:BdStablePool",
        "label": "redeemCollateralBalances",
        "offset": 0,
        "slot": "109",
        "type": "t_mapping(t_address,t_uint256)"
      },
      {
        "astId": 6677,
        "contract": "contracts/BdStable/Pools/BdStablePool.sol:BdStablePool",
        "label": "unclaimedPoolCollateral",
        "offset": 0,
        "slot": "110",
        "type": "t_uint256"
      },
      {
        "astId": 6681,
        "contract": "contracts/BdStable/Pools/BdStablePool.sol:BdStablePool",
        "label": "lastRedeemed",
        "offset": 0,
        "slot": "111",
        "type": "t_mapping(t_address,t_uint256)"
      },
      {
        "astId": 6683,
        "contract": "contracts/BdStable/Pools/BdStablePool.sol:BdStablePool",
        "label": "mintPaused",
        "offset": 0,
        "slot": "112",
        "type": "t_bool"
      },
      {
        "astId": 6685,
        "contract": "contracts/BdStable/Pools/BdStablePool.sol:BdStablePool",
        "label": "redeemPaused",
        "offset": 1,
        "slot": "112",
        "type": "t_bool"
      },
      {
        "astId": 6687,
        "contract": "contracts/BdStable/Pools/BdStablePool.sol:BdStablePool",
        "label": "recollateralizePaused",
        "offset": 2,
        "slot": "112",
        "type": "t_bool"
      },
      {
        "astId": 6689,
        "contract": "contracts/BdStable/Pools/BdStablePool.sol:BdStablePool",
        "label": "buyBackPaused",
        "offset": 3,
        "slot": "112",
        "type": "t_bool"
      },
      {
        "astId": 6691,
        "contract": "contracts/BdStable/Pools/BdStablePool.sol:BdStablePool",
        "label": "collateralPricePaused",
        "offset": 4,
        "slot": "112",
        "type": "t_bool"
      },
      {
        "astId": 6693,
        "contract": "contracts/BdStable/Pools/BdStablePool.sol:BdStablePool",
        "label": "recollateralizeOnlyForOwner",
        "offset": 5,
        "slot": "112",
        "type": "t_bool"
      },
      {
        "astId": 6695,
        "contract": "contracts/BdStable/Pools/BdStablePool.sol:BdStablePool",
        "label": "buybackOnlyForOwner",
        "offset": 6,
        "slot": "112",
        "type": "t_bool"
      },
      {
        "astId": 6697,
        "contract": "contracts/BdStable/Pools/BdStablePool.sol:BdStablePool",
        "label": "minting_fee",
        "offset": 0,
        "slot": "113",
        "type": "t_uint256"
      },
      {
        "astId": 6699,
        "contract": "contracts/BdStable/Pools/BdStablePool.sol:BdStablePool",
        "label": "redemption_fee",
        "offset": 0,
        "slot": "114",
        "type": "t_uint256"
      },
      {
        "astId": 6701,
        "contract": "contracts/BdStable/Pools/BdStablePool.sol:BdStablePool",
        "label": "buyback_fee",
        "offset": 0,
        "slot": "115",
        "type": "t_uint256"
      },
      {
        "astId": 6703,
        "contract": "contracts/BdStable/Pools/BdStablePool.sol:BdStablePool",
        "label": "recollat_fee",
        "offset": 0,
        "slot": "116",
        "type": "t_uint256"
      },
      {
        "astId": 6705,
        "contract": "contracts/BdStable/Pools/BdStablePool.sol:BdStablePool",
        "label": "pool_ceiling",
        "offset": 0,
        "slot": "117",
        "type": "t_uint256"
      },
      {
        "astId": 6707,
        "contract": "contracts/BdStable/Pools/BdStablePool.sol:BdStablePool",
        "label": "pausedPrice",
        "offset": 0,
        "slot": "118",
        "type": "t_uint256"
      },
      {
        "astId": 6709,
        "contract": "contracts/BdStable/Pools/BdStablePool.sol:BdStablePool",
        "label": "bonus_rate",
        "offset": 0,
        "slot": "119",
        "type": "t_uint256"
      },
      {
        "astId": 6711,
        "contract": "contracts/BdStable/Pools/BdStablePool.sol:BdStablePool",
        "label": "redemption_delay",
        "offset": 0,
        "slot": "120",
        "type": "t_uint256"
      }
    ],
    "types": {
      "t_address": {
        "encoding": "inplace",
        "label": "address",
        "numberOfBytes": "20"
      },
      "t_array(t_uint256)49_storage": {
        "base": "t_uint256",
        "encoding": "inplace",
        "label": "uint256[49]",
        "numberOfBytes": "1568"
      },
      "t_array(t_uint256)50_storage": {
        "base": "t_uint256",
        "encoding": "inplace",
        "label": "uint256[50]",
        "numberOfBytes": "1600"
      },
      "t_bool": {
        "encoding": "inplace",
        "label": "bool",
        "numberOfBytes": "1"
      },
      "t_contract(BDStable)6392": {
        "encoding": "inplace",
        "label": "contract BDStable",
        "numberOfBytes": "20"
      },
      "t_contract(ICryptoPairOracle)9269": {
        "encoding": "inplace",
        "label": "contract ICryptoPairOracle",
        "numberOfBytes": "20"
      },
      "t_contract(IERC20)2820": {
        "encoding": "inplace",
        "label": "contract IERC20",
        "numberOfBytes": "20"
      },
      "t_contract(IWETH)12942": {
        "encoding": "inplace",
        "label": "contract IWETH",
        "numberOfBytes": "20"
      },
      "t_mapping(t_address,t_uint256)": {
        "encoding": "mapping",
        "key": "t_address",
        "label": "mapping(address => uint256)",
        "numberOfBytes": "32",
        "value": "t_uint256"
      },
      "t_uint256": {
        "encoding": "inplace",
        "label": "uint256",
        "numberOfBytes": "32"
      }
    }
  }
}