{
  "address": "0xf431467879F8e127a1D7612fcA2723d6ea4E5Fa4",
  "abi": [
    {
      "anonymous": false,
      "inputs": [
        {
          "indexed": true,
          "internalType": "address",
          "name": "owner",
          "type": "address"
        },
        {
          "indexed": true,
          "internalType": "address",
          "name": "spender",
          "type": "address"
        },
        {
          "indexed": false,
          "internalType": "uint256",
          "name": "value",
          "type": "uint256"
        }
      ],
      "name": "Approval",
      "type": "event"
    },
    {
      "anonymous": false,
      "inputs": [
        {
          "indexed": true,
          "internalType": "address",
          "name": "bdstable_oracle_addr",
          "type": "address"
        },
        {
          "indexed": true,
          "internalType": "address",
          "name": "weth_address",
          "type": "address"
        }
      ],
      "name": "BDStableWETHOracleSet",
      "type": "event"
    },
    {
      "anonymous": false,
      "inputs": [
        {
          "indexed": true,
          "internalType": "address",
          "name": "bdx_oracle_address",
          "type": "address"
        },
        {
          "indexed": true,
          "internalType": "address",
          "name": "weth_address",
          "type": "address"
        }
      ],
      "name": "BDXWETHOracleSet",
      "type": "event"
    },
    {
      "anonymous": false,
      "inputs": [
        {
          "indexed": true,
          "internalType": "address",
          "name": "from",
          "type": "address"
        },
        {
          "indexed": true,
          "internalType": "address",
          "name": "to",
          "type": "address"
        },
        {
          "indexed": false,
          "internalType": "uint256",
          "name": "amount",
          "type": "uint256"
        }
      ],
      "name": "BdStableBurned",
      "type": "event"
    },
    {
      "anonymous": false,
      "inputs": [
        {
          "indexed": true,
          "internalType": "address",
          "name": "from",
          "type": "address"
        },
        {
          "indexed": true,
          "internalType": "address",
          "name": "to",
          "type": "address"
        },
        {
          "indexed": false,
          "internalType": "uint256",
          "name": "amount",
          "type": "uint256"
        }
      ],
      "name": "BdStableMinted",
      "type": "event"
    },
    {
      "anonymous": false,
      "inputs": [
        {
          "indexed": false,
          "internalType": "uint256",
          "name": "bdStable_step_d12",
          "type": "uint256"
        }
      ],
      "name": "BdStableStepSet",
      "type": "event"
    },
    {
      "anonymous": false,
      "inputs": [
        {
          "indexed": false,
          "internalType": "uint256",
          "name": "lockedCR_d12",
          "type": "uint256"
        }
      ],
      "name": "CollateralRatioLocked",
      "type": "event"
    },
    {
      "anonymous": false,
      "inputs": [
        {
          "indexed": false,
          "internalType": "bool",
          "name": "collateral_ratio_paused",
          "type": "bool"
        }
      ],
      "name": "CollateralRatioPausedToggled",
      "type": "event"
    },
    {
      "anonymous": false,
      "inputs": [
        {
          "indexed": false,
          "internalType": "uint256",
          "name": "global_collateral_ratio",
          "type": "uint256"
        }
      ],
      "name": "CollateralRatioRefreshed",
      "type": "event"
    },
    {
      "anonymous": false,
      "inputs": [
        {
          "indexed": false,
          "internalType": "address",
          "name": "eth_fiat_consumer_address",
          "type": "address"
        }
      ],
      "name": "EthFiatOracleSet",
      "type": "event"
    },
    {
      "anonymous": false,
      "inputs": [
        {
          "indexed": false,
          "internalType": "uint256",
          "name": "minimumMintRedeemDelayInBlocks",
          "type": "uint256"
        }
      ],
      "name": "MinimumMintRedeemDelayInBlocksSet",
      "type": "event"
    },
    {
      "anonymous": false,
      "inputs": [
        {
          "indexed": true,
          "internalType": "address",
          "name": "previousOwner",
          "type": "address"
        },
        {
          "indexed": true,
          "internalType": "address",
          "name": "newOwner",
          "type": "address"
        }
      ],
      "name": "OwnershipTransferred",
      "type": "event"
    },
    {
      "anonymous": false,
      "inputs": [
        {
          "indexed": false,
          "internalType": "address",
          "name": "pool_address",
          "type": "address"
        }
      ],
      "name": "PoolAdded",
      "type": "event"
    },
    {
      "anonymous": false,
      "inputs": [
        {
          "indexed": false,
          "internalType": "address",
          "name": "pool_address",
          "type": "address"
        }
      ],
      "name": "PoolRemoved",
      "type": "event"
    },
    {
      "anonymous": false,
      "inputs": [
        {
          "indexed": false,
          "internalType": "uint256",
          "name": "_price_band_d12",
          "type": "uint256"
        }
      ],
      "name": "PriceBandSet",
      "type": "event"
    },
    {
      "anonymous": false,
      "inputs": [
        {
          "indexed": false,
          "internalType": "uint256",
          "name": "_price_target_d12",
          "type": "uint256"
        }
      ],
      "name": "PriceTargetSet",
      "type": "event"
    },
    {
      "anonymous": false,
      "inputs": [
        {
          "indexed": true,
          "internalType": "address",
          "name": "from",
          "type": "address"
        },
        {
          "indexed": true,
          "internalType": "address",
          "name": "to",
          "type": "address"
        },
        {
          "indexed": false,
          "internalType": "uint256",
          "name": "value",
          "type": "uint256"
        }
      ],
      "name": "Transfer",
      "type": "event"
    },
    {
      "inputs": [],
      "name": "BDX_price_d12",
      "outputs": [
        {
          "internalType": "uint256",
          "name": "",
          "type": "uint256"
        }
      ],
      "stateMutability": "view",
      "type": "function"
    },
    {
      "inputs": [
        {
          "internalType": "address",
          "name": "pool_address",
          "type": "address"
        }
      ],
      "name": "addPool",
      "outputs": [],
      "stateMutability": "nonpayable",
      "type": "function"
    },
    {
      "inputs": [
        {
          "internalType": "address",
          "name": "owner",
          "type": "address"
        },
        {
          "internalType": "address",
          "name": "spender",
          "type": "address"
        }
      ],
      "name": "allowance",
      "outputs": [
        {
          "internalType": "uint256",
          "name": "",
          "type": "uint256"
        }
      ],
      "stateMutability": "view",
      "type": "function"
    },
    {
      "inputs": [
        {
          "internalType": "address",
          "name": "spender",
          "type": "address"
        },
        {
          "internalType": "uint256",
          "name": "amount",
          "type": "uint256"
        }
      ],
      "name": "approve",
      "outputs": [
        {
          "internalType": "bool",
          "name": "",
          "type": "bool"
        }
      ],
      "stateMutability": "nonpayable",
      "type": "function"
    },
    {
      "inputs": [],
      "name": "availableExcessCollatDV",
      "outputs": [
        {
          "internalType": "uint256",
          "name": "",
          "type": "uint256"
        }
      ],
      "stateMutability": "view",
      "type": "function"
    },
    {
      "inputs": [
        {
          "internalType": "address",
          "name": "account",
          "type": "address"
        }
      ],
      "name": "balanceOf",
      "outputs": [
        {
          "internalType": "uint256",
          "name": "",
          "type": "uint256"
        }
      ],
      "stateMutability": "view",
      "type": "function"
    },
    {
      "inputs": [],
      "name": "bdStable_step_d12",
      "outputs": [
        {
          "internalType": "uint256",
          "name": "",
          "type": "uint256"
        }
      ],
      "stateMutability": "view",
      "type": "function"
    },
    {
      "inputs": [
        {
          "internalType": "address",
          "name": "",
          "type": "address"
        }
      ],
      "name": "bdstable_pools",
      "outputs": [
        {
          "internalType": "bool",
          "name": "",
          "type": "bool"
        }
      ],
      "stateMutability": "view",
      "type": "function"
    },
    {
      "inputs": [
        {
          "internalType": "uint256",
          "name": "",
          "type": "uint256"
        }
      ],
      "name": "bdstable_pools_array",
      "outputs": [
        {
          "internalType": "address payable",
          "name": "",
          "type": "address"
        }
      ],
      "stateMutability": "view",
      "type": "function"
    },
    {
      "inputs": [],
      "name": "bdstable_price_d12",
      "outputs": [
        {
          "internalType": "uint256",
          "name": "",
          "type": "uint256"
        }
      ],
      "stateMutability": "view",
      "type": "function"
    },
    {
      "inputs": [
        {
          "internalType": "address",
          "name": "account",
          "type": "address"
        },
        {
          "internalType": "uint256",
          "name": "amount",
          "type": "uint256"
        }
      ],
      "name": "burnFrom",
      "outputs": [],
      "stateMutability": "nonpayable",
      "type": "function"
    },
    {
      "inputs": [
        {
          "internalType": "address",
          "name": "who",
          "type": "address"
        }
      ],
      "name": "canLegallyRedeem",
      "outputs": [
        {
          "internalType": "bool",
          "name": "",
          "type": "bool"
        }
      ],
      "stateMutability": "view",
      "type": "function"
    },
    {
      "inputs": [],
      "name": "collateral_ratio_paused",
      "outputs": [
        {
          "internalType": "bool",
          "name": "",
          "type": "bool"
        }
      ],
      "stateMutability": "view",
      "type": "function"
    },
    {
      "inputs": [],
      "name": "decimals",
      "outputs": [
        {
          "internalType": "uint8",
          "name": "",
          "type": "uint8"
        }
      ],
      "stateMutability": "view",
      "type": "function"
    },
    {
      "inputs": [
        {
          "internalType": "address",
          "name": "spender",
          "type": "address"
        },
        {
          "internalType": "uint256",
          "name": "subtractedValue",
          "type": "uint256"
        }
      ],
      "name": "decreaseAllowance",
      "outputs": [
        {
          "internalType": "bool",
          "name": "",
          "type": "bool"
        }
      ],
      "stateMutability": "nonpayable",
      "type": "function"
    },
    {
      "inputs": [],
      "name": "effective_global_collateral_ratio_d12",
      "outputs": [
        {
          "internalType": "uint256",
          "name": "",
          "type": "uint256"
        }
      ],
      "stateMutability": "view",
      "type": "function"
    },
    {
      "inputs": [],
      "name": "fiat",
      "outputs": [
        {
          "internalType": "string",
          "name": "",
          "type": "string"
        }
      ],
      "stateMutability": "view",
      "type": "function"
    },
    {
      "inputs": [],
      "name": "getBdStablesPoolsLength",
      "outputs": [
        {
          "internalType": "uint256",
          "name": "",
          "type": "uint256"
        }
      ],
      "stateMutability": "view",
      "type": "function"
    },
    {
      "inputs": [],
      "name": "get_effective_bdx_coverage_ratio",
      "outputs": [
        {
          "internalType": "uint256",
          "name": "",
          "type": "uint256"
        }
      ],
      "stateMutability": "view",
      "type": "function"
    },
    {
      "inputs": [],
      "name": "globalCollateralValue",
      "outputs": [
        {
          "internalType": "uint256",
          "name": "",
          "type": "uint256"
        }
      ],
      "stateMutability": "view",
      "type": "function"
    },
    {
      "inputs": [],
      "name": "global_collateral_ratio_d12",
      "outputs": [
        {
          "internalType": "uint256",
          "name": "",
          "type": "uint256"
        }
      ],
      "stateMutability": "view",
      "type": "function"
    },
    {
      "inputs": [
        {
          "internalType": "address",
          "name": "spender",
          "type": "address"
        },
        {
          "internalType": "uint256",
          "name": "addedValue",
          "type": "uint256"
        }
      ],
      "name": "increaseAllowance",
      "outputs": [
        {
          "internalType": "bool",
          "name": "",
          "type": "bool"
        }
      ],
      "stateMutability": "nonpayable",
      "type": "function"
    },
    {
      "inputs": [
        {
          "internalType": "string",
          "name": "_name",
          "type": "string"
        },
        {
          "internalType": "string",
          "name": "_symbol",
          "type": "string"
        },
        {
          "internalType": "string",
          "name": "_fiat",
          "type": "string"
        },
        {
          "internalType": "address",
          "name": "_treasury_address",
          "type": "address"
        },
        {
          "internalType": "address",
          "name": "_bdx_address",
          "type": "address"
        },
        {
          "internalType": "uint256",
          "name": "_initalBdStableToOwner_d18",
          "type": "uint256"
        }
      ],
      "name": "initialize",
      "outputs": [],
      "stateMutability": "nonpayable",
      "type": "function"
    },
    {
      "inputs": [
        {
          "internalType": "address",
          "name": "",
          "type": "address"
        }
      ],
      "name": "lastMintByUserBlock",
      "outputs": [
        {
          "internalType": "uint256",
          "name": "",
          "type": "uint256"
        }
      ],
      "stateMutability": "view",
      "type": "function"
    },
    {
      "inputs": [
        {
          "internalType": "uint256",
          "name": "wantedCR_d12",
          "type": "uint256"
        }
      ],
      "name": "lockCollateralRatioAt",
      "outputs": [],
      "stateMutability": "nonpayable",
      "type": "function"
    },
    {
      "inputs": [],
      "name": "name",
      "outputs": [
        {
          "internalType": "string",
          "name": "",
          "type": "string"
        }
      ],
      "stateMutability": "view",
      "type": "function"
    },
    {
      "inputs": [],
      "name": "owner",
      "outputs": [
        {
          "internalType": "address",
          "name": "",
          "type": "address"
        }
      ],
      "stateMutability": "view",
      "type": "function"
    },
    {
      "inputs": [
        {
          "internalType": "address",
          "name": "b_address",
          "type": "address"
        },
        {
          "internalType": "uint256",
          "name": "b_amount",
          "type": "uint256"
        }
      ],
      "name": "pool_burn_from",
      "outputs": [],
      "stateMutability": "nonpayable",
      "type": "function"
    },
    {
      "inputs": [
        {
          "internalType": "uint256",
          "name": "amount",
          "type": "uint256"
        }
      ],
      "name": "pool_claim_bdx",
      "outputs": [],
      "stateMutability": "nonpayable",
      "type": "function"
    },
    {
      "inputs": [
        {
          "internalType": "address",
          "name": "m_address",
          "type": "address"
        },
        {
          "internalType": "uint256",
          "name": "m_amount",
          "type": "uint256"
        }
      ],
      "name": "pool_mint",
      "outputs": [],
      "stateMutability": "nonpayable",
      "type": "function"
    },
    {
      "inputs": [
        {
          "internalType": "address",
          "name": "to",
          "type": "address"
        },
        {
          "internalType": "uint256",
          "name": "amount",
          "type": "uint256"
        }
      ],
      "name": "pool_transfer_claimed_bdx",
      "outputs": [],
      "stateMutability": "nonpayable",
      "type": "function"
    },
    {
      "inputs": [],
      "name": "price_band_d12",
      "outputs": [
        {
          "internalType": "uint256",
          "name": "",
          "type": "uint256"
        }
      ],
      "stateMutability": "view",
      "type": "function"
    },
    {
      "inputs": [],
      "name": "price_target_d12",
      "outputs": [
        {
          "internalType": "uint256",
          "name": "",
          "type": "uint256"
        }
      ],
      "stateMutability": "view",
      "type": "function"
    },
    {
      "inputs": [],
      "name": "refreshCollateralRatio",
      "outputs": [],
      "stateMutability": "nonpayable",
      "type": "function"
    },
    {
      "inputs": [],
      "name": "refreshCollateralRatio_last_call_time",
      "outputs": [
        {
          "internalType": "uint256",
          "name": "",
          "type": "uint256"
        }
      ],
      "stateMutability": "view",
      "type": "function"
    },
    {
      "inputs": [],
      "name": "refresh_cooldown",
      "outputs": [
        {
          "internalType": "uint256",
          "name": "",
          "type": "uint256"
        }
      ],
      "stateMutability": "view",
      "type": "function"
    },
    {
      "inputs": [
        {
          "internalType": "address",
          "name": "pool_address",
          "type": "address"
        }
      ],
      "name": "removePool",
      "outputs": [],
      "stateMutability": "nonpayable",
      "type": "function"
    },
    {
      "inputs": [],
      "name": "renounceOwnership",
      "outputs": [],
      "stateMutability": "nonpayable",
      "type": "function"
    },
    {
      "inputs": [
        {
          "internalType": "address",
          "name": "_bdstable_oracle_addr",
          "type": "address"
        },
        {
          "internalType": "address",
          "name": "_weth_address",
          "type": "address"
        }
      ],
      "name": "setBDStable_WETH_Oracle",
      "outputs": [],
      "stateMutability": "nonpayable",
      "type": "function"
    },
    {
      "inputs": [
        {
          "internalType": "address",
          "name": "_bdx_oracle_addr",
          "type": "address"
        },
        {
          "internalType": "address",
          "name": "_weth_address",
          "type": "address"
        }
      ],
      "name": "setBDX_WETH_Oracle",
      "outputs": [],
      "stateMutability": "nonpayable",
      "type": "function"
    },
    {
      "inputs": [
        {
          "internalType": "uint256",
          "name": "_bdStable_step_d12",
          "type": "uint256"
        }
      ],
      "name": "setBdStable_step_d12",
      "outputs": [],
      "stateMutability": "nonpayable",
      "type": "function"
    },
    {
      "inputs": [
        {
          "internalType": "address",
          "name": "_eth_fiat_consumer_address",
          "type": "address"
        }
      ],
      "name": "setETH_fiat_Oracle",
      "outputs": [],
      "stateMutability": "nonpayable",
      "type": "function"
    },
    {
      "inputs": [
        {
          "internalType": "uint256",
          "name": "_minimumMintRedeemDelayInBlocks",
          "type": "uint256"
        }
      ],
      "name": "setMinimumSwapsDelayInBlocks",
      "outputs": [],
      "stateMutability": "nonpayable",
      "type": "function"
    },
    {
      "inputs": [
        {
          "internalType": "address",
          "name": "_treasury_address",
          "type": "address"
        }
      ],
      "name": "setTreasury_address",
      "outputs": [],
      "stateMutability": "nonpayable",
      "type": "function"
    },
    {
      "inputs": [
        {
          "internalType": "uint256",
          "name": "_price_band_d12",
          "type": "uint256"
        }
      ],
      "name": "set_price_band_d12",
      "outputs": [],
      "stateMutability": "nonpayable",
      "type": "function"
    },
    {
      "inputs": [
        {
          "internalType": "uint256",
          "name": "_price_target_d12",
          "type": "uint256"
        }
      ],
      "name": "set_price_target_d12",
      "outputs": [],
      "stateMutability": "nonpayable",
      "type": "function"
    },
    {
      "inputs": [],
      "name": "shouldUpdateOracles",
      "outputs": [
        {
          "internalType": "bool",
          "name": "",
          "type": "bool"
        }
      ],
      "stateMutability": "view",
      "type": "function"
    },
    {
      "inputs": [],
      "name": "symbol",
      "outputs": [
        {
          "internalType": "string",
          "name": "",
          "type": "string"
        }
      ],
      "stateMutability": "view",
      "type": "function"
    },
    {
      "inputs": [],
      "name": "toggleCollateralRatioPaused",
      "outputs": [],
      "stateMutability": "nonpayable",
      "type": "function"
    },
    {
      "inputs": [],
      "name": "totalSupply",
      "outputs": [
        {
          "internalType": "uint256",
          "name": "",
          "type": "uint256"
        }
      ],
      "stateMutability": "view",
      "type": "function"
    },
    {
      "inputs": [
        {
          "internalType": "address",
          "name": "recipient",
          "type": "address"
        },
        {
          "internalType": "uint256",
          "name": "amount",
          "type": "uint256"
        }
      ],
      "name": "transfer",
      "outputs": [
        {
          "internalType": "bool",
          "name": "",
          "type": "bool"
        }
      ],
      "stateMutability": "nonpayable",
      "type": "function"
    },
    {
      "inputs": [
        {
          "internalType": "address",
          "name": "sender",
          "type": "address"
        },
        {
          "internalType": "address",
          "name": "recipient",
          "type": "address"
        },
        {
          "internalType": "uint256",
          "name": "amount",
          "type": "uint256"
        }
      ],
      "name": "transferFrom",
      "outputs": [
        {
          "internalType": "bool",
          "name": "",
          "type": "bool"
        }
      ],
      "stateMutability": "nonpayable",
      "type": "function"
    },
    {
      "inputs": [
        {
          "internalType": "address",
          "name": "newOwner",
          "type": "address"
        }
      ],
      "name": "transferOwnership",
      "outputs": [],
      "stateMutability": "nonpayable",
      "type": "function"
    },
    {
      "inputs": [
        {
          "internalType": "address",
          "name": "to",
          "type": "address"
        },
        {
          "internalType": "uint256",
          "name": "BDX_amount",
          "type": "uint256"
        }
      ],
      "name": "transfer_bdx",
      "outputs": [],
      "stateMutability": "nonpayable",
      "type": "function"
    },
    {
      "inputs": [
        {
          "internalType": "address",
          "name": "to",
          "type": "address"
        },
        {
          "internalType": "uint256",
          "name": "BDX_amount",
          "type": "uint256"
        }
      ],
      "name": "transfer_bdx_force",
      "outputs": [],
      "stateMutability": "nonpayable",
      "type": "function"
    },
    {
      "inputs": [],
      "name": "treasury_address",
      "outputs": [
        {
          "internalType": "address",
          "name": "",
          "type": "address"
        }
      ],
      "stateMutability": "view",
      "type": "function"
    },
    {
      "inputs": [],
      "name": "unclaimedPoolsBDX",
      "outputs": [
        {
          "internalType": "uint256",
          "name": "",
          "type": "uint256"
        }
      ],
      "stateMutability": "view",
      "type": "function"
    },
    {
      "inputs": [],
      "name": "updateOraclesIfNeeded",
      "outputs": [],
      "stateMutability": "nonpayable",
      "type": "function"
    },
    {
      "inputs": [],
      "name": "weth_address",
      "outputs": [
        {
          "internalType": "address",
          "name": "",
          "type": "address"
        }
      ],
      "stateMutability": "view",
      "type": "function"
    },
    {
      "inputs": [],
      "name": "weth_fiat_price",
      "outputs": [
        {
          "internalType": "uint256",
          "name": "",
          "type": "uint256"
        }
      ],
      "stateMutability": "view",
      "type": "function"
    },
    {
      "inputs": [],
      "name": "when_should_refresh_collateral_ratio_in_seconds",
      "outputs": [
        {
          "internalType": "uint256",
          "name": "",
          "type": "uint256"
        }
      ],
      "stateMutability": "view",
      "type": "function"
    }
  ],
  "transactionHash": "0xd292b1481b7b2e740ddd6888b2905630c96080bb299b0905246e3811d6ac3b20",
  "args": [],
  "solcInputHash": "cd8720e2909469f7fade4e9f8329e216",
  "bytecode": "0x6080604052600160a65534801561001557600080fd5b50613804806100256000396000f3fe608060405234801561001057600080fd5b50600436106103af5760003560e01c806387a140c3116101f4578063b4f56b261161011a578063dd62ed3e116100ad578063f2fde38b1161007c578063f2fde38b14610712578063f61adab214610725578063fa6292191461072d578063fadb1b0214610735576103af565b8063dd62ed3e146106d1578063ed7e119f146106e4578063ed99250c146106f7578063eef772f2146106ff576103af565b8063ce202603116100e9578063ce202603146106a6578063d2d97b06146106ae578063d914cd4b146106b6578063da6ed553146106c9576103af565b8063b4f56b2614610670578063b7949f8714610683578063bcdede5b14610696578063c03f7be31461069e576103af565b8063a457c2d711610192578063abfd857511610161578063abfd85751461062f578063b02f6aec14610642578063b20b02aa14610655578063b2d236221461065d576103af565b8063a457c2d7146105ee578063a50edca014610601578063a8a778ae14610609578063a9059cbb1461061c576103af565b806396e35cea116101ce57806396e35cea146105ad5780639e92f14f146105c05780639f5f79e0146105d3578063a367e27d146105e6576103af565b806387a140c3146105955780638da5cb5b1461059d57806395d89b41146105a5576103af565b80633b7d0946116102d9578063688c0f471161027757806370a082311161024657806370a082311461055f578063715018a61461057257806379cc67901461057a578063870cfeab1461058d576103af565b8063688c0f471461052957806369d16799146105315780636c7ff97b1461054457806370981eb21461054c576103af565b80634aa0eb9a116102b35780634aa0eb9a146104fe5780635b078c76146105065780635e757f6a1461050e578063686d14e614610516576103af565b80633b7d0946146104d05780634013124a146104e3578063497b5961146104eb576103af565b806323b872dd116103515780632fe16b96116103205780632fe16b9614610482578063313ce5671461049557806331be54d3146104aa57806339509351146104bd576103af565b806323b872dd1461044a578063246126bd1461045d57806325f10c9b1461047257806326191e4b1461047a576103af565b8063095ea7b31161038d578063095ea7b3146103fc5780631096f1031461041c57806318160ddd1461042f5780631c09845814610437576103af565b806302c855f8146103b457806306fdde03146103d257806308acfd2e146103e7575b600080fd5b6103bc61073d565b6040516103c991906136bd565b60405180910390f35b6103da6108af565b6040516103c99190613040565b6103fa6103f5366004612e33565b610945565b005b61040f61040a366004612ec2565b6109d5565b6040516103c99190613035565b61040f61042a366004612e33565b6109f3565b6103bc610a25565b6103fa610445366004612fbc565b610a2b565b61040f610458366004612e82565b610aaa565b610465610b32565b6040516103c99190613008565b6103bc610b41565b6103bc610b52565b61040f610490366004612e33565b610b58565b61049d610b6d565b6040516103c991906136c6565b6103fa6104b8366004612ec2565b610b76565b61040f6104cb366004612ec2565b610bd5565b6103fa6104de366004612e33565b610c23565b6103fa610dcc565b6104656104f9366004612fbc565b610fd1565b6103bc610ff8565b6103bc610ffe565b6103bc61107b565b6103fa610524366004612e33565b6110a0565b6103bc611150565b6103fa61053f366004612fbc565b611156565b6103fa61119d565b6103fa61055a366004612ec2565b611386565b6103bc61056d366004612e33565b61144d565b6103fa611468565b6103fa610588366004612ec2565b6114f1565b6103bc611546565b61040f61154c565b610465611555565b6103da611564565b6103fa6105bb366004612f0c565b6115c5565b6103fa6105ce366004612e4e565b611700565b6103fa6105e1366004612fbc565b6117e9565b61046561185d565b61040f6105fc366004612ec2565b61186c565b6103da6118d4565b6103fa610617366004612ec2565b611962565b61040f61062a366004612ec2565b6119ef565b6103fa61063d366004612fbc565b611a03565b6103fa610650366004612fbc565b611a77565b6103bc611b1d565b6103fa61066b366004612e4e565b611b23565b6103fa61067e366004612ec2565b611c0c565b6103fa610691366004612ec2565b611c97565b61040f611cd6565b6103bc611ddf565b6103bc611de5565b6103bc611deb565b6103fa6106c4366004612e33565b611ea2565b6103fa611fd3565b6103bc6106df366004612e4e565b612060565b6103bc6106f2366004612e33565b61208b565b6103bc61209d565b6103fa61070d366004612fbc565b6120a9565b6103fa610720366004612e33565b61211d565b6103bc6121de565b6103bc612241565b6103bc612277565b600080610748612241565b9050600081609e541161075d57609e5461075f565b815b9050600061079264e8d4a5100061078c610777610a25565b61078664e8d4a510008761227d565b906122a5565b906122df565b9050806107a95764e8d4a5100093505050506108ac565b60006107b56001612311565b9050806107c95760009450505050506108ac565b60006107de8261078c8564e8d4a510006122a5565b609754609a546040516370a0823160e01b815292935060009261087092916001600160a01b0316906370a082319061081a903090600401613008565b60206040518083038186803b15801561083257600080fd5b505afa158015610846573d6000803e3d6000fd5b505050506040513d601f19601f8201168201806040525081019061086a9190612fd4565b9061227d565b905060006108878361078c64e8d4a51000856122a5565b905064e8d4a51000811161089b57806108a2565b64e8d4a510005b9750505050505050505b90565b60368054604080516020601f600260001961010060018816150201909516949094049384018190048102820181019092528281526060939092909183018282801561093b5780601f106109105761010080835404028352916020019161093b565b820191906000526020600020905b81548152906001019060200180831161091e57829003601f168201915b5050505050905090565b61094d612447565b6001600160a01b031661095e611555565b6001600160a01b03161461098d5760405162461bcd60e51b8152600401610984906133a5565b60405180910390fd5b6001600160a01b0381166109b35760405162461bcd60e51b8152600401610984906131e3565b609980546001600160a01b0319166001600160a01b0392909216919091179055565b60006109e96109e2612447565b848461244b565b5060015b92915050565b60a6546001600160a01b038216600090815260a86020526040812054909190610a1d90439061227d565b101592915050565b60355490565b610a33612447565b6001600160a01b0316610a44611555565b6001600160a01b031614610a6a5760405162461bcd60e51b8152600401610984906133a5565b60a28190556040517fa603e975ae74b9c52c4ab59b67b328222c699f765f89b808e8a2ae7c9ae2428e90610a9f9083906136bd565b60405180910390a150565b6000610ab78484846124ff565b610b2784610ac3612447565b610b228560405180606001604052806028815260200161375e602891396001600160a01b038a16600090815260346020526040812090610b01612447565b6001600160a01b031681526020810191909152604001600020549190612614565b61244b565b5060015b9392505050565b609f546001600160a01b031681565b6000610b4d6000612311565b905090565b60a25481565b60a16020526000908152604090205460ff1681565b60385460ff1690565b33600090815260a1602052604090205460ff161515600114610baa5760405162461bcd60e51b81526004016109849061329b565b609754610bb7908261227d565b609755609a54610bd1906001600160a01b03168383612640565b5050565b60006109e9610be2612447565b84610b228560346000610bf3612447565b6001600160a01b03908116825260208083019390935260409182016000908120918c168152925290205490612696565b610c2b612447565b6001600160a01b0316610c3c611555565b6001600160a01b031614610c625760405162461bcd60e51b8152600401610984906133a5565b6001600160a01b038116600090815260a1602052604090205460ff161515600114610c9f5760405162461bcd60e51b81526004016109849061322d565b6001600160a01b038116600090815260a160205260408120805460ff191690555b60a054811015610d9c57816001600160a01b031660a08281548110610ce157fe5b6000918252602090912001546001600160a01b03161415610d945760a080546000198101908110610d0e57fe5b60009182526020909120015460a080546001600160a01b039092169183908110610d3457fe5b9060005260206000200160006101000a8154816001600160a01b0302191690836001600160a01b0316021790555060a0805480610d6d57fe5b600082815260209020810160001990810180546001600160a01b0319169055019055610d9c565b600101610cc0565b507f4106dfdaa577573db51c0ca93f766dbedfa0758faa2e7f5bcdb7c142be803c3f81604051610a9f9190613008565b60a75460ff16151560011415610de157610fcf565b6000610deb61107b565b1115610df657610fcf565b609b60009054906101000a90046001600160a01b03166001600160a01b03166309bf39ed6040518163ffffffff1660e01b815260040160206040518083038186803b158015610e4457600080fd5b505afa158015610e58573d6000803e3d6000fd5b505050506040513d601f19601f82011682018060405250810190610e7c9190612eec565b15610eea57609b60009054906101000a90046001600160a01b03166001600160a01b031663d6f124f06040518163ffffffff1660e01b8152600401600060405180830381600087803b158015610ed157600080fd5b505af1158015610ee5573d6000803e3d6000fd5b505050505b6000610ef4610b41565b9050610f0d60a55460a45461269690919063ffffffff16565b811115610f415760a254609e5411610f29576000609e55610f3c565b60a254609e54610f389161227d565b609e555b610f9a565b60a55460a454610f509161227d565b811015610f9a5764e8d4a51000610f7460a254609e5461269690919063ffffffff16565b10610f875764e8d4a51000609e55610f9a565b60a254609e54610f9691612696565b609e555b4260a955609e546040517fb1200af9b3ac4dec88c9d01e1fb7cc7fa1f0fe55bf4afac1f30cc4fc2b2d1dd291610a9f916136bd565b565b60a08181548110610fde57fe5b6000918252602090912001546001600160a01b0316905081565b60975481565b609d546040805163f245a92f60e01b815290516000926001600160a01b03169163f245a92f916004808301926020929190829003018186803b15801561104357600080fd5b505afa158015611057573d6000803e3d6000fd5b505050506040513d601f19601f82011682018060405250810190610b4d9190612fd4565b60a95460a3546000914203908111611097578060a3540361109a565b60005b91505090565b6110a8612447565b6001600160a01b03166110b9611555565b6001600160a01b0316146110df5760405162461bcd60e51b8152600401610984906133a5565b6001600160a01b0381166111055760405162461bcd60e51b81526004016109849061356c565b609d80546001600160a01b0319166001600160a01b0383161790556040517f6643a1fbc87d792d8e737bc2f2d5c0f1c7477ab534d0254404a448decceb3d9790610a9f908390613008565b60a05490565b33600090815260a1602052604090205460ff16151560011461118a5760405162461bcd60e51b81526004016109849061329b565b6097546111979082612696565b60975550565b609c60009054906101000a90046001600160a01b03166001600160a01b03166309bf39ed6040518163ffffffff1660e01b815260040160206040518083038186803b1580156111eb57600080fd5b505afa1580156111ff573d6000803e3d6000fd5b505050506040513d601f19601f820116820180604052508101906112239190612eec565b1561129157609c60009054906101000a90046001600160a01b03166001600160a01b031663d6f124f06040518163ffffffff1660e01b8152600401600060405180830381600087803b15801561127857600080fd5b505af115801561128c573d6000803e3d6000fd5b505050505b609b60009054906101000a90046001600160a01b03166001600160a01b03166309bf39ed6040518163ffffffff1660e01b815260040160206040518083038186803b1580156112df57600080fd5b505afa1580156112f3573d6000803e3d6000fd5b505050506040513d601f19601f820116820180604052508101906113179190612eec565b15610fcf57609b60009054906101000a90046001600160a01b03166001600160a01b031663d6f124f06040518163ffffffff1660e01b8152600401600060405180830381600087803b15801561136c57600080fd5b505af1158015611380573d6000803e3d6000fd5b50505050565b61138e611555565b6001600160a01b0316336001600160a01b031614806113c1575033600090815260a1602052604090205460ff1615156001145b6113dd5760405162461bcd60e51b8152600401610984906134fe565b609754609a546040516370a0823160e01b815283926114189290916001600160a01b03909116906370a082319061081a903090600401613008565b10156114365760405162461bcd60e51b815260040161098490613175565b609a54610bd1906001600160a01b03168383612640565b6001600160a01b031660009081526033602052604090205490565b611470612447565b6001600160a01b0316611481611555565b6001600160a01b0316146114a75760405162461bcd60e51b8152600401610984906133a5565b6065546040516000916001600160a01b0316907f8be0079c531659141344cd1fd0a4f28419497f9722a3daafe3b4186f6b6457e0908390a3606580546001600160a01b0319169055565b6000611523826040518060600160405280602481526020016137866024913961151c866106df612447565b9190612614565b905061153783611531612447565b8361244b565b61154183836126bb565b505050565b60a95481565b60a75460ff1681565b6065546001600160a01b031690565b60378054604080516020601f600260001961010060018816150201909516949094049384018190048102820181019092528281526060939092909183018282801561093b5780601f106109105761010080835404028352916020019161093b565b600054610100900460ff16806115de57506115de612791565b806115ec575060005460ff16155b6116085760405162461bcd60e51b815260040161098490613316565b600054610100900460ff16158015611633576000805460ff1961ff0019909116610100171660011790555b61163d87876127a2565b611645612838565b8451611658906098906020880190612d0b565b50609980546001600160a01b038087166001600160a01b031992831617909255609a80549286169290911691909117905561169f61271061078c64e8d4a5100060196122a5565b60a25564e8d4a51000609e81905560a48190556116c5906127109061078c9060326122a5565b60a555610e1060a35581156116e5576116e56116df611555565b836128cb565b80156116f7576000805461ff00191690555b50505050505050565b611708612447565b6001600160a01b0316611719611555565b6001600160a01b03161461173f5760405162461bcd60e51b8152600401610984906133a5565b6001600160a01b0382166117655760405162461bcd60e51b81526004016109849061356c565b6001600160a01b03811661178b5760405162461bcd60e51b81526004016109849061319d565b609c80546001600160a01b03199081166001600160a01b03858116918217909355609f80549092169284169283179091556040517f6b1a39edee703597b0d35ebd1e84785c1afac7793c4f61658d9851c875bd55e990600090a35050565b6117f1612447565b6001600160a01b0316611802611555565b6001600160a01b0316146118285760405162461bcd60e51b8152600401610984906133a5565b60a58190556040517fe9febe6aec89ff2870eeab6d13333c59cbed275b1d9a95f527c853d99ddb7cf490610a9f9083906136bd565b6099546001600160a01b031681565b60006109e9611879612447565b84610b22856040518060600160405280602581526020016137aa60259139603460006118a3612447565b6001600160a01b03908116825260208083019390935260409182016000908120918d16815292529020549190612614565b6098805460408051602060026001851615610100026000190190941693909304601f8101849004840282018401909252818152929183018282801561195a5780601f1061192f5761010080835404028352916020019161195a565b820191906000526020600020905b81548152906001019060200180831161193d57829003601f168201915b505050505081565b33600090815260a1602052604090205460ff1615156001146119965760405162461bcd60e51b81526004016109849061329b565b6119a082826114f1565b336001600160a01b0316826001600160a01b03167f12d4d764706ce89037b449ff0dea7e084ef851d40ff63edaa38db6f33a581c7f836040516119e391906136bd565b60405180910390a35050565b60006109e96119fc612447565b84846124ff565b611a0b612447565b6001600160a01b0316611a1c611555565b6001600160a01b031614611a425760405162461bcd60e51b8152600401610984906133a5565b60a48190556040517f898a2c9df7982133daaa8cfd78b8c49c520cba03205eec6480552c19059f6e3a90610a9f9083906136bd565b611a7f612447565b6001600160a01b0316611a90611555565b6001600160a01b031614611ab65760405162461bcd60e51b8152600401610984906133a5565b64e8d4a51000811115611adb5760405162461bcd60e51b8152600401610984906135b4565b609e81905560a7805460ff191660011790556040517ff3cd0dd9cc1a87f0d8733b9942a8864d40cb15c961b612792723a0a7858dd53d90610a9f9083906136bd565b60a55481565b611b2b612447565b6001600160a01b0316611b3c611555565b6001600160a01b031614611b625760405162461bcd60e51b8152600401610984906133a5565b6001600160a01b038216611b885760405162461bcd60e51b81526004016109849061356c565b6001600160a01b038116611bae5760405162461bcd60e51b81526004016109849061319d565b609b80546001600160a01b03199081166001600160a01b03858116918217909355609f80549092169284169283179091556040517f4b3d6a3884d9b2a42f47c477f7a3af756a41c0049f277577cf90541ab74909b190600090a35050565b33600090815260a1602052604090205460ff161515600114611c405760405162461bcd60e51b81526004016109849061329b565b611c4a82826128cb565b6001600160a01b038216600081815260a86020526040908190204390555133907f69f651718349cff8d0d00acbb3ebb2bf127edbdfc02746168d5e35fb7998b399906119e39085906136bd565b611c9f612447565b6001600160a01b0316611cb0611555565b6001600160a01b0316146114365760405162461bcd60e51b8152600401610984906133a5565b609c54604080516309bf39ed60e01b815290516000926001600160a01b0316916309bf39ed916004808301926020929190829003018186803b158015611d1b57600080fd5b505afa158015611d2f573d6000803e3d6000fd5b505050506040513d601f19601f82011682018060405250810190611d539190612eec565b80610b4d5750609b60009054906101000a90046001600160a01b03166001600160a01b03166309bf39ed6040518163ffffffff1660e01b815260040160206040518083038186803b158015611da757600080fd5b505afa158015611dbb573d6000803e3d6000fd5b505050506040513d601f19601f82011682018060405250810190610b4d9190612eec565b60a35481565b60a45481565b600080805b60a054811015611e9c57611e9260a08281548110611e0a57fe5b6000918252602091829020015460408051639ccabfb560e01b815290516001600160a01b0390921692639ccabfb592600480840193829003018186803b158015611e5357600080fd5b505afa158015611e67573d6000803e3d6000fd5b505050506040513d601f19601f82011682018060405250810190611e8b9190612fd4565b8390612696565b9150600101611df0565b50905090565b611eaa612447565b6001600160a01b0316611ebb611555565b6001600160a01b031614611ee15760405162461bcd60e51b8152600401610984906133a5565b6001600160a01b038116600090815260a1602052604090205460ff1615611f1a5760405162461bcd60e51b8152600401610984906133da565b60a054602011611f3c5760405162461bcd60e51b815260040161098490613448565b6001600160a01b038116600081815260a16020526040808220805460ff1916600190811790915560a0805491820181559092527f78fdc8d422c49ced035a9edf18d00d3c6a8d81df210f3e5e448e045e77b41e8890910180546001600160a01b031916909217909155517f73cca62ab1b520c9715bf4e6c71e3e518c754e7148f65102f43289a7df0efea690610a9f908390613008565b611fdb612447565b6001600160a01b0316611fec611555565b6001600160a01b0316146120125760405162461bcd60e51b8152600401610984906133a5565b60a7805460ff19811660ff9182161517918290556040517f558e3ca434dbb046a1200c25235032a55789c63515e8c78f60495063b75e141f92612056921690613035565b60405180910390a1565b6001600160a01b03918216600090815260346020908152604080832093909416825291909152205490565b60a86020526000908152604090205481565b6000610b4d6001612311565b6120b1612447565b6001600160a01b03166120c2611555565b6001600160a01b0316146120e85760405162461bcd60e51b8152600401610984906133a5565b60a68190556040517fc65034639393df19db82d446a340e906a7fb768ad7c3c3b945879ed70f1ae42790610a9f9083906136bd565b612125612447565b6001600160a01b0316612136611555565b6001600160a01b03161461215c5760405162461bcd60e51b8152600401610984906133a5565b6001600160a01b0381166121825760405162461bcd60e51b8152600401610984906130b6565b6065546040516001600160a01b038084169216907f8be0079c531659141344cd1fd0a4f28419497f9722a3daafe3b4186f6b6457e090600090a3606580546001600160a01b0319166001600160a01b0392909216919091179055565b6000806121e9610a25565b905060006121f5611deb565b9050600061221764e8d4a5100061078c609e54866122a590919063ffffffff16565b9050808211156122355761222b828261227d565b93505050506108ac565b600093505050506108ac565b60008061224c610a25565b90506000612258611deb565b9050600061226f8361078c8464e8d4a510006122a5565b935050505090565b609e5481565b60008282111561229f5760405162461bcd60e51b815260040161098490613264565b50900390565b6000826122b4575060006109ed565b828202828482816122c157fe5b0414610b2b5760405162461bcd60e51b815260040161098490613364565b60008082116123005760405162461bcd60e51b8152600401610984906132df565b81838161230957fe5b049392505050565b60008061231c610ffe565b905060008084600181111561232d57fe5b14156123c557609b54609f54604051633ddac95360e01b81526001600160a01b0392831692633ddac9539261236e9291169064e8d4a510009060040161301c565b60206040518083038186803b15801561238657600080fd5b505afa15801561239a573d6000803e3d6000fd5b505050506040513d601f19601f820116820180604052508101906123be9190612fd4565b905061242c565b60018460018111156123d357fe5b141561241457609c54609f54604051633ddac95360e01b81526001600160a01b0392831692633ddac9539261236e9291169064e8d4a510009060040161301c565b60405162461bcd60e51b815260040161098490613628565b61243f8161078c8464e8d4a510006122a5565b949350505050565b3390565b6001600160a01b0383166124715760405162461bcd60e51b8152600401610984906134ba565b6001600160a01b0382166124975760405162461bcd60e51b8152600401610984906130fc565b6001600160a01b0380841660008181526034602090815260408083209487168084529490915290819020849055517f8c5be1e5ebec7d5bd14f71427d1e84f3dd0314c0f7b2291e5b200ac8c7c3b925906124f29085906136bd565b60405180910390a3505050565b6001600160a01b0383166125255760405162461bcd60e51b815260040161098490613475565b6001600160a01b03821661254b5760405162461bcd60e51b815260040161098490613073565b612556838383611541565b61259381604051806060016040528060268152602001613738602691396001600160a01b0386166000908152603360205260409020549190612614565b6001600160a01b0380851660009081526033602052604080822093909355908416815220546125c29082612696565b6001600160a01b0380841660008181526033602052604090819020939093559151908516907fddf252ad1be2c89b69c2b068fc378daa952ba7f163c4a11628f55a4df523b3ef906124f29085906136bd565b600081848411156126385760405162461bcd60e51b81526004016109849190613040565b505050900390565b6115418363a9059cbb60e01b848460405160240161265f92919061301c565b60408051601f198184030181529190526020810180516001600160e01b03166001600160e01b03199093169290921790915261297f565b600082820183811015610b2b5760405162461bcd60e51b81526004016109849061313e565b6001600160a01b0382166126e15760405162461bcd60e51b815260040161098490613407565b6126ed82600083611541565b61272a81604051806060016040528060228152602001613716602291396001600160a01b0385166000908152603360205260409020549190612614565b6001600160a01b038316600090815260336020526040902055603554612750908261227d565b6035556040516000906001600160a01b038416907fddf252ad1be2c89b69c2b068fc378daa952ba7f163c4a11628f55a4df523b3ef906119e39085906136bd565b600061279c30612a0e565b15905090565b600054610100900460ff16806127bb57506127bb612791565b806127c9575060005460ff16155b6127e55760405162461bcd60e51b815260040161098490613316565b600054610100900460ff16158015612810576000805460ff1961ff0019909116610100171660011790555b612818612a14565b6128228383612a95565b8015611541576000805461ff0019169055505050565b600054610100900460ff16806128515750612851612791565b8061285f575060005460ff16155b61287b5760405162461bcd60e51b815260040161098490613316565b600054610100900460ff161580156128a6576000805460ff1961ff0019909116610100171660011790555b6128ae612a14565b6128b6612b4e565b80156128c8576000805461ff00191690555b50565b6001600160a01b0382166128f15760405162461bcd60e51b815260040161098490613686565b6128fd60008383611541565b60355461290a9082612696565b6035556001600160a01b0382166000908152603360205260409020546129309082612696565b6001600160a01b0383166000818152603360205260408082209390935591519091907fddf252ad1be2c89b69c2b068fc378daa952ba7f163c4a11628f55a4df523b3ef906119e39085906136bd565b60606129d4826040518060400160405280602081526020017f5361666545524332303a206c6f772d6c6576656c2063616c6c206661696c6564815250856001600160a01b0316612c289092919063ffffffff16565b80519091501561154157808060200190518101906129f29190612eec565b6115415760405162461bcd60e51b8152600401610984906135de565b3b151590565b600054610100900460ff1680612a2d5750612a2d612791565b80612a3b575060005460ff16155b612a575760405162461bcd60e51b815260040161098490613316565b600054610100900460ff161580156128b6576000805460ff1961ff00199091166101001716600117905580156128c8576000805461ff001916905550565b600054610100900460ff1680612aae5750612aae612791565b80612abc575060005460ff16155b612ad85760405162461bcd60e51b815260040161098490613316565b600054610100900460ff16158015612b03576000805460ff1961ff0019909116610100171660011790555b8251612b16906036906020860190612d0b565b508151612b2a906037906020850190612d0b565b506038805460ff191660121790558015611541576000805461ff0019169055505050565b600054610100900460ff1680612b675750612b67612791565b80612b75575060005460ff16155b612b915760405162461bcd60e51b815260040161098490613316565b600054610100900460ff16158015612bbc576000805460ff1961ff0019909116610100171660011790555b6000612bc6612447565b606580546001600160a01b0319166001600160a01b038316908117909155604051919250906000907f8be0079c531659141344cd1fd0a4f28419497f9722a3daafe3b4186f6b6457e0908290a35080156128c8576000805461ff001916905550565b606061243f848460008585612c3c85612a0e565b612c585760405162461bcd60e51b815260040161098490613535565b60006060866001600160a01b03168587604051612c759190612fec565b60006040518083038185875af1925050503d8060008114612cb2576040519150601f19603f3d011682016040523d82523d6000602084013e612cb7565b606091505b5091509150612cc7828286612cd2565b979650505050505050565b60608315612ce1575081610b2b565b825115612cf15782518084602001fd5b8160405162461bcd60e51b81526004016109849190613040565b828054600181600116156101000203166002900490600052602060002090601f016020900481019282601f10612d4c57805160ff1916838001178555612d79565b82800160010185558215612d79579182015b82811115612d79578251825591602001919060010190612d5e565b50612d85929150612d89565b5090565b5b80821115612d855760008155600101612d8a565b80356001600160a01b03811681146109ed57600080fd5b600082601f830112612dc5578081fd5b813567ffffffffffffffff80821115612ddc578283fd5b604051601f8301601f191681016020018281118282101715612dfc578485fd5b604052828152925082848301602001861015612e1757600080fd5b8260208601602083013760006020848301015250505092915050565b600060208284031215612e44578081fd5b610b2b8383612d9e565b60008060408385031215612e60578081fd5b612e6a8484612d9e565b9150612e798460208501612d9e565b90509250929050565b600080600060608486031215612e96578081fd5b8335612ea181613700565b92506020840135612eb181613700565b929592945050506040919091013590565b60008060408385031215612ed4578182fd5b612ede8484612d9e565b946020939093013593505050565b600060208284031215612efd578081fd5b81518015158114610b2b578182fd5b60008060008060008060c08789031215612f24578182fd5b863567ffffffffffffffff80821115612f3b578384fd5b612f478a838b01612db5565b97506020890135915080821115612f5c578384fd5b612f688a838b01612db5565b96506040890135915080821115612f7d578384fd5b50612f8a89828a01612db5565b945050612f9a8860608901612d9e565b9250612fa98860808901612d9e565b915060a087013590509295509295509295565b600060208284031215612fcd578081fd5b5035919050565b600060208284031215612fe5578081fd5b5051919050565b60008251612ffe8184602087016136d4565b9190910192915050565b6001600160a01b0391909116815260200190565b6001600160a01b03929092168252602082015260400190565b901515815260200190565b600060208252825180602084015261305f8160408501602087016136d4565b601f01601f19169190910160400192915050565b60208082526023908201527f45524332303a207472616e7366657220746f20746865207a65726f206164647260408201526265737360e81b606082015260800190565b60208082526026908201527f4f776e61626c653a206e6577206f776e657220697320746865207a65726f206160408201526564647265737360d01b606082015260800190565b60208082526022908201527f45524332303a20617070726f766520746f20746865207a65726f206164647265604082015261737360f01b606082015260800190565b6020808252601b908201527f536166654d6174683a206164646974696f6e206f766572666c6f770000000000604082015260600190565b6020808252600e908201526d09cdee840cadcdeeaced0408488b60931b604082015260600190565b60208082526026908201527f574554482063616e6e6f742062652073657420746f20746865207a65726f206160408201526564647265737360d01b606082015260800190565b6020808252602a908201527f54726561737572792063616e6e6f742062652073657420746f20746865207a65604082015269726f206164647265737360b01b606082015260800190565b6020808252601d908201527f6164647265737320646f65736e277420657869737420616c7265616479000000604082015260600190565b6020808252601e908201527f536166654d6174683a207375627472616374696f6e206f766572666c6f770000604082015260600190565b60208082526024908201527f4f6e6c7920626420706f6f6c732063616e2063616c6c20746869732066756e636040820152633a34b7b760e11b606082015260800190565b6020808252601a908201527f536166654d6174683a206469766973696f6e206279207a65726f000000000000604082015260600190565b6020808252602e908201527f496e697469616c697a61626c653a20636f6e747261637420697320616c72656160408201526d191e481a5b9a5d1a585b1a5e995960921b606082015260800190565b60208082526021908201527f536166654d6174683a206d756c7469706c69636174696f6e206f766572666c6f6040820152607760f81b606082015260800190565b6020808252818101527f4f776e61626c653a2063616c6c6572206973206e6f7420746865206f776e6572604082015260600190565b602080825260139082015272706f6f6c20616c72656164792065786973747360681b604082015260600190565b60208082526021908201527f45524332303a206275726e2066726f6d20746865207a65726f206164647265736040820152607360f81b606082015260800190565b6020808252601390820152721c1bdbdb1cc81b1a5b5a5d081c995858da1959606a1b604082015260600190565b60208082526025908201527f45524332303a207472616e736665722066726f6d20746865207a65726f206164604082015264647265737360d81b606082015260800190565b60208082526024908201527f45524332303a20617070726f76652066726f6d20746865207a65726f206164646040820152637265737360e01b606082015260800190565b6020808252601f908201527f596f7520617265206e6f7420746865206f776e6572206f72206120706f6f6c00604082015260600190565b6020808252601d908201527f416464726573733a2063616c6c20746f206e6f6e2d636f6e7472616374000000604082015260600190565b60208082526028908201527f4f7261636c652063616e6e6f742062652073657420746f20746865207a65726f604082015267206164647265737360c01b606082015260800190565b60208082526010908201526f21a91036bab9ba103132901e181d989f60811b604082015260600190565b6020808252602a908201527f5361666545524332303a204552433230206f7065726174696f6e20646964206e6040820152691bdd081cdd58d8d9595960b21b606082015260800190565b602080825260409082018190527f494e56414c49442050524943452043484f4943452e204e6565647320746f2062908201527f6520656974686572203020284244535441424c4529206f722031202842445829606082015260800190565b6020808252601f908201527f45524332303a206d696e7420746f20746865207a65726f206164647265737300604082015260600190565b90815260200190565b60ff91909116815260200190565b60005b838110156136ef5781810151838201526020016136d7565b838111156113805750506000910152565b6001600160a01b03811681146128c857600080fdfe45524332303a206275726e20616d6f756e7420657863656564732062616c616e636545524332303a207472616e7366657220616d6f756e7420657863656564732062616c616e636545524332303a207472616e7366657220616d6f756e74206578636565647320616c6c6f77616e636545524332303a206275726e20616d6f756e74206578636565647320616c6c6f77616e636545524332303a2064656372656173656420616c6c6f77616e63652062656c6f77207a65726fa26469706673582212207a8c68e7fb02af29068385a15b77881d2e4fbd508d91046008005afb7f428a3e64736f6c634300060c0033",
  "devdoc": {
    "kind": "dev",
    "methods": {
      "allowance(address,address)": {
        "details": "See {IERC20-allowance}."
      },
      "approve(address,uint256)": {
        "details": "See {IERC20-approve}. Requirements: - `spender` cannot be the zero address."
      },
      "balanceOf(address)": {
        "details": "See {IERC20-balanceOf}."
      },
      "decimals()": {
        "details": "Returns the number of decimals used to get its user representation. For example, if `decimals` equals `2`, a balance of `505` tokens should be displayed to a user as `5,05` (`505 / 10 ** 2`). Tokens usually opt for a value of 18, imitating the relationship between Ether and Wei. This is the value {ERC20} uses, unless {_setupDecimals} is called. NOTE: This information is only used for _display_ purposes: it in no way affects any of the arithmetic of the contract, including {IERC20-balanceOf} and {IERC20-transfer}."
      },
      "decreaseAllowance(address,uint256)": {
        "details": "Atomically decreases the allowance granted to `spender` by the caller. This is an alternative to {approve} that can be used as a mitigation for problems described in {IERC20-approve}. Emits an {Approval} event indicating the updated allowance. Requirements: - `spender` cannot be the zero address. - `spender` must have allowance for the caller of at least `subtractedValue`."
      },
      "increaseAllowance(address,uint256)": {
        "details": "Atomically increases the allowance granted to `spender` by the caller. This is an alternative to {approve} that can be used as a mitigation for problems described in {IERC20-approve}. Emits an {Approval} event indicating the updated allowance. Requirements: - `spender` cannot be the zero address."
      },
      "name()": {
        "details": "Returns the name of the token."
      },
      "owner()": {
        "details": "Returns the address of the current owner."
      },
      "renounceOwnership()": {
        "details": "Leaves the contract without owner. It will not be possible to call `onlyOwner` functions anymore. Can only be called by the current owner. NOTE: Renouncing ownership will leave the contract without an owner, thereby removing any functionality that is only available to the owner."
      },
      "symbol()": {
        "details": "Returns the symbol of the token, usually a shorter version of the name."
      },
      "totalSupply()": {
        "details": "See {IERC20-totalSupply}."
      },
      "transfer(address,uint256)": {
        "details": "See {IERC20-transfer}. Requirements: - `recipient` cannot be the zero address. - the caller must have a balance of at least `amount`."
      },
      "transferFrom(address,address,uint256)": {
        "details": "See {IERC20-transferFrom}. Emits an {Approval} event indicating the updated allowance. This is not required by the EIP. See the note at the beginning of {ERC20}. Requirements: - `sender` and `recipient` cannot be the zero address. - `sender` must have a balance of at least `amount`. - the caller must have allowance for ``sender``'s tokens of at least `amount`."
      },
      "transferOwnership(address)": {
        "details": "Transfers ownership of the contract to a new account (`newOwner`). Can only be called by the current owner."
      }
    },
    "version": 1
  },
  "userdoc": {
    "kind": "user",
    "methods": {},
    "version": 1
  },
  "storageLayout": {
    "storage": [
      {
        "astId": 492,
        "contract": "contracts/BdStable/BDStable.sol:BDStable",
        "label": "_initialized",
        "offset": 0,
        "slot": "0",
        "type": "t_bool"
      },
      {
        "astId": 495,
        "contract": "contracts/BdStable/BDStable.sol:BDStable",
        "label": "_initializing",
        "offset": 1,
        "slot": "0",
        "type": "t_bool"
      },
      {
        "astId": 1660,
        "contract": "contracts/BdStable/BDStable.sol:BDStable",
        "label": "__gap",
        "offset": 0,
        "slot": "1",
        "type": "t_array(t_uint256)50_storage"
      },
      {
        "astId": 571,
        "contract": "contracts/BdStable/BDStable.sol:BDStable",
        "label": "_balances",
        "offset": 0,
        "slot": "51",
        "type": "t_mapping(t_address,t_uint256)"
      },
      {
        "astId": 577,
        "contract": "contracts/BdStable/BDStable.sol:BDStable",
        "label": "_allowances",
        "offset": 0,
        "slot": "52",
        "type": "t_mapping(t_address,t_mapping(t_address,t_uint256))"
      },
      {
        "astId": 579,
        "contract": "contracts/BdStable/BDStable.sol:BDStable",
        "label": "_totalSupply",
        "offset": 0,
        "slot": "53",
        "type": "t_uint256"
      },
      {
        "astId": 581,
        "contract": "contracts/BdStable/BDStable.sol:BDStable",
        "label": "_name",
        "offset": 0,
        "slot": "54",
        "type": "t_string_storage"
      },
      {
        "astId": 583,
        "contract": "contracts/BdStable/BDStable.sol:BDStable",
        "label": "_symbol",
        "offset": 0,
        "slot": "55",
        "type": "t_string_storage"
      },
      {
        "astId": 585,
        "contract": "contracts/BdStable/BDStable.sol:BDStable",
        "label": "_decimals",
        "offset": 0,
        "slot": "56",
        "type": "t_uint8"
      },
      {
        "astId": 1080,
        "contract": "contracts/BdStable/BDStable.sol:BDStable",
        "label": "__gap",
        "offset": 0,
        "slot": "57",
        "type": "t_array(t_uint256)44_storage"
      },
      {
        "astId": 10,
        "contract": "contracts/BdStable/BDStable.sol:BDStable",
        "label": "_owner",
        "offset": 0,
        "slot": "101",
        "type": "t_address"
      },
      {
        "astId": 129,
        "contract": "contracts/BdStable/BDStable.sol:BDStable",
        "label": "__gap",
        "offset": 0,
        "slot": "102",
        "type": "t_array(t_uint256)49_storage"
      },
      {
        "astId": 5123,
        "contract": "contracts/BdStable/BDStable.sol:BDStable",
        "label": "unclaimedPoolsBDX",
        "offset": 0,
        "slot": "151",
        "type": "t_uint256"
      },
      {
        "astId": 5125,
        "contract": "contracts/BdStable/BDStable.sol:BDStable",
        "label": "fiat",
        "offset": 0,
        "slot": "152",
        "type": "t_string_storage"
      },
      {
        "astId": 5127,
        "contract": "contracts/BdStable/BDStable.sol:BDStable",
        "label": "treasury_address",
        "offset": 0,
        "slot": "153",
        "type": "t_address"
      },
      {
        "astId": 5129,
        "contract": "contracts/BdStable/BDStable.sol:BDStable",
        "label": "BDX",
        "offset": 0,
        "slot": "154",
        "type": "t_contract(IERC20)2820"
      },
      {
        "astId": 5131,
        "contract": "contracts/BdStable/BDStable.sol:BDStable",
        "label": "bdstableWethOracle",
        "offset": 0,
        "slot": "155",
        "type": "t_contract(ICryptoPairOracle)9269"
      },
      {
        "astId": 5133,
        "contract": "contracts/BdStable/BDStable.sol:BDStable",
        "label": "bdxWethOracle",
        "offset": 0,
        "slot": "156",
        "type": "t_contract(ICryptoPairOracle)9269"
      },
      {
        "astId": 5135,
        "contract": "contracts/BdStable/BDStable.sol:BDStable",
        "label": "weth_fiat_pricer",
        "offset": 0,
        "slot": "157",
        "type": "t_contract(IOracleBasedCryptoFiatFeed)9282"
      },
      {
        "astId": 5137,
        "contract": "contracts/BdStable/BDStable.sol:BDStable",
        "label": "global_collateral_ratio_d12",
        "offset": 0,
        "slot": "158",
        "type": "t_uint256"
      },
      {
        "astId": 5139,
        "contract": "contracts/BdStable/BDStable.sol:BDStable",
        "label": "weth_address",
        "offset": 0,
        "slot": "159",
        "type": "t_address"
      },
      {
        "astId": 5142,
        "contract": "contracts/BdStable/BDStable.sol:BDStable",
        "label": "bdstable_pools_array",
        "offset": 0,
        "slot": "160",
        "type": "t_array(t_address_payable)dyn_storage"
      },
      {
        "astId": 5146,
        "contract": "contracts/BdStable/BDStable.sol:BDStable",
        "label": "bdstable_pools",
        "offset": 0,
        "slot": "161",
        "type": "t_mapping(t_address,t_bool)"
      },
      {
        "astId": 5148,
        "contract": "contracts/BdStable/BDStable.sol:BDStable",
        "label": "bdStable_step_d12",
        "offset": 0,
        "slot": "162",
        "type": "t_uint256"
      },
      {
        "astId": 5150,
        "contract": "contracts/BdStable/BDStable.sol:BDStable",
        "label": "refresh_cooldown",
        "offset": 0,
        "slot": "163",
        "type": "t_uint256"
      },
      {
        "astId": 5152,
        "contract": "contracts/BdStable/BDStable.sol:BDStable",
        "label": "price_target_d12",
        "offset": 0,
        "slot": "164",
        "type": "t_uint256"
      },
      {
        "astId": 5154,
        "contract": "contracts/BdStable/BDStable.sol:BDStable",
        "label": "price_band_d12",
        "offset": 0,
        "slot": "165",
        "type": "t_uint256"
      },
      {
        "astId": 5157,
        "contract": "contracts/BdStable/BDStable.sol:BDStable",
        "label": "minimumMintRedeemDelayInBlocks",
        "offset": 0,
        "slot": "166",
        "type": "t_uint256"
      },
      {
        "astId": 5159,
        "contract": "contracts/BdStable/BDStable.sol:BDStable",
        "label": "collateral_ratio_paused",
        "offset": 0,
        "slot": "167",
        "type": "t_bool"
      },
      {
        "astId": 5163,
        "contract": "contracts/BdStable/BDStable.sol:BDStable",
        "label": "lastMintByUserBlock",
        "offset": 0,
        "slot": "168",
        "type": "t_mapping(t_address,t_uint256)"
      },
      {
        "astId": 5165,
        "contract": "contracts/BdStable/BDStable.sol:BDStable",
        "label": "refreshCollateralRatio_last_call_time",
        "offset": 0,
        "slot": "169",
        "type": "t_uint256"
      }
    ],
    "types": {
      "t_address": {
        "encoding": "inplace",
        "label": "address",
        "numberOfBytes": "20"
      },
      "t_address_payable": {
        "encoding": "inplace",
        "label": "address payable",
        "numberOfBytes": "20"
      },
      "t_array(t_address_payable)dyn_storage": {
        "base": "t_address_payable",
        "encoding": "dynamic_array",
        "label": "address payable[]",
        "numberOfBytes": "32"
      },
      "t_array(t_uint256)44_storage": {
        "base": "t_uint256",
        "encoding": "inplace",
        "label": "uint256[44]",
        "numberOfBytes": "1408"
      },
      "t_array(t_uint256)49_storage": {
        "base": "t_uint256",
        "encoding": "inplace",
        "label": "uint256[49]",
        "numberOfBytes": "1568"
      },
      "t_array(t_uint256)50_storage": {
        "base": "t_uint256",
        "encoding": "inplace",
        "label": "uint256[50]",
        "numberOfBytes": "1600"
      },
      "t_bool": {
        "encoding": "inplace",
        "label": "bool",
        "numberOfBytes": "1"
      },
      "t_contract(ICryptoPairOracle)9269": {
        "encoding": "inplace",
        "label": "contract ICryptoPairOracle",
        "numberOfBytes": "20"
      },
      "t_contract(IERC20)2820": {
        "encoding": "inplace",
        "label": "contract IERC20",
        "numberOfBytes": "20"
      },
      "t_contract(IOracleBasedCryptoFiatFeed)9282": {
        "encoding": "inplace",
        "label": "contract IOracleBasedCryptoFiatFeed",
        "numberOfBytes": "20"
      },
      "t_mapping(t_address,t_bool)": {
        "encoding": "mapping",
        "key": "t_address",
        "label": "mapping(address => bool)",
        "numberOfBytes": "32",
        "value": "t_bool"
      },
      "t_mapping(t_address,t_mapping(t_address,t_uint256))": {
        "encoding": "mapping",
        "key": "t_address",
        "label": "mapping(address => mapping(address => uint256))",
        "numberOfBytes": "32",
        "value": "t_mapping(t_address,t_uint256)"
      },
      "t_mapping(t_address,t_uint256)": {
        "encoding": "mapping",
        "key": "t_address",
        "label": "mapping(address => uint256)",
        "numberOfBytes": "32",
        "value": "t_uint256"
      },
      "t_string_storage": {
        "encoding": "bytes",
        "label": "string",
        "numberOfBytes": "32"
      },
      "t_uint256": {
        "encoding": "inplace",
        "label": "uint256",
        "numberOfBytes": "32"
      },
      "t_uint8": {
        "encoding": "inplace",
        "label": "uint8",
        "numberOfBytes": "1"
      }
    }
  }
}