{
  "address": "0xC55162d08Bdc31325084AcC7BDDCE47222a018B9",
  "abi": [
    {
      "anonymous": false,
      "inputs": [
        {
          "indexed": true,
          "internalType": "uint256",
          "name": "bdx_amount_paid",
          "type": "uint256"
        },
        {
          "indexed": true,
          "internalType": "uint256",
          "name": "collateral_paid_back",
          "type": "uint256"
        }
      ],
      "name": "BoughtBack",
      "type": "event"
    },
    {
      "anonymous": false,
      "inputs": [
        {
          "indexed": false,
          "internalType": "bool",
          "name": "buybackOnlyForOwner",
          "type": "bool"
        }
      ],
      "name": "BuybackOnlyForOwnerToggled",
      "type": "event"
    },
    {
      "anonymous": false,
      "inputs": [
        {
          "indexed": false,
          "internalType": "bool",
          "name": "toggled",
          "type": "bool"
        }
      ],
      "name": "BuybackPausedToggled",
      "type": "event"
    },
    {
      "anonymous": false,
      "inputs": [
        {
          "indexed": false,
          "internalType": "bool",
          "name": "toggled",
          "type": "bool"
        }
      ],
      "name": "CollateralPriceToggled",
      "type": "event"
    },
    {
      "anonymous": false,
      "inputs": [
        {
          "indexed": true,
          "internalType": "address",
          "name": "collateral_weth_oracle_address",
          "type": "address"
        },
        {
          "indexed": true,
          "internalType": "address",
          "name": "weth_address",
          "type": "address"
        }
      ],
      "name": "CollateralWethOracleSet",
      "type": "event"
    },
    {
      "anonymous": false,
      "inputs": [
        {
          "indexed": false,
          "internalType": "bool",
          "name": "toggled",
          "type": "bool"
        }
      ],
      "name": "MintingPausedToggled",
      "type": "event"
    },
    {
      "anonymous": false,
      "inputs": [
        {
          "indexed": true,
          "internalType": "address",
          "name": "newOwner",
          "type": "address"
        }
      ],
      "name": "OwnerSet",
      "type": "event"
    },
    {
      "anonymous": false,
      "inputs": [
        {
          "indexed": false,
          "internalType": "uint256",
          "name": "new_ceiling",
          "type": "uint256"
        },
        {
          "indexed": false,
          "internalType": "uint256",
          "name": "new_bonus_rate",
          "type": "uint256"
        },
        {
          "indexed": false,
          "internalType": "uint256",
          "name": "new_redemption_delay",
          "type": "uint256"
        },
        {
          "indexed": false,
          "internalType": "uint256",
          "name": "new_mint_fee",
          "type": "uint256"
        },
        {
          "indexed": false,
          "internalType": "uint256",
          "name": "new_redeem_fee",
          "type": "uint256"
        },
        {
          "indexed": false,
          "internalType": "uint256",
          "name": "new_buyback_fee",
          "type": "uint256"
        },
        {
          "indexed": false,
          "internalType": "uint256",
          "name": "new_recollat_fee",
          "type": "uint256"
        }
      ],
      "name": "PoolParametersSet",
      "type": "event"
    },
    {
      "anonymous": false,
      "inputs": [
        {
          "indexed": false,
          "internalType": "bool",
          "name": "recollateralizeOnlyForOwner",
          "type": "bool"
        }
      ],
      "name": "RecollateralizeOnlyForOwnerToggled",
      "type": "event"
    },
    {
      "anonymous": false,
      "inputs": [
        {
          "indexed": false,
          "internalType": "bool",
          "name": "toggled",
          "type": "bool"
        }
      ],
      "name": "RecollateralizePausedToggled",
      "type": "event"
    },
    {
      "anonymous": false,
      "inputs": [
        {
          "indexed": true,
          "internalType": "uint256",
          "name": "collateral_amount_paid",
          "type": "uint256"
        },
        {
          "indexed": true,
          "internalType": "uint256",
          "name": "bdx_paid_back",
          "type": "uint256"
        }
      ],
      "name": "Recollateralized",
      "type": "event"
    },
    {
      "anonymous": false,
      "inputs": [
        {
          "indexed": false,
          "internalType": "bool",
          "name": "toggled",
          "type": "bool"
        }
      ],
      "name": "RedeemingPausedToggled",
      "type": "event"
    },
    {
      "inputs": [],
      "name": "availableExcessCollatDV",
      "outputs": [
        {
          "internalType": "uint256",
          "name": "",
          "type": "uint256"
        }
      ],
      "stateMutability": "view",
      "type": "function"
    },
    {
      "inputs": [],
      "name": "bonus_rate",
      "outputs": [
        {
          "internalType": "uint256",
          "name": "",
          "type": "uint256"
        }
      ],
      "stateMutability": "view",
      "type": "function"
    },
    {
      "inputs": [
        {
          "internalType": "uint256",
          "name": "BDX_amount",
          "type": "uint256"
        },
        {
          "internalType": "uint256",
          "name": "COLLATERAL_out_min",
          "type": "uint256"
        }
      ],
      "name": "buyBackBDX",
      "outputs": [],
      "stateMutability": "nonpayable",
      "type": "function"
    },
    {
      "inputs": [],
      "name": "buyBackPaused",
      "outputs": [
        {
          "internalType": "bool",
          "name": "",
          "type": "bool"
        }
      ],
      "stateMutability": "view",
      "type": "function"
    },
    {
      "inputs": [],
      "name": "buybackOnlyForOwner",
      "outputs": [
        {
          "internalType": "bool",
          "name": "",
          "type": "bool"
        }
      ],
      "stateMutability": "view",
      "type": "function"
    },
    {
      "inputs": [],
      "name": "buyback_fee",
      "outputs": [
        {
          "internalType": "uint256",
          "name": "",
          "type": "uint256"
        }
      ],
      "stateMutability": "view",
      "type": "function"
    },
    {
      "inputs": [],
      "name": "collatFiatBalance",
      "outputs": [
        {
          "internalType": "uint256",
          "name": "",
          "type": "uint256"
        }
      ],
      "stateMutability": "view",
      "type": "function"
    },
    {
      "inputs": [],
      "name": "collateralPricePaused",
      "outputs": [
        {
          "internalType": "bool",
          "name": "",
          "type": "bool"
        }
      ],
      "stateMutability": "view",
      "type": "function"
    },
    {
      "inputs": [],
      "name": "collateral_address",
      "outputs": [
        {
          "internalType": "address",
          "name": "",
          "type": "address"
        }
      ],
      "stateMutability": "view",
      "type": "function"
    },
    {
      "inputs": [],
      "name": "collectRedemption",
      "outputs": [],
      "stateMutability": "nonpayable",
      "type": "function"
    },
    {
      "inputs": [],
      "name": "getCollateralPrice_d12",
      "outputs": [
        {
          "internalType": "uint256",
          "name": "",
          "type": "uint256"
        }
      ],
      "stateMutability": "view",
      "type": "function"
    },
    {
      "inputs": [
        {
          "internalType": "uint256",
          "name": "_watned_amount_d18",
          "type": "uint256"
        }
      ],
      "name": "howMuchBdxCanBeMinted",
      "outputs": [
        {
          "internalType": "uint256",
          "name": "",
          "type": "uint256"
        }
      ],
      "stateMutability": "view",
      "type": "function"
    },
    {
      "inputs": [
        {
          "internalType": "address",
          "name": "_bdstable_contract_address",
          "type": "address"
        },
        {
          "internalType": "address",
          "name": "_bdx_contract_address",
          "type": "address"
        },
        {
          "internalType": "address",
          "name": "_collateral_address",
          "type": "address"
        },
        {
          "internalType": "address",
          "name": "_creator_address",
          "type": "address"
        }
      ],
      "name": "initialize",
      "outputs": [],
      "stateMutability": "nonpayable",
      "type": "function"
    },
    {
      "inputs": [
        {
          "internalType": "address",
          "name": "",
          "type": "address"
        }
      ],
      "name": "lastRedeemed",
      "outputs": [
        {
          "internalType": "uint256",
          "name": "",
          "type": "uint256"
        }
      ],
      "stateMutability": "view",
      "type": "function"
    },
    {
      "inputs": [
        {
          "internalType": "uint256",
          "name": "collateral_amount",
          "type": "uint256"
        },
        {
          "internalType": "uint256",
          "name": "BD_out_min",
          "type": "uint256"
        }
      ],
      "name": "mint1t1BD",
      "outputs": [],
      "stateMutability": "nonpayable",
      "type": "function"
    },
    {
      "inputs": [
        {
          "internalType": "uint256",
          "name": "bdx_amount_d18",
          "type": "uint256"
        },
        {
          "internalType": "uint256",
          "name": "bdStable_out_min",
          "type": "uint256"
        }
      ],
      "name": "mintAlgorithmicBdStable",
      "outputs": [],
      "stateMutability": "nonpayable",
      "type": "function"
    },
    {
      "inputs": [
        {
          "internalType": "uint256",
          "name": "collateral_amount",
          "type": "uint256"
        },
        {
          "internalType": "uint256",
          "name": "bdx_in_max",
          "type": "uint256"
        },
        {
          "internalType": "uint256",
          "name": "bdStable_out_min",
          "type": "uint256"
        }
      ],
      "name": "mintFractionalBdStable",
      "outputs": [],
      "stateMutability": "nonpayable",
      "type": "function"
    },
    {
      "inputs": [],
      "name": "mintPaused",
      "outputs": [
        {
          "internalType": "bool",
          "name": "",
          "type": "bool"
        }
      ],
      "stateMutability": "view",
      "type": "function"
    },
    {
      "inputs": [],
      "name": "minting_fee",
      "outputs": [
        {
          "internalType": "uint256",
          "name": "",
          "type": "uint256"
        }
      ],
      "stateMutability": "view",
      "type": "function"
    },
    {
      "inputs": [],
      "name": "owner_address",
      "outputs": [
        {
          "internalType": "address",
          "name": "",
          "type": "address"
        }
      ],
      "stateMutability": "view",
      "type": "function"
    },
    {
      "inputs": [],
      "name": "pausedPrice",
      "outputs": [
        {
          "internalType": "uint256",
          "name": "",
          "type": "uint256"
        }
      ],
      "stateMutability": "view",
      "type": "function"
    },
    {
      "inputs": [],
      "name": "pool_ceiling",
      "outputs": [
        {
          "internalType": "uint256",
          "name": "",
          "type": "uint256"
        }
      ],
      "stateMutability": "view",
      "type": "function"
    },
    {
      "inputs": [],
      "name": "recollat_fee",
      "outputs": [
        {
          "internalType": "uint256",
          "name": "",
          "type": "uint256"
        }
      ],
      "stateMutability": "view",
      "type": "function"
    },
    {
      "inputs": [
        {
          "internalType": "uint256",
          "name": "collateral_amount",
          "type": "uint256"
        },
        {
          "internalType": "uint256",
          "name": "BDX_out_min",
          "type": "uint256"
        }
      ],
      "name": "recollateralizeBdStable",
      "outputs": [],
      "stateMutability": "nonpayable",
      "type": "function"
    },
    {
      "inputs": [],
      "name": "recollateralizeOnlyForOwner",
      "outputs": [
        {
          "internalType": "bool",
          "name": "",
          "type": "bool"
        }
      ],
      "stateMutability": "view",
      "type": "function"
    },
    {
      "inputs": [],
      "name": "recollateralizePaused",
      "outputs": [
        {
          "internalType": "bool",
          "name": "",
          "type": "bool"
        }
      ],
      "stateMutability": "view",
      "type": "function"
    },
    {
      "inputs": [
        {
          "internalType": "uint256",
          "name": "BD_amount",
          "type": "uint256"
        },
        {
          "internalType": "uint256",
          "name": "COLLATERAL_out_min",
          "type": "uint256"
        }
      ],
      "name": "redeem1t1BD",
      "outputs": [],
      "stateMutability": "nonpayable",
      "type": "function"
    },
    {
      "inputs": [
        {
          "internalType": "uint256",
          "name": "bdStable_amount",
          "type": "uint256"
        },
        {
          "internalType": "uint256",
          "name": "bdx_out_min",
          "type": "uint256"
        }
      ],
      "name": "redeemAlgorithmicBdStable",
      "outputs": [],
      "stateMutability": "nonpayable",
      "type": "function"
    },
    {
      "inputs": [
        {
          "internalType": "address",
          "name": "",
          "type": "address"
        }
      ],
      "name": "redeemBDXBalances",
      "outputs": [
        {
          "internalType": "uint256",
          "name": "",
          "type": "uint256"
        }
      ],
      "stateMutability": "view",
      "type": "function"
    },
    {
      "inputs": [
        {
          "internalType": "address",
          "name": "",
          "type": "address"
        }
      ],
      "name": "redeemCollateralBalances",
      "outputs": [
        {
          "internalType": "uint256",
          "name": "",
          "type": "uint256"
        }
      ],
      "stateMutability": "view",
      "type": "function"
    },
    {
      "inputs": [
        {
          "internalType": "uint256",
          "name": "BdStable_amount",
          "type": "uint256"
        },
        {
          "internalType": "uint256",
          "name": "BDX_out_min",
          "type": "uint256"
        },
        {
          "internalType": "uint256",
          "name": "COLLATERAL_out_min",
          "type": "uint256"
        }
      ],
      "name": "redeemFractionalBdStable",
      "outputs": [],
      "stateMutability": "nonpayable",
      "type": "function"
    },
    {
      "inputs": [],
      "name": "redeemPaused",
      "outputs": [
        {
          "internalType": "bool",
          "name": "",
          "type": "bool"
        }
      ],
      "stateMutability": "view",
      "type": "function"
    },
    {
      "inputs": [],
      "name": "redemption_delay",
      "outputs": [
        {
          "internalType": "uint256",
          "name": "",
          "type": "uint256"
        }
      ],
      "stateMutability": "view",
      "type": "function"
    },
    {
      "inputs": [],
      "name": "redemption_fee",
      "outputs": [
        {
          "internalType": "uint256",
          "name": "",
          "type": "uint256"
        }
      ],
      "stateMutability": "view",
      "type": "function"
    },
    {
      "inputs": [
        {
          "internalType": "address",
          "name": "_collateral_weth_oracle_address",
          "type": "address"
        },
        {
          "internalType": "address",
          "name": "_weth_address",
          "type": "address"
        }
      ],
      "name": "setCollatWETHOracle",
      "outputs": [],
      "stateMutability": "nonpayable",
      "type": "function"
    },
    {
      "inputs": [
        {
          "internalType": "address",
          "name": "_owner_address",
          "type": "address"
        }
      ],
      "name": "setOwner",
      "outputs": [],
      "stateMutability": "nonpayable",
      "type": "function"
    },
    {
      "inputs": [
        {
          "internalType": "uint256",
          "name": "new_ceiling",
          "type": "uint256"
        },
        {
          "internalType": "uint256",
          "name": "new_bonus_rate",
          "type": "uint256"
        },
        {
          "internalType": "uint256",
          "name": "new_redemption_delay",
          "type": "uint256"
        },
        {
          "internalType": "uint256",
          "name": "new_mint_fee",
          "type": "uint256"
        },
        {
          "internalType": "uint256",
          "name": "new_redeem_fee",
          "type": "uint256"
        },
        {
          "internalType": "uint256",
          "name": "new_buyback_fee",
          "type": "uint256"
        },
        {
          "internalType": "uint256",
          "name": "new_recollat_fee",
          "type": "uint256"
        }
      ],
      "name": "setPoolParameters",
      "outputs": [],
      "stateMutability": "nonpayable",
      "type": "function"
    },
    {
      "inputs": [],
      "name": "toggleBuybackOnlyForOwner",
      "outputs": [],
      "stateMutability": "nonpayable",
      "type": "function"
    },
    {
      "inputs": [],
      "name": "toggleBuybackPaused",
      "outputs": [],
      "stateMutability": "nonpayable",
      "type": "function"
    },
    {
      "inputs": [
        {
          "internalType": "uint256",
          "name": "_new_price",
          "type": "uint256"
        }
      ],
      "name": "toggleCollateralPricePaused",
      "outputs": [],
      "stateMutability": "nonpayable",
      "type": "function"
    },
    {
      "inputs": [],
      "name": "toggleMintingPaused",
      "outputs": [],
      "stateMutability": "nonpayable",
      "type": "function"
    },
    {
      "inputs": [],
      "name": "toggleRecollateralizeOnlyForOwner",
      "outputs": [],
      "stateMutability": "nonpayable",
      "type": "function"
    },
    {
      "inputs": [],
      "name": "toggleRecollateralizePaused",
      "outputs": [],
      "stateMutability": "nonpayable",
      "type": "function"
    },
    {
      "inputs": [],
      "name": "toggleRedeemingPaused",
      "outputs": [],
      "stateMutability": "nonpayable",
      "type": "function"
    },
    {
      "inputs": [],
      "name": "unclaimedPoolBDX",
      "outputs": [
        {
          "internalType": "uint256",
          "name": "",
          "type": "uint256"
        }
      ],
      "stateMutability": "view",
      "type": "function"
    },
    {
      "inputs": [],
      "name": "unclaimedPoolCollateral",
      "outputs": [
        {
          "internalType": "uint256",
          "name": "",
          "type": "uint256"
        }
      ],
      "stateMutability": "view",
      "type": "function"
    },
    {
      "inputs": [],
      "name": "updateOraclesIfNeeded",
      "outputs": [],
      "stateMutability": "nonpayable",
      "type": "function"
    }
  ],
  "transactionHash": "0x2a0f5ec18b1efc63a1c75de9dbdc931e99f7d3d771ce8a3229fdc993da966f78",
  "args": [],
  "solcInputHash": "43f116f97573b6edbff460d0f2c8b612",
  "bytecode": "0x608060405234801561001057600080fd5b5061476f806100206000396000f3fe608060405234801561001057600080fd5b50600436106102955760003560e01c80637f877f8511610167578063c3355b8d116100ce578063cbf81dba11610087578063cbf81dba146104c4578063deeea838146104cc578063e69d3010146104d4578063f61adab2146104dc578063f8c8765e146104e4578063fede5c9c146104f757610295565b8063c3355b8d14610489578063c39e011f14610491578063c3abe07714610499578063c74ec56a146104a1578063c7afa7cf146104a9578063cb73999f146104bc57610295565b8063abae2c4c11610120578063abae2c4c14610438578063ac2ede7b1461044b578063ac6d7d6b1461045e578063b235d46814610471578063b8d5886314610479578063bbf0ce1d1461048157610295565b80637f877f85146103f25780637fbc9090146103fa57806380edef8e1461040d5780638d2ac7a4146104155780639ccabfb51461041d578063a6e6aa281461042557610295565b80632efca5341161020b57806364fe5de2116101c457806364fe5de2146103b75780636526a12a146103ca5780636c7ff97b146103d25780636d2c5615146103da5780637b0461e9146103e25780637e4831d3146103ea57610295565b80632efca534146103595780633559ca801461036e57806335d8ce6d146103815780634c634934146103945780634ebbe7621461039c5780635f55504c146103af57610295565b806313af40351161025d57806313af4035146102fb578063151284251461030e5780631c309e0a146103165780631d833ca61461031e5780631eaa0e171461033157806326862f9e1461034657610295565b806308a7493d1461029a5780630cecc5d6146102c35780630f4cd912146102d8578063101197c7146102eb57806312ace5a2146102f3575b600080fd5b6102ad6102a8366004613d06565b6104ff565b6040516102ba91906146b7565b60405180910390f35b6102d66102d1366004613e21565b610511565b005b6102ad6102e6366004613df1565b6108b1565b6102ad610955565b6102d661095b565b6102d6610309366004613d06565b610a80565b6102ad610b1a565b6102d6610b20565b6102d661032c366004613e21565b610bb0565b610339610f1a565b6040516102ba9190613f35565b6102d6610354366004613e21565b610f29565b610361611467565b6040516102ba9190613f86565b6102d661037c366004613e21565b611479565b6102d661038f366004613e21565b611968565b6102ad611b91565b6102d66103aa366004613e90565b611b97565b6102d6611c31565b6102d66103c5366004613df1565b611caf565b6102ad611d60565b6102d6611d66565b610361611ebf565b6102ad611ece565b610361611ed4565b610361611edd565b6102d6610408366004613e65565b611eed565b6103396127e0565b6103616127ef565b6102ad612800565b6102d6610433366004613d3e565b6128de565b6102ad610446366004613d06565b612966565b6102d6610459366004613e65565b612978565b6102ad61046c366004613d06565b612d32565b610361612d44565b6102ad612d52565b6102d6612d58565b6102ad612dc6565b6102d6612dcc565b6102d6612e51565b6102ad612ed3565b6102d66104b7366004613e21565b612ed9565b6102ad6133d6565b6102d66133dc565b61036161345c565b6102ad61346c565b6102ad6135c2565b6102d66104f2366004613d76565b6137ae565b6102ad613955565b60096020526000908152604090205481565b600d5460ff161561053d5760405162461bcd60e51b81526004016105349061449e565b60405180910390fd5b610545611d66565b6000600654600a0a83029050600260009054906101000a90046001600160a01b03166001600160a01b0316634013124a6040518163ffffffff1660e01b8152600401600060405180830381600087803b1580156105a157600080fd5b505af11580156105b5573d6000803e3d6000fd5b505050506000600260009054906101000a90046001600160a01b03166001600160a01b031663fadb1b026040518163ffffffff1660e01b815260040160206040518083038186803b15801561060957600080fd5b505afa15801561061d573d6000803e3d6000fd5b505050506040513d601f19601f820116820180604052508101906106419190613e09565b905064e8d4a510008110156106685760405162461bcd60e51b815260040161053490614018565b601254600a546000546040516370a0823160e01b815261071592889261070992620100009091046001600160a01b0316906370a08231906106ad903090600401613f35565b60206040518083038186803b1580156106c557600080fd5b505afa1580156106d9573d6000803e3d6000fd5b505050506040513d601f19601f820116820180604052508101906106fd9190613e09565b9063ffffffff61395b16565b9063ffffffff61398816565b11156107335760405162461bcd60e51b8152600401610534906144f9565b600073845E553e1Aa69A3f2Df27d6D4E6e6F0fbeB6CCcd63ba8b180861075761346c565b856040518363ffffffff1660e01b81526004016107759291906146c0565b60206040518083038186803b15801561078d57600080fd5b505af41580156107a1573d6000803e3d6000fd5b505050506040513d601f19601f820116820180604052508101906107c59190613e09565b905061080664e8d4a510006107fa6107ed600e5464e8d4a5100061395b90919063ffffffff16565b849063ffffffff6139b416565b9063ffffffff6139ee16565b9050808411156108285760405162461bcd60e51b8152600401610534906144c9565b600054610846906201000090046001600160a01b0316333088613a20565b600254604051635a7ab59360e11b81526001600160a01b039091169063b4f56b26906108789033908590600401613f49565b600060405180830381600087803b15801561089257600080fd5b505af11580156108a6573d6000803e3d6000fd5b505050505050505050565b600080600160009054906101000a90046001600160a01b03166001600160a01b0316631dbb32906040518163ffffffff1660e01b815260040160206040518083038186803b15801561090257600080fd5b505afa158015610916573d6000803e3d6000fd5b505050506040513d601f19601f8201168201806040525081019061093a9190613e09565b90508281111561094d5782915050610950565b90505b919050565b60105481565b601554336000908152600c60205260409020544391610980919063ffffffff61398816565b111561099e5760405162461bcd60e51b8152600401610534906141ae565b33600090815260086020526040812054819081908190156109eb573360009081526008602052604081208054919055600b549092506109e3908363ffffffff61395b16565b600b55600193505b3360009081526009602052604090205415610a3057503360009081526009602052604081208054919055600a54610a28908263ffffffff61395b16565b600a55600192505b60018415151415610a5257600154610a52906001600160a01b03163384613b09565b60018315151415610a7a57600054610a7a906201000090046001600160a01b03163383613b09565b50505050565b6005546001600160a01b03163314610aaa5760405162461bcd60e51b815260040161053490614216565b6001600160a01b038116610ad05760405162461bcd60e51b8152600401610534906145e7565b600580546001600160a01b0319166001600160a01b0383169081179091556040517f50146d0e3c60aa1d17a70635b05494f864e86144a2201275021014fbf08bafe290600090a250565b60155481565b6005546001600160a01b03163314610b4a5760405162461bcd60e51b815260040161053490614216565b600d805460ff65010000000000808304821615810265ff00000000001990931692909217928390556040517f5500d28fd6f79ee96ffff9ce2f45833d5913c84f586b8a537b6c6f25df0312a393610ba693900490911690613f86565b60405180910390a1565b600d5460ff1615610bd35760405162461bcd60e51b81526004016105349061449e565b610bdb611d66565b600260009054906101000a90046001600160a01b03166001600160a01b0316634013124a6040518163ffffffff1660e01b8152600401600060405180830381600087803b158015610c2b57600080fd5b505af1158015610c3f573d6000803e3d6000fd5b505050506000600260009054906101000a90046001600160a01b03166001600160a01b031663ed99250c6040518163ffffffff1660e01b815260040160206040518083038186803b158015610c9357600080fd5b505afa158015610ca7573d6000803e3d6000fd5b505050506040513d601f19601f82011682018060405250810190610ccb9190613e09565b9050600260009054906101000a90046001600160a01b03166001600160a01b031663fadb1b026040518163ffffffff1660e01b815260040160206040518083038186803b158015610d1b57600080fd5b505afa158015610d2f573d6000803e3d6000fd5b505050506040513d601f19601f82011682018060405250810190610d539190613e09565b15610d705760405162461bcd60e51b815260040161053490614655565b604051630810278f60e41b815260009073845E553e1Aa69A3f2Df27d6D4E6e6F0fbeB6CCcd9063810278f090610dac90859088906004016146c0565b60206040518083038186803b158015610dc457600080fd5b505af4158015610dd8573d6000803e3d6000fd5b505050506040513d601f19601f82011682018060405250810190610dfc9190613e09565b9050610e2464e8d4a510006107fa6107ed600e5464e8d4a5100061395b90919063ffffffff16565b905080831115610e465760405162461bcd60e51b8152600401610534906144c9565b6001546002546040516302b7c01160e01b81526001600160a01b03928316926302b7c01192610e7e9291169033908990600401613f62565b600060405180830381600087803b158015610e9857600080fd5b505af1158015610eac573d6000803e3d6000fd5b5050600254604051635a7ab59360e11b81526001600160a01b03909116925063b4f56b269150610ee29033908590600401613f49565b600060405180830381600087803b158015610efc57600080fd5b505af1158015610f10573d6000803e3d6000fd5b5050505050505050565b6004546001600160a01b031681565b600d54610100900460ff1615610f515760405162461bcd60e51b81526004016105349061427c565b610f59611d66565b600260009054906101000a90046001600160a01b03166001600160a01b0316634013124a6040518163ffffffff1660e01b8152600401600060405180830381600087803b158015610fa957600080fd5b505af1158015610fbd573d6000803e3d6000fd5b5050505064e8d4a51000600260009054906101000a90046001600160a01b03166001600160a01b031663fadb1b026040518163ffffffff1660e01b815260040160206040518083038186803b15801561101557600080fd5b505afa158015611029573d6000803e3d6000fd5b505050506040513d601f19601f8201168201806040525081019061104d9190613e09565b1461106a5760405162461bcd60e51b815260040161053490614467565b600061107461346c565b90506000600260009054906101000a90046001600160a01b03166001600160a01b031663fa6292196040518163ffffffff1660e01b815260040160206040518083038186803b1580156110c657600080fd5b505afa1580156110da573d6000803e3d6000fd5b505050506040513d601f19601f820116820180604052508101906110fe9190613e09565b9050600064e8d4a510008211611114578161111b565b64e8d4a510005b9050600061114a846107fa64e8d4a51000818661113e8c8463ffffffff6139b416565b9063ffffffff6139b416565b905061117264e8d4a510006107fa6107ed600f5464e8d4a5100061395b90919063ffffffff16565b600a546000546040516370a0823160e01b81529293506111b192620100009091046001600160a01b0316906370a08231906106ad903090600401613f35565b8111156111d05760405162461bcd60e51b81526004016105349061461e565b808511156111f05760405162461bcd60e51b8152600401610534906144c9565b600254604051631096f10360e01b81526001600160a01b0390911690631096f10390611220903390600401613f35565b60206040518083038186803b15801561123857600080fd5b505afa15801561124c573d6000803e3d6000fd5b505050506040513d601f19601f820116820180604052508101906112709190613dd1565b156112aa5733600090815260096020526040902054611295908263ffffffff61398816565b336000908152600960205260409020556113d3565b60006112bd82600a63ffffffff6139ee16565b905060006112d7600a6107fa85600963ffffffff6139b416565b336000908152600960205260409020549091506112fa908363ffffffff61398816565b33600090815260096020908152604080832093909355600254835163a367e27d60e01b8152935192936001600160a01b039091169263a367e27d92600480840193919291829003018186803b15801561135257600080fd5b505afa158015611366573d6000803e3d6000fd5b505050506040513d601f19601f8201168201806040525081019061138a9190613d22565b6001600160a01b0381166000908152600960205260409020549091506113b6908363ffffffff61398816565b6001600160a01b0390911660009081526009602052604090205550505b600a546113e6908263ffffffff61398816565b600a55336000818152600c6020526040908190204390556002549051635453bc5760e11b81526001600160a01b039091169163a8a778ae9161142d91908a90600401613f49565b600060405180830381600087803b15801561144757600080fd5b505af115801561145b573d6000803e3d6000fd5b50505050505050505050565b600d5465010000000000900460ff1681565b600d5462010000900460ff16156114a25760405162461bcd60e51b81526004016105349061452e565b600d5465010000000000900460ff16156114e0576005546001600160a01b031633146114e05760405162461bcd60e51b81526004016105349061441f565b6114e8611d66565b600260009054906101000a90046001600160a01b03166001600160a01b0316634013124a6040518163ffffffff1660e01b8152600401600060405180830381600087803b15801561153857600080fd5b505af115801561154c573d6000803e3d6000fd5b505050506000600654600a0a830290506000600260009054906101000a90046001600160a01b03166001600160a01b031663ed99250c6040518163ffffffff1660e01b815260040160206040518083038186803b1580156115ac57600080fd5b505afa1580156115c0573d6000803e3d6000fd5b505050506040513d601f19601f820116820180604052508101906115e49190613e09565b90506000600260009054906101000a90046001600160a01b03166001600160a01b03166318160ddd6040518163ffffffff1660e01b815260040160206040518083038186803b15801561163657600080fd5b505afa15801561164a573d6000803e3d6000fd5b505050506040513d601f19601f8201168201806040525081019061166e9190613e09565b90506000600260009054906101000a90046001600160a01b03166001600160a01b031663fadb1b026040518163ffffffff1660e01b815260040160206040518083038186803b1580156116c057600080fd5b505afa1580156116d4573d6000803e3d6000fd5b505050506040513d601f19601f820116820180604052508101906116f89190613e09565b90506000600260009054906101000a90046001600160a01b03166001600160a01b031663d2d97b066040518163ffffffff1660e01b815260040160206040518083038186803b15801561174a57600080fd5b505afa15801561175e573d6000803e3d6000fd5b505050506040513d601f19601f820116820180604052508101906117829190613e09565b905060008073845E553e1Aa69A3f2Df27d6D4E6e6F0fbeB6CCcd634e820a3f886117aa61346c565b8689896040518663ffffffff1660e01b81526004016117cd9594939291906146ce565b604080518083038186803b1580156117e457600080fd5b505af41580156117f8573d6000803e3d6000fd5b505050506040513d601f19601f8201168201806040525081019061181c9190613e42565b91509150600061183a600654600a0a846139ee90919063ffffffff16565b90506000611872886107fa6118656011546106fd60145464e8d4a5100061398890919063ffffffff16565b869063ffffffff6139b416565b905061187d816108b1565b9050808a111561189f5760405162461bcd60e51b8152600401610534906144c9565b6000546118bd906201000090046001600160a01b0316333085613a20565b801561192e57600154600254604051636361ddf360e11b81526001600160a01b039283169263c6c3bbe6926118fb9291169033908690600401613f62565b600060405180830381600087803b15801561191557600080fd5b505af1158015611929573d6000803e3d6000fd5b505050505b604051819083907fc2d7df98caa1a9bc768fc3ab167e19ae4febd5da76dad18d3387fb9fc656a37390600090a35050505050505050505050565b600d546301000000900460ff16156119925760405162461bcd60e51b81526004016105349061468c565b600d54600160301b900460ff16156119ce576005546001600160a01b031633146119ce5760405162461bcd60e51b8152600401610534906145b2565b6119d6611d66565b60025460408051633b66494360e21b815290516000926001600160a01b03169163ed99250c916004808301926020929190829003018186803b158015611a1b57600080fd5b505afa158015611a2f573d6000803e3d6000fd5b505050506040513d601f19601f82011682018060405250810190611a539190613e09565b90506000611a9764e8d4a510006107fa611a7d60105464e8d4a5100061395b90919063ffffffff16565b61113e611a886135c2565b87611a9161346c565b8b613bf0565b90506000611ab3600654600a0a836139ee90919063ffffffff16565b905080841115611ad55760405162461bcd60e51b8152600401610534906144c9565b6001546002546040516302b7c01160e01b81526001600160a01b03928316926302b7c01192611b0d9291169033908a90600401613f62565b600060405180830381600087803b158015611b2757600080fd5b505af1158015611b3b573d6000803e3d6000fd5b5050600054611b5d92506201000090046001600160a01b031690503383613b09565b604051819086907f15b90a6a755d5ed0f929f1f40375d58183388d8d9e2f8e9a2efa93043e70f6de90600090a35050505050565b60145481565b6005546001600160a01b03163314611bc15760405162461bcd60e51b815260040161053490614216565b601287905560148690556015859055600e849055600f839055601082905560118190556040517f17fe98b66d27bd793ea01bd8a23a54acab8eeb167d9eb016a0c7cd71c573920c90611c209089908990899089908990899089906146f1565b60405180910390a150505050505050565b6005546001600160a01b03163314611c5b5760405162461bcd60e51b815260040161053490614216565b600d805460ff610100808304821615810261ff001990931692909217928390556040517fd449302f806044ba9a0f0b2862e496c86cb4ef1f6b3fd474113fb26e46d9b28a93610ba693900490911690613f86565b6005546001600160a01b03163314611cd95760405162461bcd60e51b815260040161053490614216565b600d54640100000000900460ff16611cf5576013819055611cfb565b60006013555b600d805460ff640100000000808304821615810264ff000000001990931692909217928390556040517fbf1f9e6d8d67bb57a141c627f40368ec23ed7603249f0c3518c16eafbf9c4f6f93611d5593900490911690613f86565b60405180910390a150565b60125481565b600260009054906101000a90046001600160a01b03166001600160a01b0316636c7ff97b6040518163ffffffff1660e01b8152600401600060405180830381600087803b158015611db657600080fd5b505af1158015611dca573d6000803e3d6000fd5b50505050600360009054906101000a90046001600160a01b03166001600160a01b03166309bf39ed6040518163ffffffff1660e01b815260040160206040518083038186803b158015611e1c57600080fd5b505afa158015611e30573d6000803e3d6000fd5b505050506040513d601f19601f82011682018060405250810190611e549190613dd1565b15611ebd57600360009054906101000a90046001600160a01b03166001600160a01b031663d6f124f06040518163ffffffff1660e01b8152600401600060405180830381600087803b158015611ea957600080fd5b505af1158015610a7a573d6000803e3d6000fd5b565b600d5462010000900460ff1681565b600a5481565b600d5460ff1681565b600d546301000000900460ff1681565b600d54610100900460ff1615611f155760405162461bcd60e51b81526004016105349061427c565b611f1d611d66565b600260009054906101000a90046001600160a01b03166001600160a01b0316634013124a6040518163ffffffff1660e01b8152600401600060405180830381600087803b158015611f6d57600080fd5b505af1158015611f81573d6000803e3d6000fd5b505050506000600260009054906101000a90046001600160a01b03166001600160a01b031663fadb1b026040518163ffffffff1660e01b815260040160206040518083038186803b158015611fd557600080fd5b505afa158015611fe9573d6000803e3d6000fd5b505050506040513d601f19601f8201168201806040525081019061200d9190613e09565b905064e8d4a51000811080156120235750600081115b61203f5760405162461bcd60e51b815260040161053490614086565b6002546040805163fa62921960e01b815290516000926001600160a01b03169163fa629219916004808301926020929190829003018186803b15801561208457600080fd5b505afa158015612098573d6000803e3d6000fd5b505050506040513d601f19601f820116820180604052508101906120bc9190613e09565b905060008282106120cd57826120cf565b815b9050600061210664e8d4a510006107fa6120f9600f5464e8d4a5100061395b90919063ffffffff16565b8a9063ffffffff6139b416565b9050600061213361212664e8d4a510006107fa858763ffffffff6139b416565b839063ffffffff61395b16565b905060006121d5600260009054906101000a90046001600160a01b03166001600160a01b031663ed99250c6040518163ffffffff1660e01b815260040160206040518083038186803b15801561218857600080fd5b505afa15801561219c573d6000803e3d6000fd5b505050506040513d601f19601f820116820180604052508101906121c09190613e09565b6107fa8464e8d4a5100063ffffffff6139b416565b90506121e0816108b1565b905060006121fc600654600a0a856139ee90919063ffffffff16565b9050600061221964e8d4a510006107fa848963ffffffff6139b416565b905060006122286121c061346c565b600a546000546040516370a0823160e01b815292935061226792620100009091046001600160a01b0316906370a08231906106ad903090600401613f35565b8111156122865760405162461bcd60e51b81526004016105349061461e565b808a11156122a65760405162461bcd60e51b8152600401610534906140e3565b838b11156122c65760405162461bcd60e51b815260040161053490614245565b600254604051631096f10360e01b81526001600160a01b0390911690631096f103906122f6903390600401613f35565b60206040518083038186803b15801561230e57600080fd5b505afa158015612322573d6000803e3d6000fd5b505050506040513d601f19601f820116820180604052508101906123469190613dd1565b15612380573360009081526009602052604090205461236b908263ffffffff61398816565b336000908152600960205260409020556124a9565b600061239382600a63ffffffff6139ee16565b905060006123ad600a6107fa85600963ffffffff6139b416565b336000908152600960205260409020549091506123d0908363ffffffff61398816565b33600090815260096020908152604080832093909355600254835163a367e27d60e01b8152935192936001600160a01b039091169263a367e27d92600480840193919291829003018186803b15801561242857600080fd5b505afa15801561243c573d6000803e3d6000fd5b505050506040513d601f19601f820116820180604052508101906124609190613d22565b6001600160a01b03811660009081526009602052604090205490915061248c908363ffffffff61398816565b6001600160a01b0390911660009081526009602052604090205550505b600a546124bc908263ffffffff61398816565b600a5583156126bf57600254604051631096f10360e01b81526001600160a01b0390911690631096f103906124f5903390600401613f35565b60206040518083038186803b15801561250d57600080fd5b505afa158015612521573d6000803e3d6000fd5b505050506040513d601f19601f820116820180604052508101906125459190613dd1565b1561257f573360009081526008602052604090205461256a908563ffffffff61398816565b336000908152600860205260409020556126a8565b600061259285600a63ffffffff6139ee16565b905060006125ac600a6107fa88600963ffffffff6139b416565b336000908152600860205260409020549091506125cf908363ffffffff61398816565b33600090815260086020908152604080832093909355600254835163a367e27d60e01b8152935192936001600160a01b039091169263a367e27d92600480840193919291829003018186803b15801561262757600080fd5b505afa15801561263b573d6000803e3d6000fd5b505050506040513d601f19601f8201168201806040525081019061265f9190613d22565b6001600160a01b03811660009081526008602052604090205490915061268b908363ffffffff61398816565b6001600160a01b0390911660009081526008602052604090205550505b600b546126bb908563ffffffff61398816565b600b555b43600c6000336001600160a01b03166001600160a01b0316815260200190815260200160002081905550600260009054906101000a90046001600160a01b03166001600160a01b031663a8a778ae338e6040518363ffffffff1660e01b815260040161272c929190613f49565b600060405180830381600087803b15801561274657600080fd5b505af115801561275a573d6000803e3d6000fd5b5050505060008411156127d257600154600254604051636361ddf360e11b81526001600160a01b039283169263c6c3bbe69261279f9291169030908990600401613f62565b600060405180830381600087803b1580156127b957600080fd5b505af11580156127cd573d6000803e3d6000fd5b505050505b505050505050505050505050565b6005546001600160a01b031681565b600d54640100000000900460ff1681565b600d54600090640100000000900460ff161515600114156128815761287a64e8d4a510006107fa60135461113e600654600a0a61113e600a54600060029054906101000a90046001600160a01b03166001600160a01b03166370a08231306040518263ffffffff1660e01b81526004016106ad9190613f35565b90506128db565b61287a64e8d4a510006107fa61289561346c565b600654600a80546000546040516370a0823160e01b815261113e9490930a928492916201000090046001600160a01b0316906370a08231906106ad903090600401613f35565b90565b6005546001600160a01b031633146129085760405162461bcd60e51b815260040161053490614216565b600380546001600160a01b03199081166001600160a01b03858116918217909355600780549092169284169283179091556040517f856e4796eef882904bc46a505b32b16c6fbcef9e0930ac95b2f980781517bf6390600090a35050565b600c6020526000908152604090205481565b600d5460ff161561299b5760405162461bcd60e51b81526004016105349061449e565b6129a3611d66565b600260009054906101000a90046001600160a01b03166001600160a01b0316634013124a6040518163ffffffff1660e01b8152600401600060405180830381600087803b1580156129f357600080fd5b505af1158015612a07573d6000803e3d6000fd5b505050506000600260009054906101000a90046001600160a01b03166001600160a01b031663ed99250c6040518163ffffffff1660e01b815260040160206040518083038186803b158015612a5b57600080fd5b505afa158015612a6f573d6000803e3d6000fd5b505050506040513d601f19601f82011682018060405250810190612a939190613e09565b90506000600260009054906101000a90046001600160a01b03166001600160a01b031663fadb1b026040518163ffffffff1660e01b815260040160206040518083038186803b158015612ae557600080fd5b505afa158015612af9573d6000803e3d6000fd5b505050506040513d601f19601f82011682018060405250810190612b1d9190613e09565b905064e8d4a5100081108015612b335750600081115b612b4f5760405162461bcd60e51b815260040161053490614086565b601254600a546000546040516370a0823160e01b8152612b9492899261070992620100009091046001600160a01b0316906370a08231906106ad903090600401613f35565b1115612bb25760405162461bcd60e51b81526004016105349061436f565b600654600a0a8502600080612bd085612bc961346c565b8587613c74565b91509150612c0764e8d4a510006107fa612bfa600e5464e8d4a5100061395b90919063ffffffff16565b859063ffffffff6139b416565b915081861115612c295760405162461bcd60e51b8152600401610534906144c9565b86811115612c495760405162461bcd60e51b815260040161053490613fe1565b6001546002546040516302b7c01160e01b81526001600160a01b03928316926302b7c01192612c819291169033908690600401613f62565b600060405180830381600087803b158015612c9b57600080fd5b505af1158015612caf573d6000803e3d6000fd5b5050600054612cd292506201000090046001600160a01b0316905033308b613a20565b600254604051635a7ab59360e11b81526001600160a01b039091169063b4f56b2690612d049033908690600401613f49565b600060405180830381600087803b158015612d1e57600080fd5b505af11580156127d2573d6000803e3d6000fd5b60086020526000908152604090205481565b600d54610100900460ff1681565b600b5481565b6005546001600160a01b03163314612d825760405162461bcd60e51b815260040161053490614216565b600d805460ff19811660ff9182161517918290556040517f3f3c6b7e51ec0201fea018ffcf768f21f85a27593219359fd6af1d95c7e8b44192610ba6921690613f86565b600e5481565b6005546001600160a01b03163314612df65760405162461bcd60e51b815260040161053490614216565b600d805460ff600160301b808304821615810266ff0000000000001990931692909217928390556040517fd5bc042d6e197fb30aec38c1634dabc01e0bb517e3fea6db130cea575371224693610ba693900490911690613f86565b6005546001600160a01b03163314612e7b5760405162461bcd60e51b815260040161053490614216565b600d805460ff6301000000808304821615810263ff0000001990931692909217928390556040517fef220f30673af554aae10180ad5ab98f41c923213a66d1207dbe61f00aa75acf93610ba693900490911690613f86565b60135481565b600d54610100900460ff1615612f015760405162461bcd60e51b81526004016105349061427c565b612f09611d66565b600260009054906101000a90046001600160a01b03166001600160a01b0316634013124a6040518163ffffffff1660e01b8152600401600060405180830381600087803b158015612f5957600080fd5b505af1158015612f6d573d6000803e3d6000fd5b505050506000600260009054906101000a90046001600160a01b03166001600160a01b031663ed99250c6040518163ffffffff1660e01b815260040160206040518083038186803b158015612fc157600080fd5b505afa158015612fd5573d6000803e3d6000fd5b505050506040513d601f19601f82011682018060405250810190612ff99190613e09565b90506000600260009054906101000a90046001600160a01b03166001600160a01b031663fadb1b026040518163ffffffff1660e01b815260040160206040518083038186803b15801561304b57600080fd5b505afa15801561305f573d6000803e3d6000fd5b505050506040513d601f19601f820116820180604052508101906130839190613e09565b905080156130a35760405162461bcd60e51b815260040161053490614655565b60008490506130ce64e8d4a510006107fa6107ed600f5464e8d4a5100061395b90919063ffffffff16565b905060006130eb846107fa8464e8d4a5100063ffffffff6139b416565b90506130f6816108b1565b905080156132f857600254604051631096f10360e01b81526001600160a01b0390911690631096f1039061312e903390600401613f35565b60206040518083038186803b15801561314657600080fd5b505afa15801561315a573d6000803e3d6000fd5b505050506040513d601f19601f8201168201806040525081019061317e9190613dd1565b156131b857336000908152600860205260409020546131a3908263ffffffff61398816565b336000908152600860205260409020556132e1565b60006131cb82600a63ffffffff6139ee16565b905060006131e5600a6107fa85600963ffffffff6139b416565b33600090815260086020526040902054909150613208908363ffffffff61398816565b33600090815260086020908152604080832093909355600254835163a367e27d60e01b8152935192936001600160a01b039091169263a367e27d92600480840193919291829003018186803b15801561326057600080fd5b505afa158015613274573d6000803e3d6000fd5b505050506040513d601f19601f820116820180604052508101906132989190613d22565b6001600160a01b0381166000908152600860205260409020549091506132c4908363ffffffff61398816565b6001600160a01b0390911660009081526008602052604090205550505b600b546132f4908263ffffffff61398816565b600b555b336000908152600c602052604090204390558085106133295760405162461bcd60e51b8152600401610534906144c9565b600254604051635453bc5760e11b81526001600160a01b039091169063a8a778ae9061335b9033908a90600401613f49565b600060405180830381600087803b15801561337557600080fd5b505af1158015613389573d6000803e3d6000fd5b5050505060008111156133ce57600154600254604051636361ddf360e11b81526001600160a01b039283169263c6c3bbe69261142d9291169030908690600401613f62565b505050505050565b600f5481565b6005546001600160a01b031633146134065760405162461bcd60e51b815260040161053490614216565b600d805460ff62010000808304821615810262ff00001990931692909217928390556040517f7e9a29a085706d1cf00b68ff18532dae53be17faa8be9bab8821c355a393656a93610ba693900490911690613f86565b600d54600160301b900460ff1681565b600d54600090640100000000900460ff1615156001141561349057506013546128db565b60025460408051632d83c63b60e11b815290516000926001600160a01b031691635b078c76916004808301926020929190829003018186803b1580156134d557600080fd5b505afa1580156134e9573d6000803e3d6000fd5b505050506040513d601f19601f8201168201806040525081019061350d9190613e09565b600354600754604051633ddac95360e01b81529293506000926001600160a01b0392831692633ddac9539261354e9291169064e8d4a5100090600401613f49565b60206040518083038186803b15801561356657600080fd5b505afa15801561357a573d6000803e3d6000fd5b505050506040513d601f19601f8201168201806040525081019061359e9190613e09565b90506135b9816107fa8464e8d4a5100063ffffffff6139b416565b925050506128db565b600080600260009054906101000a90046001600160a01b03166001600160a01b03166318160ddd6040518163ffffffff1660e01b815260040160206040518083038186803b15801561361357600080fd5b505afa158015613627573d6000803e3d6000fd5b505050506040513d601f19601f8201168201806040525081019061364b9190613e09565b90506000600260009054906101000a90046001600160a01b03166001600160a01b031663fadb1b026040518163ffffffff1660e01b815260040160206040518083038186803b15801561369d57600080fd5b505afa1580156136b1573d6000803e3d6000fd5b505050506040513d601f19601f820116820180604052508101906136d59190613e09565b90506000600260009054906101000a90046001600160a01b03166001600160a01b031663d2d97b066040518163ffffffff1660e01b815260040160206040518083038186803b15801561372757600080fd5b505afa15801561373b573d6000803e3d6000fd5b505050506040513d601f19601f8201168201806040525081019061375f9190613e09565b9050600061377c64e8d4a510006107fa868663ffffffff6139b416565b9050808211156137a157613796828263ffffffff61395b16565b9450505050506128db565b60009450505050506128db565b600054610100900460ff16806137c757506137c7613cef565b806137d5575060005460ff16155b6137f15760405162461bcd60e51b815260040161053490614321565b600054610100900460ff1615801561381c576000805460ff1961ff0019909116610100171660011790555b600280546001600160a01b03199081166001600160a01b0388811691909117909255600180548216878416179055600480548216868416908117825560058054909316868516179092556000805462010000600160b01b0319166201000093840217908190556040805163313ce56760e01b8152905161390b95949092049093169263313ce5679281810192602092909190829003018186803b1580156138c257600080fd5b505afa1580156138d6573d6000803e3d6000fd5b505050506040513d601f19601f820116820180604052508101906138fa9190613edb565b60129060ff1663ffffffff61395b16565b6006556ec097ce7bc90715b34b9f10000000006012556401bf08eb00601455600160155563b2d05e00600e819055600f55801561394e576000805461ff00191690555b5050505050565b60115481565b60008282111561397d5760405162461bcd60e51b815260040161053490614177565b508082035b92915050565b6000828201838110156139ad5760405162461bcd60e51b81526004016105349061404f565b9392505050565b6000826139c357506000613982565b828202828482816139d057fe5b04146139ad5760405162461bcd60e51b8152600401610534906143de565b6000808211613a0f5760405162461bcd60e51b8152600401610534906142a9565b818381613a1857fe5b049392505050565b60006060856001600160a01b03166323b872dd868686604051602401613a4893929190613f62565b6040516020818303038152906040529060e01b6020820180516001600160e01b038381831617835250505050604051613a819190613efc565b6000604051808303816000865af19150503d8060008114613abe576040519150601f19603f3d011682016040523d82523d6000602084013e613ac3565b606091505b5091509150818015613aed575080511580613aed575080806020019051810190613aed9190613dd1565b6133ce5760405162461bcd60e51b815260040161053490614126565b60006060846001600160a01b031663a9059cbb8585604051602401613b2f929190613f49565b6040516020818303038152906040529060e01b6020820180516001600160e01b038381831617835250505050604051613b689190613efc565b6000604051808303816000865af19150503d8060008114613ba5576040519150601f19603f3d011682016040523d82523d6000602084013e613baa565b606091505b5091509150818015613bd4575080511580613bd4575080806020019051810190613bd49190613dd1565b61394e5760405162461bcd60e51b815260040161053490614565565b6000808511613c115760405162461bcd60e51b8152600401610534906142e0565b6000613c2c64e8d4a510006107fa858863ffffffff6139b416565b905085811115613c4e5760405162461bcd60e51b815260040161053490613f91565b6000613c69856107fa8464e8d4a5100063ffffffff6139b416565b979650505050505050565b60008080613c9164e8d4a510006107fa878963ffffffff6139b416565b90506000613cb2826106fd876107fa8364e8d4a5100063ffffffff6139b416565b90506000613ccf896107fa8464e8d4a5100063ffffffff6139b416565b9050613ce1838363ffffffff61398816565b999098509650505050505050565b6000613cfa30613d00565b15905090565b3b151590565b600060208284031215613d17578081fd5b81356139ad81614721565b600060208284031215613d33578081fd5b81516139ad81614721565b60008060408385031215613d50578081fd5b8235613d5b81614721565b91506020830135613d6b81614721565b809150509250929050565b60008060008060808587031215613d8b578182fd5b8435613d9681614721565b93506020850135613da681614721565b92506040850135613db681614721565b91506060850135613dc681614721565b939692955090935050565b600060208284031215613de2578081fd5b815180151581146139ad578182fd5b600060208284031215613e02578081fd5b5035919050565b600060208284031215613e1a578081fd5b5051919050565b60008060408385031215613e33578182fd5b50508035926020909101359150565b60008060408385031215613e54578182fd5b505080516020909101519092909150565b600080600060608486031215613e79578283fd5b505081359360208301359350604090920135919050565b600080600080600080600060e0888a031215613eaa578283fd5b505085359760208701359750604087013596606081013596506080810135955060a0810135945060c0013592509050565b600060208284031215613eec578081fd5b815160ff811681146139ad578182fd5b60008251815b81811015613f1c5760208186018101518583015201613f02565b81811115613f2a5782828501525b509190910192915050565b6001600160a01b0391909116815260200190565b6001600160a01b03929092168252602082015260400190565b6001600160a01b039384168152919092166020820152604081019190915260600190565b901515815260200190565b60208082526030908201527f596f752061726520747279696e6720746f20627579206261636b206d6f72652060408201526f7468616e20746865206578636573732160801b606082015260800190565b60208082526017908201527f4e6f7420656e6f7567682042445820696e707574746564000000000000000000604082015260600190565b6020808252601d908201527f436f6c6c61746572616c20726174696f206d757374206265203e3d2031000000604082015260600190565b6020808252601b908201527f536166654d6174683a206164646974696f6e206f766572666c6f770000000000604082015260600190565b60208082526038908201527f436f6c6c61746572616c20726174696f206e6565647320746f2062652062657460408201527f7765656e202e30303030303120616e64202e3939393939390000000000000000606082015260800190565b60208082526023908201527f536c697070616765206c696d69742072656163686564205b636f6c6c61746572604082015262616c5d60e81b606082015260800190565b60208082526031908201527f5472616e7366657248656c7065723a3a7472616e7366657246726f6d3a207472604082015270185b9cd9995c919c9bdb4819985a5b1959607a1b606082015260800190565b6020808252601e908201527f536166654d6174683a207375627472616374696f6e206f766572666c6f770000604082015260600190565b60208082526042908201527f4d757374207761697420666f7220726564656d7074696f6e5f64656c6179206260408201527f6c6f636b73206265666f726520636f6c6c656374696e6720726564656d70746960608201526137b760f11b608082015260a00190565b6020808252601590820152742cb7ba9030b932903737ba103a34329037bbb732b960591b604082015260600190565b6020808252601c908201527f536c697070616765206c696d69742072656163686564205b4244585d00000000604082015260600190565b60208082526013908201527214995919595b5a5b99c81a5cc81c185d5cd959606a1b604082015260600190565b6020808252601a908201527f536166654d6174683a206469766973696f6e206279207a65726f000000000000604082015260600190565b60208082526021908201527f4e6f2065786365737320636f6c6c61746572616c20746f20627579206261636b6040820152602160f81b606082015260800190565b6020808252602e908201527f496e697469616c697a61626c653a20636f6e747261637420697320616c72656160408201526d191e481a5b9a5d1a585b1a5e995960921b606082015260800190565b60208082526049908201527f506f6f6c206365696c696e6720726561636865642c206e6f206d6f726520426460408201527f537461626c652063616e206265206d696e7465642077697468207468697320636060820152681bdb1b185d195c985b60ba1b608082015260a00190565b60208082526021908201527f536166654d6174683a206d756c7469706c69636174696f6e206f766572666c6f6040820152607760f81b606082015260800190565b60208082526028908201527f43757272656e746c79206f6e6c79206f776e65722063616e207265636f6c6c61604082015267746572616c697a6560c01b606082015260800190565b6020808252601d908201527f436f6c6c61746572616c20726174696f206d757374206265203d3d2031000000604082015260600190565b602080825260119082015270135a5b9d1a5b99c81a5cc81c185d5cd959607a1b604082015260600190565b60208082526016908201527514db1a5c1c1859d9481b1a5b5a5d081c995858da195960521b604082015260600190565b6020808252818101527f5b506f6f6c277320436c6f7365645d3a204365696c696e672072656163686564604082015260600190565b60208082526019908201527f5265636f6c6c61746572616c697a652069732070617573656400000000000000604082015260600190565b6020808252602d908201527f5472616e7366657248656c7065723a3a736166655472616e736665723a20747260408201526c185b9cd9995c8819985a5b1959609a1b606082015260800190565b6020808252818101527f43757272656e746c79206f6e6c79206f776e65722063616e206275796261636b604082015260600190565b6020808252601f908201527f4e6577206f776e65722063616e2774206265207a65726f206164647265737300604082015260600190565b6020808252601d908201527f4e6f7420656e6f75676820636f6c6c61746572616c20696e20706f6f6c000000604082015260600190565b6020808252601a908201527f436f6c6c61746572616c20726174696f206d7573742062652030000000000000604082015260600190565b602080825260119082015270109d5e589858dac81a5cc81c185d5cd959607a1b604082015260600190565b90815260200190565b918252602082015260400190565b948552602085019390935260408401919091526060830152608082015260a00190565b968752602087019590955260408601939093526060850191909152608084015260a083015260c082015260e00190565b6001600160a01b038116811461473657600080fd5b5056fea26469706673582212208f9f3fc108b9b70e975be2b96c77b028ce4a3f6598a52187aaa9c7d280208a3464736f6c634300060b0033",
  "deployedBytecode": "0x608060405234801561001057600080fd5b50600436106102955760003560e01c80637f877f8511610167578063c3355b8d116100ce578063cbf81dba11610087578063cbf81dba146104c4578063deeea838146104cc578063e69d3010146104d4578063f61adab2146104dc578063f8c8765e146104e4578063fede5c9c146104f757610295565b8063c3355b8d14610489578063c39e011f14610491578063c3abe07714610499578063c74ec56a146104a1578063c7afa7cf146104a9578063cb73999f146104bc57610295565b8063abae2c4c11610120578063abae2c4c14610438578063ac2ede7b1461044b578063ac6d7d6b1461045e578063b235d46814610471578063b8d5886314610479578063bbf0ce1d1461048157610295565b80637f877f85146103f25780637fbc9090146103fa57806380edef8e1461040d5780638d2ac7a4146104155780639ccabfb51461041d578063a6e6aa281461042557610295565b80632efca5341161020b57806364fe5de2116101c457806364fe5de2146103b75780636526a12a146103ca5780636c7ff97b146103d25780636d2c5615146103da5780637b0461e9146103e25780637e4831d3146103ea57610295565b80632efca534146103595780633559ca801461036e57806335d8ce6d146103815780634c634934146103945780634ebbe7621461039c5780635f55504c146103af57610295565b806313af40351161025d57806313af4035146102fb578063151284251461030e5780631c309e0a146103165780631d833ca61461031e5780631eaa0e171461033157806326862f9e1461034657610295565b806308a7493d1461029a5780630cecc5d6146102c35780630f4cd912146102d8578063101197c7146102eb57806312ace5a2146102f3575b600080fd5b6102ad6102a8366004613d06565b6104ff565b6040516102ba91906146b7565b60405180910390f35b6102d66102d1366004613e21565b610511565b005b6102ad6102e6366004613df1565b6108b1565b6102ad610955565b6102d661095b565b6102d6610309366004613d06565b610a80565b6102ad610b1a565b6102d6610b20565b6102d661032c366004613e21565b610bb0565b610339610f1a565b6040516102ba9190613f35565b6102d6610354366004613e21565b610f29565b610361611467565b6040516102ba9190613f86565b6102d661037c366004613e21565b611479565b6102d661038f366004613e21565b611968565b6102ad611b91565b6102d66103aa366004613e90565b611b97565b6102d6611c31565b6102d66103c5366004613df1565b611caf565b6102ad611d60565b6102d6611d66565b610361611ebf565b6102ad611ece565b610361611ed4565b610361611edd565b6102d6610408366004613e65565b611eed565b6103396127e0565b6103616127ef565b6102ad612800565b6102d6610433366004613d3e565b6128de565b6102ad610446366004613d06565b612966565b6102d6610459366004613e65565b612978565b6102ad61046c366004613d06565b612d32565b610361612d44565b6102ad612d52565b6102d6612d58565b6102ad612dc6565b6102d6612dcc565b6102d6612e51565b6102ad612ed3565b6102d66104b7366004613e21565b612ed9565b6102ad6133d6565b6102d66133dc565b61036161345c565b6102ad61346c565b6102ad6135c2565b6102d66104f2366004613d76565b6137ae565b6102ad613955565b60096020526000908152604090205481565b600d5460ff161561053d5760405162461bcd60e51b81526004016105349061449e565b60405180910390fd5b610545611d66565b6000600654600a0a83029050600260009054906101000a90046001600160a01b03166001600160a01b0316634013124a6040518163ffffffff1660e01b8152600401600060405180830381600087803b1580156105a157600080fd5b505af11580156105b5573d6000803e3d6000fd5b505050506000600260009054906101000a90046001600160a01b03166001600160a01b031663fadb1b026040518163ffffffff1660e01b815260040160206040518083038186803b15801561060957600080fd5b505afa15801561061d573d6000803e3d6000fd5b505050506040513d601f19601f820116820180604052508101906106419190613e09565b905064e8d4a510008110156106685760405162461bcd60e51b815260040161053490614018565b601254600a546000546040516370a0823160e01b815261071592889261070992620100009091046001600160a01b0316906370a08231906106ad903090600401613f35565b60206040518083038186803b1580156106c557600080fd5b505afa1580156106d9573d6000803e3d6000fd5b505050506040513d601f19601f820116820180604052508101906106fd9190613e09565b9063ffffffff61395b16565b9063ffffffff61398816565b11156107335760405162461bcd60e51b8152600401610534906144f9565b600073__$1b7833db14374605bbf4baa82b35c8734a$__63ba8b180861075761346c565b856040518363ffffffff1660e01b81526004016107759291906146c0565b60206040518083038186803b15801561078d57600080fd5b505af41580156107a1573d6000803e3d6000fd5b505050506040513d601f19601f820116820180604052508101906107c59190613e09565b905061080664e8d4a510006107fa6107ed600e5464e8d4a5100061395b90919063ffffffff16565b849063ffffffff6139b416565b9063ffffffff6139ee16565b9050808411156108285760405162461bcd60e51b8152600401610534906144c9565b600054610846906201000090046001600160a01b0316333088613a20565b600254604051635a7ab59360e11b81526001600160a01b039091169063b4f56b26906108789033908590600401613f49565b600060405180830381600087803b15801561089257600080fd5b505af11580156108a6573d6000803e3d6000fd5b505050505050505050565b600080600160009054906101000a90046001600160a01b03166001600160a01b0316631dbb32906040518163ffffffff1660e01b815260040160206040518083038186803b15801561090257600080fd5b505afa158015610916573d6000803e3d6000fd5b505050506040513d601f19601f8201168201806040525081019061093a9190613e09565b90508281111561094d5782915050610950565b90505b919050565b60105481565b601554336000908152600c60205260409020544391610980919063ffffffff61398816565b111561099e5760405162461bcd60e51b8152600401610534906141ae565b33600090815260086020526040812054819081908190156109eb573360009081526008602052604081208054919055600b549092506109e3908363ffffffff61395b16565b600b55600193505b3360009081526009602052604090205415610a3057503360009081526009602052604081208054919055600a54610a28908263ffffffff61395b16565b600a55600192505b60018415151415610a5257600154610a52906001600160a01b03163384613b09565b60018315151415610a7a57600054610a7a906201000090046001600160a01b03163383613b09565b50505050565b6005546001600160a01b03163314610aaa5760405162461bcd60e51b815260040161053490614216565b6001600160a01b038116610ad05760405162461bcd60e51b8152600401610534906145e7565b600580546001600160a01b0319166001600160a01b0383169081179091556040517f50146d0e3c60aa1d17a70635b05494f864e86144a2201275021014fbf08bafe290600090a250565b60155481565b6005546001600160a01b03163314610b4a5760405162461bcd60e51b815260040161053490614216565b600d805460ff65010000000000808304821615810265ff00000000001990931692909217928390556040517f5500d28fd6f79ee96ffff9ce2f45833d5913c84f586b8a537b6c6f25df0312a393610ba693900490911690613f86565b60405180910390a1565b600d5460ff1615610bd35760405162461bcd60e51b81526004016105349061449e565b610bdb611d66565b600260009054906101000a90046001600160a01b03166001600160a01b0316634013124a6040518163ffffffff1660e01b8152600401600060405180830381600087803b158015610c2b57600080fd5b505af1158015610c3f573d6000803e3d6000fd5b505050506000600260009054906101000a90046001600160a01b03166001600160a01b031663ed99250c6040518163ffffffff1660e01b815260040160206040518083038186803b158015610c9357600080fd5b505afa158015610ca7573d6000803e3d6000fd5b505050506040513d601f19601f82011682018060405250810190610ccb9190613e09565b9050600260009054906101000a90046001600160a01b03166001600160a01b031663fadb1b026040518163ffffffff1660e01b815260040160206040518083038186803b158015610d1b57600080fd5b505afa158015610d2f573d6000803e3d6000fd5b505050506040513d601f19601f82011682018060405250810190610d539190613e09565b15610d705760405162461bcd60e51b815260040161053490614655565b604051630810278f60e41b815260009073__$1b7833db14374605bbf4baa82b35c8734a$__9063810278f090610dac90859088906004016146c0565b60206040518083038186803b158015610dc457600080fd5b505af4158015610dd8573d6000803e3d6000fd5b505050506040513d601f19601f82011682018060405250810190610dfc9190613e09565b9050610e2464e8d4a510006107fa6107ed600e5464e8d4a5100061395b90919063ffffffff16565b905080831115610e465760405162461bcd60e51b8152600401610534906144c9565b6001546002546040516302b7c01160e01b81526001600160a01b03928316926302b7c01192610e7e9291169033908990600401613f62565b600060405180830381600087803b158015610e9857600080fd5b505af1158015610eac573d6000803e3d6000fd5b5050600254604051635a7ab59360e11b81526001600160a01b03909116925063b4f56b269150610ee29033908590600401613f49565b600060405180830381600087803b158015610efc57600080fd5b505af1158015610f10573d6000803e3d6000fd5b5050505050505050565b6004546001600160a01b031681565b600d54610100900460ff1615610f515760405162461bcd60e51b81526004016105349061427c565b610f59611d66565b600260009054906101000a90046001600160a01b03166001600160a01b0316634013124a6040518163ffffffff1660e01b8152600401600060405180830381600087803b158015610fa957600080fd5b505af1158015610fbd573d6000803e3d6000fd5b5050505064e8d4a51000600260009054906101000a90046001600160a01b03166001600160a01b031663fadb1b026040518163ffffffff1660e01b815260040160206040518083038186803b15801561101557600080fd5b505afa158015611029573d6000803e3d6000fd5b505050506040513d601f19601f8201168201806040525081019061104d9190613e09565b1461106a5760405162461bcd60e51b815260040161053490614467565b600061107461346c565b90506000600260009054906101000a90046001600160a01b03166001600160a01b031663fa6292196040518163ffffffff1660e01b815260040160206040518083038186803b1580156110c657600080fd5b505afa1580156110da573d6000803e3d6000fd5b505050506040513d601f19601f820116820180604052508101906110fe9190613e09565b9050600064e8d4a510008211611114578161111b565b64e8d4a510005b9050600061114a846107fa64e8d4a51000818661113e8c8463ffffffff6139b416565b9063ffffffff6139b416565b905061117264e8d4a510006107fa6107ed600f5464e8d4a5100061395b90919063ffffffff16565b600a546000546040516370a0823160e01b81529293506111b192620100009091046001600160a01b0316906370a08231906106ad903090600401613f35565b8111156111d05760405162461bcd60e51b81526004016105349061461e565b808511156111f05760405162461bcd60e51b8152600401610534906144c9565b600254604051631096f10360e01b81526001600160a01b0390911690631096f10390611220903390600401613f35565b60206040518083038186803b15801561123857600080fd5b505afa15801561124c573d6000803e3d6000fd5b505050506040513d601f19601f820116820180604052508101906112709190613dd1565b156112aa5733600090815260096020526040902054611295908263ffffffff61398816565b336000908152600960205260409020556113d3565b60006112bd82600a63ffffffff6139ee16565b905060006112d7600a6107fa85600963ffffffff6139b416565b336000908152600960205260409020549091506112fa908363ffffffff61398816565b33600090815260096020908152604080832093909355600254835163a367e27d60e01b8152935192936001600160a01b039091169263a367e27d92600480840193919291829003018186803b15801561135257600080fd5b505afa158015611366573d6000803e3d6000fd5b505050506040513d601f19601f8201168201806040525081019061138a9190613d22565b6001600160a01b0381166000908152600960205260409020549091506113b6908363ffffffff61398816565b6001600160a01b0390911660009081526009602052604090205550505b600a546113e6908263ffffffff61398816565b600a55336000818152600c6020526040908190204390556002549051635453bc5760e11b81526001600160a01b039091169163a8a778ae9161142d91908a90600401613f49565b600060405180830381600087803b15801561144757600080fd5b505af115801561145b573d6000803e3d6000fd5b50505050505050505050565b600d5465010000000000900460ff1681565b600d5462010000900460ff16156114a25760405162461bcd60e51b81526004016105349061452e565b600d5465010000000000900460ff16156114e0576005546001600160a01b031633146114e05760405162461bcd60e51b81526004016105349061441f565b6114e8611d66565b600260009054906101000a90046001600160a01b03166001600160a01b0316634013124a6040518163ffffffff1660e01b8152600401600060405180830381600087803b15801561153857600080fd5b505af115801561154c573d6000803e3d6000fd5b505050506000600654600a0a830290506000600260009054906101000a90046001600160a01b03166001600160a01b031663ed99250c6040518163ffffffff1660e01b815260040160206040518083038186803b1580156115ac57600080fd5b505afa1580156115c0573d6000803e3d6000fd5b505050506040513d601f19601f820116820180604052508101906115e49190613e09565b90506000600260009054906101000a90046001600160a01b03166001600160a01b03166318160ddd6040518163ffffffff1660e01b815260040160206040518083038186803b15801561163657600080fd5b505afa15801561164a573d6000803e3d6000fd5b505050506040513d601f19601f8201168201806040525081019061166e9190613e09565b90506000600260009054906101000a90046001600160a01b03166001600160a01b031663fadb1b026040518163ffffffff1660e01b815260040160206040518083038186803b1580156116c057600080fd5b505afa1580156116d4573d6000803e3d6000fd5b505050506040513d601f19601f820116820180604052508101906116f89190613e09565b90506000600260009054906101000a90046001600160a01b03166001600160a01b031663d2d97b066040518163ffffffff1660e01b815260040160206040518083038186803b15801561174a57600080fd5b505afa15801561175e573d6000803e3d6000fd5b505050506040513d601f19601f820116820180604052508101906117829190613e09565b905060008073__$1b7833db14374605bbf4baa82b35c8734a$__634e820a3f886117aa61346c565b8689896040518663ffffffff1660e01b81526004016117cd9594939291906146ce565b604080518083038186803b1580156117e457600080fd5b505af41580156117f8573d6000803e3d6000fd5b505050506040513d601f19601f8201168201806040525081019061181c9190613e42565b91509150600061183a600654600a0a846139ee90919063ffffffff16565b90506000611872886107fa6118656011546106fd60145464e8d4a5100061398890919063ffffffff16565b869063ffffffff6139b416565b905061187d816108b1565b9050808a111561189f5760405162461bcd60e51b8152600401610534906144c9565b6000546118bd906201000090046001600160a01b0316333085613a20565b801561192e57600154600254604051636361ddf360e11b81526001600160a01b039283169263c6c3bbe6926118fb9291169033908690600401613f62565b600060405180830381600087803b15801561191557600080fd5b505af1158015611929573d6000803e3d6000fd5b505050505b604051819083907fc2d7df98caa1a9bc768fc3ab167e19ae4febd5da76dad18d3387fb9fc656a37390600090a35050505050505050505050565b600d546301000000900460ff16156119925760405162461bcd60e51b81526004016105349061468c565b600d54600160301b900460ff16156119ce576005546001600160a01b031633146119ce5760405162461bcd60e51b8152600401610534906145b2565b6119d6611d66565b60025460408051633b66494360e21b815290516000926001600160a01b03169163ed99250c916004808301926020929190829003018186803b158015611a1b57600080fd5b505afa158015611a2f573d6000803e3d6000fd5b505050506040513d601f19601f82011682018060405250810190611a539190613e09565b90506000611a9764e8d4a510006107fa611a7d60105464e8d4a5100061395b90919063ffffffff16565b61113e611a886135c2565b87611a9161346c565b8b613bf0565b90506000611ab3600654600a0a836139ee90919063ffffffff16565b905080841115611ad55760405162461bcd60e51b8152600401610534906144c9565b6001546002546040516302b7c01160e01b81526001600160a01b03928316926302b7c01192611b0d9291169033908a90600401613f62565b600060405180830381600087803b158015611b2757600080fd5b505af1158015611b3b573d6000803e3d6000fd5b5050600054611b5d92506201000090046001600160a01b031690503383613b09565b604051819086907f15b90a6a755d5ed0f929f1f40375d58183388d8d9e2f8e9a2efa93043e70f6de90600090a35050505050565b60145481565b6005546001600160a01b03163314611bc15760405162461bcd60e51b815260040161053490614216565b601287905560148690556015859055600e849055600f839055601082905560118190556040517f17fe98b66d27bd793ea01bd8a23a54acab8eeb167d9eb016a0c7cd71c573920c90611c209089908990899089908990899089906146f1565b60405180910390a150505050505050565b6005546001600160a01b03163314611c5b5760405162461bcd60e51b815260040161053490614216565b600d805460ff610100808304821615810261ff001990931692909217928390556040517fd449302f806044ba9a0f0b2862e496c86cb4ef1f6b3fd474113fb26e46d9b28a93610ba693900490911690613f86565b6005546001600160a01b03163314611cd95760405162461bcd60e51b815260040161053490614216565b600d54640100000000900460ff16611cf5576013819055611cfb565b60006013555b600d805460ff640100000000808304821615810264ff000000001990931692909217928390556040517fbf1f9e6d8d67bb57a141c627f40368ec23ed7603249f0c3518c16eafbf9c4f6f93611d5593900490911690613f86565b60405180910390a150565b60125481565b600260009054906101000a90046001600160a01b03166001600160a01b0316636c7ff97b6040518163ffffffff1660e01b8152600401600060405180830381600087803b158015611db657600080fd5b505af1158015611dca573d6000803e3d6000fd5b50505050600360009054906101000a90046001600160a01b03166001600160a01b03166309bf39ed6040518163ffffffff1660e01b815260040160206040518083038186803b158015611e1c57600080fd5b505afa158015611e30573d6000803e3d6000fd5b505050506040513d601f19601f82011682018060405250810190611e549190613dd1565b15611ebd57600360009054906101000a90046001600160a01b03166001600160a01b031663d6f124f06040518163ffffffff1660e01b8152600401600060405180830381600087803b158015611ea957600080fd5b505af1158015610a7a573d6000803e3d6000fd5b565b600d5462010000900460ff1681565b600a5481565b600d5460ff1681565b600d546301000000900460ff1681565b600d54610100900460ff1615611f155760405162461bcd60e51b81526004016105349061427c565b611f1d611d66565b600260009054906101000a90046001600160a01b03166001600160a01b0316634013124a6040518163ffffffff1660e01b8152600401600060405180830381600087803b158015611f6d57600080fd5b505af1158015611f81573d6000803e3d6000fd5b505050506000600260009054906101000a90046001600160a01b03166001600160a01b031663fadb1b026040518163ffffffff1660e01b815260040160206040518083038186803b158015611fd557600080fd5b505afa158015611fe9573d6000803e3d6000fd5b505050506040513d601f19601f8201168201806040525081019061200d9190613e09565b905064e8d4a51000811080156120235750600081115b61203f5760405162461bcd60e51b815260040161053490614086565b6002546040805163fa62921960e01b815290516000926001600160a01b03169163fa629219916004808301926020929190829003018186803b15801561208457600080fd5b505afa158015612098573d6000803e3d6000fd5b505050506040513d601f19601f820116820180604052508101906120bc9190613e09565b905060008282106120cd57826120cf565b815b9050600061210664e8d4a510006107fa6120f9600f5464e8d4a5100061395b90919063ffffffff16565b8a9063ffffffff6139b416565b9050600061213361212664e8d4a510006107fa858763ffffffff6139b416565b839063ffffffff61395b16565b905060006121d5600260009054906101000a90046001600160a01b03166001600160a01b031663ed99250c6040518163ffffffff1660e01b815260040160206040518083038186803b15801561218857600080fd5b505afa15801561219c573d6000803e3d6000fd5b505050506040513d601f19601f820116820180604052508101906121c09190613e09565b6107fa8464e8d4a5100063ffffffff6139b416565b90506121e0816108b1565b905060006121fc600654600a0a856139ee90919063ffffffff16565b9050600061221964e8d4a510006107fa848963ffffffff6139b416565b905060006122286121c061346c565b600a546000546040516370a0823160e01b815292935061226792620100009091046001600160a01b0316906370a08231906106ad903090600401613f35565b8111156122865760405162461bcd60e51b81526004016105349061461e565b808a11156122a65760405162461bcd60e51b8152600401610534906140e3565b838b11156122c65760405162461bcd60e51b815260040161053490614245565b600254604051631096f10360e01b81526001600160a01b0390911690631096f103906122f6903390600401613f35565b60206040518083038186803b15801561230e57600080fd5b505afa158015612322573d6000803e3d6000fd5b505050506040513d601f19601f820116820180604052508101906123469190613dd1565b15612380573360009081526009602052604090205461236b908263ffffffff61398816565b336000908152600960205260409020556124a9565b600061239382600a63ffffffff6139ee16565b905060006123ad600a6107fa85600963ffffffff6139b416565b336000908152600960205260409020549091506123d0908363ffffffff61398816565b33600090815260096020908152604080832093909355600254835163a367e27d60e01b8152935192936001600160a01b039091169263a367e27d92600480840193919291829003018186803b15801561242857600080fd5b505afa15801561243c573d6000803e3d6000fd5b505050506040513d601f19601f820116820180604052508101906124609190613d22565b6001600160a01b03811660009081526009602052604090205490915061248c908363ffffffff61398816565b6001600160a01b0390911660009081526009602052604090205550505b600a546124bc908263ffffffff61398816565b600a5583156126bf57600254604051631096f10360e01b81526001600160a01b0390911690631096f103906124f5903390600401613f35565b60206040518083038186803b15801561250d57600080fd5b505afa158015612521573d6000803e3d6000fd5b505050506040513d601f19601f820116820180604052508101906125459190613dd1565b1561257f573360009081526008602052604090205461256a908563ffffffff61398816565b336000908152600860205260409020556126a8565b600061259285600a63ffffffff6139ee16565b905060006125ac600a6107fa88600963ffffffff6139b416565b336000908152600860205260409020549091506125cf908363ffffffff61398816565b33600090815260086020908152604080832093909355600254835163a367e27d60e01b8152935192936001600160a01b039091169263a367e27d92600480840193919291829003018186803b15801561262757600080fd5b505afa15801561263b573d6000803e3d6000fd5b505050506040513d601f19601f8201168201806040525081019061265f9190613d22565b6001600160a01b03811660009081526008602052604090205490915061268b908363ffffffff61398816565b6001600160a01b0390911660009081526008602052604090205550505b600b546126bb908563ffffffff61398816565b600b555b43600c6000336001600160a01b03166001600160a01b0316815260200190815260200160002081905550600260009054906101000a90046001600160a01b03166001600160a01b031663a8a778ae338e6040518363ffffffff1660e01b815260040161272c929190613f49565b600060405180830381600087803b15801561274657600080fd5b505af115801561275a573d6000803e3d6000fd5b5050505060008411156127d257600154600254604051636361ddf360e11b81526001600160a01b039283169263c6c3bbe69261279f9291169030908990600401613f62565b600060405180830381600087803b1580156127b957600080fd5b505af11580156127cd573d6000803e3d6000fd5b505050505b505050505050505050505050565b6005546001600160a01b031681565b600d54640100000000900460ff1681565b600d54600090640100000000900460ff161515600114156128815761287a64e8d4a510006107fa60135461113e600654600a0a61113e600a54600060029054906101000a90046001600160a01b03166001600160a01b03166370a08231306040518263ffffffff1660e01b81526004016106ad9190613f35565b90506128db565b61287a64e8d4a510006107fa61289561346c565b600654600a80546000546040516370a0823160e01b815261113e9490930a928492916201000090046001600160a01b0316906370a08231906106ad903090600401613f35565b90565b6005546001600160a01b031633146129085760405162461bcd60e51b815260040161053490614216565b600380546001600160a01b03199081166001600160a01b03858116918217909355600780549092169284169283179091556040517f856e4796eef882904bc46a505b32b16c6fbcef9e0930ac95b2f980781517bf6390600090a35050565b600c6020526000908152604090205481565b600d5460ff161561299b5760405162461bcd60e51b81526004016105349061449e565b6129a3611d66565b600260009054906101000a90046001600160a01b03166001600160a01b0316634013124a6040518163ffffffff1660e01b8152600401600060405180830381600087803b1580156129f357600080fd5b505af1158015612a07573d6000803e3d6000fd5b505050506000600260009054906101000a90046001600160a01b03166001600160a01b031663ed99250c6040518163ffffffff1660e01b815260040160206040518083038186803b158015612a5b57600080fd5b505afa158015612a6f573d6000803e3d6000fd5b505050506040513d601f19601f82011682018060405250810190612a939190613e09565b90506000600260009054906101000a90046001600160a01b03166001600160a01b031663fadb1b026040518163ffffffff1660e01b815260040160206040518083038186803b158015612ae557600080fd5b505afa158015612af9573d6000803e3d6000fd5b505050506040513d601f19601f82011682018060405250810190612b1d9190613e09565b905064e8d4a5100081108015612b335750600081115b612b4f5760405162461bcd60e51b815260040161053490614086565b601254600a546000546040516370a0823160e01b8152612b9492899261070992620100009091046001600160a01b0316906370a08231906106ad903090600401613f35565b1115612bb25760405162461bcd60e51b81526004016105349061436f565b600654600a0a8502600080612bd085612bc961346c565b8587613c74565b91509150612c0764e8d4a510006107fa612bfa600e5464e8d4a5100061395b90919063ffffffff16565b859063ffffffff6139b416565b915081861115612c295760405162461bcd60e51b8152600401610534906144c9565b86811115612c495760405162461bcd60e51b815260040161053490613fe1565b6001546002546040516302b7c01160e01b81526001600160a01b03928316926302b7c01192612c819291169033908690600401613f62565b600060405180830381600087803b158015612c9b57600080fd5b505af1158015612caf573d6000803e3d6000fd5b5050600054612cd292506201000090046001600160a01b0316905033308b613a20565b600254604051635a7ab59360e11b81526001600160a01b039091169063b4f56b2690612d049033908690600401613f49565b600060405180830381600087803b158015612d1e57600080fd5b505af11580156127d2573d6000803e3d6000fd5b60086020526000908152604090205481565b600d54610100900460ff1681565b600b5481565b6005546001600160a01b03163314612d825760405162461bcd60e51b815260040161053490614216565b600d805460ff19811660ff9182161517918290556040517f3f3c6b7e51ec0201fea018ffcf768f21f85a27593219359fd6af1d95c7e8b44192610ba6921690613f86565b600e5481565b6005546001600160a01b03163314612df65760405162461bcd60e51b815260040161053490614216565b600d805460ff600160301b808304821615810266ff0000000000001990931692909217928390556040517fd5bc042d6e197fb30aec38c1634dabc01e0bb517e3fea6db130cea575371224693610ba693900490911690613f86565b6005546001600160a01b03163314612e7b5760405162461bcd60e51b815260040161053490614216565b600d805460ff6301000000808304821615810263ff0000001990931692909217928390556040517fef220f30673af554aae10180ad5ab98f41c923213a66d1207dbe61f00aa75acf93610ba693900490911690613f86565b60135481565b600d54610100900460ff1615612f015760405162461bcd60e51b81526004016105349061427c565b612f09611d66565b600260009054906101000a90046001600160a01b03166001600160a01b0316634013124a6040518163ffffffff1660e01b8152600401600060405180830381600087803b158015612f5957600080fd5b505af1158015612f6d573d6000803e3d6000fd5b505050506000600260009054906101000a90046001600160a01b03166001600160a01b031663ed99250c6040518163ffffffff1660e01b815260040160206040518083038186803b158015612fc157600080fd5b505afa158015612fd5573d6000803e3d6000fd5b505050506040513d601f19601f82011682018060405250810190612ff99190613e09565b90506000600260009054906101000a90046001600160a01b03166001600160a01b031663fadb1b026040518163ffffffff1660e01b815260040160206040518083038186803b15801561304b57600080fd5b505afa15801561305f573d6000803e3d6000fd5b505050506040513d601f19601f820116820180604052508101906130839190613e09565b905080156130a35760405162461bcd60e51b815260040161053490614655565b60008490506130ce64e8d4a510006107fa6107ed600f5464e8d4a5100061395b90919063ffffffff16565b905060006130eb846107fa8464e8d4a5100063ffffffff6139b416565b90506130f6816108b1565b905080156132f857600254604051631096f10360e01b81526001600160a01b0390911690631096f1039061312e903390600401613f35565b60206040518083038186803b15801561314657600080fd5b505afa15801561315a573d6000803e3d6000fd5b505050506040513d601f19601f8201168201806040525081019061317e9190613dd1565b156131b857336000908152600860205260409020546131a3908263ffffffff61398816565b336000908152600860205260409020556132e1565b60006131cb82600a63ffffffff6139ee16565b905060006131e5600a6107fa85600963ffffffff6139b416565b33600090815260086020526040902054909150613208908363ffffffff61398816565b33600090815260086020908152604080832093909355600254835163a367e27d60e01b8152935192936001600160a01b039091169263a367e27d92600480840193919291829003018186803b15801561326057600080fd5b505afa158015613274573d6000803e3d6000fd5b505050506040513d601f19601f820116820180604052508101906132989190613d22565b6001600160a01b0381166000908152600860205260409020549091506132c4908363ffffffff61398816565b6001600160a01b0390911660009081526008602052604090205550505b600b546132f4908263ffffffff61398816565b600b555b336000908152600c602052604090204390558085106133295760405162461bcd60e51b8152600401610534906144c9565b600254604051635453bc5760e11b81526001600160a01b039091169063a8a778ae9061335b9033908a90600401613f49565b600060405180830381600087803b15801561337557600080fd5b505af1158015613389573d6000803e3d6000fd5b5050505060008111156133ce57600154600254604051636361ddf360e11b81526001600160a01b039283169263c6c3bbe69261142d9291169030908690600401613f62565b505050505050565b600f5481565b6005546001600160a01b031633146134065760405162461bcd60e51b815260040161053490614216565b600d805460ff62010000808304821615810262ff00001990931692909217928390556040517f7e9a29a085706d1cf00b68ff18532dae53be17faa8be9bab8821c355a393656a93610ba693900490911690613f86565b600d54600160301b900460ff1681565b600d54600090640100000000900460ff1615156001141561349057506013546128db565b60025460408051632d83c63b60e11b815290516000926001600160a01b031691635b078c76916004808301926020929190829003018186803b1580156134d557600080fd5b505afa1580156134e9573d6000803e3d6000fd5b505050506040513d601f19601f8201168201806040525081019061350d9190613e09565b600354600754604051633ddac95360e01b81529293506000926001600160a01b0392831692633ddac9539261354e9291169064e8d4a5100090600401613f49565b60206040518083038186803b15801561356657600080fd5b505afa15801561357a573d6000803e3d6000fd5b505050506040513d601f19601f8201168201806040525081019061359e9190613e09565b90506135b9816107fa8464e8d4a5100063ffffffff6139b416565b925050506128db565b600080600260009054906101000a90046001600160a01b03166001600160a01b03166318160ddd6040518163ffffffff1660e01b815260040160206040518083038186803b15801561361357600080fd5b505afa158015613627573d6000803e3d6000fd5b505050506040513d601f19601f8201168201806040525081019061364b9190613e09565b90506000600260009054906101000a90046001600160a01b03166001600160a01b031663fadb1b026040518163ffffffff1660e01b815260040160206040518083038186803b15801561369d57600080fd5b505afa1580156136b1573d6000803e3d6000fd5b505050506040513d601f19601f820116820180604052508101906136d59190613e09565b90506000600260009054906101000a90046001600160a01b03166001600160a01b031663d2d97b066040518163ffffffff1660e01b815260040160206040518083038186803b15801561372757600080fd5b505afa15801561373b573d6000803e3d6000fd5b505050506040513d601f19601f8201168201806040525081019061375f9190613e09565b9050600061377c64e8d4a510006107fa868663ffffffff6139b416565b9050808211156137a157613796828263ffffffff61395b16565b9450505050506128db565b60009450505050506128db565b600054610100900460ff16806137c757506137c7613cef565b806137d5575060005460ff16155b6137f15760405162461bcd60e51b815260040161053490614321565b600054610100900460ff1615801561381c576000805460ff1961ff0019909116610100171660011790555b600280546001600160a01b03199081166001600160a01b0388811691909117909255600180548216878416179055600480548216868416908117825560058054909316868516179092556000805462010000600160b01b0319166201000093840217908190556040805163313ce56760e01b8152905161390b95949092049093169263313ce5679281810192602092909190829003018186803b1580156138c257600080fd5b505afa1580156138d6573d6000803e3d6000fd5b505050506040513d601f19601f820116820180604052508101906138fa9190613edb565b60129060ff1663ffffffff61395b16565b6006556ec097ce7bc90715b34b9f10000000006012556401bf08eb00601455600160155563b2d05e00600e819055600f55801561394e576000805461ff00191690555b5050505050565b60115481565b60008282111561397d5760405162461bcd60e51b815260040161053490614177565b508082035b92915050565b6000828201838110156139ad5760405162461bcd60e51b81526004016105349061404f565b9392505050565b6000826139c357506000613982565b828202828482816139d057fe5b04146139ad5760405162461bcd60e51b8152600401610534906143de565b6000808211613a0f5760405162461bcd60e51b8152600401610534906142a9565b818381613a1857fe5b049392505050565b60006060856001600160a01b03166323b872dd868686604051602401613a4893929190613f62565b6040516020818303038152906040529060e01b6020820180516001600160e01b038381831617835250505050604051613a819190613efc565b6000604051808303816000865af19150503d8060008114613abe576040519150601f19603f3d011682016040523d82523d6000602084013e613ac3565b606091505b5091509150818015613aed575080511580613aed575080806020019051810190613aed9190613dd1565b6133ce5760405162461bcd60e51b815260040161053490614126565b60006060846001600160a01b031663a9059cbb8585604051602401613b2f929190613f49565b6040516020818303038152906040529060e01b6020820180516001600160e01b038381831617835250505050604051613b689190613efc565b6000604051808303816000865af19150503d8060008114613ba5576040519150601f19603f3d011682016040523d82523d6000602084013e613baa565b606091505b5091509150818015613bd4575080511580613bd4575080806020019051810190613bd49190613dd1565b61394e5760405162461bcd60e51b815260040161053490614565565b6000808511613c115760405162461bcd60e51b8152600401610534906142e0565b6000613c2c64e8d4a510006107fa858863ffffffff6139b416565b905085811115613c4e5760405162461bcd60e51b815260040161053490613f91565b6000613c69856107fa8464e8d4a5100063ffffffff6139b416565b979650505050505050565b60008080613c9164e8d4a510006107fa878963ffffffff6139b416565b90506000613cb2826106fd876107fa8364e8d4a5100063ffffffff6139b416565b90506000613ccf896107fa8464e8d4a5100063ffffffff6139b416565b9050613ce1838363ffffffff61398816565b999098509650505050505050565b6000613cfa30613d00565b15905090565b3b151590565b600060208284031215613d17578081fd5b81356139ad81614721565b600060208284031215613d33578081fd5b81516139ad81614721565b60008060408385031215613d50578081fd5b8235613d5b81614721565b91506020830135613d6b81614721565b809150509250929050565b60008060008060808587031215613d8b578182fd5b8435613d9681614721565b93506020850135613da681614721565b92506040850135613db681614721565b91506060850135613dc681614721565b939692955090935050565b600060208284031215613de2578081fd5b815180151581146139ad578182fd5b600060208284031215613e02578081fd5b5035919050565b600060208284031215613e1a578081fd5b5051919050565b60008060408385031215613e33578182fd5b50508035926020909101359150565b60008060408385031215613e54578182fd5b505080516020909101519092909150565b600080600060608486031215613e79578283fd5b505081359360208301359350604090920135919050565b600080600080600080600060e0888a031215613eaa578283fd5b505085359760208701359750604087013596606081013596506080810135955060a0810135945060c0013592509050565b600060208284031215613eec578081fd5b815160ff811681146139ad578182fd5b60008251815b81811015613f1c5760208186018101518583015201613f02565b81811115613f2a5782828501525b509190910192915050565b6001600160a01b0391909116815260200190565b6001600160a01b03929092168252602082015260400190565b6001600160a01b039384168152919092166020820152604081019190915260600190565b901515815260200190565b60208082526030908201527f596f752061726520747279696e6720746f20627579206261636b206d6f72652060408201526f7468616e20746865206578636573732160801b606082015260800190565b60208082526017908201527f4e6f7420656e6f7567682042445820696e707574746564000000000000000000604082015260600190565b6020808252601d908201527f436f6c6c61746572616c20726174696f206d757374206265203e3d2031000000604082015260600190565b6020808252601b908201527f536166654d6174683a206164646974696f6e206f766572666c6f770000000000604082015260600190565b60208082526038908201527f436f6c6c61746572616c20726174696f206e6565647320746f2062652062657460408201527f7765656e202e30303030303120616e64202e3939393939390000000000000000606082015260800190565b60208082526023908201527f536c697070616765206c696d69742072656163686564205b636f6c6c61746572604082015262616c5d60e81b606082015260800190565b60208082526031908201527f5472616e7366657248656c7065723a3a7472616e7366657246726f6d3a207472604082015270185b9cd9995c919c9bdb4819985a5b1959607a1b606082015260800190565b6020808252601e908201527f536166654d6174683a207375627472616374696f6e206f766572666c6f770000604082015260600190565b60208082526042908201527f4d757374207761697420666f7220726564656d7074696f6e5f64656c6179206260408201527f6c6f636b73206265666f726520636f6c6c656374696e6720726564656d70746960608201526137b760f11b608082015260a00190565b6020808252601590820152742cb7ba9030b932903737ba103a34329037bbb732b960591b604082015260600190565b6020808252601c908201527f536c697070616765206c696d69742072656163686564205b4244585d00000000604082015260600190565b60208082526013908201527214995919595b5a5b99c81a5cc81c185d5cd959606a1b604082015260600190565b6020808252601a908201527f536166654d6174683a206469766973696f6e206279207a65726f000000000000604082015260600190565b60208082526021908201527f4e6f2065786365737320636f6c6c61746572616c20746f20627579206261636b6040820152602160f81b606082015260800190565b6020808252602e908201527f496e697469616c697a61626c653a20636f6e747261637420697320616c72656160408201526d191e481a5b9a5d1a585b1a5e995960921b606082015260800190565b60208082526049908201527f506f6f6c206365696c696e6720726561636865642c206e6f206d6f726520426460408201527f537461626c652063616e206265206d696e7465642077697468207468697320636060820152681bdb1b185d195c985b60ba1b608082015260a00190565b60208082526021908201527f536166654d6174683a206d756c7469706c69636174696f6e206f766572666c6f6040820152607760f81b606082015260800190565b60208082526028908201527f43757272656e746c79206f6e6c79206f776e65722063616e207265636f6c6c61604082015267746572616c697a6560c01b606082015260800190565b6020808252601d908201527f436f6c6c61746572616c20726174696f206d757374206265203d3d2031000000604082015260600190565b602080825260119082015270135a5b9d1a5b99c81a5cc81c185d5cd959607a1b604082015260600190565b60208082526016908201527514db1a5c1c1859d9481b1a5b5a5d081c995858da195960521b604082015260600190565b6020808252818101527f5b506f6f6c277320436c6f7365645d3a204365696c696e672072656163686564604082015260600190565b60208082526019908201527f5265636f6c6c61746572616c697a652069732070617573656400000000000000604082015260600190565b6020808252602d908201527f5472616e7366657248656c7065723a3a736166655472616e736665723a20747260408201526c185b9cd9995c8819985a5b1959609a1b606082015260800190565b6020808252818101527f43757272656e746c79206f6e6c79206f776e65722063616e206275796261636b604082015260600190565b6020808252601f908201527f4e6577206f776e65722063616e2774206265207a65726f206164647265737300604082015260600190565b6020808252601d908201527f4e6f7420656e6f75676820636f6c6c61746572616c20696e20706f6f6c000000604082015260600190565b6020808252601a908201527f436f6c6c61746572616c20726174696f206d7573742062652030000000000000604082015260600190565b602080825260119082015270109d5e589858dac81a5cc81c185d5cd959607a1b604082015260600190565b90815260200190565b918252602082015260400190565b948552602085019390935260408401919091526060830152608082015260a00190565b968752602087019590955260408601939093526060850191909152608084015260a083015260c082015260e00190565b6001600160a01b038116811461473657600080fd5b5056fea26469706673582212208f9f3fc108b9b70e975be2b96c77b028ce4a3f6598a52187aaa9c7d280208a3464736f6c634300060b0033",
  "libraries": {
    "BdPoolLibrary": "0x845E553e1Aa69A3f2Df27d6D4E6e6F0fbeB6CCcd"
  },
  "devdoc": {
    "kind": "dev",
    "methods": {},
    "version": 1
  },
  "userdoc": {
    "kind": "user",
    "methods": {},
    "version": 1
  },
  "storageLayout": {
    "storage": [
      {
        "astId": 492,
        "contract": "contracts/BdStable/Pools/BdStablePool.sol:BdStablePool",
        "label": "_initialized",
        "offset": 0,
        "slot": "0",
        "type": "t_bool"
      },
      {
        "astId": 495,
        "contract": "contracts/BdStable/Pools/BdStablePool.sol:BdStablePool",
        "label": "_initializing",
        "offset": 1,
        "slot": "0",
        "type": "t_bool"
      },
      {
        "astId": 4581,
        "contract": "contracts/BdStable/Pools/BdStablePool.sol:BdStablePool",
        "label": "collateral_token",
        "offset": 2,
        "slot": "0",
        "type": "t_contract(ERC20)2529"
      },
      {
        "astId": 4583,
        "contract": "contracts/BdStable/Pools/BdStablePool.sol:BdStablePool",
        "label": "BDX",
        "offset": 0,
        "slot": "1",
        "type": "t_contract(BDXShares)7024"
      },
      {
        "astId": 4585,
        "contract": "contracts/BdStable/Pools/BdStablePool.sol:BdStablePool",
        "label": "BDSTABLE",
        "offset": 0,
        "slot": "2",
        "type": "t_contract(BDStable)4319"
      },
      {
        "astId": 4587,
        "contract": "contracts/BdStable/Pools/BdStablePool.sol:BdStablePool",
        "label": "collatWEthOracle",
        "offset": 0,
        "slot": "3",
        "type": "t_contract(ICryptoPairOracle)9112"
      },
      {
        "astId": 4589,
        "contract": "contracts/BdStable/Pools/BdStablePool.sol:BdStablePool",
        "label": "collateral_address",
        "offset": 0,
        "slot": "4",
        "type": "t_address"
      },
      {
        "astId": 4591,
        "contract": "contracts/BdStable/Pools/BdStablePool.sol:BdStablePool",
        "label": "owner_address",
        "offset": 0,
        "slot": "5",
        "type": "t_address"
      },
      {
        "astId": 4593,
        "contract": "contracts/BdStable/Pools/BdStablePool.sol:BdStablePool",
        "label": "missing_decimals",
        "offset": 0,
        "slot": "6",
        "type": "t_uint256"
      },
      {
        "astId": 4595,
        "contract": "contracts/BdStable/Pools/BdStablePool.sol:BdStablePool",
        "label": "weth_address",
        "offset": 0,
        "slot": "7",
        "type": "t_address"
      },
      {
        "astId": 4599,
        "contract": "contracts/BdStable/Pools/BdStablePool.sol:BdStablePool",
        "label": "redeemBDXBalances",
        "offset": 0,
        "slot": "8",
        "type": "t_mapping(t_address,t_uint256)"
      },
      {
        "astId": 4603,
        "contract": "contracts/BdStable/Pools/BdStablePool.sol:BdStablePool",
        "label": "redeemCollateralBalances",
        "offset": 0,
        "slot": "9",
        "type": "t_mapping(t_address,t_uint256)"
      },
      {
        "astId": 4605,
        "contract": "contracts/BdStable/Pools/BdStablePool.sol:BdStablePool",
        "label": "unclaimedPoolCollateral",
        "offset": 0,
        "slot": "10",
        "type": "t_uint256"
      },
      {
        "astId": 4607,
        "contract": "contracts/BdStable/Pools/BdStablePool.sol:BdStablePool",
        "label": "unclaimedPoolBDX",
        "offset": 0,
        "slot": "11",
        "type": "t_uint256"
      },
      {
        "astId": 4611,
        "contract": "contracts/BdStable/Pools/BdStablePool.sol:BdStablePool",
        "label": "lastRedeemed",
        "offset": 0,
        "slot": "12",
        "type": "t_mapping(t_address,t_uint256)"
      },
      {
        "astId": 4613,
        "contract": "contracts/BdStable/Pools/BdStablePool.sol:BdStablePool",
        "label": "mintPaused",
        "offset": 0,
        "slot": "13",
        "type": "t_bool"
      },
      {
        "astId": 4615,
        "contract": "contracts/BdStable/Pools/BdStablePool.sol:BdStablePool",
        "label": "redeemPaused",
        "offset": 1,
        "slot": "13",
        "type": "t_bool"
      },
      {
        "astId": 4617,
        "contract": "contracts/BdStable/Pools/BdStablePool.sol:BdStablePool",
        "label": "recollateralizePaused",
        "offset": 2,
        "slot": "13",
        "type": "t_bool"
      },
      {
        "astId": 4619,
        "contract": "contracts/BdStable/Pools/BdStablePool.sol:BdStablePool",
        "label": "buyBackPaused",
        "offset": 3,
        "slot": "13",
        "type": "t_bool"
      },
      {
        "astId": 4621,
        "contract": "contracts/BdStable/Pools/BdStablePool.sol:BdStablePool",
        "label": "collateralPricePaused",
        "offset": 4,
        "slot": "13",
        "type": "t_bool"
      },
      {
        "astId": 4623,
        "contract": "contracts/BdStable/Pools/BdStablePool.sol:BdStablePool",
        "label": "recollateralizeOnlyForOwner",
        "offset": 5,
        "slot": "13",
        "type": "t_bool"
      },
      {
        "astId": 4625,
        "contract": "contracts/BdStable/Pools/BdStablePool.sol:BdStablePool",
        "label": "buybackOnlyForOwner",
        "offset": 6,
        "slot": "13",
        "type": "t_bool"
      },
      {
        "astId": 4627,
        "contract": "contracts/BdStable/Pools/BdStablePool.sol:BdStablePool",
        "label": "minting_fee",
        "offset": 0,
        "slot": "14",
        "type": "t_uint256"
      },
      {
        "astId": 4629,
        "contract": "contracts/BdStable/Pools/BdStablePool.sol:BdStablePool",
        "label": "redemption_fee",
        "offset": 0,
        "slot": "15",
        "type": "t_uint256"
      },
      {
        "astId": 4631,
        "contract": "contracts/BdStable/Pools/BdStablePool.sol:BdStablePool",
        "label": "buyback_fee",
        "offset": 0,
        "slot": "16",
        "type": "t_uint256"
      },
      {
        "astId": 4633,
        "contract": "contracts/BdStable/Pools/BdStablePool.sol:BdStablePool",
        "label": "recollat_fee",
        "offset": 0,
        "slot": "17",
        "type": "t_uint256"
      },
      {
        "astId": 4635,
        "contract": "contracts/BdStable/Pools/BdStablePool.sol:BdStablePool",
        "label": "pool_ceiling",
        "offset": 0,
        "slot": "18",
        "type": "t_uint256"
      },
      {
        "astId": 4637,
        "contract": "contracts/BdStable/Pools/BdStablePool.sol:BdStablePool",
        "label": "pausedPrice",
        "offset": 0,
        "slot": "19",
        "type": "t_uint256"
      },
      {
        "astId": 4639,
        "contract": "contracts/BdStable/Pools/BdStablePool.sol:BdStablePool",
        "label": "bonus_rate",
        "offset": 0,
        "slot": "20",
        "type": "t_uint256"
      },
      {
        "astId": 4641,
        "contract": "contracts/BdStable/Pools/BdStablePool.sol:BdStablePool",
        "label": "redemption_delay",
        "offset": 0,
        "slot": "21",
        "type": "t_uint256"
      }
    ],
    "types": {
      "t_address": {
        "encoding": "inplace",
        "label": "address",
        "numberOfBytes": "20"
      },
      "t_bool": {
        "encoding": "inplace",
        "label": "bool",
        "numberOfBytes": "1"
      },
      "t_contract(BDStable)4319": {
        "encoding": "inplace",
        "label": "contract BDStable",
        "numberOfBytes": "20"
      },
      "t_contract(BDXShares)7024": {
        "encoding": "inplace",
        "label": "contract BDXShares",
        "numberOfBytes": "20"
      },
      "t_contract(ERC20)2529": {
        "encoding": "inplace",
        "label": "contract ERC20",
        "numberOfBytes": "20"
      },
      "t_contract(ICryptoPairOracle)9112": {
        "encoding": "inplace",
        "label": "contract ICryptoPairOracle",
        "numberOfBytes": "20"
      },
      "t_mapping(t_address,t_uint256)": {
        "encoding": "mapping",
        "key": "t_address",
        "label": "mapping(address => uint256)",
        "numberOfBytes": "32",
        "value": "t_uint256"
      },
      "t_uint256": {
        "encoding": "inplace",
        "label": "uint256",
        "numberOfBytes": "32"
      }
    }
  }
}