{
  "address": "0x4f3F32DD442b94F515e0D420658cC78f2423c1AA",
  "abi": [
    {
      "anonymous": false,
      "inputs": [
        {
          "indexed": true,
          "internalType": "uint256",
          "name": "bdx_amount_paid",
          "type": "uint256"
        },
        {
          "indexed": true,
          "internalType": "uint256",
          "name": "collateral_paid_back",
          "type": "uint256"
        }
      ],
      "name": "BoughtBack",
      "type": "event"
    },
    {
      "anonymous": false,
      "inputs": [
        {
          "indexed": false,
          "internalType": "bool",
          "name": "buybackOnlyForOwner",
          "type": "bool"
        }
      ],
      "name": "BuybackOnlyForOwnerToggled",
      "type": "event"
    },
    {
      "anonymous": false,
      "inputs": [
        {
          "indexed": false,
          "internalType": "bool",
          "name": "toggled",
          "type": "bool"
        }
      ],
      "name": "BuybackPausedToggled",
      "type": "event"
    },
    {
      "anonymous": false,
      "inputs": [
        {
          "indexed": false,
          "internalType": "bool",
          "name": "toggled",
          "type": "bool"
        }
      ],
      "name": "CollateralPriceToggled",
      "type": "event"
    },
    {
      "anonymous": false,
      "inputs": [
        {
          "indexed": true,
          "internalType": "address",
          "name": "collateral_weth_oracle_address",
          "type": "address"
        },
        {
          "indexed": true,
          "internalType": "address",
          "name": "weth_address",
          "type": "address"
        }
      ],
      "name": "CollateralWethOracleSet",
      "type": "event"
    },
    {
      "anonymous": false,
      "inputs": [
        {
          "indexed": false,
          "internalType": "bool",
          "name": "toggled",
          "type": "bool"
        }
      ],
      "name": "MintingPausedToggled",
      "type": "event"
    },
    {
      "anonymous": false,
      "inputs": [
        {
          "indexed": true,
          "internalType": "address",
          "name": "newOwner",
          "type": "address"
        }
      ],
      "name": "OwnerSet",
      "type": "event"
    },
    {
      "anonymous": false,
      "inputs": [
        {
          "indexed": false,
          "internalType": "uint256",
          "name": "new_ceiling",
          "type": "uint256"
        },
        {
          "indexed": false,
          "internalType": "uint256",
          "name": "new_bonus_rate",
          "type": "uint256"
        },
        {
          "indexed": false,
          "internalType": "uint256",
          "name": "new_redemption_delay",
          "type": "uint256"
        },
        {
          "indexed": false,
          "internalType": "uint256",
          "name": "new_mint_fee",
          "type": "uint256"
        },
        {
          "indexed": false,
          "internalType": "uint256",
          "name": "new_redeem_fee",
          "type": "uint256"
        },
        {
          "indexed": false,
          "internalType": "uint256",
          "name": "new_buyback_fee",
          "type": "uint256"
        },
        {
          "indexed": false,
          "internalType": "uint256",
          "name": "new_recollat_fee",
          "type": "uint256"
        }
      ],
      "name": "PoolParametersSet",
      "type": "event"
    },
    {
      "anonymous": false,
      "inputs": [
        {
          "indexed": false,
          "internalType": "bool",
          "name": "recollateralizeOnlyForOwner",
          "type": "bool"
        }
      ],
      "name": "RecollateralizeOnlyForOwnerToggled",
      "type": "event"
    },
    {
      "anonymous": false,
      "inputs": [
        {
          "indexed": false,
          "internalType": "bool",
          "name": "toggled",
          "type": "bool"
        }
      ],
      "name": "RecollateralizePausedToggled",
      "type": "event"
    },
    {
      "anonymous": false,
      "inputs": [
        {
          "indexed": true,
          "internalType": "uint256",
          "name": "collateral_amount_paid",
          "type": "uint256"
        },
        {
          "indexed": true,
          "internalType": "uint256",
          "name": "bdx_paid_back",
          "type": "uint256"
        }
      ],
      "name": "Recollateralized",
      "type": "event"
    },
    {
      "anonymous": false,
      "inputs": [
        {
          "indexed": false,
          "internalType": "bool",
          "name": "toggled",
          "type": "bool"
        }
      ],
      "name": "RedeemingPausedToggled",
      "type": "event"
    },
    {
      "inputs": [],
      "name": "availableExcessCollatDV",
      "outputs": [
        {
          "internalType": "uint256",
          "name": "",
          "type": "uint256"
        }
      ],
      "stateMutability": "view",
      "type": "function"
    },
    {
      "inputs": [],
      "name": "bonus_rate",
      "outputs": [
        {
          "internalType": "uint256",
          "name": "",
          "type": "uint256"
        }
      ],
      "stateMutability": "view",
      "type": "function"
    },
    {
      "inputs": [
        {
          "internalType": "uint256",
          "name": "BDX_amount",
          "type": "uint256"
        },
        {
          "internalType": "uint256",
          "name": "COLLATERAL_out_min",
          "type": "uint256"
        },
        {
          "internalType": "bool",
          "name": "useNativeToken",
          "type": "bool"
        }
      ],
      "name": "buyBackBDX",
      "outputs": [],
      "stateMutability": "nonpayable",
      "type": "function"
    },
    {
      "inputs": [],
      "name": "buyBackPaused",
      "outputs": [
        {
          "internalType": "bool",
          "name": "",
          "type": "bool"
        }
      ],
      "stateMutability": "view",
      "type": "function"
    },
    {
      "inputs": [],
      "name": "buybackOnlyForOwner",
      "outputs": [
        {
          "internalType": "bool",
          "name": "",
          "type": "bool"
        }
      ],
      "stateMutability": "view",
      "type": "function"
    },
    {
      "inputs": [],
      "name": "buyback_fee",
      "outputs": [
        {
          "internalType": "uint256",
          "name": "",
          "type": "uint256"
        }
      ],
      "stateMutability": "view",
      "type": "function"
    },
    {
      "inputs": [],
      "name": "collatFiatBalance",
      "outputs": [
        {
          "internalType": "uint256",
          "name": "",
          "type": "uint256"
        }
      ],
      "stateMutability": "view",
      "type": "function"
    },
    {
      "inputs": [],
      "name": "collateralPricePaused",
      "outputs": [
        {
          "internalType": "bool",
          "name": "",
          "type": "bool"
        }
      ],
      "stateMutability": "view",
      "type": "function"
    },
    {
      "inputs": [],
      "name": "collateral_address",
      "outputs": [
        {
          "internalType": "address",
          "name": "",
          "type": "address"
        }
      ],
      "stateMutability": "view",
      "type": "function"
    },
    {
      "inputs": [
        {
          "internalType": "bool",
          "name": "useNativeToken",
          "type": "bool"
        }
      ],
      "name": "collectRedemption",
      "outputs": [],
      "stateMutability": "nonpayable",
      "type": "function"
    },
    {
      "inputs": [],
      "name": "getCollateralPrice_d12",
      "outputs": [
        {
          "internalType": "uint256",
          "name": "",
          "type": "uint256"
        }
      ],
      "stateMutability": "view",
      "type": "function"
    },
    {
      "inputs": [
        {
          "internalType": "address",
          "name": "_bdstable_contract_address",
          "type": "address"
        },
        {
          "internalType": "address",
          "name": "_bdx_contract_address",
          "type": "address"
        },
        {
          "internalType": "address",
          "name": "_collateral_address",
          "type": "address"
        },
        {
          "internalType": "address",
          "name": "_creator_address",
          "type": "address"
        },
        {
          "internalType": "bool",
          "name": "_is_collateral_wrapping_native_token",
          "type": "bool"
        }
      ],
      "name": "initialize",
      "outputs": [],
      "stateMutability": "nonpayable",
      "type": "function"
    },
    {
      "inputs": [],
      "name": "is_collateral_wrapping_native_token",
      "outputs": [
        {
          "internalType": "bool",
          "name": "",
          "type": "bool"
        }
      ],
      "stateMutability": "view",
      "type": "function"
    },
    {
      "inputs": [
        {
          "internalType": "address",
          "name": "",
          "type": "address"
        }
      ],
      "name": "lastRedeemed",
      "outputs": [
        {
          "internalType": "uint256",
          "name": "",
          "type": "uint256"
        }
      ],
      "stateMutability": "view",
      "type": "function"
    },
    {
      "inputs": [
        {
          "internalType": "uint256",
          "name": "collateral_amount",
          "type": "uint256"
        },
        {
          "internalType": "uint256",
          "name": "BD_out_min",
          "type": "uint256"
        },
        {
          "internalType": "bool",
          "name": "useNativeToken",
          "type": "bool"
        }
      ],
      "name": "mint1t1BD",
      "outputs": [],
      "stateMutability": "payable",
      "type": "function"
    },
    {
      "inputs": [
        {
          "internalType": "uint256",
          "name": "bdx_amount_d18",
          "type": "uint256"
        },
        {
          "internalType": "uint256",
          "name": "bdStable_out_min",
          "type": "uint256"
        }
      ],
      "name": "mintAlgorithmicBdStable",
      "outputs": [],
      "stateMutability": "nonpayable",
      "type": "function"
    },
    {
      "inputs": [
        {
          "internalType": "uint256",
          "name": "collateral_amount",
          "type": "uint256"
        },
        {
          "internalType": "uint256",
          "name": "bdx_in_max",
          "type": "uint256"
        },
        {
          "internalType": "uint256",
          "name": "bdStable_out_min",
          "type": "uint256"
        },
        {
          "internalType": "bool",
          "name": "useNativeToken",
          "type": "bool"
        }
      ],
      "name": "mintFractionalBdStable",
      "outputs": [],
      "stateMutability": "payable",
      "type": "function"
    },
    {
      "inputs": [],
      "name": "mintPaused",
      "outputs": [
        {
          "internalType": "bool",
          "name": "",
          "type": "bool"
        }
      ],
      "stateMutability": "view",
      "type": "function"
    },
    {
      "inputs": [],
      "name": "minting_fee",
      "outputs": [
        {
          "internalType": "uint256",
          "name": "",
          "type": "uint256"
        }
      ],
      "stateMutability": "view",
      "type": "function"
    },
    {
      "inputs": [],
      "name": "owner_address",
      "outputs": [
        {
          "internalType": "address",
          "name": "",
          "type": "address"
        }
      ],
      "stateMutability": "view",
      "type": "function"
    },
    {
      "inputs": [],
      "name": "pausedPrice",
      "outputs": [
        {
          "internalType": "uint256",
          "name": "",
          "type": "uint256"
        }
      ],
      "stateMutability": "view",
      "type": "function"
    },
    {
      "inputs": [],
      "name": "pool_ceiling",
      "outputs": [
        {
          "internalType": "uint256",
          "name": "",
          "type": "uint256"
        }
      ],
      "stateMutability": "view",
      "type": "function"
    },
    {
      "inputs": [],
      "name": "recollat_fee",
      "outputs": [
        {
          "internalType": "uint256",
          "name": "",
          "type": "uint256"
        }
      ],
      "stateMutability": "view",
      "type": "function"
    },
    {
      "inputs": [
        {
          "internalType": "uint256",
          "name": "collateral_amount",
          "type": "uint256"
        },
        {
          "internalType": "uint256",
          "name": "BDX_out_min",
          "type": "uint256"
        },
        {
          "internalType": "bool",
          "name": "useNativeToken",
          "type": "bool"
        }
      ],
      "name": "recollateralizeBdStable",
      "outputs": [],
      "stateMutability": "payable",
      "type": "function"
    },
    {
      "inputs": [],
      "name": "recollateralizeOnlyForOwner",
      "outputs": [
        {
          "internalType": "bool",
          "name": "",
          "type": "bool"
        }
      ],
      "stateMutability": "view",
      "type": "function"
    },
    {
      "inputs": [],
      "name": "recollateralizePaused",
      "outputs": [
        {
          "internalType": "bool",
          "name": "",
          "type": "bool"
        }
      ],
      "stateMutability": "view",
      "type": "function"
    },
    {
      "inputs": [
        {
          "internalType": "uint256",
          "name": "BD_amount",
          "type": "uint256"
        },
        {
          "internalType": "uint256",
          "name": "COLLATERAL_out_min",
          "type": "uint256"
        }
      ],
      "name": "redeem1t1BD",
      "outputs": [],
      "stateMutability": "nonpayable",
      "type": "function"
    },
    {
      "inputs": [
        {
          "internalType": "uint256",
          "name": "bdStable_amount",
          "type": "uint256"
        },
        {
          "internalType": "uint256",
          "name": "bdx_out_min",
          "type": "uint256"
        }
      ],
      "name": "redeemAlgorithmicBdStable",
      "outputs": [],
      "stateMutability": "nonpayable",
      "type": "function"
    },
    {
      "inputs": [
        {
          "internalType": "address",
          "name": "",
          "type": "address"
        }
      ],
      "name": "redeemBDXBalances",
      "outputs": [
        {
          "internalType": "uint256",
          "name": "",
          "type": "uint256"
        }
      ],
      "stateMutability": "view",
      "type": "function"
    },
    {
      "inputs": [
        {
          "internalType": "address",
          "name": "",
          "type": "address"
        }
      ],
      "name": "redeemCollateralBalances",
      "outputs": [
        {
          "internalType": "uint256",
          "name": "",
          "type": "uint256"
        }
      ],
      "stateMutability": "view",
      "type": "function"
    },
    {
      "inputs": [
        {
          "internalType": "uint256",
          "name": "BdStable_amount",
          "type": "uint256"
        },
        {
          "internalType": "uint256",
          "name": "BDX_out_min",
          "type": "uint256"
        },
        {
          "internalType": "uint256",
          "name": "COLLATERAL_out_min",
          "type": "uint256"
        }
      ],
      "name": "redeemFractionalBdStable",
      "outputs": [],
      "stateMutability": "nonpayable",
      "type": "function"
    },
    {
      "inputs": [],
      "name": "redeemPaused",
      "outputs": [
        {
          "internalType": "bool",
          "name": "",
          "type": "bool"
        }
      ],
      "stateMutability": "view",
      "type": "function"
    },
    {
      "inputs": [],
      "name": "redemption_delay",
      "outputs": [
        {
          "internalType": "uint256",
          "name": "",
          "type": "uint256"
        }
      ],
      "stateMutability": "view",
      "type": "function"
    },
    {
      "inputs": [],
      "name": "redemption_fee",
      "outputs": [
        {
          "internalType": "uint256",
          "name": "",
          "type": "uint256"
        }
      ],
      "stateMutability": "view",
      "type": "function"
    },
    {
      "inputs": [
        {
          "internalType": "address",
          "name": "_collateral_weth_oracle_address",
          "type": "address"
        },
        {
          "internalType": "address",
          "name": "_weth_address",
          "type": "address"
        }
      ],
      "name": "setCollatWETHOracle",
      "outputs": [],
      "stateMutability": "nonpayable",
      "type": "function"
    },
    {
      "inputs": [
        {
          "internalType": "address",
          "name": "_owner_address",
          "type": "address"
        }
      ],
      "name": "setOwner",
      "outputs": [],
      "stateMutability": "nonpayable",
      "type": "function"
    },
    {
      "inputs": [
        {
          "internalType": "uint256",
          "name": "new_ceiling",
          "type": "uint256"
        },
        {
          "internalType": "uint256",
          "name": "new_bonus_rate",
          "type": "uint256"
        },
        {
          "internalType": "uint256",
          "name": "new_redemption_delay",
          "type": "uint256"
        },
        {
          "internalType": "uint256",
          "name": "new_mint_fee",
          "type": "uint256"
        },
        {
          "internalType": "uint256",
          "name": "new_redeem_fee",
          "type": "uint256"
        },
        {
          "internalType": "uint256",
          "name": "new_buyback_fee",
          "type": "uint256"
        },
        {
          "internalType": "uint256",
          "name": "new_recollat_fee",
          "type": "uint256"
        }
      ],
      "name": "setPoolParameters",
      "outputs": [],
      "stateMutability": "nonpayable",
      "type": "function"
    },
    {
      "inputs": [],
      "name": "toggleBuybackOnlyForOwner",
      "outputs": [],
      "stateMutability": "nonpayable",
      "type": "function"
    },
    {
      "inputs": [],
      "name": "toggleBuybackPaused",
      "outputs": [],
      "stateMutability": "nonpayable",
      "type": "function"
    },
    {
      "inputs": [
        {
          "internalType": "uint256",
          "name": "_new_price",
          "type": "uint256"
        }
      ],
      "name": "toggleCollateralPricePaused",
      "outputs": [],
      "stateMutability": "nonpayable",
      "type": "function"
    },
    {
      "inputs": [],
      "name": "toggleMintingPaused",
      "outputs": [],
      "stateMutability": "nonpayable",
      "type": "function"
    },
    {
      "inputs": [],
      "name": "toggleRecollateralizeOnlyForOwner",
      "outputs": [],
      "stateMutability": "nonpayable",
      "type": "function"
    },
    {
      "inputs": [],
      "name": "toggleRecollateralizePaused",
      "outputs": [],
      "stateMutability": "nonpayable",
      "type": "function"
    },
    {
      "inputs": [],
      "name": "toggleRedeemingPaused",
      "outputs": [],
      "stateMutability": "nonpayable",
      "type": "function"
    },
    {
      "inputs": [],
      "name": "unclaimedPoolCollateral",
      "outputs": [
        {
          "internalType": "uint256",
          "name": "",
          "type": "uint256"
        }
      ],
      "stateMutability": "view",
      "type": "function"
    },
    {
      "inputs": [],
      "name": "updateOraclesIfNeeded",
      "outputs": [],
      "stateMutability": "nonpayable",
      "type": "function"
    },
    {
      "stateMutability": "payable",
      "type": "receive"
    }
  ],
  "transactionHash": "0xe8e741df5dcc108104ed01f9eddad41c21435c45a43f701b79fc29fce4b33af1",
  "args": [],
  "solcInputHash": "964b643a9886544e5729090027eb9ffb",
  "bytecode": "0x608060405234801561001057600080fd5b50614f21806100206000396000f3fe6080604052600436106102815760003560e01c80638d2ac7a41161014f578063c3abe077116100c1578063deeea8381161007a578063deeea838146106a4578063e69d3010146106b9578063f08493eb146106ce578063f61adab2146106e1578063fc5b5fda146106f6578063fede5c9c146107165761029c565b8063c3abe07714610610578063c74ec56a14610625578063c7afa7cf1461063a578063cb73999f1461065a578063cbf81dba1461066f578063ceecb0f2146106845761029c565b8063abae2c4c11610113578063abae2c4c1461057c578063ac6d7d6b1461059c578063b235d468146105bc578063bbf0ce1d146105d1578063c3355b8d146105e6578063c39e011f146105fb5761029c565b80638d2ac7a41461050a5780638e5d63eb1461051f5780639ccabfb514610534578063a6c2ddf414610549578063a6e6aa281461055c5761029c565b80634c634934116101f35780636d2c5615116101ac5780636d2c5615146104815780637b0461e9146104965780637e4831d3146104ab5780637f877f85146104c05780637fbc9090146104d557806380edef8e146104f55761029c565b80634c634934146103ed5780634ebbe762146104025780635f55504c1461042257806364fe5de2146104375780636526a12a146104575780636c7ff97b1461046c5761029c565b80631d833ca6116102455780631d833ca6146103365780631eaa0e171461035657806326862f9e146103785780632efca534146103985780633c295778146103ba57806341d2a54d146103da5761029c565b806308a7493d146102a1578063101197c7146102d757806313af4035146102ec578063151284251461030c5780631c309e0a146103215761029c565b3661029c576003546001600160a01b0316331461029a57fe5b005b600080fd5b3480156102ad57600080fd5b506102c16102bc366004614365565b61072b565b6040516102ce9190614e5b565b60405180910390f35b3480156102e357600080fd5b506102c161073d565b3480156102f857600080fd5b5061029a610307366004614365565b610743565b34801561031857600080fd5b506102c16107e6565b34801561032d57600080fd5b5061029a6107ec565b34801561034257600080fd5b5061029a6103513660046144ad565b61087a565b34801561036257600080fd5b5061036b610bb2565b6040516102ce9190614639565b34801561038457600080fd5b5061029a6103933660046144ad565b610bc1565b3480156103a457600080fd5b506103ad61115b565b6040516102ce919061468a565b3480156103c657600080fd5b5061029a6103d5366004614445565b61116b565b61029a6103e83660046144f1565b61133f565b3480156103f957600080fd5b506102c161197c565b34801561040e57600080fd5b5061029a61041d366004614594565b611982565b34801561042e57600080fd5b5061029a611a1c565b34801561044357600080fd5b5061029a61045236600461447d565b611a9a565b34801561046357600080fd5b506102c1611b4b565b34801561047857600080fd5b5061029a611b51565b34801561048d57600080fd5b506103ad611c96565b3480156104a257600080fd5b506102c1611ca5565b3480156104b757600080fd5b506103ad611cab565b3480156104cc57600080fd5b506103ad611cb4565b3480156104e157600080fd5b5061029a6104f0366004614529565b611cc4565b34801561050157600080fd5b5061036b61262a565b34801561051657600080fd5b506103ad612639565b34801561052b57600080fd5b506103ad61264a565b34801561054057600080fd5b506102c161265a565b61029a610557366004614554565b612742565b34801561056857600080fd5b5061029a61057736600461439d565b612b71565b34801561058857600080fd5b506102c1610597366004614365565b612bf9565b3480156105a857600080fd5b506102c16105b7366004614365565b612c0b565b3480156105c857600080fd5b506103ad612c1d565b3480156105dd57600080fd5b5061029a612c2b565b3480156105f257600080fd5b506102c1612c99565b34801561060757600080fd5b5061029a612c9f565b34801561061c57600080fd5b5061029a612d24565b34801561063157600080fd5b506102c1612da6565b34801561064657600080fd5b5061029a6106553660046144ad565b612dac565b34801561066657600080fd5b506102c161334f565b34801561067b57600080fd5b5061029a613355565b34801561069057600080fd5b5061029a61069f3660046144f1565b6133d5565b3480156106b057600080fd5b506103ad61362a565b3480156106c557600080fd5b506102c161363a565b61029a6106dc3660046144f1565b61378e565b3480156106ed57600080fd5b506102c1613b11565b34801561070257600080fd5b5061029a6107113660046143d5565b613cfd565b34801561072257600080fd5b506102c1613f22565b600b6020526000908152604090205481565b60115481565b6006546001600160a01b031633146107765760405162461bcd60e51b815260040161076d9061496e565b60405180910390fd5b6001600160a01b03811661079c5760405162461bcd60e51b815260040161076d90614d8b565b600680546001600160a01b0319166001600160a01b0383169081179091556040517f50146d0e3c60aa1d17a70635b05494f864e86144a2201275021014fbf08bafe290600090a250565b60165481565b6006546001600160a01b031633146108165760405162461bcd60e51b815260040161076d9061496e565b600e805460ff600160281b808304821615810265ff00000000001990931692909217928390556040517f5500d28fd6f79ee96ffff9ce2f45833d5913c84f586b8a537b6c6f25df0312a3936108709390049091169061468a565b60405180910390a1565b600e5460ff161561089d5760405162461bcd60e51b815260040161076d90614c42565b6108a5611b51565b600260009054906101000a90046001600160a01b03166001600160a01b0316634013124a6040518163ffffffff1660e01b8152600401600060405180830381600087803b1580156108f557600080fd5b505af1158015610909573d6000803e3d6000fd5b505050506000600260009054906101000a90046001600160a01b03166001600160a01b031663ed99250c6040518163ffffffff1660e01b815260040160206040518083038186803b15801561095d57600080fd5b505afa158015610971573d6000803e3d6000fd5b505050506040513d601f19601f820116820180604052508101906109959190614495565b9050600260009054906101000a90046001600160a01b03166001600160a01b031663fadb1b026040518163ffffffff1660e01b815260040160206040518083038186803b1580156109e557600080fd5b505afa1580156109f9573d6000803e3d6000fd5b505050506040513d601f19601f82011682018060405250810190610a1d9190614495565b15610a3a5760405162461bcd60e51b815260040161076d90614df9565b604051630810278f60e41b8152600090738347C24b87b4eD51390fCE7A6a7D6764804Aa5649063810278f090610a769085908890600401614e64565b60206040518083038186803b158015610a8e57600080fd5b505af4158015610aa2573d6000803e3d6000fd5b505050506040513d601f19601f82011682018060405250810190610ac69190614495565b9050610b0764e8d4a51000610afb610aee600f5464e8d4a51000613f2890919063ffffffff16565b849063ffffffff613f5516565b9063ffffffff613f9616565b905080831115610b295760405162461bcd60e51b815260040161076d90614c6d565b600154600254610b48916001600160a01b039081169133911687613fc8565b600254604051635a7ab59360e11b81526001600160a01b039091169063b4f56b2690610b7a903390859060040161464d565b600060405180830381600087803b158015610b9457600080fd5b505af1158015610ba8573d6000803e3d6000fd5b5050505050505050565b6005546001600160a01b031681565b600e54610100900460ff1615610be95760405162461bcd60e51b815260040161076d906149d4565b610bf1611b51565b600260009054906101000a90046001600160a01b03166001600160a01b0316634013124a6040518163ffffffff1660e01b8152600401600060405180830381600087803b158015610c4157600080fd5b505af1158015610c55573d6000803e3d6000fd5b5050505064e8d4a51000600260009054906101000a90046001600160a01b03166001600160a01b031663fadb1b026040518163ffffffff1660e01b815260040160206040518083038186803b158015610cad57600080fd5b505afa158015610cc1573d6000803e3d6000fd5b505050506040513d601f19601f82011682018060405250810190610ce59190614495565b14610d025760405162461bcd60e51b815260040161076d90614c0b565b6000610d0c61363a565b90506000600260009054906101000a90046001600160a01b03166001600160a01b031663fa6292196040518163ffffffff1660e01b815260040160206040518083038186803b158015610d5e57600080fd5b505afa158015610d72573d6000803e3d6000fd5b505050506040513d601f19601f82011682018060405250810190610d969190614495565b9050600064e8d4a510008211610dac5781610db3565b64e8d4a510005b90506000610de284610afb64e8d4a510008186610dd68c8463ffffffff613f5516565b9063ffffffff613f5516565b9050610e0a64e8d4a51000610afb610aee60105464e8d4a51000613f2890919063ffffffff16565b600c546000546040516370a0823160e01b8152929350610ea592620100009091046001600160a01b0316906370a0823190610e49903090600401614639565b60206040518083038186803b158015610e6157600080fd5b505afa158015610e75573d6000803e3d6000fd5b505050506040513d601f19601f82011682018060405250810190610e999190614495565b9063ffffffff613f2816565b811115610ec45760405162461bcd60e51b815260040161076d90614dc2565b80851115610ee45760405162461bcd60e51b815260040161076d90614c6d565b600254604051631096f10360e01b81526001600160a01b0390911690631096f10390610f14903390600401614639565b60206040518083038186803b158015610f2c57600080fd5b505afa158015610f40573d6000803e3d6000fd5b505050506040513d601f19601f82011682018060405250810190610f649190614461565b15610f9e57336000908152600b6020526040902054610f89908263ffffffff6140b116565b336000908152600b60205260409020556110c7565b6000610fb182600a63ffffffff613f9616565b90506000610fcb600a610afb85600963ffffffff613f5516565b336000908152600b6020526040902054909150610fee908363ffffffff6140b116565b336000908152600b6020908152604080832093909355600254835163a367e27d60e01b8152935192936001600160a01b039091169263a367e27d92600480840193919291829003018186803b15801561104657600080fd5b505afa15801561105a573d6000803e3d6000fd5b505050506040513d601f19601f8201168201806040525081019061107e9190614381565b6001600160a01b0381166000908152600b60205260409020549091506110aa908363ffffffff6140b116565b6001600160a01b039091166000908152600b602052604090205550505b600c546110da908263ffffffff6140b116565b600c55336000818152600d6020526040908190204390556002549051635453bc5760e11b81526001600160a01b039091169163a8a778ae9161112191908a9060040161464d565b600060405180830381600087803b15801561113b57600080fd5b505af115801561114f573d6000803e3d6000fd5b50505050505050505050565b600e54600160281b900460ff1681565b601654336000908152600d60205260409020544391611190919063ffffffff6140b116565b11156111ae5760405162461bcd60e51b815260040161076d90614906565b336000908152600a6020526040812054819081908190156111e457336000908152600a6020526040812080549190556001945091505b336000908152600b6020526040902054156112295750336000908152600b602052604081208054919055600c54611221908263ffffffff613f2816565b600c55600192505b60018415151415611299576002546040516331be54d360e01b81526001600160a01b03909116906331be54d390611266903390869060040161464d565b600060405180830381600087803b15801561128057600080fd5b505af1158015611294573d6000803e3d6000fd5b505050505b6001831515141561133857841561131b57600354604051632e1a7d4d60e01b81526001600160a01b0390911690632e1a7d4d906112da908490600401614e5b565b600060405180830381600087803b1580156112f457600080fd5b505af1158015611308573d6000803e3d6000fd5b5050505061131633826140d6565b611338565b600054611338906201000090046001600160a01b03163383614168565b5050505050565b600e5462010000900460ff16156113685760405162461bcd60e51b815260040161076d90614cd2565b600e54600160281b900460ff16156113a4576006546001600160a01b031633146113a45760405162461bcd60e51b815260040161076d90614b77565b6113ac611b51565b600260009054906101000a90046001600160a01b03166001600160a01b0316634013124a6040518163ffffffff1660e01b8152600401600060405180830381600087803b1580156113fc57600080fd5b505af1158015611410573d6000803e3d6000fd5b505050506000600754600a0a840290506000600260009054906101000a90046001600160a01b03166001600160a01b031663ed99250c6040518163ffffffff1660e01b815260040160206040518083038186803b15801561147057600080fd5b505afa158015611484573d6000803e3d6000fd5b505050506040513d601f19601f820116820180604052508101906114a89190614495565b90506000600260009054906101000a90046001600160a01b03166001600160a01b03166318160ddd6040518163ffffffff1660e01b815260040160206040518083038186803b1580156114fa57600080fd5b505afa15801561150e573d6000803e3d6000fd5b505050506040513d601f19601f820116820180604052508101906115329190614495565b90506000600260009054906101000a90046001600160a01b03166001600160a01b031663fadb1b026040518163ffffffff1660e01b815260040160206040518083038186803b15801561158457600080fd5b505afa158015611598573d6000803e3d6000fd5b505050506040513d601f19601f820116820180604052508101906115bc9190614495565b90506000600260009054906101000a90046001600160a01b03166001600160a01b031663d2d97b066040518163ffffffff1660e01b815260040160206040518083038186803b15801561160e57600080fd5b505afa158015611622573d6000803e3d6000fd5b505050506040513d601f19601f820116820180604052508101906116469190614495565b9050600080738347C24b87b4eD51390fCE7A6a7D6764804Aa564634e820a3f8861166e61363a565b8689896040518663ffffffff1660e01b8152600401611691959493929190614e72565b604080518083038186803b1580156116a857600080fd5b505af41580156116bc573d6000803e3d6000fd5b505050506040513d601f19601f820116820180604052508101906116e091906144ce565b9150915060006116fe600754600a0a84613f9690919063ffffffff16565b9050600061173688610afb611729601254610e9960155464e8d4a510006140b190919063ffffffff16565b869063ffffffff613f5516565b90506000600260009054906101000a90046001600160a01b03166001600160a01b03166302c855f86040518163ffffffff1660e01b815260040160206040518083038186803b15801561178857600080fd5b505afa15801561179c573d6000803e3d6000fd5b505050506040513d601f19601f820116820180604052508101906117c09190614495565b90506117db64e8d4a51000610afb848463ffffffff613f5516565b9150818c11156117fd5760405162461bcd60e51b815260040161076d90614c6d565b8a156118b757600354600160a01b900460ff1661181657fe5b8c34146118355760405162461bcd60e51b815260040161076d90614bbf565b600360009054906101000a90046001600160a01b03166001600160a01b031663d0e30db0846040518263ffffffff1660e01b81526004016000604051808303818588803b15801561188557600080fd5b505af1158015611899573d6000803e3d6000fd5b5050505050823411156118b2576118b2338434036140d6565b6118d5565b6000546118d5906201000090046001600160a01b0316333086613fc8565b81156119405760025460405163384c0f5960e11b81526001600160a01b03909116906370981eb29061190d903390869060040161464d565b600060405180830381600087803b15801561192757600080fd5b505af115801561193b573d6000803e3d6000fd5b505050505b604051829084907fc2d7df98caa1a9bc768fc3ab167e19ae4febd5da76dad18d3387fb9fc656a37390600090a350505050505050505050505050565b60155481565b6006546001600160a01b031633146119ac5760405162461bcd60e51b815260040161076d9061496e565b601387905560158690556016859055600f8490556010839055601182905560128190556040517f17fe98b66d27bd793ea01bd8a23a54acab8eeb167d9eb016a0c7cd71c573920c90611a0b908990899089908990899089908990614e95565b60405180910390a150505050505050565b6006546001600160a01b03163314611a465760405162461bcd60e51b815260040161076d9061496e565b600e805460ff610100808304821615810261ff001990931692909217928390556040517fd449302f806044ba9a0f0b2862e496c86cb4ef1f6b3fd474113fb26e46d9b28a936108709390049091169061468a565b6006546001600160a01b03163314611ac45760405162461bcd60e51b815260040161076d9061496e565b600e54640100000000900460ff16611ae0576014819055611ae6565b60006014555b600e805460ff640100000000808304821615810264ff000000001990931692909217928390556040517fbf1f9e6d8d67bb57a141c627f40368ec23ed7603249f0c3518c16eafbf9c4f6f93611b409390049091169061468a565b60405180910390a150565b60135481565b600260009054906101000a90046001600160a01b03166001600160a01b0316636c7ff97b6040518163ffffffff1660e01b8152600401600060405180830381600087803b158015611ba157600080fd5b505af1158015611bb5573d6000803e3d6000fd5b505060048054604080516309bf39ed60e01b815290516001600160a01b0390921694506309bf39ed93508083019260209291829003018186803b158015611bfb57600080fd5b505afa158015611c0f573d6000803e3d6000fd5b505050506040513d601f19601f82011682018060405250810190611c339190614461565b15611c94576004805460408051630d6f124f60e41b815290516001600160a01b039092169263d6f124f092828201926000929082900301818387803b158015611c7b57600080fd5b505af1158015611c8f573d6000803e3d6000fd5b505050505b565b600e5462010000900460ff1681565b600c5481565b600e5460ff1681565b600e546301000000900460ff1681565b600e54610100900460ff1615611cec5760405162461bcd60e51b815260040161076d906149d4565b611cf4611b51565b600260009054906101000a90046001600160a01b03166001600160a01b0316634013124a6040518163ffffffff1660e01b8152600401600060405180830381600087803b158015611d4457600080fd5b505af1158015611d58573d6000803e3d6000fd5b505050506000600260009054906101000a90046001600160a01b03166001600160a01b031663fadb1b026040518163ffffffff1660e01b815260040160206040518083038186803b158015611dac57600080fd5b505afa158015611dc0573d6000803e3d6000fd5b505050506040513d601f19601f82011682018060405250810190611de49190614495565b905064e8d4a5100081108015611dfa5750600081115b611e165760405162461bcd60e51b815260040161076d9061478a565b6002546040805163fa62921960e01b815290516000926001600160a01b03169163fa629219916004808301926020929190829003018186803b158015611e5b57600080fd5b505afa158015611e6f573d6000803e3d6000fd5b505050506040513d601f19601f82011682018060405250810190611e939190614495565b90506000828210611ea45782611ea6565b815b90506000611edd64e8d4a51000610afb611ed060105464e8d4a51000613f2890919063ffffffff16565b8a9063ffffffff613f5516565b90506000611f0a611efd64e8d4a51000610afb858763ffffffff613f5516565b839063ffffffff613f2816565b90506000611fac600260009054906101000a90046001600160a01b03166001600160a01b031663ed99250c6040518163ffffffff1660e01b815260040160206040518083038186803b158015611f5f57600080fd5b505afa158015611f73573d6000803e3d6000fd5b505050506040513d601f19601f82011682018060405250810190611f979190614495565b610afb8464e8d4a5100063ffffffff613f5516565b90506000600260009054906101000a90046001600160a01b03166001600160a01b03166302c855f86040518163ffffffff1660e01b815260040160206040518083038186803b158015611ffe57600080fd5b505afa158015612012573d6000803e3d6000fd5b505050506040513d601f19601f820116820180604052508101906120369190614495565b905061205164e8d4a51000610afb848463ffffffff613f5516565b9150600061206d600754600a0a86613f9690919063ffffffff16565b9050600061208a64e8d4a51000610afb848a63ffffffff613f5516565b90506000612099611f9761363a565b600c546000546040516370a0823160e01b81529293506120d892620100009091046001600160a01b0316906370a0823190610e49903090600401614639565b8111156120f75760405162461bcd60e51b815260040161076d90614dc2565b808b11156121175760405162461bcd60e51b815260040161076d906147e7565b848c11156121375760405162461bcd60e51b815260040161076d9061499d565b600254604051631096f10360e01b81526001600160a01b0390911690631096f10390612167903390600401614639565b60206040518083038186803b15801561217f57600080fd5b505afa158015612193573d6000803e3d6000fd5b505050506040513d601f19601f820116820180604052508101906121b79190614461565b156121f157336000908152600b60205260409020546121dc908263ffffffff6140b116565b336000908152600b602052604090205561231a565b600061220482600a63ffffffff613f9616565b9050600061221e600a610afb85600963ffffffff613f5516565b336000908152600b6020526040902054909150612241908363ffffffff6140b116565b336000908152600b6020908152604080832093909355600254835163a367e27d60e01b8152935192936001600160a01b039091169263a367e27d92600480840193919291829003018186803b15801561229957600080fd5b505afa1580156122ad573d6000803e3d6000fd5b505050506040513d601f19601f820116820180604052508101906122d19190614381565b6001600160a01b0381166000908152600b60205260409020549091506122fd908363ffffffff6140b116565b6001600160a01b039091166000908152600b602052604090205550505b600c5461232d908263ffffffff6140b116565b600c55841561257c57600254604051631096f10360e01b81526001600160a01b0390911690631096f10390612366903390600401614639565b60206040518083038186803b15801561237e57600080fd5b505afa158015612392573d6000803e3d6000fd5b505050506040513d601f19601f820116820180604052508101906123b69190614461565b156123f057336000908152600a60205260409020546123db908663ffffffff6140b116565b336000908152600a6020526040902055612519565b600061240386600a63ffffffff613f9616565b9050600061241d600a610afb89600963ffffffff613f5516565b336000908152600a6020526040902054909150612440908363ffffffff6140b116565b336000908152600a6020908152604080832093909355600254835163a367e27d60e01b8152935192936001600160a01b039091169263a367e27d92600480840193919291829003018186803b15801561249857600080fd5b505afa1580156124ac573d6000803e3d6000fd5b505050506040513d601f19601f820116820180604052508101906124d09190614381565b6001600160a01b0381166000908152600a60205260409020549091506124fc908363ffffffff6140b116565b6001600160a01b039091166000908152600a602052604090205550505b6002546040516369d1679960e01b81526001600160a01b03909116906369d1679990612549908890600401614e5b565b600060405180830381600087803b15801561256357600080fd5b505af1158015612577573d6000803e3d6000fd5b505050505b43600d6000336001600160a01b03166001600160a01b0316815260200190815260200160002081905550600260009054906101000a90046001600160a01b03166001600160a01b031663a8a778ae338f6040518363ffffffff1660e01b81526004016125e992919061464d565b600060405180830381600087803b15801561260357600080fd5b505af1158015612617573d6000803e3d6000fd5b5050505050505050505050505050505050565b6006546001600160a01b031681565b600e54640100000000900460ff1681565b600354600160a01b900460ff1681565b600e54600090640100000000900460ff161515600114156126db576126d464e8d4a51000610afb601454610dd6600754600a0a610dd6600c54600060029054906101000a90046001600160a01b03166001600160a01b03166370a08231306040518263ffffffff1660e01b8152600401610e499190614639565b905061273f565b6126d464e8d4a51000610afb6126ef61363a565b610dd6600754600a0a610dd6600c54600060029054906101000a90046001600160a01b03166001600160a01b03166370a08231306040518263ffffffff1660e01b8152600401610e499190614639565b90565b600e5460ff16156127655760405162461bcd60e51b815260040161076d90614c42565b61276d611b51565b600260009054906101000a90046001600160a01b03166001600160a01b0316634013124a6040518163ffffffff1660e01b8152600401600060405180830381600087803b1580156127bd57600080fd5b505af11580156127d1573d6000803e3d6000fd5b505050506000600260009054906101000a90046001600160a01b03166001600160a01b031663ed99250c6040518163ffffffff1660e01b815260040160206040518083038186803b15801561282557600080fd5b505afa158015612839573d6000803e3d6000fd5b505050506040513d601f19601f8201168201806040525081019061285d9190614495565b90506000600260009054906101000a90046001600160a01b03166001600160a01b031663fadb1b026040518163ffffffff1660e01b815260040160206040518083038186803b1580156128af57600080fd5b505afa1580156128c3573d6000803e3d6000fd5b505050506040513d601f19601f820116820180604052508101906128e79190614495565b905064e8d4a51000811080156128fd5750600081115b6129195760405162461bcd60e51b815260040161076d9061478a565b601354600c546000546040516370a0823160e01b815261296a928a9261295e92620100009091046001600160a01b0316906370a0823190610e49903090600401614639565b9063ffffffff6140b116565b11156129885760405162461bcd60e51b815260040161076d90614ac7565b600754600a0a86026000806129a68561299f61363a565b858761424f565b915091506129dd64e8d4a51000610afb6129d0600f5464e8d4a51000613f2890919063ffffffff16565b859063ffffffff613f5516565b9150818711156129ff5760405162461bcd60e51b815260040161076d90614c6d565b87811115612a1f5760405162461bcd60e51b815260040161076d906146e5565b600154600254612a3e916001600160a01b039081169133911684613fc8565b8515612ae457600354600160a01b900460ff16612a5757fe5b883414612a765760405162461bcd60e51b815260040161076d90614bbf565b600360009054906101000a90046001600160a01b03166001600160a01b031663d0e30db08a6040518263ffffffff1660e01b81526004016000604051808303818588803b158015612ac657600080fd5b505af1158015612ada573d6000803e3d6000fd5b5050505050612b02565b600054612b02906201000090046001600160a01b031633308c613fc8565b600254604051635a7ab59360e11b81526001600160a01b039091169063b4f56b2690612b34903390869060040161464d565b600060405180830381600087803b158015612b4e57600080fd5b505af1158015612b62573d6000803e3d6000fd5b50505050505050505050505050565b6006546001600160a01b03163314612b9b5760405162461bcd60e51b815260040161076d9061496e565b600480546001600160a01b03199081166001600160a01b03858116918217909355600980549092169284169283179091556040517f856e4796eef882904bc46a505b32b16c6fbcef9e0930ac95b2f980781517bf6390600090a35050565b600d6020526000908152604090205481565b600a6020526000908152604090205481565b600e54610100900460ff1681565b6006546001600160a01b03163314612c555760405162461bcd60e51b815260040161076d9061496e565b600e805460ff19811660ff9182161517918290556040517f3f3c6b7e51ec0201fea018ffcf768f21f85a27593219359fd6af1d95c7e8b4419261087092169061468a565b600f5481565b6006546001600160a01b03163314612cc95760405162461bcd60e51b815260040161076d9061496e565b600e805460ff600160301b808304821615810266ff0000000000001990931692909217928390556040517fd5bc042d6e197fb30aec38c1634dabc01e0bb517e3fea6db130cea5753712246936108709390049091169061468a565b6006546001600160a01b03163314612d4e5760405162461bcd60e51b815260040161076d9061496e565b600e805460ff6301000000808304821615810263ff0000001990931692909217928390556040517fef220f30673af554aae10180ad5ab98f41c923213a66d1207dbe61f00aa75acf936108709390049091169061468a565b60145481565b600e54610100900460ff1615612dd45760405162461bcd60e51b815260040161076d906149d4565b612ddc611b51565b600260009054906101000a90046001600160a01b03166001600160a01b0316634013124a6040518163ffffffff1660e01b8152600401600060405180830381600087803b158015612e2c57600080fd5b505af1158015612e40573d6000803e3d6000fd5b505050506000600260009054906101000a90046001600160a01b03166001600160a01b031663ed99250c6040518163ffffffff1660e01b815260040160206040518083038186803b158015612e9457600080fd5b505afa158015612ea8573d6000803e3d6000fd5b505050506040513d601f19601f82011682018060405250810190612ecc9190614495565b90506000600260009054906101000a90046001600160a01b03166001600160a01b031663fadb1b026040518163ffffffff1660e01b815260040160206040518083038186803b158015612f1e57600080fd5b505afa158015612f32573d6000803e3d6000fd5b505050506040513d601f19601f82011682018060405250810190612f569190614495565b90508015612f765760405162461bcd60e51b815260040161076d90614df9565b6000849050612fa164e8d4a51000610afb610aee60105464e8d4a51000613f2890919063ffffffff16565b90506000612fbe84610afb8464e8d4a5100063ffffffff613f5516565b90506000600260009054906101000a90046001600160a01b03166001600160a01b03166302c855f86040518163ffffffff1660e01b815260040160206040518083038186803b15801561301057600080fd5b505afa158015613024573d6000803e3d6000fd5b505050506040513d601f19601f820116820180604052508101906130489190614495565b905061306364e8d4a51000610afb848463ffffffff613f5516565b915081156132b157600254604051631096f10360e01b81526001600160a01b0390911690631096f1039061309b903390600401614639565b60206040518083038186803b1580156130b357600080fd5b505afa1580156130c7573d6000803e3d6000fd5b505050506040513d601f19601f820116820180604052508101906130eb9190614461565b1561312557336000908152600a6020526040902054613110908363ffffffff6140b116565b336000908152600a602052604090205561324e565b600061313883600a63ffffffff613f9616565b90506000613152600a610afb86600963ffffffff613f5516565b336000908152600a6020526040902054909150613175908363ffffffff6140b116565b336000908152600a6020908152604080832093909355600254835163a367e27d60e01b8152935192936001600160a01b039091169263a367e27d92600480840193919291829003018186803b1580156131cd57600080fd5b505afa1580156131e1573d6000803e3d6000fd5b505050506040513d601f19601f820116820180604052508101906132059190614381565b6001600160a01b0381166000908152600a6020526040902054909150613231908363ffffffff6140b116565b6001600160a01b039091166000908152600a602052604090205550505b6002546040516369d1679960e01b81526001600160a01b03909116906369d167999061327e908590600401614e5b565b600060405180830381600087803b15801561329857600080fd5b505af11580156132ac573d6000803e3d6000fd5b505050505b336000908152600d602052604090204390558186106132e25760405162461bcd60e51b815260040161076d90614c6d565b600254604051635453bc5760e11b81526001600160a01b039091169063a8a778ae906133149033908b9060040161464d565b600060405180830381600087803b15801561332e57600080fd5b505af1158015613342573d6000803e3d6000fd5b5050505050505050505050565b60105481565b6006546001600160a01b0316331461337f5760405162461bcd60e51b815260040161076d9061496e565b600e805460ff62010000808304821615810262ff00001990931692909217928390556040517f7e9a29a085706d1cf00b68ff18532dae53be17faa8be9bab8821c355a393656a936108709390049091169061468a565b600e546301000000900460ff16156133ff5760405162461bcd60e51b815260040161076d90614e30565b600e54600160301b900460ff161561343b576006546001600160a01b0316331461343b5760405162461bcd60e51b815260040161076d90614d56565b613443611b51565b60025460408051633b66494360e21b815290516000926001600160a01b03169163ed99250c916004808301926020929190829003018186803b15801561348857600080fd5b505afa15801561349c573d6000803e3d6000fd5b505050506040513d601f19601f820116820180604052508101906134c09190614495565b9050600061350464e8d4a51000610afb6134ea60115464e8d4a51000613f2890919063ffffffff16565b610dd66134f5613b11565b876134fe61363a565b8c6142ca565b90506000613520600754600a0a83613f9690919063ffffffff16565b9050808511156135425760405162461bcd60e51b815260040161076d90614c6d565b600154600254613561916001600160a01b039081169133911689613fc8565b83156135d857600354604051632e1a7d4d60e01b81526001600160a01b0390911690632e1a7d4d90613597908490600401614e5b565b600060405180830381600087803b1580156135b157600080fd5b505af11580156135c5573d6000803e3d6000fd5b505050506135d333826140d6565b6135f5565b6000546135f5906201000090046001600160a01b03163383614168565b604051819087907f15b90a6a755d5ed0f929f1f40375d58183388d8d9e2f8e9a2efa93043e70f6de90600090a3505050505050565b600e54600160301b900460ff1681565b600e54600090640100000000900460ff1615156001141561365e575060145461273f565b60025460408051632d83c63b60e11b815290516000926001600160a01b031691635b078c76916004808301926020929190829003018186803b1580156136a357600080fd5b505afa1580156136b7573d6000803e3d6000fd5b505050506040513d601f19601f820116820180604052508101906136db9190614495565b60048054600954604051633ddac95360e01b81529394506000936001600160a01b0392831693633ddac9539361371a93169164e8d4a51000910161464d565b60206040518083038186803b15801561373257600080fd5b505afa158015613746573d6000803e3d6000fd5b505050506040513d601f19601f8201168201806040525081019061376a9190614495565b905061378581610afb8464e8d4a5100063ffffffff613f5516565b9250505061273f565b600e5460ff16156137b15760405162461bcd60e51b815260040161076d90614c42565b6137b9611b51565b6000600754600a0a84029050600260009054906101000a90046001600160a01b03166001600160a01b0316634013124a6040518163ffffffff1660e01b8152600401600060405180830381600087803b15801561381557600080fd5b505af1158015613829573d6000803e3d6000fd5b505050506000600260009054906101000a90046001600160a01b03166001600160a01b031663fadb1b026040518163ffffffff1660e01b815260040160206040518083038186803b15801561387d57600080fd5b505afa158015613891573d6000803e3d6000fd5b505050506040513d601f19601f820116820180604052508101906138b59190614495565b905064e8d4a510008110156138dc5760405162461bcd60e51b815260040161076d9061471c565b601354600c546000546040516370a0823160e01b815261392192899261295e92620100009091046001600160a01b0316906370a0823190610e49903090600401614639565b111561393f5760405162461bcd60e51b815260040161076d90614c9d565b6000738347C24b87b4eD51390fCE7A6a7D6764804Aa56463ba8b180861396361363a565b856040518363ffffffff1660e01b8152600401613981929190614e64565b60206040518083038186803b15801561399957600080fd5b505af41580156139ad573d6000803e3d6000fd5b505050506040513d601f19601f820116820180604052508101906139d19190614495565b90506139f964e8d4a51000610afb610aee600f5464e8d4a51000613f2890919063ffffffff16565b905080851115613a1b5760405162461bcd60e51b815260040161076d90614c6d565b8315613ac157600354600160a01b900460ff16613a3457fe5b853414613a535760405162461bcd60e51b815260040161076d90614bbf565b600360009054906101000a90046001600160a01b03166001600160a01b031663d0e30db0876040518263ffffffff1660e01b81526004016000604051808303818588803b158015613aa357600080fd5b505af1158015613ab7573d6000803e3d6000fd5b5050505050613adf565b600054613adf906201000090046001600160a01b0316333089613fc8565b600254604051635a7ab59360e11b81526001600160a01b039091169063b4f56b2690611121903390859060040161464d565b600080600260009054906101000a90046001600160a01b03166001600160a01b03166318160ddd6040518163ffffffff1660e01b815260040160206040518083038186803b158015613b6257600080fd5b505afa158015613b76573d6000803e3d6000fd5b505050506040513d601f19601f82011682018060405250810190613b9a9190614495565b90506000600260009054906101000a90046001600160a01b03166001600160a01b031663fadb1b026040518163ffffffff1660e01b815260040160206040518083038186803b158015613bec57600080fd5b505afa158015613c00573d6000803e3d6000fd5b505050506040513d601f19601f82011682018060405250810190613c249190614495565b90506000600260009054906101000a90046001600160a01b03166001600160a01b031663d2d97b066040518163ffffffff1660e01b815260040160206040518083038186803b158015613c7657600080fd5b505afa158015613c8a573d6000803e3d6000fd5b505050506040513d601f19601f82011682018060405250810190613cae9190614495565b90506000613ccb64e8d4a51000610afb868663ffffffff613f5516565b905080821115613cf057613ce5828263ffffffff613f2816565b94505050505061273f565b600094505050505061273f565b600054610100900460ff1680613d165750613d1661434e565b80613d24575060005460ff16155b613d405760405162461bcd60e51b815260040161076d90614a79565b600054610100900460ff16158015613d6b576000805460ff1961ff0019909116610100171660011790555b600280546001600160a01b038089166001600160a01b03199283161790925560018054928816929091169190911790558115613dbd57600380546001600160a01b0319166001600160a01b0386161790555b600580546001600160a01b03199081166001600160a01b0387811691821790935560068054909216868416179091556000805462010000600160b01b0319166201000092830217908190556040805163313ce56760e01b81529051929091049092169163313ce567916004808301926020929190829003018186803b158015613e4557600080fd5b505afa158015613e59573d6000803e3d6000fd5b505050506040513d601f19601f82011682018060405250810190613e7d91906145df565b60ff166008819055613e979060129063ffffffff613f2816565b60075560038054831515600160a01b0260ff60a01b199091161790556ec097ce7bc90715b34b9f10000000006013556401bf08eb00601555600160165563b2d05e00600f819055601055600e805466ff0000000000001965ff000000000019909116600160281b1716600160301b1790558015613f1a576000805461ff00191690555b505050505050565b60125481565b600082821115613f4a5760405162461bcd60e51b815260040161076d906148cf565b508082035b92915050565b600082613f6457506000613f4f565b82820282848281613f7157fe5b0414613f8f5760405162461bcd60e51b815260040161076d90614b36565b9392505050565b6000808211613fb75760405162461bcd60e51b815260040161076d90614a01565b818381613fc057fe5b049392505050565b60006060856001600160a01b03166323b872dd868686604051602401613ff093929190614666565b6040516020818303038152906040529060e01b6020820180516001600160e01b0383818316178352505050506040516140299190614600565b6000604051808303816000865af19150503d8060008114614066576040519150601f19603f3d011682016040523d82523d6000602084013e61406b565b606091505b50915091508180156140955750805115806140955750808060200190518101906140959190614461565b613f1a5760405162461bcd60e51b815260040161076d9061482a565b600082820183811015613f8f5760405162461bcd60e51b815260040161076d90614753565b604080516000808252602082019092526001600160a01b0384169083906040516141009190614600565b60006040518083038185875af1925050503d806000811461413d576040519150601f19603f3d011682016040523d82523d6000602084013e614142565b606091505b50509050806141635760405162461bcd60e51b815260040161076d9061487b565b505050565b60006060846001600160a01b031663a9059cbb858560405160240161418e92919061464d565b6040516020818303038152906040529060e01b6020820180516001600160e01b0383818316178352505050506040516141c79190614600565b6000604051808303816000865af19150503d8060008114614204576040519150601f19603f3d011682016040523d82523d6000602084013e614209565b606091505b50915091508180156142335750805115806142335750808060200190518101906142339190614461565b6113385760405162461bcd60e51b815260040161076d90614d09565b6000808061426c64e8d4a51000610afb878963ffffffff613f5516565b9050600061428d82610e9987610afb8364e8d4a5100063ffffffff613f5516565b905060006142aa89610afb8464e8d4a5100063ffffffff613f5516565b90506142bc838363ffffffff6140b116565b999098509650505050505050565b60008085116142eb5760405162461bcd60e51b815260040161076d90614a38565b600061430664e8d4a51000610afb858863ffffffff613f5516565b9050858111156143285760405162461bcd60e51b815260040161076d90614695565b600061434385610afb8464e8d4a5100063ffffffff613f5516565b979650505050505050565b60006143593061435f565b15905090565b3b151590565b600060208284031215614376578081fd5b8135613f8f81614ec5565b600060208284031215614392578081fd5b8151613f8f81614ec5565b600080604083850312156143af578081fd5b82356143ba81614ec5565b915060208301356143ca81614ec5565b809150509250929050565b600080600080600060a086880312156143ec578081fd5b85356143f781614ec5565b9450602086013561440781614ec5565b9350604086013561441781614ec5565b9250606086013561442781614ec5565b9150608086013561443781614edd565b809150509295509295909350565b600060208284031215614456578081fd5b8135613f8f81614edd565b600060208284031215614472578081fd5b8151613f8f81614edd565b60006020828403121561448e578081fd5b5035919050565b6000602082840312156144a6578081fd5b5051919050565b600080604083850312156144bf578182fd5b50508035926020909101359150565b600080604083850312156144e0578182fd5b505080516020909101519092909150565b600080600060608486031215614505578283fd5b8335925060208401359150604084013561451e81614edd565b809150509250925092565b60008060006060848603121561453d578283fd5b505081359360208301359350604090920135919050565b60008060008060808587031215614569578384fd5b843593506020850135925060408501359150606085013561458981614edd565b939692955090935050565b600080600080600080600060e0888a0312156145ae578182fd5b505085359760208701359750604087013596606081013596506080810135955060a0810135945060c0013592509050565b6000602082840312156145f0578081fd5b815160ff81168114613f8f578182fd5b60008251815b818110156146205760208186018101518583015201614606565b8181111561462e5782828501525b509190910192915050565b6001600160a01b0391909116815260200190565b6001600160a01b03929092168252602082015260400190565b6001600160a01b039384168152919092166020820152604081019190915260600190565b901515815260200190565b60208082526030908201527f596f752061726520747279696e6720746f20627579206261636b206d6f72652060408201526f7468616e20746865206578636573732160801b606082015260800190565b60208082526017908201527f4e6f7420656e6f7567682042445820696e707574746564000000000000000000604082015260600190565b6020808252601d908201527f436f6c6c61746572616c20726174696f206d757374206265203e3d2031000000604082015260600190565b6020808252601b908201527f536166654d6174683a206164646974696f6e206f766572666c6f770000000000604082015260600190565b60208082526038908201527f436f6c6c61746572616c20726174696f206e6565647320746f2062652062657460408201527f7765656e202e30303030303120616e64202e3939393939390000000000000000606082015260800190565b60208082526023908201527f536c697070616765206c696d69742072656163686564205b636f6c6c61746572604082015262616c5d60e81b606082015260800190565b60208082526031908201527f5472616e7366657248656c7065723a3a7472616e7366657246726f6d3a207472604082015270185b9cd9995c919c9bdb4819985a5b1959607a1b606082015260800190565b60208082526034908201527f5472616e7366657248656c7065723a3a736166655472616e736665724554483a60408201527308115512081d1c985b9cd9995c8819985a5b195960621b606082015260800190565b6020808252601e908201527f536166654d6174683a207375627472616374696f6e206f766572666c6f770000604082015260600190565b60208082526042908201527f4d757374207761697420666f7220726564656d7074696f6e5f64656c6179206260408201527f6c6f636b73206265666f726520636f6c6c656374696e6720726564656d70746960608201526137b760f11b608082015260a00190565b6020808252601590820152742cb7ba9030b932903737ba103a34329037bbb732b960591b604082015260600190565b6020808252601c908201527f536c697070616765206c696d69742072656163686564205b4244585d00000000604082015260600190565b60208082526013908201527214995919595b5a5b99c81a5cc81c185d5cd959606a1b604082015260600190565b6020808252601a908201527f536166654d6174683a206469766973696f6e206279207a65726f000000000000604082015260600190565b60208082526021908201527f4e6f2065786365737320636f6c6c61746572616c20746f20627579206261636b6040820152602160f81b606082015260800190565b6020808252602e908201527f496e697469616c697a61626c653a20636f6e747261637420697320616c72656160408201526d191e481a5b9a5d1a585b1a5e995960921b606082015260800190565b60208082526049908201527f506f6f6c206365696c696e6720726561636865642c206e6f206d6f726520426460408201527f537461626c652063616e206265206d696e7465642077697468207468697320636060820152681bdb1b185d195c985b60ba1b608082015260a00190565b60208082526021908201527f536166654d6174683a206d756c7469706c69636174696f6e206f766572666c6f6040820152607760f81b606082015260800190565b60208082526028908201527f43757272656e746c79206f6e6c79206f776e65722063616e207265636f6c6c61604082015267746572616c697a6560c01b606082015260800190565b6020808252602c908201527f6d73672e76616c756520616e6420636f6c6c61746572616c5f616d6f756e742060408201526b0c8de40dcdee840dac2e8c6d60a31b606082015260800190565b6020808252601d908201527f436f6c6c61746572616c20726174696f206d757374206265203d3d2031000000604082015260600190565b602080825260119082015270135a5b9d1a5b99c81a5cc81c185d5cd959607a1b604082015260600190565b60208082526016908201527514db1a5c1c1859d9481b1a5b5a5d081c995858da195960521b604082015260600190565b6020808252818101527f5b506f6f6c277320436c6f7365645d3a204365696c696e672072656163686564604082015260600190565b60208082526019908201527f5265636f6c6c61746572616c697a652069732070617573656400000000000000604082015260600190565b6020808252602d908201527f5472616e7366657248656c7065723a3a736166655472616e736665723a20747260408201526c185b9cd9995c8819985a5b1959609a1b606082015260800190565b6020808252818101527f43757272656e746c79206f6e6c79206f776e65722063616e206275796261636b604082015260600190565b6020808252601f908201527f4e6577206f776e65722063616e2774206265207a65726f206164647265737300604082015260600190565b6020808252601d908201527f4e6f7420656e6f75676820636f6c6c61746572616c20696e20706f6f6c000000604082015260600190565b6020808252601a908201527f436f6c6c61746572616c20726174696f206d7573742062652030000000000000604082015260600190565b602080825260119082015270109d5e589858dac81a5cc81c185d5cd959607a1b604082015260600190565b90815260200190565b918252602082015260400190565b948552602085019390935260408401919091526060830152608082015260a00190565b968752602087019590955260408601939093526060850191909152608084015260a083015260c082015260e00190565b6001600160a01b0381168114614eda57600080fd5b50565b8015158114614eda57600080fdfea26469706673582212208393077518d9736e9ecee654b12cb4f371926529e920cd5e2bdd19db8d2171e364736f6c634300060b0033",
  "deployedBytecode": "0x6080604052600436106102815760003560e01c80638d2ac7a41161014f578063c3abe077116100c1578063deeea8381161007a578063deeea838146106a4578063e69d3010146106b9578063f08493eb146106ce578063f61adab2146106e1578063fc5b5fda146106f6578063fede5c9c146107165761029c565b8063c3abe07714610610578063c74ec56a14610625578063c7afa7cf1461063a578063cb73999f1461065a578063cbf81dba1461066f578063ceecb0f2146106845761029c565b8063abae2c4c11610113578063abae2c4c1461057c578063ac6d7d6b1461059c578063b235d468146105bc578063bbf0ce1d146105d1578063c3355b8d146105e6578063c39e011f146105fb5761029c565b80638d2ac7a41461050a5780638e5d63eb1461051f5780639ccabfb514610534578063a6c2ddf414610549578063a6e6aa281461055c5761029c565b80634c634934116101f35780636d2c5615116101ac5780636d2c5615146104815780637b0461e9146104965780637e4831d3146104ab5780637f877f85146104c05780637fbc9090146104d557806380edef8e146104f55761029c565b80634c634934146103ed5780634ebbe762146104025780635f55504c1461042257806364fe5de2146104375780636526a12a146104575780636c7ff97b1461046c5761029c565b80631d833ca6116102455780631d833ca6146103365780631eaa0e171461035657806326862f9e146103785780632efca534146103985780633c295778146103ba57806341d2a54d146103da5761029c565b806308a7493d146102a1578063101197c7146102d757806313af4035146102ec578063151284251461030c5780631c309e0a146103215761029c565b3661029c576003546001600160a01b0316331461029a57fe5b005b600080fd5b3480156102ad57600080fd5b506102c16102bc366004614365565b61072b565b6040516102ce9190614e5b565b60405180910390f35b3480156102e357600080fd5b506102c161073d565b3480156102f857600080fd5b5061029a610307366004614365565b610743565b34801561031857600080fd5b506102c16107e6565b34801561032d57600080fd5b5061029a6107ec565b34801561034257600080fd5b5061029a6103513660046144ad565b61087a565b34801561036257600080fd5b5061036b610bb2565b6040516102ce9190614639565b34801561038457600080fd5b5061029a6103933660046144ad565b610bc1565b3480156103a457600080fd5b506103ad61115b565b6040516102ce919061468a565b3480156103c657600080fd5b5061029a6103d5366004614445565b61116b565b61029a6103e83660046144f1565b61133f565b3480156103f957600080fd5b506102c161197c565b34801561040e57600080fd5b5061029a61041d366004614594565b611982565b34801561042e57600080fd5b5061029a611a1c565b34801561044357600080fd5b5061029a61045236600461447d565b611a9a565b34801561046357600080fd5b506102c1611b4b565b34801561047857600080fd5b5061029a611b51565b34801561048d57600080fd5b506103ad611c96565b3480156104a257600080fd5b506102c1611ca5565b3480156104b757600080fd5b506103ad611cab565b3480156104cc57600080fd5b506103ad611cb4565b3480156104e157600080fd5b5061029a6104f0366004614529565b611cc4565b34801561050157600080fd5b5061036b61262a565b34801561051657600080fd5b506103ad612639565b34801561052b57600080fd5b506103ad61264a565b34801561054057600080fd5b506102c161265a565b61029a610557366004614554565b612742565b34801561056857600080fd5b5061029a61057736600461439d565b612b71565b34801561058857600080fd5b506102c1610597366004614365565b612bf9565b3480156105a857600080fd5b506102c16105b7366004614365565b612c0b565b3480156105c857600080fd5b506103ad612c1d565b3480156105dd57600080fd5b5061029a612c2b565b3480156105f257600080fd5b506102c1612c99565b34801561060757600080fd5b5061029a612c9f565b34801561061c57600080fd5b5061029a612d24565b34801561063157600080fd5b506102c1612da6565b34801561064657600080fd5b5061029a6106553660046144ad565b612dac565b34801561066657600080fd5b506102c161334f565b34801561067b57600080fd5b5061029a613355565b34801561069057600080fd5b5061029a61069f3660046144f1565b6133d5565b3480156106b057600080fd5b506103ad61362a565b3480156106c557600080fd5b506102c161363a565b61029a6106dc3660046144f1565b61378e565b3480156106ed57600080fd5b506102c1613b11565b34801561070257600080fd5b5061029a6107113660046143d5565b613cfd565b34801561072257600080fd5b506102c1613f22565b600b6020526000908152604090205481565b60115481565b6006546001600160a01b031633146107765760405162461bcd60e51b815260040161076d9061496e565b60405180910390fd5b6001600160a01b03811661079c5760405162461bcd60e51b815260040161076d90614d8b565b600680546001600160a01b0319166001600160a01b0383169081179091556040517f50146d0e3c60aa1d17a70635b05494f864e86144a2201275021014fbf08bafe290600090a250565b60165481565b6006546001600160a01b031633146108165760405162461bcd60e51b815260040161076d9061496e565b600e805460ff600160281b808304821615810265ff00000000001990931692909217928390556040517f5500d28fd6f79ee96ffff9ce2f45833d5913c84f586b8a537b6c6f25df0312a3936108709390049091169061468a565b60405180910390a1565b600e5460ff161561089d5760405162461bcd60e51b815260040161076d90614c42565b6108a5611b51565b600260009054906101000a90046001600160a01b03166001600160a01b0316634013124a6040518163ffffffff1660e01b8152600401600060405180830381600087803b1580156108f557600080fd5b505af1158015610909573d6000803e3d6000fd5b505050506000600260009054906101000a90046001600160a01b03166001600160a01b031663ed99250c6040518163ffffffff1660e01b815260040160206040518083038186803b15801561095d57600080fd5b505afa158015610971573d6000803e3d6000fd5b505050506040513d601f19601f820116820180604052508101906109959190614495565b9050600260009054906101000a90046001600160a01b03166001600160a01b031663fadb1b026040518163ffffffff1660e01b815260040160206040518083038186803b1580156109e557600080fd5b505afa1580156109f9573d6000803e3d6000fd5b505050506040513d601f19601f82011682018060405250810190610a1d9190614495565b15610a3a5760405162461bcd60e51b815260040161076d90614df9565b604051630810278f60e41b815260009073__$1b7833db14374605bbf4baa82b35c8734a$__9063810278f090610a769085908890600401614e64565b60206040518083038186803b158015610a8e57600080fd5b505af4158015610aa2573d6000803e3d6000fd5b505050506040513d601f19601f82011682018060405250810190610ac69190614495565b9050610b0764e8d4a51000610afb610aee600f5464e8d4a51000613f2890919063ffffffff16565b849063ffffffff613f5516565b9063ffffffff613f9616565b905080831115610b295760405162461bcd60e51b815260040161076d90614c6d565b600154600254610b48916001600160a01b039081169133911687613fc8565b600254604051635a7ab59360e11b81526001600160a01b039091169063b4f56b2690610b7a903390859060040161464d565b600060405180830381600087803b158015610b9457600080fd5b505af1158015610ba8573d6000803e3d6000fd5b5050505050505050565b6005546001600160a01b031681565b600e54610100900460ff1615610be95760405162461bcd60e51b815260040161076d906149d4565b610bf1611b51565b600260009054906101000a90046001600160a01b03166001600160a01b0316634013124a6040518163ffffffff1660e01b8152600401600060405180830381600087803b158015610c4157600080fd5b505af1158015610c55573d6000803e3d6000fd5b5050505064e8d4a51000600260009054906101000a90046001600160a01b03166001600160a01b031663fadb1b026040518163ffffffff1660e01b815260040160206040518083038186803b158015610cad57600080fd5b505afa158015610cc1573d6000803e3d6000fd5b505050506040513d601f19601f82011682018060405250810190610ce59190614495565b14610d025760405162461bcd60e51b815260040161076d90614c0b565b6000610d0c61363a565b90506000600260009054906101000a90046001600160a01b03166001600160a01b031663fa6292196040518163ffffffff1660e01b815260040160206040518083038186803b158015610d5e57600080fd5b505afa158015610d72573d6000803e3d6000fd5b505050506040513d601f19601f82011682018060405250810190610d969190614495565b9050600064e8d4a510008211610dac5781610db3565b64e8d4a510005b90506000610de284610afb64e8d4a510008186610dd68c8463ffffffff613f5516565b9063ffffffff613f5516565b9050610e0a64e8d4a51000610afb610aee60105464e8d4a51000613f2890919063ffffffff16565b600c546000546040516370a0823160e01b8152929350610ea592620100009091046001600160a01b0316906370a0823190610e49903090600401614639565b60206040518083038186803b158015610e6157600080fd5b505afa158015610e75573d6000803e3d6000fd5b505050506040513d601f19601f82011682018060405250810190610e999190614495565b9063ffffffff613f2816565b811115610ec45760405162461bcd60e51b815260040161076d90614dc2565b80851115610ee45760405162461bcd60e51b815260040161076d90614c6d565b600254604051631096f10360e01b81526001600160a01b0390911690631096f10390610f14903390600401614639565b60206040518083038186803b158015610f2c57600080fd5b505afa158015610f40573d6000803e3d6000fd5b505050506040513d601f19601f82011682018060405250810190610f649190614461565b15610f9e57336000908152600b6020526040902054610f89908263ffffffff6140b116565b336000908152600b60205260409020556110c7565b6000610fb182600a63ffffffff613f9616565b90506000610fcb600a610afb85600963ffffffff613f5516565b336000908152600b6020526040902054909150610fee908363ffffffff6140b116565b336000908152600b6020908152604080832093909355600254835163a367e27d60e01b8152935192936001600160a01b039091169263a367e27d92600480840193919291829003018186803b15801561104657600080fd5b505afa15801561105a573d6000803e3d6000fd5b505050506040513d601f19601f8201168201806040525081019061107e9190614381565b6001600160a01b0381166000908152600b60205260409020549091506110aa908363ffffffff6140b116565b6001600160a01b039091166000908152600b602052604090205550505b600c546110da908263ffffffff6140b116565b600c55336000818152600d6020526040908190204390556002549051635453bc5760e11b81526001600160a01b039091169163a8a778ae9161112191908a9060040161464d565b600060405180830381600087803b15801561113b57600080fd5b505af115801561114f573d6000803e3d6000fd5b50505050505050505050565b600e54600160281b900460ff1681565b601654336000908152600d60205260409020544391611190919063ffffffff6140b116565b11156111ae5760405162461bcd60e51b815260040161076d90614906565b336000908152600a6020526040812054819081908190156111e457336000908152600a6020526040812080549190556001945091505b336000908152600b6020526040902054156112295750336000908152600b602052604081208054919055600c54611221908263ffffffff613f2816565b600c55600192505b60018415151415611299576002546040516331be54d360e01b81526001600160a01b03909116906331be54d390611266903390869060040161464d565b600060405180830381600087803b15801561128057600080fd5b505af1158015611294573d6000803e3d6000fd5b505050505b6001831515141561133857841561131b57600354604051632e1a7d4d60e01b81526001600160a01b0390911690632e1a7d4d906112da908490600401614e5b565b600060405180830381600087803b1580156112f457600080fd5b505af1158015611308573d6000803e3d6000fd5b5050505061131633826140d6565b611338565b600054611338906201000090046001600160a01b03163383614168565b5050505050565b600e5462010000900460ff16156113685760405162461bcd60e51b815260040161076d90614cd2565b600e54600160281b900460ff16156113a4576006546001600160a01b031633146113a45760405162461bcd60e51b815260040161076d90614b77565b6113ac611b51565b600260009054906101000a90046001600160a01b03166001600160a01b0316634013124a6040518163ffffffff1660e01b8152600401600060405180830381600087803b1580156113fc57600080fd5b505af1158015611410573d6000803e3d6000fd5b505050506000600754600a0a840290506000600260009054906101000a90046001600160a01b03166001600160a01b031663ed99250c6040518163ffffffff1660e01b815260040160206040518083038186803b15801561147057600080fd5b505afa158015611484573d6000803e3d6000fd5b505050506040513d601f19601f820116820180604052508101906114a89190614495565b90506000600260009054906101000a90046001600160a01b03166001600160a01b03166318160ddd6040518163ffffffff1660e01b815260040160206040518083038186803b1580156114fa57600080fd5b505afa15801561150e573d6000803e3d6000fd5b505050506040513d601f19601f820116820180604052508101906115329190614495565b90506000600260009054906101000a90046001600160a01b03166001600160a01b031663fadb1b026040518163ffffffff1660e01b815260040160206040518083038186803b15801561158457600080fd5b505afa158015611598573d6000803e3d6000fd5b505050506040513d601f19601f820116820180604052508101906115bc9190614495565b90506000600260009054906101000a90046001600160a01b03166001600160a01b031663d2d97b066040518163ffffffff1660e01b815260040160206040518083038186803b15801561160e57600080fd5b505afa158015611622573d6000803e3d6000fd5b505050506040513d601f19601f820116820180604052508101906116469190614495565b905060008073__$1b7833db14374605bbf4baa82b35c8734a$__634e820a3f8861166e61363a565b8689896040518663ffffffff1660e01b8152600401611691959493929190614e72565b604080518083038186803b1580156116a857600080fd5b505af41580156116bc573d6000803e3d6000fd5b505050506040513d601f19601f820116820180604052508101906116e091906144ce565b9150915060006116fe600754600a0a84613f9690919063ffffffff16565b9050600061173688610afb611729601254610e9960155464e8d4a510006140b190919063ffffffff16565b869063ffffffff613f5516565b90506000600260009054906101000a90046001600160a01b03166001600160a01b03166302c855f86040518163ffffffff1660e01b815260040160206040518083038186803b15801561178857600080fd5b505afa15801561179c573d6000803e3d6000fd5b505050506040513d601f19601f820116820180604052508101906117c09190614495565b90506117db64e8d4a51000610afb848463ffffffff613f5516565b9150818c11156117fd5760405162461bcd60e51b815260040161076d90614c6d565b8a156118b757600354600160a01b900460ff1661181657fe5b8c34146118355760405162461bcd60e51b815260040161076d90614bbf565b600360009054906101000a90046001600160a01b03166001600160a01b031663d0e30db0846040518263ffffffff1660e01b81526004016000604051808303818588803b15801561188557600080fd5b505af1158015611899573d6000803e3d6000fd5b5050505050823411156118b2576118b2338434036140d6565b6118d5565b6000546118d5906201000090046001600160a01b0316333086613fc8565b81156119405760025460405163384c0f5960e11b81526001600160a01b03909116906370981eb29061190d903390869060040161464d565b600060405180830381600087803b15801561192757600080fd5b505af115801561193b573d6000803e3d6000fd5b505050505b604051829084907fc2d7df98caa1a9bc768fc3ab167e19ae4febd5da76dad18d3387fb9fc656a37390600090a350505050505050505050505050565b60155481565b6006546001600160a01b031633146119ac5760405162461bcd60e51b815260040161076d9061496e565b601387905560158690556016859055600f8490556010839055601182905560128190556040517f17fe98b66d27bd793ea01bd8a23a54acab8eeb167d9eb016a0c7cd71c573920c90611a0b908990899089908990899089908990614e95565b60405180910390a150505050505050565b6006546001600160a01b03163314611a465760405162461bcd60e51b815260040161076d9061496e565b600e805460ff610100808304821615810261ff001990931692909217928390556040517fd449302f806044ba9a0f0b2862e496c86cb4ef1f6b3fd474113fb26e46d9b28a936108709390049091169061468a565b6006546001600160a01b03163314611ac45760405162461bcd60e51b815260040161076d9061496e565b600e54640100000000900460ff16611ae0576014819055611ae6565b60006014555b600e805460ff640100000000808304821615810264ff000000001990931692909217928390556040517fbf1f9e6d8d67bb57a141c627f40368ec23ed7603249f0c3518c16eafbf9c4f6f93611b409390049091169061468a565b60405180910390a150565b60135481565b600260009054906101000a90046001600160a01b03166001600160a01b0316636c7ff97b6040518163ffffffff1660e01b8152600401600060405180830381600087803b158015611ba157600080fd5b505af1158015611bb5573d6000803e3d6000fd5b505060048054604080516309bf39ed60e01b815290516001600160a01b0390921694506309bf39ed93508083019260209291829003018186803b158015611bfb57600080fd5b505afa158015611c0f573d6000803e3d6000fd5b505050506040513d601f19601f82011682018060405250810190611c339190614461565b15611c94576004805460408051630d6f124f60e41b815290516001600160a01b039092169263d6f124f092828201926000929082900301818387803b158015611c7b57600080fd5b505af1158015611c8f573d6000803e3d6000fd5b505050505b565b600e5462010000900460ff1681565b600c5481565b600e5460ff1681565b600e546301000000900460ff1681565b600e54610100900460ff1615611cec5760405162461bcd60e51b815260040161076d906149d4565b611cf4611b51565b600260009054906101000a90046001600160a01b03166001600160a01b0316634013124a6040518163ffffffff1660e01b8152600401600060405180830381600087803b158015611d4457600080fd5b505af1158015611d58573d6000803e3d6000fd5b505050506000600260009054906101000a90046001600160a01b03166001600160a01b031663fadb1b026040518163ffffffff1660e01b815260040160206040518083038186803b158015611dac57600080fd5b505afa158015611dc0573d6000803e3d6000fd5b505050506040513d601f19601f82011682018060405250810190611de49190614495565b905064e8d4a5100081108015611dfa5750600081115b611e165760405162461bcd60e51b815260040161076d9061478a565b6002546040805163fa62921960e01b815290516000926001600160a01b03169163fa629219916004808301926020929190829003018186803b158015611e5b57600080fd5b505afa158015611e6f573d6000803e3d6000fd5b505050506040513d601f19601f82011682018060405250810190611e939190614495565b90506000828210611ea45782611ea6565b815b90506000611edd64e8d4a51000610afb611ed060105464e8d4a51000613f2890919063ffffffff16565b8a9063ffffffff613f5516565b90506000611f0a611efd64e8d4a51000610afb858763ffffffff613f5516565b839063ffffffff613f2816565b90506000611fac600260009054906101000a90046001600160a01b03166001600160a01b031663ed99250c6040518163ffffffff1660e01b815260040160206040518083038186803b158015611f5f57600080fd5b505afa158015611f73573d6000803e3d6000fd5b505050506040513d601f19601f82011682018060405250810190611f979190614495565b610afb8464e8d4a5100063ffffffff613f5516565b90506000600260009054906101000a90046001600160a01b03166001600160a01b03166302c855f86040518163ffffffff1660e01b815260040160206040518083038186803b158015611ffe57600080fd5b505afa158015612012573d6000803e3d6000fd5b505050506040513d601f19601f820116820180604052508101906120369190614495565b905061205164e8d4a51000610afb848463ffffffff613f5516565b9150600061206d600754600a0a86613f9690919063ffffffff16565b9050600061208a64e8d4a51000610afb848a63ffffffff613f5516565b90506000612099611f9761363a565b600c546000546040516370a0823160e01b81529293506120d892620100009091046001600160a01b0316906370a0823190610e49903090600401614639565b8111156120f75760405162461bcd60e51b815260040161076d90614dc2565b808b11156121175760405162461bcd60e51b815260040161076d906147e7565b848c11156121375760405162461bcd60e51b815260040161076d9061499d565b600254604051631096f10360e01b81526001600160a01b0390911690631096f10390612167903390600401614639565b60206040518083038186803b15801561217f57600080fd5b505afa158015612193573d6000803e3d6000fd5b505050506040513d601f19601f820116820180604052508101906121b79190614461565b156121f157336000908152600b60205260409020546121dc908263ffffffff6140b116565b336000908152600b602052604090205561231a565b600061220482600a63ffffffff613f9616565b9050600061221e600a610afb85600963ffffffff613f5516565b336000908152600b6020526040902054909150612241908363ffffffff6140b116565b336000908152600b6020908152604080832093909355600254835163a367e27d60e01b8152935192936001600160a01b039091169263a367e27d92600480840193919291829003018186803b15801561229957600080fd5b505afa1580156122ad573d6000803e3d6000fd5b505050506040513d601f19601f820116820180604052508101906122d19190614381565b6001600160a01b0381166000908152600b60205260409020549091506122fd908363ffffffff6140b116565b6001600160a01b039091166000908152600b602052604090205550505b600c5461232d908263ffffffff6140b116565b600c55841561257c57600254604051631096f10360e01b81526001600160a01b0390911690631096f10390612366903390600401614639565b60206040518083038186803b15801561237e57600080fd5b505afa158015612392573d6000803e3d6000fd5b505050506040513d601f19601f820116820180604052508101906123b69190614461565b156123f057336000908152600a60205260409020546123db908663ffffffff6140b116565b336000908152600a6020526040902055612519565b600061240386600a63ffffffff613f9616565b9050600061241d600a610afb89600963ffffffff613f5516565b336000908152600a6020526040902054909150612440908363ffffffff6140b116565b336000908152600a6020908152604080832093909355600254835163a367e27d60e01b8152935192936001600160a01b039091169263a367e27d92600480840193919291829003018186803b15801561249857600080fd5b505afa1580156124ac573d6000803e3d6000fd5b505050506040513d601f19601f820116820180604052508101906124d09190614381565b6001600160a01b0381166000908152600a60205260409020549091506124fc908363ffffffff6140b116565b6001600160a01b039091166000908152600a602052604090205550505b6002546040516369d1679960e01b81526001600160a01b03909116906369d1679990612549908890600401614e5b565b600060405180830381600087803b15801561256357600080fd5b505af1158015612577573d6000803e3d6000fd5b505050505b43600d6000336001600160a01b03166001600160a01b0316815260200190815260200160002081905550600260009054906101000a90046001600160a01b03166001600160a01b031663a8a778ae338f6040518363ffffffff1660e01b81526004016125e992919061464d565b600060405180830381600087803b15801561260357600080fd5b505af1158015612617573d6000803e3d6000fd5b5050505050505050505050505050505050565b6006546001600160a01b031681565b600e54640100000000900460ff1681565b600354600160a01b900460ff1681565b600e54600090640100000000900460ff161515600114156126db576126d464e8d4a51000610afb601454610dd6600754600a0a610dd6600c54600060029054906101000a90046001600160a01b03166001600160a01b03166370a08231306040518263ffffffff1660e01b8152600401610e499190614639565b905061273f565b6126d464e8d4a51000610afb6126ef61363a565b610dd6600754600a0a610dd6600c54600060029054906101000a90046001600160a01b03166001600160a01b03166370a08231306040518263ffffffff1660e01b8152600401610e499190614639565b90565b600e5460ff16156127655760405162461bcd60e51b815260040161076d90614c42565b61276d611b51565b600260009054906101000a90046001600160a01b03166001600160a01b0316634013124a6040518163ffffffff1660e01b8152600401600060405180830381600087803b1580156127bd57600080fd5b505af11580156127d1573d6000803e3d6000fd5b505050506000600260009054906101000a90046001600160a01b03166001600160a01b031663ed99250c6040518163ffffffff1660e01b815260040160206040518083038186803b15801561282557600080fd5b505afa158015612839573d6000803e3d6000fd5b505050506040513d601f19601f8201168201806040525081019061285d9190614495565b90506000600260009054906101000a90046001600160a01b03166001600160a01b031663fadb1b026040518163ffffffff1660e01b815260040160206040518083038186803b1580156128af57600080fd5b505afa1580156128c3573d6000803e3d6000fd5b505050506040513d601f19601f820116820180604052508101906128e79190614495565b905064e8d4a51000811080156128fd5750600081115b6129195760405162461bcd60e51b815260040161076d9061478a565b601354600c546000546040516370a0823160e01b815261296a928a9261295e92620100009091046001600160a01b0316906370a0823190610e49903090600401614639565b9063ffffffff6140b116565b11156129885760405162461bcd60e51b815260040161076d90614ac7565b600754600a0a86026000806129a68561299f61363a565b858761424f565b915091506129dd64e8d4a51000610afb6129d0600f5464e8d4a51000613f2890919063ffffffff16565b859063ffffffff613f5516565b9150818711156129ff5760405162461bcd60e51b815260040161076d90614c6d565b87811115612a1f5760405162461bcd60e51b815260040161076d906146e5565b600154600254612a3e916001600160a01b039081169133911684613fc8565b8515612ae457600354600160a01b900460ff16612a5757fe5b883414612a765760405162461bcd60e51b815260040161076d90614bbf565b600360009054906101000a90046001600160a01b03166001600160a01b031663d0e30db08a6040518263ffffffff1660e01b81526004016000604051808303818588803b158015612ac657600080fd5b505af1158015612ada573d6000803e3d6000fd5b5050505050612b02565b600054612b02906201000090046001600160a01b031633308c613fc8565b600254604051635a7ab59360e11b81526001600160a01b039091169063b4f56b2690612b34903390869060040161464d565b600060405180830381600087803b158015612b4e57600080fd5b505af1158015612b62573d6000803e3d6000fd5b50505050505050505050505050565b6006546001600160a01b03163314612b9b5760405162461bcd60e51b815260040161076d9061496e565b600480546001600160a01b03199081166001600160a01b03858116918217909355600980549092169284169283179091556040517f856e4796eef882904bc46a505b32b16c6fbcef9e0930ac95b2f980781517bf6390600090a35050565b600d6020526000908152604090205481565b600a6020526000908152604090205481565b600e54610100900460ff1681565b6006546001600160a01b03163314612c555760405162461bcd60e51b815260040161076d9061496e565b600e805460ff19811660ff9182161517918290556040517f3f3c6b7e51ec0201fea018ffcf768f21f85a27593219359fd6af1d95c7e8b4419261087092169061468a565b600f5481565b6006546001600160a01b03163314612cc95760405162461bcd60e51b815260040161076d9061496e565b600e805460ff600160301b808304821615810266ff0000000000001990931692909217928390556040517fd5bc042d6e197fb30aec38c1634dabc01e0bb517e3fea6db130cea5753712246936108709390049091169061468a565b6006546001600160a01b03163314612d4e5760405162461bcd60e51b815260040161076d9061496e565b600e805460ff6301000000808304821615810263ff0000001990931692909217928390556040517fef220f30673af554aae10180ad5ab98f41c923213a66d1207dbe61f00aa75acf936108709390049091169061468a565b60145481565b600e54610100900460ff1615612dd45760405162461bcd60e51b815260040161076d906149d4565b612ddc611b51565b600260009054906101000a90046001600160a01b03166001600160a01b0316634013124a6040518163ffffffff1660e01b8152600401600060405180830381600087803b158015612e2c57600080fd5b505af1158015612e40573d6000803e3d6000fd5b505050506000600260009054906101000a90046001600160a01b03166001600160a01b031663ed99250c6040518163ffffffff1660e01b815260040160206040518083038186803b158015612e9457600080fd5b505afa158015612ea8573d6000803e3d6000fd5b505050506040513d601f19601f82011682018060405250810190612ecc9190614495565b90506000600260009054906101000a90046001600160a01b03166001600160a01b031663fadb1b026040518163ffffffff1660e01b815260040160206040518083038186803b158015612f1e57600080fd5b505afa158015612f32573d6000803e3d6000fd5b505050506040513d601f19601f82011682018060405250810190612f569190614495565b90508015612f765760405162461bcd60e51b815260040161076d90614df9565b6000849050612fa164e8d4a51000610afb610aee60105464e8d4a51000613f2890919063ffffffff16565b90506000612fbe84610afb8464e8d4a5100063ffffffff613f5516565b90506000600260009054906101000a90046001600160a01b03166001600160a01b03166302c855f86040518163ffffffff1660e01b815260040160206040518083038186803b15801561301057600080fd5b505afa158015613024573d6000803e3d6000fd5b505050506040513d601f19601f820116820180604052508101906130489190614495565b905061306364e8d4a51000610afb848463ffffffff613f5516565b915081156132b157600254604051631096f10360e01b81526001600160a01b0390911690631096f1039061309b903390600401614639565b60206040518083038186803b1580156130b357600080fd5b505afa1580156130c7573d6000803e3d6000fd5b505050506040513d601f19601f820116820180604052508101906130eb9190614461565b1561312557336000908152600a6020526040902054613110908363ffffffff6140b116565b336000908152600a602052604090205561324e565b600061313883600a63ffffffff613f9616565b90506000613152600a610afb86600963ffffffff613f5516565b336000908152600a6020526040902054909150613175908363ffffffff6140b116565b336000908152600a6020908152604080832093909355600254835163a367e27d60e01b8152935192936001600160a01b039091169263a367e27d92600480840193919291829003018186803b1580156131cd57600080fd5b505afa1580156131e1573d6000803e3d6000fd5b505050506040513d601f19601f820116820180604052508101906132059190614381565b6001600160a01b0381166000908152600a6020526040902054909150613231908363ffffffff6140b116565b6001600160a01b039091166000908152600a602052604090205550505b6002546040516369d1679960e01b81526001600160a01b03909116906369d167999061327e908590600401614e5b565b600060405180830381600087803b15801561329857600080fd5b505af11580156132ac573d6000803e3d6000fd5b505050505b336000908152600d602052604090204390558186106132e25760405162461bcd60e51b815260040161076d90614c6d565b600254604051635453bc5760e11b81526001600160a01b039091169063a8a778ae906133149033908b9060040161464d565b600060405180830381600087803b15801561332e57600080fd5b505af1158015613342573d6000803e3d6000fd5b5050505050505050505050565b60105481565b6006546001600160a01b0316331461337f5760405162461bcd60e51b815260040161076d9061496e565b600e805460ff62010000808304821615810262ff00001990931692909217928390556040517f7e9a29a085706d1cf00b68ff18532dae53be17faa8be9bab8821c355a393656a936108709390049091169061468a565b600e546301000000900460ff16156133ff5760405162461bcd60e51b815260040161076d90614e30565b600e54600160301b900460ff161561343b576006546001600160a01b0316331461343b5760405162461bcd60e51b815260040161076d90614d56565b613443611b51565b60025460408051633b66494360e21b815290516000926001600160a01b03169163ed99250c916004808301926020929190829003018186803b15801561348857600080fd5b505afa15801561349c573d6000803e3d6000fd5b505050506040513d601f19601f820116820180604052508101906134c09190614495565b9050600061350464e8d4a51000610afb6134ea60115464e8d4a51000613f2890919063ffffffff16565b610dd66134f5613b11565b876134fe61363a565b8c6142ca565b90506000613520600754600a0a83613f9690919063ffffffff16565b9050808511156135425760405162461bcd60e51b815260040161076d90614c6d565b600154600254613561916001600160a01b039081169133911689613fc8565b83156135d857600354604051632e1a7d4d60e01b81526001600160a01b0390911690632e1a7d4d90613597908490600401614e5b565b600060405180830381600087803b1580156135b157600080fd5b505af11580156135c5573d6000803e3d6000fd5b505050506135d333826140d6565b6135f5565b6000546135f5906201000090046001600160a01b03163383614168565b604051819087907f15b90a6a755d5ed0f929f1f40375d58183388d8d9e2f8e9a2efa93043e70f6de90600090a3505050505050565b600e54600160301b900460ff1681565b600e54600090640100000000900460ff1615156001141561365e575060145461273f565b60025460408051632d83c63b60e11b815290516000926001600160a01b031691635b078c76916004808301926020929190829003018186803b1580156136a357600080fd5b505afa1580156136b7573d6000803e3d6000fd5b505050506040513d601f19601f820116820180604052508101906136db9190614495565b60048054600954604051633ddac95360e01b81529394506000936001600160a01b0392831693633ddac9539361371a93169164e8d4a51000910161464d565b60206040518083038186803b15801561373257600080fd5b505afa158015613746573d6000803e3d6000fd5b505050506040513d601f19601f8201168201806040525081019061376a9190614495565b905061378581610afb8464e8d4a5100063ffffffff613f5516565b9250505061273f565b600e5460ff16156137b15760405162461bcd60e51b815260040161076d90614c42565b6137b9611b51565b6000600754600a0a84029050600260009054906101000a90046001600160a01b03166001600160a01b0316634013124a6040518163ffffffff1660e01b8152600401600060405180830381600087803b15801561381557600080fd5b505af1158015613829573d6000803e3d6000fd5b505050506000600260009054906101000a90046001600160a01b03166001600160a01b031663fadb1b026040518163ffffffff1660e01b815260040160206040518083038186803b15801561387d57600080fd5b505afa158015613891573d6000803e3d6000fd5b505050506040513d601f19601f820116820180604052508101906138b59190614495565b905064e8d4a510008110156138dc5760405162461bcd60e51b815260040161076d9061471c565b601354600c546000546040516370a0823160e01b815261392192899261295e92620100009091046001600160a01b0316906370a0823190610e49903090600401614639565b111561393f5760405162461bcd60e51b815260040161076d90614c9d565b600073__$1b7833db14374605bbf4baa82b35c8734a$__63ba8b180861396361363a565b856040518363ffffffff1660e01b8152600401613981929190614e64565b60206040518083038186803b15801561399957600080fd5b505af41580156139ad573d6000803e3d6000fd5b505050506040513d601f19601f820116820180604052508101906139d19190614495565b90506139f964e8d4a51000610afb610aee600f5464e8d4a51000613f2890919063ffffffff16565b905080851115613a1b5760405162461bcd60e51b815260040161076d90614c6d565b8315613ac157600354600160a01b900460ff16613a3457fe5b853414613a535760405162461bcd60e51b815260040161076d90614bbf565b600360009054906101000a90046001600160a01b03166001600160a01b031663d0e30db0876040518263ffffffff1660e01b81526004016000604051808303818588803b158015613aa357600080fd5b505af1158015613ab7573d6000803e3d6000fd5b5050505050613adf565b600054613adf906201000090046001600160a01b0316333089613fc8565b600254604051635a7ab59360e11b81526001600160a01b039091169063b4f56b2690611121903390859060040161464d565b600080600260009054906101000a90046001600160a01b03166001600160a01b03166318160ddd6040518163ffffffff1660e01b815260040160206040518083038186803b158015613b6257600080fd5b505afa158015613b76573d6000803e3d6000fd5b505050506040513d601f19601f82011682018060405250810190613b9a9190614495565b90506000600260009054906101000a90046001600160a01b03166001600160a01b031663fadb1b026040518163ffffffff1660e01b815260040160206040518083038186803b158015613bec57600080fd5b505afa158015613c00573d6000803e3d6000fd5b505050506040513d601f19601f82011682018060405250810190613c249190614495565b90506000600260009054906101000a90046001600160a01b03166001600160a01b031663d2d97b066040518163ffffffff1660e01b815260040160206040518083038186803b158015613c7657600080fd5b505afa158015613c8a573d6000803e3d6000fd5b505050506040513d601f19601f82011682018060405250810190613cae9190614495565b90506000613ccb64e8d4a51000610afb868663ffffffff613f5516565b905080821115613cf057613ce5828263ffffffff613f2816565b94505050505061273f565b600094505050505061273f565b600054610100900460ff1680613d165750613d1661434e565b80613d24575060005460ff16155b613d405760405162461bcd60e51b815260040161076d90614a79565b600054610100900460ff16158015613d6b576000805460ff1961ff0019909116610100171660011790555b600280546001600160a01b038089166001600160a01b03199283161790925560018054928816929091169190911790558115613dbd57600380546001600160a01b0319166001600160a01b0386161790555b600580546001600160a01b03199081166001600160a01b0387811691821790935560068054909216868416179091556000805462010000600160b01b0319166201000092830217908190556040805163313ce56760e01b81529051929091049092169163313ce567916004808301926020929190829003018186803b158015613e4557600080fd5b505afa158015613e59573d6000803e3d6000fd5b505050506040513d601f19601f82011682018060405250810190613e7d91906145df565b60ff166008819055613e979060129063ffffffff613f2816565b60075560038054831515600160a01b0260ff60a01b199091161790556ec097ce7bc90715b34b9f10000000006013556401bf08eb00601555600160165563b2d05e00600f819055601055600e805466ff0000000000001965ff000000000019909116600160281b1716600160301b1790558015613f1a576000805461ff00191690555b505050505050565b60125481565b600082821115613f4a5760405162461bcd60e51b815260040161076d906148cf565b508082035b92915050565b600082613f6457506000613f4f565b82820282848281613f7157fe5b0414613f8f5760405162461bcd60e51b815260040161076d90614b36565b9392505050565b6000808211613fb75760405162461bcd60e51b815260040161076d90614a01565b818381613fc057fe5b049392505050565b60006060856001600160a01b03166323b872dd868686604051602401613ff093929190614666565b6040516020818303038152906040529060e01b6020820180516001600160e01b0383818316178352505050506040516140299190614600565b6000604051808303816000865af19150503d8060008114614066576040519150601f19603f3d011682016040523d82523d6000602084013e61406b565b606091505b50915091508180156140955750805115806140955750808060200190518101906140959190614461565b613f1a5760405162461bcd60e51b815260040161076d9061482a565b600082820183811015613f8f5760405162461bcd60e51b815260040161076d90614753565b604080516000808252602082019092526001600160a01b0384169083906040516141009190614600565b60006040518083038185875af1925050503d806000811461413d576040519150601f19603f3d011682016040523d82523d6000602084013e614142565b606091505b50509050806141635760405162461bcd60e51b815260040161076d9061487b565b505050565b60006060846001600160a01b031663a9059cbb858560405160240161418e92919061464d565b6040516020818303038152906040529060e01b6020820180516001600160e01b0383818316178352505050506040516141c79190614600565b6000604051808303816000865af19150503d8060008114614204576040519150601f19603f3d011682016040523d82523d6000602084013e614209565b606091505b50915091508180156142335750805115806142335750808060200190518101906142339190614461565b6113385760405162461bcd60e51b815260040161076d90614d09565b6000808061426c64e8d4a51000610afb878963ffffffff613f5516565b9050600061428d82610e9987610afb8364e8d4a5100063ffffffff613f5516565b905060006142aa89610afb8464e8d4a5100063ffffffff613f5516565b90506142bc838363ffffffff6140b116565b999098509650505050505050565b60008085116142eb5760405162461bcd60e51b815260040161076d90614a38565b600061430664e8d4a51000610afb858863ffffffff613f5516565b9050858111156143285760405162461bcd60e51b815260040161076d90614695565b600061434385610afb8464e8d4a5100063ffffffff613f5516565b979650505050505050565b60006143593061435f565b15905090565b3b151590565b600060208284031215614376578081fd5b8135613f8f81614ec5565b600060208284031215614392578081fd5b8151613f8f81614ec5565b600080604083850312156143af578081fd5b82356143ba81614ec5565b915060208301356143ca81614ec5565b809150509250929050565b600080600080600060a086880312156143ec578081fd5b85356143f781614ec5565b9450602086013561440781614ec5565b9350604086013561441781614ec5565b9250606086013561442781614ec5565b9150608086013561443781614edd565b809150509295509295909350565b600060208284031215614456578081fd5b8135613f8f81614edd565b600060208284031215614472578081fd5b8151613f8f81614edd565b60006020828403121561448e578081fd5b5035919050565b6000602082840312156144a6578081fd5b5051919050565b600080604083850312156144bf578182fd5b50508035926020909101359150565b600080604083850312156144e0578182fd5b505080516020909101519092909150565b600080600060608486031215614505578283fd5b8335925060208401359150604084013561451e81614edd565b809150509250925092565b60008060006060848603121561453d578283fd5b505081359360208301359350604090920135919050565b60008060008060808587031215614569578384fd5b843593506020850135925060408501359150606085013561458981614edd565b939692955090935050565b600080600080600080600060e0888a0312156145ae578182fd5b505085359760208701359750604087013596606081013596506080810135955060a0810135945060c0013592509050565b6000602082840312156145f0578081fd5b815160ff81168114613f8f578182fd5b60008251815b818110156146205760208186018101518583015201614606565b8181111561462e5782828501525b509190910192915050565b6001600160a01b0391909116815260200190565b6001600160a01b03929092168252602082015260400190565b6001600160a01b039384168152919092166020820152604081019190915260600190565b901515815260200190565b60208082526030908201527f596f752061726520747279696e6720746f20627579206261636b206d6f72652060408201526f7468616e20746865206578636573732160801b606082015260800190565b60208082526017908201527f4e6f7420656e6f7567682042445820696e707574746564000000000000000000604082015260600190565b6020808252601d908201527f436f6c6c61746572616c20726174696f206d757374206265203e3d2031000000604082015260600190565b6020808252601b908201527f536166654d6174683a206164646974696f6e206f766572666c6f770000000000604082015260600190565b60208082526038908201527f436f6c6c61746572616c20726174696f206e6565647320746f2062652062657460408201527f7765656e202e30303030303120616e64202e3939393939390000000000000000606082015260800190565b60208082526023908201527f536c697070616765206c696d69742072656163686564205b636f6c6c61746572604082015262616c5d60e81b606082015260800190565b60208082526031908201527f5472616e7366657248656c7065723a3a7472616e7366657246726f6d3a207472604082015270185b9cd9995c919c9bdb4819985a5b1959607a1b606082015260800190565b60208082526034908201527f5472616e7366657248656c7065723a3a736166655472616e736665724554483a60408201527308115512081d1c985b9cd9995c8819985a5b195960621b606082015260800190565b6020808252601e908201527f536166654d6174683a207375627472616374696f6e206f766572666c6f770000604082015260600190565b60208082526042908201527f4d757374207761697420666f7220726564656d7074696f6e5f64656c6179206260408201527f6c6f636b73206265666f726520636f6c6c656374696e6720726564656d70746960608201526137b760f11b608082015260a00190565b6020808252601590820152742cb7ba9030b932903737ba103a34329037bbb732b960591b604082015260600190565b6020808252601c908201527f536c697070616765206c696d69742072656163686564205b4244585d00000000604082015260600190565b60208082526013908201527214995919595b5a5b99c81a5cc81c185d5cd959606a1b604082015260600190565b6020808252601a908201527f536166654d6174683a206469766973696f6e206279207a65726f000000000000604082015260600190565b60208082526021908201527f4e6f2065786365737320636f6c6c61746572616c20746f20627579206261636b6040820152602160f81b606082015260800190565b6020808252602e908201527f496e697469616c697a61626c653a20636f6e747261637420697320616c72656160408201526d191e481a5b9a5d1a585b1a5e995960921b606082015260800190565b60208082526049908201527f506f6f6c206365696c696e6720726561636865642c206e6f206d6f726520426460408201527f537461626c652063616e206265206d696e7465642077697468207468697320636060820152681bdb1b185d195c985b60ba1b608082015260a00190565b60208082526021908201527f536166654d6174683a206d756c7469706c69636174696f6e206f766572666c6f6040820152607760f81b606082015260800190565b60208082526028908201527f43757272656e746c79206f6e6c79206f776e65722063616e207265636f6c6c61604082015267746572616c697a6560c01b606082015260800190565b6020808252602c908201527f6d73672e76616c756520616e6420636f6c6c61746572616c5f616d6f756e742060408201526b0c8de40dcdee840dac2e8c6d60a31b606082015260800190565b6020808252601d908201527f436f6c6c61746572616c20726174696f206d757374206265203d3d2031000000604082015260600190565b602080825260119082015270135a5b9d1a5b99c81a5cc81c185d5cd959607a1b604082015260600190565b60208082526016908201527514db1a5c1c1859d9481b1a5b5a5d081c995858da195960521b604082015260600190565b6020808252818101527f5b506f6f6c277320436c6f7365645d3a204365696c696e672072656163686564604082015260600190565b60208082526019908201527f5265636f6c6c61746572616c697a652069732070617573656400000000000000604082015260600190565b6020808252602d908201527f5472616e7366657248656c7065723a3a736166655472616e736665723a20747260408201526c185b9cd9995c8819985a5b1959609a1b606082015260800190565b6020808252818101527f43757272656e746c79206f6e6c79206f776e65722063616e206275796261636b604082015260600190565b6020808252601f908201527f4e6577206f776e65722063616e2774206265207a65726f206164647265737300604082015260600190565b6020808252601d908201527f4e6f7420656e6f75676820636f6c6c61746572616c20696e20706f6f6c000000604082015260600190565b6020808252601a908201527f436f6c6c61746572616c20726174696f206d7573742062652030000000000000604082015260600190565b602080825260119082015270109d5e589858dac81a5cc81c185d5cd959607a1b604082015260600190565b90815260200190565b918252602082015260400190565b948552602085019390935260408401919091526060830152608082015260a00190565b968752602087019590955260408601939093526060850191909152608084015260a083015260c082015260e00190565b6001600160a01b0381168114614eda57600080fd5b50565b8015158114614eda57600080fdfea26469706673582212208393077518d9736e9ecee654b12cb4f371926529e920cd5e2bdd19db8d2171e364736f6c634300060b0033",
  "libraries": {
    "BdPoolLibrary": "0x8347C24b87b4eD51390fCE7A6a7D6764804Aa564"
  },
  "devdoc": {
    "kind": "dev",
    "methods": {},
    "version": 1
  },
  "userdoc": {
    "kind": "user",
    "methods": {},
    "version": 1
  },
  "storageLayout": {
    "storage": [
      {
        "astId": 492,
        "contract": "contracts/BdStable/Pools/BdStablePool.sol:BdStablePool",
        "label": "_initialized",
        "offset": 0,
        "slot": "0",
        "type": "t_bool"
      },
      {
        "astId": 495,
        "contract": "contracts/BdStable/Pools/BdStablePool.sol:BdStablePool",
        "label": "_initializing",
        "offset": 1,
        "slot": "0",
        "type": "t_bool"
      },
      {
        "astId": 4797,
        "contract": "contracts/BdStable/Pools/BdStablePool.sol:BdStablePool",
        "label": "collateral_token",
        "offset": 2,
        "slot": "0",
        "type": "t_contract(ERC20)2529"
      },
      {
        "astId": 4799,
        "contract": "contracts/BdStable/Pools/BdStablePool.sol:BdStablePool",
        "label": "BDX",
        "offset": 0,
        "slot": "1",
        "type": "t_contract(BDXShares)7291"
      },
      {
        "astId": 4801,
        "contract": "contracts/BdStable/Pools/BdStablePool.sol:BdStablePool",
        "label": "BDSTABLE",
        "offset": 0,
        "slot": "2",
        "type": "t_contract(BDStable)4534"
      },
      {
        "astId": 4803,
        "contract": "contracts/BdStable/Pools/BdStablePool.sol:BdStablePool",
        "label": "NativeTokenWrapper",
        "offset": 0,
        "slot": "3",
        "type": "t_contract(IWETH)7841"
      },
      {
        "astId": 4805,
        "contract": "contracts/BdStable/Pools/BdStablePool.sol:BdStablePool",
        "label": "is_collateral_wrapping_native_token",
        "offset": 20,
        "slot": "3",
        "type": "t_bool"
      },
      {
        "astId": 4807,
        "contract": "contracts/BdStable/Pools/BdStablePool.sol:BdStablePool",
        "label": "collatWEthOracle",
        "offset": 0,
        "slot": "4",
        "type": "t_contract(ICryptoPairOracle)9393"
      },
      {
        "astId": 4809,
        "contract": "contracts/BdStable/Pools/BdStablePool.sol:BdStablePool",
        "label": "collateral_address",
        "offset": 0,
        "slot": "5",
        "type": "t_address"
      },
      {
        "astId": 4811,
        "contract": "contracts/BdStable/Pools/BdStablePool.sol:BdStablePool",
        "label": "owner_address",
        "offset": 0,
        "slot": "6",
        "type": "t_address"
      },
      {
        "astId": 4813,
        "contract": "contracts/BdStable/Pools/BdStablePool.sol:BdStablePool",
        "label": "missing_decimals",
        "offset": 0,
        "slot": "7",
        "type": "t_uint256"
      },
      {
        "astId": 4815,
        "contract": "contracts/BdStable/Pools/BdStablePool.sol:BdStablePool",
        "label": "collateral_decimals",
        "offset": 0,
        "slot": "8",
        "type": "t_uint256"
      },
      {
        "astId": 4817,
        "contract": "contracts/BdStable/Pools/BdStablePool.sol:BdStablePool",
        "label": "weth_address",
        "offset": 0,
        "slot": "9",
        "type": "t_address"
      },
      {
        "astId": 4821,
        "contract": "contracts/BdStable/Pools/BdStablePool.sol:BdStablePool",
        "label": "redeemBDXBalances",
        "offset": 0,
        "slot": "10",
        "type": "t_mapping(t_address,t_uint256)"
      },
      {
        "astId": 4825,
        "contract": "contracts/BdStable/Pools/BdStablePool.sol:BdStablePool",
        "label": "redeemCollateralBalances",
        "offset": 0,
        "slot": "11",
        "type": "t_mapping(t_address,t_uint256)"
      },
      {
        "astId": 4827,
        "contract": "contracts/BdStable/Pools/BdStablePool.sol:BdStablePool",
        "label": "unclaimedPoolCollateral",
        "offset": 0,
        "slot": "12",
        "type": "t_uint256"
      },
      {
        "astId": 4831,
        "contract": "contracts/BdStable/Pools/BdStablePool.sol:BdStablePool",
        "label": "lastRedeemed",
        "offset": 0,
        "slot": "13",
        "type": "t_mapping(t_address,t_uint256)"
      },
      {
        "astId": 4833,
        "contract": "contracts/BdStable/Pools/BdStablePool.sol:BdStablePool",
        "label": "mintPaused",
        "offset": 0,
        "slot": "14",
        "type": "t_bool"
      },
      {
        "astId": 4835,
        "contract": "contracts/BdStable/Pools/BdStablePool.sol:BdStablePool",
        "label": "redeemPaused",
        "offset": 1,
        "slot": "14",
        "type": "t_bool"
      },
      {
        "astId": 4837,
        "contract": "contracts/BdStable/Pools/BdStablePool.sol:BdStablePool",
        "label": "recollateralizePaused",
        "offset": 2,
        "slot": "14",
        "type": "t_bool"
      },
      {
        "astId": 4839,
        "contract": "contracts/BdStable/Pools/BdStablePool.sol:BdStablePool",
        "label": "buyBackPaused",
        "offset": 3,
        "slot": "14",
        "type": "t_bool"
      },
      {
        "astId": 4841,
        "contract": "contracts/BdStable/Pools/BdStablePool.sol:BdStablePool",
        "label": "collateralPricePaused",
        "offset": 4,
        "slot": "14",
        "type": "t_bool"
      },
      {
        "astId": 4843,
        "contract": "contracts/BdStable/Pools/BdStablePool.sol:BdStablePool",
        "label": "recollateralizeOnlyForOwner",
        "offset": 5,
        "slot": "14",
        "type": "t_bool"
      },
      {
        "astId": 4845,
        "contract": "contracts/BdStable/Pools/BdStablePool.sol:BdStablePool",
        "label": "buybackOnlyForOwner",
        "offset": 6,
        "slot": "14",
        "type": "t_bool"
      },
      {
        "astId": 4847,
        "contract": "contracts/BdStable/Pools/BdStablePool.sol:BdStablePool",
        "label": "minting_fee",
        "offset": 0,
        "slot": "15",
        "type": "t_uint256"
      },
      {
        "astId": 4849,
        "contract": "contracts/BdStable/Pools/BdStablePool.sol:BdStablePool",
        "label": "redemption_fee",
        "offset": 0,
        "slot": "16",
        "type": "t_uint256"
      },
      {
        "astId": 4851,
        "contract": "contracts/BdStable/Pools/BdStablePool.sol:BdStablePool",
        "label": "buyback_fee",
        "offset": 0,
        "slot": "17",
        "type": "t_uint256"
      },
      {
        "astId": 4853,
        "contract": "contracts/BdStable/Pools/BdStablePool.sol:BdStablePool",
        "label": "recollat_fee",
        "offset": 0,
        "slot": "18",
        "type": "t_uint256"
      },
      {
        "astId": 4855,
        "contract": "contracts/BdStable/Pools/BdStablePool.sol:BdStablePool",
        "label": "pool_ceiling",
        "offset": 0,
        "slot": "19",
        "type": "t_uint256"
      },
      {
        "astId": 4857,
        "contract": "contracts/BdStable/Pools/BdStablePool.sol:BdStablePool",
        "label": "pausedPrice",
        "offset": 0,
        "slot": "20",
        "type": "t_uint256"
      },
      {
        "astId": 4859,
        "contract": "contracts/BdStable/Pools/BdStablePool.sol:BdStablePool",
        "label": "bonus_rate",
        "offset": 0,
        "slot": "21",
        "type": "t_uint256"
      },
      {
        "astId": 4861,
        "contract": "contracts/BdStable/Pools/BdStablePool.sol:BdStablePool",
        "label": "redemption_delay",
        "offset": 0,
        "slot": "22",
        "type": "t_uint256"
      }
    ],
    "types": {
      "t_address": {
        "encoding": "inplace",
        "label": "address",
        "numberOfBytes": "20"
      },
      "t_bool": {
        "encoding": "inplace",
        "label": "bool",
        "numberOfBytes": "1"
      },
      "t_contract(BDStable)4534": {
        "encoding": "inplace",
        "label": "contract BDStable",
        "numberOfBytes": "20"
      },
      "t_contract(BDXShares)7291": {
        "encoding": "inplace",
        "label": "contract BDXShares",
        "numberOfBytes": "20"
      },
      "t_contract(ERC20)2529": {
        "encoding": "inplace",
        "label": "contract ERC20",
        "numberOfBytes": "20"
      },
      "t_contract(ICryptoPairOracle)9393": {
        "encoding": "inplace",
        "label": "contract ICryptoPairOracle",
        "numberOfBytes": "20"
      },
      "t_contract(IWETH)7841": {
        "encoding": "inplace",
        "label": "contract IWETH",
        "numberOfBytes": "20"
      },
      "t_mapping(t_address,t_uint256)": {
        "encoding": "mapping",
        "key": "t_address",
        "label": "mapping(address => uint256)",
        "numberOfBytes": "32",
        "value": "t_uint256"
      },
      "t_uint256": {
        "encoding": "inplace",
        "label": "uint256",
        "numberOfBytes": "32"
      }
    }
  }
}