{
  "address": "0xc358448a71AbC9dc21043f29f357eC2e465ecE70",
  "abi": [
    {
      "anonymous": false,
      "inputs": [
        {
          "indexed": true,
          "internalType": "address",
          "name": "previousOwner",
          "type": "address"
        },
        {
          "indexed": true,
          "internalType": "address",
          "name": "newOwner",
          "type": "address"
        }
      ],
      "name": "OwnershipTransferred",
      "type": "event"
    },
    {
      "inputs": [],
      "name": "AllBdStables",
      "outputs": [
        {
          "components": [
            {
              "internalType": "string",
              "name": "fiat",
              "type": "string"
            },
            {
              "internalType": "address",
              "name": "token",
              "type": "address"
            }
          ],
          "internalType": "struct BDLens.BdStableInfo[]",
          "name": "",
          "type": "tuple[]"
        }
      ],
      "stateMutability": "view",
      "type": "function"
    },
    {
      "inputs": [],
      "name": "AllStakings",
      "outputs": [
        {
          "components": [
            {
              "internalType": "address",
              "name": "lp",
              "type": "address"
            },
            {
              "internalType": "address",
              "name": "token",
              "type": "address"
            }
          ],
          "internalType": "struct BDLens.StakingInfo[]",
          "name": "",
          "type": "tuple[]"
        }
      ],
      "stateMutability": "view",
      "type": "function"
    },
    {
      "inputs": [],
      "name": "BDX",
      "outputs": [
        {
          "internalType": "address",
          "name": "",
          "type": "address"
        }
      ],
      "stateMutability": "view",
      "type": "function"
    },
    {
      "inputs": [
        {
          "internalType": "uint256",
          "name": "",
          "type": "uint256"
        }
      ],
      "name": "BdStables",
      "outputs": [
        {
          "internalType": "address",
          "name": "",
          "type": "address"
        }
      ],
      "stateMutability": "view",
      "type": "function"
    },
    {
      "inputs": [],
      "name": "BdStablesLength",
      "outputs": [
        {
          "internalType": "uint256",
          "name": "",
          "type": "uint256"
        }
      ],
      "stateMutability": "view",
      "type": "function"
    },
    {
      "inputs": [],
      "name": "BtcToEthOracle",
      "outputs": [
        {
          "internalType": "address",
          "name": "",
          "type": "address"
        }
      ],
      "stateMutability": "view",
      "type": "function"
    },
    {
      "inputs": [],
      "name": "PriceFeed_EUR_USD",
      "outputs": [
        {
          "internalType": "address",
          "name": "",
          "type": "address"
        }
      ],
      "stateMutability": "view",
      "type": "function"
    },
    {
      "inputs": [],
      "name": "StakingRewardsDistribution",
      "outputs": [
        {
          "internalType": "address",
          "name": "",
          "type": "address"
        }
      ],
      "stateMutability": "view",
      "type": "function"
    },
    {
      "inputs": [
        {
          "internalType": "uint256",
          "name": "",
          "type": "uint256"
        }
      ],
      "name": "Stakings",
      "outputs": [
        {
          "internalType": "address",
          "name": "",
          "type": "address"
        }
      ],
      "stateMutability": "view",
      "type": "function"
    },
    {
      "inputs": [],
      "name": "StakingsLength",
      "outputs": [
        {
          "internalType": "uint256",
          "name": "",
          "type": "uint256"
        }
      ],
      "stateMutability": "view",
      "type": "function"
    },
    {
      "inputs": [],
      "name": "SwapFactory",
      "outputs": [
        {
          "internalType": "address",
          "name": "",
          "type": "address"
        }
      ],
      "stateMutability": "view",
      "type": "function"
    },
    {
      "inputs": [],
      "name": "SwapRouter",
      "outputs": [
        {
          "internalType": "address",
          "name": "",
          "type": "address"
        }
      ],
      "stateMutability": "view",
      "type": "function"
    },
    {
      "inputs": [],
      "name": "Vesting",
      "outputs": [
        {
          "internalType": "address",
          "name": "",
          "type": "address"
        }
      ],
      "stateMutability": "view",
      "type": "function"
    },
    {
      "inputs": [
        {
          "internalType": "address",
          "name": "_bdStable",
          "type": "address"
        }
      ],
      "name": "deleteFromBdStables",
      "outputs": [],
      "stateMutability": "nonpayable",
      "type": "function"
    },
    {
      "inputs": [
        {
          "internalType": "address",
          "name": "_stakings",
          "type": "address"
        }
      ],
      "name": "deleteFromStakings",
      "outputs": [],
      "stateMutability": "nonpayable",
      "type": "function"
    },
    {
      "inputs": [
        {
          "internalType": "string",
          "name": "_nativeTokenName",
          "type": "string"
        }
      ],
      "name": "initialize",
      "outputs": [],
      "stateMutability": "nonpayable",
      "type": "function"
    },
    {
      "inputs": [],
      "name": "nativeTokenName",
      "outputs": [
        {
          "internalType": "string",
          "name": "",
          "type": "string"
        }
      ],
      "stateMutability": "view",
      "type": "function"
    },
    {
      "inputs": [],
      "name": "owner",
      "outputs": [
        {
          "internalType": "address",
          "name": "",
          "type": "address"
        }
      ],
      "stateMutability": "view",
      "type": "function"
    },
    {
      "inputs": [
        {
          "internalType": "address",
          "name": "_bdstable",
          "type": "address"
        }
      ],
      "name": "pushBdStable",
      "outputs": [],
      "stateMutability": "nonpayable",
      "type": "function"
    },
    {
      "inputs": [
        {
          "internalType": "address",
          "name": "_staking",
          "type": "address"
        }
      ],
      "name": "pushStaking",
      "outputs": [],
      "stateMutability": "nonpayable",
      "type": "function"
    },
    {
      "inputs": [],
      "name": "renounceOwnership",
      "outputs": [],
      "stateMutability": "nonpayable",
      "type": "function"
    },
    {
      "inputs": [
        {
          "internalType": "address",
          "name": "_bdx",
          "type": "address"
        }
      ],
      "name": "setBDX",
      "outputs": [],
      "stateMutability": "nonpayable",
      "type": "function"
    },
    {
      "inputs": [
        {
          "internalType": "address",
          "name": "feed",
          "type": "address"
        }
      ],
      "name": "setBtcToEthOracle",
      "outputs": [],
      "stateMutability": "nonpayable",
      "type": "function"
    },
    {
      "inputs": [
        {
          "internalType": "address",
          "name": "feed",
          "type": "address"
        }
      ],
      "name": "setPriceFeed_EUR_USD",
      "outputs": [],
      "stateMutability": "nonpayable",
      "type": "function"
    },
    {
      "inputs": [
        {
          "internalType": "address",
          "name": "_stakingRewardsDistribution",
          "type": "address"
        }
      ],
      "name": "setStakingRewardsDistribution",
      "outputs": [],
      "stateMutability": "nonpayable",
      "type": "function"
    },
    {
      "inputs": [
        {
          "internalType": "address",
          "name": "_swapFactory",
          "type": "address"
        }
      ],
      "name": "setSwapFactory",
      "outputs": [],
      "stateMutability": "nonpayable",
      "type": "function"
    },
    {
      "inputs": [
        {
          "internalType": "address",
          "name": "_swapRouter",
          "type": "address"
        }
      ],
      "name": "setSwapRouter",
      "outputs": [],
      "stateMutability": "nonpayable",
      "type": "function"
    },
    {
      "inputs": [
        {
          "internalType": "address",
          "name": "_vesting",
          "type": "address"
        }
      ],
      "name": "setVesting",
      "outputs": [],
      "stateMutability": "nonpayable",
      "type": "function"
    },
    {
      "inputs": [
        {
          "internalType": "address",
          "name": "newOwner",
          "type": "address"
        }
      ],
      "name": "transferOwnership",
      "outputs": [],
      "stateMutability": "nonpayable",
      "type": "function"
    }
  ],
  "transactionHash": "0xc259d9a541993209437772186c56e48e86a05862dd28e3214b10622b563b3998",
  "args": [],
  "solcInputHash": "ef5e1addb0e41f96285e46a6cc7ff32d",
  "bytecode": "0x608060405234801561001057600080fd5b5061162e806100206000396000f3fe608060405234801561001057600080fd5b50600436106101cf5760003560e01c80639bd3b5fc11610104578063e28cae39116100a2578063f62d188811610071578063f62d18881461036c578063f83f44691461037f578063faee813214610392578063ffa83974146103a5576101cf565b8063e28cae391461032b578063edf6741c14610333578063ee916bf714610346578063f2fde38b14610359576101cf565b8063b13ef343116100de578063b13ef343146102f3578063b66c64b6146102fb578063c34e596f14610310578063c3eaf66714610323576101cf565b80639bd3b5fc146102b8578063a4209b5d146102cd578063afd6db76146102e0576101cf565b80636700c52311610171578063715018a61161014b578063715018a61461028d578063715bae3114610295578063845626031461029d5780638da5cb5b146102b0576101cf565b80636700c523146102525780636f481aaa146102675780636f6ff3bc1461027a576101cf565b806341273657116101ad578063412736571461020f57806349e5799d146102225780634dc32eff14610237578063625817841461023f576101cf565b806313bd35bd146101d457806328cd288e146101f25780632c0037db14610207575b600080fd5b6101dc6103ad565b6040516101e99190611368565b60405180910390f35b6102056102003660046111f3565b6103bc565b005b6101dc61041f565b61020561021d3660046111f3565b61042e565b61022a610488565b6040516101e99190611454565b6101dc610516565b61020561024d3660046111f3565b610525565b61025a61057f565b6040516101e991906113f8565b6102056102753660046111f3565b6106da565b6102056102883660046111f3565b6107f7565b610205610851565b6101dc6108da565b6102056102ab3660046111f3565b6108e9565b6101dc610973565b6102c0610982565b6040516101e9919061155f565b6102056102db3660046111f3565b610988565b6102056102ee3660046111f3565b610a12565b6101dc610a6c565b610303610a7b565b6040516101e9919061137c565b61020561031e3660046111f3565b610bc8565b6101dc610c22565b6101dc610c31565b6101dc610341366004611324565b610c40565b6101dc610354366004611324565b610c67565b6102056103673660046111f3565b610c74565b61020561037a366004611232565b610d35565b61020561038d3660046111f3565b610dd4565b6102056103a03660046111f3565b610ec4565b6102c0610f1e565b606c546001600160a01b031681565b6103c4610973565b6001600160a01b0316336001600160a01b0316146103fd5760405162461bcd60e51b81526004016103f4906114ad565b60405180910390fd5b606d80546001600160a01b0319166001600160a01b0392909216919091179055565b6068546001600160a01b031681565b610436610973565b6001600160a01b0316336001600160a01b0316146104665760405162461bcd60e51b81526004016103f4906114ad565b606780546001600160a01b0319166001600160a01b0392909216919091179055565b606e805460408051602060026001851615610100026000190190941693909304601f8101849004840282018401909252818152929183018282801561050e5780601f106104e35761010080835404028352916020019161050e565b820191906000526020600020905b8154815290600101906020018083116104f157829003601f168201915b505050505081565b6067546001600160a01b031681565b61052d610973565b6001600160a01b0316336001600160a01b03161461055d5760405162461bcd60e51b81526004016103f4906114ad565b606580546001600160a01b0319166001600160a01b0392909216919091179055565b606b54606090819067ffffffffffffffff8111801561059d57600080fd5b506040519080825280602002602001820160405280156105d757816020015b6105c461112c565b8152602001906001900390816105bc5790505b50905060005b606b548110156106d3576040518060400160405280606b83815481106105ff57fe5b60009182526020918290200154604080516372f702f360e01b815290516001600160a01b03909216926372f702f392600480840193829003018186803b15801561064857600080fd5b505afa15801561065c573d6000803e3d6000fd5b505050506040513d601f19601f820116820180604052508101906106809190611216565b6001600160a01b03168152602001606b838154811061069b57fe5b6000918252602090912001546001600160a01b0316905282518390839081106106c057fe5b60209081029190910101526001016105dd565b5090505b90565b6106e2610973565b6001600160a01b0316336001600160a01b0316146107125760405162461bcd60e51b81526004016103f4906114ad565b60005b606b548110156107f257816001600160a01b0316606b828154811061073657fe5b6000918252602090912001546001600160a01b031614156107ea57606b8054600019810190811061076357fe5b600091825260209091200154606b80546001600160a01b03909216918390811061078957fe5b9060005260206000200160006101000a8154816001600160a01b0302191690836001600160a01b03160217905550606b8054806107c257fe5b600082815260209020810160001990810180546001600160a01b0319169055019055506107f4565b600101610715565b505b50565b6107ff610973565b6001600160a01b0316336001600160a01b03161461082f5760405162461bcd60e51b81526004016103f4906114ad565b606980546001600160a01b0319166001600160a01b0392909216919091179055565b610859610f24565b6001600160a01b031661086a610973565b6001600160a01b0316146108905760405162461bcd60e51b81526004016103f49061152a565b6033546040516000916001600160a01b0316907f8be0079c531659141344cd1fd0a4f28419497f9722a3daafe3b4186f6b6457e0908390a3603380546001600160a01b0319169055565b606d546001600160a01b031681565b6108f1610973565b6001600160a01b0316336001600160a01b0316146109215760405162461bcd60e51b81526004016103f4906114ad565b606a80546001810182556000919091527f116fea137db6e131133e7f2bab296045d8f41cc5607279db17b218cab0929a510180546001600160a01b0319166001600160a01b0392909216919091179055565b6033546001600160a01b031690565b606b5490565b610990610973565b6001600160a01b0316336001600160a01b0316146109c05760405162461bcd60e51b81526004016103f4906114ad565b606b80546001810182556000919091527fbd43cb8ece8cd1863bcd6082d65c5b0d25665b1ce17980f0da43c0ed545f98b40180546001600160a01b0319166001600160a01b0392909216919091179055565b610a1a610973565b6001600160a01b0316336001600160a01b031614610a4a5760405162461bcd60e51b81526004016103f4906114ad565b606c80546001600160a01b0319166001600160a01b0392909216919091179055565b6069546001600160a01b031681565b606a54606090819067ffffffffffffffff81118015610a9957600080fd5b50604051908082528060200260200182016040528015610ad357816020015b610ac0611143565b815260200190600190039081610ab85790505b50905060005b606a548110156106d3576040518060400160405280606a8381548110610afb57fe5b60009182526020822001546040805163052876e560e51b815290516001600160a01b039092169263a50edca092600480840193829003018186803b158015610b4257600080fd5b505afa158015610b56573d6000803e3d6000fd5b505050506040513d6000823e601f3d908101601f19168201604052610b7e91908101906112ae565b8152602001606a8381548110610b9057fe5b6000918252602090912001546001600160a01b031690528251839083908110610bb557fe5b6020908102919091010152600101610ad9565b610bd0610973565b6001600160a01b0316336001600160a01b031614610c005760405162461bcd60e51b81526004016103f4906114ad565b606680546001600160a01b0319166001600160a01b0392909216919091179055565b6066546001600160a01b031681565b6065546001600160a01b031681565b606a8181548110610c4d57fe5b6000918252602090912001546001600160a01b0316905081565b606b8181548110610c4d57fe5b610c7c610f24565b6001600160a01b0316610c8d610973565b6001600160a01b031614610cb35760405162461bcd60e51b81526004016103f49061152a565b6001600160a01b038116610cd95760405162461bcd60e51b81526004016103f490611467565b6033546040516001600160a01b038084169216907f8be0079c531659141344cd1fd0a4f28419497f9722a3daafe3b4186f6b6457e090600090a3603380546001600160a01b0319166001600160a01b0392909216919091179055565b600054610100900460ff1680610d4e5750610d4e610f28565b80610d5c575060005460ff16155b610d785760405162461bcd60e51b81526004016103f4906114dc565b600054610100900460ff16158015610da3576000805460ff1961ff0019909116610100171660011790555b8151610db690606e90602085019061115b565b50610dbf610f39565b80156107f2576000805461ff00191690555050565b610ddc610973565b6001600160a01b0316336001600160a01b031614610e0c5760405162461bcd60e51b81526004016103f4906114ad565b60005b606a548110156107f257816001600160a01b0316606a8281548110610e3057fe5b6000918252602090912001546001600160a01b03161415610ebc57606a80546000198101908110610e5d57fe5b600091825260209091200154606a80546001600160a01b039092169183908110610e8357fe5b9060005260206000200160006101000a8154816001600160a01b0302191690836001600160a01b03160217905550606a8054806107c257fe5b600101610e0f565b610ecc610973565b6001600160a01b0316336001600160a01b031614610efc5760405162461bcd60e51b81526004016103f4906114ad565b606880546001600160a01b0319166001600160a01b0392909216919091179055565b606a5490565b3390565b6000610f3330610fcb565b15905090565b600054610100900460ff1680610f525750610f52610f28565b80610f60575060005460ff16155b610f7c5760405162461bcd60e51b81526004016103f4906114dc565b600054610100900460ff16158015610fa7576000805460ff1961ff0019909116610100171660011790555b610faf610fd1565b610fb7611052565b80156107f4576000805461ff001916905550565b3b151590565b600054610100900460ff1680610fea5750610fea610f28565b80610ff8575060005460ff16155b6110145760405162461bcd60e51b81526004016103f4906114dc565b600054610100900460ff16158015610fb7576000805460ff1961ff00199091166101001716600117905580156107f4576000805461ff001916905550565b600054610100900460ff168061106b575061106b610f28565b80611079575060005460ff16155b6110955760405162461bcd60e51b81526004016103f4906114dc565b600054610100900460ff161580156110c0576000805460ff1961ff0019909116610100171660011790555b60006110ca610f24565b603380546001600160a01b0319166001600160a01b038316908117909155604051919250906000907f8be0079c531659141344cd1fd0a4f28419497f9722a3daafe3b4186f6b6457e0908290a35080156107f4576000805461ff001916905550565b604080518082019091526000808252602082015290565b60408051808201909152606081526000602082015290565b828054600181600116156101000203166002900490600052602060002090601f016020900481019282601f1061119c57805160ff19168380011785556111c9565b828001600101855582156111c9579182015b828111156111c95782518255916020019190600101906111ae565b506111d59291506111d9565b5090565b6106d791905b808211156111d557600081556001016111df565b600060208284031215611204578081fd5b813561120f816115e3565b9392505050565b600060208284031215611227578081fd5b815161120f816115e3565b600060208284031215611243578081fd5b813567ffffffffffffffff811115611259578182fd5b80830184601f82011261126a578283fd5b8035915061127f61127a8361158f565b611568565b828152856020848401011115611293578384fd5b82602083016020830137918201602001929092529392505050565b6000602082840312156112bf578081fd5b815167ffffffffffffffff8111156112d5578182fd5b80830184601f8201126112e6578283fd5b805191506112f661127a8361158f565b82815285602084840101111561130a578384fd5b61131b8360208301602085016115b3565b95945050505050565b600060208284031215611335578081fd5b5035919050565b600081518084526113548160208601602086016115b3565b601f01601f19169290920160200192915050565b6001600160a01b0391909116815260200190565b60208082528251828201819052600091906040908185019080840286018301878501865b838110156113ea57888303603f19018552815180518785526113c48886018261133c565b918901516001600160a01b031694890194909452948701949250908601906001016113a0565b509098975050505050505050565b602080825282518282018190526000919060409081850190868401855b8281101561144757815180516001600160a01b0390811686529087015116868501529284019290850190600101611415565b5091979650505050505050565b60006020825261120f602083018461133c565b60208082526026908201527f4f776e61626c653a206e6577206f776e657220697320746865207a65726f206160408201526564647265737360d01b606082015260800190565b6020808252601590820152742cb7ba9030b932903737ba103a34329037bbb732b960591b604082015260600190565b6020808252602e908201527f496e697469616c697a61626c653a20636f6e747261637420697320616c72656160408201526d191e481a5b9a5d1a585b1a5e995960921b606082015260800190565b6020808252818101527f4f776e61626c653a2063616c6c6572206973206e6f7420746865206f776e6572604082015260600190565b90815260200190565b60405181810167ffffffffffffffff8111828210171561158757600080fd5b604052919050565b600067ffffffffffffffff8211156115a5578081fd5b50601f01601f191660200190565b60005b838110156115ce5781810151838201526020016115b6565b838111156115dd576000848401525b50505050565b6001600160a01b03811681146107f457600080fdfea264697066735822122024969f946900b5ccc827692a9d08b176878cceeb9f1358226aa099eca412501d64736f6c634300060b0033",
  "devdoc": {
    "kind": "dev",
    "methods": {
      "owner()": {
        "details": "Returns the address of the current owner."
      },
      "renounceOwnership()": {
        "details": "Leaves the contract without owner. It will not be possible to call `onlyOwner` functions anymore. Can only be called by the current owner. NOTE: Renouncing ownership will leave the contract without an owner, thereby removing any functionality that is only available to the owner."
      },
      "transferOwnership(address)": {
        "details": "Transfers ownership of the contract to a new account (`newOwner`). Can only be called by the current owner."
      }
    },
    "version": 1
  },
  "userdoc": {
    "kind": "user",
    "methods": {},
    "version": 1
  },
  "storageLayout": {
    "storage": [
      {
        "astId": 492,
        "contract": "contracts/Utils/BDLens.sol:BDLens",
        "label": "_initialized",
        "offset": 0,
        "slot": "0",
        "type": "t_bool"
      },
      {
        "astId": 495,
        "contract": "contracts/Utils/BDLens.sol:BDLens",
        "label": "_initializing",
        "offset": 1,
        "slot": "0",
        "type": "t_bool"
      },
      {
        "astId": 1447,
        "contract": "contracts/Utils/BDLens.sol:BDLens",
        "label": "__gap",
        "offset": 0,
        "slot": "1",
        "type": "t_array(t_uint256)50_storage"
      },
      {
        "astId": 10,
        "contract": "contracts/Utils/BDLens.sol:BDLens",
        "label": "_owner",
        "offset": 0,
        "slot": "51",
        "type": "t_address"
      },
      {
        "astId": 129,
        "contract": "contracts/Utils/BDLens.sol:BDLens",
        "label": "__gap",
        "offset": 0,
        "slot": "52",
        "type": "t_array(t_uint256)49_storage"
      },
      {
        "astId": 18213,
        "contract": "contracts/Utils/BDLens.sol:BDLens",
        "label": "BDX",
        "offset": 0,
        "slot": "101",
        "type": "t_address"
      },
      {
        "astId": 18215,
        "contract": "contracts/Utils/BDLens.sol:BDLens",
        "label": "SwapFactory",
        "offset": 0,
        "slot": "102",
        "type": "t_address"
      },
      {
        "astId": 18217,
        "contract": "contracts/Utils/BDLens.sol:BDLens",
        "label": "SwapRouter",
        "offset": 0,
        "slot": "103",
        "type": "t_address"
      },
      {
        "astId": 18219,
        "contract": "contracts/Utils/BDLens.sol:BDLens",
        "label": "StakingRewardsDistribution",
        "offset": 0,
        "slot": "104",
        "type": "t_address"
      },
      {
        "astId": 18221,
        "contract": "contracts/Utils/BDLens.sol:BDLens",
        "label": "Vesting",
        "offset": 0,
        "slot": "105",
        "type": "t_address"
      },
      {
        "astId": 18224,
        "contract": "contracts/Utils/BDLens.sol:BDLens",
        "label": "BdStables",
        "offset": 0,
        "slot": "106",
        "type": "t_array(t_address)dyn_storage"
      },
      {
        "astId": 18227,
        "contract": "contracts/Utils/BDLens.sol:BDLens",
        "label": "Stakings",
        "offset": 0,
        "slot": "107",
        "type": "t_array(t_address)dyn_storage"
      },
      {
        "astId": 18229,
        "contract": "contracts/Utils/BDLens.sol:BDLens",
        "label": "PriceFeed_EUR_USD",
        "offset": 0,
        "slot": "108",
        "type": "t_address"
      },
      {
        "astId": 18231,
        "contract": "contracts/Utils/BDLens.sol:BDLens",
        "label": "BtcToEthOracle",
        "offset": 0,
        "slot": "109",
        "type": "t_address"
      },
      {
        "astId": 18233,
        "contract": "contracts/Utils/BDLens.sol:BDLens",
        "label": "nativeTokenName",
        "offset": 0,
        "slot": "110",
        "type": "t_string_storage"
      }
    ],
    "types": {
      "t_address": {
        "encoding": "inplace",
        "label": "address",
        "numberOfBytes": "20"
      },
      "t_array(t_address)dyn_storage": {
        "base": "t_address",
        "encoding": "dynamic_array",
        "label": "address[]",
        "numberOfBytes": "32"
      },
      "t_array(t_uint256)49_storage": {
        "base": "t_uint256",
        "encoding": "inplace",
        "label": "uint256[49]",
        "numberOfBytes": "1568"
      },
      "t_array(t_uint256)50_storage": {
        "base": "t_uint256",
        "encoding": "inplace",
        "label": "uint256[50]",
        "numberOfBytes": "1600"
      },
      "t_bool": {
        "encoding": "inplace",
        "label": "bool",
        "numberOfBytes": "1"
      },
      "t_string_storage": {
        "encoding": "bytes",
        "label": "string",
        "numberOfBytes": "32"
      },
      "t_uint256": {
        "encoding": "inplace",
        "label": "uint256",
        "numberOfBytes": "32"
      }
    }
  }
}