{
  "address": "0x8347C24b87b4eD51390fCE7A6a7D6764804Aa564",
  "abi": [
    {
      "inputs": [],
      "name": "COLLATERAL_RATIO_MAX",
      "outputs": [
        {
          "internalType": "uint256",
          "name": "",
          "type": "uint256"
        }
      ],
      "stateMutability": "view",
      "type": "function"
    },
    {
      "inputs": [],
      "name": "COLLATERAL_RATIO_PRECISION",
      "outputs": [
        {
          "internalType": "uint256",
          "name": "",
          "type": "uint256"
        }
      ],
      "stateMutability": "view",
      "type": "function"
    },
    {
      "inputs": [],
      "name": "PRICE_PRECISION",
      "outputs": [
        {
          "internalType": "uint256",
          "name": "",
          "type": "uint256"
        }
      ],
      "stateMutability": "view",
      "type": "function"
    },
    {
      "inputs": [
        {
          "internalType": "uint256",
          "name": "col_price",
          "type": "uint256"
        },
        {
          "internalType": "uint256",
          "name": "collateral_amount_d18",
          "type": "uint256"
        }
      ],
      "name": "calcMint1t1BD",
      "outputs": [
        {
          "internalType": "uint256",
          "name": "",
          "type": "uint256"
        }
      ],
      "stateMutability": "pure",
      "type": "function"
    },
    {
      "inputs": [
        {
          "internalType": "uint256",
          "name": "bdx_price_fiat_d12",
          "type": "uint256"
        },
        {
          "internalType": "uint256",
          "name": "bdx_amount_d18",
          "type": "uint256"
        }
      ],
      "name": "calcMintAlgorithmicBD",
      "outputs": [
        {
          "internalType": "uint256",
          "name": "",
          "type": "uint256"
        }
      ],
      "stateMutability": "pure",
      "type": "function"
    },
    {
      "inputs": [
        {
          "internalType": "uint256",
          "name": "collateral_amount_d18",
          "type": "uint256"
        },
        {
          "internalType": "uint256",
          "name": "col_price",
          "type": "uint256"
        },
        {
          "internalType": "uint256",
          "name": "global_collat_value",
          "type": "uint256"
        },
        {
          "internalType": "uint256",
          "name": "bdStable_total_supply",
          "type": "uint256"
        },
        {
          "internalType": "uint256",
          "name": "global_collateral_ratio",
          "type": "uint256"
        }
      ],
      "name": "calcRecollateralizeBdStableInner",
      "outputs": [
        {
          "internalType": "uint256",
          "name": "",
          "type": "uint256"
        },
        {
          "internalType": "uint256",
          "name": "",
          "type": "uint256"
        }
      ],
      "stateMutability": "pure",
      "type": "function"
    }
  ],
  "transactionHash": "0xfc4050f4c482607f83bd5f11b4f630f6847af1057cabfa02ed31a34baafa3488",
  "args": [],
  "solcInputHash": "964b643a9886544e5729090027eb9ffb",
  "bytecode": "0x6103a4610026600b82828239805160001a60731461001957fe5b30600052607381538281f3fe730000000000000000000000000000000000000000301460806040526004361061006c5760003560e01c80634e820a3f14610071578063810278f01461009b57806395082d25146100bb578063ba8b18081461009b578063d07ac67e146100bb578063dd89fe0a146100bb575b600080fd5b61008461007f36600461026e565b6100c3565b604051610092929190610360565b60405180910390f35b6100ae6100a936600461024d565b610183565b6040516100929190610357565b6100ae6101a7565b600080806100ec64e8d4a510006100e08a8a63ffffffff6101b016565b9063ffffffff6101f316565b90506000610109866100e08964e8d4a5100063ffffffff6101b016565b9050600061014564e8d4a510006100e06101298a8663ffffffff6101b016565b6101398a8c63ffffffff6101b016565b9063ffffffff61022516565b9050600081841161015757508261015a565b50805b6101738a6100e08364e8d4a5100063ffffffff6101b016565b9b909a5098505050505050505050565b600061019e64e8d4a510006100e0848663ffffffff6101b016565b90505b92915050565b64e8d4a5100081565b6000826101bf575060006101a1565b828202828482816101cc57fe5b041461019e5760405162461bcd60e51b81526004016101ea90610316565b60405180910390fd5b60008082116102145760405162461bcd60e51b81526004016101ea906102df565b81838161021d57fe5b049392505050565b6000828211156102475760405162461bcd60e51b81526004016101ea906102a8565b50900390565b6000806040838503121561025f578182fd5b50508035926020909101359150565b600080600080600060a08688031215610285578081fd5b505083359560208501359550604085013594606081013594506080013592509050565b6020808252601e908201527f536166654d6174683a207375627472616374696f6e206f766572666c6f770000604082015260600190565b6020808252601a908201527f536166654d6174683a206469766973696f6e206279207a65726f000000000000604082015260600190565b60208082526021908201527f536166654d6174683a206d756c7469706c69636174696f6e206f766572666c6f6040820152607760f81b606082015260800190565b90815260200190565b91825260208201526040019056fea26469706673582212209086a039684067e296d1d9a7e47f9c59caf3ef539503e52e271fa62226d892f264736f6c634300060b0033",
  "devdoc": {
    "kind": "dev",
    "methods": {},
    "version": 1
  },
  "userdoc": {
    "kind": "user",
    "methods": {},
    "version": 1
  },
  "storageLayout": {
    "storage": [],
    "types": null
  }
}