{
  "address": "0x264539116622413986e29F6D7DABC1FA2f2a68AF",
  "abi": [
    {
      "anonymous": false,
      "inputs": [
        {
          "indexed": true,
          "internalType": "address",
          "name": "owner",
          "type": "address"
        },
        {
          "indexed": true,
          "internalType": "address",
          "name": "spender",
          "type": "address"
        },
        {
          "indexed": false,
          "internalType": "uint256",
          "name": "value",
          "type": "uint256"
        }
      ],
      "name": "Approval",
      "type": "event"
    },
    {
      "anonymous": false,
      "inputs": [
        {
          "indexed": true,
          "internalType": "address",
          "name": "addr",
          "type": "address"
        }
      ],
      "name": "BdStableAddressAdded",
      "type": "event"
    },
    {
      "anonymous": false,
      "inputs": [
        {
          "indexed": true,
          "internalType": "address",
          "name": "from",
          "type": "address"
        },
        {
          "indexed": true,
          "internalType": "address",
          "name": "to",
          "type": "address"
        },
        {
          "indexed": false,
          "internalType": "address",
          "name": "bd_stable",
          "type": "address"
        },
        {
          "indexed": true,
          "internalType": "uint256",
          "name": "amount",
          "type": "uint256"
        }
      ],
      "name": "BdxBurned",
      "type": "event"
    },
    {
      "anonymous": false,
      "inputs": [
        {
          "indexed": true,
          "internalType": "address",
          "name": "from",
          "type": "address"
        },
        {
          "indexed": true,
          "internalType": "address",
          "name": "to",
          "type": "address"
        },
        {
          "indexed": false,
          "internalType": "address",
          "name": "bd_stable",
          "type": "address"
        },
        {
          "indexed": true,
          "internalType": "uint256",
          "name": "amount",
          "type": "uint256"
        }
      ],
      "name": "BdxMinted",
      "type": "event"
    },
    {
      "anonymous": false,
      "inputs": [
        {
          "indexed": true,
          "internalType": "address",
          "name": "previousOwner",
          "type": "address"
        },
        {
          "indexed": true,
          "internalType": "address",
          "name": "newOwner",
          "type": "address"
        }
      ],
      "name": "OwnershipTransferred",
      "type": "event"
    },
    {
      "anonymous": false,
      "inputs": [
        {
          "indexed": true,
          "internalType": "address",
          "name": "from",
          "type": "address"
        },
        {
          "indexed": true,
          "internalType": "address",
          "name": "to",
          "type": "address"
        },
        {
          "indexed": false,
          "internalType": "uint256",
          "name": "value",
          "type": "uint256"
        }
      ],
      "name": "Transfer",
      "type": "event"
    },
    {
      "inputs": [],
      "name": "MAX_TOTAL_SUPPLY",
      "outputs": [
        {
          "internalType": "uint256",
          "name": "",
          "type": "uint256"
        }
      ],
      "stateMutability": "view",
      "type": "function"
    },
    {
      "inputs": [
        {
          "internalType": "address",
          "name": "bdstable_contract_address",
          "type": "address"
        }
      ],
      "name": "addBdStableAddress",
      "outputs": [],
      "stateMutability": "nonpayable",
      "type": "function"
    },
    {
      "inputs": [
        {
          "internalType": "address",
          "name": "owner",
          "type": "address"
        },
        {
          "internalType": "address",
          "name": "spender",
          "type": "address"
        }
      ],
      "name": "allowance",
      "outputs": [
        {
          "internalType": "uint256",
          "name": "",
          "type": "uint256"
        }
      ],
      "stateMutability": "view",
      "type": "function"
    },
    {
      "inputs": [
        {
          "internalType": "address",
          "name": "spender",
          "type": "address"
        },
        {
          "internalType": "uint256",
          "name": "amount",
          "type": "uint256"
        }
      ],
      "name": "approve",
      "outputs": [
        {
          "internalType": "bool",
          "name": "",
          "type": "bool"
        }
      ],
      "stateMutability": "nonpayable",
      "type": "function"
    },
    {
      "inputs": [
        {
          "internalType": "address",
          "name": "account",
          "type": "address"
        }
      ],
      "name": "balanceOf",
      "outputs": [
        {
          "internalType": "uint256",
          "name": "",
          "type": "uint256"
        }
      ],
      "stateMutability": "view",
      "type": "function"
    },
    {
      "inputs": [
        {
          "internalType": "address",
          "name": "",
          "type": "address"
        }
      ],
      "name": "bdstables",
      "outputs": [
        {
          "internalType": "bool",
          "name": "",
          "type": "bool"
        }
      ],
      "stateMutability": "view",
      "type": "function"
    },
    {
      "inputs": [],
      "name": "decimals",
      "outputs": [
        {
          "internalType": "uint8",
          "name": "",
          "type": "uint8"
        }
      ],
      "stateMutability": "view",
      "type": "function"
    },
    {
      "inputs": [
        {
          "internalType": "address",
          "name": "spender",
          "type": "address"
        },
        {
          "internalType": "uint256",
          "name": "subtractedValue",
          "type": "uint256"
        }
      ],
      "name": "decreaseAllowance",
      "outputs": [
        {
          "internalType": "bool",
          "name": "",
          "type": "bool"
        }
      ],
      "stateMutability": "nonpayable",
      "type": "function"
    },
    {
      "inputs": [
        {
          "internalType": "address",
          "name": "spender",
          "type": "address"
        },
        {
          "internalType": "uint256",
          "name": "addedValue",
          "type": "uint256"
        }
      ],
      "name": "increaseAllowance",
      "outputs": [
        {
          "internalType": "bool",
          "name": "",
          "type": "bool"
        }
      ],
      "stateMutability": "nonpayable",
      "type": "function"
    },
    {
      "inputs": [
        {
          "internalType": "string",
          "name": "_name",
          "type": "string"
        },
        {
          "internalType": "string",
          "name": "_symbol",
          "type": "string"
        }
      ],
      "name": "initialize",
      "outputs": [],
      "stateMutability": "nonpayable",
      "type": "function"
    },
    {
      "inputs": [
        {
          "internalType": "address",
          "name": "bd_stable",
          "type": "address"
        },
        {
          "internalType": "address",
          "name": "to",
          "type": "address"
        },
        {
          "internalType": "uint256",
          "name": "amount",
          "type": "uint256"
        }
      ],
      "name": "mint",
      "outputs": [],
      "stateMutability": "nonpayable",
      "type": "function"
    },
    {
      "inputs": [],
      "name": "name",
      "outputs": [
        {
          "internalType": "string",
          "name": "",
          "type": "string"
        }
      ],
      "stateMutability": "view",
      "type": "function"
    },
    {
      "inputs": [],
      "name": "owner",
      "outputs": [
        {
          "internalType": "address",
          "name": "",
          "type": "address"
        }
      ],
      "stateMutability": "view",
      "type": "function"
    },
    {
      "inputs": [],
      "name": "renounceOwnership",
      "outputs": [],
      "stateMutability": "nonpayable",
      "type": "function"
    },
    {
      "inputs": [],
      "name": "symbol",
      "outputs": [
        {
          "internalType": "string",
          "name": "",
          "type": "string"
        }
      ],
      "stateMutability": "view",
      "type": "function"
    },
    {
      "inputs": [],
      "name": "totalSupply",
      "outputs": [
        {
          "internalType": "uint256",
          "name": "",
          "type": "uint256"
        }
      ],
      "stateMutability": "view",
      "type": "function"
    },
    {
      "inputs": [
        {
          "internalType": "address",
          "name": "recipient",
          "type": "address"
        },
        {
          "internalType": "uint256",
          "name": "amount",
          "type": "uint256"
        }
      ],
      "name": "transfer",
      "outputs": [
        {
          "internalType": "bool",
          "name": "",
          "type": "bool"
        }
      ],
      "stateMutability": "nonpayable",
      "type": "function"
    },
    {
      "inputs": [
        {
          "internalType": "address",
          "name": "sender",
          "type": "address"
        },
        {
          "internalType": "address",
          "name": "recipient",
          "type": "address"
        },
        {
          "internalType": "uint256",
          "name": "amount",
          "type": "uint256"
        }
      ],
      "name": "transferFrom",
      "outputs": [
        {
          "internalType": "bool",
          "name": "",
          "type": "bool"
        }
      ],
      "stateMutability": "nonpayable",
      "type": "function"
    },
    {
      "inputs": [
        {
          "internalType": "address",
          "name": "newOwner",
          "type": "address"
        }
      ],
      "name": "transferOwnership",
      "outputs": [],
      "stateMutability": "nonpayable",
      "type": "function"
    }
  ],
  "transactionHash": "0x48994c926c0ad2f3fedf1c82619e9b01d88d608aa9b8109ffd71b37132632fa6",
  "args": [],
  "solcInputHash": "cd8720e2909469f7fade4e9f8329e216",
  "bytecode": "0x608060405234801561001057600080fd5b506114e3806100206000396000f3fe608060405234801561001057600080fd5b50600436106101215760003560e01c806370a08231116100ad578063a457c2d711610071578063a457c2d71461022f578063a9059cbb14610242578063c6c3bbe614610255578063dd62ed3e14610268578063f2fde38b1461027b57610121565b806370a08231146101e4578063715018a6146101f75780638bb3af6c146101ff5780638da5cb5b1461021257806395d89b411461022757610121565b806323b872dd116100f457806323b872dd1461018c578063313ce5671461019f57806333039d3d146101b457806339509351146101bc5780634cd88b76146101cf57610121565b806306fdde03146101265780630936ffea14610144578063095ea7b31461016457806318160ddd14610177575b600080fd5b61012e61028e565b60405161013b919061114b565b60405180910390f35b610157610152366004611012565b610324565b60405161013b9190611140565b6101576101723660046110a1565b610339565b61017f610357565b60405161013b919061140e565b61015761019a366004611061565b61035d565b6101a76103e4565b60405161013b9190611417565b61017f6103ed565b6101576101ca3660046110a1565b6103fc565b6101e26101dd3660046110cb565b61044a565b005b61017f6101f2366004611012565b6104ea565b6101e2610505565b6101e261020d366004611012565b61058e565b61021a610619565b60405161013b919061112c565b61012e610628565b61015761023d3660046110a1565b610689565b6101576102503660046110a1565b6106f1565b6101e2610263366004611061565b610705565b61017f61027636600461102d565b6107db565b6101e2610289366004611012565b610806565b60368054604080516020601f600260001961010060018816150201909516949094049384018190048102820181019092528281526060939092909183018282801561031a5780601f106102ef5761010080835404028352916020019161031a565b820191906000526020600020905b8154815290600101906020018083116102fd57829003601f168201915b5050505050905090565b60976020526000908152604090205460ff1681565b600061034d6103466108c7565b84846108cb565b5060015b92915050565b60355490565b600061036a84848461097f565b6103da846103766108c7565b6103d585604051806060016040528060288152602001611461602891396001600160a01b038a166000908152603460205260408120906103b46108c7565b6001600160a01b031681526020810191909152604001600020549190610a94565b6108cb565b5060019392505050565b60385460ff1690565b6a115eec47f6cf7e3500000081565b600061034d6104096108c7565b846103d5856034600061041a6108c7565b6001600160a01b03908116825260208083019390935260409182016000908120918c168152925290205490610ac0565b600054610100900460ff16806104635750610463610aec565b80610471575060005460ff16155b6104965760405162461bcd60e51b815260040161048d906112cb565b60405180910390fd5b600054610100900460ff161580156104c1576000805460ff1961ff0019909116610100171660011790555b6104cb8383610afd565b6104d3610b7d565b80156104e5576000805461ff00191690555b505050565b6001600160a01b031660009081526033602052604090205490565b61050d6108c7565b6001600160a01b031661051e610619565b6001600160a01b0316146105445760405162461bcd60e51b815260040161048d90611319565b6065546040516000916001600160a01b0316907f8be0079c531659141344cd1fd0a4f28419497f9722a3daafe3b4186f6b6457e0908390a3606580546001600160a01b0319169055565b6105966108c7565b6001600160a01b03166105a7610619565b6001600160a01b0316146105cd5760405162461bcd60e51b815260040161048d90611319565b6001600160a01b038116600081815260976020526040808220805460ff19166001179055517ff0cb17bf28778490aec475a1856c7a87e59f878315f75066749924f6cb203fb39190a250565b6065546001600160a01b031690565b60378054604080516020601f600260001961010060018816150201909516949094049384018190048102820181019092528281526060939092909183018282801561031a5780601f106102ef5761010080835404028352916020019161031a565b600061034d6106966108c7565b846103d58560405180606001604052806025815260200161148960259139603460006106c06108c7565b6001600160a01b03908116825260208083019390935260409182016000908120918d16815292529020549190610a94565b600061034d6106fe6108c7565b848461097f565b61070d6108c7565b6001600160a01b031661071e610619565b6001600160a01b0316146107445760405162461bcd60e51b815260040161048d90611319565b6a115eec47f6cf7e350000006107628261075c610357565b90610ac0565b11156107805760405162461bcd60e51b815260040161048d906112a0565b61078a8282610c10565b80826001600160a01b0316306001600160a01b03167ff80e5f32cffc18515da81aa81b6eebc0f12c1122b4409afebdb78b6c3683fe5d866040516107ce919061112c565b60405180910390a4505050565b6001600160a01b03918216600090815260346020908152604080832093909416825291909152205490565b61080e6108c7565b6001600160a01b031661081f610619565b6001600160a01b0316146108455760405162461bcd60e51b815260040161048d90611319565b6001600160a01b03811661086b5760405162461bcd60e51b815260040161048d906111e1565b6065546040516001600160a01b038084169216907f8be0079c531659141344cd1fd0a4f28419497f9722a3daafe3b4186f6b6457e090600090a3606580546001600160a01b0319166001600160a01b0392909216919091179055565b3390565b6001600160a01b0383166108f15760405162461bcd60e51b815260040161048d90611393565b6001600160a01b0382166109175760405162461bcd60e51b815260040161048d90611227565b6001600160a01b0380841660008181526034602090815260408083209487168084529490915290819020849055517f8c5be1e5ebec7d5bd14f71427d1e84f3dd0314c0f7b2291e5b200ac8c7c3b9259061097290859061140e565b60405180910390a3505050565b6001600160a01b0383166109a55760405162461bcd60e51b815260040161048d9061134e565b6001600160a01b0382166109cb5760405162461bcd60e51b815260040161048d9061119e565b6109d68383836104e5565b610a138160405180606001604052806026815260200161143b602691396001600160a01b0386166000908152603360205260409020549190610a94565b6001600160a01b038085166000908152603360205260408082209390935590841681522054610a429082610ac0565b6001600160a01b0380841660008181526033602052604090819020939093559151908516907fddf252ad1be2c89b69c2b068fc378daa952ba7f163c4a11628f55a4df523b3ef9061097290859061140e565b60008184841115610ab85760405162461bcd60e51b815260040161048d919061114b565b505050900390565b600082820183811015610ae55760405162461bcd60e51b815260040161048d90611269565b9392505050565b6000610af730610cd0565b15905090565b600054610100900460ff1680610b165750610b16610aec565b80610b24575060005460ff16155b610b405760405162461bcd60e51b815260040161048d906112cb565b600054610100900460ff16158015610b6b576000805460ff1961ff0019909116610100171660011790555b610b73610cd6565b6104d38383610d57565b600054610100900460ff1680610b965750610b96610aec565b80610ba4575060005460ff16155b610bc05760405162461bcd60e51b815260040161048d906112cb565b600054610100900460ff16158015610beb576000805460ff1961ff0019909116610100171660011790555b610bf3610cd6565b610bfb610e10565b8015610c0d576000805461ff00191690555b50565b6001600160a01b038216610c365760405162461bcd60e51b815260040161048d906113d7565b610c42600083836104e5565b603554610c4f9082610ac0565b6035556001600160a01b038216600090815260336020526040902054610c759082610ac0565b6001600160a01b0383166000818152603360205260408082209390935591519091907fddf252ad1be2c89b69c2b068fc378daa952ba7f163c4a11628f55a4df523b3ef90610cc490859061140e565b60405180910390a35050565b3b151590565b600054610100900460ff1680610cef5750610cef610aec565b80610cfd575060005460ff16155b610d195760405162461bcd60e51b815260040161048d906112cb565b600054610100900460ff16158015610bfb576000805460ff1961ff0019909116610100171660011790558015610c0d576000805461ff001916905550565b600054610100900460ff1680610d705750610d70610aec565b80610d7e575060005460ff16155b610d9a5760405162461bcd60e51b815260040161048d906112cb565b600054610100900460ff16158015610dc5576000805460ff1961ff0019909116610100171660011790555b8251610dd8906036906020860190610eea565b508151610dec906037906020850190610eea565b506038805460ff1916601217905580156104e5576000805461ff0019169055505050565b600054610100900460ff1680610e295750610e29610aec565b80610e37575060005460ff16155b610e535760405162461bcd60e51b815260040161048d906112cb565b600054610100900460ff16158015610e7e576000805460ff1961ff0019909116610100171660011790555b6000610e886108c7565b606580546001600160a01b0319166001600160a01b038316908117909155604051919250906000907f8be0079c531659141344cd1fd0a4f28419497f9722a3daafe3b4186f6b6457e0908290a3508015610c0d576000805461ff001916905550565b828054600181600116156101000203166002900490600052602060002090601f016020900481019282601f10610f2b57805160ff1916838001178555610f58565b82800160010185558215610f58579182015b82811115610f58578251825591602001919060010190610f3d565b50610f64929150610f68565b5090565b5b80821115610f645760008155600101610f69565b80356001600160a01b038116811461035157600080fd5b600082601f830112610fa4578081fd5b813567ffffffffffffffff80821115610fbb578283fd5b604051601f8301601f191681016020018281118282101715610fdb578485fd5b604052828152925082848301602001861015610ff657600080fd5b8260208601602083013760006020848301015250505092915050565b600060208284031215611023578081fd5b610ae58383610f7d565b6000806040838503121561103f578081fd5b6110498484610f7d565b91506110588460208501610f7d565b90509250929050565b600080600060608486031215611075578081fd5b833561108081611425565b9250602084013561109081611425565b929592945050506040919091013590565b600080604083850312156110b3578182fd5b6110bd8484610f7d565b946020939093013593505050565b600080604083850312156110dd578182fd5b823567ffffffffffffffff808211156110f4578384fd5b61110086838701610f94565b93506020850135915080821115611115578283fd5b5061112285828601610f94565b9150509250929050565b6001600160a01b0391909116815260200190565b901515815260200190565b6000602080835283518082850152825b818110156111775785810183015185820160400152820161115b565b818111156111885783604083870101525b50601f01601f1916929092016040019392505050565b60208082526023908201527f45524332303a207472616e7366657220746f20746865207a65726f206164647260408201526265737360e81b606082015260800190565b60208082526026908201527f4f776e61626c653a206e6577206f776e657220697320746865207a65726f206160408201526564647265737360d01b606082015260800190565b60208082526022908201527f45524332303a20617070726f766520746f20746865207a65726f206164647265604082015261737360f01b606082015260800190565b6020808252601b908201527f536166654d6174683a206164646974696f6e206f766572666c6f770000000000604082015260600190565b602080825260119082015270109116081b1a5b5a5d081c995858da1959607a1b604082015260600190565b6020808252602e908201527f496e697469616c697a61626c653a20636f6e747261637420697320616c72656160408201526d191e481a5b9a5d1a585b1a5e995960921b606082015260800190565b6020808252818101527f4f776e61626c653a2063616c6c6572206973206e6f7420746865206f776e6572604082015260600190565b60208082526025908201527f45524332303a207472616e736665722066726f6d20746865207a65726f206164604082015264647265737360d81b606082015260800190565b60208082526024908201527f45524332303a20617070726f76652066726f6d20746865207a65726f206164646040820152637265737360e01b606082015260800190565b6020808252601f908201527f45524332303a206d696e7420746f20746865207a65726f206164647265737300604082015260600190565b90815260200190565b60ff91909116815260200190565b6001600160a01b0381168114610c0d57600080fdfe45524332303a207472616e7366657220616d6f756e7420657863656564732062616c616e636545524332303a207472616e7366657220616d6f756e74206578636565647320616c6c6f77616e636545524332303a2064656372656173656420616c6c6f77616e63652062656c6f77207a65726fa264697066735822122028e41aa06cfa9bf59326ea510911b1656f50f456a6af9cbd2bec887b69b9b32064736f6c634300060c0033",
  "devdoc": {
    "kind": "dev",
    "methods": {
      "allowance(address,address)": {
        "details": "See {IERC20-allowance}."
      },
      "approve(address,uint256)": {
        "details": "See {IERC20-approve}. Requirements: - `spender` cannot be the zero address."
      },
      "balanceOf(address)": {
        "details": "See {IERC20-balanceOf}."
      },
      "decimals()": {
        "details": "Returns the number of decimals used to get its user representation. For example, if `decimals` equals `2`, a balance of `505` tokens should be displayed to a user as `5,05` (`505 / 10 ** 2`). Tokens usually opt for a value of 18, imitating the relationship between Ether and Wei. This is the value {ERC20} uses, unless {_setupDecimals} is called. NOTE: This information is only used for _display_ purposes: it in no way affects any of the arithmetic of the contract, including {IERC20-balanceOf} and {IERC20-transfer}."
      },
      "decreaseAllowance(address,uint256)": {
        "details": "Atomically decreases the allowance granted to `spender` by the caller. This is an alternative to {approve} that can be used as a mitigation for problems described in {IERC20-approve}. Emits an {Approval} event indicating the updated allowance. Requirements: - `spender` cannot be the zero address. - `spender` must have allowance for the caller of at least `subtractedValue`."
      },
      "increaseAllowance(address,uint256)": {
        "details": "Atomically increases the allowance granted to `spender` by the caller. This is an alternative to {approve} that can be used as a mitigation for problems described in {IERC20-approve}. Emits an {Approval} event indicating the updated allowance. Requirements: - `spender` cannot be the zero address."
      },
      "name()": {
        "details": "Returns the name of the token."
      },
      "owner()": {
        "details": "Returns the address of the current owner."
      },
      "renounceOwnership()": {
        "details": "Leaves the contract without owner. It will not be possible to call `onlyOwner` functions anymore. Can only be called by the current owner. NOTE: Renouncing ownership will leave the contract without an owner, thereby removing any functionality that is only available to the owner."
      },
      "symbol()": {
        "details": "Returns the symbol of the token, usually a shorter version of the name."
      },
      "totalSupply()": {
        "details": "See {IERC20-totalSupply}."
      },
      "transfer(address,uint256)": {
        "details": "See {IERC20-transfer}. Requirements: - `recipient` cannot be the zero address. - the caller must have a balance of at least `amount`."
      },
      "transferFrom(address,address,uint256)": {
        "details": "See {IERC20-transferFrom}. Emits an {Approval} event indicating the updated allowance. This is not required by the EIP. See the note at the beginning of {ERC20}. Requirements: - `sender` and `recipient` cannot be the zero address. - `sender` must have a balance of at least `amount`. - the caller must have allowance for ``sender``'s tokens of at least `amount`."
      },
      "transferOwnership(address)": {
        "details": "Transfers ownership of the contract to a new account (`newOwner`). Can only be called by the current owner."
      }
    },
    "version": 1
  },
  "userdoc": {
    "kind": "user",
    "methods": {},
    "version": 1
  },
  "storageLayout": {
    "storage": [
      {
        "astId": 492,
        "contract": "contracts/Bdx/BDXShares.sol:BDXShares",
        "label": "_initialized",
        "offset": 0,
        "slot": "0",
        "type": "t_bool"
      },
      {
        "astId": 495,
        "contract": "contracts/Bdx/BDXShares.sol:BDXShares",
        "label": "_initializing",
        "offset": 1,
        "slot": "0",
        "type": "t_bool"
      },
      {
        "astId": 1660,
        "contract": "contracts/Bdx/BDXShares.sol:BDXShares",
        "label": "__gap",
        "offset": 0,
        "slot": "1",
        "type": "t_array(t_uint256)50_storage"
      },
      {
        "astId": 571,
        "contract": "contracts/Bdx/BDXShares.sol:BDXShares",
        "label": "_balances",
        "offset": 0,
        "slot": "51",
        "type": "t_mapping(t_address,t_uint256)"
      },
      {
        "astId": 577,
        "contract": "contracts/Bdx/BDXShares.sol:BDXShares",
        "label": "_allowances",
        "offset": 0,
        "slot": "52",
        "type": "t_mapping(t_address,t_mapping(t_address,t_uint256))"
      },
      {
        "astId": 579,
        "contract": "contracts/Bdx/BDXShares.sol:BDXShares",
        "label": "_totalSupply",
        "offset": 0,
        "slot": "53",
        "type": "t_uint256"
      },
      {
        "astId": 581,
        "contract": "contracts/Bdx/BDXShares.sol:BDXShares",
        "label": "_name",
        "offset": 0,
        "slot": "54",
        "type": "t_string_storage"
      },
      {
        "astId": 583,
        "contract": "contracts/Bdx/BDXShares.sol:BDXShares",
        "label": "_symbol",
        "offset": 0,
        "slot": "55",
        "type": "t_string_storage"
      },
      {
        "astId": 585,
        "contract": "contracts/Bdx/BDXShares.sol:BDXShares",
        "label": "_decimals",
        "offset": 0,
        "slot": "56",
        "type": "t_uint8"
      },
      {
        "astId": 1080,
        "contract": "contracts/Bdx/BDXShares.sol:BDXShares",
        "label": "__gap",
        "offset": 0,
        "slot": "57",
        "type": "t_array(t_uint256)44_storage"
      },
      {
        "astId": 10,
        "contract": "contracts/Bdx/BDXShares.sol:BDXShares",
        "label": "_owner",
        "offset": 0,
        "slot": "101",
        "type": "t_address"
      },
      {
        "astId": 129,
        "contract": "contracts/Bdx/BDXShares.sol:BDXShares",
        "label": "__gap",
        "offset": 0,
        "slot": "102",
        "type": "t_array(t_uint256)49_storage"
      },
      {
        "astId": 8235,
        "contract": "contracts/Bdx/BDXShares.sol:BDXShares",
        "label": "bdstables",
        "offset": 0,
        "slot": "151",
        "type": "t_mapping(t_address,t_bool)"
      }
    ],
    "types": {
      "t_address": {
        "encoding": "inplace",
        "label": "address",
        "numberOfBytes": "20"
      },
      "t_array(t_uint256)44_storage": {
        "base": "t_uint256",
        "encoding": "inplace",
        "label": "uint256[44]",
        "numberOfBytes": "1408"
      },
      "t_array(t_uint256)49_storage": {
        "base": "t_uint256",
        "encoding": "inplace",
        "label": "uint256[49]",
        "numberOfBytes": "1568"
      },
      "t_array(t_uint256)50_storage": {
        "base": "t_uint256",
        "encoding": "inplace",
        "label": "uint256[50]",
        "numberOfBytes": "1600"
      },
      "t_bool": {
        "encoding": "inplace",
        "label": "bool",
        "numberOfBytes": "1"
      },
      "t_mapping(t_address,t_bool)": {
        "encoding": "mapping",
        "key": "t_address",
        "label": "mapping(address => bool)",
        "numberOfBytes": "32",
        "value": "t_bool"
      },
      "t_mapping(t_address,t_mapping(t_address,t_uint256))": {
        "encoding": "mapping",
        "key": "t_address",
        "label": "mapping(address => mapping(address => uint256))",
        "numberOfBytes": "32",
        "value": "t_mapping(t_address,t_uint256)"
      },
      "t_mapping(t_address,t_uint256)": {
        "encoding": "mapping",
        "key": "t_address",
        "label": "mapping(address => uint256)",
        "numberOfBytes": "32",
        "value": "t_uint256"
      },
      "t_string_storage": {
        "encoding": "bytes",
        "label": "string",
        "numberOfBytes": "32"
      },
      "t_uint256": {
        "encoding": "inplace",
        "label": "uint256",
        "numberOfBytes": "32"
      },
      "t_uint8": {
        "encoding": "inplace",
        "label": "uint8",
        "numberOfBytes": "1"
      }
    }
  }
}