{
  "address": "0x0EF0eD8bad44C83792b795998F0caA0b970Bd379",
  "abi": [
    {
      "anonymous": false,
      "inputs": [
        {
          "indexed": true,
          "internalType": "address",
          "name": "owner",
          "type": "address"
        },
        {
          "indexed": true,
          "internalType": "address",
          "name": "spender",
          "type": "address"
        },
        {
          "indexed": false,
          "internalType": "uint256",
          "name": "value",
          "type": "uint256"
        }
      ],
      "name": "Approval",
      "type": "event"
    },
    {
      "anonymous": false,
      "inputs": [
        {
          "indexed": true,
          "internalType": "address",
          "name": "addr",
          "type": "address"
        }
      ],
      "name": "BdStableAddressAdded",
      "type": "event"
    },
    {
      "anonymous": false,
      "inputs": [
        {
          "indexed": true,
          "internalType": "address",
          "name": "from",
          "type": "address"
        },
        {
          "indexed": true,
          "internalType": "address",
          "name": "to",
          "type": "address"
        },
        {
          "indexed": false,
          "internalType": "address",
          "name": "bd_stable",
          "type": "address"
        },
        {
          "indexed": true,
          "internalType": "uint256",
          "name": "amount",
          "type": "uint256"
        }
      ],
      "name": "BdxBurned",
      "type": "event"
    },
    {
      "anonymous": false,
      "inputs": [
        {
          "indexed": true,
          "internalType": "address",
          "name": "from",
          "type": "address"
        },
        {
          "indexed": true,
          "internalType": "address",
          "name": "to",
          "type": "address"
        },
        {
          "indexed": false,
          "internalType": "address",
          "name": "bd_stable",
          "type": "address"
        },
        {
          "indexed": true,
          "internalType": "uint256",
          "name": "amount",
          "type": "uint256"
        }
      ],
      "name": "BdxMinted",
      "type": "event"
    },
    {
      "anonymous": false,
      "inputs": [
        {
          "indexed": true,
          "internalType": "address",
          "name": "newOwner",
          "type": "address"
        }
      ],
      "name": "OwnerSet",
      "type": "event"
    },
    {
      "anonymous": false,
      "inputs": [
        {
          "indexed": true,
          "internalType": "address",
          "name": "from",
          "type": "address"
        },
        {
          "indexed": true,
          "internalType": "address",
          "name": "to",
          "type": "address"
        },
        {
          "indexed": false,
          "internalType": "uint256",
          "name": "value",
          "type": "uint256"
        }
      ],
      "name": "Transfer",
      "type": "event"
    },
    {
      "inputs": [],
      "name": "MAX_TOTAL_SUPPLY",
      "outputs": [
        {
          "internalType": "uint256",
          "name": "",
          "type": "uint256"
        }
      ],
      "stateMutability": "view",
      "type": "function"
    },
    {
      "inputs": [
        {
          "internalType": "address",
          "name": "bdstable_contract_address",
          "type": "address"
        }
      ],
      "name": "addBdStableAddress",
      "outputs": [],
      "stateMutability": "nonpayable",
      "type": "function"
    },
    {
      "inputs": [
        {
          "internalType": "address",
          "name": "owner",
          "type": "address"
        },
        {
          "internalType": "address",
          "name": "spender",
          "type": "address"
        }
      ],
      "name": "allowance",
      "outputs": [
        {
          "internalType": "uint256",
          "name": "",
          "type": "uint256"
        }
      ],
      "stateMutability": "view",
      "type": "function"
    },
    {
      "inputs": [
        {
          "internalType": "address",
          "name": "spender",
          "type": "address"
        },
        {
          "internalType": "uint256",
          "name": "amount",
          "type": "uint256"
        }
      ],
      "name": "approve",
      "outputs": [
        {
          "internalType": "bool",
          "name": "",
          "type": "bool"
        }
      ],
      "stateMutability": "nonpayable",
      "type": "function"
    },
    {
      "inputs": [
        {
          "internalType": "address",
          "name": "account",
          "type": "address"
        }
      ],
      "name": "balanceOf",
      "outputs": [
        {
          "internalType": "uint256",
          "name": "",
          "type": "uint256"
        }
      ],
      "stateMutability": "view",
      "type": "function"
    },
    {
      "inputs": [
        {
          "internalType": "uint256",
          "name": "amount",
          "type": "uint256"
        }
      ],
      "name": "burn",
      "outputs": [],
      "stateMutability": "nonpayable",
      "type": "function"
    },
    {
      "inputs": [
        {
          "internalType": "address",
          "name": "account",
          "type": "address"
        },
        {
          "internalType": "uint256",
          "name": "amount",
          "type": "uint256"
        }
      ],
      "name": "burnFrom",
      "outputs": [],
      "stateMutability": "nonpayable",
      "type": "function"
    },
    {
      "inputs": [],
      "name": "decimals",
      "outputs": [
        {
          "internalType": "uint8",
          "name": "",
          "type": "uint8"
        }
      ],
      "stateMutability": "view",
      "type": "function"
    },
    {
      "inputs": [
        {
          "internalType": "address",
          "name": "spender",
          "type": "address"
        },
        {
          "internalType": "uint256",
          "name": "subtractedValue",
          "type": "uint256"
        }
      ],
      "name": "decreaseAllowance",
      "outputs": [
        {
          "internalType": "bool",
          "name": "",
          "type": "bool"
        }
      ],
      "stateMutability": "nonpayable",
      "type": "function"
    },
    {
      "inputs": [
        {
          "internalType": "address",
          "name": "spender",
          "type": "address"
        },
        {
          "internalType": "uint256",
          "name": "addedValue",
          "type": "uint256"
        }
      ],
      "name": "increaseAllowance",
      "outputs": [
        {
          "internalType": "bool",
          "name": "",
          "type": "bool"
        }
      ],
      "stateMutability": "nonpayable",
      "type": "function"
    },
    {
      "inputs": [
        {
          "internalType": "string",
          "name": "_name",
          "type": "string"
        },
        {
          "internalType": "string",
          "name": "_symbol",
          "type": "string"
        },
        {
          "internalType": "address",
          "name": "_owner_address",
          "type": "address"
        }
      ],
      "name": "initialize",
      "outputs": [],
      "stateMutability": "nonpayable",
      "type": "function"
    },
    {
      "inputs": [
        {
          "internalType": "address",
          "name": "bd_stable",
          "type": "address"
        },
        {
          "internalType": "address",
          "name": "to",
          "type": "address"
        },
        {
          "internalType": "uint256",
          "name": "amount",
          "type": "uint256"
        }
      ],
      "name": "mint",
      "outputs": [],
      "stateMutability": "nonpayable",
      "type": "function"
    },
    {
      "inputs": [],
      "name": "name",
      "outputs": [
        {
          "internalType": "string",
          "name": "",
          "type": "string"
        }
      ],
      "stateMutability": "view",
      "type": "function"
    },
    {
      "inputs": [],
      "name": "owner_address",
      "outputs": [
        {
          "internalType": "address",
          "name": "",
          "type": "address"
        }
      ],
      "stateMutability": "view",
      "type": "function"
    },
    {
      "inputs": [
        {
          "internalType": "address",
          "name": "_owner_address",
          "type": "address"
        }
      ],
      "name": "setOwner",
      "outputs": [],
      "stateMutability": "nonpayable",
      "type": "function"
    },
    {
      "inputs": [],
      "name": "symbol",
      "outputs": [
        {
          "internalType": "string",
          "name": "",
          "type": "string"
        }
      ],
      "stateMutability": "view",
      "type": "function"
    },
    {
      "inputs": [],
      "name": "totalSupply",
      "outputs": [
        {
          "internalType": "uint256",
          "name": "",
          "type": "uint256"
        }
      ],
      "stateMutability": "view",
      "type": "function"
    },
    {
      "inputs": [
        {
          "internalType": "address",
          "name": "recipient",
          "type": "address"
        },
        {
          "internalType": "uint256",
          "name": "amount",
          "type": "uint256"
        }
      ],
      "name": "transfer",
      "outputs": [
        {
          "internalType": "bool",
          "name": "",
          "type": "bool"
        }
      ],
      "stateMutability": "nonpayable",
      "type": "function"
    },
    {
      "inputs": [
        {
          "internalType": "address",
          "name": "sender",
          "type": "address"
        },
        {
          "internalType": "address",
          "name": "recipient",
          "type": "address"
        },
        {
          "internalType": "uint256",
          "name": "amount",
          "type": "uint256"
        }
      ],
      "name": "transferFrom",
      "outputs": [
        {
          "internalType": "bool",
          "name": "",
          "type": "bool"
        }
      ],
      "stateMutability": "nonpayable",
      "type": "function"
    }
  ],
  "transactionHash": "0xb727e08633c5f12e5856809ab091792ccf8a834cf8d159af76efba02840b3cf7",
  "args": [],
  "solcInputHash": "964b643a9886544e5729090027eb9ffb",
  "bytecode": "0x608060405234801561001057600080fd5b5061137b806100206000396000f3fe608060405234801561001057600080fd5b50600436106101215760003560e01c806342966c68116100ad57806395d89b411161007157806395d89b4114610245578063a457c2d71461024d578063a9059cbb14610260578063c6c3bbe614610273578063dd62ed3e1461028657610121565b806342966c68146101e457806370a08231146101f757806379cc67901461020a57806380edef8e1461021d5780638bb3af6c1461023257610121565b806318160ddd116100f457806318160ddd1461018c57806323b872dd146101a1578063313ce567146101b457806333039d3d146101c957806339509351146101d157610121565b806306fdde0314610126578063077f224a14610144578063095ea7b31461015957806313af403514610179575b600080fd5b61012e610299565b60405161013b9190610f3b565b60405180910390f35b610157610152366004610e8f565b610327565b005b61016c610167366004610e65565b6103f9565b60405161013b9190610f30565b610157610187366004610dd6565b610417565b6101946104b1565b60405161013b9190611260565b61016c6101af366004610e25565b6104b8565b6101bc610545565b60405161013b9190611269565b61019461054a565b61016c6101df366004610e65565b610559565b6101576101f2366004610f04565b6105ad565b610194610205366004610dd6565b6105c1565b610157610218366004610e65565b6105dc565b610225610637565b60405161013b9190610f1c565b610157610240366004610dd6565b610646565b61012e6106bc565b61016c61025b366004610e65565b610717565b61016c61026e366004610e65565b610785565b610157610281366004610e25565b610799565b610194610294366004610df1565b610860565b6032805460408051602060026001851615610100026000190190941693909304601f8101849004840282018401909252818152929183018282801561031f5780601f106102f45761010080835404028352916020019161031f565b820191906000526020600020905b81548152906001019060200180831161030257829003601f168201915b505050505081565b603054610100900460ff1680610340575061034061088b565b8061034e575060305460ff16155b6103735760405162461bcd60e51b815260040161036a906110ac565b60405180910390fd5b603054610100900460ff1615801561039e576030805460ff1961ff0019909116610100171660011790555b83516103b1906032906020870190610ca9565b5082516103c5906031906020860190610ca9565b50603380546001600160a01b0319166001600160a01b03841617905580156103f3576030805461ff00191690555b50505050565b600061040d61040661089c565b84846108a0565b5060015b92915050565b6033546001600160a01b031633146104415760405162461bcd60e51b815260040161036a906110fa565b6001600160a01b0381166104675760405162461bcd60e51b815260040161036a906111f2565b603380546001600160a01b0319166001600160a01b0383169081179091556040517f50146d0e3c60aa1d17a70635b05494f864e86144a2201275021014fbf08bafe290600090a250565b6002545b90565b60006104c5848484610954565b61053b846104d161089c565b610536856040518060600160405280602881526020016112d5602891396001600160a01b038a1660009081526001602052604081209061050f61089c565b6001600160a01b03168152602081019190915260400160002054919063ffffffff610a7516565b6108a0565b5060019392505050565b601281565b6a115eec47f6cf7e3500000081565b600061040d61056661089c565b84610536856001600061057761089c565b6001600160a01b03908116825260208083019390935260409182016000908120918c16815292529020549063ffffffff610aa116565b6105be6105b861089c565b82610acd565b50565b6001600160a01b031660009081526020819052604090205490565b6000610614826040518060600160405280602481526020016112fd602491396106078661029461089c565b919063ffffffff610a7516565b90506106288361062261089c565b836108a0565b6106328383610acd565b505050565b6033546001600160a01b031681565b6033546001600160a01b031633146106705760405162461bcd60e51b815260040161036a906110fa565b6001600160a01b038116600081815260346020526040808220805460ff19166001179055517ff0cb17bf28778490aec475a1856c7a87e59f878315f75066749924f6cb203fb39190a250565b6031805460408051602060026001851615610100026000190190941693909304601f8101849004840282018401909252818152929183018282801561031f5780601f106102f45761010080835404028352916020019161031f565b600061040d61072461089c565b8461053685604051806060016040528060258152602001611321602591396001600061074e61089c565b6001600160a01b03908116825260208083019390935260409182016000908120918d1681529252902054919063ffffffff610a7516565b600061040d61079261089c565b8484610954565b6033546001600160a01b031633146107c35760405162461bcd60e51b815260040161036a906110fa565b6a115eec47f6cf7e350000006107e7826107db6104b1565b9063ffffffff610aa116565b11156108055760405162461bcd60e51b815260040161036a90611081565b61080f8282610bbb565b80826001600160a01b0316306001600160a01b03167ff80e5f32cffc18515da81aa81b6eebc0f12c1122b4409afebdb78b6c3683fe5d866040516108539190610f1c565b60405180910390a4505050565b6001600160a01b03918216600090815260016020908152604080832093909416825291909152205490565b600061089630610c7b565b15905090565b3390565b6001600160a01b0383166108c65760405162461bcd60e51b815260040161036a906111ae565b6001600160a01b0382166108ec5760405162461bcd60e51b815260040161036a90610fd1565b6001600160a01b0380841660008181526001602090815260408083209487168084529490915290819020849055517f8c5be1e5ebec7d5bd14f71427d1e84f3dd0314c0f7b2291e5b200ac8c7c3b92590610947908590611260565b60405180910390a3505050565b6001600160a01b03831661097a5760405162461bcd60e51b815260040161036a90611169565b6001600160a01b0382166109a05760405162461bcd60e51b815260040161036a90610f8e565b6109ab838383610632565b6109ee816040518060600160405280602681526020016112af602691396001600160a01b038616600090815260208190526040902054919063ffffffff610a7516565b6001600160a01b038085166000908152602081905260408082209390935590841681522054610a23908263ffffffff610aa116565b6001600160a01b0380841660008181526020819052604090819020939093559151908516907fddf252ad1be2c89b69c2b068fc378daa952ba7f163c4a11628f55a4df523b3ef90610947908590611260565b60008184841115610a995760405162461bcd60e51b815260040161036a9190610f3b565b505050900390565b600082820183811015610ac65760405162461bcd60e51b815260040161036a90611013565b9392505050565b6001600160a01b038216610af35760405162461bcd60e51b815260040161036a90611128565b610aff82600083610632565b610b428160405180606001604052806022815260200161128d602291396001600160a01b038516600090815260208190526040902054919063ffffffff610a7516565b6001600160a01b038316600090815260208190526040902055600254610b6e908263ffffffff610c8116565b6002556040516000906001600160a01b038416907fddf252ad1be2c89b69c2b068fc378daa952ba7f163c4a11628f55a4df523b3ef90610baf908590611260565b60405180910390a35050565b6001600160a01b038216610be15760405162461bcd60e51b815260040161036a90611229565b610bed60008383610632565b600254610c00908263ffffffff610aa116565b6002556001600160a01b038216600090815260208190526040902054610c2c908263ffffffff610aa116565b6001600160a01b0383166000818152602081905260408082209390935591519091907fddf252ad1be2c89b69c2b068fc378daa952ba7f163c4a11628f55a4df523b3ef90610baf908590611260565b3b151590565b600082821115610ca35760405162461bcd60e51b815260040161036a9061104a565b50900390565b828054600181600116156101000203166002900490600052602060002090601f016020900481019282601f10610cea57805160ff1916838001178555610d17565b82800160010185558215610d17579182015b82811115610d17578251825591602001919060010190610cfc565b50610d23929150610d27565b5090565b6104b591905b80821115610d235760008155600101610d2d565b80356001600160a01b038116811461041157600080fd5b600082601f830112610d68578081fd5b813567ffffffffffffffff80821115610d7f578283fd5b604051601f8301601f191681016020018281118282101715610d9f578485fd5b604052828152925082848301602001861015610dba57600080fd5b8260208601602083013760006020848301015250505092915050565b600060208284031215610de7578081fd5b610ac68383610d41565b60008060408385031215610e03578081fd5b610e0d8484610d41565b9150610e1c8460208501610d41565b90509250929050565b600080600060608486031215610e39578081fd5b8335610e4481611277565b92506020840135610e5481611277565b929592945050506040919091013590565b60008060408385031215610e77578182fd5b610e818484610d41565b946020939093013593505050565b600080600060608486031215610ea3578283fd5b833567ffffffffffffffff80821115610eba578485fd5b610ec687838801610d58565b94506020860135915080821115610edb578384fd5b50610ee886828701610d58565b9250506040840135610ef981611277565b809150509250925092565b600060208284031215610f15578081fd5b5035919050565b6001600160a01b0391909116815260200190565b901515815260200190565b6000602080835283518082850152825b81811015610f6757858101830151858201604001528201610f4b565b81811115610f785783604083870101525b50601f01601f1916929092016040019392505050565b60208082526023908201527f45524332303a207472616e7366657220746f20746865207a65726f206164647260408201526265737360e81b606082015260800190565b60208082526022908201527f45524332303a20617070726f766520746f20746865207a65726f206164647265604082015261737360f01b606082015260800190565b6020808252601b908201527f536166654d6174683a206164646974696f6e206f766572666c6f770000000000604082015260600190565b6020808252601e908201527f536166654d6174683a207375627472616374696f6e206f766572666c6f770000604082015260600190565b602080825260119082015270109116081b1a5b5a5d081c995858da1959607a1b604082015260600190565b6020808252602e908201527f496e697469616c697a61626c653a20636f6e747261637420697320616c72656160408201526d191e481a5b9a5d1a585b1a5e995960921b606082015260800190565b6020808252601490820152732cb7ba9030b932903737ba1030b71037bbb732b960611b604082015260600190565b60208082526021908201527f45524332303a206275726e2066726f6d20746865207a65726f206164647265736040820152607360f81b606082015260800190565b60208082526025908201527f45524332303a207472616e736665722066726f6d20746865207a65726f206164604082015264647265737360d81b606082015260800190565b60208082526024908201527f45524332303a20617070726f76652066726f6d20746865207a65726f206164646040820152637265737360e01b606082015260800190565b6020808252601f908201527f4e6577206f776e65722063616e2774206265207a65726f206164647265737300604082015260600190565b6020808252601f908201527f45524332303a206d696e7420746f20746865207a65726f206164647265737300604082015260600190565b90815260200190565b60ff91909116815260200190565b6001600160a01b03811681146105be57600080fdfe45524332303a206275726e20616d6f756e7420657863656564732062616c616e636545524332303a207472616e7366657220616d6f756e7420657863656564732062616c616e636545524332303a207472616e7366657220616d6f756e74206578636565647320616c6c6f77616e636545524332303a206275726e20616d6f756e74206578636565647320616c6c6f77616e636545524332303a2064656372656173656420616c6c6f77616e63652062656c6f77207a65726fa264697066735822122084aa5a6f9d35d8dd504eb019bd6bdb448ff93368641a0254b81cdd2cd0e48f0864736f6c634300060b0033",
  "devdoc": {
    "kind": "dev",
    "methods": {
      "allowance(address,address)": {
        "details": "See {IERC20-allowance}."
      },
      "approve(address,uint256)": {
        "details": "See {IERC20-approve}. Requirements: - `spender` cannot be the zero address.approve(address spender, uint256 amount)"
      },
      "balanceOf(address)": {
        "details": "See {IERC20-balanceOf}."
      },
      "burn(uint256)": {
        "details": "Destroys `amount` tokens from the caller. See {ERC20-_burn}."
      },
      "burnFrom(address,uint256)": {
        "details": "Destroys `amount` tokens from `account`, deducting from the caller's allowance. See {ERC20-_burn} and {ERC20-allowance}. Requirements: - the caller must have allowance for `accounts`'s tokens of at least `amount`."
      },
      "decreaseAllowance(address,uint256)": {
        "details": "Atomically decreases the allowance granted to `spender` by the caller. This is an alternative to {approve} that can be used as a mitigation for problems described in {IERC20-approve}. Emits an {Approval} event indicating the updated allowance. Requirements: - `spender` cannot be the zero address. - `spender` must have allowance for the caller of at least `subtractedValue`."
      },
      "increaseAllowance(address,uint256)": {
        "details": "Atomically increases the allowance granted to `spender` by the caller. This is an alternative to {approve} that can be used as a mitigation for problems described in {IERC20-approve}. Emits an {Approval} event indicating the updated allowance. Requirements: - `spender` cannot be the zero address."
      },
      "totalSupply()": {
        "details": "See {IERC20-totalSupply}."
      },
      "transfer(address,uint256)": {
        "details": "See {IERC20-transfer}. Requirements: - `recipient` cannot be the zero address. - the caller must have a balance of at least `amount`."
      },
      "transferFrom(address,address,uint256)": {
        "details": "See {IERC20-transferFrom}. Emits an {Approval} event indicating the updated allowance. This is not required by the EIP. See the note at the beginning of {ERC20}; Requirements: - `sender` and `recipient` cannot be the zero address. - `sender` must have a balance of at least `amount`. - the caller must have allowance for `sender`'s tokens of at least `amount`."
      }
    },
    "version": 1
  },
  "userdoc": {
    "kind": "user",
    "methods": {},
    "version": 1
  },
  "storageLayout": {
    "storage": [
      {
        "astId": 7309,
        "contract": "contracts/Bdx/BDXShares.sol:BDXShares",
        "label": "_balances",
        "offset": 0,
        "slot": "0",
        "type": "t_mapping(t_address,t_uint256)"
      },
      {
        "astId": 7315,
        "contract": "contracts/Bdx/BDXShares.sol:BDXShares",
        "label": "_allowances",
        "offset": 0,
        "slot": "1",
        "type": "t_mapping(t_address,t_mapping(t_address,t_uint256))"
      },
      {
        "astId": 7317,
        "contract": "contracts/Bdx/BDXShares.sol:BDXShares",
        "label": "_totalSupply",
        "offset": 0,
        "slot": "2",
        "type": "t_uint256"
      },
      {
        "astId": 7809,
        "contract": "contracts/Bdx/BDXShares.sol:BDXShares",
        "label": "__gap",
        "offset": 0,
        "slot": "3",
        "type": "t_array(t_uint256)45_storage"
      },
      {
        "astId": 492,
        "contract": "contracts/Bdx/BDXShares.sol:BDXShares",
        "label": "_initialized",
        "offset": 0,
        "slot": "48",
        "type": "t_bool"
      },
      {
        "astId": 495,
        "contract": "contracts/Bdx/BDXShares.sol:BDXShares",
        "label": "_initializing",
        "offset": 1,
        "slot": "48",
        "type": "t_bool"
      },
      {
        "astId": 7136,
        "contract": "contracts/Bdx/BDXShares.sol:BDXShares",
        "label": "symbol",
        "offset": 0,
        "slot": "49",
        "type": "t_string_storage"
      },
      {
        "astId": 7138,
        "contract": "contracts/Bdx/BDXShares.sol:BDXShares",
        "label": "name",
        "offset": 0,
        "slot": "50",
        "type": "t_string_storage"
      },
      {
        "astId": 7140,
        "contract": "contracts/Bdx/BDXShares.sol:BDXShares",
        "label": "owner_address",
        "offset": 0,
        "slot": "51",
        "type": "t_address"
      },
      {
        "astId": 7144,
        "contract": "contracts/Bdx/BDXShares.sol:BDXShares",
        "label": "bdstables",
        "offset": 0,
        "slot": "52",
        "type": "t_mapping(t_address,t_bool)"
      }
    ],
    "types": {
      "t_address": {
        "encoding": "inplace",
        "label": "address",
        "numberOfBytes": "20"
      },
      "t_array(t_uint256)45_storage": {
        "base": "t_uint256",
        "encoding": "inplace",
        "label": "uint256[45]",
        "numberOfBytes": "1440"
      },
      "t_bool": {
        "encoding": "inplace",
        "label": "bool",
        "numberOfBytes": "1"
      },
      "t_mapping(t_address,t_bool)": {
        "encoding": "mapping",
        "key": "t_address",
        "label": "mapping(address => bool)",
        "numberOfBytes": "32",
        "value": "t_bool"
      },
      "t_mapping(t_address,t_mapping(t_address,t_uint256))": {
        "encoding": "mapping",
        "key": "t_address",
        "label": "mapping(address => mapping(address => uint256))",
        "numberOfBytes": "32",
        "value": "t_mapping(t_address,t_uint256)"
      },
      "t_mapping(t_address,t_uint256)": {
        "encoding": "mapping",
        "key": "t_address",
        "label": "mapping(address => uint256)",
        "numberOfBytes": "32",
        "value": "t_uint256"
      },
      "t_string_storage": {
        "encoding": "bytes",
        "label": "string",
        "numberOfBytes": "32"
      },
      "t_uint256": {
        "encoding": "inplace",
        "label": "uint256",
        "numberOfBytes": "32"
      }
    }
  }
}