{
  "address": "0xcF914f759e5a1C7fa950E9E099ea3Bb22bf06698",
  "abi": [
    {
      "anonymous": false,
      "inputs": [
        {
          "indexed": true,
          "internalType": "address",
          "name": "owner",
          "type": "address"
        },
        {
          "indexed": true,
          "internalType": "address",
          "name": "spender",
          "type": "address"
        },
        {
          "indexed": false,
          "internalType": "uint256",
          "name": "value",
          "type": "uint256"
        }
      ],
      "name": "Approval",
      "type": "event"
    },
    {
      "anonymous": false,
      "inputs": [
        {
          "indexed": true,
          "internalType": "address",
          "name": "bdstable_oracle_addr",
          "type": "address"
        },
        {
          "indexed": true,
          "internalType": "address",
          "name": "weth_address",
          "type": "address"
        }
      ],
      "name": "BDStableWETHOracleSet",
      "type": "event"
    },
    {
      "anonymous": false,
      "inputs": [
        {
          "indexed": true,
          "internalType": "address",
          "name": "bdx_oracle_address",
          "type": "address"
        },
        {
          "indexed": true,
          "internalType": "address",
          "name": "weth_address",
          "type": "address"
        }
      ],
      "name": "BDXWETHOracleSet",
      "type": "event"
    },
    {
      "anonymous": false,
      "inputs": [
        {
          "indexed": true,
          "internalType": "address",
          "name": "from",
          "type": "address"
        },
        {
          "indexed": true,
          "internalType": "address",
          "name": "to",
          "type": "address"
        },
        {
          "indexed": false,
          "internalType": "uint256",
          "name": "amount",
          "type": "uint256"
        }
      ],
      "name": "BdStableBurned",
      "type": "event"
    },
    {
      "anonymous": false,
      "inputs": [
        {
          "indexed": true,
          "internalType": "address",
          "name": "from",
          "type": "address"
        },
        {
          "indexed": true,
          "internalType": "address",
          "name": "to",
          "type": "address"
        },
        {
          "indexed": false,
          "internalType": "uint256",
          "name": "amount",
          "type": "uint256"
        }
      ],
      "name": "BdStableMinted",
      "type": "event"
    },
    {
      "anonymous": false,
      "inputs": [
        {
          "indexed": false,
          "internalType": "uint256",
          "name": "bdStable_step_d12",
          "type": "uint256"
        }
      ],
      "name": "BdStableStepSet",
      "type": "event"
    },
    {
      "anonymous": false,
      "inputs": [
        {
          "indexed": false,
          "internalType": "uint256",
          "name": "lockedCR_d12",
          "type": "uint256"
        }
      ],
      "name": "CollateralRatioLocked",
      "type": "event"
    },
    {
      "anonymous": false,
      "inputs": [
        {
          "indexed": false,
          "internalType": "bool",
          "name": "collateral_ratio_paused",
          "type": "bool"
        }
      ],
      "name": "CollateralRatioPausedToggled",
      "type": "event"
    },
    {
      "anonymous": false,
      "inputs": [
        {
          "indexed": false,
          "internalType": "uint256",
          "name": "global_collateral_ratio",
          "type": "uint256"
        }
      ],
      "name": "CollateralRatioRefreshed",
      "type": "event"
    },
    {
      "anonymous": false,
      "inputs": [
        {
          "indexed": false,
          "internalType": "address",
          "name": "eth_fiat_consumer_address",
          "type": "address"
        }
      ],
      "name": "EthFiatOracleSet",
      "type": "event"
    },
    {
      "anonymous": false,
      "inputs": [
        {
          "indexed": false,
          "internalType": "uint256",
          "name": "minimumMintRedeemDelayInBlocks",
          "type": "uint256"
        }
      ],
      "name": "MinimumMintRedeemDelayInBlocksSet",
      "type": "event"
    },
    {
      "anonymous": false,
      "inputs": [
        {
          "indexed": true,
          "internalType": "address",
          "name": "previousOwner",
          "type": "address"
        },
        {
          "indexed": true,
          "internalType": "address",
          "name": "newOwner",
          "type": "address"
        }
      ],
      "name": "OwnershipTransferred",
      "type": "event"
    },
    {
      "anonymous": false,
      "inputs": [
        {
          "indexed": false,
          "internalType": "address",
          "name": "pool_address",
          "type": "address"
        }
      ],
      "name": "PoolAdded",
      "type": "event"
    },
    {
      "anonymous": false,
      "inputs": [
        {
          "indexed": false,
          "internalType": "address",
          "name": "pool_address",
          "type": "address"
        }
      ],
      "name": "PoolRemoved",
      "type": "event"
    },
    {
      "anonymous": false,
      "inputs": [
        {
          "indexed": false,
          "internalType": "uint256",
          "name": "_price_band_d12",
          "type": "uint256"
        }
      ],
      "name": "PriceBandSet",
      "type": "event"
    },
    {
      "anonymous": false,
      "inputs": [
        {
          "indexed": false,
          "internalType": "uint256",
          "name": "_price_target_d12",
          "type": "uint256"
        }
      ],
      "name": "PriceTargetSet",
      "type": "event"
    },
    {
      "anonymous": false,
      "inputs": [
        {
          "indexed": true,
          "internalType": "address",
          "name": "from",
          "type": "address"
        },
        {
          "indexed": true,
          "internalType": "address",
          "name": "to",
          "type": "address"
        },
        {
          "indexed": false,
          "internalType": "uint256",
          "name": "value",
          "type": "uint256"
        }
      ],
      "name": "Transfer",
      "type": "event"
    },
    {
      "anonymous": false,
      "inputs": [
        {
          "indexed": false,
          "internalType": "address",
          "name": "newTreasury",
          "type": "address"
        }
      ],
      "name": "TreasuryChanged",
      "type": "event"
    },
    {
      "inputs": [],
      "name": "BDX_price_d12",
      "outputs": [
        {
          "internalType": "uint256",
          "name": "",
          "type": "uint256"
        }
      ],
      "stateMutability": "view",
      "type": "function"
    },
    {
      "inputs": [
        {
          "internalType": "address",
          "name": "pool_address",
          "type": "address"
        }
      ],
      "name": "addPool",
      "outputs": [],
      "stateMutability": "nonpayable",
      "type": "function"
    },
    {
      "inputs": [
        {
          "internalType": "address",
          "name": "owner",
          "type": "address"
        },
        {
          "internalType": "address",
          "name": "spender",
          "type": "address"
        }
      ],
      "name": "allowance",
      "outputs": [
        {
          "internalType": "uint256",
          "name": "",
          "type": "uint256"
        }
      ],
      "stateMutability": "view",
      "type": "function"
    },
    {
      "inputs": [
        {
          "internalType": "address",
          "name": "spender",
          "type": "address"
        },
        {
          "internalType": "uint256",
          "name": "amount",
          "type": "uint256"
        }
      ],
      "name": "approve",
      "outputs": [
        {
          "internalType": "bool",
          "name": "",
          "type": "bool"
        }
      ],
      "stateMutability": "nonpayable",
      "type": "function"
    },
    {
      "inputs": [],
      "name": "availableExcessCollatDV",
      "outputs": [
        {
          "internalType": "uint256",
          "name": "",
          "type": "uint256"
        }
      ],
      "stateMutability": "view",
      "type": "function"
    },
    {
      "inputs": [
        {
          "internalType": "address",
          "name": "account",
          "type": "address"
        }
      ],
      "name": "balanceOf",
      "outputs": [
        {
          "internalType": "uint256",
          "name": "",
          "type": "uint256"
        }
      ],
      "stateMutability": "view",
      "type": "function"
    },
    {
      "inputs": [],
      "name": "bdStable_step_d12",
      "outputs": [
        {
          "internalType": "uint256",
          "name": "",
          "type": "uint256"
        }
      ],
      "stateMutability": "view",
      "type": "function"
    },
    {
      "inputs": [
        {
          "internalType": "address",
          "name": "",
          "type": "address"
        }
      ],
      "name": "bdstable_pools",
      "outputs": [
        {
          "internalType": "bool",
          "name": "",
          "type": "bool"
        }
      ],
      "stateMutability": "view",
      "type": "function"
    },
    {
      "inputs": [
        {
          "internalType": "uint256",
          "name": "",
          "type": "uint256"
        }
      ],
      "name": "bdstable_pools_array",
      "outputs": [
        {
          "internalType": "address payable",
          "name": "",
          "type": "address"
        }
      ],
      "stateMutability": "view",
      "type": "function"
    },
    {
      "inputs": [],
      "name": "bdstable_price_d12",
      "outputs": [
        {
          "internalType": "uint256",
          "name": "",
          "type": "uint256"
        }
      ],
      "stateMutability": "view",
      "type": "function"
    },
    {
      "inputs": [
        {
          "internalType": "address",
          "name": "account",
          "type": "address"
        },
        {
          "internalType": "uint256",
          "name": "amount",
          "type": "uint256"
        }
      ],
      "name": "burnFrom",
      "outputs": [],
      "stateMutability": "nonpayable",
      "type": "function"
    },
    {
      "inputs": [
        {
          "internalType": "address",
          "name": "who",
          "type": "address"
        }
      ],
      "name": "canLegallyRedeem",
      "outputs": [
        {
          "internalType": "bool",
          "name": "",
          "type": "bool"
        }
      ],
      "stateMutability": "view",
      "type": "function"
    },
    {
      "inputs": [],
      "name": "collateral_ratio_paused",
      "outputs": [
        {
          "internalType": "bool",
          "name": "",
          "type": "bool"
        }
      ],
      "stateMutability": "view",
      "type": "function"
    },
    {
      "inputs": [],
      "name": "decimals",
      "outputs": [
        {
          "internalType": "uint8",
          "name": "",
          "type": "uint8"
        }
      ],
      "stateMutability": "view",
      "type": "function"
    },
    {
      "inputs": [
        {
          "internalType": "address",
          "name": "spender",
          "type": "address"
        },
        {
          "internalType": "uint256",
          "name": "subtractedValue",
          "type": "uint256"
        }
      ],
      "name": "decreaseAllowance",
      "outputs": [
        {
          "internalType": "bool",
          "name": "",
          "type": "bool"
        }
      ],
      "stateMutability": "nonpayable",
      "type": "function"
    },
    {
      "inputs": [],
      "name": "effective_global_collateral_ratio_d12",
      "outputs": [
        {
          "internalType": "uint256",
          "name": "",
          "type": "uint256"
        }
      ],
      "stateMutability": "view",
      "type": "function"
    },
    {
      "inputs": [],
      "name": "getBdStablesPoolsLength",
      "outputs": [
        {
          "internalType": "uint256",
          "name": "",
          "type": "uint256"
        }
      ],
      "stateMutability": "view",
      "type": "function"
    },
    {
      "inputs": [],
      "name": "get_effective_bdx_coverage_ratio",
      "outputs": [
        {
          "internalType": "uint256",
          "name": "",
          "type": "uint256"
        }
      ],
      "stateMutability": "view",
      "type": "function"
    },
    {
      "inputs": [],
      "name": "globalCollateralValue",
      "outputs": [
        {
          "internalType": "uint256",
          "name": "",
          "type": "uint256"
        }
      ],
      "stateMutability": "view",
      "type": "function"
    },
    {
      "inputs": [],
      "name": "global_collateral_ratio_d12",
      "outputs": [
        {
          "internalType": "uint256",
          "name": "",
          "type": "uint256"
        }
      ],
      "stateMutability": "view",
      "type": "function"
    },
    {
      "inputs": [
        {
          "internalType": "address",
          "name": "spender",
          "type": "address"
        },
        {
          "internalType": "uint256",
          "name": "addedValue",
          "type": "uint256"
        }
      ],
      "name": "increaseAllowance",
      "outputs": [
        {
          "internalType": "bool",
          "name": "",
          "type": "bool"
        }
      ],
      "stateMutability": "nonpayable",
      "type": "function"
    },
    {
      "inputs": [
        {
          "internalType": "string",
          "name": "_name",
          "type": "string"
        },
        {
          "internalType": "string",
          "name": "_symbol",
          "type": "string"
        },
        {
          "internalType": "address",
          "name": "_treasury",
          "type": "address"
        },
        {
          "internalType": "address",
          "name": "_bdx_address",
          "type": "address"
        },
        {
          "internalType": "uint256",
          "name": "_initalBdStableToTreasury_d18",
          "type": "uint256"
        }
      ],
      "name": "initialize",
      "outputs": [],
      "stateMutability": "nonpayable",
      "type": "function"
    },
    {
      "inputs": [
        {
          "internalType": "address",
          "name": "",
          "type": "address"
        }
      ],
      "name": "lastMintByUserBlock",
      "outputs": [
        {
          "internalType": "uint256",
          "name": "",
          "type": "uint256"
        }
      ],
      "stateMutability": "view",
      "type": "function"
    },
    {
      "inputs": [
        {
          "internalType": "uint256",
          "name": "wantedCR_d12",
          "type": "uint256"
        }
      ],
      "name": "lockCollateralRatioAt",
      "outputs": [],
      "stateMutability": "nonpayable",
      "type": "function"
    },
    {
      "inputs": [],
      "name": "name",
      "outputs": [
        {
          "internalType": "string",
          "name": "",
          "type": "string"
        }
      ],
      "stateMutability": "view",
      "type": "function"
    },
    {
      "inputs": [],
      "name": "owner",
      "outputs": [
        {
          "internalType": "address",
          "name": "",
          "type": "address"
        }
      ],
      "stateMutability": "view",
      "type": "function"
    },
    {
      "inputs": [
        {
          "internalType": "address",
          "name": "b_address",
          "type": "address"
        },
        {
          "internalType": "uint256",
          "name": "b_amount",
          "type": "uint256"
        }
      ],
      "name": "pool_burn_from",
      "outputs": [],
      "stateMutability": "nonpayable",
      "type": "function"
    },
    {
      "inputs": [
        {
          "internalType": "uint256",
          "name": "amount",
          "type": "uint256"
        }
      ],
      "name": "pool_claim_bdx",
      "outputs": [],
      "stateMutability": "nonpayable",
      "type": "function"
    },
    {
      "inputs": [
        {
          "internalType": "address",
          "name": "m_address",
          "type": "address"
        },
        {
          "internalType": "uint256",
          "name": "m_amount",
          "type": "uint256"
        }
      ],
      "name": "pool_mint",
      "outputs": [],
      "stateMutability": "nonpayable",
      "type": "function"
    },
    {
      "inputs": [
        {
          "internalType": "address",
          "name": "to",
          "type": "address"
        },
        {
          "internalType": "uint256",
          "name": "amount",
          "type": "uint256"
        }
      ],
      "name": "pool_transfer_claimed_bdx",
      "outputs": [],
      "stateMutability": "nonpayable",
      "type": "function"
    },
    {
      "inputs": [],
      "name": "price_band_d12",
      "outputs": [
        {
          "internalType": "uint256",
          "name": "",
          "type": "uint256"
        }
      ],
      "stateMutability": "view",
      "type": "function"
    },
    {
      "inputs": [],
      "name": "price_target_d12",
      "outputs": [
        {
          "internalType": "uint256",
          "name": "",
          "type": "uint256"
        }
      ],
      "stateMutability": "view",
      "type": "function"
    },
    {
      "inputs": [],
      "name": "refreshCollateralRatio",
      "outputs": [],
      "stateMutability": "nonpayable",
      "type": "function"
    },
    {
      "inputs": [],
      "name": "refreshCollateralRatio_last_call_time",
      "outputs": [
        {
          "internalType": "uint256",
          "name": "",
          "type": "uint256"
        }
      ],
      "stateMutability": "view",
      "type": "function"
    },
    {
      "inputs": [],
      "name": "refresh_cooldown",
      "outputs": [
        {
          "internalType": "uint256",
          "name": "",
          "type": "uint256"
        }
      ],
      "stateMutability": "view",
      "type": "function"
    },
    {
      "inputs": [
        {
          "internalType": "address",
          "name": "pool_address",
          "type": "address"
        }
      ],
      "name": "removePool",
      "outputs": [],
      "stateMutability": "nonpayable",
      "type": "function"
    },
    {
      "inputs": [],
      "name": "renounceOwnership",
      "outputs": [],
      "stateMutability": "nonpayable",
      "type": "function"
    },
    {
      "inputs": [
        {
          "internalType": "address",
          "name": "_bdstable_oracle_addr",
          "type": "address"
        },
        {
          "internalType": "address",
          "name": "_weth_address",
          "type": "address"
        }
      ],
      "name": "setBDStable_WETH_Oracle",
      "outputs": [],
      "stateMutability": "nonpayable",
      "type": "function"
    },
    {
      "inputs": [
        {
          "internalType": "address",
          "name": "_bdx_oracle_addr",
          "type": "address"
        },
        {
          "internalType": "address",
          "name": "_weth_address",
          "type": "address"
        }
      ],
      "name": "setBDX_WETH_Oracle",
      "outputs": [],
      "stateMutability": "nonpayable",
      "type": "function"
    },
    {
      "inputs": [
        {
          "internalType": "uint256",
          "name": "_bdStable_step_d12",
          "type": "uint256"
        }
      ],
      "name": "setBdStable_step_d12",
      "outputs": [],
      "stateMutability": "nonpayable",
      "type": "function"
    },
    {
      "inputs": [
        {
          "internalType": "address",
          "name": "_eth_fiat_consumer_address",
          "type": "address"
        }
      ],
      "name": "setETH_fiat_Oracle",
      "outputs": [],
      "stateMutability": "nonpayable",
      "type": "function"
    },
    {
      "inputs": [
        {
          "internalType": "uint256",
          "name": "_minimumMintRedeemDelayInBlocks",
          "type": "uint256"
        }
      ],
      "name": "setMinimumSwapsDelayInBlocks",
      "outputs": [],
      "stateMutability": "nonpayable",
      "type": "function"
    },
    {
      "inputs": [
        {
          "internalType": "address",
          "name": "_treasury",
          "type": "address"
        }
      ],
      "name": "setTreasury",
      "outputs": [],
      "stateMutability": "nonpayable",
      "type": "function"
    },
    {
      "inputs": [
        {
          "internalType": "uint256",
          "name": "_price_band_d12",
          "type": "uint256"
        }
      ],
      "name": "set_price_band_d12",
      "outputs": [],
      "stateMutability": "nonpayable",
      "type": "function"
    },
    {
      "inputs": [
        {
          "internalType": "uint256",
          "name": "_price_target_d12",
          "type": "uint256"
        }
      ],
      "name": "set_price_target_d12",
      "outputs": [],
      "stateMutability": "nonpayable",
      "type": "function"
    },
    {
      "inputs": [],
      "name": "shouldUpdateOracles",
      "outputs": [
        {
          "internalType": "bool",
          "name": "",
          "type": "bool"
        }
      ],
      "stateMutability": "view",
      "type": "function"
    },
    {
      "inputs": [],
      "name": "symbol",
      "outputs": [
        {
          "internalType": "string",
          "name": "",
          "type": "string"
        }
      ],
      "stateMutability": "view",
      "type": "function"
    },
    {
      "inputs": [],
      "name": "toggleCollateralRatioPaused",
      "outputs": [],
      "stateMutability": "nonpayable",
      "type": "function"
    },
    {
      "inputs": [],
      "name": "totalSupply",
      "outputs": [
        {
          "internalType": "uint256",
          "name": "",
          "type": "uint256"
        }
      ],
      "stateMutability": "view",
      "type": "function"
    },
    {
      "inputs": [
        {
          "internalType": "address",
          "name": "to",
          "type": "address"
        },
        {
          "internalType": "uint256",
          "name": "amount",
          "type": "uint256"
        }
      ],
      "name": "transfer",
      "outputs": [
        {
          "internalType": "bool",
          "name": "",
          "type": "bool"
        }
      ],
      "stateMutability": "nonpayable",
      "type": "function"
    },
    {
      "inputs": [
        {
          "internalType": "address",
          "name": "from",
          "type": "address"
        },
        {
          "internalType": "address",
          "name": "to",
          "type": "address"
        },
        {
          "internalType": "uint256",
          "name": "amount",
          "type": "uint256"
        }
      ],
      "name": "transferFrom",
      "outputs": [
        {
          "internalType": "bool",
          "name": "",
          "type": "bool"
        }
      ],
      "stateMutability": "nonpayable",
      "type": "function"
    },
    {
      "inputs": [
        {
          "internalType": "address",
          "name": "newOwner",
          "type": "address"
        }
      ],
      "name": "transferOwnership",
      "outputs": [],
      "stateMutability": "nonpayable",
      "type": "function"
    },
    {
      "inputs": [
        {
          "internalType": "address",
          "name": "to",
          "type": "address"
        },
        {
          "internalType": "uint256",
          "name": "BDX_amount",
          "type": "uint256"
        }
      ],
      "name": "transfer_bdx",
      "outputs": [],
      "stateMutability": "nonpayable",
      "type": "function"
    },
    {
      "inputs": [
        {
          "internalType": "address",
          "name": "to",
          "type": "address"
        },
        {
          "internalType": "uint256",
          "name": "BDX_amount",
          "type": "uint256"
        }
      ],
      "name": "transfer_bdx_force",
      "outputs": [],
      "stateMutability": "nonpayable",
      "type": "function"
    },
    {
      "inputs": [],
      "name": "treasury",
      "outputs": [
        {
          "internalType": "address",
          "name": "",
          "type": "address"
        }
      ],
      "stateMutability": "view",
      "type": "function"
    },
    {
      "inputs": [],
      "name": "unclaimedPoolsBDX",
      "outputs": [
        {
          "internalType": "uint256",
          "name": "",
          "type": "uint256"
        }
      ],
      "stateMutability": "view",
      "type": "function"
    },
    {
      "inputs": [],
      "name": "updateOraclesIfNeeded",
      "outputs": [],
      "stateMutability": "nonpayable",
      "type": "function"
    },
    {
      "inputs": [],
      "name": "weth_address",
      "outputs": [
        {
          "internalType": "address",
          "name": "",
          "type": "address"
        }
      ],
      "stateMutability": "view",
      "type": "function"
    },
    {
      "inputs": [],
      "name": "weth_fiat_price",
      "outputs": [
        {
          "internalType": "uint256",
          "name": "",
          "type": "uint256"
        }
      ],
      "stateMutability": "view",
      "type": "function"
    },
    {
      "inputs": [],
      "name": "when_should_refresh_collateral_ratio_in_seconds",
      "outputs": [
        {
          "internalType": "uint256",
          "name": "",
          "type": "uint256"
        }
      ],
      "stateMutability": "view",
      "type": "function"
    }
  ],
  "transactionHash": "0xa32f0d10572c0102f2c288882ecd92e87d9948fa93ce517eb6641a3879a1dc49",
  "args": [],
  "solcInputHash": "5a0c977d732c918ce49ef0ea74613e22",
  "bytecode": "0x6080604052600160a55534801561001557600080fd5b50613240806100256000396000f3fe608060405234801561001057600080fd5b50600436106103a45760003560e01c806387a140c3116101e9578063c03f7be31161010f578063ed7e119f116100ad578063f2fde38b1161007c578063f2fde38b14610787578063f61adab21461079a578063fa629219146107a2578063fadb1b02146107aa57600080fd5b8063ed7e119f14610739578063ed99250c14610759578063eef772f214610761578063f0f442601461077457600080fd5b8063d2d97b06116100e9578063d2d97b06146106dd578063d914cd4b146106e5578063da6ed553146106f8578063dd62ed3e1461070057600080fd5b8063c03f7be3146106b8578063c9aba0aa146106c1578063ce202603146106d457600080fd5b8063a9059cbb11610187578063b2d2362211610156578063b2d2362214610677578063b4f56b261461068a578063b7949f871461069d578063bcdede5b146106b057600080fd5b8063a9059cbb14610635578063abfd857514610648578063b02f6aec1461065b578063b20b02aa1461066e57600080fd5b80639e92f14f116101c35780639e92f14f146105e95780639f5f79e0146105fc578063a457c2d71461060f578063a8a778ae1461062257600080fd5b806387a140c3146105c35780638da5cb5b146105d057806395d89b41146105e157600080fd5b80634013124a116102ce578063688c0f471161026c57806370a082311161023b57806370a0823114610576578063715018a61461059f57806379cc6790146105a7578063870cfeab146105ba57600080fd5b8063688c0f471461054057806369d16799146105485780636c7ff97b1461055b57806370981eb21461056357600080fd5b80635b078c76116102a85780635b078c761461050a5780635e757f6a1461051257806361d027b31461051a578063686d14e61461052d57600080fd5b80634013124a146104e6578063497b5961146104ee5780634aa0eb9a1461050157600080fd5b8063246126bd11610346578063313ce56711610315578063313ce5671461049e57806331be54d3146104ad57806339509351146104c05780633b7d0946146104d357600080fd5b8063246126bd1461043f57806325f10c9b1461046a57806326191e4b146104725780632fe16b961461047b57600080fd5b80631096f103116103825780631096f103146103fc57806318160ddd1461040f5780631c0984581461041757806323b872dd1461042c57600080fd5b806302c855f8146103a957806306fdde03146103c4578063095ea7b3146103d9575b600080fd5b6103b16107b3565b6040519081526020015b60405180910390f35b6103cc610924565b6040516103bb9190612d00565b6103ec6103e7366004612d4f565b6109b6565b60405190151581526020016103bb565b6103ec61040a366004612d79565b6109ce565b6035546103b1565b61042a610425366004612d94565b6109ff565b005b6103ec61043a366004612dad565b610a6e565b609e54610452906001600160a01b031681565b6040516001600160a01b0390911681526020016103bb565b6103b1610a94565b6103b160a15481565b6103ec610489366004612d79565b60a06020526000908152604090205460ff1681565b604051601281526020016103bb565b61042a6104bb366004612d4f565b610aa5565b6103ec6104ce366004612d4f565b610b05565b61042a6104e1366004612d79565b610b44565b61042a610d3b565b6104526104fc366004612d94565b610f1e565b6103b160975481565b6103b1610f48565b6103b1610fb6565b609954610452906001600160a01b031681565b61042a61053b366004612d79565b610fee565b609f546103b1565b61042a610556366004612d94565b61108c565b61042a6110d4565b61042a610571366004612d4f565b6112a0565b6103b1610584366004612d79565b6001600160a01b031660009081526033602052604090205490565b61042a6113e9565b61042a6105b5366004612d4f565b61141d565b6103b160a85481565b60a6546103ec9060ff1681565b6065546001600160a01b0316610452565b6103cc6114aa565b61042a6105f7366004612de9565b6114b9565b61042a61060a366004612d94565b61158d565b6103ec61061d366004612d4f565b6115ec565b61042a610630366004612d4f565b611689565b6103ec610643366004612d4f565b61170c565b61042a610656366004612d94565b61171a565b61042a610669366004612d94565b611779565b6103b160a45481565b61042a610685366004612de9565b61182f565b61042a610698366004612d4f565b611903565b61042a6106ab366004612d4f565b611990565b6103ec6119ba565b6103b160a25481565b61042a6106cf366004612ebf565b611aa5565b6103b160a35481565b6103b1611cef565b61042a6106f3366004612d79565b611da7565b61042a611f0e565b6103b161070e366004612de9565b6001600160a01b03918216600090815260346020908152604080832093909416825291909152205490565b6103b1610747366004612d79565b60a76020526000908152604090205481565b6103b1611f85565b61042a61076f366004612d94565b611f91565b61042a610782366004612d79565b611ff0565b61042a610795366004612d79565b612068565b6103b1612103565b6103b1612163565b6103b1609d5481565b6000806107be612163565b9050600081609d54116107d357609d546107d5565b815b9050600064e8d4a510006107e860355490565b6107f78464e8d4a51000612f62565b6108019190612f79565b61080b9190612f98565b9050806000036108235764e8d4a51000935050505090565b600061082f60016121a1565b90508060000361084457600094505050505090565b60008161085664e8d4a5100085612f79565b6108609190612f98565b6097546098546040516370a0823160e01b81523060048201529293506000926001600160a01b03909116906370a0823190602401602060405180830381865afa1580156108b1573d6000803e3d6000fd5b505050506040513d601f19601f820116820180604052508101906108d59190612fba565b6108df9190612f62565b90506000826108f38364e8d4a51000612f79565b6108fd9190612f98565b905064e8d4a5100081116109115780610918565b64e8d4a510005b97505050505050505090565b60606036805461093390612fd3565b80601f016020809104026020016040519081016040528092919081815260200182805461095f90612fd3565b80156109ac5780601f10610981576101008083540402835291602001916109ac565b820191906000526020600020905b81548152906001019060200180831161098f57829003601f168201915b5050505050905090565b6000336109c4818585612323565b5060019392505050565b60a5546001600160a01b038216600090815260a760205260408120549091906109f79043612f62565b101592915050565b6065546001600160a01b03163314610a325760405162461bcd60e51b8152600401610a2990613007565b60405180910390fd5b60a18190556040518181527fa603e975ae74b9c52c4ab59b67b328222c699f765f89b808e8a2ae7c9ae2428e906020015b60405180910390a150565b600033610a7c858285612447565b610a878585856124d3565b60019150505b9392505050565b6000610aa060006121a1565b905090565b33600090815260a0602052604090205460ff161515600114610ad95760405162461bcd60e51b8152600401610a299061303c565b80609754610ae79190612f62565b609755609854610b01906001600160a01b031683836126a1565b5050565b3360008181526034602090815260408083206001600160a01b03871684529091528120549091906109c49082908690610b3f908790613080565b612323565b6065546001600160a01b03163314610b6e5760405162461bcd60e51b8152600401610a2990613007565b6001600160a01b038116600090815260a0602052604090205460ff161515600114610bdb5760405162461bcd60e51b815260206004820152601d60248201527f6164647265737320646f65736e277420657869737420616c72656164790000006044820152606401610a29565b6001600160a01b038116600090815260a060205260408120805460ff191690555b609f54811015610d0157816001600160a01b0316609f8281548110610c2357610c23613098565b6000918252602090912001546001600160a01b031603610cef57609f8054610c4d90600190612f62565b81548110610c5d57610c5d613098565b600091825260209091200154609f80546001600160a01b039092169183908110610c8957610c89613098565b9060005260206000200160006101000a8154816001600160a01b0302191690836001600160a01b03160217905550609f805480610cc857610cc86130ae565b600082815260209020810160001990810180546001600160a01b0319169055019055610d01565b80610cf9816130c4565b915050610bfc565b506040516001600160a01b03821681527f4106dfdaa577573db51c0ca93f766dbedfa0758faa2e7f5bcdb7c142be803c3f90602001610a63565b60a65460ff161515600103610d4c57565b6000610d56610fb6565b1115610d5e57565b609a60009054906101000a90046001600160a01b03166001600160a01b03166309bf39ed6040518163ffffffff1660e01b8152600401602060405180830381865afa158015610db1573d6000803e3d6000fd5b505050506040513d601f19601f82011682018060405250810190610dd591906130dd565b15610e4357609a60009054906101000a90046001600160a01b03166001600160a01b031663d6f124f06040518163ffffffff1660e01b8152600401600060405180830381600087803b158015610e2a57600080fd5b505af1158015610e3e573d6000803e3d6000fd5b505050505b6000610e4d610a94565b905060a45460a354610e5f9190613080565b811115610e935760a154609d5411610e7b576000609d55610ee7565b60a154609d54610e8b9190612f62565b609d55610ee7565b60a45460a354610ea39190612f62565b811015610ee75764e8d4a5100060a154609d54610ec09190613080565b10610ed35764e8d4a51000609d55610ee7565b60a154609d54610ee39190613080565b609d555b4260a855609d546040519081527fb1200af9b3ac4dec88c9d01e1fb7cc7fa1f0fe55bf4afac1f30cc4fc2b2d1dd290602001610a63565b609f8181548110610f2e57600080fd5b6000918252602090912001546001600160a01b0316905081565b609c546040805163f245a92f60e01b815290516000926001600160a01b03169163f245a92f9160048083019260209291908290030181865afa158015610f92573d6000803e3d6000fd5b505050506040513d601f19601f82011682018060405250810190610aa09190612fba565b60008060a85442610fc79190612f62565b905060a2548111610fe5578060a254610fe09190612f62565b610fe8565b60005b91505090565b6065546001600160a01b031633146110185760405162461bcd60e51b8152600401610a2990613007565b6001600160a01b03811661103e5760405162461bcd60e51b8152600401610a29906130ff565b609c80546001600160a01b0319166001600160a01b0383169081179091556040519081527f6643a1fbc87d792d8e737bc2f2d5c0f1c7477ab534d0254404a448decceb3d9790602001610a63565b33600090815260a0602052604090205460ff1615156001146110c05760405162461bcd60e51b8152600401610a299061303c565b806097546110ce9190613080565b60975550565b609b60009054906101000a90046001600160a01b03166001600160a01b03166309bf39ed6040518163ffffffff1660e01b8152600401602060405180830381865afa158015611127573d6000803e3d6000fd5b505050506040513d601f19601f8201168201806040525081019061114b91906130dd565b156111b957609b60009054906101000a90046001600160a01b03166001600160a01b031663d6f124f06040518163ffffffff1660e01b8152600401600060405180830381600087803b1580156111a057600080fd5b505af11580156111b4573d6000803e3d6000fd5b505050505b609a60009054906101000a90046001600160a01b03166001600160a01b03166309bf39ed6040518163ffffffff1660e01b8152600401602060405180830381865afa15801561120c573d6000803e3d6000fd5b505050506040513d601f19601f8201168201806040525081019061123091906130dd565b1561129e57609a60009054906101000a90046001600160a01b03166001600160a01b031663d6f124f06040518163ffffffff1660e01b8152600401600060405180830381600087803b15801561128557600080fd5b505af1158015611299573d6000803e3d6000fd5b505050505b565b6065546001600160a01b03163314806112cd575033600090815260a0602052604090205460ff1615156001145b6113195760405162461bcd60e51b815260206004820152601f60248201527f596f7520617265206e6f7420746865206f776e6572206f72206120706f6f6c006044820152606401610a29565b6097546098546040516370a0823160e01b81523060048201528392916001600160a01b0316906370a0823190602401602060405180830381865afa158015611365573d6000803e3d6000fd5b505050506040513d601f19601f820116820180604052508101906113899190612fba565b6113939190612f62565b10156113d25760405162461bcd60e51b815260206004820152600e60248201526d09cdee840cadcdeeaced0408488b60931b6044820152606401610a29565b609854610b01906001600160a01b031683836126a1565b6065546001600160a01b031633146114135760405162461bcd60e51b8152600401610a2990613007565b61129e60006126f8565b6000611429833361070e565b9050808211156114875760405162461bcd60e51b8152602060048201526024808201527f45524332303a206275726e20616d6f756e74206578636565647320616c6c6f77604482015263616e636560e01b6064820152608401610a29565b60006114938383612f62565b90506114a0843383612323565b611299848461274a565b60606037805461093390612fd3565b6065546001600160a01b031633146114e35760405162461bcd60e51b8152600401610a2990613007565b6001600160a01b0382166115095760405162461bcd60e51b8152600401610a29906130ff565b6001600160a01b03811661152f5760405162461bcd60e51b8152600401610a2990613147565b609b80546001600160a01b03199081166001600160a01b03858116918217909355609e80549092169284169283179091556040517f6b1a39edee703597b0d35ebd1e84785c1afac7793c4f61658d9851c875bd55e990600090a35050565b6065546001600160a01b031633146115b75760405162461bcd60e51b8152600401610a2990613007565b60a48190556040518181527fe9febe6aec89ff2870eeab6d13333c59cbed275b1d9a95f527c853d99ddb7cf490602001610a63565b3360008181526034602090815260408083206001600160a01b0387168452909152812054909190838110156116715760405162461bcd60e51b815260206004820152602560248201527f45524332303a2064656372656173656420616c6c6f77616e63652062656c6f77604482015264207a65726f60d81b6064820152608401610a29565b61167e8286868403612323565b506001949350505050565b33600090815260a0602052604090205460ff1615156001146116bd5760405162461bcd60e51b8152600401610a299061303c565b6116c7828261141d565b60405181815233906001600160a01b038416907f12d4d764706ce89037b449ff0dea7e084ef851d40ff63edaa38db6f33a581c7f906020015b60405180910390a35050565b6000336109c48185856124d3565b6065546001600160a01b031633146117445760405162461bcd60e51b8152600401610a2990613007565b60a38190556040518181527f898a2c9df7982133daaa8cfd78b8c49c520cba03205eec6480552c19059f6e3a90602001610a63565b6065546001600160a01b031633146117a35760405162461bcd60e51b8152600401610a2990613007565b64e8d4a510008111156117eb5760405162461bcd60e51b815260206004820152601060248201526f21a91036bab9ba103132901e181d989f60811b6044820152606401610a29565b609d81905560a6805460ff191660011790556040517ff3cd0dd9cc1a87f0d8733b9942a8864d40cb15c961b612792723a0a7858dd53d90610a639083815260200190565b6065546001600160a01b031633146118595760405162461bcd60e51b8152600401610a2990613007565b6001600160a01b03821661187f5760405162461bcd60e51b8152600401610a29906130ff565b6001600160a01b0381166118a55760405162461bcd60e51b8152600401610a2990613147565b609a80546001600160a01b03199081166001600160a01b03858116918217909355609e80549092169284169283179091556040517f4b3d6a3884d9b2a42f47c477f7a3af756a41c0049f277577cf90541ab74909b190600090a35050565b33600090815260a0602052604090205460ff1615156001146119375760405162461bcd60e51b8152600401610a299061303c565b6119418282612898565b6001600160a01b038216600081815260a76020526040908190204390555133907f69f651718349cff8d0d00acbb3ebb2bf127edbdfc02746168d5e35fb7998b399906117009085815260200190565b6065546001600160a01b031633146113d25760405162461bcd60e51b8152600401610a2990613007565b609b54604080516309bf39ed60e01b815290516000926001600160a01b0316916309bf39ed9160048083019260209291908290030181865afa158015611a04573d6000803e3d6000fd5b505050506040513d601f19601f82011682018060405250810190611a2891906130dd565b80610aa05750609a60009054906101000a90046001600160a01b03166001600160a01b03166309bf39ed6040518163ffffffff1660e01b8152600401602060405180830381865afa158015611a81573d6000803e3d6000fd5b505050506040513d601f19601f82011682018060405250810190610aa091906130dd565b600054610100900460ff16611ac05760005460ff1615611ac4565b303b155b611b275760405162461bcd60e51b815260206004820152602e60248201527f496e697469616c697a61626c653a20636f6e747261637420697320616c72656160448201526d191e481a5b9a5d1a585b1a5e995960921b6064820152608401610a29565b600054610100900460ff16158015611b49576000805461ffff19166101011790555b6000865111611b915760405162461bcd60e51b81526020600482015260146024820152734e616d652063616e6e6f7420626520656d70747960601b6044820152606401610a29565b6000855111611bdb5760405162461bcd60e51b815260206004820152601660248201527553796d626f6c2063616e6e6f7420626520656d70747960501b6044820152606401610a29565b6001600160a01b038316611c315760405162461bcd60e51b815260206004820152601760248201527f42445820616464726573732063616e6e6f7420626520300000000000000000006044820152606401610a29565b611c3b8686612977565b611c436129a8565b609980546001600160a01b038087166001600160a01b0319928316179092556098805492861692909116919091179055612710611c8664e8d4a510006019612f79565b611c909190612f98565b60a15564e8d4a51000609d81905560a381905561271090611cb2906032612f79565b611cbc9190612f98565b60a455610e1060a2558115611cd557611cd58483612898565b8015611ce7576000805461ff00191690555b505050505050565b600080805b609f54811015611da157609f8181548110611d1157611d11613098565b6000918252602091829020015460408051639ccabfb560e01b815290516001600160a01b0390921692639ccabfb5926004808401938290030181865afa158015611d5f573d6000803e3d6000fd5b505050506040513d601f19601f82011682018060405250810190611d839190612fba565b611d8d9083613080565b915080611d99816130c4565b915050611cf4565b50919050565b6065546001600160a01b03163314611dd15760405162461bcd60e51b8152600401610a2990613007565b6001600160a01b038116600090815260a0602052604090205460ff1615611e305760405162461bcd60e51b8152602060048201526013602482015272706f6f6c20616c72656164792065786973747360681b6044820152606401610a29565b609f54602011611e785760405162461bcd60e51b81526020600482015260136024820152721c1bdbdb1cc81b1a5b5a5d081c995858da1959606a1b6044820152606401610a29565b6001600160a01b038116600081815260a060209081526040808320805460ff19166001908117909155609f805491820181559093527f0bc14066c33013fe88f66e314e4cf150b0b2d4d6451a1a51dbbd1c27cd11de2890920180546001600160a01b0319168417905590519182527f73cca62ab1b520c9715bf4e6c71e3e518c754e7148f65102f43289a7df0efea69101610a63565b6065546001600160a01b03163314611f385760405162461bcd60e51b8152600401610a2990613007565b60a6805460ff8082161560ff1990921682179092556040519116151581527f558e3ca434dbb046a1200c25235032a55789c63515e8c78f60495063b75e141f9060200160405180910390a1565b6000610aa060016121a1565b6065546001600160a01b03163314611fbb5760405162461bcd60e51b8152600401610a2990613007565b60a58190556040518181527fc65034639393df19db82d446a340e906a7fb768ad7c3c3b945879ed70f1ae42790602001610a63565b6065546001600160a01b0316331461201a5760405162461bcd60e51b8152600401610a2990613007565b609980546001600160a01b0319166001600160a01b0383169081179091556040519081527fc714d22a2f08b695f81e7c707058db484aa5b4d6b4c9fd64beb10fe85832f60890602001610a63565b6065546001600160a01b031633146120925760405162461bcd60e51b8152600401610a2990613007565b6001600160a01b0381166120f75760405162461bcd60e51b815260206004820152602660248201527f4f776e61626c653a206e6577206f776e657220697320746865207a65726f206160448201526564647265737360d01b6064820152608401610a29565b612100816126f8565b50565b60008061210f60355490565b9050600061211b611cef565b9050600064e8d4a51000609d54846121339190612f79565b61213d9190612f98565b905080821115612159576121518183612f62565b935050505090565b6000935050505090565b60008061216f60355490565b9050600061217b611cef565b905060008261218f64e8d4a5100084612f79565b6121999190612f98565b949350505050565b6000806121ac610f48565b90506000808460018111156121c3576121c361318d565b0361224b57609a54609e54604051633ddac95360e01b81526001600160a01b03918216600482015264e8d4a510006024820152911690633ddac953906044015b602060405180830381865afa158015612220573d6000803e3d6000fd5b505050506040513d601f19601f820116820180604052508101906122449190612fba565b9050612313565b600184600181111561225f5761225f61318d565b036122a357609b54609e54604051633ddac95360e01b81526001600160a01b03918216600482015264e8d4a510006024820152911690633ddac95390604401612203565b6040805162461bcd60e51b81526020600482015260248101919091527f494e56414c49442050524943452043484f4943452e204e6565647320746f206260448201527f6520656974686572203020284244535441424c4529206f7220312028424458296064820152608401610a29565b8061218f64e8d4a5100084612f79565b6001600160a01b0383166123855760405162461bcd60e51b8152602060048201526024808201527f45524332303a20617070726f76652066726f6d20746865207a65726f206164646044820152637265737360e01b6064820152608401610a29565b6001600160a01b0382166123e65760405162461bcd60e51b815260206004820152602260248201527f45524332303a20617070726f766520746f20746865207a65726f206164647265604482015261737360f01b6064820152608401610a29565b6001600160a01b0383811660008181526034602090815260408083209487168084529482529182902085905590518481527f8c5be1e5ebec7d5bd14f71427d1e84f3dd0314c0f7b2291e5b200ac8c7c3b925910160405180910390a3505050565b6001600160a01b03838116600090815260346020908152604080832093861683529290522054600019811461129957818110156124c65760405162461bcd60e51b815260206004820152601d60248201527f45524332303a20696e73756666696369656e7420616c6c6f77616e63650000006044820152606401610a29565b6112998484848403612323565b6001600160a01b0383166125375760405162461bcd60e51b815260206004820152602560248201527f45524332303a207472616e736665722066726f6d20746865207a65726f206164604482015264647265737360d81b6064820152608401610a29565b6001600160a01b0382166125995760405162461bcd60e51b815260206004820152602360248201527f45524332303a207472616e7366657220746f20746865207a65726f206164647260448201526265737360e81b6064820152608401610a29565b6001600160a01b038316600090815260336020526040902054818110156126115760405162461bcd60e51b815260206004820152602660248201527f45524332303a207472616e7366657220616d6f756e7420657863656564732062604482015265616c616e636560d01b6064820152608401610a29565b6001600160a01b03808516600090815260336020526040808220858503905591851681529081208054849290612648908490613080565b92505081905550826001600160a01b0316846001600160a01b03167fddf252ad1be2c89b69c2b068fc378daa952ba7f163c4a11628f55a4df523b3ef8460405161269491815260200190565b60405180910390a3611299565b604080516001600160a01b038416602482015260448082018490528251808303909101815260649091019091526020810180516001600160e01b031663a9059cbb60e01b1790526126f39084906129d7565b505050565b606580546001600160a01b038381166001600160a01b0319831681179093556040519116919082907f8be0079c531659141344cd1fd0a4f28419497f9722a3daafe3b4186f6b6457e090600090a35050565b6001600160a01b0382166127aa5760405162461bcd60e51b815260206004820152602160248201527f45524332303a206275726e2066726f6d20746865207a65726f206164647265736044820152607360f81b6064820152608401610a29565b6001600160a01b0382166000908152603360205260409020548181101561281e5760405162461bcd60e51b815260206004820152602260248201527f45524332303a206275726e20616d6f756e7420657863656564732062616c616e604482015261636560f01b6064820152608401610a29565b6001600160a01b038316600090815260336020526040812083830390556035805484929061284d908490612f62565b90915550506040518281526000906001600160a01b038516907fddf252ad1be2c89b69c2b068fc378daa952ba7f163c4a11628f55a4df523b3ef9060200160405180910390a3505050565b6001600160a01b0382166128ee5760405162461bcd60e51b815260206004820152601f60248201527f45524332303a206d696e7420746f20746865207a65726f2061646472657373006044820152606401610a29565b80603560008282546129009190613080565b90915550506001600160a01b0382166000908152603360205260408120805483929061292d908490613080565b90915550506040518181526001600160a01b038316906000907fddf252ad1be2c89b69c2b068fc378daa952ba7f163c4a11628f55a4df523b3ef9060200160405180910390a35050565b600054610100900460ff1661299e5760405162461bcd60e51b8152600401610a29906131a3565b610b018282612aa9565b600054610100900460ff166129cf5760405162461bcd60e51b8152600401610a29906131a3565b61129e612af7565b6000612a2c826040518060400160405280602081526020017f5361666545524332303a206c6f772d6c6576656c2063616c6c206661696c6564815250856001600160a01b0316612b279092919063ffffffff16565b8051909150156126f35780806020019051810190612a4a91906130dd565b6126f35760405162461bcd60e51b815260206004820152602a60248201527f5361666545524332303a204552433230206f7065726174696f6e20646964206e6044820152691bdd081cdd58d8d9595960b21b6064820152608401610a29565b600054610100900460ff16612ad05760405162461bcd60e51b8152600401610a29906131a3565b8151612ae3906036906020850190612c3b565b5080516126f3906037906020840190612c3b565b600054610100900460ff16612b1e5760405162461bcd60e51b8152600401610a29906131a3565b61129e336126f8565b60606121998484600085856001600160a01b0385163b612b895760405162461bcd60e51b815260206004820152601d60248201527f416464726573733a2063616c6c20746f206e6f6e2d636f6e74726163740000006044820152606401610a29565b600080866001600160a01b03168587604051612ba591906131ee565b60006040518083038185875af1925050503d8060008114612be2576040519150601f19603f3d011682016040523d82523d6000602084013e612be7565b606091505b5091509150612bf7828286612c02565b979650505050505050565b60608315612c11575081610a8d565b825115612c215782518084602001fd5b8160405162461bcd60e51b8152600401610a299190612d00565b828054612c4790612fd3565b90600052602060002090601f016020900481019282612c695760008555612caf565b82601f10612c8257805160ff1916838001178555612caf565b82800160010185558215612caf579182015b82811115612caf578251825591602001919060010190612c94565b50612cbb929150612cbf565b5090565b5b80821115612cbb5760008155600101612cc0565b60005b83811015612cef578181015183820152602001612cd7565b838111156112995750506000910152565b6020815260008251806020840152612d1f816040850160208701612cd4565b601f01601f19169190910160400192915050565b80356001600160a01b0381168114612d4a57600080fd5b919050565b60008060408385031215612d6257600080fd5b612d6b83612d33565b946020939093013593505050565b600060208284031215612d8b57600080fd5b610a8d82612d33565b600060208284031215612da657600080fd5b5035919050565b600080600060608486031215612dc257600080fd5b612dcb84612d33565b9250612dd960208501612d33565b9150604084013590509250925092565b60008060408385031215612dfc57600080fd5b612e0583612d33565b9150612e1360208401612d33565b90509250929050565b634e487b7160e01b600052604160045260246000fd5b600082601f830112612e4357600080fd5b813567ffffffffffffffff80821115612e5e57612e5e612e1c565b604051601f8301601f19908116603f01168101908282118183101715612e8657612e86612e1c565b81604052838152866020858801011115612e9f57600080fd5b836020870160208301376000602085830101528094505050505092915050565b600080600080600060a08688031215612ed757600080fd5b853567ffffffffffffffff80821115612eef57600080fd5b612efb89838a01612e32565b96506020880135915080821115612f1157600080fd5b50612f1e88828901612e32565b945050612f2d60408701612d33565b9250612f3b60608701612d33565b949793965091946080013592915050565b634e487b7160e01b600052601160045260246000fd5b600082821015612f7457612f74612f4c565b500390565b6000816000190483118215151615612f9357612f93612f4c565b500290565b600082612fb557634e487b7160e01b600052601260045260246000fd5b500490565b600060208284031215612fcc57600080fd5b5051919050565b600181811c90821680612fe757607f821691505b602082108103611da157634e487b7160e01b600052602260045260246000fd5b6020808252818101527f4f776e61626c653a2063616c6c6572206973206e6f7420746865206f776e6572604082015260600190565b60208082526024908201527f4f6e6c7920626420706f6f6c732063616e2063616c6c20746869732066756e636040820152633a34b7b760e11b606082015260800190565b6000821982111561309357613093612f4c565b500190565b634e487b7160e01b600052603260045260246000fd5b634e487b7160e01b600052603160045260246000fd5b6000600182016130d6576130d6612f4c565b5060010190565b6000602082840312156130ef57600080fd5b81518015158114610a8d57600080fd5b60208082526028908201527f4f7261636c652063616e6e6f742062652073657420746f20746865207a65726f604082015267206164647265737360c01b606082015260800190565b60208082526026908201527f574554482063616e6e6f742062652073657420746f20746865207a65726f206160408201526564647265737360d01b606082015260800190565b634e487b7160e01b600052602160045260246000fd5b6020808252602b908201527f496e697469616c697a61626c653a20636f6e7472616374206973206e6f74206960408201526a6e697469616c697a696e6760a81b606082015260800190565b60008251613200818460208701612cd4565b919091019291505056fea264697066735822122000413bff7521b9d2a43da6a4acd5a67743fb48b80a43af1e3ec6980bad91fd4764736f6c634300080d0033",
  "devdoc": {
    "kind": "dev",
    "methods": {
      "allowance(address,address)": {
        "details": "See {IERC20-allowance}."
      },
      "approve(address,uint256)": {
        "details": "See {IERC20-approve}. NOTE: If `amount` is the maximum `uint256`, the allowance is not updated on `transferFrom`. This is semantically equivalent to an infinite approval. Requirements: - `spender` cannot be the zero address."
      },
      "balanceOf(address)": {
        "details": "See {IERC20-balanceOf}."
      },
      "decimals()": {
        "details": "Returns the number of decimals used to get its user representation. For example, if `decimals` equals `2`, a balance of `505` tokens should be displayed to a user as `5.05` (`505 / 10 ** 2`). Tokens usually opt for a value of 18, imitating the relationship between Ether and Wei. This is the value {ERC20} uses, unless this function is overridden; NOTE: This information is only used for _display_ purposes: it in no way affects any of the arithmetic of the contract, including {IERC20-balanceOf} and {IERC20-transfer}."
      },
      "decreaseAllowance(address,uint256)": {
        "details": "Atomically decreases the allowance granted to `spender` by the caller. This is an alternative to {approve} that can be used as a mitigation for problems described in {IERC20-approve}. Emits an {Approval} event indicating the updated allowance. Requirements: - `spender` cannot be the zero address. - `spender` must have allowance for the caller of at least `subtractedValue`."
      },
      "increaseAllowance(address,uint256)": {
        "details": "Atomically increases the allowance granted to `spender` by the caller. This is an alternative to {approve} that can be used as a mitigation for problems described in {IERC20-approve}. Emits an {Approval} event indicating the updated allowance. Requirements: - `spender` cannot be the zero address."
      },
      "name()": {
        "details": "Returns the name of the token."
      },
      "owner()": {
        "details": "Returns the address of the current owner."
      },
      "renounceOwnership()": {
        "details": "Leaves the contract without owner. It will not be possible to call `onlyOwner` functions anymore. Can only be called by the current owner. NOTE: Renouncing ownership will leave the contract without an owner, thereby removing any functionality that is only available to the owner."
      },
      "symbol()": {
        "details": "Returns the symbol of the token, usually a shorter version of the name."
      },
      "totalSupply()": {
        "details": "See {IERC20-totalSupply}."
      },
      "transfer(address,uint256)": {
        "details": "See {IERC20-transfer}. Requirements: - `to` cannot be the zero address. - the caller must have a balance of at least `amount`."
      },
      "transferFrom(address,address,uint256)": {
        "details": "See {IERC20-transferFrom}. Emits an {Approval} event indicating the updated allowance. This is not required by the EIP. See the note at the beginning of {ERC20}. NOTE: Does not update the allowance if the current allowance is the maximum `uint256`. Requirements: - `from` and `to` cannot be the zero address. - `from` must have a balance of at least `amount`. - the caller must have allowance for ``from``'s tokens of at least `amount`."
      },
      "transferOwnership(address)": {
        "details": "Transfers ownership of the contract to a new account (`newOwner`). Can only be called by the current owner."
      }
    },
    "version": 1
  },
  "userdoc": {
    "kind": "user",
    "methods": {},
    "version": 1
  },
  "storageLayout": {
    "storage": [
      {
        "astId": 130,
        "contract": "contracts/BdStable/BDStable.sol:BDStable",
        "label": "_initialized",
        "offset": 0,
        "slot": "0",
        "type": "t_bool"
      },
      {
        "astId": 133,
        "contract": "contracts/BdStable/BDStable.sol:BDStable",
        "label": "_initializing",
        "offset": 1,
        "slot": "0",
        "type": "t_bool"
      },
      {
        "astId": 1532,
        "contract": "contracts/BdStable/BDStable.sol:BDStable",
        "label": "__gap",
        "offset": 0,
        "slot": "1",
        "type": "t_array(t_uint256)50_storage"
      },
      {
        "astId": 327,
        "contract": "contracts/BdStable/BDStable.sol:BDStable",
        "label": "_balances",
        "offset": 0,
        "slot": "51",
        "type": "t_mapping(t_address,t_uint256)"
      },
      {
        "astId": 333,
        "contract": "contracts/BdStable/BDStable.sol:BDStable",
        "label": "_allowances",
        "offset": 0,
        "slot": "52",
        "type": "t_mapping(t_address,t_mapping(t_address,t_uint256))"
      },
      {
        "astId": 335,
        "contract": "contracts/BdStable/BDStable.sol:BDStable",
        "label": "_totalSupply",
        "offset": 0,
        "slot": "53",
        "type": "t_uint256"
      },
      {
        "astId": 337,
        "contract": "contracts/BdStable/BDStable.sol:BDStable",
        "label": "_name",
        "offset": 0,
        "slot": "54",
        "type": "t_string_storage"
      },
      {
        "astId": 339,
        "contract": "contracts/BdStable/BDStable.sol:BDStable",
        "label": "_symbol",
        "offset": 0,
        "slot": "55",
        "type": "t_string_storage"
      },
      {
        "astId": 920,
        "contract": "contracts/BdStable/BDStable.sol:BDStable",
        "label": "__gap",
        "offset": 0,
        "slot": "56",
        "type": "t_array(t_uint256)45_storage"
      },
      {
        "astId": 10,
        "contract": "contracts/BdStable/BDStable.sol:BDStable",
        "label": "_owner",
        "offset": 0,
        "slot": "101",
        "type": "t_address"
      },
      {
        "astId": 122,
        "contract": "contracts/BdStable/BDStable.sol:BDStable",
        "label": "__gap",
        "offset": 0,
        "slot": "102",
        "type": "t_array(t_uint256)49_storage"
      },
      {
        "astId": 3293,
        "contract": "contracts/BdStable/BDStable.sol:BDStable",
        "label": "unclaimedPoolsBDX",
        "offset": 0,
        "slot": "151",
        "type": "t_uint256"
      },
      {
        "astId": 3296,
        "contract": "contracts/BdStable/BDStable.sol:BDStable",
        "label": "BDX",
        "offset": 0,
        "slot": "152",
        "type": "t_contract(IERC20)2344"
      },
      {
        "astId": 3298,
        "contract": "contracts/BdStable/BDStable.sol:BDStable",
        "label": "treasury",
        "offset": 0,
        "slot": "153",
        "type": "t_address"
      },
      {
        "astId": 3301,
        "contract": "contracts/BdStable/BDStable.sol:BDStable",
        "label": "bdstableWethOracle",
        "offset": 0,
        "slot": "154",
        "type": "t_contract(ICryptoPairOracle)7070"
      },
      {
        "astId": 3304,
        "contract": "contracts/BdStable/BDStable.sol:BDStable",
        "label": "bdxWethOracle",
        "offset": 0,
        "slot": "155",
        "type": "t_contract(ICryptoPairOracle)7070"
      },
      {
        "astId": 3307,
        "contract": "contracts/BdStable/BDStable.sol:BDStable",
        "label": "weth_fiat_pricer",
        "offset": 0,
        "slot": "156",
        "type": "t_contract(IOracleBasedCryptoFiatFeed)7083"
      },
      {
        "astId": 3309,
        "contract": "contracts/BdStable/BDStable.sol:BDStable",
        "label": "global_collateral_ratio_d12",
        "offset": 0,
        "slot": "157",
        "type": "t_uint256"
      },
      {
        "astId": 3311,
        "contract": "contracts/BdStable/BDStable.sol:BDStable",
        "label": "weth_address",
        "offset": 0,
        "slot": "158",
        "type": "t_address"
      },
      {
        "astId": 3314,
        "contract": "contracts/BdStable/BDStable.sol:BDStable",
        "label": "bdstable_pools_array",
        "offset": 0,
        "slot": "159",
        "type": "t_array(t_address_payable)dyn_storage"
      },
      {
        "astId": 3318,
        "contract": "contracts/BdStable/BDStable.sol:BDStable",
        "label": "bdstable_pools",
        "offset": 0,
        "slot": "160",
        "type": "t_mapping(t_address,t_bool)"
      },
      {
        "astId": 3320,
        "contract": "contracts/BdStable/BDStable.sol:BDStable",
        "label": "bdStable_step_d12",
        "offset": 0,
        "slot": "161",
        "type": "t_uint256"
      },
      {
        "astId": 3322,
        "contract": "contracts/BdStable/BDStable.sol:BDStable",
        "label": "refresh_cooldown",
        "offset": 0,
        "slot": "162",
        "type": "t_uint256"
      },
      {
        "astId": 3324,
        "contract": "contracts/BdStable/BDStable.sol:BDStable",
        "label": "price_target_d12",
        "offset": 0,
        "slot": "163",
        "type": "t_uint256"
      },
      {
        "astId": 3326,
        "contract": "contracts/BdStable/BDStable.sol:BDStable",
        "label": "price_band_d12",
        "offset": 0,
        "slot": "164",
        "type": "t_uint256"
      },
      {
        "astId": 3329,
        "contract": "contracts/BdStable/BDStable.sol:BDStable",
        "label": "minimumMintRedeemDelayInBlocks",
        "offset": 0,
        "slot": "165",
        "type": "t_uint256"
      },
      {
        "astId": 3331,
        "contract": "contracts/BdStable/BDStable.sol:BDStable",
        "label": "collateral_ratio_paused",
        "offset": 0,
        "slot": "166",
        "type": "t_bool"
      },
      {
        "astId": 3335,
        "contract": "contracts/BdStable/BDStable.sol:BDStable",
        "label": "lastMintByUserBlock",
        "offset": 0,
        "slot": "167",
        "type": "t_mapping(t_address,t_uint256)"
      },
      {
        "astId": 3337,
        "contract": "contracts/BdStable/BDStable.sol:BDStable",
        "label": "refreshCollateralRatio_last_call_time",
        "offset": 0,
        "slot": "168",
        "type": "t_uint256"
      }
    ],
    "types": {
      "t_address": {
        "encoding": "inplace",
        "label": "address",
        "numberOfBytes": "20"
      },
      "t_address_payable": {
        "encoding": "inplace",
        "label": "address payable",
        "numberOfBytes": "20"
      },
      "t_array(t_address_payable)dyn_storage": {
        "base": "t_address_payable",
        "encoding": "dynamic_array",
        "label": "address payable[]",
        "numberOfBytes": "32"
      },
      "t_array(t_uint256)45_storage": {
        "base": "t_uint256",
        "encoding": "inplace",
        "label": "uint256[45]",
        "numberOfBytes": "1440"
      },
      "t_array(t_uint256)49_storage": {
        "base": "t_uint256",
        "encoding": "inplace",
        "label": "uint256[49]",
        "numberOfBytes": "1568"
      },
      "t_array(t_uint256)50_storage": {
        "base": "t_uint256",
        "encoding": "inplace",
        "label": "uint256[50]",
        "numberOfBytes": "1600"
      },
      "t_bool": {
        "encoding": "inplace",
        "label": "bool",
        "numberOfBytes": "1"
      },
      "t_contract(ICryptoPairOracle)7070": {
        "encoding": "inplace",
        "label": "contract ICryptoPairOracle",
        "numberOfBytes": "20"
      },
      "t_contract(IERC20)2344": {
        "encoding": "inplace",
        "label": "contract IERC20",
        "numberOfBytes": "20"
      },
      "t_contract(IOracleBasedCryptoFiatFeed)7083": {
        "encoding": "inplace",
        "label": "contract IOracleBasedCryptoFiatFeed",
        "numberOfBytes": "20"
      },
      "t_mapping(t_address,t_bool)": {
        "encoding": "mapping",
        "key": "t_address",
        "label": "mapping(address => bool)",
        "numberOfBytes": "32",
        "value": "t_bool"
      },
      "t_mapping(t_address,t_mapping(t_address,t_uint256))": {
        "encoding": "mapping",
        "key": "t_address",
        "label": "mapping(address => mapping(address => uint256))",
        "numberOfBytes": "32",
        "value": "t_mapping(t_address,t_uint256)"
      },
      "t_mapping(t_address,t_uint256)": {
        "encoding": "mapping",
        "key": "t_address",
        "label": "mapping(address => uint256)",
        "numberOfBytes": "32",
        "value": "t_uint256"
      },
      "t_string_storage": {
        "encoding": "bytes",
        "label": "string",
        "numberOfBytes": "32"
      },
      "t_uint256": {
        "encoding": "inplace",
        "label": "uint256",
        "numberOfBytes": "32"
      }
    }
  }
}