{
  "address": "0x9A002CC91B89a426fA5CE3b6c52c2e51012381e3",
  "abi": [
    {
      "inputs": [
        {
          "internalType": "address",
          "name": "_sovrynNetworkAddress",
          "type": "address"
        },
        {
          "internalType": "address",
          "name": "_tokenSource",
          "type": "address"
        },
        {
          "internalType": "address",
          "name": "_tokenTarget",
          "type": "address"
        },
        {
          "internalType": "uint256",
          "name": "_priceDisparityTolerance_d12",
          "type": "uint256"
        },
        {
          "internalType": "address",
          "name": "_updater",
          "type": "address"
        },
        {
          "internalType": "uint256",
          "name": "_timeBeforeShouldUpdate",
          "type": "uint256"
        },
        {
          "internalType": "uint256",
          "name": "_timeBeforeMustUpdate",
          "type": "uint256"
        }
      ],
      "stateMutability": "nonpayable",
      "type": "constructor"
    },
    {
      "anonymous": false,
      "inputs": [
        {
          "indexed": true,
          "internalType": "address",
          "name": "previousOwner",
          "type": "address"
        },
        {
          "indexed": true,
          "internalType": "address",
          "name": "newOwner",
          "type": "address"
        }
      ],
      "name": "OwnershipTransferred",
      "type": "event"
    },
    {
      "anonymous": false,
      "inputs": [
        {
          "indexed": true,
          "internalType": "uint256",
          "name": "newPrice",
          "type": "uint256"
        }
      ],
      "name": "PriceChanged",
      "type": "event"
    },
    {
      "anonymous": false,
      "inputs": [
        {
          "indexed": true,
          "internalType": "address",
          "name": "oldUpdater",
          "type": "address"
        },
        {
          "indexed": true,
          "internalType": "address",
          "name": "newUpdater",
          "type": "address"
        }
      ],
      "name": "UpdaterChanged",
      "type": "event"
    },
    {
      "inputs": [
        {
          "internalType": "address",
          "name": "tokenIn",
          "type": "address"
        },
        {
          "internalType": "uint256",
          "name": "amountIn",
          "type": "uint256"
        }
      ],
      "name": "consult",
      "outputs": [
        {
          "internalType": "uint256",
          "name": "",
          "type": "uint256"
        }
      ],
      "stateMutability": "view",
      "type": "function"
    },
    {
      "inputs": [],
      "name": "decimals",
      "outputs": [
        {
          "internalType": "uint8",
          "name": "",
          "type": "uint8"
        }
      ],
      "stateMutability": "view",
      "type": "function"
    },
    {
      "inputs": [],
      "name": "oraclePrice",
      "outputs": [
        {
          "internalType": "uint256",
          "name": "",
          "type": "uint256"
        }
      ],
      "stateMutability": "view",
      "type": "function"
    },
    {
      "inputs": [],
      "name": "owner",
      "outputs": [
        {
          "internalType": "address",
          "name": "",
          "type": "address"
        }
      ],
      "stateMutability": "view",
      "type": "function"
    },
    {
      "inputs": [],
      "name": "price",
      "outputs": [
        {
          "internalType": "uint256",
          "name": "",
          "type": "uint256"
        }
      ],
      "stateMutability": "view",
      "type": "function"
    },
    {
      "inputs": [],
      "name": "priceDisparityTolerance_d12",
      "outputs": [
        {
          "internalType": "uint256",
          "name": "",
          "type": "uint256"
        }
      ],
      "stateMutability": "view",
      "type": "function"
    },
    {
      "inputs": [],
      "name": "renounceOwnership",
      "outputs": [],
      "stateMutability": "nonpayable",
      "type": "function"
    },
    {
      "inputs": [
        {
          "internalType": "uint256",
          "name": "_priceDisparityTolerance_d12",
          "type": "uint256"
        }
      ],
      "name": "setPriceDisparityTolerance_d12",
      "outputs": [],
      "stateMutability": "nonpayable",
      "type": "function"
    },
    {
      "inputs": [
        {
          "internalType": "uint256",
          "name": "_timeBeforeMustUpdate",
          "type": "uint256"
        }
      ],
      "name": "setTimeBeforeMustUpdate",
      "outputs": [],
      "stateMutability": "nonpayable",
      "type": "function"
    },
    {
      "inputs": [
        {
          "internalType": "uint256",
          "name": "_timeBeforeShouldUpdate",
          "type": "uint256"
        }
      ],
      "name": "setTimeBeforeShouldUpdate",
      "outputs": [],
      "stateMutability": "nonpayable",
      "type": "function"
    },
    {
      "inputs": [
        {
          "internalType": "address",
          "name": "newUpdater",
          "type": "address"
        }
      ],
      "name": "setUpdater",
      "outputs": [],
      "stateMutability": "nonpayable",
      "type": "function"
    },
    {
      "inputs": [],
      "name": "shouldUpdateOracle",
      "outputs": [
        {
          "internalType": "bool",
          "name": "",
          "type": "bool"
        }
      ],
      "stateMutability": "view",
      "type": "function"
    },
    {
      "inputs": [],
      "name": "shouldUpdateOracleWithVerification",
      "outputs": [
        {
          "internalType": "bool",
          "name": "",
          "type": "bool"
        }
      ],
      "stateMutability": "view",
      "type": "function"
    },
    {
      "inputs": [],
      "name": "sovrynNetwork",
      "outputs": [
        {
          "internalType": "contract ISovrynSwapNetwork",
          "name": "",
          "type": "address"
        }
      ],
      "stateMutability": "view",
      "type": "function"
    },
    {
      "inputs": [],
      "name": "timeBeforeMustUpdate",
      "outputs": [
        {
          "internalType": "uint256",
          "name": "",
          "type": "uint256"
        }
      ],
      "stateMutability": "view",
      "type": "function"
    },
    {
      "inputs": [],
      "name": "timeBeforeShouldUpdate",
      "outputs": [
        {
          "internalType": "uint256",
          "name": "",
          "type": "uint256"
        }
      ],
      "stateMutability": "view",
      "type": "function"
    },
    {
      "inputs": [],
      "name": "tokenSource",
      "outputs": [
        {
          "internalType": "address",
          "name": "",
          "type": "address"
        }
      ],
      "stateMutability": "view",
      "type": "function"
    },
    {
      "inputs": [],
      "name": "tokenTarget",
      "outputs": [
        {
          "internalType": "address",
          "name": "",
          "type": "address"
        }
      ],
      "stateMutability": "view",
      "type": "function"
    },
    {
      "inputs": [
        {
          "internalType": "address",
          "name": "newOwner",
          "type": "address"
        }
      ],
      "name": "transferOwnership",
      "outputs": [],
      "stateMutability": "nonpayable",
      "type": "function"
    },
    {
      "inputs": [],
      "name": "updateOracle",
      "outputs": [],
      "stateMutability": "nonpayable",
      "type": "function"
    },
    {
      "inputs": [
        {
          "internalType": "uint256",
          "name": "verificationPrice_d12",
          "type": "uint256"
        }
      ],
      "name": "updateOracleWithVerification",
      "outputs": [],
      "stateMutability": "nonpayable",
      "type": "function"
    },
    {
      "inputs": [],
      "name": "updateTimestamp",
      "outputs": [
        {
          "internalType": "uint256",
          "name": "",
          "type": "uint256"
        }
      ],
      "stateMutability": "view",
      "type": "function"
    },
    {
      "inputs": [],
      "name": "updater",
      "outputs": [
        {
          "internalType": "address",
          "name": "",
          "type": "address"
        }
      ],
      "stateMutability": "view",
      "type": "function"
    }
  ],
  "transactionHash": "0xddfcdfd0b6b10ba337d6ace7aed97558e0e6016655ad735aabc3bca0132b70a5",
  "args": [
    "0x98ace08d2b759a265ae326f010496bcd63c15afc",
    "0x542fda317318ebf1d3deaf76e0b632741a7e677d",
    "0x1d931bf8656d795e50ef6d639562c5bd8ac2b78f",
    1000000000000,
    "0x2A119532248d0E4Ff68A42bB37f64336C3F20872",
    3600,
    4500
  ],
  "solcInputHash": "a2b283f9ba339a090f7b294daff0e306",
  "bytecode": "0x608060405234801561001057600080fd5b50604051611482380380611482833981810160405260e081101561003357600080fd5b508051602082015160408301516060840151608085015160a086015160c0909601519495939492939192909190600061006a6102ec565b600080546001600160a01b0319166001600160a01b0383169081178255604051929350917f8be0079c531659141344cd1fd0a4f28419497f9722a3daafe3b4186f6b6457e0908290a3506001600160a01b0387166100f95760405162461bcd60e51b81526004018080602001828103825260218152602001806114616021913960400191505060405180910390fd5b6001600160a01b038616610154576040805162461bcd60e51b815260206004820152601f60248201527f546f6b656e536f7572636520616464726573732063616e6e6f74206265203000604482015290519081900360640190fd5b6001600160a01b0385166101af576040805162461bcd60e51b815260206004820152601f60248201527f546f6b656e54617267657420616464726573732063616e6e6f74206265203000604482015290519081900360640190fd5b6001600160a01b03831661020a576040805162461bcd60e51b815260206004820152601b60248201527f5570646174657220616464726573732063616e6e6f7420626520300000000000604482015290519081900360640190fd5b603c81101561024a5760405162461bcd60e51b81526004018080602001828103825260308152602001806113fb6030913960400191505060405180910390fd5b808211156102895760405162461bcd60e51b815260040180806020018281038252603681526020018061142b6036913960400191505060405180910390fd5b600180546001600160a01b039889166001600160a01b0319918216179091556002805497891697821697909717909655600380549588169587169590951790945560049290925560058054919095169316929092179092556006556007556102f0565b3390565b6110fc806102ff6000396000f3fe608060405234801561001057600080fd5b506004361061014c5760003560e01c80636e1b193c116100c35780639d54f4191161007c5780639d54f41914610296578063a035b1fe146102bc578063cd23f586146102c4578063d6f124f0146102e1578063df034cd0146102e9578063f2fde38b146102f15761014c565b80636e1b193c14610235578063715018a614610252578063782e1e6c1461025a5780638b92fbe61461027e5780638cec13b8146102865780638da5cb5b1461028e5761014c565b80633ddac953116101155780633ddac953146101cc5780633f55dfe4146101f857806346838cd91461021557806348dc531f1461021d578063668aa824146102255780636debe5651461022d5761014c565b80620f1d321461015157806309bf39ed146101705780631713ce8b1461018c5780631c5be3d7146101a6578063313ce567146101ae575b600080fd5b61016e6004803603602081101561016757600080fd5b5035610317565b005b6101786103bf565b604080519115158252519081900360200190f35b6101946103c4565b60408051918252519081900360200190f35b6101946103ca565b6101b66103d0565b6040805160ff9092168252519081900360200190f35b610194600480360360408110156101e257600080fd5b506001600160a01b0381351690602001356103d5565b61016e6004803603602081101561020e57600080fd5b5035610502565b6101946108cc565b6101786108d2565b6101946108f2565b6101946108f8565b61016e6004803603602081101561024b57600080fd5b50356108fe565b61016e610965565b610262610a11565b604080516001600160a01b039092168252519081900360200190f35b610262610a20565b610262610a2f565b610262610a3e565b61016e600480360360208110156102ac57600080fd5b50356001600160a01b0316610a4d565b610194610b48565b61016e600480360360208110156102da57600080fd5b5035610c06565b61016e610cad565b610262610ce4565b61016e6004803603602081101561030757600080fd5b50356001600160a01b0316610cf3565b61031f610df5565b6001600160a01b0316610330610a3e565b6001600160a01b031614610379576040805162461bcd60e51b81526020600482018190526024820152600080516020611071833981519152604482015290519081900360640190fd5b6007548111156103ba5760405162461bcd60e51b8152600401808060200182810382526036815260200180610ff06036913960400191505060405180910390fd5b600655565b600090565b60075481565b60085481565b600c90565b6002546000906001600160a01b038481169116146104245760405162461bcd60e51b81526004018080602001828103825260368152602001806110916036913960400191505060405180910390fd5b600954610473576040805162461bcd60e51b815260206004820152601860248201527713dc9858db19481b9bdd081e595d081a5b9a5d1a585d195960421b604482015290519081900360640190fd5b60075460085461048291610df9565b42106104d5576040805162461bcd60e51b815260206004820152601d60248201527f5072696365206973207374616c652e20557064617465206f7261636c65000000604482015290519081900360640190fd5b6104f964e8d4a510006104f384600954610e5390919063ffffffff16565b90610eac565b90505b92915050565b6005546001600160a01b03163314610556576040805162461bcd60e51b81526020600482015260126024820152712cb7ba93b932903737ba103ab83230ba32b960711b604482015290519081900360640190fd5b6001546002546003546040805163d734fa1960e01b81526001600160a01b039384166004820152918316602483015251606093929092169163d734fa1991604480820192600092909190829003018186803b1580156105b457600080fd5b505afa1580156105c8573d6000803e3d6000fd5b505050506040513d6000823e601f3d908101601f1916820160405260208110156105f157600080fd5b810190808051604051939291908464010000000082111561061157600080fd5b90830190602082018581111561062657600080fd5b825186602082028301116401000000008211171561064357600080fd5b82525081516020918201928201910280838360005b83811015610670578181015183820152602001610658565b50505050905001604052505050905080516003146106d5576040805162461bcd60e51b815260206004820152601e60248201527f636f6e76657273696f6e2070617468206d757374206265206469726563740000604482015290519081900360640190fd5b6000816001815181106106e457fe5b602002602001015190506000816001600160a01b0316638da5cb5b6040518163ffffffff1660e01b815260040160206040518083038186803b15801561072957600080fd5b505afa15801561073d573d6000803e3d6000fd5b505050506040513d602081101561075357600080fd5b5051600254600354604080516315f2971b60e31b81526001600160a01b039384166004820152918316602483015264e8d4a5100060448301528051939450600093849386169263af94b8d8926064808301939192829003018186803b1580156107bb57600080fd5b505afa1580156107cf573d6000803e3d6000fd5b505050506040513d60408110156107e557600080fd5b508051602090910151909250905060006107ff8383610df9565b90506000818811610819576108148289610f13565b610823565b6108238883610f13565b60045490915061083c836104f38464e8d4a51000610e53565b1061088e576040805162461bcd60e51b815260206004820152601760248201527f50726963652064697370617269747920746f6f20626967000000000000000000604482015290519081900360640190fd5b60098290554260085560405182907fa6dc15bdb68da224c66db4b3838d9a2b205138e8cff6774e57d0af91e196d62290600090a25050505050505050565b60065481565b60006108eb600654600854610df990919063ffffffff16565b4211905090565b60095481565b60045481565b610906610df5565b6001600160a01b0316610917610a3e565b6001600160a01b031614610960576040805162461bcd60e51b81526020600482018190526024820152600080516020611071833981519152604482015290519081900360640190fd5b600455565b61096d610df5565b6001600160a01b031661097e610a3e565b6001600160a01b0316146109c7576040805162461bcd60e51b81526020600482018190526024820152600080516020611071833981519152604482015290519081900360640190fd5b600080546040516001600160a01b03909116907f8be0079c531659141344cd1fd0a4f28419497f9722a3daafe3b4186f6b6457e0908390a3600080546001600160a01b0319169055565b6003546001600160a01b031681565b6001546001600160a01b031681565b6002546001600160a01b031681565b6000546001600160a01b031690565b610a55610df5565b6001600160a01b0316610a66610a3e565b6001600160a01b031614610aaf576040805162461bcd60e51b81526020600482018190526024820152600080516020611071833981519152604482015290519081900360640190fd5b6001600160a01b038116610af45760405162461bcd60e51b8152600401808060200182810382526029815260200180610fc76029913960400191505060405180910390fd5b600580546001600160a01b038381166001600160a01b03198316179283905560405191811692169082907f662a4a4a892f5f13cf7ee050fdaa045f8641601fdbc843e8a71f418099cacd4e90600090a35050565b600060095460001415610b9d576040805162461bcd60e51b815260206004820152601860248201527713dc9858db19481b9bdd081e595d081a5b9a5d1a585d195960421b604482015290519081900360640190fd5b600754600854610bac91610df9565b4210610bff576040805162461bcd60e51b815260206004820152601d60248201527f5072696365206973207374616c652e20557064617465206f7261636c65000000604482015290519081900360640190fd5b5060095490565b610c0e610df5565b6001600160a01b0316610c1f610a3e565b6001600160a01b031614610c68576040805162461bcd60e51b81526020600482018190526024820152600080516020611071833981519152604482015290519081900360640190fd5b603c811015610ca85760405162461bcd60e51b8152600401808060200182810382526030815260200180610f716030913960400191505060405180910390fd5b600755565b60405162461bcd60e51b815260040180806020018281038252602a815260200180611026602a913960400191505060405180910390fd5b6005546001600160a01b031681565b610cfb610df5565b6001600160a01b0316610d0c610a3e565b6001600160a01b031614610d55576040805162461bcd60e51b81526020600482018190526024820152600080516020611071833981519152604482015290519081900360640190fd5b6001600160a01b038116610d9a5760405162461bcd60e51b8152600401808060200182810382526026815260200180610fa16026913960400191505060405180910390fd5b600080546040516001600160a01b03808516939216917f8be0079c531659141344cd1fd0a4f28419497f9722a3daafe3b4186f6b6457e091a3600080546001600160a01b0319166001600160a01b0392909216919091179055565b3390565b6000828201838110156104f9576040805162461bcd60e51b815260206004820152601b60248201527f536166654d6174683a206164646974696f6e206f766572666c6f770000000000604482015290519081900360640190fd5b600082610e62575060006104fc565b82820282848281610e6f57fe5b04146104f95760405162461bcd60e51b81526004018080602001828103825260218152602001806110506021913960400191505060405180910390fd5b6000808211610f02576040805162461bcd60e51b815260206004820152601a60248201527f536166654d6174683a206469766973696f6e206279207a65726f000000000000604482015290519081900360640190fd5b818381610f0b57fe5b049392505050565b600082821115610f6a576040805162461bcd60e51b815260206004820152601e60248201527f536166654d6174683a207375627472616374696f6e206f766572666c6f770000604482015290519081900360640190fd5b5090039056fe54696d654265666f72654d757374557064617465206d757374206265206174206c65617374203630207365636f6e64734f776e61626c653a206e6577206f776e657220697320746865207a65726f2061646472657373557064617465722063616e6e6f742062652073657420746f20746865207a65726f206164647265737354696d654265666f726553686f756c64557064617465206d757374206265203c3d2074696d654265666f72654d757374557064617465757365207570646174654f7261636c6557697468566572696669636174696f6e282920696e7374656164536166654d6174683a206d756c7469706c69636174696f6e206f766572666c6f774f776e61626c653a2063616c6c6572206973206e6f7420746865206f776e657254686973206f7261636c65206f6e6c79206163636570747320636f6e73756c74696e6720736f7572636520746f6b656e20696e707574a26469706673582212201b1dfc42599e6f63e263eee51c9fc96584457d84edf62c14633d906014f7924264736f6c634300060c003354696d654265666f72654d757374557064617465206d757374206265206174206c65617374203630207365636f6e647354696d654265666f726553686f756c64557064617465206d757374206265203c3d2074696d654265666f72654d757374557064617465536f7672796e4e6574776f726b20616464726573732063616e6e6f742062652030",
  "devdoc": {
    "kind": "dev",
    "methods": {
      "owner()": {
        "details": "Returns the address of the current owner."
      },
      "renounceOwnership()": {
        "details": "Leaves the contract without owner. It will not be possible to call `onlyOwner` functions anymore. Can only be called by the current owner. NOTE: Renouncing ownership will leave the contract without an owner, thereby removing any functionality that is only available to the owner."
      },
      "transferOwnership(address)": {
        "details": "Transfers ownership of the contract to a new account (`newOwner`). Can only be called by the current owner."
      }
    },
    "version": 1
  },
  "userdoc": {
    "kind": "user",
    "methods": {},
    "version": 1
  },
  "storageLayout": {
    "storage": [
      {
        "astId": 1782,
        "contract": "contracts/Oracle/SovrynSwapPriceFeed.sol:SovrynSwapPriceFeed",
        "label": "_owner",
        "offset": 0,
        "slot": "0",
        "type": "t_address"
      },
      {
        "astId": 9665,
        "contract": "contracts/Oracle/SovrynSwapPriceFeed.sol:SovrynSwapPriceFeed",
        "label": "sovrynNetwork",
        "offset": 0,
        "slot": "1",
        "type": "t_contract(ISovrynSwapNetwork)13417"
      },
      {
        "astId": 9667,
        "contract": "contracts/Oracle/SovrynSwapPriceFeed.sol:SovrynSwapPriceFeed",
        "label": "tokenSource",
        "offset": 0,
        "slot": "2",
        "type": "t_address"
      },
      {
        "astId": 9669,
        "contract": "contracts/Oracle/SovrynSwapPriceFeed.sol:SovrynSwapPriceFeed",
        "label": "tokenTarget",
        "offset": 0,
        "slot": "3",
        "type": "t_address"
      },
      {
        "astId": 9671,
        "contract": "contracts/Oracle/SovrynSwapPriceFeed.sol:SovrynSwapPriceFeed",
        "label": "priceDisparityTolerance_d12",
        "offset": 0,
        "slot": "4",
        "type": "t_uint256"
      },
      {
        "astId": 9673,
        "contract": "contracts/Oracle/SovrynSwapPriceFeed.sol:SovrynSwapPriceFeed",
        "label": "updater",
        "offset": 0,
        "slot": "5",
        "type": "t_address"
      },
      {
        "astId": 9675,
        "contract": "contracts/Oracle/SovrynSwapPriceFeed.sol:SovrynSwapPriceFeed",
        "label": "timeBeforeShouldUpdate",
        "offset": 0,
        "slot": "6",
        "type": "t_uint256"
      },
      {
        "astId": 9677,
        "contract": "contracts/Oracle/SovrynSwapPriceFeed.sol:SovrynSwapPriceFeed",
        "label": "timeBeforeMustUpdate",
        "offset": 0,
        "slot": "7",
        "type": "t_uint256"
      },
      {
        "astId": 9679,
        "contract": "contracts/Oracle/SovrynSwapPriceFeed.sol:SovrynSwapPriceFeed",
        "label": "updateTimestamp",
        "offset": 0,
        "slot": "8",
        "type": "t_uint256"
      },
      {
        "astId": 9681,
        "contract": "contracts/Oracle/SovrynSwapPriceFeed.sol:SovrynSwapPriceFeed",
        "label": "oraclePrice",
        "offset": 0,
        "slot": "9",
        "type": "t_uint256"
      }
    ],
    "types": {
      "t_address": {
        "encoding": "inplace",
        "label": "address",
        "numberOfBytes": "20"
      },
      "t_contract(ISovrynSwapNetwork)13417": {
        "encoding": "inplace",
        "label": "contract ISovrynSwapNetwork",
        "numberOfBytes": "20"
      },
      "t_uint256": {
        "encoding": "inplace",
        "label": "uint256",
        "numberOfBytes": "32"
      }
    }
  }
}