{
  "address": "0x8473Fc09eAc221a41e65A70767Ce563A7e138238",
  "abi": [
    {
      "inputs": [
        {
          "internalType": "address",
          "name": "_btcEthFeedAddress",
          "type": "address"
        },
        {
          "internalType": "address",
          "name": "_wethAddress",
          "type": "address"
        }
      ],
      "stateMutability": "nonpayable",
      "type": "constructor"
    },
    {
      "inputs": [
        {
          "internalType": "address",
          "name": "tokenIn",
          "type": "address"
        },
        {
          "internalType": "uint256",
          "name": "amountIn",
          "type": "uint256"
        }
      ],
      "name": "consult",
      "outputs": [
        {
          "internalType": "uint256",
          "name": "",
          "type": "uint256"
        }
      ],
      "stateMutability": "view",
      "type": "function"
    },
    {
      "inputs": [],
      "name": "getPrice_1e12",
      "outputs": [
        {
          "internalType": "uint256",
          "name": "",
          "type": "uint256"
        }
      ],
      "stateMutability": "view",
      "type": "function"
    },
    {
      "inputs": [],
      "name": "shouldUpdateOracle",
      "outputs": [
        {
          "internalType": "bool",
          "name": "",
          "type": "bool"
        }
      ],
      "stateMutability": "view",
      "type": "function"
    },
    {
      "inputs": [],
      "name": "updateOracle",
      "outputs": [],
      "stateMutability": "nonpayable",
      "type": "function"
    },
    {
      "inputs": [],
      "name": "when_should_update_oracle_in_seconds",
      "outputs": [
        {
          "internalType": "uint256",
          "name": "",
          "type": "uint256"
        }
      ],
      "stateMutability": "view",
      "type": "function"
    }
  ],
  "transactionHash": "0x3b77ec4f6c2446e5f39c3fd5477bec77962852ff5ec29ff759a0cc9221a40a21",
  "args": [
    "0x68862c30d45605ead8d01ef1632f7bfb18fab587",
    "0x967f8799af07df1534d48a95a5c9febe92c53ae0"
  ],
  "solcInputHash": "964b643a9886544e5729090027eb9ffb",
  "bytecode": "0x608060405234801561001057600080fd5b5060405161044c38038061044c8339818101604052604081101561003357600080fd5b508051602090910151600080546001600160a01b039384166001600160a01b031991821617909155600180549390921692169190911790556103d28061007a6000396000f3fe608060405234801561001057600080fd5b50600436106100575760003560e01c806309bf39ed1461005c5780630ccec97a146100785780633ddac95314610092578063d6f124f0146100be578063f245a92f146100c8575b600080fd5b6100646100d0565b604080519115158252519081900360200190f35b6100806100d5565b60408051918252519081900360200190f35b610080600480360360408110156100a857600080fd5b506001600160a01b0381351690602001356100de565b6100c6610162565b005b610080610164565b600090565b64e8d4a5100090565b6001546000906001600160a01b0384811691161461012d5760405162461bcd60e51b815260040180806020018281038252602e81526020018061036f602e913960400191505060405180910390fd5b610159610138610164565b61014d8464e8d4a5100063ffffffff61021b16565b9063ffffffff61027416565b90505b92915050565b565b60008054819061017c906001600160a01b03166102db565b90506102156000809054906101000a90046001600160a01b03166001600160a01b031663313ce5676040518163ffffffff1660e01b815260040160206040518083038186803b1580156101ce57600080fd5b505afa1580156101e2573d6000803e3d6000fd5b505050506040513d60208110156101f857600080fd5b505160ff16600a0a61014d64e8d4a510008463ffffffff61021b16565b91505090565b60008261022a5750600061015c565b8282028284828161023757fe5b04146101595760405162461bcd60e51b815260040180806020018281038252602181526020018061034e6021913960400191505060405180910390fd5b60008082116102ca576040805162461bcd60e51b815260206004820152601a60248201527f536166654d6174683a206469766973696f6e206279207a65726f000000000000604482015290519081900360640190fd5b8183816102d357fe5b049392505050565b600080826001600160a01b031663feaf968c6040518163ffffffff1660e01b815260040160a06040518083038186803b15801561031757600080fd5b505afa15801561032b573d6000803e3d6000fd5b505050506040513d60a081101561034157600080fd5b5060200151939250505056fe536166654d6174683a206d756c7469706c69636174696f6e206f766572666c6f7754686973206f7261636c65206f6e6c79206163636570747320636f6e73756c74696e67205745544820696e707574a2646970667358221220502b72990d03e3e7d8e70ad686131b11ac593b626cc2a28e6212ca2cd81887e464736f6c634300060b0033",
  "devdoc": {
    "kind": "dev",
    "methods": {},
    "version": 1
  },
  "userdoc": {
    "kind": "user",
    "methods": {},
    "version": 1
  },
  "storageLayout": {
    "storage": [
      {
        "astId": 9144,
        "contract": "contracts/Oracle/BtcToEthOracle.sol:BtcToEthOracle",
        "label": "feed",
        "offset": 0,
        "slot": "0",
        "type": "t_contract(AggregatorV3Interface)9082"
      },
      {
        "astId": 9146,
        "contract": "contracts/Oracle/BtcToEthOracle.sol:BtcToEthOracle",
        "label": "wethAddress",
        "offset": 0,
        "slot": "1",
        "type": "t_address"
      }
    ],
    "types": {
      "t_address": {
        "encoding": "inplace",
        "label": "address",
        "numberOfBytes": "20"
      },
      "t_contract(AggregatorV3Interface)9082": {
        "encoding": "inplace",
        "label": "contract AggregatorV3Interface",
        "numberOfBytes": "20"
      }
    }
  }
}