{
  "address": "0xAb58e364aA3079b834713C4a3cB5Ac7852Fcb4e9",
  "abi": [
    {
      "inputs": [
        {
          "internalType": "address",
          "name": "_btcEthFeedAddress",
          "type": "address"
        },
        {
          "internalType": "address",
          "name": "_wethAddress",
          "type": "address"
        }
      ],
      "stateMutability": "nonpayable",
      "type": "constructor"
    },
    {
      "anonymous": false,
      "inputs": [
        {
          "indexed": true,
          "internalType": "address",
          "name": "previousOwner",
          "type": "address"
        },
        {
          "indexed": true,
          "internalType": "address",
          "name": "newOwner",
          "type": "address"
        }
      ],
      "name": "OwnershipTransferred",
      "type": "event"
    },
    {
      "inputs": [
        {
          "internalType": "address",
          "name": "tokenIn",
          "type": "address"
        },
        {
          "internalType": "uint256",
          "name": "amountIn",
          "type": "uint256"
        }
      ],
      "name": "consult",
      "outputs": [
        {
          "internalType": "uint256",
          "name": "",
          "type": "uint256"
        }
      ],
      "stateMutability": "view",
      "type": "function"
    },
    {
      "inputs": [],
      "name": "getPrice_1e12",
      "outputs": [
        {
          "internalType": "uint256",
          "name": "",
          "type": "uint256"
        }
      ],
      "stateMutability": "view",
      "type": "function"
    },
    {
      "inputs": [],
      "name": "owner",
      "outputs": [
        {
          "internalType": "address",
          "name": "",
          "type": "address"
        }
      ],
      "stateMutability": "view",
      "type": "function"
    },
    {
      "inputs": [],
      "name": "renounceOwnership",
      "outputs": [],
      "stateMutability": "nonpayable",
      "type": "function"
    },
    {
      "inputs": [
        {
          "internalType": "uint8",
          "name": "_precision",
          "type": "uint8"
        }
      ],
      "name": "setPrecision",
      "outputs": [],
      "stateMutability": "nonpayable",
      "type": "function"
    },
    {
      "inputs": [],
      "name": "shouldUpdateOracle",
      "outputs": [
        {
          "internalType": "bool",
          "name": "",
          "type": "bool"
        }
      ],
      "stateMutability": "view",
      "type": "function"
    },
    {
      "inputs": [
        {
          "internalType": "address",
          "name": "newOwner",
          "type": "address"
        }
      ],
      "name": "transferOwnership",
      "outputs": [],
      "stateMutability": "nonpayable",
      "type": "function"
    },
    {
      "inputs": [],
      "name": "updateOracle",
      "outputs": [],
      "stateMutability": "nonpayable",
      "type": "function"
    },
    {
      "inputs": [],
      "name": "when_should_update_oracle_in_seconds",
      "outputs": [
        {
          "internalType": "uint256",
          "name": "",
          "type": "uint256"
        }
      ],
      "stateMutability": "view",
      "type": "function"
    }
  ],
  "transactionHash": "0xe6ddc6f884b8d0b1ba3fa0dccf5344f30df6029037846896f5d47ef67f7de1a2",
  "args": [
    "0x68862c30d45605ead8d01ef1632f7bfb18fab587",
    "0x967f8799af07df1534d48a95a5c9febe92c53ae0"
  ],
  "solcInputHash": "30f727fb733917779bcb7897932038cb",
  "bytecode": "0x60806040526002805460ff60a01b1916600960a11b17905534801561002357600080fd5b506040516107e13803806107e18339818101604052604081101561004657600080fd5b50805160209091015160006100626001600160e01b036100dd16565b600080546001600160a01b0319166001600160a01b0383169081178255604051929350917f8be0079c531659141344cd1fd0a4f28419497f9722a3daafe3b4186f6b6457e0908290a350600180546001600160a01b039384166001600160a01b031991821617909155600280549290931691161790556100e1565b3390565b6106f1806100f06000396000f3fe608060405234801561001057600080fd5b50600436106100935760003560e01c80637b26adac116100665780637b26adac146101045780638da5cb5b14610124578063d6f124f014610148578063f245a92f14610150578063f2fde38b1461015857610093565b806309bf39ed146100985780630ccec97a146100b45780633ddac953146100ce578063715018a6146100fa575b600080fd5b6100a061017e565b604080519115158252519081900360200190f35b6100bc610183565b60408051918252519081900360200190f35b6100bc600480360360408110156100e457600080fd5b506001600160a01b03813516906020013561018c565b610102610210565b005b6101026004803603602081101561011a57600080fd5b503560ff166102ce565b61012c610362565b604080516001600160a01b039092168252519081900360200190f35b610102610371565b6100bc610373565b6101026004803603602081101561016e57600080fd5b50356001600160a01b031661046e565b600090565b64e8d4a5100090565b6002546000906001600160a01b038481169116146101db5760405162461bcd60e51b815260040180806020018281038252602e81526020018061068e602e913960400191505060405180910390fd5b6102076101e6610373565b6101fb8464e8d4a5100063ffffffff61058216565b9063ffffffff6105db16565b90505b92915050565b610218610642565b6001600160a01b0316610229610362565b6001600160a01b031614610284576040805162461bcd60e51b815260206004820181905260248201527f4f776e61626c653a2063616c6c6572206973206e6f7420746865206f776e6572604482015290519081900360640190fd5b600080546040516001600160a01b03909116907f8be0079c531659141344cd1fd0a4f28419497f9722a3daafe3b4186f6b6457e0908390a3600080546001600160a01b0319169055565b6102d6610642565b6001600160a01b03166102e7610362565b6001600160a01b031614610342576040805162461bcd60e51b815260206004820181905260248201527f4f776e61626c653a2063616c6c6572206973206e6f7420746865206f776e6572604482015290519081900360640190fd5b6002805460ff909216600160a01b0260ff60a01b19909216919091179055565b6000546001600160a01b031690565b565b6000806000600160009054906101000a90046001600160a01b03166001600160a01b03166359e02dd76040518163ffffffff1660e01b8152600401604080518083038186803b1580156103c557600080fd5b505afa1580156103d9573d6000803e3d6000fd5b505050506040513d60408110156103ef57600080fd5b508051602090910151909250905080610444576040805162461bcd60e51b8152602060048201526012602482015271125b9d985b1a59081c1c9a58d9481999595960721b604482015290519081900360640190fd5b60025461046790600160a01b900460ff16600a0a6101fb64e8d4a5100085610582565b9250505090565b610476610642565b6001600160a01b0316610487610362565b6001600160a01b0316146104e2576040805162461bcd60e51b815260206004820181905260248201527f4f776e61626c653a2063616c6c6572206973206e6f7420746865206f776e6572604482015290519081900360640190fd5b6001600160a01b0381166105275760405162461bcd60e51b81526004018080602001828103825260268152602001806106476026913960400191505060405180910390fd5b600080546040516001600160a01b03808516939216917f8be0079c531659141344cd1fd0a4f28419497f9722a3daafe3b4186f6b6457e091a3600080546001600160a01b0319166001600160a01b0392909216919091179055565b6000826105915750600061020a565b8282028284828161059e57fe5b04146102075760405162461bcd60e51b815260040180806020018281038252602181526020018061066d6021913960400191505060405180910390fd5b6000808211610631576040805162461bcd60e51b815260206004820152601a60248201527f536166654d6174683a206469766973696f6e206279207a65726f000000000000604482015290519081900360640190fd5b81838161063a57fe5b049392505050565b339056fe4f776e61626c653a206e6577206f776e657220697320746865207a65726f2061646472657373536166654d6174683a206d756c7469706c69636174696f6e206f766572666c6f7754686973206f7261636c65206f6e6c79206163636570747320636f6e73756c74696e67205745544820696e707574a2646970667358221220a2f179d775b0b227ed6257b2eb3c930a940c8c6836e86b6d368b4222231a7a6464736f6c634300060b0033",
  "devdoc": {
    "kind": "dev",
    "methods": {
      "owner()": {
        "details": "Returns the address of the current owner."
      },
      "renounceOwnership()": {
        "details": "Leaves the contract without owner. It will not be possible to call `onlyOwner` functions anymore. Can only be called by the current owner. NOTE: Renouncing ownership will leave the contract without an owner, thereby removing any functionality that is only available to the owner."
      },
      "transferOwnership(address)": {
        "details": "Transfers ownership of the contract to a new account (`newOwner`). Can only be called by the current owner."
      }
    },
    "version": 1
  },
  "userdoc": {
    "kind": "user",
    "methods": {},
    "version": 1
  },
  "storageLayout": {
    "storage": [
      {
        "astId": 1569,
        "contract": "contracts/Oracle/BtcToEthOracleMoneyOnChain.sol:BtcToEthOracleMoneyOnChain",
        "label": "_owner",
        "offset": 0,
        "slot": "0",
        "type": "t_address"
      },
      {
        "astId": 9279,
        "contract": "contracts/Oracle/BtcToEthOracleMoneyOnChain.sol:BtcToEthOracleMoneyOnChain",
        "label": "feed",
        "offset": 0,
        "slot": "1",
        "type": "t_contract(IMoCBaseOracle)9542"
      },
      {
        "astId": 9281,
        "contract": "contracts/Oracle/BtcToEthOracleMoneyOnChain.sol:BtcToEthOracleMoneyOnChain",
        "label": "wethAddress",
        "offset": 0,
        "slot": "2",
        "type": "t_address"
      },
      {
        "astId": 9284,
        "contract": "contracts/Oracle/BtcToEthOracleMoneyOnChain.sol:BtcToEthOracleMoneyOnChain",
        "label": "precision",
        "offset": 20,
        "slot": "2",
        "type": "t_uint8"
      }
    ],
    "types": {
      "t_address": {
        "encoding": "inplace",
        "label": "address",
        "numberOfBytes": "20"
      },
      "t_contract(IMoCBaseOracle)9542": {
        "encoding": "inplace",
        "label": "contract IMoCBaseOracle",
        "numberOfBytes": "20"
      },
      "t_uint8": {
        "encoding": "inplace",
        "label": "uint8",
        "numberOfBytes": "1"
      }
    }
  }
}