{
  "address": "0x3bcb9ccf98680a56B63B9823dEc1411Ba035C6Be",
  "abi": [
    {
      "inputs": [
        {
          "internalType": "address",
          "name": "_sovrynConverterAddress",
          "type": "address"
        },
        {
          "internalType": "address",
          "name": "_tokenSource",
          "type": "address"
        },
        {
          "internalType": "address",
          "name": "_tokenTarget",
          "type": "address"
        },
        {
          "internalType": "uint256",
          "name": "_priceDisparityTolerance_d12",
          "type": "uint256"
        },
        {
          "internalType": "address",
          "name": "_updater",
          "type": "address"
        },
        {
          "internalType": "uint256",
          "name": "_timeBeforeShouldUpdate",
          "type": "uint256"
        },
        {
          "internalType": "uint256",
          "name": "_timeBeforeMustUpdate",
          "type": "uint256"
        }
      ],
      "stateMutability": "nonpayable",
      "type": "constructor"
    },
    {
      "anonymous": false,
      "inputs": [
        {
          "indexed": true,
          "internalType": "address",
          "name": "previousOwner",
          "type": "address"
        },
        {
          "indexed": true,
          "internalType": "address",
          "name": "newOwner",
          "type": "address"
        }
      ],
      "name": "OwnershipTransferred",
      "type": "event"
    },
    {
      "anonymous": false,
      "inputs": [
        {
          "indexed": true,
          "internalType": "uint256",
          "name": "newPrice",
          "type": "uint256"
        }
      ],
      "name": "PriceChanged",
      "type": "event"
    },
    {
      "anonymous": false,
      "inputs": [
        {
          "indexed": true,
          "internalType": "address",
          "name": "oldUpdater",
          "type": "address"
        },
        {
          "indexed": true,
          "internalType": "address",
          "name": "newUpdater",
          "type": "address"
        }
      ],
      "name": "UpdaterChanged",
      "type": "event"
    },
    {
      "inputs": [
        {
          "internalType": "address",
          "name": "tokenIn",
          "type": "address"
        },
        {
          "internalType": "uint256",
          "name": "amountIn",
          "type": "uint256"
        }
      ],
      "name": "consult",
      "outputs": [
        {
          "internalType": "uint256",
          "name": "",
          "type": "uint256"
        }
      ],
      "stateMutability": "view",
      "type": "function"
    },
    {
      "inputs": [],
      "name": "decimals",
      "outputs": [
        {
          "internalType": "uint8",
          "name": "",
          "type": "uint8"
        }
      ],
      "stateMutability": "view",
      "type": "function"
    },
    {
      "inputs": [],
      "name": "oraclePrice",
      "outputs": [
        {
          "internalType": "uint256",
          "name": "",
          "type": "uint256"
        }
      ],
      "stateMutability": "view",
      "type": "function"
    },
    {
      "inputs": [],
      "name": "owner",
      "outputs": [
        {
          "internalType": "address",
          "name": "",
          "type": "address"
        }
      ],
      "stateMutability": "view",
      "type": "function"
    },
    {
      "inputs": [],
      "name": "price",
      "outputs": [
        {
          "internalType": "uint256",
          "name": "",
          "type": "uint256"
        }
      ],
      "stateMutability": "view",
      "type": "function"
    },
    {
      "inputs": [],
      "name": "priceDisparityTolerance_d12",
      "outputs": [
        {
          "internalType": "uint256",
          "name": "",
          "type": "uint256"
        }
      ],
      "stateMutability": "view",
      "type": "function"
    },
    {
      "inputs": [],
      "name": "renounceOwnership",
      "outputs": [],
      "stateMutability": "nonpayable",
      "type": "function"
    },
    {
      "inputs": [
        {
          "internalType": "uint256",
          "name": "_priceDisparityTolerance_d12",
          "type": "uint256"
        }
      ],
      "name": "setPriceDisparityTolerance_d12",
      "outputs": [],
      "stateMutability": "nonpayable",
      "type": "function"
    },
    {
      "inputs": [
        {
          "internalType": "uint256",
          "name": "_timeBeforeMustUpdate",
          "type": "uint256"
        }
      ],
      "name": "setTimeBeforeMustUpdate",
      "outputs": [],
      "stateMutability": "nonpayable",
      "type": "function"
    },
    {
      "inputs": [
        {
          "internalType": "uint256",
          "name": "_timeBeforeShouldUpdate",
          "type": "uint256"
        }
      ],
      "name": "setTimeBeforeShouldUpdate",
      "outputs": [],
      "stateMutability": "nonpayable",
      "type": "function"
    },
    {
      "inputs": [
        {
          "internalType": "address",
          "name": "newUpdater",
          "type": "address"
        }
      ],
      "name": "setUpdater",
      "outputs": [],
      "stateMutability": "nonpayable",
      "type": "function"
    },
    {
      "inputs": [],
      "name": "shouldUpdateOracle",
      "outputs": [
        {
          "internalType": "bool",
          "name": "",
          "type": "bool"
        }
      ],
      "stateMutability": "view",
      "type": "function"
    },
    {
      "inputs": [],
      "name": "shouldUpdateOracleWithVerification",
      "outputs": [
        {
          "internalType": "bool",
          "name": "",
          "type": "bool"
        }
      ],
      "stateMutability": "view",
      "type": "function"
    },
    {
      "inputs": [],
      "name": "sovrynConverter",
      "outputs": [
        {
          "internalType": "contract ISovrynLiquidityPoolV1Converter",
          "name": "",
          "type": "address"
        }
      ],
      "stateMutability": "view",
      "type": "function"
    },
    {
      "inputs": [],
      "name": "timeBeforeMustUpdate",
      "outputs": [
        {
          "internalType": "uint256",
          "name": "",
          "type": "uint256"
        }
      ],
      "stateMutability": "view",
      "type": "function"
    },
    {
      "inputs": [],
      "name": "timeBeforeShouldUpdate",
      "outputs": [
        {
          "internalType": "uint256",
          "name": "",
          "type": "uint256"
        }
      ],
      "stateMutability": "view",
      "type": "function"
    },
    {
      "inputs": [],
      "name": "tokenSource",
      "outputs": [
        {
          "internalType": "address",
          "name": "",
          "type": "address"
        }
      ],
      "stateMutability": "view",
      "type": "function"
    },
    {
      "inputs": [],
      "name": "tokenTarget",
      "outputs": [
        {
          "internalType": "address",
          "name": "",
          "type": "address"
        }
      ],
      "stateMutability": "view",
      "type": "function"
    },
    {
      "inputs": [
        {
          "internalType": "address",
          "name": "newOwner",
          "type": "address"
        }
      ],
      "name": "transferOwnership",
      "outputs": [],
      "stateMutability": "nonpayable",
      "type": "function"
    },
    {
      "inputs": [],
      "name": "updateOracle",
      "outputs": [],
      "stateMutability": "nonpayable",
      "type": "function"
    },
    {
      "inputs": [
        {
          "internalType": "uint256",
          "name": "verificationPrice_d12",
          "type": "uint256"
        }
      ],
      "name": "updateOracleWithVerification",
      "outputs": [],
      "stateMutability": "nonpayable",
      "type": "function"
    },
    {
      "inputs": [],
      "name": "updateTimestamp",
      "outputs": [
        {
          "internalType": "uint256",
          "name": "",
          "type": "uint256"
        }
      ],
      "stateMutability": "view",
      "type": "function"
    },
    {
      "inputs": [],
      "name": "updater",
      "outputs": [
        {
          "internalType": "address",
          "name": "",
          "type": "address"
        }
      ],
      "stateMutability": "view",
      "type": "function"
    }
  ],
  "transactionHash": "0x33f1bee92b1fc132a54853eb7efddb24bd20b92ada138ecdfd522292a13bc194",
  "args": [
    "0xcef26b429e272960d8fa2ea190b06df5dd8f68e2",
    "0x542fda317318ebf1d3deaf76e0b632741a7e677d",
    "0x1d931bf8656d795e50ef6d639562c5bd8ac2b78f",
    1000000000000,
    "0x9C385013670F34256450ABA0ba7bd1B36eF02326",
    900,
    3600
  ],
  "solcInputHash": "68fe0750ac519c129d171c273f45f672",
  "bytecode": "0x608060405234801561001057600080fd5b50604051611281380380611281833981810160405260e081101561003357600080fd5b508051602082015160408301516060840151608085015160a086015160c0909601519495939492939192909190600061006a6102ec565b600080546001600160a01b0319166001600160a01b0383169081178255604051929350917f8be0079c531659141344cd1fd0a4f28419497f9722a3daafe3b4186f6b6457e0908290a3506001600160a01b0387166100f95760405162461bcd60e51b815260040180806020018281038252602381526020018061125e6023913960400191505060405180910390fd5b6001600160a01b038616610154576040805162461bcd60e51b815260206004820152601f60248201527f546f6b656e536f7572636520616464726573732063616e6e6f74206265203000604482015290519081900360640190fd5b6001600160a01b0385166101af576040805162461bcd60e51b815260206004820152601f60248201527f546f6b656e54617267657420616464726573732063616e6e6f74206265203000604482015290519081900360640190fd5b6001600160a01b03831661020a576040805162461bcd60e51b815260206004820152601b60248201527f5570646174657220616464726573732063616e6e6f7420626520300000000000604482015290519081900360640190fd5b603c81101561024a5760405162461bcd60e51b81526004018080602001828103825260308152602001806111f86030913960400191505060405180910390fd5b808211156102895760405162461bcd60e51b81526004018080602001828103825260368152602001806112286036913960400191505060405180910390fd5b600180546001600160a01b039889166001600160a01b0319918216179091556002805497891697821697909717909655600380549588169587169590951790945560049290925560058054919095169316929092179092556006556007556102f0565b3390565b610ef9806102ff6000396000f3fe608060405234801561001057600080fd5b506004361061014c5760003560e01c80636e1b193c116100c3578063a035b1fe1161007c578063a035b1fe146102b4578063af1d0d61146102bc578063cd23f586146102c4578063d6f124f0146102e1578063df034cd0146102e9578063f2fde38b146102f15761014c565b80636e1b193c14610235578063715018a614610252578063782e1e6c1461025a5780638cec13b81461027e5780638da5cb5b146102865780639d54f4191461028e5761014c565b80633ddac953116101155780633ddac953146101cc5780633f55dfe4146101f857806346838cd91461021557806348dc531f1461021d578063668aa824146102255780636debe5651461022d5761014c565b80620f1d321461015157806309bf39ed146101705780631713ce8b1461018c5780631c5be3d7146101a6578063313ce567146101ae575b600080fd5b61016e6004803603602081101561016757600080fd5b5035610317565b005b6101786103bf565b604080519115158252519081900360200190f35b6101946103c4565b60408051918252519081900360200190f35b6101946103ca565b6101b66103d0565b6040805160ff9092168252519081900360200190f35b610194600480360360408110156101e257600080fd5b506001600160a01b0381351690602001356103d5565b61016e6004803603602081101561020e57600080fd5b5035610502565b6101946106c9565b6101786106cf565b6101946106ef565b6101946106f5565b61016e6004803603602081101561024b57600080fd5b50356106fb565b61016e610762565b61026261080e565b604080516001600160a01b039092168252519081900360200190f35b61026261081d565b61026261082c565b61016e600480360360208110156102a457600080fd5b50356001600160a01b031661083b565b610194610936565b6102626109f4565b61016e600480360360208110156102da57600080fd5b5035610a03565b61016e610aaa565b610262610ae1565b61016e6004803603602081101561030757600080fd5b50356001600160a01b0316610af0565b61031f610bf2565b6001600160a01b031661033061082c565b6001600160a01b031614610379576040805162461bcd60e51b81526020600482018190526024820152600080516020610e6e833981519152604482015290519081900360640190fd5b6007548111156103ba5760405162461bcd60e51b8152600401808060200182810382526036815260200180610ded6036913960400191505060405180910390fd5b600655565b600090565b60075481565b60085481565b600c90565b6002546000906001600160a01b038481169116146104245760405162461bcd60e51b8152600401808060200182810382526036815260200180610e8e6036913960400191505060405180910390fd5b600954610473576040805162461bcd60e51b815260206004820152601860248201527713dc9858db19481b9bdd081e595d081a5b9a5d1a585d195960421b604482015290519081900360640190fd5b60075460085461048291610bf6565b42106104d5576040805162461bcd60e51b815260206004820152601d60248201527f5072696365206973207374616c652e20557064617465206f7261636c65000000604482015290519081900360640190fd5b6104f964e8d4a510006104f384600954610c5090919063ffffffff16565b90610ca9565b90505b92915050565b6005546001600160a01b03163314610556576040805162461bcd60e51b81526020600482015260126024820152712cb7ba93b932903737ba103ab83230ba32b960711b604482015290519081900360640190fd5b600154600254600354604080516315f2971b60e31b81526001600160a01b039384166004820152918316602483015264e8d4a51000604483015280516000948594169263af94b8d8926064808301939192829003018186803b1580156105bb57600080fd5b505afa1580156105cf573d6000803e3d6000fd5b505050506040513d60408110156105e557600080fd5b508051602090910151909250905060006105ff8383610bf6565b90506000818511610619576106148286610d10565b610623565b6106238583610d10565b60045490915061063c836104f38464e8d4a51000610c50565b1061068e576040805162461bcd60e51b815260206004820152601760248201527f50726963652064697370617269747920746f6f20626967000000000000000000604482015290519081900360640190fd5b60098290554260085560405182907fa6dc15bdb68da224c66db4b3838d9a2b205138e8cff6774e57d0af91e196d62290600090a25050505050565b60065481565b60006106e8600654600854610bf690919063ffffffff16565b4211905090565b60095481565b60045481565b610703610bf2565b6001600160a01b031661071461082c565b6001600160a01b03161461075d576040805162461bcd60e51b81526020600482018190526024820152600080516020610e6e833981519152604482015290519081900360640190fd5b600455565b61076a610bf2565b6001600160a01b031661077b61082c565b6001600160a01b0316146107c4576040805162461bcd60e51b81526020600482018190526024820152600080516020610e6e833981519152604482015290519081900360640190fd5b600080546040516001600160a01b03909116907f8be0079c531659141344cd1fd0a4f28419497f9722a3daafe3b4186f6b6457e0908390a3600080546001600160a01b0319169055565b6003546001600160a01b031681565b6002546001600160a01b031681565b6000546001600160a01b031690565b610843610bf2565b6001600160a01b031661085461082c565b6001600160a01b03161461089d576040805162461bcd60e51b81526020600482018190526024820152600080516020610e6e833981519152604482015290519081900360640190fd5b6001600160a01b0381166108e25760405162461bcd60e51b8152600401808060200182810382526029815260200180610dc46029913960400191505060405180910390fd5b600580546001600160a01b038381166001600160a01b03198316179283905560405191811692169082907f662a4a4a892f5f13cf7ee050fdaa045f8641601fdbc843e8a71f418099cacd4e90600090a35050565b60006009546000141561098b576040805162461bcd60e51b815260206004820152601860248201527713dc9858db19481b9bdd081e595d081a5b9a5d1a585d195960421b604482015290519081900360640190fd5b60075460085461099a91610bf6565b42106109ed576040805162461bcd60e51b815260206004820152601d60248201527f5072696365206973207374616c652e20557064617465206f7261636c65000000604482015290519081900360640190fd5b5060095490565b6001546001600160a01b031681565b610a0b610bf2565b6001600160a01b0316610a1c61082c565b6001600160a01b031614610a65576040805162461bcd60e51b81526020600482018190526024820152600080516020610e6e833981519152604482015290519081900360640190fd5b603c811015610aa55760405162461bcd60e51b8152600401808060200182810382526030815260200180610d6e6030913960400191505060405180910390fd5b600755565b60405162461bcd60e51b815260040180806020018281038252602a815260200180610e23602a913960400191505060405180910390fd5b6005546001600160a01b031681565b610af8610bf2565b6001600160a01b0316610b0961082c565b6001600160a01b031614610b52576040805162461bcd60e51b81526020600482018190526024820152600080516020610e6e833981519152604482015290519081900360640190fd5b6001600160a01b038116610b975760405162461bcd60e51b8152600401808060200182810382526026815260200180610d9e6026913960400191505060405180910390fd5b600080546040516001600160a01b03808516939216917f8be0079c531659141344cd1fd0a4f28419497f9722a3daafe3b4186f6b6457e091a3600080546001600160a01b0319166001600160a01b0392909216919091179055565b3390565b6000828201838110156104f9576040805162461bcd60e51b815260206004820152601b60248201527f536166654d6174683a206164646974696f6e206f766572666c6f770000000000604482015290519081900360640190fd5b600082610c5f575060006104fc565b82820282848281610c6c57fe5b04146104f95760405162461bcd60e51b8152600401808060200182810382526021815260200180610e4d6021913960400191505060405180910390fd5b6000808211610cff576040805162461bcd60e51b815260206004820152601a60248201527f536166654d6174683a206469766973696f6e206279207a65726f000000000000604482015290519081900360640190fd5b818381610d0857fe5b049392505050565b600082821115610d67576040805162461bcd60e51b815260206004820152601e60248201527f536166654d6174683a207375627472616374696f6e206f766572666c6f770000604482015290519081900360640190fd5b5090039056fe54696d654265666f72654d757374557064617465206d757374206265206174206c65617374203630207365636f6e64734f776e61626c653a206e6577206f776e657220697320746865207a65726f2061646472657373557064617465722063616e6e6f742062652073657420746f20746865207a65726f206164647265737354696d654265666f726553686f756c64557064617465206d757374206265203c3d2074696d654265666f72654d757374557064617465757365207570646174654f7261636c6557697468566572696669636174696f6e282920696e7374656164536166654d6174683a206d756c7469706c69636174696f6e206f766572666c6f774f776e61626c653a2063616c6c6572206973206e6f7420746865206f776e657254686973206f7261636c65206f6e6c79206163636570747320636f6e73756c74696e6720736f7572636520746f6b656e20696e707574a2646970667358221220089d94f3808f367f85d5efce90eb9802222145218f4d61c8154dfb86005d2a5f64736f6c634300060c003354696d654265666f72654d757374557064617465206d757374206265206174206c65617374203630207365636f6e647354696d654265666f726553686f756c64557064617465206d757374206265203c3d2074696d654265666f72654d757374557064617465536f7672796e436f6e76657274657220616464726573732063616e6e6f742062652030",
  "devdoc": {
    "kind": "dev",
    "methods": {
      "owner()": {
        "details": "Returns the address of the current owner."
      },
      "renounceOwnership()": {
        "details": "Leaves the contract without owner. It will not be possible to call `onlyOwner` functions anymore. Can only be called by the current owner. NOTE: Renouncing ownership will leave the contract without an owner, thereby removing any functionality that is only available to the owner."
      },
      "transferOwnership(address)": {
        "details": "Transfers ownership of the contract to a new account (`newOwner`). Can only be called by the current owner."
      }
    },
    "version": 1
  },
  "userdoc": {
    "kind": "user",
    "methods": {},
    "version": 1
  },
  "storageLayout": {
    "storage": [
      {
        "astId": 1782,
        "contract": "contracts/Oracle/SovrynSwapPriceFeed.sol:SovrynSwapPriceFeed",
        "label": "_owner",
        "offset": 0,
        "slot": "0",
        "type": "t_address"
      },
      {
        "astId": 9553,
        "contract": "contracts/Oracle/SovrynSwapPriceFeed.sol:SovrynSwapPriceFeed",
        "label": "sovrynConverter",
        "offset": 0,
        "slot": "1",
        "type": "t_contract(ISovrynLiquidityPoolV1Converter)13247"
      },
      {
        "astId": 9555,
        "contract": "contracts/Oracle/SovrynSwapPriceFeed.sol:SovrynSwapPriceFeed",
        "label": "tokenSource",
        "offset": 0,
        "slot": "2",
        "type": "t_address"
      },
      {
        "astId": 9557,
        "contract": "contracts/Oracle/SovrynSwapPriceFeed.sol:SovrynSwapPriceFeed",
        "label": "tokenTarget",
        "offset": 0,
        "slot": "3",
        "type": "t_address"
      },
      {
        "astId": 9559,
        "contract": "contracts/Oracle/SovrynSwapPriceFeed.sol:SovrynSwapPriceFeed",
        "label": "priceDisparityTolerance_d12",
        "offset": 0,
        "slot": "4",
        "type": "t_uint256"
      },
      {
        "astId": 9561,
        "contract": "contracts/Oracle/SovrynSwapPriceFeed.sol:SovrynSwapPriceFeed",
        "label": "updater",
        "offset": 0,
        "slot": "5",
        "type": "t_address"
      },
      {
        "astId": 9563,
        "contract": "contracts/Oracle/SovrynSwapPriceFeed.sol:SovrynSwapPriceFeed",
        "label": "timeBeforeShouldUpdate",
        "offset": 0,
        "slot": "6",
        "type": "t_uint256"
      },
      {
        "astId": 9565,
        "contract": "contracts/Oracle/SovrynSwapPriceFeed.sol:SovrynSwapPriceFeed",
        "label": "timeBeforeMustUpdate",
        "offset": 0,
        "slot": "7",
        "type": "t_uint256"
      },
      {
        "astId": 9567,
        "contract": "contracts/Oracle/SovrynSwapPriceFeed.sol:SovrynSwapPriceFeed",
        "label": "updateTimestamp",
        "offset": 0,
        "slot": "8",
        "type": "t_uint256"
      },
      {
        "astId": 9569,
        "contract": "contracts/Oracle/SovrynSwapPriceFeed.sol:SovrynSwapPriceFeed",
        "label": "oraclePrice",
        "offset": 0,
        "slot": "9",
        "type": "t_uint256"
      }
    ],
    "types": {
      "t_address": {
        "encoding": "inplace",
        "label": "address",
        "numberOfBytes": "20"
      },
      "t_contract(ISovrynLiquidityPoolV1Converter)13247": {
        "encoding": "inplace",
        "label": "contract ISovrynLiquidityPoolV1Converter",
        "numberOfBytes": "20"
      },
      "t_uint256": {
        "encoding": "inplace",
        "label": "uint256",
        "numberOfBytes": "32"
      }
    }
  }
}