{
  "address": "0x378f7acdA8e38e289962D5fb063C947f2Ada86Ff",
  "abi": [
    {
      "inputs": [
        {
          "internalType": "address",
          "name": "_fiatToUsdFeedAddress",
          "type": "address"
        },
        {
          "internalType": "address",
          "name": "_cryptoUsdFeedAddress",
          "type": "address"
        }
      ],
      "stateMutability": "nonpayable",
      "type": "constructor"
    },
    {
      "inputs": [],
      "name": "getDecimals",
      "outputs": [
        {
          "internalType": "uint8",
          "name": "",
          "type": "uint8"
        }
      ],
      "stateMutability": "view",
      "type": "function"
    },
    {
      "inputs": [],
      "name": "getPrice_1e12",
      "outputs": [
        {
          "internalType": "uint256",
          "name": "",
          "type": "uint256"
        }
      ],
      "stateMutability": "view",
      "type": "function"
    }
  ],
  "transactionHash": "0x029b1beee728fd8adee61d10bc8aa5f40ed5791f90d2404b737836aa4725106d",
  "args": [
    "0x0D3Be6710783da0CCAb3353c5d2f4259E4a014dc",
    "0xe1d09E605a9e18065A1B5890Ac68E8439402C38A"
  ],
  "solcInputHash": "a2b283f9ba339a090f7b294daff0e306",
  "bytecode": "0x608060405234801561001057600080fd5b506040516104e53803806104e58339818101604052604081101561003357600080fd5b5080516020909101516001600160a01b0382166100815760405162461bcd60e51b81526004018080602001828103825260218152602001806104a36021913960400191505060405180910390fd5b6001600160a01b0381166100c65760405162461bcd60e51b81526004018080602001828103825260218152602001806104c46021913960400191505060405180910390fd5b600080546001600160a01b039384166001600160a01b031991821617909155600180549290931691161790556103a2806101016000396000f3fe608060405234801561001057600080fd5b50600436106100365760003560e01c8063f0141d841461003b578063f245a92f14610059575b600080fd5b610043610073565b6040805160ff9092168252519081900360200190f35b610061610078565b60408051918252519081900360200190f35b600c90565b600080546040805163501ad8ff60e11b8152905183926001600160a01b03169163a035b1fe916004808301926020929190829003018186803b1580156100bd57600080fd5b505afa1580156100d1573d6000803e3d6000fd5b505050506040513d60208110156100e757600080fd5b50516001546040805163501ad8ff60e11b815290519293506000926001600160a01b039092169163a035b1fe91600480820192602092909190829003018186803b15801561013457600080fd5b505afa158015610148573d6000803e3d6000fd5b505050506040513d602081101561015e57600080fd5b50516001546040805163313ce56760e01b8152905192935061027b926001600160a01b039092169163313ce56791600480820192602092909190829003018186803b1580156101ac57600080fd5b505afa1580156101c0573d6000803e3d6000fd5b505050506040513d60208110156101d657600080fd5b50516000546040805163313ce56760e01b8152905160ff909316600a0a9261027592879284926001600160a01b039092169163313ce56791600480820192602092909190829003018186803b15801561022e57600080fd5b505afa158015610242573d6000803e3d6000fd5b505050506040513d602081101561025857600080fd5b505160ff16600a0a61026f64e8d4a5100088610282565b90610282565b906102e4565b9250505090565b600082610291575060006102de565b8282028284828161029e57fe5b04146102db5760405162461bcd60e51b815260040180806020018281038252602181526020018061034c6021913960400191505060405180910390fd5b90505b92915050565b600080821161033a576040805162461bcd60e51b815260206004820152601a60248201527f536166654d6174683a206469766973696f6e206279207a65726f000000000000604482015290519081900360640190fd5b81838161034357fe5b04939250505056fe536166654d6174683a206d756c7469706c69636174696f6e206f766572666c6f77a2646970667358221220d8ba5e549df9a1ac8b23cf943e5162e71e61f5133bf0d9a3e734d884af85c3bc64736f6c634300060c003346696174546f5573644665656420616464726573732063616e6e6f74206265203043727970746f5573644665656420616464726573732063616e6e6f742062652030",
  "devdoc": {
    "kind": "dev",
    "methods": {},
    "version": 1
  },
  "userdoc": {
    "kind": "user",
    "methods": {},
    "version": 1
  },
  "storageLayout": {
    "storage": [
      {
        "astId": 9441,
        "contract": "contracts/Oracle/OracleBasedCryptoFiatFeed.sol:OracleBasedCryptoFiatFeed",
        "label": "fiatToUsdFeed",
        "offset": 0,
        "slot": "0",
        "type": "t_contract(IPriceFeed)9429"
      },
      {
        "astId": 9443,
        "contract": "contracts/Oracle/OracleBasedCryptoFiatFeed.sol:OracleBasedCryptoFiatFeed",
        "label": "cryptoToUsdFeed",
        "offset": 0,
        "slot": "1",
        "type": "t_contract(IPriceFeed)9429"
      }
    ],
    "types": {
      "t_contract(IPriceFeed)9429": {
        "encoding": "inplace",
        "label": "contract IPriceFeed",
        "numberOfBytes": "20"
      }
    }
  }
}