{
  "address": "0xE3cc94694E43C704548826EaF32D69Dac019c18e",
  "abi": [
    {
      "inputs": [
        {
          "internalType": "address",
          "name": "_fiatToUsdFeedAddress",
          "type": "address"
        },
        {
          "internalType": "address",
          "name": "_cryptoUsdFeedAddress",
          "type": "address"
        }
      ],
      "stateMutability": "nonpayable",
      "type": "constructor"
    },
    {
      "inputs": [],
      "name": "getDecimals",
      "outputs": [
        {
          "internalType": "uint8",
          "name": "",
          "type": "uint8"
        }
      ],
      "stateMutability": "view",
      "type": "function"
    },
    {
      "inputs": [],
      "name": "getPrice_1e12",
      "outputs": [
        {
          "internalType": "uint256",
          "name": "",
          "type": "uint256"
        }
      ],
      "stateMutability": "view",
      "type": "function"
    }
  ],
  "transactionHash": "0x673f4bac51c39f7ea3edf6ceaeb5bde11d1203b159a1ab6165296a34f59a5f6d",
  "args": [
    "0x8e983D1A3AAB2Cae26eF390133f0C3D7832DEd8b",
    "0x5a03ca5353C724970ACD924e12B7090d8cC1C96E"
  ],
  "solcInputHash": "68fe0750ac519c129d171c273f45f672",
  "bytecode": "0x608060405234801561001057600080fd5b506040516104e53803806104e58339818101604052604081101561003357600080fd5b5080516020909101516001600160a01b0382166100815760405162461bcd60e51b81526004018080602001828103825260218152602001806104a36021913960400191505060405180910390fd5b6001600160a01b0381166100c65760405162461bcd60e51b81526004018080602001828103825260218152602001806104c46021913960400191505060405180910390fd5b600080546001600160a01b039384166001600160a01b031991821617909155600180549290931691161790556103a2806101016000396000f3fe608060405234801561001057600080fd5b50600436106100365760003560e01c8063f0141d841461003b578063f245a92f14610059575b600080fd5b610043610073565b6040805160ff9092168252519081900360200190f35b610061610078565b60408051918252519081900360200190f35b600c90565b600080546040805163501ad8ff60e11b8152905183926001600160a01b03169163a035b1fe916004808301926020929190829003018186803b1580156100bd57600080fd5b505afa1580156100d1573d6000803e3d6000fd5b505050506040513d60208110156100e757600080fd5b50516001546040805163501ad8ff60e11b815290519293506000926001600160a01b039092169163a035b1fe91600480820192602092909190829003018186803b15801561013457600080fd5b505afa158015610148573d6000803e3d6000fd5b505050506040513d602081101561015e57600080fd5b50516001546040805163313ce56760e01b8152905192935061027b926001600160a01b039092169163313ce56791600480820192602092909190829003018186803b1580156101ac57600080fd5b505afa1580156101c0573d6000803e3d6000fd5b505050506040513d60208110156101d657600080fd5b50516000546040805163313ce56760e01b8152905160ff909316600a0a9261027592879284926001600160a01b039092169163313ce56791600480820192602092909190829003018186803b15801561022e57600080fd5b505afa158015610242573d6000803e3d6000fd5b505050506040513d602081101561025857600080fd5b505160ff16600a0a61026f64e8d4a5100088610282565b90610282565b906102e4565b9250505090565b600082610291575060006102de565b8282028284828161029e57fe5b04146102db5760405162461bcd60e51b815260040180806020018281038252602181526020018061034c6021913960400191505060405180910390fd5b90505b92915050565b600080821161033a576040805162461bcd60e51b815260206004820152601a60248201527f536166654d6174683a206469766973696f6e206279207a65726f000000000000604482015290519081900360640190fd5b81838161034357fe5b04939250505056fe536166654d6174683a206d756c7469706c69636174696f6e206f766572666c6f77a2646970667358221220bc31cca78208b7d7a1f501ce76333625aae00ab9f2badc4b2bf8e8974cfa468164736f6c634300060c003346696174546f5573644665656420616464726573732063616e6e6f74206265203043727970746f5573644665656420616464726573732063616e6e6f742062652030",
  "devdoc": {
    "kind": "dev",
    "methods": {},
    "version": 1
  },
  "userdoc": {
    "kind": "user",
    "methods": {},
    "version": 1
  },
  "storageLayout": {
    "storage": [
      {
        "astId": 9430,
        "contract": "contracts/Oracle/OracleBasedCryptoFiatFeed.sol:OracleBasedCryptoFiatFeed",
        "label": "fiatToUsdFeed",
        "offset": 0,
        "slot": "0",
        "type": "t_contract(IPriceFeed)9418"
      },
      {
        "astId": 9432,
        "contract": "contracts/Oracle/OracleBasedCryptoFiatFeed.sol:OracleBasedCryptoFiatFeed",
        "label": "cryptoToUsdFeed",
        "offset": 0,
        "slot": "1",
        "type": "t_contract(IPriceFeed)9418"
      }
    ],
    "types": {
      "t_contract(IPriceFeed)9418": {
        "encoding": "inplace",
        "label": "contract IPriceFeed",
        "numberOfBytes": "20"
      }
    }
  }
}