{
  "address": "0x027F19941c79b01a7e977aB5db0894314e663c38",
  "abi": [
    {
      "inputs": [
        {
          "internalType": "address",
          "name": "_fiatToUsdFeedAddress",
          "type": "address"
        },
        {
          "internalType": "address",
          "name": "_cryptUsdFeedAddress",
          "type": "address"
        }
      ],
      "stateMutability": "nonpayable",
      "type": "constructor"
    },
    {
      "inputs": [],
      "name": "getDecimals",
      "outputs": [
        {
          "internalType": "uint8",
          "name": "",
          "type": "uint8"
        }
      ],
      "stateMutability": "view",
      "type": "function"
    },
    {
      "inputs": [],
      "name": "getPrice_1e12",
      "outputs": [
        {
          "internalType": "uint256",
          "name": "",
          "type": "uint256"
        }
      ],
      "stateMutability": "view",
      "type": "function"
    }
  ],
  "transactionHash": "0x2d59a96302647d4638b23ca720b6c1da3a210210696cc9715b8cb5d8ba095284",
  "args": [
    "0xc53475A105Bb6A03DCb76Bea898B46379593BAe2",
    "0x798A271E3966156515BCc947d26f736E8580A436"
  ],
  "solcInputHash": "964b643a9886544e5729090027eb9ffb",
  "bytecode": "0x608060405234801561001057600080fd5b506040516105143803806105148339818101604052604081101561003357600080fd5b508051602090910151600080546001600160a01b039384166001600160a01b0319918216179091556001805493909216921691909117905561049a8061007a6000396000f3fe608060405234801561001057600080fd5b50600436106100365760003560e01c8063f0141d841461003b578063f245a92f14610059575b600080fd5b610043610073565b6040805160ff9092168252519081900360200190f35b61006161015e565b60408051918252519081900360200190f35b6001546040805163313ce56760e01b815290516000926001600160a01b03169163313ce567916004808301926020929190829003018186803b1580156100b857600080fd5b505afa1580156100cc573d6000803e3d6000fd5b505050506040513d60208110156100e257600080fd5b50516000546040805163313ce56760e01b815290516001600160a01b039092169163313ce56791600480820192602092909190829003018186803b15801561012957600080fd5b505afa15801561013d573d6000803e3d6000fd5b505050506040513d602081101561015357600080fd5b505103600c01905090565b600080546040805163501ad8ff60e11b8152905183926001600160a01b03169163a035b1fe916004808301926020929190829003018186803b1580156101a357600080fd5b505afa1580156101b7573d6000803e3d6000fd5b505050506040513d60208110156101cd57600080fd5b50516001546040805163501ad8ff60e11b815290519293506000926001600160a01b039092169163a035b1fe91600480820192602092909190829003018186803b15801561021a57600080fd5b505afa15801561022e573d6000803e3d6000fd5b505050506040513d602081101561024457600080fd5b50516001546040805163313ce56760e01b81529051929350610373926001600160a01b039092169163313ce56791600480820192602092909190829003018186803b15801561029257600080fd5b505afa1580156102a6573d6000803e3d6000fd5b505050506040513d60208110156102bc57600080fd5b50516000546040805163313ce56760e01b8152905160ff909316600a0a9261036792879284926001600160a01b039092169163313ce56791600480820192602092909190829003018186803b15801561031457600080fd5b505afa158015610328573d6000803e3d6000fd5b505050506040513d602081101561033e57600080fd5b505160ff16600a0a61035b64e8d4a510008863ffffffff61037a16565b9063ffffffff61037a16565b9063ffffffff6103dc16565b9250505090565b600082610389575060006103d6565b8282028284828161039657fe5b04146103d35760405162461bcd60e51b81526004018080602001828103825260218152602001806104446021913960400191505060405180910390fd5b90505b92915050565b6000808211610432576040805162461bcd60e51b815260206004820152601a60248201527f536166654d6174683a206469766973696f6e206279207a65726f000000000000604482015290519081900360640190fd5b81838161043b57fe5b04939250505056fe536166654d6174683a206d756c7469706c69636174696f6e206f766572666c6f77a26469706673582212200071cf7b541d24c3ce8c4a2990a0da6d0a7cf3c38a35c263247c06c88464065d64736f6c634300060b0033",
  "devdoc": {
    "kind": "dev",
    "methods": {},
    "version": 1
  },
  "userdoc": {
    "kind": "user",
    "methods": {},
    "version": 1
  },
  "storageLayout": {
    "storage": [
      {
        "astId": 9515,
        "contract": "contracts/Oracle/OracleBasedCryptoFiatFeed.sol:OracleBasedCryptoFiatFeed",
        "label": "fiatToUsdFeed",
        "offset": 0,
        "slot": "0",
        "type": "t_contract(IPriceFeed)9430"
      },
      {
        "astId": 9517,
        "contract": "contracts/Oracle/OracleBasedCryptoFiatFeed.sol:OracleBasedCryptoFiatFeed",
        "label": "cryptoToUsdFeed",
        "offset": 0,
        "slot": "1",
        "type": "t_contract(IPriceFeed)9430"
      }
    ],
    "types": {
      "t_contract(IPriceFeed)9430": {
        "encoding": "inplace",
        "label": "contract IPriceFeed",
        "numberOfBytes": "20"
      }
    }
  }
}