{
  "address": "0x798319b2e00177197a82074c3B770E2980C524bC",
  "abi": [
    {
      "inputs": [
        {
          "internalType": "address",
          "name": "_sovrynConverterAddress",
          "type": "address"
        },
        {
          "internalType": "address",
          "name": "_tokenSource",
          "type": "address"
        },
        {
          "internalType": "address",
          "name": "_tokenTarget",
          "type": "address"
        }
      ],
      "stateMutability": "nonpayable",
      "type": "constructor"
    },
    {
      "inputs": [
        {
          "internalType": "address",
          "name": "tokenIn",
          "type": "address"
        },
        {
          "internalType": "uint256",
          "name": "amountIn",
          "type": "uint256"
        }
      ],
      "name": "consult",
      "outputs": [
        {
          "internalType": "uint256",
          "name": "",
          "type": "uint256"
        }
      ],
      "stateMutability": "view",
      "type": "function"
    },
    {
      "inputs": [],
      "name": "decimals",
      "outputs": [
        {
          "internalType": "uint8",
          "name": "",
          "type": "uint8"
        }
      ],
      "stateMutability": "view",
      "type": "function"
    },
    {
      "inputs": [],
      "name": "price",
      "outputs": [
        {
          "internalType": "uint256",
          "name": "",
          "type": "uint256"
        }
      ],
      "stateMutability": "view",
      "type": "function"
    },
    {
      "inputs": [],
      "name": "shouldUpdateOracle",
      "outputs": [
        {
          "internalType": "bool",
          "name": "",
          "type": "bool"
        }
      ],
      "stateMutability": "view",
      "type": "function"
    },
    {
      "inputs": [],
      "name": "sovrynConverter",
      "outputs": [
        {
          "internalType": "contract ISovrynLiquidityPoolV1Converter",
          "name": "",
          "type": "address"
        }
      ],
      "stateMutability": "view",
      "type": "function"
    },
    {
      "inputs": [],
      "name": "tokenSource",
      "outputs": [
        {
          "internalType": "address",
          "name": "",
          "type": "address"
        }
      ],
      "stateMutability": "view",
      "type": "function"
    },
    {
      "inputs": [],
      "name": "tokenTarget",
      "outputs": [
        {
          "internalType": "address",
          "name": "",
          "type": "address"
        }
      ],
      "stateMutability": "view",
      "type": "function"
    },
    {
      "inputs": [],
      "name": "updateOracle",
      "outputs": [],
      "stateMutability": "nonpayable",
      "type": "function"
    },
    {
      "inputs": [],
      "name": "when_should_update_oracle_in_seconds",
      "outputs": [
        {
          "internalType": "uint256",
          "name": "",
          "type": "uint256"
        }
      ],
      "stateMutability": "view",
      "type": "function"
    }
  ],
  "transactionHash": "0xe66c756f07d10e6a70e94e19074502bd09ee62bc475e686e6ae120bf123eb3bb",
  "args": [
    "0x448c2474b255576554eed36c24430ccfac131ce3",
    "0x542fda317318ebf1d3deaf76e0b632741a7e677d",
    "0xef213441a85df4d7acbdae0cf78004e1e486bb96"
  ],
  "solcInputHash": "d430163ce9b4dd5ca2a600e2360fe631",
  "bytecode": "0x608060405234801561001057600080fd5b506040516104af3803806104af8339818101604052606081101561003357600080fd5b5080516020820151604090920151600080546001600160a01b039384166001600160a01b03199182161790915560018054948416948216949094179093556002805492909116919092161790556104208061008f6000396000f3fe608060405234801561001057600080fd5b50600436106100935760003560e01c8063782e1e6c11610066578063782e1e6c146101185780638cec13b81461013c578063a035b1fe14610144578063af1d0d611461014c578063d6f124f01461015457610093565b806309bf39ed146100985780630ccec97a146100b4578063313ce567146100ce5780633ddac953146100ec575b600080fd5b6100a061015e565b604080519115158252519081900360200190f35b6100bc610163565b60408051918252519081900360200190f35b6100d6610169565b6040805160ff9092168252519081900360200190f35b6100bc6004803603604081101561010257600080fd5b506001600160a01b03813516906020013561016e565b610120610270565b604080516001600160a01b039092168252519081900360200190f35b61012061027f565b6100bc61028e565b610120610342565b61015c610351565b005b600090565b60001990565b600c90565b6001546000906001600160a01b038481169116146101bd5760405162461bcd60e51b81526004018080602001828103825260368152602001806103b56036913960400191505060405180910390fd5b60008054600154600254604080516315f2971b60e31b81526001600160a01b03938416600482015291831660248301526044820187905280518594939093169263af94b8d8926064808201939291829003018186803b15801561021f57600080fd5b505afa158015610233573d6000803e3d6000fd5b505050506040513d604081101561024957600080fd5b5080516020909101519092509050610267828263ffffffff61035316565b95945050505050565b6002546001600160a01b031681565b6001546001600160a01b031681565b60008054600154600254604080516315f2971b60e31b81526001600160a01b039384166004820152918316602483015264e8d4a510006044830152805185948594169263af94b8d8926064808301939192829003018186803b1580156102f357600080fd5b505afa158015610307573d6000803e3d6000fd5b505050506040513d604081101561031d57600080fd5b508051602090910151909250905061033b828263ffffffff61035316565b9250505090565b6000546001600160a01b031681565b565b6000828201838110156103ad576040805162461bcd60e51b815260206004820152601b60248201527f536166654d6174683a206164646974696f6e206f766572666c6f770000000000604482015290519081900360640190fd5b939250505056fe54686973206f7261636c65206f6e6c79206163636570747320636f6e73756c74696e6720736f7572636520746f6b656e20696e707574a2646970667358221220daa4ee7284ba9862211168b34296e199ff0ff49e6370c6372f6b724001a34b4f64736f6c634300060b0033",
  "devdoc": {
    "kind": "dev",
    "methods": {},
    "version": 1
  },
  "userdoc": {
    "kind": "user",
    "methods": {},
    "version": 1
  },
  "storageLayout": {
    "storage": [
      {
        "astId": 9617,
        "contract": "contracts/Oracle/SovrynSwapPriceFeed.sol:SovrynSwapPriceFeed",
        "label": "sovrynConverter",
        "offset": 0,
        "slot": "0",
        "type": "t_contract(ISovrynLiquidityPoolV1Converter)18871"
      },
      {
        "astId": 9619,
        "contract": "contracts/Oracle/SovrynSwapPriceFeed.sol:SovrynSwapPriceFeed",
        "label": "tokenSource",
        "offset": 0,
        "slot": "1",
        "type": "t_address"
      },
      {
        "astId": 9621,
        "contract": "contracts/Oracle/SovrynSwapPriceFeed.sol:SovrynSwapPriceFeed",
        "label": "tokenTarget",
        "offset": 0,
        "slot": "2",
        "type": "t_address"
      }
    ],
    "types": {
      "t_address": {
        "encoding": "inplace",
        "label": "address",
        "numberOfBytes": "20"
      },
      "t_contract(ISovrynLiquidityPoolV1Converter)18871": {
        "encoding": "inplace",
        "label": "contract ISovrynLiquidityPoolV1Converter",
        "numberOfBytes": "20"
      }
    }
  }
}