{
  "address": "0x5420e086202aCD4659A9888bB0907cD2bE55fdbE",
  "abi": [
    {
      "inputs": [
        {
          "internalType": "address",
          "name": "_sovrynConverterAddress",
          "type": "address"
        },
        {
          "internalType": "address",
          "name": "_tokenSource",
          "type": "address"
        },
        {
          "internalType": "address",
          "name": "_tokenTarget",
          "type": "address"
        },
        {
          "internalType": "uint256",
          "name": "_priceDisparityTolerance_d12",
          "type": "uint256"
        },
        {
          "internalType": "address",
          "name": "_updater",
          "type": "address"
        },
        {
          "internalType": "uint256",
          "name": "_timeBeforeShouldUpdate",
          "type": "uint256"
        },
        {
          "internalType": "uint256",
          "name": "_timeBeforeMustUpdate",
          "type": "uint256"
        }
      ],
      "stateMutability": "nonpayable",
      "type": "constructor"
    },
    {
      "anonymous": false,
      "inputs": [
        {
          "indexed": true,
          "internalType": "address",
          "name": "previousOwner",
          "type": "address"
        },
        {
          "indexed": true,
          "internalType": "address",
          "name": "newOwner",
          "type": "address"
        }
      ],
      "name": "OwnershipTransferred",
      "type": "event"
    },
    {
      "anonymous": false,
      "inputs": [
        {
          "indexed": true,
          "internalType": "uint256",
          "name": "newPrice",
          "type": "uint256"
        }
      ],
      "name": "PriceChanged",
      "type": "event"
    },
    {
      "anonymous": false,
      "inputs": [
        {
          "indexed": true,
          "internalType": "address",
          "name": "oldUpdater",
          "type": "address"
        },
        {
          "indexed": true,
          "internalType": "address",
          "name": "newUpdater",
          "type": "address"
        }
      ],
      "name": "UpdaterChanged",
      "type": "event"
    },
    {
      "inputs": [
        {
          "internalType": "address",
          "name": "tokenIn",
          "type": "address"
        },
        {
          "internalType": "uint256",
          "name": "amountIn",
          "type": "uint256"
        }
      ],
      "name": "consult",
      "outputs": [
        {
          "internalType": "uint256",
          "name": "",
          "type": "uint256"
        }
      ],
      "stateMutability": "view",
      "type": "function"
    },
    {
      "inputs": [],
      "name": "decimals",
      "outputs": [
        {
          "internalType": "uint8",
          "name": "",
          "type": "uint8"
        }
      ],
      "stateMutability": "view",
      "type": "function"
    },
    {
      "inputs": [],
      "name": "owner",
      "outputs": [
        {
          "internalType": "address",
          "name": "",
          "type": "address"
        }
      ],
      "stateMutability": "view",
      "type": "function"
    },
    {
      "inputs": [],
      "name": "price",
      "outputs": [
        {
          "internalType": "uint256",
          "name": "",
          "type": "uint256"
        }
      ],
      "stateMutability": "view",
      "type": "function"
    },
    {
      "inputs": [],
      "name": "renounceOwnership",
      "outputs": [],
      "stateMutability": "nonpayable",
      "type": "function"
    },
    {
      "inputs": [
        {
          "internalType": "uint256",
          "name": "_priceDisparityTolerance_d12",
          "type": "uint256"
        }
      ],
      "name": "setPriceDisparityTolerance_d12",
      "outputs": [],
      "stateMutability": "nonpayable",
      "type": "function"
    },
    {
      "inputs": [
        {
          "internalType": "uint256",
          "name": "_timeBeforeMustUpdate",
          "type": "uint256"
        }
      ],
      "name": "setTimeBeforeMustUpdate",
      "outputs": [],
      "stateMutability": "nonpayable",
      "type": "function"
    },
    {
      "inputs": [
        {
          "internalType": "uint256",
          "name": "_timeBeforeShouldUpdate",
          "type": "uint256"
        }
      ],
      "name": "setTimeBeforeShouldUpdate",
      "outputs": [],
      "stateMutability": "nonpayable",
      "type": "function"
    },
    {
      "inputs": [
        {
          "internalType": "address",
          "name": "newUpdater",
          "type": "address"
        }
      ],
      "name": "setUpdater",
      "outputs": [],
      "stateMutability": "nonpayable",
      "type": "function"
    },
    {
      "inputs": [],
      "name": "shouldUpdateOracle",
      "outputs": [
        {
          "internalType": "bool",
          "name": "",
          "type": "bool"
        }
      ],
      "stateMutability": "view",
      "type": "function"
    },
    {
      "inputs": [],
      "name": "sovrynConverter",
      "outputs": [
        {
          "internalType": "contract ISovrynLiquidityPoolV1Converter",
          "name": "",
          "type": "address"
        }
      ],
      "stateMutability": "view",
      "type": "function"
    },
    {
      "inputs": [],
      "name": "tokenSource",
      "outputs": [
        {
          "internalType": "address",
          "name": "",
          "type": "address"
        }
      ],
      "stateMutability": "view",
      "type": "function"
    },
    {
      "inputs": [],
      "name": "tokenTarget",
      "outputs": [
        {
          "internalType": "address",
          "name": "",
          "type": "address"
        }
      ],
      "stateMutability": "view",
      "type": "function"
    },
    {
      "inputs": [
        {
          "internalType": "address",
          "name": "newOwner",
          "type": "address"
        }
      ],
      "name": "transferOwnership",
      "outputs": [],
      "stateMutability": "nonpayable",
      "type": "function"
    },
    {
      "inputs": [],
      "name": "updateOracle",
      "outputs": [],
      "stateMutability": "nonpayable",
      "type": "function"
    },
    {
      "inputs": [
        {
          "internalType": "uint256",
          "name": "verificationPrice_d12",
          "type": "uint256"
        }
      ],
      "name": "updateOracleWithVerification",
      "outputs": [],
      "stateMutability": "nonpayable",
      "type": "function"
    },
    {
      "inputs": [],
      "name": "updater",
      "outputs": [
        {
          "internalType": "address",
          "name": "",
          "type": "address"
        }
      ],
      "stateMutability": "view",
      "type": "function"
    },
    {
      "inputs": [],
      "name": "when_should_update_oracle_in_seconds",
      "outputs": [
        {
          "internalType": "uint256",
          "name": "",
          "type": "uint256"
        }
      ],
      "stateMutability": "view",
      "type": "function"
    }
  ],
  "transactionHash": "0x384654088f2f35035525fde7dd74ce1e264b93f3b75284ae28a06a7158988490",
  "args": [
    "0x029448377a56c15928ec783baf6ca736ed99a57f",
    "0x542fda317318ebf1d3deaf76e0b632741a7e677d",
    "0xb5999795be0ebb5bab23144aa5fd6a02d080299f",
    1000000000000,
    "0x9C385013670F34256450ABA0ba7bd1B36eF02326",
    600,
    1200
  ],
  "solcInputHash": "cd8720e2909469f7fade4e9f8329e216",
  "bytecode": "0x608060405234801561001057600080fd5b50604051610e95380380610e95833981810160405260e081101561003357600080fd5b508051602082015160408301516060840151608085015160a086015160c0909601519495939492939192909190600061006a610117565b600080546001600160a01b0319166001600160a01b0383169081178255604051929350917f8be0079c531659141344cd1fd0a4f28419497f9722a3daafe3b4186f6b6457e0908290a350600180546001600160a01b039889166001600160a01b03199182161790915560028054978916978216979097179096556003805495881695871695909517909455600492909255600580549190951693169290921790925560065560075561011b565b3390565b610d6b8061012a6000396000f3fe608060405234801561001057600080fd5b50600436106101155760003560e01c80638cec13b8116100a2578063af1d0d6111610071578063af1d0d611461025d578063cd23f58614610265578063d6f124f014610282578063df034cd01461028a578063f2fde38b1461029257610115565b80638cec13b81461021f5780638da5cb5b146102275780639d54f4191461022f578063a035b1fe1461025557610115565b80633ddac953116100e95780633ddac9531461018d5780633f55dfe4146101b95780636e1b193c146101d6578063715018a6146101f3578063782e1e6c146101fb57610115565b80620f1d321461011a57806309bf39ed146101395780630ccec97a14610155578063313ce5671461016f575b600080fd5b6101376004803603602081101561013057600080fd5b50356102b8565b005b61014161031f565b604080519115158252519081900360200190f35b61015d61033f565b60408051918252519081900360200190f35b610177610379565b6040805160ff9092168252519081900360200190f35b61015d600480360360408110156101a357600080fd5b506001600160a01b03813516906020013561037e565b610137600480360360208110156101cf57600080fd5b50356104ab565b610137600480360360208110156101ec57600080fd5b5035610672565b6101376106d9565b610203610785565b604080516001600160a01b039092168252519081900360200190f35b610203610794565b6102036107a3565b6101376004803603602081101561024557600080fd5b50356001600160a01b03166107b2565b61015d6108ad565b61020361096b565b6101376004803603602081101561027b57600080fd5b503561097a565b6101376109e1565b6102036109e3565b610137600480360360208110156102a857600080fd5b50356001600160a01b03166109f2565b6102c0610af4565b6001600160a01b03166102d16107a3565b6001600160a01b03161461031a576040805162461bcd60e51b81526020600482018190526024820152600080516020610ce0833981519152604482015290519081900360640190fd5b600655565b6000610338600654600854610af890919063ffffffff16565b4211905090565b600080610359600654600854610af890919063ffffffff16565b9050804210610369576000610373565b6103738142610b52565b91505090565b600c90565b6002546000906001600160a01b038481169116146103cd5760405162461bcd60e51b8152600401808060200182810382526036815260200180610d006036913960400191505060405180910390fd5b60095461041c576040805162461bcd60e51b815260206004820152601860248201527713dc9858db19481b9bdd081e595d081a5b9a5d1a585d195960421b604482015290519081900360640190fd5b60075460085461042b91610af8565b421061047e576040805162461bcd60e51b815260206004820152601d60248201527f5072696365206973207374616c652e20557064617465206f7261636c65000000604482015290519081900360640190fd5b6104a264e8d4a5100061049c84600954610baf90919063ffffffff16565b90610c08565b90505b92915050565b6005546001600160a01b031633146104ff576040805162461bcd60e51b81526020600482015260126024820152712cb7ba93b932903737ba103ab83230ba32b960711b604482015290519081900360640190fd5b600154600254600354604080516315f2971b60e31b81526001600160a01b039384166004820152918316602483015264e8d4a51000604483015280516000948594169263af94b8d8926064808301939192829003018186803b15801561056457600080fd5b505afa158015610578573d6000803e3d6000fd5b505050506040513d604081101561058e57600080fd5b508051602090910151909250905060006105a88383610af8565b905060008185116105c2576105bd8286610b52565b6105cc565b6105cc8583610b52565b6004549091506105e58361049c8464e8d4a51000610baf565b10610637576040805162461bcd60e51b815260206004820152601760248201527f50726963652064697370617269747920746f6f20626967000000000000000000604482015290519081900360640190fd5b60098290554260085560405182907fa6dc15bdb68da224c66db4b3838d9a2b205138e8cff6774e57d0af91e196d62290600090a25050505050565b61067a610af4565b6001600160a01b031661068b6107a3565b6001600160a01b0316146106d4576040805162461bcd60e51b81526020600482018190526024820152600080516020610ce0833981519152604482015290519081900360640190fd5b600455565b6106e1610af4565b6001600160a01b03166106f26107a3565b6001600160a01b03161461073b576040805162461bcd60e51b81526020600482018190526024820152600080516020610ce0833981519152604482015290519081900360640190fd5b600080546040516001600160a01b03909116907f8be0079c531659141344cd1fd0a4f28419497f9722a3daafe3b4186f6b6457e0908390a3600080546001600160a01b0319169055565b6003546001600160a01b031681565b6002546001600160a01b031681565b6000546001600160a01b031690565b6107ba610af4565b6001600160a01b03166107cb6107a3565b6001600160a01b031614610814576040805162461bcd60e51b81526020600482018190526024820152600080516020610ce0833981519152604482015290519081900360640190fd5b6001600160a01b0381166108595760405162461bcd60e51b8152600401808060200182810382526029815260200180610c966029913960400191505060405180910390fd5b600580546001600160a01b038381166001600160a01b03198316179283905560405191811692169082907f662a4a4a892f5f13cf7ee050fdaa045f8641601fdbc843e8a71f418099cacd4e90600090a35050565b600060095460001415610902576040805162461bcd60e51b815260206004820152601860248201527713dc9858db19481b9bdd081e595d081a5b9a5d1a585d195960421b604482015290519081900360640190fd5b60075460085461091191610af8565b4210610964576040805162461bcd60e51b815260206004820152601d60248201527f5072696365206973207374616c652e20557064617465206f7261636c65000000604482015290519081900360640190fd5b5060095490565b6001546001600160a01b031681565b610982610af4565b6001600160a01b03166109936107a3565b6001600160a01b0316146109dc576040805162461bcd60e51b81526020600482018190526024820152600080516020610ce0833981519152604482015290519081900360640190fd5b600755565b565b6005546001600160a01b031681565b6109fa610af4565b6001600160a01b0316610a0b6107a3565b6001600160a01b031614610a54576040805162461bcd60e51b81526020600482018190526024820152600080516020610ce0833981519152604482015290519081900360640190fd5b6001600160a01b038116610a995760405162461bcd60e51b8152600401808060200182810382526026815260200180610c706026913960400191505060405180910390fd5b600080546040516001600160a01b03808516939216917f8be0079c531659141344cd1fd0a4f28419497f9722a3daafe3b4186f6b6457e091a3600080546001600160a01b0319166001600160a01b0392909216919091179055565b3390565b6000828201838110156104a2576040805162461bcd60e51b815260206004820152601b60248201527f536166654d6174683a206164646974696f6e206f766572666c6f770000000000604482015290519081900360640190fd5b600082821115610ba9576040805162461bcd60e51b815260206004820152601e60248201527f536166654d6174683a207375627472616374696f6e206f766572666c6f770000604482015290519081900360640190fd5b50900390565b600082610bbe575060006104a5565b82820282848281610bcb57fe5b04146104a25760405162461bcd60e51b8152600401808060200182810382526021815260200180610cbf6021913960400191505060405180910390fd5b6000808211610c5e576040805162461bcd60e51b815260206004820152601a60248201527f536166654d6174683a206469766973696f6e206279207a65726f000000000000604482015290519081900360640190fd5b818381610c6757fe5b04939250505056fe4f776e61626c653a206e6577206f776e657220697320746865207a65726f2061646472657373557064617465722063616e6e6f742062652073657420746f20746865207a65726f2061646472657373536166654d6174683a206d756c7469706c69636174696f6e206f766572666c6f774f776e61626c653a2063616c6c6572206973206e6f7420746865206f776e657254686973206f7261636c65206f6e6c79206163636570747320636f6e73756c74696e6720736f7572636520746f6b656e20696e707574a2646970667358221220a64b03a87ca33caa75d6622b9c567a6114b579cf4d2f6a4609d04c5a1a68114e64736f6c634300060c0033",
  "devdoc": {
    "kind": "dev",
    "methods": {
      "owner()": {
        "details": "Returns the address of the current owner."
      },
      "renounceOwnership()": {
        "details": "Leaves the contract without owner. It will not be possible to call `onlyOwner` functions anymore. Can only be called by the current owner. NOTE: Renouncing ownership will leave the contract without an owner, thereby removing any functionality that is only available to the owner."
      },
      "transferOwnership(address)": {
        "details": "Transfers ownership of the contract to a new account (`newOwner`). Can only be called by the current owner."
      }
    },
    "version": 1
  },
  "userdoc": {
    "kind": "user",
    "methods": {},
    "version": 1
  },
  "storageLayout": {
    "storage": [
      {
        "astId": 1782,
        "contract": "contracts/Oracle/SovrynSwapPriceFeed.sol:SovrynSwapPriceFeed",
        "label": "_owner",
        "offset": 0,
        "slot": "0",
        "type": "t_address"
      },
      {
        "astId": 9413,
        "contract": "contracts/Oracle/SovrynSwapPriceFeed.sol:SovrynSwapPriceFeed",
        "label": "sovrynConverter",
        "offset": 0,
        "slot": "1",
        "type": "t_contract(ISovrynLiquidityPoolV1Converter)12958"
      },
      {
        "astId": 9415,
        "contract": "contracts/Oracle/SovrynSwapPriceFeed.sol:SovrynSwapPriceFeed",
        "label": "tokenSource",
        "offset": 0,
        "slot": "2",
        "type": "t_address"
      },
      {
        "astId": 9417,
        "contract": "contracts/Oracle/SovrynSwapPriceFeed.sol:SovrynSwapPriceFeed",
        "label": "tokenTarget",
        "offset": 0,
        "slot": "3",
        "type": "t_address"
      },
      {
        "astId": 9419,
        "contract": "contracts/Oracle/SovrynSwapPriceFeed.sol:SovrynSwapPriceFeed",
        "label": "priceDisparityTolerance_d12",
        "offset": 0,
        "slot": "4",
        "type": "t_uint256"
      },
      {
        "astId": 9421,
        "contract": "contracts/Oracle/SovrynSwapPriceFeed.sol:SovrynSwapPriceFeed",
        "label": "updater",
        "offset": 0,
        "slot": "5",
        "type": "t_address"
      },
      {
        "astId": 9423,
        "contract": "contracts/Oracle/SovrynSwapPriceFeed.sol:SovrynSwapPriceFeed",
        "label": "timeBeforeShouldUpdate",
        "offset": 0,
        "slot": "6",
        "type": "t_uint256"
      },
      {
        "astId": 9425,
        "contract": "contracts/Oracle/SovrynSwapPriceFeed.sol:SovrynSwapPriceFeed",
        "label": "timeBeforeMustUpdate",
        "offset": 0,
        "slot": "7",
        "type": "t_uint256"
      },
      {
        "astId": 9427,
        "contract": "contracts/Oracle/SovrynSwapPriceFeed.sol:SovrynSwapPriceFeed",
        "label": "updateTimestamp",
        "offset": 0,
        "slot": "8",
        "type": "t_uint256"
      },
      {
        "astId": 9429,
        "contract": "contracts/Oracle/SovrynSwapPriceFeed.sol:SovrynSwapPriceFeed",
        "label": "oraclePrice",
        "offset": 0,
        "slot": "9",
        "type": "t_uint256"
      }
    ],
    "types": {
      "t_address": {
        "encoding": "inplace",
        "label": "address",
        "numberOfBytes": "20"
      },
      "t_contract(ISovrynLiquidityPoolV1Converter)12958": {
        "encoding": "inplace",
        "label": "contract ISovrynLiquidityPoolV1Converter",
        "numberOfBytes": "20"
      },
      "t_uint256": {
        "encoding": "inplace",
        "label": "uint256",
        "numberOfBytes": "32"
      }
    }
  }
}