{
  "address": "0x11F2237a8fc960D1a22cC346CEFcD88B6c14FE11",
  "abi": [
    {
      "inputs": [
        {
          "internalType": "address",
          "name": "_updater",
          "type": "address"
        },
        {
          "internalType": "uint256",
          "name": "_recentPrice",
          "type": "uint256"
        }
      ],
      "stateMutability": "nonpayable",
      "type": "constructor"
    },
    {
      "anonymous": false,
      "inputs": [
        {
          "indexed": true,
          "internalType": "uint256",
          "name": "newMaxDayChange_d12",
          "type": "uint256"
        }
      ],
      "name": "MaxDayChangeChanged",
      "type": "event"
    },
    {
      "anonymous": false,
      "inputs": [
        {
          "indexed": true,
          "internalType": "address",
          "name": "previousOwner",
          "type": "address"
        },
        {
          "indexed": true,
          "internalType": "address",
          "name": "newOwner",
          "type": "address"
        }
      ],
      "name": "OwnershipTransferred",
      "type": "event"
    },
    {
      "anonymous": false,
      "inputs": [
        {
          "indexed": true,
          "internalType": "uint256",
          "name": "newPrice",
          "type": "uint256"
        }
      ],
      "name": "PriceChanged",
      "type": "event"
    },
    {
      "anonymous": false,
      "inputs": [
        {
          "indexed": true,
          "internalType": "address",
          "name": "oldUpdater",
          "type": "address"
        },
        {
          "indexed": true,
          "internalType": "address",
          "name": "newUpdater",
          "type": "address"
        }
      ],
      "name": "UpdaterChanged",
      "type": "event"
    },
    {
      "inputs": [],
      "name": "decimals",
      "outputs": [
        {
          "internalType": "uint8",
          "name": "",
          "type": "uint8"
        }
      ],
      "stateMutability": "pure",
      "type": "function"
    },
    {
      "inputs": [],
      "name": "lastUpdateTimestamp",
      "outputs": [
        {
          "internalType": "uint256",
          "name": "",
          "type": "uint256"
        }
      ],
      "stateMutability": "view",
      "type": "function"
    },
    {
      "inputs": [],
      "name": "maxDayChange_d12",
      "outputs": [
        {
          "internalType": "uint256",
          "name": "",
          "type": "uint256"
        }
      ],
      "stateMutability": "view",
      "type": "function"
    },
    {
      "inputs": [],
      "name": "owner",
      "outputs": [
        {
          "internalType": "address",
          "name": "",
          "type": "address"
        }
      ],
      "stateMutability": "view",
      "type": "function"
    },
    {
      "inputs": [],
      "name": "price",
      "outputs": [
        {
          "internalType": "uint256",
          "name": "",
          "type": "uint256"
        }
      ],
      "stateMutability": "view",
      "type": "function"
    },
    {
      "inputs": [],
      "name": "renounceOwnership",
      "outputs": [],
      "stateMutability": "nonpayable",
      "type": "function"
    },
    {
      "inputs": [
        {
          "internalType": "uint256",
          "name": "_maxDayChange_d12",
          "type": "uint256"
        }
      ],
      "name": "setMaxDayChange_d12",
      "outputs": [],
      "stateMutability": "nonpayable",
      "type": "function"
    },
    {
      "inputs": [
        {
          "internalType": "uint256",
          "name": "_price",
          "type": "uint256"
        }
      ],
      "name": "setPrice",
      "outputs": [],
      "stateMutability": "nonpayable",
      "type": "function"
    },
    {
      "inputs": [
        {
          "internalType": "address",
          "name": "newUpdater",
          "type": "address"
        }
      ],
      "name": "setUpdater",
      "outputs": [],
      "stateMutability": "nonpayable",
      "type": "function"
    },
    {
      "inputs": [
        {
          "internalType": "address",
          "name": "newOwner",
          "type": "address"
        }
      ],
      "name": "transferOwnership",
      "outputs": [],
      "stateMutability": "nonpayable",
      "type": "function"
    }
  ],
  "transactionHash": "0xcd403199d4e02e2d298a7d39b354916580b8fafa9ad4b8e7e45314ea6806c9b8",
  "args": [
    "0x2A119532248d0E4Ff68A42bB37f64336C3F20872",
    "1922780000000000"
  ],
  "solcInputHash": "5a0c977d732c918ce49ef0ea74613e22",
  "bytecode": "0x608060405264174876e80060035534801561001957600080fd5b506040516107b33803806107b383398101604081905261003891610118565b610041336100c8565b6001600160a01b03821661009b5760405162461bcd60e51b815260206004820152601b60248201527f5570646174657220616464726573732063616e6e6f7420626520300000000000604482015260640160405180910390fd5b600480546001600160a01b0319166001600160a01b03939093169290921790915560015542600255610152565b600080546001600160a01b038381166001600160a01b0319831681178455604051919092169283917f8be0079c531659141344cd1fd0a4f28419497f9722a3daafe3b4186f6b6457e09190a35050565b6000806040838503121561012b57600080fd5b82516001600160a01b038116811461014257600080fd5b6020939093015192949293505050565b610652806101616000396000f3fe608060405234801561001057600080fd5b506004361061009e5760003560e01c806391b7f5ed1161006657806391b7f5ed146100fc5780639831fbc11461010f5780639d54f41914610122578063a035b1fe14610135578063f2fde38b1461013d57600080fd5b806314bcec9f146100a3578063313ce567146100bf57806368742e0e146100ce578063715018a6146100d75780638da5cb5b146100e1575b600080fd5b6100ac60025481565b6040519081526020015b60405180910390f35b604051600c81526020016100b6565b6100ac60035481565b6100df610150565b005b6000546040516001600160a01b0390911681526020016100b6565b6100df61010a366004610530565b61018f565b6100df61011d366004610530565b610304565b6100df610130366004610549565b610361565b6001546100ac565b6100df61014b366004610549565b610445565b6000546001600160a01b031633146101835760405162461bcd60e51b815260040161017a90610579565b60405180910390fd5b61018d60006104e0565b565b6004546001600160a01b0316336001600160a01b031614806101bb57506000546001600160a01b031633145b6101fc5760405162461bcd60e51b81526020600482015260126024820152712cb7ba93b932903737ba103ab83230ba32b960711b604482015260640161017a565b6000546001600160a01b031633146102cd576000600154821161022c578160015461022791906105c4565b610239565b60015461023990836105c4565b905060006002544261024b91906105c4565b600154620151806102618564e8d4a510006105db565b61026b91906105db565b61027591906105fa565b61027f91906105fa565b90506003548111156102ca5760405162461bcd60e51b81526020600482015260146024820152735072696365206368616e676520746f6f2062696760601b604482015260640161017a565b50505b60018190554260025560405181907fa6dc15bdb68da224c66db4b3838d9a2b205138e8cff6774e57d0af91e196d62290600090a250565b6000546001600160a01b0316331461032e5760405162461bcd60e51b815260040161017a90610579565b600381905560405181907f1b385cc6106048a7dca0a143930badfbb586492816fd033085150932635b3cee90600090a250565b6000546001600160a01b0316331461038b5760405162461bcd60e51b815260040161017a90610579565b6001600160a01b0381166103f35760405162461bcd60e51b815260206004820152602960248201527f557064617465722063616e6e6f742062652073657420746f20746865207a65726044820152686f206164647265737360b81b606482015260840161017a565b600480546001600160a01b038381166001600160a01b0319831681179093556040519116919082907f662a4a4a892f5f13cf7ee050fdaa045f8641601fdbc843e8a71f418099cacd4e90600090a35050565b6000546001600160a01b0316331461046f5760405162461bcd60e51b815260040161017a90610579565b6001600160a01b0381166104d45760405162461bcd60e51b815260206004820152602660248201527f4f776e61626c653a206e6577206f776e657220697320746865207a65726f206160448201526564647265737360d01b606482015260840161017a565b6104dd816104e0565b50565b600080546001600160a01b038381166001600160a01b0319831681178455604051919092169283917f8be0079c531659141344cd1fd0a4f28419497f9722a3daafe3b4186f6b6457e09190a35050565b60006020828403121561054257600080fd5b5035919050565b60006020828403121561055b57600080fd5b81356001600160a01b038116811461057257600080fd5b9392505050565b6020808252818101527f4f776e61626c653a2063616c6c6572206973206e6f7420746865206f776e6572604082015260600190565b634e487b7160e01b600052601160045260246000fd5b6000828210156105d6576105d66105ae565b500390565b60008160001904831182151516156105f5576105f56105ae565b500290565b60008261061757634e487b7160e01b600052601260045260246000fd5b50049056fea264697066735822122023a42463f4ed8a802b37a17485c36e7f29fbcfda668ca5169620ca97abfec31864736f6c634300080d0033",
  "devdoc": {
    "kind": "dev",
    "methods": {
      "owner()": {
        "details": "Returns the address of the current owner."
      },
      "renounceOwnership()": {
        "details": "Leaves the contract without owner. It will not be possible to call `onlyOwner` functions anymore. Can only be called by the current owner. NOTE: Renouncing ownership will leave the contract without an owner, thereby removing any functionality that is only available to the owner."
      },
      "transferOwnership(address)": {
        "details": "Transfers ownership of the contract to a new account (`newOwner`). Can only be called by the current owner."
      }
    },
    "version": 1
  },
  "userdoc": {
    "kind": "user",
    "methods": {},
    "version": 1
  },
  "storageLayout": {
    "storage": [
      {
        "astId": 1541,
        "contract": "contracts/Oracle/FiatToFiatPseudoOracleFeed.sol:FiatToFiatPseudoOracleFeed",
        "label": "_owner",
        "offset": 0,
        "slot": "0",
        "type": "t_address"
      },
      {
        "astId": 6844,
        "contract": "contracts/Oracle/FiatToFiatPseudoOracleFeed.sol:FiatToFiatPseudoOracleFeed",
        "label": "recentPrice",
        "offset": 0,
        "slot": "1",
        "type": "t_uint256"
      },
      {
        "astId": 6846,
        "contract": "contracts/Oracle/FiatToFiatPseudoOracleFeed.sol:FiatToFiatPseudoOracleFeed",
        "label": "lastUpdateTimestamp",
        "offset": 0,
        "slot": "2",
        "type": "t_uint256"
      },
      {
        "astId": 6849,
        "contract": "contracts/Oracle/FiatToFiatPseudoOracleFeed.sol:FiatToFiatPseudoOracleFeed",
        "label": "maxDayChange_d12",
        "offset": 0,
        "slot": "3",
        "type": "t_uint256"
      },
      {
        "astId": 6851,
        "contract": "contracts/Oracle/FiatToFiatPseudoOracleFeed.sol:FiatToFiatPseudoOracleFeed",
        "label": "updater",
        "offset": 0,
        "slot": "4",
        "type": "t_address"
      }
    ],
    "types": {
      "t_address": {
        "encoding": "inplace",
        "label": "address",
        "numberOfBytes": "20"
      },
      "t_uint256": {
        "encoding": "inplace",
        "label": "uint256",
        "numberOfBytes": "32"
      }
    }
  }
}