{
  "address": "0x8e983D1A3AAB2Cae26eF390133f0C3D7832DEd8b",
  "abi": [
    {
      "inputs": [
        {
          "internalType": "address",
          "name": "_updater",
          "type": "address"
        },
        {
          "internalType": "uint256",
          "name": "_recentPrice",
          "type": "uint256"
        }
      ],
      "stateMutability": "nonpayable",
      "type": "constructor"
    },
    {
      "anonymous": false,
      "inputs": [
        {
          "indexed": true,
          "internalType": "uint256",
          "name": "newMaxDayChange_d12",
          "type": "uint256"
        }
      ],
      "name": "MaxDayChangeChanged",
      "type": "event"
    },
    {
      "anonymous": false,
      "inputs": [
        {
          "indexed": true,
          "internalType": "address",
          "name": "previousOwner",
          "type": "address"
        },
        {
          "indexed": true,
          "internalType": "address",
          "name": "newOwner",
          "type": "address"
        }
      ],
      "name": "OwnershipTransferred",
      "type": "event"
    },
    {
      "anonymous": false,
      "inputs": [
        {
          "indexed": true,
          "internalType": "uint256",
          "name": "newPrice",
          "type": "uint256"
        }
      ],
      "name": "PriceChanged",
      "type": "event"
    },
    {
      "anonymous": false,
      "inputs": [
        {
          "indexed": true,
          "internalType": "address",
          "name": "oldUpdater",
          "type": "address"
        },
        {
          "indexed": true,
          "internalType": "address",
          "name": "newUpdater",
          "type": "address"
        }
      ],
      "name": "UpdaterChanged",
      "type": "event"
    },
    {
      "inputs": [],
      "name": "decimals",
      "outputs": [
        {
          "internalType": "uint8",
          "name": "",
          "type": "uint8"
        }
      ],
      "stateMutability": "view",
      "type": "function"
    },
    {
      "inputs": [],
      "name": "lastUpdateTimestamp",
      "outputs": [
        {
          "internalType": "uint256",
          "name": "",
          "type": "uint256"
        }
      ],
      "stateMutability": "view",
      "type": "function"
    },
    {
      "inputs": [],
      "name": "maxDayChange_d12",
      "outputs": [
        {
          "internalType": "uint256",
          "name": "",
          "type": "uint256"
        }
      ],
      "stateMutability": "view",
      "type": "function"
    },
    {
      "inputs": [],
      "name": "owner",
      "outputs": [
        {
          "internalType": "address",
          "name": "",
          "type": "address"
        }
      ],
      "stateMutability": "view",
      "type": "function"
    },
    {
      "inputs": [],
      "name": "price",
      "outputs": [
        {
          "internalType": "uint256",
          "name": "",
          "type": "uint256"
        }
      ],
      "stateMutability": "view",
      "type": "function"
    },
    {
      "inputs": [],
      "name": "renounceOwnership",
      "outputs": [],
      "stateMutability": "nonpayable",
      "type": "function"
    },
    {
      "inputs": [
        {
          "internalType": "uint256",
          "name": "_maxDayChange_d12",
          "type": "uint256"
        }
      ],
      "name": "setMaxDayChange_d12",
      "outputs": [],
      "stateMutability": "nonpayable",
      "type": "function"
    },
    {
      "inputs": [
        {
          "internalType": "uint256",
          "name": "_price",
          "type": "uint256"
        }
      ],
      "name": "setPrice",
      "outputs": [],
      "stateMutability": "nonpayable",
      "type": "function"
    },
    {
      "inputs": [
        {
          "internalType": "address",
          "name": "newUpdater",
          "type": "address"
        }
      ],
      "name": "setUpdater",
      "outputs": [],
      "stateMutability": "nonpayable",
      "type": "function"
    },
    {
      "inputs": [
        {
          "internalType": "address",
          "name": "newOwner",
          "type": "address"
        }
      ],
      "name": "transferOwnership",
      "outputs": [],
      "stateMutability": "nonpayable",
      "type": "function"
    }
  ],
  "transactionHash": "0x1212ff3b3a881e8c9e48f09674351ac4c965b310ce844c234efedf5c18a91988",
  "args": [
    "0x9C385013670F34256450ABA0ba7bd1B36eF02326",
    "1130000000000"
  ],
  "solcInputHash": "cd8720e2909469f7fade4e9f8329e216",
  "bytecode": "0x60806040526402540be40060035534801561001957600080fd5b5060405161097c38038061097c8339818101604052604081101561003c57600080fd5b508051602090910151600061004f6100c6565b600080546001600160a01b0319166001600160a01b0383169081178255604051929350917f8be0079c531659141344cd1fd0a4f28419497f9722a3daafe3b4186f6b6457e0908290a350600480546001600160a01b0319166001600160a01b039390931692909217909155600155426002556100ca565b3390565b6108a3806100d96000396000f3fe608060405234801561001057600080fd5b506004361061009e5760003560e01c806391b7f5ed1161006657806391b7f5ed146101115780639831fbc11461012e5780639d54f4191461014b578063a035b1fe14610171578063f2fde38b146101795761009e565b806314bcec9f146100a3578063313ce567146100bd57806368742e0e146100db578063715018a6146100e35780638da5cb5b146100ed575b600080fd5b6100ab61019f565b60408051918252519081900360200190f35b6100c56101a5565b6040805160ff9092168252519081900360200190f35b6100ab6101aa565b6100eb6101b0565b005b6100f561025c565b604080516001600160a01b039092168252519081900360200190f35b6100eb6004803603602081101561012757600080fd5b503561026b565b6100eb6004803603602081101561014457600080fd5b5035610418565b6100eb6004803603602081101561016157600080fd5b50356001600160a01b03166104ad565b6100ab6105a8565b6100eb6004803603602081101561018f57600080fd5b50356001600160a01b03166105ae565b60025481565b600c90565b60035481565b6101b86106b0565b6001600160a01b03166101c961025c565b6001600160a01b031614610212576040805162461bcd60e51b8152602060048201819052602482015260008051602061084e833981519152604482015290519081900360640190fd5b600080546040516001600160a01b03909116907f8be0079c531659141344cd1fd0a4f28419497f9722a3daafe3b4186f6b6457e0908390a3600080546001600160a01b0319169055565b6000546001600160a01b031690565b6004546001600160a01b031661027f6106b0565b6001600160a01b031614806102b3575061029761025c565b6001600160a01b03166102a86106b0565b6001600160a01b0316145b6102f9576040805162461bcd60e51b81526020600482015260126024820152712cb7ba93b932903737ba103ab83230ba32b960711b604482015290519081900360640190fd5b61030161025c565b6001600160a01b03166103126106b0565b6001600160a01b0316146103e1576000600154821161033d5760015461033890836106b4565b61034b565b60015461034b9083906106b4565b9050600061038e610367600254426106b490919063ffffffff16565b60015461038890816201518061038264e8d4a5100089610716565b90610716565b90610776565b90506003548111156103de576040805162461bcd60e51b81526020600482015260146024820152735072696365206368616e676520746f6f2062696760601b604482015290519081900360640190fd5b50505b60018190554260025560405181907fa6dc15bdb68da224c66db4b3838d9a2b205138e8cff6774e57d0af91e196d62290600090a250565b6104206106b0565b6001600160a01b031661043161025c565b6001600160a01b03161461047a576040805162461bcd60e51b8152602060048201819052602482015260008051602061084e833981519152604482015290519081900360640190fd5b600381905560405181907f1b385cc6106048a7dca0a143930badfbb586492816fd033085150932635b3cee90600090a250565b6104b56106b0565b6001600160a01b03166104c661025c565b6001600160a01b03161461050f576040805162461bcd60e51b8152602060048201819052602482015260008051602061084e833981519152604482015290519081900360640190fd5b6001600160a01b0381166105545760405162461bcd60e51b81526004018080602001828103825260298152602001806108046029913960400191505060405180910390fd5b600480546001600160a01b038381166001600160a01b03198316179283905560405191811692169082907f662a4a4a892f5f13cf7ee050fdaa045f8641601fdbc843e8a71f418099cacd4e90600090a35050565b60015490565b6105b66106b0565b6001600160a01b03166105c761025c565b6001600160a01b031614610610576040805162461bcd60e51b8152602060048201819052602482015260008051602061084e833981519152604482015290519081900360640190fd5b6001600160a01b0381166106555760405162461bcd60e51b81526004018080602001828103825260268152602001806107de6026913960400191505060405180910390fd5b600080546040516001600160a01b03808516939216917f8be0079c531659141344cd1fd0a4f28419497f9722a3daafe3b4186f6b6457e091a3600080546001600160a01b0319166001600160a01b0392909216919091179055565b3390565b60008282111561070b576040805162461bcd60e51b815260206004820152601e60248201527f536166654d6174683a207375627472616374696f6e206f766572666c6f770000604482015290519081900360640190fd5b508082035b92915050565b60008261072557506000610710565b8282028284828161073257fe5b041461076f5760405162461bcd60e51b815260040180806020018281038252602181526020018061082d6021913960400191505060405180910390fd5b9392505050565b60008082116107cc576040805162461bcd60e51b815260206004820152601a60248201527f536166654d6174683a206469766973696f6e206279207a65726f000000000000604482015290519081900360640190fd5b8183816107d557fe5b04939250505056fe4f776e61626c653a206e6577206f776e657220697320746865207a65726f2061646472657373557064617465722063616e6e6f742062652073657420746f20746865207a65726f2061646472657373536166654d6174683a206d756c7469706c69636174696f6e206f766572666c6f774f776e61626c653a2063616c6c6572206973206e6f7420746865206f776e6572a2646970667358221220c7e9b819211874d8ec533ef2ad6c4b6fcc01838a06f3e6766574ccd89908f73e64736f6c634300060c0033",
  "devdoc": {
    "kind": "dev",
    "methods": {
      "owner()": {
        "details": "Returns the address of the current owner."
      },
      "renounceOwnership()": {
        "details": "Leaves the contract without owner. It will not be possible to call `onlyOwner` functions anymore. Can only be called by the current owner. NOTE: Renouncing ownership will leave the contract without an owner, thereby removing any functionality that is only available to the owner."
      },
      "transferOwnership(address)": {
        "details": "Transfers ownership of the contract to a new account (`newOwner`). Can only be called by the current owner."
      }
    },
    "version": 1
  },
  "userdoc": {
    "kind": "user",
    "methods": {},
    "version": 1
  },
  "storageLayout": {
    "storage": [
      {
        "astId": 1782,
        "contract": "contracts/Oracle/FiatToFiatPseudoOracleFeed.sol:FiatToFiatPseudoOracleFeed",
        "label": "_owner",
        "offset": 0,
        "slot": "0",
        "type": "t_address"
      },
      {
        "astId": 9048,
        "contract": "contracts/Oracle/FiatToFiatPseudoOracleFeed.sol:FiatToFiatPseudoOracleFeed",
        "label": "recentPrice",
        "offset": 0,
        "slot": "1",
        "type": "t_uint256"
      },
      {
        "astId": 9050,
        "contract": "contracts/Oracle/FiatToFiatPseudoOracleFeed.sol:FiatToFiatPseudoOracleFeed",
        "label": "lastUpdateTimestamp",
        "offset": 0,
        "slot": "2",
        "type": "t_uint256"
      },
      {
        "astId": 9053,
        "contract": "contracts/Oracle/FiatToFiatPseudoOracleFeed.sol:FiatToFiatPseudoOracleFeed",
        "label": "maxDayChange_d12",
        "offset": 0,
        "slot": "3",
        "type": "t_uint256"
      },
      {
        "astId": 9055,
        "contract": "contracts/Oracle/FiatToFiatPseudoOracleFeed.sol:FiatToFiatPseudoOracleFeed",
        "label": "updater",
        "offset": 0,
        "slot": "4",
        "type": "t_address"
      }
    ],
    "types": {
      "t_address": {
        "encoding": "inplace",
        "label": "address",
        "numberOfBytes": "20"
      },
      "t_uint256": {
        "encoding": "inplace",
        "label": "uint256",
        "numberOfBytes": "32"
      }
    }
  }
}