{
  "address": "0xc53475A105Bb6A03DCb76Bea898B46379593BAe2",
  "abi": [
    {
      "inputs": [
        {
          "internalType": "address",
          "name": "_updater",
          "type": "address"
        }
      ],
      "stateMutability": "nonpayable",
      "type": "constructor"
    },
    {
      "anonymous": false,
      "inputs": [
        {
          "indexed": true,
          "internalType": "address",
          "name": "previousOwner",
          "type": "address"
        },
        {
          "indexed": true,
          "internalType": "address",
          "name": "newOwner",
          "type": "address"
        }
      ],
      "name": "OwnershipTransferred",
      "type": "event"
    },
    {
      "anonymous": false,
      "inputs": [
        {
          "indexed": true,
          "internalType": "uint256",
          "name": "newPrice",
          "type": "uint256"
        }
      ],
      "name": "PriceChanged",
      "type": "event"
    },
    {
      "anonymous": false,
      "inputs": [
        {
          "indexed": true,
          "internalType": "address",
          "name": "oldUpdater",
          "type": "address"
        },
        {
          "indexed": true,
          "internalType": "address",
          "name": "newUpdater",
          "type": "address"
        }
      ],
      "name": "UpdaterChanged",
      "type": "event"
    },
    {
      "inputs": [],
      "name": "decimals",
      "outputs": [
        {
          "internalType": "uint8",
          "name": "",
          "type": "uint8"
        }
      ],
      "stateMutability": "view",
      "type": "function"
    },
    {
      "inputs": [],
      "name": "owner",
      "outputs": [
        {
          "internalType": "address",
          "name": "",
          "type": "address"
        }
      ],
      "stateMutability": "view",
      "type": "function"
    },
    {
      "inputs": [],
      "name": "price",
      "outputs": [
        {
          "internalType": "uint256",
          "name": "",
          "type": "uint256"
        }
      ],
      "stateMutability": "view",
      "type": "function"
    },
    {
      "inputs": [],
      "name": "renounceOwnership",
      "outputs": [],
      "stateMutability": "nonpayable",
      "type": "function"
    },
    {
      "inputs": [
        {
          "internalType": "uint256",
          "name": "_price",
          "type": "uint256"
        }
      ],
      "name": "setPrice",
      "outputs": [],
      "stateMutability": "nonpayable",
      "type": "function"
    },
    {
      "inputs": [
        {
          "internalType": "address",
          "name": "newUpdater",
          "type": "address"
        }
      ],
      "name": "setUpdater",
      "outputs": [],
      "stateMutability": "nonpayable",
      "type": "function"
    },
    {
      "inputs": [
        {
          "internalType": "address",
          "name": "newOwner",
          "type": "address"
        }
      ],
      "name": "transferOwnership",
      "outputs": [],
      "stateMutability": "nonpayable",
      "type": "function"
    }
  ],
  "transactionHash": "0x0fd1cfcb7789b3d9469bae47c2af7d245ea956586a252f30f035aa3829c534f7",
  "args": [
    "0x9C385013670F34256450ABA0ba7bd1B36eF02326"
  ],
  "solcInputHash": "964b643a9886544e5729090027eb9ffb",
  "bytecode": "0x608060405264e8d4a5100060015534801561001957600080fd5b506040516105bf3803806105bf8339818101604052602081101561003c57600080fd5b505160006100516001600160e01b036100c016565b600080546001600160a01b0319166001600160a01b0383169081178255604051929350917f8be0079c531659141344cd1fd0a4f28419497f9722a3daafe3b4186f6b6457e0908290a350600280546001600160a01b0319166001600160a01b03929092169190911790556100c4565b3390565b6104ec806100d36000396000f3fe608060405234801561001057600080fd5b506004361061007d5760003560e01c806391b7f5ed1161005b57806391b7f5ed146100ce5780639d54f419146100eb578063a035b1fe14610111578063f2fde38b1461012b5761007d565b8063313ce56714610082578063715018a6146100a05780638da5cb5b146100aa575b600080fd5b61008a610151565b6040805160ff9092168252519081900360200190f35b6100a8610156565b005b6100b2610214565b604080516001600160a01b039092168252519081900360200190f35b6100a8600480360360208110156100e457600080fd5b5035610223565b6100a86004803603602081101561010157600080fd5b50356001600160a01b03166102aa565b610119610372565b60408051918252519081900360200190f35b6100a86004803603602081101561014157600080fd5b50356001600160a01b0316610378565b600c90565b61015e61048c565b6001600160a01b031661016f610214565b6001600160a01b0316146101ca576040805162461bcd60e51b815260206004820181905260248201527f4f776e61626c653a2063616c6c6572206973206e6f7420746865206f776e6572604482015290519081900360640190fd5b600080546040516001600160a01b03909116907f8be0079c531659141344cd1fd0a4f28419497f9722a3daafe3b4186f6b6457e0908390a3600080546001600160a01b0319169055565b6000546001600160a01b031690565b6002546001600160a01b03163314610277576040805162461bcd60e51b81526020600482015260126024820152712cb7ba93b932903737ba103ab83230ba32b960711b604482015290519081900360640190fd5b600181905560405181907fa6dc15bdb68da224c66db4b3838d9a2b205138e8cff6774e57d0af91e196d62290600090a250565b6102b261048c565b6001600160a01b03166102c3610214565b6001600160a01b03161461031e576040805162461bcd60e51b815260206004820181905260248201527f4f776e61626c653a2063616c6c6572206973206e6f7420746865206f776e6572604482015290519081900360640190fd5b600280546001600160a01b038381166001600160a01b03198316179283905560405191811692169082907f662a4a4a892f5f13cf7ee050fdaa045f8641601fdbc843e8a71f418099cacd4e90600090a35050565b60015490565b61038061048c565b6001600160a01b0316610391610214565b6001600160a01b0316146103ec576040805162461bcd60e51b815260206004820181905260248201527f4f776e61626c653a2063616c6c6572206973206e6f7420746865206f776e6572604482015290519081900360640190fd5b6001600160a01b0381166104315760405162461bcd60e51b81526004018080602001828103825260268152602001806104916026913960400191505060405180910390fd5b600080546040516001600160a01b03808516939216917f8be0079c531659141344cd1fd0a4f28419497f9722a3daafe3b4186f6b6457e091a3600080546001600160a01b0319166001600160a01b0392909216919091179055565b339056fe4f776e61626c653a206e6577206f776e657220697320746865207a65726f2061646472657373a264697066735822122075a14d443767b1b555db673f9534b2cf8dacfbacc222f38227a7e9c0f376e0f664736f6c634300060b0033",
  "devdoc": {
    "kind": "dev",
    "methods": {
      "owner()": {
        "details": "Returns the address of the current owner."
      },
      "renounceOwnership()": {
        "details": "Leaves the contract without owner. It will not be possible to call `onlyOwner` functions anymore. Can only be called by the current owner. NOTE: Renouncing ownership will leave the contract without an owner, thereby removing any functionality that is only available to the owner."
      },
      "transferOwnership(address)": {
        "details": "Transfers ownership of the contract to a new account (`newOwner`). Can only be called by the current owner."
      }
    },
    "version": 1
  },
  "userdoc": {
    "kind": "user",
    "methods": {},
    "version": 1
  },
  "storageLayout": {
    "storage": [
      {
        "astId": 1569,
        "contract": "contracts/Oracle/FiatToFiatPseudoOracleFeed.sol:FiatToFiatPseudoOracleFeed",
        "label": "_owner",
        "offset": 0,
        "slot": "0",
        "type": "t_address"
      },
      {
        "astId": 9278,
        "contract": "contracts/Oracle/FiatToFiatPseudoOracleFeed.sol:FiatToFiatPseudoOracleFeed",
        "label": "recentPrice",
        "offset": 0,
        "slot": "1",
        "type": "t_uint256"
      },
      {
        "astId": 9280,
        "contract": "contracts/Oracle/FiatToFiatPseudoOracleFeed.sol:FiatToFiatPseudoOracleFeed",
        "label": "updater",
        "offset": 0,
        "slot": "2",
        "type": "t_address"
      }
    ],
    "types": {
      "t_address": {
        "encoding": "inplace",
        "label": "address",
        "numberOfBytes": "20"
      },
      "t_uint256": {
        "encoding": "inplace",
        "label": "uint256",
        "numberOfBytes": "32"
      }
    }
  }
}