{
  "address": "0xD32EA3B31F54D8e9430C606E07Ad0F0d20aa1824",
  "abi": [
    {
      "anonymous": false,
      "inputs": [
        {
          "indexed": true,
          "internalType": "address",
          "name": "user",
          "type": "address"
        },
        {
          "indexed": false,
          "internalType": "uint256",
          "name": "amount",
          "type": "uint256"
        },
        {
          "indexed": false,
          "internalType": "uint256",
          "name": "secs",
          "type": "uint256"
        }
      ],
      "name": "ExistingStakeLocked",
      "type": "event"
    },
    {
      "anonymous": false,
      "inputs": [
        {
          "indexed": true,
          "internalType": "address",
          "name": "previousOwner",
          "type": "address"
        },
        {
          "indexed": true,
          "internalType": "address",
          "name": "newOwner",
          "type": "address"
        }
      ],
      "name": "OwnershipTransferred",
      "type": "event"
    },
    {
      "anonymous": false,
      "inputs": [
        {
          "indexed": false,
          "internalType": "address",
          "name": "account",
          "type": "address"
        }
      ],
      "name": "Paused",
      "type": "event"
    },
    {
      "anonymous": false,
      "inputs": [
        {
          "indexed": false,
          "internalType": "address",
          "name": "token",
          "type": "address"
        },
        {
          "indexed": false,
          "internalType": "uint256",
          "name": "amount",
          "type": "uint256"
        }
      ],
      "name": "Recovered",
      "type": "event"
    },
    {
      "anonymous": false,
      "inputs": [
        {
          "indexed": true,
          "internalType": "address",
          "name": "user",
          "type": "address"
        },
        {
          "indexed": false,
          "internalType": "uint256",
          "name": "reward",
          "type": "uint256"
        }
      ],
      "name": "RewardPaid",
      "type": "event"
    },
    {
      "anonymous": false,
      "inputs": [
        {
          "indexed": false,
          "internalType": "address",
          "name": "user",
          "type": "address"
        },
        {
          "indexed": false,
          "internalType": "uint256",
          "name": "amount",
          "type": "uint256"
        }
      ],
      "name": "RewardVested",
      "type": "event"
    },
    {
      "anonymous": false,
      "inputs": [
        {
          "indexed": false,
          "internalType": "uint256",
          "name": "newDuration",
          "type": "uint256"
        }
      ],
      "name": "RewardsDurationUpdated",
      "type": "event"
    },
    {
      "anonymous": false,
      "inputs": [
        {
          "indexed": false,
          "internalType": "address",
          "name": "token",
          "type": "address"
        }
      ],
      "name": "RewardsPeriodRenewed",
      "type": "event"
    },
    {
      "anonymous": false,
      "inputs": [
        {
          "indexed": true,
          "internalType": "address",
          "name": "user",
          "type": "address"
        },
        {
          "indexed": false,
          "internalType": "uint256",
          "name": "amount",
          "type": "uint256"
        },
        {
          "indexed": false,
          "internalType": "uint256",
          "name": "secs",
          "type": "uint256"
        }
      ],
      "name": "StakeLocked",
      "type": "event"
    },
    {
      "anonymous": false,
      "inputs": [
        {
          "indexed": true,
          "internalType": "address",
          "name": "user",
          "type": "address"
        },
        {
          "indexed": false,
          "internalType": "uint256",
          "name": "amount",
          "type": "uint256"
        }
      ],
      "name": "Staked",
      "type": "event"
    },
    {
      "anonymous": false,
      "inputs": [
        {
          "indexed": false,
          "internalType": "address",
          "name": "account",
          "type": "address"
        }
      ],
      "name": "Unpaused",
      "type": "event"
    },
    {
      "anonymous": false,
      "inputs": [
        {
          "indexed": true,
          "internalType": "address",
          "name": "user",
          "type": "address"
        },
        {
          "indexed": false,
          "internalType": "uint256",
          "name": "amount",
          "type": "uint256"
        }
      ],
      "name": "Withdrawn",
      "type": "event"
    },
    {
      "anonymous": false,
      "inputs": [
        {
          "indexed": true,
          "internalType": "address",
          "name": "user",
          "type": "address"
        },
        {
          "indexed": false,
          "internalType": "uint256",
          "name": "amount",
          "type": "uint256"
        },
        {
          "indexed": false,
          "internalType": "bytes32",
          "name": "kek_id",
          "type": "bytes32"
        }
      ],
      "name": "WithdrawnLocked",
      "type": "event"
    },
    {
      "inputs": [],
      "name": "LOCK_MULTIPLIER_PRECISION",
      "outputs": [
        {
          "internalType": "uint256",
          "name": "",
          "type": "uint256"
        }
      ],
      "stateMutability": "view",
      "type": "function"
    },
    {
      "inputs": [],
      "name": "REWARD_PRECISION",
      "outputs": [
        {
          "internalType": "uint256",
          "name": "",
          "type": "uint256"
        }
      ],
      "stateMutability": "view",
      "type": "function"
    },
    {
      "inputs": [
        {
          "internalType": "address",
          "name": "account",
          "type": "address"
        }
      ],
      "name": "balanceOf",
      "outputs": [
        {
          "internalType": "uint256",
          "name": "",
          "type": "uint256"
        }
      ],
      "stateMutability": "view",
      "type": "function"
    },
    {
      "inputs": [
        {
          "internalType": "address",
          "name": "account",
          "type": "address"
        }
      ],
      "name": "boostedBalanceOf",
      "outputs": [
        {
          "internalType": "uint256",
          "name": "",
          "type": "uint256"
        }
      ],
      "stateMutability": "view",
      "type": "function"
    },
    {
      "inputs": [
        {
          "internalType": "address",
          "name": "account",
          "type": "address"
        }
      ],
      "name": "earned",
      "outputs": [
        {
          "internalType": "uint256",
          "name": "",
          "type": "uint256"
        }
      ],
      "stateMutability": "view",
      "type": "function"
    },
    {
      "inputs": [],
      "name": "getRewardForDuration",
      "outputs": [
        {
          "internalType": "uint256",
          "name": "",
          "type": "uint256"
        }
      ],
      "stateMutability": "view",
      "type": "function"
    },
    {
      "inputs": [
        {
          "internalType": "address",
          "name": "",
          "type": "address"
        }
      ],
      "name": "greylist",
      "outputs": [
        {
          "internalType": "bool",
          "name": "",
          "type": "bool"
        }
      ],
      "stateMutability": "view",
      "type": "function"
    },
    {
      "inputs": [
        {
          "internalType": "address",
          "name": "_stakingToken",
          "type": "address"
        },
        {
          "internalType": "address",
          "name": "_stakingRewardsDistribution",
          "type": "address"
        },
        {
          "internalType": "bool",
          "name": "_isTrueBdPool",
          "type": "bool"
        }
      ],
      "name": "initialize",
      "outputs": [],
      "stateMutability": "nonpayable",
      "type": "function"
    },
    {
      "inputs": [],
      "name": "isTrueBdPool",
      "outputs": [
        {
          "internalType": "bool",
          "name": "",
          "type": "bool"
        }
      ],
      "stateMutability": "view",
      "type": "function"
    },
    {
      "inputs": [],
      "name": "lastTimeRewardApplicable",
      "outputs": [
        {
          "internalType": "uint256",
          "name": "",
          "type": "uint256"
        }
      ],
      "stateMutability": "view",
      "type": "function"
    },
    {
      "inputs": [],
      "name": "lastUpdateTime",
      "outputs": [
        {
          "internalType": "uint256",
          "name": "",
          "type": "uint256"
        }
      ],
      "stateMutability": "view",
      "type": "function"
    },
    {
      "inputs": [
        {
          "internalType": "uint256",
          "name": "amount",
          "type": "uint256"
        },
        {
          "internalType": "uint256",
          "name": "yearsNo",
          "type": "uint256"
        }
      ],
      "name": "lockExistingStake",
      "outputs": [],
      "stateMutability": "nonpayable",
      "type": "function"
    },
    {
      "inputs": [
        {
          "internalType": "address",
          "name": "account",
          "type": "address"
        }
      ],
      "name": "lockedBalanceOf",
      "outputs": [
        {
          "internalType": "uint256",
          "name": "",
          "type": "uint256"
        }
      ],
      "stateMutability": "view",
      "type": "function"
    },
    {
      "inputs": [
        {
          "internalType": "address",
          "name": "account",
          "type": "address"
        }
      ],
      "name": "lockedStakesOf",
      "outputs": [
        {
          "components": [
            {
              "internalType": "bytes32",
              "name": "kek_id",
              "type": "bytes32"
            },
            {
              "internalType": "uint256",
              "name": "start_timestamp",
              "type": "uint256"
            },
            {
              "internalType": "uint256",
              "name": "amount",
              "type": "uint256"
            },
            {
              "internalType": "uint256",
              "name": "ending_timestamp",
              "type": "uint256"
            },
            {
              "internalType": "uint256",
              "name": "multiplier_LOCK_MULTIPLIER_PRECISION",
              "type": "uint256"
            }
          ],
          "internalType": "struct StakingRewards.LockedStake[]",
          "name": "",
          "type": "tuple[]"
        }
      ],
      "stateMutability": "view",
      "type": "function"
    },
    {
      "inputs": [
        {
          "internalType": "uint256",
          "name": "yearsNo",
          "type": "uint256"
        }
      ],
      "name": "lockedStakingMultiplier_LOCK_MULTIPLIER_PRECISION",
      "outputs": [
        {
          "internalType": "uint256",
          "name": "",
          "type": "uint256"
        }
      ],
      "stateMutability": "pure",
      "type": "function"
    },
    {
      "inputs": [],
      "name": "owner",
      "outputs": [
        {
          "internalType": "address",
          "name": "",
          "type": "address"
        }
      ],
      "stateMutability": "view",
      "type": "function"
    },
    {
      "inputs": [],
      "name": "pause",
      "outputs": [],
      "stateMutability": "nonpayable",
      "type": "function"
    },
    {
      "inputs": [],
      "name": "paused",
      "outputs": [
        {
          "internalType": "bool",
          "name": "",
          "type": "bool"
        }
      ],
      "stateMutability": "view",
      "type": "function"
    },
    {
      "inputs": [],
      "name": "periodFinish",
      "outputs": [
        {
          "internalType": "uint256",
          "name": "",
          "type": "uint256"
        }
      ],
      "stateMutability": "view",
      "type": "function"
    },
    {
      "inputs": [
        {
          "internalType": "address",
          "name": "tokenAddress",
          "type": "address"
        },
        {
          "internalType": "uint256",
          "name": "tokenAmount",
          "type": "uint256"
        }
      ],
      "name": "recoverERC20",
      "outputs": [],
      "stateMutability": "nonpayable",
      "type": "function"
    },
    {
      "inputs": [
        {
          "internalType": "address",
          "name": "user",
          "type": "address"
        },
        {
          "internalType": "uint256",
          "name": "immediatelyReleasedReward",
          "type": "uint256"
        },
        {
          "internalType": "uint256",
          "name": "vestedReward",
          "type": "uint256"
        }
      ],
      "name": "releaseReward",
      "outputs": [],
      "stateMutability": "nonpayable",
      "type": "function"
    },
    {
      "inputs": [],
      "name": "renewIfApplicable",
      "outputs": [],
      "stateMutability": "nonpayable",
      "type": "function"
    },
    {
      "inputs": [],
      "name": "renounceOwnership",
      "outputs": [],
      "stateMutability": "nonpayable",
      "type": "function"
    },
    {
      "inputs": [],
      "name": "rewardPerToken",
      "outputs": [
        {
          "internalType": "uint256",
          "name": "",
          "type": "uint256"
        }
      ],
      "stateMutability": "view",
      "type": "function"
    },
    {
      "inputs": [],
      "name": "rewardPerTokenStored_REWARD_PRECISION",
      "outputs": [
        {
          "internalType": "uint256",
          "name": "",
          "type": "uint256"
        }
      ],
      "stateMutability": "view",
      "type": "function"
    },
    {
      "inputs": [
        {
          "internalType": "address",
          "name": "",
          "type": "address"
        }
      ],
      "name": "rewards",
      "outputs": [
        {
          "internalType": "uint256",
          "name": "",
          "type": "uint256"
        }
      ],
      "stateMutability": "view",
      "type": "function"
    },
    {
      "inputs": [],
      "name": "rewardsDurationSeconds",
      "outputs": [
        {
          "internalType": "uint256",
          "name": "",
          "type": "uint256"
        }
      ],
      "stateMutability": "view",
      "type": "function"
    },
    {
      "inputs": [
        {
          "internalType": "address",
          "name": "_address",
          "type": "address"
        },
        {
          "internalType": "bool",
          "name": "isGraylisted",
          "type": "bool"
        }
      ],
      "name": "setIsAddressGraylisted",
      "outputs": [],
      "stateMutability": "nonpayable",
      "type": "function"
    },
    {
      "inputs": [
        {
          "internalType": "address",
          "name": "_new_owner",
          "type": "address"
        }
      ],
      "name": "setOwner",
      "outputs": [],
      "stateMutability": "nonpayable",
      "type": "function"
    },
    {
      "inputs": [
        {
          "internalType": "uint256",
          "name": "_rewardsDurationSeconds",
          "type": "uint256"
        }
      ],
      "name": "setRewardsDuration",
      "outputs": [],
      "stateMutability": "nonpayable",
      "type": "function"
    },
    {
      "inputs": [
        {
          "internalType": "uint256",
          "name": "amount",
          "type": "uint256"
        }
      ],
      "name": "stake",
      "outputs": [],
      "stateMutability": "nonpayable",
      "type": "function"
    },
    {
      "inputs": [
        {
          "internalType": "uint256",
          "name": "amount",
          "type": "uint256"
        },
        {
          "internalType": "uint256",
          "name": "yearsNo",
          "type": "uint256"
        }
      ],
      "name": "stakeLocked",
      "outputs": [],
      "stateMutability": "nonpayable",
      "type": "function"
    },
    {
      "inputs": [],
      "name": "stakingDecimals",
      "outputs": [
        {
          "internalType": "uint256",
          "name": "",
          "type": "uint256"
        }
      ],
      "stateMutability": "view",
      "type": "function"
    },
    {
      "inputs": [],
      "name": "stakingToken",
      "outputs": [
        {
          "internalType": "contract ERC20",
          "name": "",
          "type": "address"
        }
      ],
      "stateMutability": "view",
      "type": "function"
    },
    {
      "inputs": [],
      "name": "toggleUnlockStakes",
      "outputs": [],
      "stateMutability": "nonpayable",
      "type": "function"
    },
    {
      "inputs": [],
      "name": "totalBoostedSupply",
      "outputs": [
        {
          "internalType": "uint256",
          "name": "",
          "type": "uint256"
        }
      ],
      "stateMutability": "view",
      "type": "function"
    },
    {
      "inputs": [],
      "name": "totalSupply",
      "outputs": [
        {
          "internalType": "uint256",
          "name": "",
          "type": "uint256"
        }
      ],
      "stateMutability": "view",
      "type": "function"
    },
    {
      "inputs": [
        {
          "internalType": "address",
          "name": "newOwner",
          "type": "address"
        }
      ],
      "name": "transferOwnership",
      "outputs": [],
      "stateMutability": "nonpayable",
      "type": "function"
    },
    {
      "inputs": [
        {
          "internalType": "address",
          "name": "account",
          "type": "address"
        }
      ],
      "name": "unlockedBalanceOf",
      "outputs": [
        {
          "internalType": "uint256",
          "name": "",
          "type": "uint256"
        }
      ],
      "stateMutability": "view",
      "type": "function"
    },
    {
      "inputs": [],
      "name": "unlockedStakes",
      "outputs": [
        {
          "internalType": "bool",
          "name": "",
          "type": "bool"
        }
      ],
      "stateMutability": "view",
      "type": "function"
    },
    {
      "inputs": [],
      "name": "unpause",
      "outputs": [],
      "stateMutability": "nonpayable",
      "type": "function"
    },
    {
      "inputs": [
        {
          "internalType": "address",
          "name": "account",
          "type": "address"
        }
      ],
      "name": "updateUserReward",
      "outputs": [],
      "stateMutability": "nonpayable",
      "type": "function"
    },
    {
      "inputs": [
        {
          "internalType": "address",
          "name": "",
          "type": "address"
        }
      ],
      "name": "userRewardPerTokenPaid_REWARD_PRECISION",
      "outputs": [
        {
          "internalType": "uint256",
          "name": "",
          "type": "uint256"
        }
      ],
      "stateMutability": "view",
      "type": "function"
    },
    {
      "inputs": [
        {
          "internalType": "uint256",
          "name": "amount",
          "type": "uint256"
        }
      ],
      "name": "withdraw",
      "outputs": [],
      "stateMutability": "nonpayable",
      "type": "function"
    },
    {
      "inputs": [
        {
          "internalType": "bytes32",
          "name": "kek_id",
          "type": "bytes32"
        },
        {
          "internalType": "uint256",
          "name": "from",
          "type": "uint256"
        },
        {
          "internalType": "uint256",
          "name": "to",
          "type": "uint256"
        }
      ],
      "name": "withdrawLocked",
      "outputs": [],
      "stateMutability": "nonpayable",
      "type": "function"
    }
  ],
  "transactionHash": "0xb48d8dcea6004c2a28bec416b03921a09cdb9bd74ff8df65c4e144af229134c5",
  "args": [],
  "solcInputHash": "5a0c977d732c918ce49ef0ea74613e22",
  "bytecode": "0x608060405234801561001057600080fd5b506001609755612985806100256000396000f3fe608060405234801561001057600080fd5b506004361061027e5760003560e01c8063715018a61161015c578063bf1b71a5116100ce578063cd3daf9d11610087578063cd3daf9d14610585578063d96eb3f41461058d578063e4bbb5a814610595578063ebe2b12b146105a8578063f2fde38b146105b1578063fee2eae6146105c457600080fd5b8063bf1b71a51461052e578063c11f53441461053b578063c6d6916c14610543578063c8f33c9114610556578063c92e1c2d1461055f578063cc1a378f1461057257600080fd5b806384955c881161012057806384955c88146104a557806387bf5b66146104ce5780638980f11f146104ee5780638da5cb5b1461050157806399a9cfc614610512578063a694fc3a1461051b57600080fd5b8063715018a61461044f57806372f702f31461045757806380060d491461048257806380faa57d146104955780638456cb591461049d57600080fd5b80632e1a7d4d116101f55780633f4ba83a116101b95780633f4ba83a146103da57806359355736146103e25780635bb2a8f61461040b5780635c975abb1461041e5780635f687ebb1461042957806370a082311461043c57600080fd5b80632e1a7d4d1461036e57806331ca208c14610381578063399f5467146103b45780633a88e1d0146103c15780633d6aa5e1146103cb57600080fd5b806317b18c891161024757806317b18c89146102f957806318160ddd1461030c5780631beabcd2146103145780631c1f78eb1461033d5780631e090f0114610345578063262696d41461036557600080fd5b80628cc262146102835780630700037d146102a95780630dda7299146102c95780630f24ce00146102d157806313af4035146102e6575b600080fd5b6102966102913660046123bc565b6105cc565b6040519081526020015b60405180910390f35b6102966102b73660046123bc565b60a06020526000908152604090205481565b60a254610296565b6102e46102df3660046123d7565b610649565b005b6102e46102f43660046123bc565b610718565b6102e461030736600461240a565b61074e565b60a154610296565b6102966103223660046123bc565b6001600160a01b0316600090815260a5602052604090205490565b610296610a8e565b6103586103533660046123bc565b610b0e565b6040516102a0919061242c565b610296609e5481565b6102e461037c36600461249a565b610bb5565b6103a461038f3660046123bc565b60a76020526000908152604090205460ff1681565b60405190151581526020016102a0565b60a8546103a49060ff1681565b610296620f424081565b610296670de0b6b3a764000081565b6102e4610cf4565b6102966103f03660046123bc565b6001600160a01b0316600090815260a4602052604090205490565b6102e46104193660046124c1565b610d28565b60335460ff166103a4565b6102e461043736600461240a565b610d7d565b61029661044a3660046123bc565b61110b565b6102e4611139565b60985461046a906001600160a01b031681565b6040516001600160a01b0390911681526020016102a0565b61029661049036600461249a565b61116d565b610296611217565b6102e461122e565b6102966104b33660046123bc565b6001600160a01b0316600090815260a3602052604090205490565b6102966104dc3660046123bc565b609f6020526000908152604090205481565b6102e46104fc3660046124f8565b611260565b6065546001600160a01b031661046a565b610296609c5481565b6102e461052936600461249a565b611311565b609b546103a49060ff1681565b610296611499565b6102e46105513660046123bc565b61150f565b610296609d5481565b6102e461056d366004612522565b611542565b6102e461058036600461249a565b61193c565b6102966119a2565b6102e4611a6c565b6102e46105a336600461254e565b611aaa565b610296609a5481565b6102e46105bf3660046123bc565b611ca8565b6102e4611d40565b6001600160a01b038116600090815260a06020908152604080832054609f909252822054670de0b6b3a7640000906106026119a2565b61060c91906125ab565b6001600160a01b038516600090815260a5602052604090205461062f91906125c2565b61063991906125e1565b6106439190612603565b92915050565b6099546001600160a01b0316331461067c5760405162461bcd60e51b81526004016106739061261b565b60405180910390fd5b6001600160a01b038316600081815260a0602052604080822091909155517fe2403640ba68fed3a2f88b7557551d1993f84b99bb10ff833f0cf8db0c5e0486906106c99085815260200190565b60405180910390a2604080516001600160a01b0385168152602081018390527f9fbc695eed6a70ae78a7532506abdb142ee788cd93f76ef3b7122561422f6367910160405180910390a1505050565b6065546001600160a01b031633146107425760405162461bcd60e51b815260040161067390612664565b61074b81611ca8565b50565b6002609754036107705760405162461bcd60e51b815260040161067390612699565b600260975560335460ff16156107985760405162461bcd60e51b8152600401610673906126d0565b336107a281611d52565b600083116107e35760405162461bcd60e51b815260206004820152600e60248201526d043616e6e6f74207374616b6520360941b6044820152606401610673565b81600a0361081257609b5460ff1661080d5760405162461bcd60e51b8152600401610673906126fa565b61085e565b81600114806108215750816002145b8061082c5750816003145b806108375750816005145b80610842575081600a145b61085e5760405162461bcd60e51b815260040161067390612757565b33600090815260a7602052604090205460ff161561088e5760405162461bcd60e51b8152600401610673906127b4565b600061089c8361016d6125c2565b6108a79060186125c2565b6108b290603c6125c2565b6108bd90603c6125c2565b905060006108ca8461116d565b90506000620f42406108dc83886125c2565b6108e691906125e1565b33600081815260a6602052604090819020815160a0810190925260609290921b6bffffffffffffffffffffffff191660c08201524260d482015260f481018990529192509080610114810160405160208183030381529060405280519060200120815260200142815260200188815260200185426109649190612603565b815260209081018590528254600181810185556000948552938290208351600590920201908155908201519281019290925560408101516002830155606081015160038301556080015160049091015560a1546109c2908790612603565b60a15560a2546109d3908290612603565b60a25533600090815260a460205260409020546109f1908790612603565b33600090815260a4602090815260408083209390935560a590522054610a18908290612603565b33600081815260a56020526040902091909155609854610a45916001600160a01b03909116903089611dc6565b604080518781526020810185905233917fa5ae833d0bb1dcd632d98a8b70973e8516812898e19bf27b70071ebc8dc52c0191015b60405180910390a25050600160975550505050565b609c5460995460405163964efe8160e01b8152306004820152600092916001600160a01b03169063964efe8190602401602060405180830381865afa158015610adb573d6000803e3d6000fd5b505050506040513d601f19601f82011682018060405250810190610aff91906127eb565b610b0991906125c2565b905090565b6001600160a01b038116600090815260a660209081526040808320805482518185028101850190935280835260609492939192909184015b82821015610baa57838290600052602060002090600502016040518060a00160405290816000820154815260200160018201548152602001600282015481526020016003820154815260200160048201548152505081526020019060010190610b46565b505050509050919050565b600260975403610bd75760405162461bcd60e51b815260040161067390612699565b600260975533610be681611d52565b60008211610c2a5760405162461bcd60e51b8152602060048201526011602482015270043616e6e6f74207769746864726177203607c1b6044820152606401610673565b33600090815260a36020526040902054610c459083906125ab565b33600090815260a3602090815260408083209390935560a590522054610c6c9083906125ab565b33600090815260a5602052604090205560a154610c8a9083906125ab565b60a15560a254610c9b9083906125ab565b60a255609854610cb5906001600160a01b03163384611e31565b60405182815233907f7084f5476618d8e60b11ef0d7d3f06914655adb8793e28ff7f018d4c76d505d5906020015b60405180910390a250506001609755565b6065546001600160a01b03163314610d1e5760405162461bcd60e51b815260040161067390612664565b610d26611e66565b565b6065546001600160a01b03163314610d525760405162461bcd60e51b815260040161067390612664565b6001600160a01b0391909116600090815260a760205260409020805460ff1916911515919091179055565b600260975403610d9f5760405162461bcd60e51b815260040161067390612699565b600260975560335460ff1615610dc75760405162461bcd60e51b8152600401610673906126d0565b33610dd181611d52565b60008311610e165760405162461bcd60e51b81526020600482015260126024820152710616d6f756e74206d757374206265203e20360741b6044820152606401610673565b81600a03610e4557609b5460ff16610e405760405162461bcd60e51b8152600401610673906126fa565b610e91565b8160011480610e545750816002145b80610e5f5750816003145b80610e6a5750816005145b80610e75575081600a145b610e915760405162461bcd60e51b815260040161067390612757565b33600090815260a7602052604090205460ff1615610ec15760405162461bcd60e51b8152600401610673906127b4565b33600090815260a36020526040902054610edc9084906125ab565b33600090815260a3602090815260408083209390935560a590522054610f039084906125ab565b33600090815260a5602052604090205560a154610f219084906125ab565b60a15560a254610f329084906125ab565b60a2556000610f438361016d6125c2565b610f4e9060186125c2565b610f5990603c6125c2565b610f6490603c6125c2565b90506000610f718461116d565b90506000620f4240610f8383886125c2565b610f8d91906125e1565b33600081815260a6602052604090819020815160a0810190925260609290921b6bffffffffffffffffffffffff191660c08201524260d482015260f4810189905291925090806101148101604051602081830303815290604052805190602001208152602001428152602001888152602001854261100b9190612603565b815260209081018590528254600181810185556000948552938290208351600590920201908155908201519281019290925560408101516002830155606081015160038301556080015160049091015560a154611069908790612603565b60a15560a25461107a908290612603565b60a25533600090815260a46020526040902054611098908790612603565b33600090815260a4602090815260408083209390935560a5905220546110bf908290612603565b33600081815260a5602090815260409182902093909355805189815292830186905290917f161a301bcf5905aaeef577b88297aafeaeca8ac180a78b87dc74c413472efbf19101610a79565b6001600160a01b038116600090815260a4602090815260408083205460a39092528220546106439190612603565b6065546001600160a01b031633146111635760405162461bcd60e51b815260040161067390612664565b610d266000611ef9565b600081600a0361118257506302faf080919050565b81600503611194575062989680919050565b816003036111a65750622dc6c0919050565b816002036111b8575062239948919050565b816001036111ca575062196fb8919050565b60405162461bcd60e51b815260206004820152601e60248201527f4e6f7420737570706f72746564207374616b696e67206475726174696f6e00006044820152606401610673565b919050565b6000609a5442106112295750609a5490565b504290565b6065546001600160a01b031633146112585760405162461bcd60e51b815260040161067390612664565b610d26611f4b565b6065546001600160a01b0316331461128a5760405162461bcd60e51b815260040161067390612664565b6098546001600160a01b03908116908316036112a557600080fd5b6112cb6112ba6065546001600160a01b031690565b6001600160a01b0384169083611e31565b604080516001600160a01b0384168152602081018390527f8c1256b8896378cd5044f80c202f9772b9d77dc85c8a6eb51967210b09bfaa28910160405180910390a15050565b6002609754036113335760405162461bcd60e51b815260040161067390612699565b600260975560335460ff161561135b5760405162461bcd60e51b8152600401610673906126d0565b3361136581611d52565b600082116113a65760405162461bcd60e51b815260206004820152600e60248201526d043616e6e6f74207374616b6520360941b6044820152606401610673565b33600090815260a7602052604090205460ff16156113d65760405162461bcd60e51b8152600401610673906127b4565b8160a1546113e49190612603565b60a15560a2546113f5908390612603565b60a25533600090815260a36020526040902054611413908390612603565b33600090815260a3602090815260408083209390935560a59052205461143a908390612603565b33600081815260a56020526040902091909155609854611467916001600160a01b03909116903085611dc6565b60405182815233907f9e71bc8eea02a63969f509818f2dafb9254532904319f9dbda79b67bd34a5f3d90602001610ce3565b6098546040805163313ce56760e01b815290516000926001600160a01b03169163313ce5679160048083019260209291908290030181865afa1580156114e3573d6000803e3d6000fd5b505050506040513d601f19601f820116820180604052508101906115079190612804565b60ff16905090565b6099546001600160a01b031633146115395760405162461bcd60e51b81526004016106739061261b565b61074b81611d52565b6002609754036115645760405162461bcd60e51b815260040161067390612699565b60026097553361157381611d52565b33600090815260a66020526040902054821061159e5733600090815260a660205260409020546115a0565b815b91506115d76040518060a0016040528060008019168152602001600081526020016000815260200160008152602001600081525090565b835b838110156117975733600090815260a66020526040902080548290811061160257611602612827565b90600052602060002090600502016000015486036117855733600090815260a66020526040902080548290811061163b5761163b612827565b600091825260208083206040805160a0810182526005909402909101805484526001808201548585015260028201548584015260038201546060860152600490910154608085015233855260a690925290922080549194509161169d916125ab565b815481106116ad576116ad612827565b906000526020600020906005020160a66000336001600160a01b03166001600160a01b0316815260200190815260200160002082815481106116f1576116f1612827565b600091825260208083208454600590930201918255600180850154908301556002808501549083015560038085015490830155600493840154939091019290925533815260a69091526040902080548061174d5761174d61283d565b600082815260208120600560001990930192830201818155600181018290556002810182905560038101829055600401559055611797565b8061178f81612853565b9150506115d9565b50805185146117da5760405162461bcd60e51b815260206004820152600f60248201526e14dd185ad9481b9bdd08199bdd5b99608a1b6044820152606401610673565b8060600151421015806117f4575060a85460ff1615156001145b6118395760405162461bcd60e51b81526020600482015260166024820152755374616b65206973207374696c6c206c6f636b65642160501b6044820152606401610673565b60408101516080820151600090620f42409061185590846125c2565b61185f91906125e1565b9050811561192e5733600090815260a460205260409020546118829083906125ab565b33600090815260a4602090815260408083209390935560a5905220546118a99082906125ab565b33600090815260a5602052604090205560a1546118c79083906125ab565b60a15560a2546118d89082906125ab565b60a2556098546118f2906001600160a01b03163384611e31565b604080518381526020810189905233917f1f70bda8ea2447de035db87c33fe8f03f7514d49c394293e5cffdb4c34352cf6910160405180910390a25b505060016097555050505050565b6065546001600160a01b031633146119665760405162461bcd60e51b815260040161067390612664565b609c8190556040518181527ffb46ca5a5e06d4540d6387b930a7c978bce0db5f449ec6b3f5d07c6e1d44f2d3906020015b60405180910390a150565b600060a1546000036119b55750609e5490565b60a25460995460405163964efe8160e01b8152306004820152670de0b6b3a7640000916001600160a01b03169063964efe8190602401602060405180830381865afa158015611a08573d6000803e3d6000fd5b505050506040513d601f19601f82011682018060405250810190611a2c91906127eb565b609d54611a37611217565b611a4191906125ab565b611a4b91906125c2565b611a5591906125c2565b611a5f91906125e1565b609e54610b099190612603565b6065546001600160a01b03163314611a965760405162461bcd60e51b815260040161067390612664565b60a8805460ff19811660ff90911615179055565b600054610100900460ff16611ac55760005460ff1615611ac9565b303b155b611b2c5760405162461bcd60e51b815260206004820152602e60248201527f496e697469616c697a61626c653a20636f6e747261637420697320616c72656160448201526d191e481a5b9a5d1a585b1a5e995960921b6064820152608401610673565b600054610100900460ff16158015611b4e576000805461ffff19166101011790555b6001600160a01b038416611ba45760405162461bcd60e51b815260206004820152601b60248201527f5374616b696e6720616464726573732063616e6e6f74206265203000000000006044820152606401610673565b6001600160a01b038316611c115760405162461bcd60e51b815260206004820152602e60248201527f5374616b696e6752657761726473446973747269627574696f6e20616464726560448201526d073732063616e6e6f7420626520360941b6064820152608401610673565b611c19611fa3565b611c21611fd2565b609880546001600160a01b038087166001600160a01b0319928316179092556099805492861692909116919091179055609b805483151560ff199182161790915562093a80609c81905560a8805490921690915542609d819055611c859190612603565b609a55611c90611f4b565b8015611ca2576000805461ff00191690555b50505050565b6065546001600160a01b03163314611cd25760405162461bcd60e51b815260040161067390612664565b6001600160a01b038116611d375760405162461bcd60e51b815260206004820152602660248201527f4f776e61626c653a206e6577206f776e657220697320746865207a65726f206160448201526564647265737360d01b6064820152608401610673565b61074b81611ef9565b609a54421115610d2657610d26612001565b609a54421115611d6957611d64612001565b611d80565b611d716119a2565b609e55611d7c611217565b609d555b6001600160a01b0381161561074b57611d98816105cc565b6001600160a01b038216600090815260a06020908152604080832093909355609e54609f9091529190205550565b6040516001600160a01b0380851660248301528316604482015260648101829052611ca29085906323b872dd60e01b906084015b60408051601f198184030181529190526020810180516001600160e01b03166001600160e01b0319909316929092179091526120ed565b6040516001600160a01b038316602482015260448101829052611e6190849063a9059cbb60e01b90606401611dfa565b505050565b60335460ff16611eaf5760405162461bcd60e51b815260206004820152601460248201527314185d5cd8589b194e881b9bdd081c185d5cd95960621b6044820152606401610673565b6033805460ff191690557f5db9ee0a495bf2e6ff9c91a7834c1ba4fdd244a5e8aa4e537bd38aeae4b073aa335b6040516001600160a01b03909116815260200160405180910390a1565b606580546001600160a01b038381166001600160a01b0319831681179093556040519116919082907f8be0079c531659141344cd1fd0a4f28419497f9722a3daafe3b4186f6b6457e090600090a35050565b60335460ff1615611f6e5760405162461bcd60e51b8152600401610673906126d0565b6033805460ff191660011790557f62e78cea01bee320cd4e420270b5ea74000d11b0c9f74754ebdbfc544b05a258611edc3390565b600054610100900460ff16611fca5760405162461bcd60e51b81526004016106739061286c565b610d266121bf565b600054610100900460ff16611ff95760405162461bcd60e51b81526004016106739061286c565b610d266121ef565b609a5442116120525760405162461bcd60e51b815260206004820152601b60248201527f506572696f6420686173206e6f742065787069726564207965742100000000006044820152606401610673565b6000609c54609a544261206591906125ab565b61206f91906125e1565b609c54909150612080826001612603565b61208a91906125c2565b609a546120979190612603565b609a556120a26119a2565b609e556120ad611217565b609d556098546040516001600160a01b0390911681527f6f2b3b3aaf1881d69a5d40565500f93ea73df36e7b6a29bf48b21479a9237fe990602001611997565b6000612142826040518060400160405280602081526020017f5361666545524332303a206c6f772d6c6576656c2063616c6c206661696c6564815250856001600160a01b03166122229092919063ffffffff16565b805190915015611e61578080602001905181019061216091906128b7565b611e615760405162461bcd60e51b815260206004820152602a60248201527f5361666545524332303a204552433230206f7065726174696f6e20646964206e6044820152691bdd081cdd58d8d9595960b21b6064820152608401610673565b600054610100900460ff166121e65760405162461bcd60e51b81526004016106739061286c565b610d2633611ef9565b600054610100900460ff166122165760405162461bcd60e51b81526004016106739061286c565b6033805460ff19169055565b6060612231848460008561223b565b90505b9392505050565b60608247101561229c5760405162461bcd60e51b815260206004820152602660248201527f416464726573733a20696e73756666696369656e742062616c616e636520666f6044820152651c8818d85b1b60d21b6064820152608401610673565b6001600160a01b0385163b6122f35760405162461bcd60e51b815260206004820152601d60248201527f416464726573733a2063616c6c20746f206e6f6e2d636f6e74726163740000006044820152606401610673565b600080866001600160a01b0316858760405161230f9190612900565b60006040518083038185875af1925050503d806000811461234c576040519150601f19603f3d011682016040523d82523d6000602084013e612351565b606091505b509150915061236182828661236c565b979650505050505050565b6060831561237b575081612234565b82511561238b5782518084602001fd5b8160405162461bcd60e51b8152600401610673919061291c565b80356001600160a01b038116811461121257600080fd5b6000602082840312156123ce57600080fd5b612234826123a5565b6000806000606084860312156123ec57600080fd5b6123f5846123a5565b95602085013595506040909401359392505050565b6000806040838503121561241d57600080fd5b50508035926020909101359150565b602080825282518282018190526000919060409081850190868401855b8281101561248d5781518051855286810151878601528581015186860152606080820151908601526080908101519085015260a09093019290850190600101612449565b5091979650505050505050565b6000602082840312156124ac57600080fd5b5035919050565b801515811461074b57600080fd5b600080604083850312156124d457600080fd5b6124dd836123a5565b915060208301356124ed816124b3565b809150509250929050565b6000806040838503121561250b57600080fd5b612514836123a5565b946020939093013593505050565b60008060006060848603121561253757600080fd5b505081359360208301359350604090920135919050565b60008060006060848603121561256357600080fd5b61256c846123a5565b925061257a602085016123a5565b9150604084013561258a816124b3565b809150509250925092565b634e487b7160e01b600052601160045260246000fd5b6000828210156125bd576125bd612595565b500390565b60008160001904831182151516156125dc576125dc612595565b500290565b6000826125fe57634e487b7160e01b600052601260045260246000fd5b500490565b6000821982111561261657612616612595565b500190565b60208082526029908201527f4f6e6c79207374616b696e67207265776172647320646973747269627574696f6040820152681b88185b1b1bddd95960ba1b606082015260800190565b6020808252818101527f4f776e61626c653a2063616c6c6572206973206e6f7420746865206f776e6572604082015260600190565b6020808252601f908201527f5265656e7472616e637947756172643a207265656e7472616e742063616c6c00604082015260600190565b60208082526010908201526f14185d5cd8589b194e881c185d5cd95960821b604082015260600190565b6020808252603e908201527f596f752063616e206f6e6c79207374616b65206c6f636b6564206c697175696460408201527f69747920313020796561727320666f72207472756520424420706f6f6c730000606082015260800190565b6020808252603e908201527f596f752063616e206f6e6c79207374616b65206c6f636b6564206c697175696460408201527f69747920666f7220312c20322c20332c2035206f722031302079656172730000606082015260800190565b6020808252601b908201527f6164647265737320686173206265656e20677265796c69737465640000000000604082015260600190565b6000602082840312156127fd57600080fd5b5051919050565b60006020828403121561281657600080fd5b815160ff8116811461223457600080fd5b634e487b7160e01b600052603260045260246000fd5b634e487b7160e01b600052603160045260246000fd5b60006001820161286557612865612595565b5060010190565b6020808252602b908201527f496e697469616c697a61626c653a20636f6e7472616374206973206e6f74206960408201526a6e697469616c697a696e6760a81b606082015260800190565b6000602082840312156128c957600080fd5b8151612234816124b3565b60005b838110156128ef5781810151838201526020016128d7565b83811115611ca25750506000910152565b600082516129128184602087016128d4565b9190910192915050565b602081526000825180602084015261293b8160408501602087016128d4565b601f01601f1916919091016040019291505056fea26469706673582212209e62d134b4a479f5ee69fbd0b91ee9e04a9c8f235d8bbc7a2d41b0c9f556438464736f6c634300080d0033",
  "devdoc": {
    "kind": "dev",
    "methods": {
      "owner()": {
        "details": "Returns the address of the current owner."
      },
      "paused()": {
        "details": "Returns true if the contract is paused, and false otherwise."
      },
      "renounceOwnership()": {
        "details": "Leaves the contract without owner. It will not be possible to call `onlyOwner` functions anymore. Can only be called by the current owner. NOTE: Renouncing ownership will leave the contract without an owner, thereby removing any functionality that is only available to the owner."
      },
      "transferOwnership(address)": {
        "details": "Transfers ownership of the contract to a new account (`newOwner`). Can only be called by the current owner."
      }
    },
    "version": 1
  },
  "userdoc": {
    "kind": "user",
    "methods": {},
    "version": 1
  },
  "storageLayout": {
    "storage": [
      {
        "astId": 130,
        "contract": "contracts/Staking/StakingRewards.sol:StakingRewards",
        "label": "_initialized",
        "offset": 0,
        "slot": "0",
        "type": "t_bool"
      },
      {
        "astId": 133,
        "contract": "contracts/Staking/StakingRewards.sol:StakingRewards",
        "label": "_initializing",
        "offset": 1,
        "slot": "0",
        "type": "t_bool"
      },
      {
        "astId": 1532,
        "contract": "contracts/Staking/StakingRewards.sol:StakingRewards",
        "label": "__gap",
        "offset": 0,
        "slot": "1",
        "type": "t_array(t_uint256)50_storage"
      },
      {
        "astId": 218,
        "contract": "contracts/Staking/StakingRewards.sol:StakingRewards",
        "label": "_paused",
        "offset": 0,
        "slot": "51",
        "type": "t_bool"
      },
      {
        "astId": 307,
        "contract": "contracts/Staking/StakingRewards.sol:StakingRewards",
        "label": "__gap",
        "offset": 0,
        "slot": "52",
        "type": "t_array(t_uint256)49_storage"
      },
      {
        "astId": 10,
        "contract": "contracts/Staking/StakingRewards.sol:StakingRewards",
        "label": "_owner",
        "offset": 0,
        "slot": "101",
        "type": "t_address"
      },
      {
        "astId": 122,
        "contract": "contracts/Staking/StakingRewards.sol:StakingRewards",
        "label": "__gap",
        "offset": 0,
        "slot": "102",
        "type": "t_array(t_uint256)49_storage"
      },
      {
        "astId": 1649,
        "contract": "contracts/Staking/StakingRewards.sol:StakingRewards",
        "label": "_status",
        "offset": 0,
        "slot": "151",
        "type": "t_uint256"
      },
      {
        "astId": 8766,
        "contract": "contracts/Staking/StakingRewards.sol:StakingRewards",
        "label": "stakingToken",
        "offset": 0,
        "slot": "152",
        "type": "t_contract(ERC20)2266"
      },
      {
        "astId": 8769,
        "contract": "contracts/Staking/StakingRewards.sol:StakingRewards",
        "label": "stakingRewardsDistribution",
        "offset": 0,
        "slot": "153",
        "type": "t_contract(StakingRewardsDistribution)11012"
      },
      {
        "astId": 8771,
        "contract": "contracts/Staking/StakingRewards.sol:StakingRewards",
        "label": "periodFinish",
        "offset": 0,
        "slot": "154",
        "type": "t_uint256"
      },
      {
        "astId": 8773,
        "contract": "contracts/Staking/StakingRewards.sol:StakingRewards",
        "label": "isTrueBdPool",
        "offset": 0,
        "slot": "155",
        "type": "t_bool"
      },
      {
        "astId": 8775,
        "contract": "contracts/Staking/StakingRewards.sol:StakingRewards",
        "label": "rewardsDurationSeconds",
        "offset": 0,
        "slot": "156",
        "type": "t_uint256"
      },
      {
        "astId": 8777,
        "contract": "contracts/Staking/StakingRewards.sol:StakingRewards",
        "label": "lastUpdateTime",
        "offset": 0,
        "slot": "157",
        "type": "t_uint256"
      },
      {
        "astId": 8779,
        "contract": "contracts/Staking/StakingRewards.sol:StakingRewards",
        "label": "rewardPerTokenStored_REWARD_PRECISION",
        "offset": 0,
        "slot": "158",
        "type": "t_uint256"
      },
      {
        "astId": 8783,
        "contract": "contracts/Staking/StakingRewards.sol:StakingRewards",
        "label": "userRewardPerTokenPaid_REWARD_PRECISION",
        "offset": 0,
        "slot": "159",
        "type": "t_mapping(t_address,t_uint256)"
      },
      {
        "astId": 8787,
        "contract": "contracts/Staking/StakingRewards.sol:StakingRewards",
        "label": "rewards",
        "offset": 0,
        "slot": "160",
        "type": "t_mapping(t_address,t_uint256)"
      },
      {
        "astId": 8789,
        "contract": "contracts/Staking/StakingRewards.sol:StakingRewards",
        "label": "_staking_token_supply",
        "offset": 0,
        "slot": "161",
        "type": "t_uint256"
      },
      {
        "astId": 8791,
        "contract": "contracts/Staking/StakingRewards.sol:StakingRewards",
        "label": "_staking_token_boosted_supply",
        "offset": 0,
        "slot": "162",
        "type": "t_uint256"
      },
      {
        "astId": 8795,
        "contract": "contracts/Staking/StakingRewards.sol:StakingRewards",
        "label": "_unlocked_balances",
        "offset": 0,
        "slot": "163",
        "type": "t_mapping(t_address,t_uint256)"
      },
      {
        "astId": 8799,
        "contract": "contracts/Staking/StakingRewards.sol:StakingRewards",
        "label": "_locked_balances",
        "offset": 0,
        "slot": "164",
        "type": "t_mapping(t_address,t_uint256)"
      },
      {
        "astId": 8803,
        "contract": "contracts/Staking/StakingRewards.sol:StakingRewards",
        "label": "_boosted_balances",
        "offset": 0,
        "slot": "165",
        "type": "t_mapping(t_address,t_uint256)"
      },
      {
        "astId": 8809,
        "contract": "contracts/Staking/StakingRewards.sol:StakingRewards",
        "label": "lockedStakes",
        "offset": 0,
        "slot": "166",
        "type": "t_mapping(t_address,t_array(t_struct(LockedStake)8826_storage)dyn_storage)"
      },
      {
        "astId": 8813,
        "contract": "contracts/Staking/StakingRewards.sol:StakingRewards",
        "label": "greylist",
        "offset": 0,
        "slot": "167",
        "type": "t_mapping(t_address,t_bool)"
      },
      {
        "astId": 8815,
        "contract": "contracts/Staking/StakingRewards.sol:StakingRewards",
        "label": "unlockedStakes",
        "offset": 0,
        "slot": "168",
        "type": "t_bool"
      }
    ],
    "types": {
      "t_address": {
        "encoding": "inplace",
        "label": "address",
        "numberOfBytes": "20"
      },
      "t_array(t_struct(LockedStake)8826_storage)dyn_storage": {
        "base": "t_struct(LockedStake)8826_storage",
        "encoding": "dynamic_array",
        "label": "struct StakingRewards.LockedStake[]",
        "numberOfBytes": "32"
      },
      "t_array(t_uint256)49_storage": {
        "base": "t_uint256",
        "encoding": "inplace",
        "label": "uint256[49]",
        "numberOfBytes": "1568"
      },
      "t_array(t_uint256)50_storage": {
        "base": "t_uint256",
        "encoding": "inplace",
        "label": "uint256[50]",
        "numberOfBytes": "1600"
      },
      "t_bool": {
        "encoding": "inplace",
        "label": "bool",
        "numberOfBytes": "1"
      },
      "t_bytes32": {
        "encoding": "inplace",
        "label": "bytes32",
        "numberOfBytes": "32"
      },
      "t_contract(ERC20)2266": {
        "encoding": "inplace",
        "label": "contract ERC20",
        "numberOfBytes": "20"
      },
      "t_contract(StakingRewardsDistribution)11012": {
        "encoding": "inplace",
        "label": "contract StakingRewardsDistribution",
        "numberOfBytes": "20"
      },
      "t_mapping(t_address,t_array(t_struct(LockedStake)8826_storage)dyn_storage)": {
        "encoding": "mapping",
        "key": "t_address",
        "label": "mapping(address => struct StakingRewards.LockedStake[])",
        "numberOfBytes": "32",
        "value": "t_array(t_struct(LockedStake)8826_storage)dyn_storage"
      },
      "t_mapping(t_address,t_bool)": {
        "encoding": "mapping",
        "key": "t_address",
        "label": "mapping(address => bool)",
        "numberOfBytes": "32",
        "value": "t_bool"
      },
      "t_mapping(t_address,t_uint256)": {
        "encoding": "mapping",
        "key": "t_address",
        "label": "mapping(address => uint256)",
        "numberOfBytes": "32",
        "value": "t_uint256"
      },
      "t_struct(LockedStake)8826_storage": {
        "encoding": "inplace",
        "label": "struct StakingRewards.LockedStake",
        "members": [
          {
            "astId": 8817,
            "contract": "contracts/Staking/StakingRewards.sol:StakingRewards",
            "label": "kek_id",
            "offset": 0,
            "slot": "0",
            "type": "t_bytes32"
          },
          {
            "astId": 8819,
            "contract": "contracts/Staking/StakingRewards.sol:StakingRewards",
            "label": "start_timestamp",
            "offset": 0,
            "slot": "1",
            "type": "t_uint256"
          },
          {
            "astId": 8821,
            "contract": "contracts/Staking/StakingRewards.sol:StakingRewards",
            "label": "amount",
            "offset": 0,
            "slot": "2",
            "type": "t_uint256"
          },
          {
            "astId": 8823,
            "contract": "contracts/Staking/StakingRewards.sol:StakingRewards",
            "label": "ending_timestamp",
            "offset": 0,
            "slot": "3",
            "type": "t_uint256"
          },
          {
            "astId": 8825,
            "contract": "contracts/Staking/StakingRewards.sol:StakingRewards",
            "label": "multiplier_LOCK_MULTIPLIER_PRECISION",
            "offset": 0,
            "slot": "4",
            "type": "t_uint256"
          }
        ],
        "numberOfBytes": "160"
      },
      "t_uint256": {
        "encoding": "inplace",
        "label": "uint256",
        "numberOfBytes": "32"
      }
    }
  }
}