{
  "address": "0x1E4fC550FFC62b6345f12CC18A305bf65e65c3b6",
  "abi": [
    {
      "anonymous": false,
      "inputs": [
        {
          "indexed": true,
          "internalType": "address",
          "name": "user",
          "type": "address"
        },
        {
          "indexed": false,
          "internalType": "uint256",
          "name": "amount",
          "type": "uint256"
        },
        {
          "indexed": false,
          "internalType": "uint256",
          "name": "secs",
          "type": "uint256"
        }
      ],
      "name": "ExistingStakeLocked",
      "type": "event"
    },
    {
      "anonymous": false,
      "inputs": [
        {
          "indexed": true,
          "internalType": "address",
          "name": "previousOwner",
          "type": "address"
        },
        {
          "indexed": true,
          "internalType": "address",
          "name": "newOwner",
          "type": "address"
        }
      ],
      "name": "OwnershipTransferred",
      "type": "event"
    },
    {
      "anonymous": false,
      "inputs": [
        {
          "indexed": false,
          "internalType": "address",
          "name": "account",
          "type": "address"
        }
      ],
      "name": "Paused",
      "type": "event"
    },
    {
      "anonymous": false,
      "inputs": [
        {
          "indexed": false,
          "internalType": "address",
          "name": "token",
          "type": "address"
        },
        {
          "indexed": false,
          "internalType": "uint256",
          "name": "amount",
          "type": "uint256"
        }
      ],
      "name": "Recovered",
      "type": "event"
    },
    {
      "anonymous": false,
      "inputs": [
        {
          "indexed": true,
          "internalType": "address",
          "name": "user",
          "type": "address"
        },
        {
          "indexed": false,
          "internalType": "uint256",
          "name": "reward",
          "type": "uint256"
        }
      ],
      "name": "RewardPaid",
      "type": "event"
    },
    {
      "anonymous": false,
      "inputs": [
        {
          "indexed": false,
          "internalType": "address",
          "name": "user",
          "type": "address"
        },
        {
          "indexed": false,
          "internalType": "uint256",
          "name": "amount",
          "type": "uint256"
        }
      ],
      "name": "RewardVested",
      "type": "event"
    },
    {
      "anonymous": false,
      "inputs": [
        {
          "indexed": false,
          "internalType": "uint256",
          "name": "newDuration",
          "type": "uint256"
        }
      ],
      "name": "RewardsDurationUpdated",
      "type": "event"
    },
    {
      "anonymous": false,
      "inputs": [
        {
          "indexed": false,
          "internalType": "address",
          "name": "token",
          "type": "address"
        }
      ],
      "name": "RewardsPeriodRenewed",
      "type": "event"
    },
    {
      "anonymous": false,
      "inputs": [
        {
          "indexed": true,
          "internalType": "address",
          "name": "user",
          "type": "address"
        },
        {
          "indexed": false,
          "internalType": "uint256",
          "name": "amount",
          "type": "uint256"
        },
        {
          "indexed": false,
          "internalType": "uint256",
          "name": "secs",
          "type": "uint256"
        }
      ],
      "name": "StakeLocked",
      "type": "event"
    },
    {
      "anonymous": false,
      "inputs": [
        {
          "indexed": true,
          "internalType": "address",
          "name": "user",
          "type": "address"
        },
        {
          "indexed": false,
          "internalType": "uint256",
          "name": "amount",
          "type": "uint256"
        }
      ],
      "name": "Staked",
      "type": "event"
    },
    {
      "anonymous": false,
      "inputs": [
        {
          "indexed": false,
          "internalType": "address",
          "name": "account",
          "type": "address"
        }
      ],
      "name": "Unpaused",
      "type": "event"
    },
    {
      "anonymous": false,
      "inputs": [
        {
          "indexed": true,
          "internalType": "address",
          "name": "user",
          "type": "address"
        },
        {
          "indexed": false,
          "internalType": "uint256",
          "name": "amount",
          "type": "uint256"
        }
      ],
      "name": "Withdrawn",
      "type": "event"
    },
    {
      "anonymous": false,
      "inputs": [
        {
          "indexed": true,
          "internalType": "address",
          "name": "user",
          "type": "address"
        },
        {
          "indexed": false,
          "internalType": "uint256",
          "name": "amount",
          "type": "uint256"
        },
        {
          "indexed": false,
          "internalType": "bytes32",
          "name": "kek_id",
          "type": "bytes32"
        }
      ],
      "name": "WithdrawnLocked",
      "type": "event"
    },
    {
      "inputs": [],
      "name": "LOCK_MULTIPLIER_PRECISION",
      "outputs": [
        {
          "internalType": "uint256",
          "name": "",
          "type": "uint256"
        }
      ],
      "stateMutability": "view",
      "type": "function"
    },
    {
      "inputs": [],
      "name": "REWARD_PRECISION",
      "outputs": [
        {
          "internalType": "uint256",
          "name": "",
          "type": "uint256"
        }
      ],
      "stateMutability": "view",
      "type": "function"
    },
    {
      "inputs": [
        {
          "internalType": "address",
          "name": "account",
          "type": "address"
        }
      ],
      "name": "balanceOf",
      "outputs": [
        {
          "internalType": "uint256",
          "name": "",
          "type": "uint256"
        }
      ],
      "stateMutability": "view",
      "type": "function"
    },
    {
      "inputs": [
        {
          "internalType": "address",
          "name": "account",
          "type": "address"
        }
      ],
      "name": "boostedBalanceOf",
      "outputs": [
        {
          "internalType": "uint256",
          "name": "",
          "type": "uint256"
        }
      ],
      "stateMutability": "view",
      "type": "function"
    },
    {
      "inputs": [
        {
          "internalType": "address",
          "name": "account",
          "type": "address"
        }
      ],
      "name": "earned",
      "outputs": [
        {
          "internalType": "uint256",
          "name": "",
          "type": "uint256"
        }
      ],
      "stateMutability": "view",
      "type": "function"
    },
    {
      "inputs": [],
      "name": "getRewardForDuration",
      "outputs": [
        {
          "internalType": "uint256",
          "name": "",
          "type": "uint256"
        }
      ],
      "stateMutability": "view",
      "type": "function"
    },
    {
      "inputs": [
        {
          "internalType": "address",
          "name": "",
          "type": "address"
        }
      ],
      "name": "greylist",
      "outputs": [
        {
          "internalType": "bool",
          "name": "",
          "type": "bool"
        }
      ],
      "stateMutability": "view",
      "type": "function"
    },
    {
      "inputs": [
        {
          "internalType": "address",
          "name": "_stakingToken",
          "type": "address"
        },
        {
          "internalType": "address",
          "name": "_stakingRewardsDistribution",
          "type": "address"
        },
        {
          "internalType": "bool",
          "name": "_isTrueBdPool",
          "type": "bool"
        }
      ],
      "name": "initialize",
      "outputs": [],
      "stateMutability": "nonpayable",
      "type": "function"
    },
    {
      "inputs": [],
      "name": "isTrueBdPool",
      "outputs": [
        {
          "internalType": "bool",
          "name": "",
          "type": "bool"
        }
      ],
      "stateMutability": "view",
      "type": "function"
    },
    {
      "inputs": [],
      "name": "lastTimeRewardApplicable",
      "outputs": [
        {
          "internalType": "uint256",
          "name": "",
          "type": "uint256"
        }
      ],
      "stateMutability": "view",
      "type": "function"
    },
    {
      "inputs": [],
      "name": "lastUpdateTime",
      "outputs": [
        {
          "internalType": "uint256",
          "name": "",
          "type": "uint256"
        }
      ],
      "stateMutability": "view",
      "type": "function"
    },
    {
      "inputs": [
        {
          "internalType": "uint256",
          "name": "amount",
          "type": "uint256"
        },
        {
          "internalType": "uint256",
          "name": "yearsNo",
          "type": "uint256"
        }
      ],
      "name": "lockExistingStake",
      "outputs": [],
      "stateMutability": "nonpayable",
      "type": "function"
    },
    {
      "inputs": [
        {
          "internalType": "address",
          "name": "account",
          "type": "address"
        }
      ],
      "name": "lockedBalanceOf",
      "outputs": [
        {
          "internalType": "uint256",
          "name": "",
          "type": "uint256"
        }
      ],
      "stateMutability": "view",
      "type": "function"
    },
    {
      "inputs": [
        {
          "internalType": "address",
          "name": "account",
          "type": "address"
        }
      ],
      "name": "lockedStakesOf",
      "outputs": [
        {
          "components": [
            {
              "internalType": "bytes32",
              "name": "kek_id",
              "type": "bytes32"
            },
            {
              "internalType": "uint256",
              "name": "start_timestamp",
              "type": "uint256"
            },
            {
              "internalType": "uint256",
              "name": "amount",
              "type": "uint256"
            },
            {
              "internalType": "uint256",
              "name": "ending_timestamp",
              "type": "uint256"
            },
            {
              "internalType": "uint256",
              "name": "multiplier_LOCK_MULTIPLIER_PRECISION",
              "type": "uint256"
            }
          ],
          "internalType": "struct StakingRewards.LockedStake[]",
          "name": "",
          "type": "tuple[]"
        }
      ],
      "stateMutability": "view",
      "type": "function"
    },
    {
      "inputs": [
        {
          "internalType": "uint256",
          "name": "yearsNo",
          "type": "uint256"
        }
      ],
      "name": "lockedStakingMultiplier_LOCK_MULTIPLIER_PRECISION",
      "outputs": [
        {
          "internalType": "uint256",
          "name": "",
          "type": "uint256"
        }
      ],
      "stateMutability": "pure",
      "type": "function"
    },
    {
      "inputs": [],
      "name": "owner",
      "outputs": [
        {
          "internalType": "address",
          "name": "",
          "type": "address"
        }
      ],
      "stateMutability": "view",
      "type": "function"
    },
    {
      "inputs": [],
      "name": "pause",
      "outputs": [],
      "stateMutability": "nonpayable",
      "type": "function"
    },
    {
      "inputs": [],
      "name": "paused",
      "outputs": [
        {
          "internalType": "bool",
          "name": "",
          "type": "bool"
        }
      ],
      "stateMutability": "view",
      "type": "function"
    },
    {
      "inputs": [],
      "name": "periodFinish",
      "outputs": [
        {
          "internalType": "uint256",
          "name": "",
          "type": "uint256"
        }
      ],
      "stateMutability": "view",
      "type": "function"
    },
    {
      "inputs": [
        {
          "internalType": "address",
          "name": "tokenAddress",
          "type": "address"
        },
        {
          "internalType": "uint256",
          "name": "tokenAmount",
          "type": "uint256"
        }
      ],
      "name": "recoverERC20",
      "outputs": [],
      "stateMutability": "nonpayable",
      "type": "function"
    },
    {
      "inputs": [
        {
          "internalType": "address",
          "name": "user",
          "type": "address"
        },
        {
          "internalType": "uint256",
          "name": "immediatelyReleasedReward",
          "type": "uint256"
        },
        {
          "internalType": "uint256",
          "name": "vestedReward",
          "type": "uint256"
        }
      ],
      "name": "releaseReward",
      "outputs": [],
      "stateMutability": "nonpayable",
      "type": "function"
    },
    {
      "inputs": [],
      "name": "renewIfApplicable",
      "outputs": [],
      "stateMutability": "nonpayable",
      "type": "function"
    },
    {
      "inputs": [],
      "name": "renounceOwnership",
      "outputs": [],
      "stateMutability": "nonpayable",
      "type": "function"
    },
    {
      "inputs": [],
      "name": "rewardPerToken",
      "outputs": [
        {
          "internalType": "uint256",
          "name": "",
          "type": "uint256"
        }
      ],
      "stateMutability": "view",
      "type": "function"
    },
    {
      "inputs": [],
      "name": "rewardPerTokenStored_REWARD_PRECISION",
      "outputs": [
        {
          "internalType": "uint256",
          "name": "",
          "type": "uint256"
        }
      ],
      "stateMutability": "view",
      "type": "function"
    },
    {
      "inputs": [
        {
          "internalType": "address",
          "name": "",
          "type": "address"
        }
      ],
      "name": "rewards",
      "outputs": [
        {
          "internalType": "uint256",
          "name": "",
          "type": "uint256"
        }
      ],
      "stateMutability": "view",
      "type": "function"
    },
    {
      "inputs": [],
      "name": "rewardsDurationSeconds",
      "outputs": [
        {
          "internalType": "uint256",
          "name": "",
          "type": "uint256"
        }
      ],
      "stateMutability": "view",
      "type": "function"
    },
    {
      "inputs": [
        {
          "internalType": "address",
          "name": "_address",
          "type": "address"
        },
        {
          "internalType": "bool",
          "name": "isGraylisted",
          "type": "bool"
        }
      ],
      "name": "setIsAddressGraylisted",
      "outputs": [],
      "stateMutability": "nonpayable",
      "type": "function"
    },
    {
      "inputs": [
        {
          "internalType": "address",
          "name": "_new_owner",
          "type": "address"
        }
      ],
      "name": "setOwner",
      "outputs": [],
      "stateMutability": "nonpayable",
      "type": "function"
    },
    {
      "inputs": [
        {
          "internalType": "uint256",
          "name": "_rewardsDurationSeconds",
          "type": "uint256"
        }
      ],
      "name": "setRewardsDuration",
      "outputs": [],
      "stateMutability": "nonpayable",
      "type": "function"
    },
    {
      "inputs": [
        {
          "internalType": "uint256",
          "name": "amount",
          "type": "uint256"
        }
      ],
      "name": "stake",
      "outputs": [],
      "stateMutability": "nonpayable",
      "type": "function"
    },
    {
      "inputs": [
        {
          "internalType": "uint256",
          "name": "amount",
          "type": "uint256"
        },
        {
          "internalType": "uint256",
          "name": "yearsNo",
          "type": "uint256"
        }
      ],
      "name": "stakeLocked",
      "outputs": [],
      "stateMutability": "nonpayable",
      "type": "function"
    },
    {
      "inputs": [],
      "name": "stakingDecimals",
      "outputs": [
        {
          "internalType": "uint256",
          "name": "",
          "type": "uint256"
        }
      ],
      "stateMutability": "view",
      "type": "function"
    },
    {
      "inputs": [],
      "name": "stakingToken",
      "outputs": [
        {
          "internalType": "contract ERC20",
          "name": "",
          "type": "address"
        }
      ],
      "stateMutability": "view",
      "type": "function"
    },
    {
      "inputs": [],
      "name": "toggleUnlockStakes",
      "outputs": [],
      "stateMutability": "nonpayable",
      "type": "function"
    },
    {
      "inputs": [],
      "name": "totalBoostedSupply",
      "outputs": [
        {
          "internalType": "uint256",
          "name": "",
          "type": "uint256"
        }
      ],
      "stateMutability": "view",
      "type": "function"
    },
    {
      "inputs": [],
      "name": "totalSupply",
      "outputs": [
        {
          "internalType": "uint256",
          "name": "",
          "type": "uint256"
        }
      ],
      "stateMutability": "view",
      "type": "function"
    },
    {
      "inputs": [
        {
          "internalType": "address",
          "name": "newOwner",
          "type": "address"
        }
      ],
      "name": "transferOwnership",
      "outputs": [],
      "stateMutability": "nonpayable",
      "type": "function"
    },
    {
      "inputs": [
        {
          "internalType": "address",
          "name": "account",
          "type": "address"
        }
      ],
      "name": "unlockedBalanceOf",
      "outputs": [
        {
          "internalType": "uint256",
          "name": "",
          "type": "uint256"
        }
      ],
      "stateMutability": "view",
      "type": "function"
    },
    {
      "inputs": [],
      "name": "unlockedStakes",
      "outputs": [
        {
          "internalType": "bool",
          "name": "",
          "type": "bool"
        }
      ],
      "stateMutability": "view",
      "type": "function"
    },
    {
      "inputs": [],
      "name": "unpause",
      "outputs": [],
      "stateMutability": "nonpayable",
      "type": "function"
    },
    {
      "inputs": [
        {
          "internalType": "address",
          "name": "account",
          "type": "address"
        }
      ],
      "name": "updateUserReward",
      "outputs": [],
      "stateMutability": "nonpayable",
      "type": "function"
    },
    {
      "inputs": [
        {
          "internalType": "address",
          "name": "",
          "type": "address"
        }
      ],
      "name": "userRewardPerTokenPaid_REWARD_PRECISION",
      "outputs": [
        {
          "internalType": "uint256",
          "name": "",
          "type": "uint256"
        }
      ],
      "stateMutability": "view",
      "type": "function"
    },
    {
      "inputs": [
        {
          "internalType": "uint256",
          "name": "amount",
          "type": "uint256"
        }
      ],
      "name": "withdraw",
      "outputs": [],
      "stateMutability": "nonpayable",
      "type": "function"
    },
    {
      "inputs": [
        {
          "internalType": "bytes32",
          "name": "kek_id",
          "type": "bytes32"
        },
        {
          "internalType": "uint256",
          "name": "from",
          "type": "uint256"
        },
        {
          "internalType": "uint256",
          "name": "to",
          "type": "uint256"
        }
      ],
      "name": "withdrawLocked",
      "outputs": [],
      "stateMutability": "nonpayable",
      "type": "function"
    }
  ],
  "transactionHash": "0x18bf9118a641dc7f32e34da039764bab4a66ec0caa74a08e6b977e0887a87d1f",
  "args": [],
  "solcInputHash": "7b0c776c18ef8b0dd9e64b429dba7804",
  "bytecode": "0x608060405234801561001057600080fd5b50612db0806100206000396000f3fe608060405234801561001057600080fd5b506004361061027e5760003560e01c8063715018a61161015c578063bf1b71a5116100ce578063cd3daf9d11610087578063cd3daf9d146104e1578063d96eb3f4146104e9578063e4bbb5a8146104f1578063ebe2b12b14610504578063f2fde38b1461050c578063fee2eae61461051f5761027e565b8063bf1b71a514610490578063c11f534414610498578063c6d6916c146104a0578063c8f33c91146104b3578063c92e1c2d146104bb578063cc1a378f146104ce5761027e565b806384955c881161012057806384955c881461043457806387bf5b66146104475780638980f11f1461045a5780638da5cb5b1461046d57806399a9cfc614610475578063a694fc3a1461047d5761027e565b8063715018a6146103f457806372f702f3146103fc57806380060d491461041157806380faa57d146104245780638456cb591461042c5761027e565b80632e1a7d4d116101f55780633f4ba83a116101b95780633f4ba83a1461039857806359355736146103a05780635bb2a8f6146103b35780635c975abb146103c65780635f687ebb146103ce57806370a08231146103e15761027e565b80632e1a7d4d1461034d57806331ca208c14610360578063399f5467146103805780633a88e1d0146103885780633d6aa5e1146103905761027e565b806317b18c891161024757806317b18c89146102ef57806318160ddd146103025780631beabcd21461030a5780631c1f78eb1461031d5780631e090f0114610325578063262696d4146103455761027e565b80628cc262146102835780630700037d146102ac5780630dda7299146102bf5780630f24ce00146102c757806313af4035146102dc575b600080fd5b610296610291366004612415565b610527565b6040516102a39190612d14565b60405180910390f35b6102966102ba366004612415565b6105a7565b6102966105b9565b6102da6102d53660046124db565b6105c0565b005b6102da6102ea366004612415565b610624565b6102da6102fd366004612585565b61066f565b61029661094f565b610296610318366004612415565b610955565b610296610970565b610338610333366004612415565b610a07565b6040516102a3919061265e565b610296610aae565b6102da61035b366004612555565b610ab4565b61037361036e366004612415565b610bd7565b6040516102a391906126cc565b610373610bec565b610296610bf5565b610296610bfc565b6102da610c08565b6102966103ae366004612415565b610c51565b6102da6103c136600461247a565b610c6c565b610373610cd6565b6102da6103dc366004612585565b610cdf565b6102966103ef366004612415565b610ff8565b6102da611025565b6104046110ae565b6040516102a3919061260d565b61029661041f366004612555565b6110bd565b610296611137565b6102da61114f565b610296610442366004612415565b611196565b610296610455366004612415565b6111b1565b6102da6104683660046124b1565b6111c3565b610404611276565b610296611285565b6102da61048b366004612555565b61128b565b6103736113f8565b610296611401565b6102da6104ae366004612415565b611486565b6102966114b9565b6102da6104c936600461252a565b6114bf565b6102da6104dc366004612555565b611812565b610296611891565b6102da611962565b6102da6104ff366004612430565b6119b5565b610296611b02565b6102da61051a366004612415565b611b08565b6102da611bc9565b6001600160a01b038116600090815260a06020908152604080832054609f90925282205461059f919061059990670de0b6b3a764000090610593906105749061056e611891565b90611bdb565b6001600160a01b038816600090815260a5602052604090205490611c08565b90611c49565b90611c7b565b90505b919050565b60a06020526000908152604090205481565b60a2545b90565b6105c8611ca0565b6001600160a01b03166105d9611276565b6001600160a01b0316146106085760405162461bcd60e51b81526004016105ff90612b79565b60405180910390fd5b50506001600160a01b0316600090815260a06020526040812055565b61062c611ca0565b6001600160a01b031661063d611276565b6001600160a01b0316146106635760405162461bcd60e51b81526004016105ff90612b79565b61066c81611b08565b50565b600260975414156106925760405162461bcd60e51b81526004016105ff90612cdd565b600260975561069f610cd6565b156106bc5760405162461bcd60e51b81526004016105ff90612a4c565b336106c681611ca4565b600083116106e65760405162461bcd60e51b81526004016105ff906128a5565b81600a141561071657609b5460ff166107115760405162461bcd60e51b81526004016105ff906129ef565b610762565b81600114806107255750816002145b806107305750816003145b8061073b5750816005145b80610746575081600a145b6107625760405162461bcd60e51b81526004016105ff90612741565b33600090815260a7602052604090205460ff16156107925760405162461bcd60e51b81526004016105ff9061270a565b6301e13380820260006107a4846110bd565b905060006107b9620f42406105938885611c08565b33600081815260a6602052604090819020815160a081019092529293509081906107e890428b60c085016125c7565b6040516020818303038152906040528051906020012081526020014281526020018881526020016108228642611c7b90919063ffffffff16565b815260209081018590528254600181810185556000948552938290208351600590920201908155908201519281019290925560408101516002830155606081015160038301556080015160049091015560a15461087f9087611c7b565b60a15560a25461088f9082611c7b565b60a25533600090815260a460205260409020546108ac9087611c7b565b33600090815260a4602090815260408083209390935560a5905220546108d29082611c7b565b33600081815260a560205260409020919091556098546108ff916001600160a01b03909116903089611d18565b336001600160a01b03167fa5ae833d0bb1dcd632d98a8b70973e8516812898e19bf27b70071ebc8dc52c01878560405161093a929190612d1d565b60405180910390a25050600160975550505050565b60a15490565b6001600160a01b0316600090815260a5602052604090205490565b609c5460995460405163964efe8160e01b8152600092610a029290916001600160a01b039091169063964efe81906109ac90309060040161260d565b60206040518083038186803b1580156109c457600080fd5b505afa1580156109d8573d6000803e3d6000fd5b505050506040513d601f19601f820116820180604052508101906109fc919061256d565b90611c08565b905090565b6001600160a01b038116600090815260a660209081526040808320805482518185028101850190935280835260609492939192909184015b82821015610aa357838290600052602060002090600502016040518060a00160405290816000820154815260200160018201548152602001600282015481526020016003820154815260200160048201548152505081526020019060010190610a3f565b505050509050919050565b609e5481565b60026097541415610ad75760405162461bcd60e51b81526004016105ff90612cdd565b600260975533610ae681611ca4565b60008211610b065760405162461bcd60e51b81526004016105ff90612ac4565b33600090815260a36020526040902054610b209083611bdb565b33600090815260a3602090815260408083209390935560a590522054610b469083611bdb565b33600090815260a5602052604090205560a154610b639083611bdb565b60a15560a254610b739083611bdb565b60a255609854610b8d906001600160a01b03163384611d70565b336001600160a01b03167f7084f5476618d8e60b11ef0d7d3f06914655adb8793e28ff7f018d4c76d505d583604051610bc69190612d14565b60405180910390a250506001609755565b60a76020526000908152604090205460ff1681565b60a85460ff1681565b620f424081565b670de0b6b3a764000081565b610c10611ca0565b6001600160a01b0316610c21611276565b6001600160a01b031614610c475760405162461bcd60e51b81526004016105ff90612b79565b610c4f611d94565b565b6001600160a01b0316600090815260a4602052604090205490565b610c74611ca0565b6001600160a01b0316610c85611276565b6001600160a01b031614610cab5760405162461bcd60e51b81526004016105ff90612b79565b6001600160a01b0391909116600090815260a760205260409020805460ff1916911515919091179055565b60335460ff1690565b60026097541415610d025760405162461bcd60e51b81526004016105ff90612cdd565b6002609755610d0f610cd6565b15610d2c5760405162461bcd60e51b81526004016105ff90612a4c565b33610d3681611ca4565b60008311610d565760405162461bcd60e51b81526004016105ff906127fc565b81600a1415610d8657609b5460ff16610d815760405162461bcd60e51b81526004016105ff906129ef565b610dd2565b8160011480610d955750816002145b80610da05750816003145b80610dab5750816005145b80610db6575081600a145b610dd25760405162461bcd60e51b81526004016105ff90612741565b33600090815260a7602052604090205460ff1615610e025760405162461bcd60e51b81526004016105ff9061270a565b33600090815260a36020526040902054610e1c9084611bdb565b33600090815260a3602090815260408083209390935560a590522054610e429084611bdb565b33600090815260a5602052604090205560a154610e5f9084611bdb565b60a15560a254610e6f9084611bdb565b60a2556301e1338082026000610e84846110bd565b90506000610e99620f42406105938885611c08565b33600081815260a6602052604090819020815160a08101909252929350908190610ec890428b60c085016125c7565b604051602081830303815290604052805190602001208152602001428152602001888152602001610f028642611c7b90919063ffffffff16565b815260209081018590528254600181810185556000948552938290208351600590920201908155908201519281019290925560408101516002830155606081015160038301556080015160049091015560a154610f5f9087611c7b565b60a15560a254610f6f9082611c7b565b60a25533600090815260a46020526040902054610f8c9087611c7b565b33600090815260a4602090815260408083209390935560a590522054610fb29082611c7b565b33600081815260a56020526040908190209290925590517f161a301bcf5905aaeef577b88297aafeaeca8ac180a78b87dc74c413472efbf19061093a9089908790612d1d565b6001600160a01b038116600090815260a4602090815260408083205460a390925282205461059f91611c7b565b61102d611ca0565b6001600160a01b031661103e611276565b6001600160a01b0316146110645760405162461bcd60e51b81526004016105ff90612b79565b6065546040516000916001600160a01b0316907f8be0079c531659141344cd1fd0a4f28419497f9722a3daafe3b4186f6b6457e0908390a3606580546001600160a01b0319169055565b6098546001600160a01b031681565b600081600a14156110d357506302faf0806105a2565b81600514156110e65750629896806105a2565b81600314156110f95750622dc6c06105a2565b816002141561110c5750622399486105a2565b816001141561111f575062196fb86105a2565b60405162461bcd60e51b81526004016105ff90612bae565b6000609a54421061114a57609a54610a02565b504290565b611157611ca0565b6001600160a01b0316611168611276565b6001600160a01b03161461118e5760405162461bcd60e51b81526004016105ff90612b79565b610c4f611e02565b6001600160a01b0316600090815260a3602052604090205490565b609f6020526000908152604090205481565b6111cb611ca0565b6001600160a01b03166111dc611276565b6001600160a01b0316146112025760405162461bcd60e51b81526004016105ff90612b79565b6098546001600160a01b038381169116141561121d57600080fd5b611239611228611276565b6001600160a01b0384169083611d70565b7f8c1256b8896378cd5044f80c202f9772b9d77dc85c8a6eb51967210b09bfaa28828260405161126a929190612645565b60405180910390a15050565b6065546001600160a01b031690565b609c5481565b600260975414156112ae5760405162461bcd60e51b81526004016105ff90612cdd565b60026097556112bb610cd6565b156112d85760405162461bcd60e51b81526004016105ff90612a4c565b336112e281611ca4565b600082116113025760405162461bcd60e51b81526004016105ff906128a5565b33600090815260a7602052604090205460ff16156113325760405162461bcd60e51b81526004016105ff9061270a565b60a15461133f9083611c7b565b60a15560a25461134f9083611c7b565b60a25533600090815260a3602052604090205461136c9083611c7b565b33600090815260a3602090815260408083209390935560a5905220546113929083611c7b565b33600081815260a560205260409020919091556098546113bf916001600160a01b03909116903085611d18565b336001600160a01b03167f9e71bc8eea02a63969f509818f2dafb9254532904319f9dbda79b67bd34a5f3d83604051610bc69190612d14565b609b5460ff1681565b6098546040805163313ce56760e01b815290516000926001600160a01b03169163313ce567916004808301926020929190829003018186803b15801561144657600080fd5b505afa15801561145a573d6000803e3d6000fd5b505050506040513d601f19601f8201168201806040525081019061147e91906125a6565b60ff16905090565b6099546001600160a01b031633146114b05760405162461bcd60e51b81526004016105ff90612aef565b61066c81611ca4565b609d5481565b600260975414156114e25760405162461bcd60e51b81526004016105ff90612cdd565b6002609755336114f181611ca4565b33600090815260a66020526040902054821061151c5733600090815260a6602052604090205461151e565b815b91506115286123cc565b835b838110156116b95733600090815260a66020526040902080548290811061154d57fe5b9060005260206000209060050201600001548614156116b15733600090815260a66020526040902080548290811061158157fe5b600091825260208083206040805160a0810182526005909402909101805484526001810154848401526002810154848301526003810154606085015260040154608084015233845260a690915290912080549193509060001981019081106115e557fe5b906000526020600020906005020160a66000336001600160a01b03166001600160a01b03168152602001908152602001600020828154811061162357fe5b600091825260208083208454600590930201918255600180850154908301556002808501549083015560038085015490830155600493840154939091019290925533815260a69091526040902080548061167957fe5b6000828152602081206005600019909301928302018181556001810182905560028101829055600381018290556004015590556116b9565b60010161152a565b50805185146116da5760405162461bcd60e51b81526004016105ff90612be5565b8060600151421015806116f4575060a85460ff1615156001145b6117105760405162461bcd60e51b81526004016105ff906127cc565b6040810151608082015160009061173190620f424090610593908590611c08565b905081156118045733600090815260a460205260409020546117539083611bdb565b33600090815260a4602090815260408083209390935560a5905220546117799082611bdb565b33600090815260a5602052604090205560a1546117969083611bdb565b60a15560a2546117a69082611bdb565b60a2556098546117c0906001600160a01b03163384611d70565b336001600160a01b03167f1f70bda8ea2447de035db87c33fe8f03f7514d49c394293e5cffdb4c34352cf683896040516117fb929190612d1d565b60405180910390a25b505060016097555050505050565b61181a611ca0565b6001600160a01b031661182b611276565b6001600160a01b0316146118515760405162461bcd60e51b81526004016105ff90612b79565b609c8190556040517ffb46ca5a5e06d4540d6387b930a7c978bce0db5f449ec6b3f5d07c6e1d44f2d390611886908390612d14565b60405180910390a150565b600060a154600014156118a75750609e546105bd565b60a25460995460405163964efe8160e01b815261195b9261195292909161059391670de0b6b3a7640000916109fc916001600160a01b03169063964efe81906118f490309060040161260d565b60206040518083038186803b15801561190c57600080fd5b505afa158015611920573d6000803e3d6000fd5b505050506040513d601f19601f82011682018060405250810190611944919061256d565b6109fc609d5461056e611137565b609e5490611c7b565b90506105bd565b61196a611ca0565b6001600160a01b031661197b611276565b6001600160a01b0316146119a15760405162461bcd60e51b81526004016105ff90612b79565b60a8805460ff19811660ff90911615179055565b600054610100900460ff16806119ce57506119ce611e5d565b806119dc575060005460ff16155b6119f85760405162461bcd60e51b81526004016105ff90612a76565b600054610100900460ff16158015611a23576000805460ff1961ff0019909116610100171660011790555b6001600160a01b038416611a495760405162461bcd60e51b81526004016105ff9061286e565b6001600160a01b038316611a6f5760405162461bcd60e51b81526004016105ff90612c45565b611a77611e6e565b611a7f611f00565b609880546001600160a01b038087166001600160a01b0319928316179092556099805492861692909116919091179055609b805483151560ff199182161790915562093a80609c81905560a8805490921690915542609d819055611ae291611c7b565b609a5560016097558015611afc576000805461ff00191690555b50505050565b609a5481565b611b10611ca0565b6001600160a01b0316611b21611276565b6001600160a01b031614611b475760405162461bcd60e51b81526004016105ff90612b79565b6001600160a01b038116611b6d5760405162461bcd60e51b81526004016105ff90612828565b6065546040516001600160a01b038084169216907f8be0079c531659141344cd1fd0a4f28419497f9722a3daafe3b4186f6b6457e090600090a3606580546001600160a01b0319166001600160a01b0392909216919091179055565b609a54421115610c4f57610c4f611f7e565b600082821115611bfd5760405162461bcd60e51b81526004016105ff9061293b565b508082035b92915050565b600082611c1757506000611c02565b82820282848281611c2457fe5b0414611c425760405162461bcd60e51b81526004016105ff90612b38565b9392505050565b6000808211611c6a5760405162461bcd60e51b81526004016105ff906129b8565b818381611c7357fe5b049392505050565b600082820183811015611c425760405162461bcd60e51b81526004016105ff906128cd565b3390565b609a54421115611cbb57611cb6611f7e565b611cd2565b611cc3611891565b609e55611cce611137565b609d555b6001600160a01b0381161561066c57611cea81610527565b6001600160a01b038216600090815260a06020908152604080832093909355609e54609f9091529190205550565b611afc846323b872dd60e01b858585604051602401611d3993929190612621565b60408051601f198184030181529190526020810180516001600160e01b03166001600160e01b03199093169290921790915261203f565b611d8f8363a9059cbb60e01b8484604051602401611d39929190612645565b505050565b611d9c610cd6565b611db85760405162461bcd60e51b81526004016105ff9061279e565b6033805460ff191690557f5db9ee0a495bf2e6ff9c91a7834c1ba4fdd244a5e8aa4e537bd38aeae4b073aa611deb611ca0565b604051611df8919061260d565b60405180910390a1565b611e0a610cd6565b15611e275760405162461bcd60e51b81526004016105ff90612a4c565b6033805460ff191660011790557f62e78cea01bee320cd4e420270b5ea74000d11b0c9f74754ebdbfc544b05a258611deb611ca0565b6000611e68306120ce565b15905090565b600054610100900460ff1680611e875750611e87611e5d565b80611e95575060005460ff16155b611eb15760405162461bcd60e51b81526004016105ff90612a76565b600054610100900460ff16158015611edc576000805460ff1961ff0019909116610100171660011790555b611ee46120d4565b611eec612155565b801561066c576000805461ff001916905550565b600054610100900460ff1680611f195750611f19611e5d565b80611f27575060005460ff16155b611f435760405162461bcd60e51b81526004016105ff90612a76565b600054610100900460ff16158015611f6e576000805460ff1961ff0019909116610100171660011790555b611f766120d4565b611eec61222f565b609a544211611f9f5760405162461bcd60e51b81526004016105ff90612904565b6000609c54611fb9609a5442611bdb90919063ffffffff16565b81611fc057fe5b049050611fe9611fe0609c546109fc600185611c7b90919063ffffffff16565b609a5490611c7b565b609a55611ff4611891565b609e55611fff611137565b609d556098546040517f6f2b3b3aaf1881d69a5d40565500f93ea73df36e7b6a29bf48b21479a9237fe991611886916001600160a01b039091169061260d565b6060612094826040518060400160405280602081526020017f5361666545524332303a206c6f772d6c6576656c2063616c6c206661696c6564815250856001600160a01b03166122bb9092919063ffffffff16565b805190915015611d8f57808060200190518101906120b2919061250e565b611d8f5760405162461bcd60e51b81526004016105ff90612c93565b3b151590565b600054610100900460ff16806120ed57506120ed611e5d565b806120fb575060005460ff16155b6121175760405162461bcd60e51b81526004016105ff90612a76565b600054610100900460ff16158015611eec576000805460ff1961ff001990911661010017166001179055801561066c576000805461ff001916905550565b600054610100900460ff168061216e575061216e611e5d565b8061217c575060005460ff16155b6121985760405162461bcd60e51b81526004016105ff90612a76565b600054610100900460ff161580156121c3576000805460ff1961ff0019909116610100171660011790555b60006121cd611ca0565b606580546001600160a01b0319166001600160a01b038316908117909155604051919250906000907f8be0079c531659141344cd1fd0a4f28419497f9722a3daafe3b4186f6b6457e0908290a350801561066c576000805461ff001916905550565b600054610100900460ff16806122485750612248611e5d565b80612256575060005460ff16155b6122725760405162461bcd60e51b81526004016105ff90612a76565b600054610100900460ff1615801561229d576000805460ff1961ff0019909116610100171660011790555b6033805460ff19169055801561066c576000805461ff001916905550565b60606122ca84846000856122d2565b949350505050565b6060824710156122f45760405162461bcd60e51b81526004016105ff90612972565b6122fd856120ce565b6123195760405162461bcd60e51b81526004016105ff90612c0e565b60006060866001600160a01b0316858760405161233691906125f1565b60006040518083038185875af1925050503d8060008114612373576040519150601f19603f3d011682016040523d82523d6000602084013e612378565b606091505b5091509150612388828286612393565b979650505050505050565b606083156123a2575081611c42565b8251156123b25782518084602001fd5b8160405162461bcd60e51b81526004016105ff91906126d7565b6040518060a0016040528060008019168152602001600081526020016000815260200160008152602001600081525090565b80356001600160a01b0381168114611c0257600080fd5b600060208284031215612426578081fd5b611c4283836123fe565b600080600060608486031215612444578182fd5b833561244f81612d57565b9250602084013561245f81612d57565b9150604084013561246f81612d6c565b809150509250925092565b6000806040838503121561248c578182fd5b61249684846123fe565b915060208301356124a681612d6c565b809150509250929050565b600080604083850312156124c3578182fd5b6124cd84846123fe565b946020939093013593505050565b6000806000606084860312156124ef578283fd5b6124f985856123fe565b95602085013595506040909401359392505050565b60006020828403121561251f578081fd5b8151611c4281612d6c565b60008060006060848603121561253e578283fd5b505081359360208301359350604090920135919050565b600060208284031215612566578081fd5b5035919050565b60006020828403121561257e578081fd5b5051919050565b60008060408385031215612597578182fd5b50508035926020909101359150565b6000602082840312156125b7578081fd5b815160ff81168114611c42578182fd5b60609390931b6bffffffffffffffffffffffff191683526014830191909152603482015260540190565b60008251612603818460208701612d2b565b9190910192915050565b6001600160a01b0391909116815260200190565b6001600160a01b039384168152919092166020820152604081019190915260600190565b6001600160a01b03929092168252602082015260400190565b602080825282518282018190526000919060409081850190868401855b828110156126bf5781518051855286810151878601528581015186860152606080820151908601526080908101519085015260a0909301929085019060010161267b565b5091979650505050505050565b901515815260200190565b60006020825282518060208401526126f6816040850160208701612d2b565b601f01601f19169190910160400192915050565b6020808252601b908201527f6164647265737320686173206265656e20677265796c69737465640000000000604082015260600190565b6020808252603e908201527f596f752063616e206f6e6c79207374616b65206c6f636b6564206c697175696460408201527f69747920666f7220312c20322c20332c2035206f722031302079656172730000606082015260800190565b60208082526014908201527314185d5cd8589b194e881b9bdd081c185d5cd95960621b604082015260600190565b6020808252601690820152755374616b65206973207374696c6c206c6f636b65642160501b604082015260600190565b6020808252601290820152710616d6f756e74206d757374206265203e20360741b604082015260600190565b60208082526026908201527f4f776e61626c653a206e6577206f776e657220697320746865207a65726f206160408201526564647265737360d01b606082015260800190565b6020808252601b908201527f5374616b696e6720616464726573732063616e6e6f7420626520300000000000604082015260600190565b6020808252600e908201526d043616e6e6f74207374616b6520360941b604082015260600190565b6020808252601b908201527f536166654d6174683a206164646974696f6e206f766572666c6f770000000000604082015260600190565b6020808252601b908201527f506572696f6420686173206e6f74206578706972656420796574210000000000604082015260600190565b6020808252601e908201527f536166654d6174683a207375627472616374696f6e206f766572666c6f770000604082015260600190565b60208082526026908201527f416464726573733a20696e73756666696369656e742062616c616e636520666f6040820152651c8818d85b1b60d21b606082015260800190565b6020808252601a908201527f536166654d6174683a206469766973696f6e206279207a65726f000000000000604082015260600190565b6020808252603e908201527f596f752063616e206f6e6c79207374616b65206c6f636b6564206c697175696460408201527f69747920313020796561727320666f72207472756520424420706f6f6c730000606082015260800190565b60208082526010908201526f14185d5cd8589b194e881c185d5cd95960821b604082015260600190565b6020808252602e908201527f496e697469616c697a61626c653a20636f6e747261637420697320616c72656160408201526d191e481a5b9a5d1a585b1a5e995960921b606082015260800190565b602080825260119082015270043616e6e6f74207769746864726177203607c1b604082015260600190565b60208082526029908201527f4f6e6c79207374616b696e67207265776172647320646973747269627574696f6040820152681b88185b1b1bddd95960ba1b606082015260800190565b60208082526021908201527f536166654d6174683a206d756c7469706c69636174696f6e206f766572666c6f6040820152607760f81b606082015260800190565b6020808252818101527f4f776e61626c653a2063616c6c6572206973206e6f7420746865206f776e6572604082015260600190565b6020808252601e908201527f4e6f7420737570706f72746564207374616b696e67206475726174696f6e0000604082015260600190565b6020808252600f908201526e14dd185ad9481b9bdd08199bdd5b99608a1b604082015260600190565b6020808252601d908201527f416464726573733a2063616c6c20746f206e6f6e2d636f6e7472616374000000604082015260600190565b6020808252602e908201527f5374616b696e6752657761726473446973747269627574696f6e20616464726560408201526d073732063616e6e6f7420626520360941b606082015260800190565b6020808252602a908201527f5361666545524332303a204552433230206f7065726174696f6e20646964206e6040820152691bdd081cdd58d8d9595960b21b606082015260800190565b6020808252601f908201527f5265656e7472616e637947756172643a207265656e7472616e742063616c6c00604082015260600190565b90815260200190565b918252602082015260400190565b60005b83811015612d46578181015183820152602001612d2e565b83811115611afc5750506000910152565b6001600160a01b038116811461066c57600080fd5b801515811461066c57600080fdfea26469706673582212207ee2366f50f6843d6429b072214ff8816188980561e17fd100087ca95850a30464736f6c634300060c0033",
  "devdoc": {
    "kind": "dev",
    "methods": {
      "owner()": {
        "details": "Returns the address of the current owner."
      },
      "paused()": {
        "details": "Returns true if the contract is paused, and false otherwise."
      },
      "renounceOwnership()": {
        "details": "Leaves the contract without owner. It will not be possible to call `onlyOwner` functions anymore. Can only be called by the current owner. NOTE: Renouncing ownership will leave the contract without an owner, thereby removing any functionality that is only available to the owner."
      },
      "transferOwnership(address)": {
        "details": "Transfers ownership of the contract to a new account (`newOwner`). Can only be called by the current owner."
      }
    },
    "version": 1
  },
  "userdoc": {
    "kind": "user",
    "methods": {},
    "version": 1
  },
  "storageLayout": {
    "storage": [
      {
        "astId": 492,
        "contract": "contracts/Staking/StakingRewards.sol:StakingRewards",
        "label": "_initialized",
        "offset": 0,
        "slot": "0",
        "type": "t_bool"
      },
      {
        "astId": 495,
        "contract": "contracts/Staking/StakingRewards.sol:StakingRewards",
        "label": "_initializing",
        "offset": 1,
        "slot": "0",
        "type": "t_bool"
      },
      {
        "astId": 1660,
        "contract": "contracts/Staking/StakingRewards.sol:StakingRewards",
        "label": "__gap",
        "offset": 0,
        "slot": "1",
        "type": "t_array(t_uint256)50_storage"
      },
      {
        "astId": 1682,
        "contract": "contracts/Staking/StakingRewards.sol:StakingRewards",
        "label": "_paused",
        "offset": 0,
        "slot": "51",
        "type": "t_bool"
      },
      {
        "astId": 1773,
        "contract": "contracts/Staking/StakingRewards.sol:StakingRewards",
        "label": "__gap",
        "offset": 0,
        "slot": "52",
        "type": "t_array(t_uint256)49_storage"
      },
      {
        "astId": 10,
        "contract": "contracts/Staking/StakingRewards.sol:StakingRewards",
        "label": "_owner",
        "offset": 0,
        "slot": "101",
        "type": "t_address"
      },
      {
        "astId": 129,
        "contract": "contracts/Staking/StakingRewards.sol:StakingRewards",
        "label": "__gap",
        "offset": 0,
        "slot": "102",
        "type": "t_array(t_uint256)49_storage"
      },
      {
        "astId": 10597,
        "contract": "contracts/Staking/StakingRewards.sol:StakingRewards",
        "label": "_reentry_guard_status",
        "offset": 0,
        "slot": "151",
        "type": "t_uint256"
      },
      {
        "astId": 10599,
        "contract": "contracts/Staking/StakingRewards.sol:StakingRewards",
        "label": "stakingToken",
        "offset": 0,
        "slot": "152",
        "type": "t_contract(ERC20)2742"
      },
      {
        "astId": 10601,
        "contract": "contracts/Staking/StakingRewards.sol:StakingRewards",
        "label": "stakingRewardsDistribution",
        "offset": 0,
        "slot": "153",
        "type": "t_contract(StakingRewardsDistribution)12880"
      },
      {
        "astId": 10603,
        "contract": "contracts/Staking/StakingRewards.sol:StakingRewards",
        "label": "periodFinish",
        "offset": 0,
        "slot": "154",
        "type": "t_uint256"
      },
      {
        "astId": 10605,
        "contract": "contracts/Staking/StakingRewards.sol:StakingRewards",
        "label": "isTrueBdPool",
        "offset": 0,
        "slot": "155",
        "type": "t_bool"
      },
      {
        "astId": 10607,
        "contract": "contracts/Staking/StakingRewards.sol:StakingRewards",
        "label": "rewardsDurationSeconds",
        "offset": 0,
        "slot": "156",
        "type": "t_uint256"
      },
      {
        "astId": 10609,
        "contract": "contracts/Staking/StakingRewards.sol:StakingRewards",
        "label": "lastUpdateTime",
        "offset": 0,
        "slot": "157",
        "type": "t_uint256"
      },
      {
        "astId": 10611,
        "contract": "contracts/Staking/StakingRewards.sol:StakingRewards",
        "label": "rewardPerTokenStored_REWARD_PRECISION",
        "offset": 0,
        "slot": "158",
        "type": "t_uint256"
      },
      {
        "astId": 10615,
        "contract": "contracts/Staking/StakingRewards.sol:StakingRewards",
        "label": "userRewardPerTokenPaid_REWARD_PRECISION",
        "offset": 0,
        "slot": "159",
        "type": "t_mapping(t_address,t_uint256)"
      },
      {
        "astId": 10619,
        "contract": "contracts/Staking/StakingRewards.sol:StakingRewards",
        "label": "rewards",
        "offset": 0,
        "slot": "160",
        "type": "t_mapping(t_address,t_uint256)"
      },
      {
        "astId": 10621,
        "contract": "contracts/Staking/StakingRewards.sol:StakingRewards",
        "label": "_staking_token_supply",
        "offset": 0,
        "slot": "161",
        "type": "t_uint256"
      },
      {
        "astId": 10623,
        "contract": "contracts/Staking/StakingRewards.sol:StakingRewards",
        "label": "_staking_token_boosted_supply",
        "offset": 0,
        "slot": "162",
        "type": "t_uint256"
      },
      {
        "astId": 10627,
        "contract": "contracts/Staking/StakingRewards.sol:StakingRewards",
        "label": "_unlocked_balances",
        "offset": 0,
        "slot": "163",
        "type": "t_mapping(t_address,t_uint256)"
      },
      {
        "astId": 10631,
        "contract": "contracts/Staking/StakingRewards.sol:StakingRewards",
        "label": "_locked_balances",
        "offset": 0,
        "slot": "164",
        "type": "t_mapping(t_address,t_uint256)"
      },
      {
        "astId": 10635,
        "contract": "contracts/Staking/StakingRewards.sol:StakingRewards",
        "label": "_boosted_balances",
        "offset": 0,
        "slot": "165",
        "type": "t_mapping(t_address,t_uint256)"
      },
      {
        "astId": 10640,
        "contract": "contracts/Staking/StakingRewards.sol:StakingRewards",
        "label": "lockedStakes",
        "offset": 0,
        "slot": "166",
        "type": "t_mapping(t_address,t_array(t_struct(LockedStake)10657_storage)dyn_storage)"
      },
      {
        "astId": 10644,
        "contract": "contracts/Staking/StakingRewards.sol:StakingRewards",
        "label": "greylist",
        "offset": 0,
        "slot": "167",
        "type": "t_mapping(t_address,t_bool)"
      },
      {
        "astId": 10646,
        "contract": "contracts/Staking/StakingRewards.sol:StakingRewards",
        "label": "unlockedStakes",
        "offset": 0,
        "slot": "168",
        "type": "t_bool"
      }
    ],
    "types": {
      "t_address": {
        "encoding": "inplace",
        "label": "address",
        "numberOfBytes": "20"
      },
      "t_array(t_struct(LockedStake)10657_storage)dyn_storage": {
        "base": "t_struct(LockedStake)10657_storage",
        "encoding": "dynamic_array",
        "label": "struct StakingRewards.LockedStake[]",
        "numberOfBytes": "32"
      },
      "t_array(t_uint256)49_storage": {
        "base": "t_uint256",
        "encoding": "inplace",
        "label": "uint256[49]",
        "numberOfBytes": "1568"
      },
      "t_array(t_uint256)50_storage": {
        "base": "t_uint256",
        "encoding": "inplace",
        "label": "uint256[50]",
        "numberOfBytes": "1600"
      },
      "t_bool": {
        "encoding": "inplace",
        "label": "bool",
        "numberOfBytes": "1"
      },
      "t_bytes32": {
        "encoding": "inplace",
        "label": "bytes32",
        "numberOfBytes": "32"
      },
      "t_contract(ERC20)2742": {
        "encoding": "inplace",
        "label": "contract ERC20",
        "numberOfBytes": "20"
      },
      "t_contract(StakingRewardsDistribution)12880": {
        "encoding": "inplace",
        "label": "contract StakingRewardsDistribution",
        "numberOfBytes": "20"
      },
      "t_mapping(t_address,t_array(t_struct(LockedStake)10657_storage)dyn_storage)": {
        "encoding": "mapping",
        "key": "t_address",
        "label": "mapping(address => struct StakingRewards.LockedStake[])",
        "numberOfBytes": "32",
        "value": "t_array(t_struct(LockedStake)10657_storage)dyn_storage"
      },
      "t_mapping(t_address,t_bool)": {
        "encoding": "mapping",
        "key": "t_address",
        "label": "mapping(address => bool)",
        "numberOfBytes": "32",
        "value": "t_bool"
      },
      "t_mapping(t_address,t_uint256)": {
        "encoding": "mapping",
        "key": "t_address",
        "label": "mapping(address => uint256)",
        "numberOfBytes": "32",
        "value": "t_uint256"
      },
      "t_struct(LockedStake)10657_storage": {
        "encoding": "inplace",
        "label": "struct StakingRewards.LockedStake",
        "members": [
          {
            "astId": 10648,
            "contract": "contracts/Staking/StakingRewards.sol:StakingRewards",
            "label": "kek_id",
            "offset": 0,
            "slot": "0",
            "type": "t_bytes32"
          },
          {
            "astId": 10650,
            "contract": "contracts/Staking/StakingRewards.sol:StakingRewards",
            "label": "start_timestamp",
            "offset": 0,
            "slot": "1",
            "type": "t_uint256"
          },
          {
            "astId": 10652,
            "contract": "contracts/Staking/StakingRewards.sol:StakingRewards",
            "label": "amount",
            "offset": 0,
            "slot": "2",
            "type": "t_uint256"
          },
          {
            "astId": 10654,
            "contract": "contracts/Staking/StakingRewards.sol:StakingRewards",
            "label": "ending_timestamp",
            "offset": 0,
            "slot": "3",
            "type": "t_uint256"
          },
          {
            "astId": 10656,
            "contract": "contracts/Staking/StakingRewards.sol:StakingRewards",
            "label": "multiplier_LOCK_MULTIPLIER_PRECISION",
            "offset": 0,
            "slot": "4",
            "type": "t_uint256"
          }
        ],
        "numberOfBytes": "160"
      },
      "t_uint256": {
        "encoding": "inplace",
        "label": "uint256",
        "numberOfBytes": "32"
      }
    }
  }
}