{
  "address": "0xdCB27B007ab65254CBd02226D04C365652A9aa81",
  "abi": [
    {
      "anonymous": false,
      "inputs": [
        {
          "indexed": true,
          "internalType": "address",
          "name": "user",
          "type": "address"
        },
        {
          "indexed": false,
          "internalType": "uint256",
          "name": "amount",
          "type": "uint256"
        },
        {
          "indexed": false,
          "internalType": "uint256",
          "name": "secs",
          "type": "uint256"
        }
      ],
      "name": "ExistingStakeLocked",
      "type": "event"
    },
    {
      "anonymous": false,
      "inputs": [
        {
          "indexed": true,
          "internalType": "address",
          "name": "previousOwner",
          "type": "address"
        },
        {
          "indexed": true,
          "internalType": "address",
          "name": "newOwner",
          "type": "address"
        }
      ],
      "name": "OwnershipTransferred",
      "type": "event"
    },
    {
      "anonymous": false,
      "inputs": [
        {
          "indexed": false,
          "internalType": "address",
          "name": "account",
          "type": "address"
        }
      ],
      "name": "Paused",
      "type": "event"
    },
    {
      "anonymous": false,
      "inputs": [
        {
          "indexed": false,
          "internalType": "address",
          "name": "token",
          "type": "address"
        },
        {
          "indexed": false,
          "internalType": "uint256",
          "name": "amount",
          "type": "uint256"
        }
      ],
      "name": "Recovered",
      "type": "event"
    },
    {
      "anonymous": false,
      "inputs": [
        {
          "indexed": true,
          "internalType": "address",
          "name": "user",
          "type": "address"
        },
        {
          "indexed": false,
          "internalType": "uint256",
          "name": "reward",
          "type": "uint256"
        }
      ],
      "name": "RewardPaid",
      "type": "event"
    },
    {
      "anonymous": false,
      "inputs": [
        {
          "indexed": false,
          "internalType": "address",
          "name": "user",
          "type": "address"
        },
        {
          "indexed": false,
          "internalType": "uint256",
          "name": "amount",
          "type": "uint256"
        }
      ],
      "name": "RewardVested",
      "type": "event"
    },
    {
      "anonymous": false,
      "inputs": [
        {
          "indexed": false,
          "internalType": "uint256",
          "name": "newDuration",
          "type": "uint256"
        }
      ],
      "name": "RewardsDurationUpdated",
      "type": "event"
    },
    {
      "anonymous": false,
      "inputs": [
        {
          "indexed": false,
          "internalType": "address",
          "name": "token",
          "type": "address"
        }
      ],
      "name": "RewardsPeriodRenewed",
      "type": "event"
    },
    {
      "anonymous": false,
      "inputs": [
        {
          "indexed": true,
          "internalType": "address",
          "name": "user",
          "type": "address"
        },
        {
          "indexed": false,
          "internalType": "uint256",
          "name": "amount",
          "type": "uint256"
        },
        {
          "indexed": false,
          "internalType": "uint256",
          "name": "secs",
          "type": "uint256"
        }
      ],
      "name": "StakeLocked",
      "type": "event"
    },
    {
      "anonymous": false,
      "inputs": [
        {
          "indexed": true,
          "internalType": "address",
          "name": "user",
          "type": "address"
        },
        {
          "indexed": false,
          "internalType": "uint256",
          "name": "amount",
          "type": "uint256"
        }
      ],
      "name": "Staked",
      "type": "event"
    },
    {
      "anonymous": false,
      "inputs": [
        {
          "indexed": false,
          "internalType": "address",
          "name": "account",
          "type": "address"
        }
      ],
      "name": "Unpaused",
      "type": "event"
    },
    {
      "anonymous": false,
      "inputs": [
        {
          "indexed": true,
          "internalType": "address",
          "name": "user",
          "type": "address"
        },
        {
          "indexed": false,
          "internalType": "uint256",
          "name": "amount",
          "type": "uint256"
        }
      ],
      "name": "Withdrawn",
      "type": "event"
    },
    {
      "anonymous": false,
      "inputs": [
        {
          "indexed": true,
          "internalType": "address",
          "name": "user",
          "type": "address"
        },
        {
          "indexed": false,
          "internalType": "uint256",
          "name": "amount",
          "type": "uint256"
        },
        {
          "indexed": false,
          "internalType": "bytes32",
          "name": "kek_id",
          "type": "bytes32"
        }
      ],
      "name": "WithdrawnLocked",
      "type": "event"
    },
    {
      "inputs": [],
      "name": "LOCK_MULTIPLIER_PRECISION",
      "outputs": [
        {
          "internalType": "uint256",
          "name": "",
          "type": "uint256"
        }
      ],
      "stateMutability": "view",
      "type": "function"
    },
    {
      "inputs": [],
      "name": "REWARD_PRECISION",
      "outputs": [
        {
          "internalType": "uint256",
          "name": "",
          "type": "uint256"
        }
      ],
      "stateMutability": "view",
      "type": "function"
    },
    {
      "inputs": [
        {
          "internalType": "address",
          "name": "account",
          "type": "address"
        }
      ],
      "name": "balanceOf",
      "outputs": [
        {
          "internalType": "uint256",
          "name": "",
          "type": "uint256"
        }
      ],
      "stateMutability": "view",
      "type": "function"
    },
    {
      "inputs": [
        {
          "internalType": "address",
          "name": "account",
          "type": "address"
        }
      ],
      "name": "boostedBalanceOf",
      "outputs": [
        {
          "internalType": "uint256",
          "name": "",
          "type": "uint256"
        }
      ],
      "stateMutability": "view",
      "type": "function"
    },
    {
      "inputs": [
        {
          "internalType": "address",
          "name": "account",
          "type": "address"
        }
      ],
      "name": "earned",
      "outputs": [
        {
          "internalType": "uint256",
          "name": "",
          "type": "uint256"
        }
      ],
      "stateMutability": "view",
      "type": "function"
    },
    {
      "inputs": [],
      "name": "getRewardForDuration",
      "outputs": [
        {
          "internalType": "uint256",
          "name": "",
          "type": "uint256"
        }
      ],
      "stateMutability": "view",
      "type": "function"
    },
    {
      "inputs": [
        {
          "internalType": "address",
          "name": "",
          "type": "address"
        }
      ],
      "name": "greylist",
      "outputs": [
        {
          "internalType": "bool",
          "name": "",
          "type": "bool"
        }
      ],
      "stateMutability": "view",
      "type": "function"
    },
    {
      "inputs": [
        {
          "internalType": "address",
          "name": "_stakingToken",
          "type": "address"
        },
        {
          "internalType": "address",
          "name": "_stakingRewardsDistribution",
          "type": "address"
        },
        {
          "internalType": "bool",
          "name": "_isTrueBdPool",
          "type": "bool"
        }
      ],
      "name": "initialize",
      "outputs": [],
      "stateMutability": "nonpayable",
      "type": "function"
    },
    {
      "inputs": [],
      "name": "isTrueBdPool",
      "outputs": [
        {
          "internalType": "bool",
          "name": "",
          "type": "bool"
        }
      ],
      "stateMutability": "view",
      "type": "function"
    },
    {
      "inputs": [],
      "name": "lastTimeRewardApplicable",
      "outputs": [
        {
          "internalType": "uint256",
          "name": "",
          "type": "uint256"
        }
      ],
      "stateMutability": "view",
      "type": "function"
    },
    {
      "inputs": [],
      "name": "lastUpdateTime",
      "outputs": [
        {
          "internalType": "uint256",
          "name": "",
          "type": "uint256"
        }
      ],
      "stateMutability": "view",
      "type": "function"
    },
    {
      "inputs": [
        {
          "internalType": "uint256",
          "name": "amount",
          "type": "uint256"
        },
        {
          "internalType": "uint256",
          "name": "yearsNo",
          "type": "uint256"
        }
      ],
      "name": "lockExistingStake",
      "outputs": [],
      "stateMutability": "nonpayable",
      "type": "function"
    },
    {
      "inputs": [
        {
          "internalType": "address",
          "name": "account",
          "type": "address"
        }
      ],
      "name": "lockedBalanceOf",
      "outputs": [
        {
          "internalType": "uint256",
          "name": "",
          "type": "uint256"
        }
      ],
      "stateMutability": "view",
      "type": "function"
    },
    {
      "inputs": [
        {
          "internalType": "address",
          "name": "account",
          "type": "address"
        }
      ],
      "name": "lockedStakesOf",
      "outputs": [
        {
          "components": [
            {
              "internalType": "bytes32",
              "name": "kek_id",
              "type": "bytes32"
            },
            {
              "internalType": "uint256",
              "name": "start_timestamp",
              "type": "uint256"
            },
            {
              "internalType": "uint256",
              "name": "amount",
              "type": "uint256"
            },
            {
              "internalType": "uint256",
              "name": "ending_timestamp",
              "type": "uint256"
            },
            {
              "internalType": "uint256",
              "name": "multiplier_LOCK_MULTIPLIER_PRECISION",
              "type": "uint256"
            }
          ],
          "internalType": "struct StakingRewards.LockedStake[]",
          "name": "",
          "type": "tuple[]"
        }
      ],
      "stateMutability": "view",
      "type": "function"
    },
    {
      "inputs": [
        {
          "internalType": "uint256",
          "name": "yearsNo",
          "type": "uint256"
        }
      ],
      "name": "lockedStakingMultiplier_LOCK_MULTIPLIER_PRECISION",
      "outputs": [
        {
          "internalType": "uint256",
          "name": "",
          "type": "uint256"
        }
      ],
      "stateMutability": "pure",
      "type": "function"
    },
    {
      "inputs": [],
      "name": "owner",
      "outputs": [
        {
          "internalType": "address",
          "name": "",
          "type": "address"
        }
      ],
      "stateMutability": "view",
      "type": "function"
    },
    {
      "inputs": [],
      "name": "pause",
      "outputs": [],
      "stateMutability": "nonpayable",
      "type": "function"
    },
    {
      "inputs": [],
      "name": "paused",
      "outputs": [
        {
          "internalType": "bool",
          "name": "",
          "type": "bool"
        }
      ],
      "stateMutability": "view",
      "type": "function"
    },
    {
      "inputs": [],
      "name": "periodFinish",
      "outputs": [
        {
          "internalType": "uint256",
          "name": "",
          "type": "uint256"
        }
      ],
      "stateMutability": "view",
      "type": "function"
    },
    {
      "inputs": [
        {
          "internalType": "address",
          "name": "tokenAddress",
          "type": "address"
        },
        {
          "internalType": "uint256",
          "name": "tokenAmount",
          "type": "uint256"
        }
      ],
      "name": "recoverERC20",
      "outputs": [],
      "stateMutability": "nonpayable",
      "type": "function"
    },
    {
      "inputs": [
        {
          "internalType": "address",
          "name": "user",
          "type": "address"
        },
        {
          "internalType": "uint256",
          "name": "immediatelyReleasedReward",
          "type": "uint256"
        },
        {
          "internalType": "uint256",
          "name": "vestedReward",
          "type": "uint256"
        }
      ],
      "name": "releaseReward",
      "outputs": [],
      "stateMutability": "nonpayable",
      "type": "function"
    },
    {
      "inputs": [],
      "name": "renewIfApplicable",
      "outputs": [],
      "stateMutability": "nonpayable",
      "type": "function"
    },
    {
      "inputs": [],
      "name": "renounceOwnership",
      "outputs": [],
      "stateMutability": "nonpayable",
      "type": "function"
    },
    {
      "inputs": [],
      "name": "rewardPerToken",
      "outputs": [
        {
          "internalType": "uint256",
          "name": "",
          "type": "uint256"
        }
      ],
      "stateMutability": "view",
      "type": "function"
    },
    {
      "inputs": [],
      "name": "rewardPerTokenStored_REWARD_PRECISION",
      "outputs": [
        {
          "internalType": "uint256",
          "name": "",
          "type": "uint256"
        }
      ],
      "stateMutability": "view",
      "type": "function"
    },
    {
      "inputs": [
        {
          "internalType": "address",
          "name": "",
          "type": "address"
        }
      ],
      "name": "rewards",
      "outputs": [
        {
          "internalType": "uint256",
          "name": "",
          "type": "uint256"
        }
      ],
      "stateMutability": "view",
      "type": "function"
    },
    {
      "inputs": [],
      "name": "rewardsDurationSeconds",
      "outputs": [
        {
          "internalType": "uint256",
          "name": "",
          "type": "uint256"
        }
      ],
      "stateMutability": "view",
      "type": "function"
    },
    {
      "inputs": [
        {
          "internalType": "address",
          "name": "_address",
          "type": "address"
        },
        {
          "internalType": "bool",
          "name": "isGraylisted",
          "type": "bool"
        }
      ],
      "name": "setIsAddressGraylisted",
      "outputs": [],
      "stateMutability": "nonpayable",
      "type": "function"
    },
    {
      "inputs": [
        {
          "internalType": "address",
          "name": "_new_owner",
          "type": "address"
        }
      ],
      "name": "setOwner",
      "outputs": [],
      "stateMutability": "nonpayable",
      "type": "function"
    },
    {
      "inputs": [
        {
          "internalType": "uint256",
          "name": "_rewardsDurationSeconds",
          "type": "uint256"
        }
      ],
      "name": "setRewardsDuration",
      "outputs": [],
      "stateMutability": "nonpayable",
      "type": "function"
    },
    {
      "inputs": [
        {
          "internalType": "uint256",
          "name": "amount",
          "type": "uint256"
        }
      ],
      "name": "stake",
      "outputs": [],
      "stateMutability": "nonpayable",
      "type": "function"
    },
    {
      "inputs": [
        {
          "internalType": "uint256",
          "name": "amount",
          "type": "uint256"
        },
        {
          "internalType": "uint256",
          "name": "yearsNo",
          "type": "uint256"
        }
      ],
      "name": "stakeLocked",
      "outputs": [],
      "stateMutability": "nonpayable",
      "type": "function"
    },
    {
      "inputs": [],
      "name": "stakingDecimals",
      "outputs": [
        {
          "internalType": "uint256",
          "name": "",
          "type": "uint256"
        }
      ],
      "stateMutability": "view",
      "type": "function"
    },
    {
      "inputs": [],
      "name": "stakingToken",
      "outputs": [
        {
          "internalType": "contract ERC20",
          "name": "",
          "type": "address"
        }
      ],
      "stateMutability": "view",
      "type": "function"
    },
    {
      "inputs": [],
      "name": "toggleUnlockStakes",
      "outputs": [],
      "stateMutability": "nonpayable",
      "type": "function"
    },
    {
      "inputs": [],
      "name": "totalBoostedSupply",
      "outputs": [
        {
          "internalType": "uint256",
          "name": "",
          "type": "uint256"
        }
      ],
      "stateMutability": "view",
      "type": "function"
    },
    {
      "inputs": [],
      "name": "totalSupply",
      "outputs": [
        {
          "internalType": "uint256",
          "name": "",
          "type": "uint256"
        }
      ],
      "stateMutability": "view",
      "type": "function"
    },
    {
      "inputs": [
        {
          "internalType": "address",
          "name": "newOwner",
          "type": "address"
        }
      ],
      "name": "transferOwnership",
      "outputs": [],
      "stateMutability": "nonpayable",
      "type": "function"
    },
    {
      "inputs": [
        {
          "internalType": "address",
          "name": "account",
          "type": "address"
        }
      ],
      "name": "unlockedBalanceOf",
      "outputs": [
        {
          "internalType": "uint256",
          "name": "",
          "type": "uint256"
        }
      ],
      "stateMutability": "view",
      "type": "function"
    },
    {
      "inputs": [],
      "name": "unlockedStakes",
      "outputs": [
        {
          "internalType": "bool",
          "name": "",
          "type": "bool"
        }
      ],
      "stateMutability": "view",
      "type": "function"
    },
    {
      "inputs": [],
      "name": "unpause",
      "outputs": [],
      "stateMutability": "nonpayable",
      "type": "function"
    },
    {
      "inputs": [
        {
          "internalType": "address",
          "name": "account",
          "type": "address"
        }
      ],
      "name": "updateUserReward",
      "outputs": [],
      "stateMutability": "nonpayable",
      "type": "function"
    },
    {
      "inputs": [
        {
          "internalType": "address",
          "name": "",
          "type": "address"
        }
      ],
      "name": "userRewardPerTokenPaid_REWARD_PRECISION",
      "outputs": [
        {
          "internalType": "uint256",
          "name": "",
          "type": "uint256"
        }
      ],
      "stateMutability": "view",
      "type": "function"
    },
    {
      "inputs": [
        {
          "internalType": "uint256",
          "name": "amount",
          "type": "uint256"
        }
      ],
      "name": "withdraw",
      "outputs": [],
      "stateMutability": "nonpayable",
      "type": "function"
    },
    {
      "inputs": [
        {
          "internalType": "bytes32",
          "name": "kek_id",
          "type": "bytes32"
        },
        {
          "internalType": "uint256",
          "name": "from",
          "type": "uint256"
        },
        {
          "internalType": "uint256",
          "name": "to",
          "type": "uint256"
        }
      ],
      "name": "withdrawLocked",
      "outputs": [],
      "stateMutability": "nonpayable",
      "type": "function"
    },
    {
      "inputs": [
        {
          "internalType": "uint256",
          "name": "withdrawAmount",
          "type": "uint256"
        },
        {
          "internalType": "address",
          "name": "withdrawalAddress",
          "type": "address"
        }
      ],
      "name": "withdrawLockedLPTokens",
      "outputs": [],
      "stateMutability": "nonpayable",
      "type": "function"
    }
  ],
  "transactionHash": "0x85229e84b1b8284b8cb393784616353f4f5ddc6dd8ca8bc74a56c0c374a2ab6e",
  "args": [],
  "numDeployments": 2,
  "solcInputHash": "496ade414799cd576f8e7261b13640dd",
  "bytecode": "0x608060405234801561001057600080fd5b50612b88806100206000396000f3fe608060405234801561001057600080fd5b50600436106102895760003560e01c806372f702f31161015c578063c11f5344116100ce578063d5e07b8d11610087578063d5e07b8d14610598578063d96eb3f4146105ab578063e4bbb5a8146105b3578063ebe2b12b146105c6578063f2fde38b146105cf578063fee2eae6146105e257600080fd5b8063c11f534414610546578063c6d6916c1461054e578063c8f33c9114610561578063c92e1c2d1461056a578063cc1a378f1461057d578063cd3daf9d1461059057600080fd5b806387bf5b661161012057806387bf5b66146104d95780638980f11f146104f95780638da5cb5b1461050c57806399a9cfc61461051d578063a694fc3a14610526578063bf1b71a51461053957600080fd5b806372f702f31461046257806380060d491461048d57806380faa57d146104a05780638456cb59146104a857806384955c88146104b057600080fd5b80632e1a7d4d1161020057806359355736116101b957806359355736146103ed5780635bb2a8f6146104165780635c975abb146104295780635f687ebb1461043457806370a0823114610447578063715018a61461045a57600080fd5b80632e1a7d4d1461037957806331ca208c1461038c578063399f5467146103bf5780633a88e1d0146103cc5780633d6aa5e1146103d65780633f4ba83a146103e557600080fd5b806317b18c891161025257806317b18c891461030457806318160ddd146103175780631beabcd21461031f5780631c1f78eb146103485780631e090f0114610350578063262696d41461037057600080fd5b80628cc2621461028e5780630700037d146102b45780630dda7299146102d45780630f24ce00146102dc57806313af4035146102f1575b600080fd5b6102a161029c366004612593565b6105ea565b6040519081526020015b60405180910390f35b6102a16102c2366004612593565b60a06020526000908152604090205481565b60a2546102a1565b6102ef6102ea3660046125ae565b610667565b005b6102ef6102ff366004612593565b610736565b6102ef6103123660046125e1565b61076c565b60a1546102a1565b6102a161032d366004612593565b6001600160a01b0316600090815260a5602052604090205490565b6102a1610aac565b61036361035e366004612593565b610b2c565b6040516102ab9190612603565b6102a1609e5481565b6102ef610387366004612671565b610bd3565b6103af61039a366004612593565b60a76020526000908152604090205460ff1681565b60405190151581526020016102ab565b60a8546103af9060ff1681565b6102a1620f424081565b6102a1670de0b6b3a764000081565b6102ef610d12565b6102a16103fb366004612593565b6001600160a01b0316600090815260a4602052604090205490565b6102ef610424366004612698565b610d46565b60335460ff166103af565b6102ef6104423660046125e1565b610d9b565b6102a1610455366004612593565b611129565b6102ef611157565b609854610475906001600160a01b031681565b6040516001600160a01b0390911681526020016102ab565b6102a161049b366004612671565b61118b565b6102a1611235565b6102ef61124c565b6102a16104be366004612593565b6001600160a01b0316600090815260a3602052604090205490565b6102a16104e7366004612593565b609f6020526000908152604090205481565b6102ef6105073660046126cf565b61127e565b6065546001600160a01b0316610475565b6102a1609c5481565b6102ef610534366004612671565b61132f565b609b546103af9060ff1681565b6102a16114b7565b6102ef61055c366004612593565b61152d565b6102a1609d5481565b6102ef6105783660046126f9565b611560565b6102ef61058b366004612671565b61195a565b6102a16119c0565b6102ef6105a6366004612725565b611a8a565b6102ef611c4b565b6102ef6105c1366004612751565b611c89565b6102a1609a5481565b6102ef6105dd366004612593565b611e84565b6102ef611f1c565b6001600160a01b038116600090815260a06020908152604080832054609f909252822054670de0b6b3a7640000906106206119c0565b61062a91906127ae565b6001600160a01b038516600090815260a5602052604090205461064d91906127c5565b61065791906127e4565b6106619190612806565b92915050565b6099546001600160a01b0316331461069a5760405162461bcd60e51b81526004016106919061281e565b60405180910390fd5b6001600160a01b038316600081815260a0602052604080822091909155517fe2403640ba68fed3a2f88b7557551d1993f84b99bb10ff833f0cf8db0c5e0486906106e79085815260200190565b60405180910390a2604080516001600160a01b0385168152602081018390527f9fbc695eed6a70ae78a7532506abdb142ee788cd93f76ef3b7122561422f6367910160405180910390a1505050565b6065546001600160a01b031633146107605760405162461bcd60e51b815260040161069190612867565b61076981611e84565b50565b60026097540361078e5760405162461bcd60e51b81526004016106919061289c565b600260975560335460ff16156107b65760405162461bcd60e51b8152600401610691906128d3565b336107c081611f2e565b600083116108015760405162461bcd60e51b815260206004820152600e60248201526d043616e6e6f74207374616b6520360941b6044820152606401610691565b81600a0361083057609b5460ff1661082b5760405162461bcd60e51b8152600401610691906128fd565b61087c565b816001148061083f5750816002145b8061084a5750816003145b806108555750816005145b80610860575081600a145b61087c5760405162461bcd60e51b81526004016106919061295a565b33600090815260a7602052604090205460ff16156108ac5760405162461bcd60e51b8152600401610691906129b7565b60006108ba8361016d6127c5565b6108c59060186127c5565b6108d090603c6127c5565b6108db90603c6127c5565b905060006108e88461118b565b90506000620f42406108fa83886127c5565b61090491906127e4565b33600081815260a6602052604090819020815160a0810190925260609290921b6bffffffffffffffffffffffff191660c08201524260d482015260f481018990529192509080610114810160405160208183030381529060405280519060200120815260200142815260200188815260200185426109829190612806565b815260209081018590528254600181810185556000948552938290208351600590920201908155908201519281019290925560408101516002830155606081015160038301556080015160049091015560a1546109e0908790612806565b60a15560a2546109f1908290612806565b60a25533600090815260a46020526040902054610a0f908790612806565b33600090815260a4602090815260408083209390935560a590522054610a36908290612806565b33600081815260a56020526040902091909155609854610a63916001600160a01b03909116903089611fa2565b604080518781526020810185905233917fa5ae833d0bb1dcd632d98a8b70973e8516812898e19bf27b70071ebc8dc52c0191015b60405180910390a25050600160975550505050565b609c5460995460405163964efe8160e01b8152306004820152600092916001600160a01b03169063964efe8190602401602060405180830381865afa158015610af9573d6000803e3d6000fd5b505050506040513d601f19601f82011682018060405250810190610b1d91906129ee565b610b2791906127c5565b905090565b6001600160a01b038116600090815260a660209081526040808320805482518185028101850190935280835260609492939192909184015b82821015610bc857838290600052602060002090600502016040518060a00160405290816000820154815260200160018201548152602001600282015481526020016003820154815260200160048201548152505081526020019060010190610b64565b505050509050919050565b600260975403610bf55760405162461bcd60e51b81526004016106919061289c565b600260975533610c0481611f2e565b60008211610c485760405162461bcd60e51b8152602060048201526011602482015270043616e6e6f74207769746864726177203607c1b6044820152606401610691565b33600090815260a36020526040902054610c639083906127ae565b33600090815260a3602090815260408083209390935560a590522054610c8a9083906127ae565b33600090815260a5602052604090205560a154610ca89083906127ae565b60a15560a254610cb99083906127ae565b60a255609854610cd3906001600160a01b0316338461200d565b60405182815233907f7084f5476618d8e60b11ef0d7d3f06914655adb8793e28ff7f018d4c76d505d5906020015b60405180910390a250506001609755565b6065546001600160a01b03163314610d3c5760405162461bcd60e51b815260040161069190612867565b610d4461203d565b565b6065546001600160a01b03163314610d705760405162461bcd60e51b815260040161069190612867565b6001600160a01b0391909116600090815260a760205260409020805460ff1916911515919091179055565b600260975403610dbd5760405162461bcd60e51b81526004016106919061289c565b600260975560335460ff1615610de55760405162461bcd60e51b8152600401610691906128d3565b33610def81611f2e565b60008311610e345760405162461bcd60e51b81526020600482015260126024820152710616d6f756e74206d757374206265203e20360741b6044820152606401610691565b81600a03610e6357609b5460ff16610e5e5760405162461bcd60e51b8152600401610691906128fd565b610eaf565b8160011480610e725750816002145b80610e7d5750816003145b80610e885750816005145b80610e93575081600a145b610eaf5760405162461bcd60e51b81526004016106919061295a565b33600090815260a7602052604090205460ff1615610edf5760405162461bcd60e51b8152600401610691906129b7565b33600090815260a36020526040902054610efa9084906127ae565b33600090815260a3602090815260408083209390935560a590522054610f219084906127ae565b33600090815260a5602052604090205560a154610f3f9084906127ae565b60a15560a254610f509084906127ae565b60a2556000610f618361016d6127c5565b610f6c9060186127c5565b610f7790603c6127c5565b610f8290603c6127c5565b90506000610f8f8461118b565b90506000620f4240610fa183886127c5565b610fab91906127e4565b33600081815260a6602052604090819020815160a0810190925260609290921b6bffffffffffffffffffffffff191660c08201524260d482015260f481018990529192509080610114810160405160208183030381529060405280519060200120815260200142815260200188815260200185426110299190612806565b815260209081018590528254600181810185556000948552938290208351600590920201908155908201519281019290925560408101516002830155606081015160038301556080015160049091015560a154611087908790612806565b60a15560a254611098908290612806565b60a25533600090815260a460205260409020546110b6908790612806565b33600090815260a4602090815260408083209390935560a5905220546110dd908290612806565b33600081815260a5602090815260409182902093909355805189815292830186905290917f161a301bcf5905aaeef577b88297aafeaeca8ac180a78b87dc74c413472efbf19101610a97565b6001600160a01b038116600090815260a4602090815260408083205460a39092528220546106619190612806565b6065546001600160a01b031633146111815760405162461bcd60e51b815260040161069190612867565b610d4460006120d0565b600081600a036111a057506302faf080919050565b816005036111b2575062989680919050565b816003036111c45750622dc6c0919050565b816002036111d6575062239948919050565b816001036111e8575062196fb8919050565b60405162461bcd60e51b815260206004820152601e60248201527f4e6f7420737570706f72746564207374616b696e67206475726174696f6e00006044820152606401610691565b919050565b6000609a5442106112475750609a5490565b504290565b6065546001600160a01b031633146112765760405162461bcd60e51b815260040161069190612867565b610d44612122565b6065546001600160a01b031633146112a85760405162461bcd60e51b815260040161069190612867565b6098546001600160a01b03908116908316036112c357600080fd5b6112e96112d86065546001600160a01b031690565b6001600160a01b038416908361200d565b604080516001600160a01b0384168152602081018390527f8c1256b8896378cd5044f80c202f9772b9d77dc85c8a6eb51967210b09bfaa28910160405180910390a15050565b6002609754036113515760405162461bcd60e51b81526004016106919061289c565b600260975560335460ff16156113795760405162461bcd60e51b8152600401610691906128d3565b3361138381611f2e565b600082116113c45760405162461bcd60e51b815260206004820152600e60248201526d043616e6e6f74207374616b6520360941b6044820152606401610691565b33600090815260a7602052604090205460ff16156113f45760405162461bcd60e51b8152600401610691906129b7565b8160a1546114029190612806565b60a15560a254611413908390612806565b60a25533600090815260a36020526040902054611431908390612806565b33600090815260a3602090815260408083209390935560a590522054611458908390612806565b33600081815260a56020526040902091909155609854611485916001600160a01b03909116903085611fa2565b60405182815233907f9e71bc8eea02a63969f509818f2dafb9254532904319f9dbda79b67bd34a5f3d90602001610d01565b6098546040805163313ce56760e01b815290516000926001600160a01b03169163313ce5679160048083019260209291908290030181865afa158015611501573d6000803e3d6000fd5b505050506040513d601f19601f820116820180604052508101906115259190612a07565b60ff16905090565b6099546001600160a01b031633146115575760405162461bcd60e51b81526004016106919061281e565b61076981611f2e565b6002609754036115825760405162461bcd60e51b81526004016106919061289c565b60026097553361159181611f2e565b33600090815260a6602052604090205482106115bc5733600090815260a660205260409020546115be565b815b91506115f56040518060a0016040528060008019168152602001600081526020016000815260200160008152602001600081525090565b835b838110156117b55733600090815260a66020526040902080548290811061162057611620612a2a565b90600052602060002090600502016000015486036117a35733600090815260a66020526040902080548290811061165957611659612a2a565b600091825260208083206040805160a0810182526005909402909101805484526001808201548585015260028201548584015260038201546060860152600490910154608085015233855260a69092529092208054919450916116bb916127ae565b815481106116cb576116cb612a2a565b906000526020600020906005020160a66000336001600160a01b03166001600160a01b03168152602001908152602001600020828154811061170f5761170f612a2a565b600091825260208083208454600590930201918255600180850154908301556002808501549083015560038085015490830155600493840154939091019290925533815260a69091526040902080548061176b5761176b612a40565b6000828152602081206005600019909301928302018181556001810182905560028101829055600381018290556004015590556117b5565b806117ad81612a56565b9150506115f7565b50805185146117f85760405162461bcd60e51b815260206004820152600f60248201526e14dd185ad9481b9bdd08199bdd5b99608a1b6044820152606401610691565b806060015142101580611812575060a85460ff1615156001145b6118575760405162461bcd60e51b81526020600482015260166024820152755374616b65206973207374696c6c206c6f636b65642160501b6044820152606401610691565b60408101516080820151600090620f42409061187390846127c5565b61187d91906127e4565b9050811561194c5733600090815260a460205260409020546118a09083906127ae565b33600090815260a4602090815260408083209390935560a5905220546118c79082906127ae565b33600090815260a5602052604090205560a1546118e59083906127ae565b60a15560a2546118f69082906127ae565b60a255609854611910906001600160a01b0316338461200d565b604080518381526020810189905233917f1f70bda8ea2447de035db87c33fe8f03f7514d49c394293e5cffdb4c34352cf6910160405180910390a25b505060016097555050505050565b6065546001600160a01b031633146119845760405162461bcd60e51b815260040161069190612867565b609c8190556040518181527ffb46ca5a5e06d4540d6387b930a7c978bce0db5f449ec6b3f5d07c6e1d44f2d3906020015b60405180910390a150565b600060a1546000036119d35750609e5490565b60a25460995460405163964efe8160e01b8152306004820152670de0b6b3a7640000916001600160a01b03169063964efe8190602401602060405180830381865afa158015611a26573d6000803e3d6000fd5b505050506040513d601f19601f82011682018060405250810190611a4a91906129ee565b609d54611a55611235565b611a5f91906127ae565b611a6991906127c5565b611a7391906127c5565b611a7d91906127e4565b609e54610b279190612806565b6065546001600160a01b03163314611ab45760405162461bcd60e51b815260040161069190612867565b60008211611b045760405162461bcd60e51b815260206004820152601d60248201527f416d6f756e7420746f207769746864726177206973206d697373696e670000006044820152606401610691565b6001600160a01b038116611b655760405162461bcd60e51b815260206004820152602260248201527f57697468647261776c2061646472657373206d757374206e6f74206265207a65604482015261726f60f01b6064820152608401610691565b6098546040516370a0823160e01b81523060048201526000916001600160a01b0316906370a0823190602401602060405180830381865afa158015611bae573d6000803e3d6000fd5b505050506040513d601f19601f82011682018060405250810190611bd291906129ee565b905080831115611c2f5760405162461bcd60e51b815260206004820152602260248201527f496e73756666696369656e74206c7020746f6b656e7320746f20776974686472604482015261617760f01b6064820152608401610691565b609854611c46906001600160a01b0316838561200d565b505050565b6065546001600160a01b03163314611c755760405162461bcd60e51b815260040161069190612867565b60a8805460ff19811660ff90911615179055565b600054610100900460ff16611ca45760005460ff1615611ca8565b303b155b611d0b5760405162461bcd60e51b815260206004820152602e60248201527f496e697469616c697a61626c653a20636f6e747261637420697320616c72656160448201526d191e481a5b9a5d1a585b1a5e995960921b6064820152608401610691565b600054610100900460ff16158015611d2d576000805461ffff19166101011790555b6001600160a01b038416611d835760405162461bcd60e51b815260206004820152601b60248201527f5374616b696e6720616464726573732063616e6e6f74206265203000000000006044820152606401610691565b6001600160a01b038316611df05760405162461bcd60e51b815260206004820152602e60248201527f5374616b696e6752657761726473446973747269627574696f6e20616464726560448201526d073732063616e6e6f7420626520360941b6064820152608401610691565b611df861217a565b611e006121a9565b609880546001600160a01b038087166001600160a01b0319928316179092556099805492861692909116919091179055609b805483151560ff199182161790915562093a80609c81905560a8805490921690915542609d819055611e649190612806565b609a5560016097558015611e7e576000805461ff00191690555b50505050565b6065546001600160a01b03163314611eae5760405162461bcd60e51b815260040161069190612867565b6001600160a01b038116611f135760405162461bcd60e51b815260206004820152602660248201527f4f776e61626c653a206e6577206f776e657220697320746865207a65726f206160448201526564647265737360d01b6064820152608401610691565b610769816120d0565b609a54421115610d4457610d446121d8565b609a54421115611f4557611f406121d8565b611f5c565b611f4d6119c0565b609e55611f58611235565b609d555b6001600160a01b0381161561076957611f74816105ea565b6001600160a01b038216600090815260a06020908152604080832093909355609e54609f9091529190205550565b6040516001600160a01b0380851660248301528316604482015260648101829052611e7e9085906323b872dd60e01b906084015b60408051601f198184030181529190526020810180516001600160e01b03166001600160e01b0319909316929092179091526122c4565b6040516001600160a01b038316602482015260448101829052611c4690849063a9059cbb60e01b90606401611fd6565b60335460ff166120865760405162461bcd60e51b815260206004820152601460248201527314185d5cd8589b194e881b9bdd081c185d5cd95960621b6044820152606401610691565b6033805460ff191690557f5db9ee0a495bf2e6ff9c91a7834c1ba4fdd244a5e8aa4e537bd38aeae4b073aa335b6040516001600160a01b03909116815260200160405180910390a1565b606580546001600160a01b038381166001600160a01b0319831681179093556040519116919082907f8be0079c531659141344cd1fd0a4f28419497f9722a3daafe3b4186f6b6457e090600090a35050565b60335460ff16156121455760405162461bcd60e51b8152600401610691906128d3565b6033805460ff191660011790557f62e78cea01bee320cd4e420270b5ea74000d11b0c9f74754ebdbfc544b05a2586120b33390565b600054610100900460ff166121a15760405162461bcd60e51b815260040161069190612a6f565b610d44612396565b600054610100900460ff166121d05760405162461bcd60e51b815260040161069190612a6f565b610d446123c6565b609a5442116122295760405162461bcd60e51b815260206004820152601b60248201527f506572696f6420686173206e6f742065787069726564207965742100000000006044820152606401610691565b6000609c54609a544261223c91906127ae565b61224691906127e4565b609c54909150612257826001612806565b61226191906127c5565b609a5461226e9190612806565b609a556122796119c0565b609e55612284611235565b609d556098546040516001600160a01b0390911681527f6f2b3b3aaf1881d69a5d40565500f93ea73df36e7b6a29bf48b21479a9237fe9906020016119b5565b6000612319826040518060400160405280602081526020017f5361666545524332303a206c6f772d6c6576656c2063616c6c206661696c6564815250856001600160a01b03166123f99092919063ffffffff16565b805190915015611c4657808060200190518101906123379190612aba565b611c465760405162461bcd60e51b815260206004820152602a60248201527f5361666545524332303a204552433230206f7065726174696f6e20646964206e6044820152691bdd081cdd58d8d9595960b21b6064820152608401610691565b600054610100900460ff166123bd5760405162461bcd60e51b815260040161069190612a6f565b610d44336120d0565b600054610100900460ff166123ed5760405162461bcd60e51b815260040161069190612a6f565b6033805460ff19169055565b60606124088484600085612412565b90505b9392505050565b6060824710156124735760405162461bcd60e51b815260206004820152602660248201527f416464726573733a20696e73756666696369656e742062616c616e636520666f6044820152651c8818d85b1b60d21b6064820152608401610691565b6001600160a01b0385163b6124ca5760405162461bcd60e51b815260206004820152601d60248201527f416464726573733a2063616c6c20746f206e6f6e2d636f6e74726163740000006044820152606401610691565b600080866001600160a01b031685876040516124e69190612b03565b60006040518083038185875af1925050503d8060008114612523576040519150601f19603f3d011682016040523d82523d6000602084013e612528565b606091505b5091509150612538828286612543565b979650505050505050565b6060831561255257508161240b565b8251156125625782518084602001fd5b8160405162461bcd60e51b81526004016106919190612b1f565b80356001600160a01b038116811461123057600080fd5b6000602082840312156125a557600080fd5b61240b8261257c565b6000806000606084860312156125c357600080fd5b6125cc8461257c565b95602085013595506040909401359392505050565b600080604083850312156125f457600080fd5b50508035926020909101359150565b602080825282518282018190526000919060409081850190868401855b828110156126645781518051855286810151878601528581015186860152606080820151908601526080908101519085015260a09093019290850190600101612620565b5091979650505050505050565b60006020828403121561268357600080fd5b5035919050565b801515811461076957600080fd5b600080604083850312156126ab57600080fd5b6126b48361257c565b915060208301356126c48161268a565b809150509250929050565b600080604083850312156126e257600080fd5b6126eb8361257c565b946020939093013593505050565b60008060006060848603121561270e57600080fd5b505081359360208301359350604090920135919050565b6000806040838503121561273857600080fd5b823591506127486020840161257c565b90509250929050565b60008060006060848603121561276657600080fd5b61276f8461257c565b925061277d6020850161257c565b9150604084013561278d8161268a565b809150509250925092565b634e487b7160e01b600052601160045260246000fd5b6000828210156127c0576127c0612798565b500390565b60008160001904831182151516156127df576127df612798565b500290565b60008261280157634e487b7160e01b600052601260045260246000fd5b500490565b6000821982111561281957612819612798565b500190565b60208082526029908201527f4f6e6c79207374616b696e67207265776172647320646973747269627574696f6040820152681b88185b1b1bddd95960ba1b606082015260800190565b6020808252818101527f4f776e61626c653a2063616c6c6572206973206e6f7420746865206f776e6572604082015260600190565b6020808252601f908201527f5265656e7472616e637947756172643a207265656e7472616e742063616c6c00604082015260600190565b60208082526010908201526f14185d5cd8589b194e881c185d5cd95960821b604082015260600190565b6020808252603e908201527f596f752063616e206f6e6c79207374616b65206c6f636b6564206c697175696460408201527f69747920313020796561727320666f72207472756520424420706f6f6c730000606082015260800190565b6020808252603e908201527f596f752063616e206f6e6c79207374616b65206c6f636b6564206c697175696460408201527f69747920666f7220312c20322c20332c2035206f722031302079656172730000606082015260800190565b6020808252601b908201527f6164647265737320686173206265656e20677265796c69737465640000000000604082015260600190565b600060208284031215612a0057600080fd5b5051919050565b600060208284031215612a1957600080fd5b815160ff8116811461240b57600080fd5b634e487b7160e01b600052603260045260246000fd5b634e487b7160e01b600052603160045260246000fd5b600060018201612a6857612a68612798565b5060010190565b6020808252602b908201527f496e697469616c697a61626c653a20636f6e7472616374206973206e6f74206960408201526a6e697469616c697a696e6760a81b606082015260800190565b600060208284031215612acc57600080fd5b815161240b8161268a565b60005b83811015612af2578181015183820152602001612ada565b83811115611e7e5750506000910152565b60008251612b15818460208701612ad7565b9190910192915050565b6020815260008251806020840152612b3e816040850160208701612ad7565b601f01601f1916919091016040019291505056fea26469706673582212206d13d8c3281dddd118ecadcceb09ca24bf0338194743956062a6f03c8f70df9864736f6c634300080d0033",
  "devdoc": {
    "kind": "dev",
    "methods": {
      "owner()": {
        "details": "Returns the address of the current owner."
      },
      "paused()": {
        "details": "Returns true if the contract is paused, and false otherwise."
      },
      "renounceOwnership()": {
        "details": "Leaves the contract without owner. It will not be possible to call `onlyOwner` functions anymore. Can only be called by the current owner. NOTE: Renouncing ownership will leave the contract without an owner, thereby removing any functionality that is only available to the owner."
      },
      "transferOwnership(address)": {
        "details": "Transfers ownership of the contract to a new account (`newOwner`). Can only be called by the current owner."
      }
    },
    "version": 1
  },
  "userdoc": {
    "kind": "user",
    "methods": {},
    "version": 1
  },
  "storageLayout": {
    "storage": [
      {
        "astId": 176,
        "contract": "contracts/Staking/StakingRewards.sol:StakingRewards",
        "label": "_initialized",
        "offset": 0,
        "slot": "0",
        "type": "t_bool"
      },
      {
        "astId": 179,
        "contract": "contracts/Staking/StakingRewards.sol:StakingRewards",
        "label": "_initializing",
        "offset": 1,
        "slot": "0",
        "type": "t_bool"
      },
      {
        "astId": 1578,
        "contract": "contracts/Staking/StakingRewards.sol:StakingRewards",
        "label": "__gap",
        "offset": 0,
        "slot": "1",
        "type": "t_array(t_uint256)50_storage"
      },
      {
        "astId": 264,
        "contract": "contracts/Staking/StakingRewards.sol:StakingRewards",
        "label": "_paused",
        "offset": 0,
        "slot": "51",
        "type": "t_bool"
      },
      {
        "astId": 353,
        "contract": "contracts/Staking/StakingRewards.sol:StakingRewards",
        "label": "__gap",
        "offset": 0,
        "slot": "52",
        "type": "t_array(t_uint256)49_storage"
      },
      {
        "astId": 56,
        "contract": "contracts/Staking/StakingRewards.sol:StakingRewards",
        "label": "_owner",
        "offset": 0,
        "slot": "101",
        "type": "t_address"
      },
      {
        "astId": 168,
        "contract": "contracts/Staking/StakingRewards.sol:StakingRewards",
        "label": "__gap",
        "offset": 0,
        "slot": "102",
        "type": "t_array(t_uint256)49_storage"
      },
      {
        "astId": 10228,
        "contract": "contracts/Staking/StakingRewards.sol:StakingRewards",
        "label": "_reentry_guard_status",
        "offset": 0,
        "slot": "151",
        "type": "t_uint256"
      },
      {
        "astId": 10231,
        "contract": "contracts/Staking/StakingRewards.sol:StakingRewards",
        "label": "stakingToken",
        "offset": 0,
        "slot": "152",
        "type": "t_contract(ERC20)2312"
      },
      {
        "astId": 10234,
        "contract": "contracts/Staking/StakingRewards.sol:StakingRewards",
        "label": "stakingRewardsDistribution",
        "offset": 0,
        "slot": "153",
        "type": "t_contract(StakingRewardsDistribution)12582"
      },
      {
        "astId": 10236,
        "contract": "contracts/Staking/StakingRewards.sol:StakingRewards",
        "label": "periodFinish",
        "offset": 0,
        "slot": "154",
        "type": "t_uint256"
      },
      {
        "astId": 10238,
        "contract": "contracts/Staking/StakingRewards.sol:StakingRewards",
        "label": "isTrueBdPool",
        "offset": 0,
        "slot": "155",
        "type": "t_bool"
      },
      {
        "astId": 10240,
        "contract": "contracts/Staking/StakingRewards.sol:StakingRewards",
        "label": "rewardsDurationSeconds",
        "offset": 0,
        "slot": "156",
        "type": "t_uint256"
      },
      {
        "astId": 10242,
        "contract": "contracts/Staking/StakingRewards.sol:StakingRewards",
        "label": "lastUpdateTime",
        "offset": 0,
        "slot": "157",
        "type": "t_uint256"
      },
      {
        "astId": 10244,
        "contract": "contracts/Staking/StakingRewards.sol:StakingRewards",
        "label": "rewardPerTokenStored_REWARD_PRECISION",
        "offset": 0,
        "slot": "158",
        "type": "t_uint256"
      },
      {
        "astId": 10248,
        "contract": "contracts/Staking/StakingRewards.sol:StakingRewards",
        "label": "userRewardPerTokenPaid_REWARD_PRECISION",
        "offset": 0,
        "slot": "159",
        "type": "t_mapping(t_address,t_uint256)"
      },
      {
        "astId": 10252,
        "contract": "contracts/Staking/StakingRewards.sol:StakingRewards",
        "label": "rewards",
        "offset": 0,
        "slot": "160",
        "type": "t_mapping(t_address,t_uint256)"
      },
      {
        "astId": 10254,
        "contract": "contracts/Staking/StakingRewards.sol:StakingRewards",
        "label": "_staking_token_supply",
        "offset": 0,
        "slot": "161",
        "type": "t_uint256"
      },
      {
        "astId": 10256,
        "contract": "contracts/Staking/StakingRewards.sol:StakingRewards",
        "label": "_staking_token_boosted_supply",
        "offset": 0,
        "slot": "162",
        "type": "t_uint256"
      },
      {
        "astId": 10260,
        "contract": "contracts/Staking/StakingRewards.sol:StakingRewards",
        "label": "_unlocked_balances",
        "offset": 0,
        "slot": "163",
        "type": "t_mapping(t_address,t_uint256)"
      },
      {
        "astId": 10264,
        "contract": "contracts/Staking/StakingRewards.sol:StakingRewards",
        "label": "_locked_balances",
        "offset": 0,
        "slot": "164",
        "type": "t_mapping(t_address,t_uint256)"
      },
      {
        "astId": 10268,
        "contract": "contracts/Staking/StakingRewards.sol:StakingRewards",
        "label": "_boosted_balances",
        "offset": 0,
        "slot": "165",
        "type": "t_mapping(t_address,t_uint256)"
      },
      {
        "astId": 10274,
        "contract": "contracts/Staking/StakingRewards.sol:StakingRewards",
        "label": "lockedStakes",
        "offset": 0,
        "slot": "166",
        "type": "t_mapping(t_address,t_array(t_struct(LockedStake)10291_storage)dyn_storage)"
      },
      {
        "astId": 10278,
        "contract": "contracts/Staking/StakingRewards.sol:StakingRewards",
        "label": "greylist",
        "offset": 0,
        "slot": "167",
        "type": "t_mapping(t_address,t_bool)"
      },
      {
        "astId": 10280,
        "contract": "contracts/Staking/StakingRewards.sol:StakingRewards",
        "label": "unlockedStakes",
        "offset": 0,
        "slot": "168",
        "type": "t_bool"
      }
    ],
    "types": {
      "t_address": {
        "encoding": "inplace",
        "label": "address",
        "numberOfBytes": "20"
      },
      "t_array(t_struct(LockedStake)10291_storage)dyn_storage": {
        "base": "t_struct(LockedStake)10291_storage",
        "encoding": "dynamic_array",
        "label": "struct StakingRewards.LockedStake[]",
        "numberOfBytes": "32"
      },
      "t_array(t_uint256)49_storage": {
        "base": "t_uint256",
        "encoding": "inplace",
        "label": "uint256[49]",
        "numberOfBytes": "1568"
      },
      "t_array(t_uint256)50_storage": {
        "base": "t_uint256",
        "encoding": "inplace",
        "label": "uint256[50]",
        "numberOfBytes": "1600"
      },
      "t_bool": {
        "encoding": "inplace",
        "label": "bool",
        "numberOfBytes": "1"
      },
      "t_bytes32": {
        "encoding": "inplace",
        "label": "bytes32",
        "numberOfBytes": "32"
      },
      "t_contract(ERC20)2312": {
        "encoding": "inplace",
        "label": "contract ERC20",
        "numberOfBytes": "20"
      },
      "t_contract(StakingRewardsDistribution)12582": {
        "encoding": "inplace",
        "label": "contract StakingRewardsDistribution",
        "numberOfBytes": "20"
      },
      "t_mapping(t_address,t_array(t_struct(LockedStake)10291_storage)dyn_storage)": {
        "encoding": "mapping",
        "key": "t_address",
        "label": "mapping(address => struct StakingRewards.LockedStake[])",
        "numberOfBytes": "32",
        "value": "t_array(t_struct(LockedStake)10291_storage)dyn_storage"
      },
      "t_mapping(t_address,t_bool)": {
        "encoding": "mapping",
        "key": "t_address",
        "label": "mapping(address => bool)",
        "numberOfBytes": "32",
        "value": "t_bool"
      },
      "t_mapping(t_address,t_uint256)": {
        "encoding": "mapping",
        "key": "t_address",
        "label": "mapping(address => uint256)",
        "numberOfBytes": "32",
        "value": "t_uint256"
      },
      "t_struct(LockedStake)10291_storage": {
        "encoding": "inplace",
        "label": "struct StakingRewards.LockedStake",
        "members": [
          {
            "astId": 10282,
            "contract": "contracts/Staking/StakingRewards.sol:StakingRewards",
            "label": "kek_id",
            "offset": 0,
            "slot": "0",
            "type": "t_bytes32"
          },
          {
            "astId": 10284,
            "contract": "contracts/Staking/StakingRewards.sol:StakingRewards",
            "label": "start_timestamp",
            "offset": 0,
            "slot": "1",
            "type": "t_uint256"
          },
          {
            "astId": 10286,
            "contract": "contracts/Staking/StakingRewards.sol:StakingRewards",
            "label": "amount",
            "offset": 0,
            "slot": "2",
            "type": "t_uint256"
          },
          {
            "astId": 10288,
            "contract": "contracts/Staking/StakingRewards.sol:StakingRewards",
            "label": "ending_timestamp",
            "offset": 0,
            "slot": "3",
            "type": "t_uint256"
          },
          {
            "astId": 10290,
            "contract": "contracts/Staking/StakingRewards.sol:StakingRewards",
            "label": "multiplier_LOCK_MULTIPLIER_PRECISION",
            "offset": 0,
            "slot": "4",
            "type": "t_uint256"
          }
        ],
        "numberOfBytes": "160"
      },
      "t_uint256": {
        "encoding": "inplace",
        "label": "uint256",
        "numberOfBytes": "32"
      }
    }
  }
}