{
  "address": "0x6f30D6E61a7d5cc696C457d8b9aCa7364cDBFba3",
  "abi": [
    {
      "anonymous": false,
      "inputs": [
        {
          "indexed": true,
          "internalType": "address",
          "name": "previousOwner",
          "type": "address"
        },
        {
          "indexed": true,
          "internalType": "address",
          "name": "newOwner",
          "type": "address"
        }
      ],
      "name": "OwnershipTransferred",
      "type": "event"
    },
    {
      "anonymous": false,
      "inputs": [
        {
          "indexed": true,
          "internalType": "address",
          "name": "stakingRewardsAddress",
          "type": "address"
        },
        {
          "indexed": true,
          "internalType": "uint256",
          "name": "stakingRewardsWeight",
          "type": "uint256"
        }
      ],
      "name": "PoolRegistered",
      "type": "event"
    },
    {
      "anonymous": false,
      "inputs": [
        {
          "indexed": true,
          "internalType": "address",
          "name": "pool",
          "type": "address"
        }
      ],
      "name": "PoolRemoved",
      "type": "event"
    },
    {
      "anonymous": false,
      "inputs": [
        {
          "indexed": false,
          "internalType": "uint256",
          "name": "newRewardFee_d12",
          "type": "uint256"
        }
      ],
      "name": "RewardFeeChanged",
      "type": "event"
    },
    {
      "anonymous": false,
      "inputs": [
        {
          "indexed": false,
          "internalType": "address",
          "name": "newTreasury",
          "type": "address"
        }
      ],
      "name": "TreasuryChanged",
      "type": "event"
    },
    {
      "anonymous": false,
      "inputs": [
        {
          "indexed": false,
          "internalType": "address",
          "name": "newVesting",
          "type": "address"
        }
      ],
      "name": "VestingChanged",
      "type": "event"
    },
    {
      "anonymous": false,
      "inputs": [
        {
          "indexed": false,
          "internalType": "uint256",
          "name": "vestingRewardRatio_percent",
          "type": "uint256"
        }
      ],
      "name": "VestingRewardRatioSet",
      "type": "event"
    },
    {
      "inputs": [],
      "name": "BDX_MINTING_SCHEDULE_PRECISON",
      "outputs": [
        {
          "internalType": "uint256",
          "name": "",
          "type": "uint256"
        }
      ],
      "stateMutability": "view",
      "type": "function"
    },
    {
      "inputs": [],
      "name": "BDX_MINTING_SCHEDULE_YEAR_1",
      "outputs": [
        {
          "internalType": "uint256",
          "name": "",
          "type": "uint256"
        }
      ],
      "stateMutability": "view",
      "type": "function"
    },
    {
      "inputs": [],
      "name": "BDX_MINTING_SCHEDULE_YEAR_2",
      "outputs": [
        {
          "internalType": "uint256",
          "name": "",
          "type": "uint256"
        }
      ],
      "stateMutability": "view",
      "type": "function"
    },
    {
      "inputs": [],
      "name": "BDX_MINTING_SCHEDULE_YEAR_3",
      "outputs": [
        {
          "internalType": "uint256",
          "name": "",
          "type": "uint256"
        }
      ],
      "stateMutability": "view",
      "type": "function"
    },
    {
      "inputs": [],
      "name": "BDX_MINTING_SCHEDULE_YEAR_4",
      "outputs": [
        {
          "internalType": "uint256",
          "name": "",
          "type": "uint256"
        }
      ],
      "stateMutability": "view",
      "type": "function"
    },
    {
      "inputs": [],
      "name": "BDX_MINTING_SCHEDULE_YEAR_5",
      "outputs": [
        {
          "internalType": "uint256",
          "name": "",
          "type": "uint256"
        }
      ],
      "stateMutability": "view",
      "type": "function"
    },
    {
      "inputs": [],
      "name": "EndOfYear_1",
      "outputs": [
        {
          "internalType": "uint256",
          "name": "",
          "type": "uint256"
        }
      ],
      "stateMutability": "view",
      "type": "function"
    },
    {
      "inputs": [],
      "name": "EndOfYear_2",
      "outputs": [
        {
          "internalType": "uint256",
          "name": "",
          "type": "uint256"
        }
      ],
      "stateMutability": "view",
      "type": "function"
    },
    {
      "inputs": [],
      "name": "EndOfYear_3",
      "outputs": [
        {
          "internalType": "uint256",
          "name": "",
          "type": "uint256"
        }
      ],
      "stateMutability": "view",
      "type": "function"
    },
    {
      "inputs": [],
      "name": "EndOfYear_4",
      "outputs": [
        {
          "internalType": "uint256",
          "name": "",
          "type": "uint256"
        }
      ],
      "stateMutability": "view",
      "type": "function"
    },
    {
      "inputs": [],
      "name": "EndOfYear_5",
      "outputs": [
        {
          "internalType": "uint256",
          "name": "",
          "type": "uint256"
        }
      ],
      "stateMutability": "view",
      "type": "function"
    },
    {
      "inputs": [],
      "name": "HUNDRED_PERCENT",
      "outputs": [
        {
          "internalType": "uint256",
          "name": "",
          "type": "uint256"
        }
      ],
      "stateMutability": "view",
      "type": "function"
    },
    {
      "inputs": [],
      "name": "MAX_REWARD_FEE",
      "outputs": [
        {
          "internalType": "uint256",
          "name": "",
          "type": "uint256"
        }
      ],
      "stateMutability": "view",
      "type": "function"
    },
    {
      "inputs": [],
      "name": "TOTAL_BDX_SUPPLY",
      "outputs": [
        {
          "internalType": "uint256",
          "name": "",
          "type": "uint256"
        }
      ],
      "stateMutability": "view",
      "type": "function"
    },
    {
      "inputs": [
        {
          "internalType": "uint256",
          "name": "from",
          "type": "uint256"
        },
        {
          "internalType": "uint256",
          "name": "to",
          "type": "uint256"
        }
      ],
      "name": "collectAllRewards",
      "outputs": [],
      "stateMutability": "nonpayable",
      "type": "function"
    },
    {
      "inputs": [
        {
          "internalType": "address",
          "name": "_stakingRewardsAddress",
          "type": "address"
        }
      ],
      "name": "getRewardRatePerSecond",
      "outputs": [
        {
          "internalType": "uint256",
          "name": "",
          "type": "uint256"
        }
      ],
      "stateMutability": "view",
      "type": "function"
    },
    {
      "inputs": [
        {
          "internalType": "address",
          "name": "_rewardsToken",
          "type": "address"
        },
        {
          "internalType": "address",
          "name": "_vesting",
          "type": "address"
        },
        {
          "internalType": "address",
          "name": "_treasury",
          "type": "address"
        },
        {
          "internalType": "uint256",
          "name": "_vestingRewardRatio_percent",
          "type": "uint256"
        }
      ],
      "name": "initialize",
      "outputs": [],
      "stateMutability": "nonpayable",
      "type": "function"
    },
    {
      "inputs": [],
      "name": "owner",
      "outputs": [
        {
          "internalType": "address",
          "name": "",
          "type": "address"
        }
      ],
      "stateMutability": "view",
      "type": "function"
    },
    {
      "inputs": [
        {
          "internalType": "address[]",
          "name": "_stakingRewardsAddresses",
          "type": "address[]"
        },
        {
          "internalType": "uint256[]",
          "name": "_stakingRewardsWeights",
          "type": "uint256[]"
        }
      ],
      "name": "registerPools",
      "outputs": [],
      "stateMutability": "nonpayable",
      "type": "function"
    },
    {
      "inputs": [],
      "name": "renounceOwnership",
      "outputs": [],
      "stateMutability": "nonpayable",
      "type": "function"
    },
    {
      "inputs": [],
      "name": "rewardFee_d12",
      "outputs": [
        {
          "internalType": "uint256",
          "name": "",
          "type": "uint256"
        }
      ],
      "stateMutability": "view",
      "type": "function"
    },
    {
      "inputs": [],
      "name": "rewardsToken",
      "outputs": [
        {
          "internalType": "contract BDXShares",
          "name": "",
          "type": "address"
        }
      ],
      "stateMutability": "view",
      "type": "function"
    },
    {
      "inputs": [
        {
          "internalType": "uint256",
          "name": "_rewardFee_d12",
          "type": "uint256"
        }
      ],
      "name": "setRewardFee_d12",
      "outputs": [],
      "stateMutability": "nonpayable",
      "type": "function"
    },
    {
      "inputs": [
        {
          "internalType": "address",
          "name": "_treasury",
          "type": "address"
        }
      ],
      "name": "setTreasury",
      "outputs": [],
      "stateMutability": "nonpayable",
      "type": "function"
    },
    {
      "inputs": [
        {
          "internalType": "address",
          "name": "_vesting",
          "type": "address"
        }
      ],
      "name": "setVesting",
      "outputs": [],
      "stateMutability": "nonpayable",
      "type": "function"
    },
    {
      "inputs": [
        {
          "internalType": "uint256",
          "name": "_vestingRewardRatio",
          "type": "uint256"
        }
      ],
      "name": "setVestingRewardRatio",
      "outputs": [],
      "stateMutability": "nonpayable",
      "type": "function"
    },
    {
      "inputs": [
        {
          "internalType": "uint256",
          "name": "",
          "type": "uint256"
        }
      ],
      "name": "stakingRewardsAddresses",
      "outputs": [
        {
          "internalType": "address",
          "name": "",
          "type": "address"
        }
      ],
      "stateMutability": "view",
      "type": "function"
    },
    {
      "inputs": [
        {
          "internalType": "address",
          "name": "",
          "type": "address"
        }
      ],
      "name": "stakingRewardsWeights",
      "outputs": [
        {
          "internalType": "uint256",
          "name": "",
          "type": "uint256"
        }
      ],
      "stateMutability": "view",
      "type": "function"
    },
    {
      "inputs": [],
      "name": "stakingRewardsWeightsTotal",
      "outputs": [
        {
          "internalType": "uint256",
          "name": "",
          "type": "uint256"
        }
      ],
      "stateMutability": "view",
      "type": "function"
    },
    {
      "inputs": [
        {
          "internalType": "address",
          "name": "newOwner",
          "type": "address"
        }
      ],
      "name": "transferOwnership",
      "outputs": [],
      "stateMutability": "nonpayable",
      "type": "function"
    },
    {
      "inputs": [],
      "name": "treasury",
      "outputs": [
        {
          "internalType": "address",
          "name": "",
          "type": "address"
        }
      ],
      "stateMutability": "view",
      "type": "function"
    },
    {
      "inputs": [
        {
          "internalType": "address",
          "name": "pool",
          "type": "address"
        },
        {
          "internalType": "uint256",
          "name": "from",
          "type": "uint256"
        },
        {
          "internalType": "uint256",
          "name": "to",
          "type": "uint256"
        }
      ],
      "name": "unregisterPool",
      "outputs": [],
      "stateMutability": "nonpayable",
      "type": "function"
    },
    {
      "inputs": [],
      "name": "vesting",
      "outputs": [
        {
          "internalType": "contract Vesting",
          "name": "",
          "type": "address"
        }
      ],
      "stateMutability": "view",
      "type": "function"
    },
    {
      "inputs": [],
      "name": "vestingRewardRatio_percent",
      "outputs": [
        {
          "internalType": "uint256",
          "name": "",
          "type": "uint256"
        }
      ],
      "stateMutability": "view",
      "type": "function"
    }
  ],
  "transactionHash": "0xda6e6ff8a697518f4c6fed649a733b9f4bbf83e9892884aefbd47e577e19b5a1",
  "args": [],
  "solcInputHash": "b294d4f832d1b624cff5bce7ec83401e",
  "bytecode": "0x608060405234801561001057600080fd5b50611f47806100206000396000f3fe608060405234801561001057600080fd5b50600436106102065760003560e01c806391dfa22b1161011a578063cde076bd116100ad578063e363d7601161007c578063e363d7601461040b578063e6b595dd14610413578063f0f4426014610445578063f2ae870a1461046b578063f2fde38b1461052d57610206565b8063cde076bd146103b7578063cf756fdf146103bf578063d101a80d146103fb578063d1af0c7d1461040357610206565b8063ad98f045116100e9578063ad98f04514610382578063b3e90f181461038a578063b805df71146103a7578063c2f62150146103af57610206565b806391dfa22b14610326578063964efe811461034c5780639c4dd2b314610372578063aa2009511461037a57610206565b80636ed93dd01161019d57806377d75d031161016c57806377d75d03146102fe57806382d8b3e0146103065780638ceb52501461030e5780638da5cb5b146103165780638e99d10b1461031e57610206565b80636ed93dd0146102ab5780636f6ff3bc146102b3578063715018a6146102d957806374a62ad9146102e157610206565b80633b0ade12116101d95780633b0ade121461025a5780633b684c721461027757806344c63eec1461027f57806361d027b3146102a357610206565b8063015ef47b1461020b57806316cf94671461022557806328d48e9f1461022d57806337dbdaa514610235575b600080fd5b610213610553565b60408051918252519081900360200190f35b610213610559565b610213610562565b6102586004803603604081101561024b57600080fd5b5080359060200135610568565b005b6102586004803603602081101561027057600080fd5b50356107bc565b610213610899565b61028761089f565b604080516001600160a01b039092168252519081900360200190f35b6102876108ae565b6102136108bd565b610258600480360360208110156102c957600080fd5b50356001600160a01b03166108c2565b610258610978565b610258600480360360208110156102f757600080fd5b5035610a24565b610213610b1b565b610213610b21565b610213610b27565b610287610b2d565b610213610b3c565b6102136004803603602081101561033c57600080fd5b50356001600160a01b0316610b42565b6102136004803603602081101561036257600080fd5b50356001600160a01b0316610b54565b610213610bf9565b610213610bff565b610213610c05565b610287600480360360208110156103a057600080fd5b5035610c0b565b610213610c32565b610213610c38565b610213610c3e565b610258600480360360808110156103d557600080fd5b506001600160a01b03813581169160208101358216916040820135169060600135610c44565b610213610fa5565b610287610fab565b610213610fba565b6102586004803603606081101561042957600080fd5b506001600160a01b038135169060208101359060400135610fc0565b6102586004803603602081101561045b57600080fd5b50356001600160a01b0316611174565b6102586004803603604081101561048157600080fd5b81019060208101813564010000000081111561049c57600080fd5b8201836020820111156104ae57600080fd5b803590602001918460208302840111640100000000831117156104d057600080fd5b9193909290916020810190356401000000008111156104ee57600080fd5b82018360208201111561050057600080fd5b8035906020019184602083028401116401000000008311171561052257600080fd5b50909250905061122a565b6102586004803603602081101561054357600080fd5b50356001600160a01b031661149b565b60675481565b64e8d4a5100081565b60705481565b60765481106105795760765461057b565b805b905060008080845b848110156107785760006076828154811061059a57fe5b6000918252602082200154604080516331b5a45b60e21b815233600482015290516001600160a01b039092169350839263c6d6916c9260248084019382900301818387803b1580156105eb57600080fd5b505af11580156105ff573d6000803e3d6000fd5b505050506000816001600160a01b0316630700037d336040518263ffffffff1660e01b815260040180826001600160a01b0316815260200191505060206040518083038186803b15801561065257600080fd5b505afa158015610666573d6000803e3d6000fd5b505050506040513d602081101561067c57600080fd5b50519050801561076e5760006106ac64e8d4a510006106a66071548561159e90919063ffffffff16565b90611600565b905060006106ba8383611667565b905060006106c7826116c4565b905060006106d58383611667565b90506106e18a856116eb565b99506106ed89836116eb565b98506106f988826116eb565b604080516207926760e91b8152336004820152602481018590526044810184905290519199506001600160a01b03881691630f24ce009160648082019260009290919082900301818387803b15801561075157600080fd5b505af1158015610765573d6000803e3d6000fd5b50505050505050505b5050600101610583565b5060008211806107885750600081115b156107b557610798338383611745565b6074546072546107b5916001600160a01b0391821691168561184b565b5050505050565b6107c461189d565b6001600160a01b03166107d5610b2d565b6001600160a01b03161461081e576040805162461bcd60e51b81526020600482018190526024820152600080516020611ec8833981519152604482015290519081900360640190fd5b606481111561085e5760405162461bcd60e51b8152600401808060200182810382526029815260200180611e9f6029913960400191505060405180910390fd5b60708190556040805182815290517fdabd62a5a844ea1b1b4d224e33d10c31b1ec9aeacb0c7deb1df4ac60e75fe7609181900360200190a150565b606c5481565b6073546001600160a01b031681565b6074546001600160a01b031681565b606481565b6108ca61189d565b6001600160a01b03166108db610b2d565b6001600160a01b031614610924576040805162461bcd60e51b81526020600482018190526024820152600080516020611ec8833981519152604482015290519081900360640190fd5b607380546001600160a01b0383166001600160a01b0319909116811790915560408051918252517fa382d6de23230b4513b2ee62dcfa30957a86ccaf67a224d61a08bbff48348e639181900360200190a150565b61098061189d565b6001600160a01b0316610991610b2d565b6001600160a01b0316146109da576040805162461bcd60e51b81526020600482018190526024820152600080516020611ec8833981519152604482015290519081900360640190fd5b6033546040516000916001600160a01b0316907f8be0079c531659141344cd1fd0a4f28419497f9722a3daafe3b4186f6b6457e0908390a3603380546001600160a01b0319169055565b610a2c61189d565b6001600160a01b0316610a3d610b2d565b6001600160a01b031614610a86576040805162461bcd60e51b81526020600482018190526024820152600080516020611ec8833981519152604482015290519081900360640190fd5b64e8d4a51000811115610ae0576040805162461bcd60e51b815260206004820152601d60248201527f526577617264206665652063616e6e6f74206578636565642031303025000000604482015290519081900360640190fd5b60718190556040805182815290517fb04326921c7fe0db0b9dfc8955206be5acd2a8b119862718f0d28182bcd4ca449181900360200190a150565b60665481565b60655481565b60715481565b6033546001600160a01b031690565b606d5481565b60756020526000908152604090205481565b606b546000908190421015610b6c5750606654610bbc565b606c54421015610b7f5750606754610bbc565b606d54421015610b925750606854610bbc565b606e54421015610ba55750606954610bbc565b606f54421015610bb85750606a54610bbc565b5060005b6077546001600160a01b0384166000908152607560205260408120549091610bf1916106a6906301e13380908290879061159e565b949350505050565b606a5481565b606b5481565b60695481565b60768181548110610c1857fe5b6000918252602090912001546001600160a01b0316905081565b606e5481565b60775481565b60685481565b600054610100900460ff1680610c5d5750610c5d6118a1565b80610c6b575060005460ff16155b610ca65760405162461bcd60e51b815260040180806020018281038252602e815260200180611e50602e913960400191505060405180910390fd5b600054610100900460ff16158015610cd1576000805460ff1961ff0019909116610100171660011790555b6001600160a01b038516610d2c576040805162461bcd60e51b815260206004820152601b60248201527f5265776172647320616464726573732063616e6e6f7420626520300000000000604482015290519081900360640190fd5b6001600160a01b038416610d87576040805162461bcd60e51b815260206004820152601b60248201527f56657374696e6720616464726573732063616e6e6f7420626520300000000000604482015290519081900360640190fd5b6001600160a01b038316610de2576040805162461bcd60e51b815260206004820152601c60248201527f547265617375727920616464726573732063616e6e6f74206265203000000000604482015290519081900360640190fd5b6064821115610e225760405162461bcd60e51b8152600401808060200182810382526029815260200180611e9f6029913960400191505060405180910390fd5b610e2a6118b2565b607280546001600160a01b038088166001600160a01b031992831617928390556073805488831690841617905560748054878316931692909217909155604080516333039d3d60e01b8152905192909116916333039d3d91600480820192602092909190829003018186803b158015610ea257600080fd5b505afa158015610eb6573d6000803e3d6000fd5b505050506040513d6020811015610ecc57600080fd5b50516065819055610ee6906103e8906106a69060c861159e565b606655606554610eff906103e8906106a690607d61159e565b606755606554610f18906103e8906106a690606461159e565b606855606554610f31906103e8906106a690603261159e565b606955606554610f4a906103e8906106a690601961159e565b606a55426301e133808101606b556303c267008101606c556305a39a808101606d55630784ce008101606e55630966018001606f55607082905564174876e80060715580156107b5576000805461ff00191690555050505050565b6103e881565b6072546001600160a01b031681565b606f5481565b610fc861189d565b6001600160a01b0316610fd9610b2d565b6001600160a01b031614611022576040805162461bcd60e51b81526020600482018190526024820152600080516020611ec8833981519152604482015290519081900360640190fd5b607654811061103357607654611035565b805b6001600160a01b0384166000908152607560205260408120805460778054919091039055559050815b8181101561116d57836001600160a01b03166076828154811061107d57fe5b6000918252602090912001546001600160a01b03161415611165576076805460001981019081106110aa57fe5b600091825260209091200154607680546001600160a01b0390921691839081106110d057fe5b9060005260206000200160006101000a8154816001600160a01b0302191690836001600160a01b03160217905550607680548061110957fe5b600082815260208120820160001990810180546001600160a01b03191690559091019091556040516001600160a01b038616917f4106dfdaa577573db51c0ca93f766dbedfa0758faa2e7f5bcdb7c142be803c3f91a25061116f565b60010161105e565b505b505050565b61117c61189d565b6001600160a01b031661118d610b2d565b6001600160a01b0316146111d6576040805162461bcd60e51b81526020600482018190526024820152600080516020611ec8833981519152604482015290519081900360640190fd5b607480546001600160a01b0383166001600160a01b0319909116811790915560408051918252517fc714d22a2f08b695f81e7c707058db484aa5b4d6b4c9fd64beb10fe85832f6089181900360200190a150565b61123261189d565b6001600160a01b0316611243610b2d565b6001600160a01b03161461128c576040805162461bcd60e51b81526020600482018190526024820152600080516020611ec8833981519152604482015290519081900360640190fd5b8281146112ca5760405162461bcd60e51b8152600401808060200182810382526036815260200180611df46036913960400191505060405180910390fd5b60005b838110156107b557607560008686848181106112e557fe5b905060200201356001600160a01b03166001600160a01b03166001600160a01b03168152602001908152602001600020546000141561136957607685858381811061132c57fe5b835460018101855560009485526020948590200180546001600160a01b0319166001600160a01b0395909202939093013593909316929092179055505b6075600086868481811061137957fe5b905060200201356001600160a01b03166001600160a01b03166001600160a01b03168152602001908152602001600020546077600082825403925050819055508282828181106113c557fe5b90506020020135607560008787858181106113dc57fe5b905060200201356001600160a01b03166001600160a01b03166001600160a01b031681526020019081526020016000208190555082828281811061141c57fe5b6077805460209092029390930135019091555082828281811061143b57fe5b9050602002013585858381811061144e57fe5b905060200201356001600160a01b03166001600160a01b03167f8e7aeb727a8d0fd229ea085622d6ed0bf0ec5eda2885f3b38e6438cf586970fa60405160405180910390a36001016112cd565b6114a361189d565b6001600160a01b03166114b4610b2d565b6001600160a01b0316146114fd576040805162461bcd60e51b81526020600482018190526024820152600080516020611ec8833981519152604482015290519081900360640190fd5b6001600160a01b0381166115425760405162461bcd60e51b8152600401808060200182810382526026815260200180611dce6026913960400191505060405180910390fd5b6033546040516001600160a01b038084169216907f8be0079c531659141344cd1fd0a4f28419497f9722a3daafe3b4186f6b6457e090600090a3603380546001600160a01b0319166001600160a01b0392909216919091179055565b6000826115ad575060006115fa565b828202828482816115ba57fe5b04146115f75760405162461bcd60e51b8152600401808060200182810382526021815260200180611e7e6021913960400191505060405180910390fd5b90505b92915050565b6000808211611656576040805162461bcd60e51b815260206004820152601a60248201527f536166654d6174683a206469766973696f6e206279207a65726f000000000000604482015290519081900360640190fd5b81838161165f57fe5b049392505050565b6000828211156116be576040805162461bcd60e51b815260206004820152601e60248201527f536166654d6174683a207375627472616374696f6e206f766572666c6f770000604482015290519081900360640190fd5b50900390565b60006115fa60646106a66116e4607054606461166790919063ffffffff16565b859061159e565b6000828201838110156115f7576040805162461bcd60e51b815260206004820152601b60248201527f536166654d6174683a206164646974696f6e206f766572666c6f770000000000604482015290519081900360640190fd5b6072546073546040805163095ea7b360e01b81526001600160a01b039283166004820152602481018590529051919092169163095ea7b39160448083019260209291908290030181600087803b15801561179e57600080fd5b505af11580156117b2573d6000803e3d6000fd5b505050506040513d60208110156117c857600080fd5b50506073546040805163b84c8ce560e01b81526001600160a01b038681166004830152602482018590529151919092169163b84c8ce591604480830192600092919082900301818387803b15801561181f57600080fd5b505af1158015611833573d6000803e3d6000fd5b505060725461116f92506001600160a01b0316905084845b604080516001600160a01b038416602482015260448082018490528251808303909101815260649091019091526020810180516001600160e01b031663a9059cbb60e01b17905261116f908490611964565b3390565b60006118ac30611a15565b15905090565b600054610100900460ff16806118cb57506118cb6118a1565b806118d9575060005460ff16155b6119145760405162461bcd60e51b815260040180806020018281038252602e815260200180611e50602e913960400191505060405180910390fd5b600054610100900460ff1615801561193f576000805460ff1961ff0019909116610100171660011790555b611947611a1b565b61194f611abb565b8015611961576000805461ff00191690555b50565b60606119b9826040518060400160405280602081526020017f5361666545524332303a206c6f772d6c6576656c2063616c6c206661696c6564815250856001600160a01b0316611bb49092919063ffffffff16565b80519091501561116f578080602001905160208110156119d857600080fd5b505161116f5760405162461bcd60e51b815260040180806020018281038252602a815260200180611ee8602a913960400191505060405180910390fd5b3b151590565b600054610100900460ff1680611a345750611a346118a1565b80611a42575060005460ff16155b611a7d5760405162461bcd60e51b815260040180806020018281038252602e815260200180611e50602e913960400191505060405180910390fd5b600054610100900460ff1615801561194f576000805460ff1961ff0019909116610100171660011790558015611961576000805461ff001916905550565b600054610100900460ff1680611ad45750611ad46118a1565b80611ae2575060005460ff16155b611b1d5760405162461bcd60e51b815260040180806020018281038252602e815260200180611e50602e913960400191505060405180910390fd5b600054610100900460ff16158015611b48576000805460ff1961ff0019909116610100171660011790555b6000611b5261189d565b603380546001600160a01b0319166001600160a01b038316908117909155604051919250906000907f8be0079c531659141344cd1fd0a4f28419497f9722a3daafe3b4186f6b6457e0908290a3508015611961576000805461ff001916905550565b6060611bc38484600085611bcd565b90505b9392505050565b606082471015611c0e5760405162461bcd60e51b8152600401808060200182810382526026815260200180611e2a6026913960400191505060405180910390fd5b611c1785611a15565b611c68576040805162461bcd60e51b815260206004820152601d60248201527f416464726573733a2063616c6c20746f206e6f6e2d636f6e7472616374000000604482015290519081900360640190fd5b60006060866001600160a01b031685876040518082805190602001908083835b60208310611ca75780518252601f199092019160209182019101611c88565b6001836020036101000a03801982511681845116808217855250505050505090500191505060006040518083038185875af1925050503d8060008114611d09576040519150601f19603f3d011682016040523d82523d6000602084013e611d0e565b606091505b5091509150611d1e828286611d29565b979650505050505050565b60608315611d38575081611bc6565b825115611d485782518084602001fd5b8160405162461bcd60e51b81526004018080602001828103825283818151815260200191508051906020019080838360005b83811015611d92578181015183820152602001611d7a565b50505050905090810190601f168015611dbf5780820380516001836020036101000a031916815260200191505b509250505060405180910390fdfe4f776e61626c653a206e6577206f776e657220697320746865207a65726f2061646472657373506f6f6c732061646472657373657320616e642077656967687473206c656e677468732073686f756c64206265207468652073616d65416464726573733a20696e73756666696369656e742062616c616e636520666f722063616c6c496e697469616c697a61626c653a20636f6e747261637420697320616c726561647920696e697469616c697a6564536166654d6174683a206d756c7469706c69636174696f6e206f766572666c6f7756657374696e67526577617264526174696f5f70657263656e74206d757374206265203c3d203130304f776e61626c653a2063616c6c6572206973206e6f7420746865206f776e65725361666545524332303a204552433230206f7065726174696f6e20646964206e6f742073756363656564a26469706673582212205c50b69f8ea8735d4b531ae5693472b6927460bb072fe7ff0982ec36cd05517564736f6c634300060c0033",
  "devdoc": {
    "kind": "dev",
    "methods": {
      "owner()": {
        "details": "Returns the address of the current owner."
      },
      "renounceOwnership()": {
        "details": "Leaves the contract without owner. It will not be possible to call `onlyOwner` functions anymore. Can only be called by the current owner. NOTE: Renouncing ownership will leave the contract without an owner, thereby removing any functionality that is only available to the owner."
      },
      "transferOwnership(address)": {
        "details": "Transfers ownership of the contract to a new account (`newOwner`). Can only be called by the current owner."
      }
    },
    "version": 1
  },
  "userdoc": {
    "kind": "user",
    "methods": {},
    "version": 1
  },
  "storageLayout": {
    "storage": [
      {
        "astId": 492,
        "contract": "contracts/Staking/StakingRewardsDistribution.sol:StakingRewardsDistribution",
        "label": "_initialized",
        "offset": 0,
        "slot": "0",
        "type": "t_bool"
      },
      {
        "astId": 495,
        "contract": "contracts/Staking/StakingRewardsDistribution.sol:StakingRewardsDistribution",
        "label": "_initializing",
        "offset": 1,
        "slot": "0",
        "type": "t_bool"
      },
      {
        "astId": 1660,
        "contract": "contracts/Staking/StakingRewardsDistribution.sol:StakingRewardsDistribution",
        "label": "__gap",
        "offset": 0,
        "slot": "1",
        "type": "t_array(t_uint256)50_storage"
      },
      {
        "astId": 10,
        "contract": "contracts/Staking/StakingRewardsDistribution.sol:StakingRewardsDistribution",
        "label": "_owner",
        "offset": 0,
        "slot": "51",
        "type": "t_address"
      },
      {
        "astId": 129,
        "contract": "contracts/Staking/StakingRewardsDistribution.sol:StakingRewardsDistribution",
        "label": "__gap",
        "offset": 0,
        "slot": "52",
        "type": "t_array(t_uint256)49_storage"
      },
      {
        "astId": 12116,
        "contract": "contracts/Staking/StakingRewardsDistribution.sol:StakingRewardsDistribution",
        "label": "TOTAL_BDX_SUPPLY",
        "offset": 0,
        "slot": "101",
        "type": "t_uint256"
      },
      {
        "astId": 12127,
        "contract": "contracts/Staking/StakingRewardsDistribution.sol:StakingRewardsDistribution",
        "label": "BDX_MINTING_SCHEDULE_YEAR_1",
        "offset": 0,
        "slot": "102",
        "type": "t_uint256"
      },
      {
        "astId": 12129,
        "contract": "contracts/Staking/StakingRewardsDistribution.sol:StakingRewardsDistribution",
        "label": "BDX_MINTING_SCHEDULE_YEAR_2",
        "offset": 0,
        "slot": "103",
        "type": "t_uint256"
      },
      {
        "astId": 12131,
        "contract": "contracts/Staking/StakingRewardsDistribution.sol:StakingRewardsDistribution",
        "label": "BDX_MINTING_SCHEDULE_YEAR_3",
        "offset": 0,
        "slot": "104",
        "type": "t_uint256"
      },
      {
        "astId": 12133,
        "contract": "contracts/Staking/StakingRewardsDistribution.sol:StakingRewardsDistribution",
        "label": "BDX_MINTING_SCHEDULE_YEAR_4",
        "offset": 0,
        "slot": "105",
        "type": "t_uint256"
      },
      {
        "astId": 12135,
        "contract": "contracts/Staking/StakingRewardsDistribution.sol:StakingRewardsDistribution",
        "label": "BDX_MINTING_SCHEDULE_YEAR_5",
        "offset": 0,
        "slot": "106",
        "type": "t_uint256"
      },
      {
        "astId": 12137,
        "contract": "contracts/Staking/StakingRewardsDistribution.sol:StakingRewardsDistribution",
        "label": "EndOfYear_1",
        "offset": 0,
        "slot": "107",
        "type": "t_uint256"
      },
      {
        "astId": 12139,
        "contract": "contracts/Staking/StakingRewardsDistribution.sol:StakingRewardsDistribution",
        "label": "EndOfYear_2",
        "offset": 0,
        "slot": "108",
        "type": "t_uint256"
      },
      {
        "astId": 12141,
        "contract": "contracts/Staking/StakingRewardsDistribution.sol:StakingRewardsDistribution",
        "label": "EndOfYear_3",
        "offset": 0,
        "slot": "109",
        "type": "t_uint256"
      },
      {
        "astId": 12143,
        "contract": "contracts/Staking/StakingRewardsDistribution.sol:StakingRewardsDistribution",
        "label": "EndOfYear_4",
        "offset": 0,
        "slot": "110",
        "type": "t_uint256"
      },
      {
        "astId": 12145,
        "contract": "contracts/Staking/StakingRewardsDistribution.sol:StakingRewardsDistribution",
        "label": "EndOfYear_5",
        "offset": 0,
        "slot": "111",
        "type": "t_uint256"
      },
      {
        "astId": 12147,
        "contract": "contracts/Staking/StakingRewardsDistribution.sol:StakingRewardsDistribution",
        "label": "vestingRewardRatio_percent",
        "offset": 0,
        "slot": "112",
        "type": "t_uint256"
      },
      {
        "astId": 12149,
        "contract": "contracts/Staking/StakingRewardsDistribution.sol:StakingRewardsDistribution",
        "label": "rewardFee_d12",
        "offset": 0,
        "slot": "113",
        "type": "t_uint256"
      },
      {
        "astId": 12151,
        "contract": "contracts/Staking/StakingRewardsDistribution.sol:StakingRewardsDistribution",
        "label": "rewardsToken",
        "offset": 0,
        "slot": "114",
        "type": "t_contract(BDXShares)8432"
      },
      {
        "astId": 12153,
        "contract": "contracts/Staking/StakingRewardsDistribution.sol:StakingRewardsDistribution",
        "label": "vesting",
        "offset": 0,
        "slot": "115",
        "type": "t_contract(Vesting)13346"
      },
      {
        "astId": 12155,
        "contract": "contracts/Staking/StakingRewardsDistribution.sol:StakingRewardsDistribution",
        "label": "treasury",
        "offset": 0,
        "slot": "116",
        "type": "t_address"
      },
      {
        "astId": 12159,
        "contract": "contracts/Staking/StakingRewardsDistribution.sol:StakingRewardsDistribution",
        "label": "stakingRewardsWeights",
        "offset": 0,
        "slot": "117",
        "type": "t_mapping(t_address,t_uint256)"
      },
      {
        "astId": 12162,
        "contract": "contracts/Staking/StakingRewardsDistribution.sol:StakingRewardsDistribution",
        "label": "stakingRewardsAddresses",
        "offset": 0,
        "slot": "118",
        "type": "t_array(t_address)dyn_storage"
      },
      {
        "astId": 12164,
        "contract": "contracts/Staking/StakingRewardsDistribution.sol:StakingRewardsDistribution",
        "label": "stakingRewardsWeightsTotal",
        "offset": 0,
        "slot": "119",
        "type": "t_uint256"
      }
    ],
    "types": {
      "t_address": {
        "encoding": "inplace",
        "label": "address",
        "numberOfBytes": "20"
      },
      "t_array(t_address)dyn_storage": {
        "base": "t_address",
        "encoding": "dynamic_array",
        "label": "address[]",
        "numberOfBytes": "32"
      },
      "t_array(t_uint256)49_storage": {
        "base": "t_uint256",
        "encoding": "inplace",
        "label": "uint256[49]",
        "numberOfBytes": "1568"
      },
      "t_array(t_uint256)50_storage": {
        "base": "t_uint256",
        "encoding": "inplace",
        "label": "uint256[50]",
        "numberOfBytes": "1600"
      },
      "t_bool": {
        "encoding": "inplace",
        "label": "bool",
        "numberOfBytes": "1"
      },
      "t_contract(BDXShares)8432": {
        "encoding": "inplace",
        "label": "contract BDXShares",
        "numberOfBytes": "20"
      },
      "t_contract(Vesting)13346": {
        "encoding": "inplace",
        "label": "contract Vesting",
        "numberOfBytes": "20"
      },
      "t_mapping(t_address,t_uint256)": {
        "encoding": "mapping",
        "key": "t_address",
        "label": "mapping(address => uint256)",
        "numberOfBytes": "32",
        "value": "t_uint256"
      },
      "t_uint256": {
        "encoding": "inplace",
        "label": "uint256",
        "numberOfBytes": "32"
      }
    }
  }
}