{
  "address": "0x8cd716CCd4d857F7441b3a1A06468bA9B6b9ACD0",
  "abi": [
    {
      "anonymous": false,
      "inputs": [
        {
          "indexed": true,
          "internalType": "address",
          "name": "previousOwner",
          "type": "address"
        },
        {
          "indexed": true,
          "internalType": "address",
          "name": "newOwner",
          "type": "address"
        }
      ],
      "name": "OwnershipTransferred",
      "type": "event"
    },
    {
      "anonymous": false,
      "inputs": [
        {
          "indexed": false,
          "internalType": "address",
          "name": "account",
          "type": "address"
        }
      ],
      "name": "Paused",
      "type": "event"
    },
    {
      "anonymous": false,
      "inputs": [
        {
          "indexed": false,
          "internalType": "address",
          "name": "token",
          "type": "address"
        },
        {
          "indexed": false,
          "internalType": "uint256",
          "name": "amount",
          "type": "uint256"
        }
      ],
      "name": "Recovered",
      "type": "event"
    },
    {
      "anonymous": false,
      "inputs": [
        {
          "indexed": true,
          "internalType": "address",
          "name": "user",
          "type": "address"
        },
        {
          "indexed": false,
          "internalType": "uint256",
          "name": "reward",
          "type": "uint256"
        }
      ],
      "name": "RewardPaid",
      "type": "event"
    },
    {
      "anonymous": false,
      "inputs": [
        {
          "indexed": false,
          "internalType": "address",
          "name": "user",
          "type": "address"
        },
        {
          "indexed": false,
          "internalType": "uint256",
          "name": "amount",
          "type": "uint256"
        }
      ],
      "name": "RewardVested",
      "type": "event"
    },
    {
      "anonymous": false,
      "inputs": [
        {
          "indexed": false,
          "internalType": "uint256",
          "name": "newDuration",
          "type": "uint256"
        }
      ],
      "name": "RewardsDurationUpdated",
      "type": "event"
    },
    {
      "anonymous": false,
      "inputs": [
        {
          "indexed": false,
          "internalType": "address",
          "name": "token",
          "type": "address"
        }
      ],
      "name": "RewardsPeriodRenewed",
      "type": "event"
    },
    {
      "anonymous": false,
      "inputs": [
        {
          "indexed": true,
          "internalType": "address",
          "name": "user",
          "type": "address"
        },
        {
          "indexed": false,
          "internalType": "uint256",
          "name": "amount",
          "type": "uint256"
        },
        {
          "indexed": false,
          "internalType": "uint256",
          "name": "secs",
          "type": "uint256"
        }
      ],
      "name": "StakeLocked",
      "type": "event"
    },
    {
      "anonymous": false,
      "inputs": [
        {
          "indexed": true,
          "internalType": "address",
          "name": "user",
          "type": "address"
        },
        {
          "indexed": false,
          "internalType": "uint256",
          "name": "amount",
          "type": "uint256"
        }
      ],
      "name": "Staked",
      "type": "event"
    },
    {
      "anonymous": false,
      "inputs": [
        {
          "indexed": false,
          "internalType": "address",
          "name": "account",
          "type": "address"
        }
      ],
      "name": "Unpaused",
      "type": "event"
    },
    {
      "anonymous": false,
      "inputs": [
        {
          "indexed": true,
          "internalType": "address",
          "name": "user",
          "type": "address"
        },
        {
          "indexed": false,
          "internalType": "uint256",
          "name": "amount",
          "type": "uint256"
        }
      ],
      "name": "Withdrawn",
      "type": "event"
    },
    {
      "anonymous": false,
      "inputs": [
        {
          "indexed": true,
          "internalType": "address",
          "name": "user",
          "type": "address"
        },
        {
          "indexed": false,
          "internalType": "uint256",
          "name": "amount",
          "type": "uint256"
        },
        {
          "indexed": false,
          "internalType": "bytes32",
          "name": "kek_id",
          "type": "bytes32"
        }
      ],
      "name": "WithdrawnLocked",
      "type": "event"
    },
    {
      "inputs": [],
      "name": "LOCK_MULTIPLIER_PRECISION",
      "outputs": [
        {
          "internalType": "uint256",
          "name": "",
          "type": "uint256"
        }
      ],
      "stateMutability": "view",
      "type": "function"
    },
    {
      "inputs": [],
      "name": "REWARD_PRECISION",
      "outputs": [
        {
          "internalType": "uint256",
          "name": "",
          "type": "uint256"
        }
      ],
      "stateMutability": "view",
      "type": "function"
    },
    {
      "inputs": [
        {
          "internalType": "address",
          "name": "account",
          "type": "address"
        }
      ],
      "name": "balanceOf",
      "outputs": [
        {
          "internalType": "uint256",
          "name": "",
          "type": "uint256"
        }
      ],
      "stateMutability": "view",
      "type": "function"
    },
    {
      "inputs": [
        {
          "internalType": "address",
          "name": "account",
          "type": "address"
        }
      ],
      "name": "boostedBalanceOf",
      "outputs": [
        {
          "internalType": "uint256",
          "name": "",
          "type": "uint256"
        }
      ],
      "stateMutability": "view",
      "type": "function"
    },
    {
      "inputs": [
        {
          "internalType": "address",
          "name": "account",
          "type": "address"
        }
      ],
      "name": "earned",
      "outputs": [
        {
          "internalType": "uint256",
          "name": "",
          "type": "uint256"
        }
      ],
      "stateMutability": "view",
      "type": "function"
    },
    {
      "inputs": [],
      "name": "getReward",
      "outputs": [],
      "stateMutability": "nonpayable",
      "type": "function"
    },
    {
      "inputs": [],
      "name": "getRewardForDuration",
      "outputs": [
        {
          "internalType": "uint256",
          "name": "",
          "type": "uint256"
        }
      ],
      "stateMutability": "view",
      "type": "function"
    },
    {
      "inputs": [
        {
          "internalType": "address",
          "name": "",
          "type": "address"
        }
      ],
      "name": "greylist",
      "outputs": [
        {
          "internalType": "bool",
          "name": "",
          "type": "bool"
        }
      ],
      "stateMutability": "view",
      "type": "function"
    },
    {
      "inputs": [
        {
          "internalType": "address",
          "name": "_stakingToken",
          "type": "address"
        },
        {
          "internalType": "address",
          "name": "_stakingRewardsDistribution",
          "type": "address"
        },
        {
          "internalType": "bool",
          "name": "_isTrueBdPool",
          "type": "bool"
        }
      ],
      "name": "initialize",
      "outputs": [],
      "stateMutability": "nonpayable",
      "type": "function"
    },
    {
      "inputs": [],
      "name": "isTrueBdPool",
      "outputs": [
        {
          "internalType": "bool",
          "name": "",
          "type": "bool"
        }
      ],
      "stateMutability": "view",
      "type": "function"
    },
    {
      "inputs": [],
      "name": "lastTimeRewardApplicable",
      "outputs": [
        {
          "internalType": "uint256",
          "name": "",
          "type": "uint256"
        }
      ],
      "stateMutability": "view",
      "type": "function"
    },
    {
      "inputs": [],
      "name": "lastUpdateTime",
      "outputs": [
        {
          "internalType": "uint256",
          "name": "",
          "type": "uint256"
        }
      ],
      "stateMutability": "view",
      "type": "function"
    },
    {
      "inputs": [
        {
          "internalType": "address",
          "name": "account",
          "type": "address"
        }
      ],
      "name": "lockedBalanceOf",
      "outputs": [
        {
          "internalType": "uint256",
          "name": "",
          "type": "uint256"
        }
      ],
      "stateMutability": "view",
      "type": "function"
    },
    {
      "inputs": [
        {
          "internalType": "address",
          "name": "account",
          "type": "address"
        }
      ],
      "name": "lockedStakesOf",
      "outputs": [
        {
          "components": [
            {
              "internalType": "bytes32",
              "name": "kek_id",
              "type": "bytes32"
            },
            {
              "internalType": "uint256",
              "name": "start_timestamp",
              "type": "uint256"
            },
            {
              "internalType": "uint256",
              "name": "amount",
              "type": "uint256"
            },
            {
              "internalType": "uint256",
              "name": "ending_timestamp",
              "type": "uint256"
            },
            {
              "internalType": "uint256",
              "name": "multiplier_LOCK_MULTIPLIER_PRECISION",
              "type": "uint256"
            }
          ],
          "internalType": "struct StakingRewards.LockedStake[]",
          "name": "",
          "type": "tuple[]"
        }
      ],
      "stateMutability": "view",
      "type": "function"
    },
    {
      "inputs": [
        {
          "internalType": "uint256",
          "name": "yearsNo",
          "type": "uint256"
        }
      ],
      "name": "lockedStakingMultiplier_LOCK_MULTIPLIER_PRECISION",
      "outputs": [
        {
          "internalType": "uint256",
          "name": "",
          "type": "uint256"
        }
      ],
      "stateMutability": "pure",
      "type": "function"
    },
    {
      "inputs": [],
      "name": "owner",
      "outputs": [
        {
          "internalType": "address",
          "name": "",
          "type": "address"
        }
      ],
      "stateMutability": "view",
      "type": "function"
    },
    {
      "inputs": [],
      "name": "paused",
      "outputs": [
        {
          "internalType": "bool",
          "name": "",
          "type": "bool"
        }
      ],
      "stateMutability": "view",
      "type": "function"
    },
    {
      "inputs": [],
      "name": "periodFinish",
      "outputs": [
        {
          "internalType": "uint256",
          "name": "",
          "type": "uint256"
        }
      ],
      "stateMutability": "view",
      "type": "function"
    },
    {
      "inputs": [
        {
          "internalType": "address",
          "name": "tokenAddress",
          "type": "address"
        },
        {
          "internalType": "uint256",
          "name": "tokenAmount",
          "type": "uint256"
        }
      ],
      "name": "recoverERC20",
      "outputs": [],
      "stateMutability": "nonpayable",
      "type": "function"
    },
    {
      "inputs": [],
      "name": "renewIfApplicable",
      "outputs": [],
      "stateMutability": "nonpayable",
      "type": "function"
    },
    {
      "inputs": [],
      "name": "renounceOwnership",
      "outputs": [],
      "stateMutability": "nonpayable",
      "type": "function"
    },
    {
      "inputs": [],
      "name": "rewardPerToken",
      "outputs": [
        {
          "internalType": "uint256",
          "name": "",
          "type": "uint256"
        }
      ],
      "stateMutability": "view",
      "type": "function"
    },
    {
      "inputs": [],
      "name": "rewardPerTokenStored_REWARD_PRECISION",
      "outputs": [
        {
          "internalType": "uint256",
          "name": "",
          "type": "uint256"
        }
      ],
      "stateMutability": "view",
      "type": "function"
    },
    {
      "inputs": [
        {
          "internalType": "address",
          "name": "",
          "type": "address"
        }
      ],
      "name": "rewards",
      "outputs": [
        {
          "internalType": "uint256",
          "name": "",
          "type": "uint256"
        }
      ],
      "stateMutability": "view",
      "type": "function"
    },
    {
      "inputs": [],
      "name": "rewardsDurationSeconds",
      "outputs": [
        {
          "internalType": "uint256",
          "name": "",
          "type": "uint256"
        }
      ],
      "stateMutability": "view",
      "type": "function"
    },
    {
      "inputs": [
        {
          "internalType": "address",
          "name": "_address",
          "type": "address"
        },
        {
          "internalType": "bool",
          "name": "isGraylisted",
          "type": "bool"
        }
      ],
      "name": "setIsAddressGraylisted",
      "outputs": [],
      "stateMutability": "nonpayable",
      "type": "function"
    },
    {
      "inputs": [
        {
          "internalType": "address",
          "name": "_new_owner",
          "type": "address"
        }
      ],
      "name": "setOwner",
      "outputs": [],
      "stateMutability": "nonpayable",
      "type": "function"
    },
    {
      "inputs": [
        {
          "internalType": "uint256",
          "name": "_rewardsDurationSeconds",
          "type": "uint256"
        }
      ],
      "name": "setRewardsDuration",
      "outputs": [],
      "stateMutability": "nonpayable",
      "type": "function"
    },
    {
      "inputs": [
        {
          "internalType": "uint256",
          "name": "amount",
          "type": "uint256"
        }
      ],
      "name": "stake",
      "outputs": [],
      "stateMutability": "nonpayable",
      "type": "function"
    },
    {
      "inputs": [
        {
          "internalType": "uint256",
          "name": "amount",
          "type": "uint256"
        },
        {
          "internalType": "uint256",
          "name": "yearsNo",
          "type": "uint256"
        }
      ],
      "name": "stakeLocked",
      "outputs": [],
      "stateMutability": "nonpayable",
      "type": "function"
    },
    {
      "inputs": [],
      "name": "stakingDecimals",
      "outputs": [
        {
          "internalType": "uint256",
          "name": "",
          "type": "uint256"
        }
      ],
      "stateMutability": "view",
      "type": "function"
    },
    {
      "inputs": [],
      "name": "stakingToken",
      "outputs": [
        {
          "internalType": "contract ERC20",
          "name": "",
          "type": "address"
        }
      ],
      "stateMutability": "view",
      "type": "function"
    },
    {
      "inputs": [],
      "name": "toggleUnlockStakes",
      "outputs": [],
      "stateMutability": "nonpayable",
      "type": "function"
    },
    {
      "inputs": [],
      "name": "totalBoostedSupply",
      "outputs": [
        {
          "internalType": "uint256",
          "name": "",
          "type": "uint256"
        }
      ],
      "stateMutability": "view",
      "type": "function"
    },
    {
      "inputs": [],
      "name": "totalSupply",
      "outputs": [
        {
          "internalType": "uint256",
          "name": "",
          "type": "uint256"
        }
      ],
      "stateMutability": "view",
      "type": "function"
    },
    {
      "inputs": [
        {
          "internalType": "address",
          "name": "newOwner",
          "type": "address"
        }
      ],
      "name": "transferOwnership",
      "outputs": [],
      "stateMutability": "nonpayable",
      "type": "function"
    },
    {
      "inputs": [
        {
          "internalType": "address",
          "name": "account",
          "type": "address"
        }
      ],
      "name": "unlockedBalanceOf",
      "outputs": [
        {
          "internalType": "uint256",
          "name": "",
          "type": "uint256"
        }
      ],
      "stateMutability": "view",
      "type": "function"
    },
    {
      "inputs": [],
      "name": "unlockedStakes",
      "outputs": [
        {
          "internalType": "bool",
          "name": "",
          "type": "bool"
        }
      ],
      "stateMutability": "view",
      "type": "function"
    },
    {
      "inputs": [
        {
          "internalType": "address",
          "name": "",
          "type": "address"
        }
      ],
      "name": "userRewardPerTokenPaid_REWARD_PRECISION",
      "outputs": [
        {
          "internalType": "uint256",
          "name": "",
          "type": "uint256"
        }
      ],
      "stateMutability": "view",
      "type": "function"
    },
    {
      "inputs": [
        {
          "internalType": "uint256",
          "name": "amount",
          "type": "uint256"
        }
      ],
      "name": "withdraw",
      "outputs": [],
      "stateMutability": "nonpayable",
      "type": "function"
    },
    {
      "inputs": [
        {
          "internalType": "bytes32",
          "name": "kek_id",
          "type": "bytes32"
        }
      ],
      "name": "withdrawLocked",
      "outputs": [],
      "stateMutability": "nonpayable",
      "type": "function"
    }
  ],
  "transactionHash": "0x512633193bcf6a001fae06e0d4c05e51c63c1abdf31ef28b5a546d45ab7a4cd6",
  "args": [],
  "solcInputHash": "964b643a9886544e5729090027eb9ffb",
  "bytecode": "0x608060405234801561001057600080fd5b50612bc8806100206000396000f3fe608060405234801561001057600080fd5b50600436106102525760003560e01c806370a0823111610146578063a694fc3a116100c3578063cd3daf9d11610087578063cd3daf9d14610474578063d96eb3f41461047c578063e4bbb5a814610484578063ebe2b12b14610497578063f2fde38b1461049f578063fee2eae6146104b257610252565b8063a694fc3a14610436578063bf1b71a514610449578063c11f534414610451578063c8f33c9114610459578063cc1a378f1461046157610252565b806384955c881161010a57806384955c88146103ed57806387bf5b66146104005780638980f11f146104135780638da5cb5b1461042657806399a9cfc61461042e57610252565b806370a08231146103a2578063715018a6146103b557806372f702f3146103bd57806380060d49146103d257806380faa57d146103e557610252565b80632e1a7d4d116101d45780633d6aa5e1116101985780633d6aa5e11461035957806351e3fc171461036157806359355736146103745780635bb2a8f6146103875780635c975abb1461039a57610252565b80632e1a7d4d1461030e57806331ca208c14610321578063399f5467146103415780633a88e1d0146103495780633d18b9121461035157610252565b806318160ddd1161021b57806318160ddd146102c35780631beabcd2146102cb5780631c1f78eb146102de5780631e090f01146102e6578063262696d41461030657610252565b80628cc262146102575780630700037d146102805780630dda72991461029357806313af40351461029b57806317b18c89146102b0575b600080fd5b61026a6102653660046122b0565b6104ba565b6040516102779190612b2c565b60405180910390f35b61026a61028e3660046122b0565b610552565b61026a610564565b6102ae6102a93660046122b0565b61056b565b005b6102ae6102be3660046123c2565b6105b8565b61026a61091f565b61026a6102d93660046122b0565b610925565b61026a610940565b6102f96102f43660046122b0565b6109dd565b604051610277919061249b565b61026a610a84565b6102ae61031c366004612392565b610a8a565b61033461032f3660046122b0565b610c35565b6040516102779190612509565b610334610c4a565b61026a610c53565b6102ae610c5a565b61026a610e2b565b6102ae61036f366004612392565b610e37565b61026a6103823660046122b0565b611162565b6102ae610395366004612315565b61117d565b6103346111e0565b61026a6103b03660046122b0565b6111e9565b6102ae61121c565b6103c56112a5565b604051610277919061244a565b61026a6103e0366004612392565b6112b4565b61026a61132e565b61026a6103fb3660046122b0565b61133c565b61026a61040e3660046122b0565b611357565b6102ae61042136600461234c565b611369565b6103c5611481565b61026a611490565b6102ae610444366004612392565b611496565b610334611684565b61026a61168d565b61026a611712565b6102ae61046f366004612392565b611718565b61026a6117bc565b6102ae611893565b6102ae6104923660046122cb565b6118df565b61026a6119ec565b6102ae6104ad3660046122b0565b6119f2565b6102ae611ab3565b6001600160a01b038116600090815260a1602090815260408083205460a090925282205461054a919061053e90670de0b6b3a7640000906105329061050d906105016117bc565b9063ffffffff611ac716565b6001600160a01b038816600090815260a660205260409020549063ffffffff611af416565b9063ffffffff611b3516565b9063ffffffff611b6716565b90505b919050565b60a16020526000908152604090205481565b60a3545b90565b610573611481565b6001600160a01b0316336001600160a01b0316146105ac5760405162461bcd60e51b81526004016105a3906127f2565b60405180910390fd5b6105b5816119f2565b50565b600260985414156105db5760405162461bcd60e51b81526004016105a390612af5565b60026098556105e86111e0565b156106055760405162461bcd60e51b81526004016105a3906128fb565b33609b5442111561061d57610618611b8c565b610634565b6106256117bc565b609f5561063061132e565b609e555b6001600160a01b038116156106785761064c816104ba565b6001600160a01b038216600090815260a16020908152604080832093909355609f5460a0909152919020555b600083116106985760405162461bcd60e51b81526004016105a3906126d4565b81600a14156106c857609c5460ff166106c35760405162461bcd60e51b81526004016105a39061289e565b610714565b81600114806106d75750816002145b806106e25750816003145b806106ed5750816005145b806106f8575081600a145b6107145760405162461bcd60e51b81526004016105a390612601565b33600090815260a8602052604090205460ff16156107445760405162461bcd60e51b81526004016105a390612547565b6301e1338082026000610756846112b4565b90506000610771620f4240610532888563ffffffff611af416565b33600081815260a7602052604090819020815160a081019092529293509081906107a090428b60c08501612404565b6040516020818303038152906040528051906020012081526020014281526020018881526020016107da8642611b6790919063ffffffff16565b815260209081018590528254600181810185556000948552938290208351600590920201908155908201519281019290925560408101516002830155606081015160038301556080015160049091015560a25461083d908763ffffffff611b6716565b60a25560a354610853908263ffffffff611b6716565b60a35533600090815260a56020526040902054610876908763ffffffff611b6716565b33600090815260a5602090815260408083209390935560a6905220546108a2908263ffffffff611b6716565b33600081815260a660205260409020919091556099546108cf916001600160a01b03909116903089611c53565b336001600160a01b03167fa5ae833d0bb1dcd632d98a8b70973e8516812898e19bf27b70071ebc8dc52c01878560405161090a929190612b35565b60405180910390a25050600160985550505050565b60a25490565b6001600160a01b0316600090815260a6602052604090205490565b609d54609a5460405163964efe8160e01b81526000926109d89290916001600160a01b039091169063964efe819061097c90309060040161244a565b60206040518083038186803b15801561099457600080fd5b505afa1580156109a8573d6000803e3d6000fd5b505050506040513d601f19601f820116820180604052508101906109cc91906123aa565b9063ffffffff611af416565b905090565b6001600160a01b038116600090815260a760209081526040808320805482518185028101850190935280835260609492939192909184015b82821015610a7957838290600052602060002090600502016040518060a00160405290816000820154815260200160018201548152602001600282015481526020016003820154815260200160048201548152505081526020019060010190610a15565b505050509050919050565b609f5481565b60026098541415610aad5760405162461bcd60e51b81526004016105a390612af5565b6002609855609b543390421115610acb57610ac6611b8c565b610ae2565b610ad36117bc565b609f55610ade61132e565b609e555b6001600160a01b03811615610b2657610afa816104ba565b6001600160a01b038216600090815260a16020908152604080832093909355609f5460a0909152919020555b60008211610b465760405162461bcd60e51b81526004016105a390612973565b33600090815260a46020526040902054610b66908363ffffffff611ac716565b33600090815260a4602090815260408083209390935560a690522054610b92908363ffffffff611ac716565b33600090815260a6602052604090205560a254610bb5908363ffffffff611ac716565b60a25560a354610bcb908363ffffffff611ac716565b60a355609954610beb906001600160a01b0316338463ffffffff611d4416565b336001600160a01b03167f7084f5476618d8e60b11ef0d7d3f06914655adb8793e28ff7f018d4c76d505d583604051610c249190612b2c565b60405180910390a250506001609855565b60a86020526000908152604090205460ff1681565b60a95460ff1681565b620f424081565b60026098541415610c7d5760405162461bcd60e51b81526004016105a390612af5565b6002609855609b543390421115610c9b57610c96611b8c565b610cb2565b610ca36117bc565b609f55610cae61132e565b609e555b6001600160a01b03811615610cf657610cca816104ba565b6001600160a01b038216600090815260a16020908152604080832093909355609f5460a0909152919020555b33600090815260a160205260409020548015610e225733600081815260a16020526040808220829055609a549051637aa0e40960e11b815291926001600160a01b039091169163f541c81291610d5091869060040161245e565b602060405180830381600087803b158015610d6a57600080fd5b505af1158015610d7e573d6000803e3d6000fd5b505050506040513d601f19601f82011682018060405250810190610da291906123aa565b9050336001600160a01b03167fe2403640ba68fed3a2f88b7557551d1993f84b99bb10ff833f0cf8db0c5e048682604051610ddd9190612b2c565b60405180910390a27f9fbc695eed6a70ae78a7532506abdb142ee788cd93f76ef3b7122561422f636733828403604051610e1892919061245e565b60405180910390a1505b50506001609855565b670de0b6b3a764000081565b60026098541415610e5a5760405162461bcd60e51b81526004016105a390612af5565b6002609855609b543390421115610e7857610e73611b8c565b610e8f565b610e806117bc565b609f55610e8b61132e565b609e555b6001600160a01b03811615610ed357610ea7816104ba565b6001600160a01b038216600090815260a16020908152604080832093909355609f5460a0909152919020555b610edb612267565b600060408201819052805b33600090815260a76020526040902054811015610fa95733600090815260a760205260409020805482908110610f1857fe5b906000526020600020906005020160000154851415610fa15733600090815260a760205260409020805482908110610f4c57fe5b90600052602060002090600502016040518060a0016040529081600082015481526020016001820154815260200160028201548152602001600382015481526020016004820154815250509250809150610fa9565b600101610ee6565b5081518414610fca5760405162461bcd60e51b81526004016105a390612a4b565b816060015142101580610fe4575060a95460ff1615156001145b6110005760405162461bcd60e51b81526004016105a39061265e565b6040820151608083015160009061102790620f42409061053290859063ffffffff611af416565b905081156111555733600090815260a5602052604090205461104f908363ffffffff611ac716565b33600090815260a5602090815260408083209390935560a69052205461107b908263ffffffff611ac716565b33600090815260a6602052604090205560a25461109e908363ffffffff611ac716565b60a25560a3546110b4908263ffffffff611ac716565b60a35533600090815260a7602052604090208054849081106110d257fe5b6000918252602082206005909102018181556001810182905560028101829055600381018290556004015560995461111a906001600160a01b0316338463ffffffff611d4416565b336001600160a01b03167f1f70bda8ea2447de035db87c33fe8f03f7514d49c394293e5cffdb4c34352cf6838860405161090a929190612b35565b5050600160985550505050565b6001600160a01b0316600090815260a5602052604090205490565b611185611481565b6001600160a01b0316336001600160a01b0316146111b55760405162461bcd60e51b81526004016105a3906127f2565b6001600160a01b0391909116600090815260a860205260409020805460ff1916911515919091179055565b60335460ff1690565b6001600160a01b038116600090815260a5602090815260408083205460a490925282205461054a9163ffffffff611b6716565b611224611d9f565b6001600160a01b0316611235611481565b6001600160a01b03161461125b5760405162461bcd60e51b81526004016105a3906129df565b6065546040516000916001600160a01b0316907f8be0079c531659141344cd1fd0a4f28419497f9722a3daafe3b4186f6b6457e0908390a3606580546001600160a01b0319169055565b6099546001600160a01b031681565b600081600a14156112ca57506302faf08061054d565b81600514156112dd57506298968061054d565b81600314156112f05750622dc6c061054d565b816002141561130357506223994861054d565b8160011415611316575062196fb861054d565b60405162461bcd60e51b81526004016105a390612a14565b60006109d842609b54611da3565b6001600160a01b0316600090815260a4602052604090205490565b60a06020526000908152604090205481565b611371611481565b6001600160a01b0316336001600160a01b0316146113a15760405162461bcd60e51b81526004016105a3906127f2565b6099546001600160a01b03838116911614156113bc57600080fd5b816001600160a01b031663a9059cbb6113d3611481565b836040518363ffffffff1660e01b81526004016113f192919061245e565b602060405180830381600087803b15801561140b57600080fd5b505af115801561141f573d6000803e3d6000fd5b505050506040513d601f19601f820116820180604052508101906114439190612376565b507f8c1256b8896378cd5044f80c202f9772b9d77dc85c8a6eb51967210b09bfaa28828260405161147592919061245e565b60405180910390a15050565b6065546001600160a01b031690565b609d5481565b600260985414156114b95760405162461bcd60e51b81526004016105a390612af5565b60026098556114c66111e0565b156114e35760405162461bcd60e51b81526004016105a3906128fb565b33609b544211156114fb576114f6611b8c565b611512565b6115036117bc565b609f5561150e61132e565b609e555b6001600160a01b038116156115565761152a816104ba565b6001600160a01b038216600090815260a16020908152604080832093909355609f5460a0909152919020555b600082116115765760405162461bcd60e51b81526004016105a3906126d4565b33600090815260a8602052604090205460ff16156115a65760405162461bcd60e51b81526004016105a390612547565b60a2546115b9908363ffffffff611b6716565b60a25560a3546115cf908363ffffffff611b6716565b60a35533600090815260a460205260409020546115f2908363ffffffff611b6716565b33600090815260a4602090815260408083209390935560a69052205461161e908363ffffffff611b6716565b33600081815260a6602052604090209190915560995461164b916001600160a01b03909116903085611c53565b336001600160a01b03167f9e71bc8eea02a63969f509818f2dafb9254532904319f9dbda79b67bd34a5f3d83604051610c249190612b2c565b609c5460ff1681565b6099546040805163313ce56760e01b815290516000926001600160a01b03169163313ce567916004808301926020929190829003018186803b1580156116d257600080fd5b505afa1580156116e6573d6000803e3d6000fd5b505050506040513d601f19601f8201168201806040525081019061170a91906123e3565b60ff16905090565b609e5481565b611720611481565b6001600160a01b0316336001600160a01b0316146117505760405162461bcd60e51b81526004016105a3906127f2565b609b5415806117605750609b5442115b61177c5760405162461bcd60e51b81526004016105a39061257e565b609d8190556040517ffb46ca5a5e06d4540d6387b930a7c978bce0db5f449ec6b3f5d07c6e1d44f2d3906117b1908390612b2c565b60405180910390a150565b600060a254600014156117d25750609f54610568565b60a354609a5460405163964efe8160e01b815261188c9261187d92909161053291670de0b6b3a7640000916109cc916001600160a01b03169063964efe819061181f90309060040161244a565b60206040518083038186803b15801561183757600080fd5b505afa15801561184b573d6000803e3d6000fd5b505050506040513d601f19601f8201168201806040525081019061186f91906123aa565b6109cc609e5461050161132e565b609f549063ffffffff611b6716565b9050610568565b61189b611481565b6001600160a01b0316336001600160a01b0316146118cb5760405162461bcd60e51b81526004016105a3906127f2565b60a9805460ff19811660ff90911615179055565b600054610100900460ff16806118f857506118f8611db9565b80611906575060005460ff16155b6119225760405162461bcd60e51b81526004016105a390612925565b600054610100900460ff1615801561194d576000805460ff1961ff0019909116610100171660011790555b611955611dca565b61195d611e5c565b609980546001600160a01b038087166001600160a01b031992831617909255609a805492861692909116919091179055426097819055609c805484151560ff199182161790915562093a80609d81905560a98054909216909155609e8290556119cc919063ffffffff611b6716565b609b55600160985580156119e6576000805461ff00191690555b50505050565b609b5481565b6119fa611d9f565b6001600160a01b0316611a0b611481565b6001600160a01b031614611a315760405162461bcd60e51b81526004016105a3906129df565b6001600160a01b038116611a575760405162461bcd60e51b81526004016105a39061268e565b6065546040516001600160a01b038084169216907f8be0079c531659141344cd1fd0a4f28419497f9722a3daafe3b4186f6b6457e090600090a3606580546001600160a01b0319166001600160a01b0392909216919091179055565b609b54421115611ac557611ac5611b8c565b565b600082821115611ae95760405162461bcd60e51b81526004016105a3906127bb565b508082035b92915050565b600082611b0357506000611aee565b82820282848281611b1057fe5b0414611b2e5760405162461bcd60e51b81526004016105a39061299e565b9392505050565b6000808211611b565760405162461bcd60e51b81526004016105a390612867565b818381611b5f57fe5b049392505050565b600082820183811015611b2e5760405162461bcd60e51b81526004016105a3906126fc565b609b544211611bad5760405162461bcd60e51b81526004016105a390612784565b6000609d54611bc7609b5442611ac790919063ffffffff16565b81611bce57fe5b049050611bfd611bee609d546109cc600185611b6790919063ffffffff16565b609b549063ffffffff611b6716565b609b55611c086117bc565b609f55611c1361132e565b609e556099546040517f6f2b3b3aaf1881d69a5d40565500f93ea73df36e7b6a29bf48b21479a9237fe9916117b1916001600160a01b039091169061244a565b60006060856001600160a01b03166323b872dd868686604051602401611c7b93929190612477565b6040516020818303038152906040529060e01b6020820180516001600160e01b038381831617835250505050604051611cb4919061242e565b6000604051808303816000865af19150503d8060008114611cf1576040519150601f19603f3d011682016040523d82523d6000602084013e611cf6565b606091505b5091509150818015611d20575080511580611d20575080806020019051810190611d209190612376565b611d3c5760405162461bcd60e51b81526004016105a390612733565b505050505050565b611d9a8363a9059cbb60e01b8484604051602401611d6392919061245e565b60408051601f198184030181529190526020810180516001600160e01b03166001600160e01b031990931692909217909152611eda565b505050565b3390565b6000818310611db25781611b2e565b5090919050565b6000611dc430611f69565b15905090565b600054610100900460ff1680611de35750611de3611db9565b80611df1575060005460ff16155b611e0d5760405162461bcd60e51b81526004016105a390612925565b600054610100900460ff16158015611e38576000805460ff1961ff0019909116610100171660011790555b611e40611f6f565b611e48611ff0565b80156105b5576000805461ff001916905550565b600054610100900460ff1680611e755750611e75611db9565b80611e83575060005460ff16155b611e9f5760405162461bcd60e51b81526004016105a390612925565b600054610100900460ff16158015611eca576000805460ff1961ff0019909116610100171660011790555b611ed2611f6f565b611e486120ca565b6060611f2f826040518060400160405280602081526020017f5361666545524332303a206c6f772d6c6576656c2063616c6c206661696c6564815250856001600160a01b03166121569092919063ffffffff16565b805190915015611d9a5780806020019051810190611f4d9190612376565b611d9a5760405162461bcd60e51b81526004016105a390612aab565b3b151590565b600054610100900460ff1680611f885750611f88611db9565b80611f96575060005460ff16155b611fb25760405162461bcd60e51b81526004016105a390612925565b600054610100900460ff16158015611e48576000805460ff1961ff00199091166101001716600117905580156105b5576000805461ff001916905550565b600054610100900460ff16806120095750612009611db9565b80612017575060005460ff16155b6120335760405162461bcd60e51b81526004016105a390612925565b600054610100900460ff1615801561205e576000805460ff1961ff0019909116610100171660011790555b6000612068611d9f565b606580546001600160a01b0319166001600160a01b038316908117909155604051919250906000907f8be0079c531659141344cd1fd0a4f28419497f9722a3daafe3b4186f6b6457e0908290a35080156105b5576000805461ff001916905550565b600054610100900460ff16806120e357506120e3611db9565b806120f1575060005460ff16155b61210d5760405162461bcd60e51b81526004016105a390612925565b600054610100900460ff16158015612138576000805460ff1961ff0019909116610100171660011790555b6033805460ff1916905580156105b5576000805461ff001916905550565b6060612165848460008561216d565b949350505050565b60608247101561218f5760405162461bcd60e51b81526004016105a390612821565b61219885611f69565b6121b45760405162461bcd60e51b81526004016105a390612a74565b60006060866001600160a01b031685876040516121d1919061242e565b60006040518083038185875af1925050503d806000811461220e576040519150601f19603f3d011682016040523d82523d6000602084013e612213565b606091505b509150915061222382828661222e565b979650505050505050565b6060831561223d575081611b2e565b82511561224d5782518084602001fd5b8160405162461bcd60e51b81526004016105a39190612514565b6040518060a0016040528060008019168152602001600081526020016000815260200160008152602001600081525090565b80356001600160a01b0381168114611aee57600080fd5b6000602082840312156122c1578081fd5b611b2e8383612299565b6000806000606084860312156122df578182fd5b83356122ea81612b6f565b925060208401356122fa81612b6f565b9150604084013561230a81612b84565b809150509250925092565b60008060408385031215612327578182fd5b6123318484612299565b9150602083013561234181612b84565b809150509250929050565b6000806040838503121561235e578182fd5b6123688484612299565b946020939093013593505050565b600060208284031215612387578081fd5b8151611b2e81612b84565b6000602082840312156123a3578081fd5b5035919050565b6000602082840312156123bb578081fd5b5051919050565b600080604083850312156123d4578182fd5b50508035926020909101359150565b6000602082840312156123f4578081fd5b815160ff81168114611b2e578182fd5b60609390931b6bffffffffffffffffffffffff191683526014830191909152603482015260540190565b60008251612440818460208701612b43565b9190910192915050565b6001600160a01b0391909116815260200190565b6001600160a01b03929092168252602082015260400190565b6001600160a01b039384168152919092166020820152604081019190915260600190565b602080825282518282018190526000919060409081850190868401855b828110156124fc5781518051855286810151878601528581015186860152606080820151908601526080908101519085015260a090930192908501906001016124b8565b5091979650505050505050565b901515815260200190565b6000602082528251806020840152612533816040850160208701612b43565b601f01601f19169190910160400192915050565b6020808252601b908201527f6164647265737320686173206265656e20677265796c69737465640000000000604082015260600190565b60208082526058908201527f50726576696f7573207265776172647320706572696f64206d7573742062652060408201527f636f6d706c657465206265666f7265206368616e67696e67207468652064757260608201527f6174696f6e20666f7220746865206e657720706572696f640000000000000000608082015260a00190565b6020808252603e908201527f596f752063616e206f6e6c79207374616b65206c6f636b6564206c697175696460408201527f69747920666f7220312c20322c20332c2035206f722031302079656172730000606082015260800190565b6020808252601690820152755374616b65206973207374696c6c206c6f636b65642160501b604082015260600190565b60208082526026908201527f4f776e61626c653a206e6577206f776e657220697320746865207a65726f206160408201526564647265737360d01b606082015260800190565b6020808252600e908201526d043616e6e6f74207374616b6520360941b604082015260600190565b6020808252601b908201527f536166654d6174683a206164646974696f6e206f766572666c6f770000000000604082015260600190565b60208082526031908201527f5472616e7366657248656c7065723a3a7472616e7366657246726f6d3a207472604082015270185b9cd9995c919c9bdb4819985a5b1959607a1b606082015260800190565b6020808252601b908201527f506572696f6420686173206e6f74206578706972656420796574210000000000604082015260600190565b6020808252601e908201527f536166654d6174683a207375627472616374696f6e206f766572666c6f770000604082015260600190565b6020808252601590820152742cb7ba9030b932903737ba103a34329037bbb732b960591b604082015260600190565b60208082526026908201527f416464726573733a20696e73756666696369656e742062616c616e636520666f6040820152651c8818d85b1b60d21b606082015260800190565b6020808252601a908201527f536166654d6174683a206469766973696f6e206279207a65726f000000000000604082015260600190565b6020808252603e908201527f596f752063616e206f6e6c79207374616b65206c6f636b6564206c697175696460408201527f69747920313020796561727320666f72207472756520424420706f6f6c730000606082015260800190565b60208082526010908201526f14185d5cd8589b194e881c185d5cd95960821b604082015260600190565b6020808252602e908201527f496e697469616c697a61626c653a20636f6e747261637420697320616c72656160408201526d191e481a5b9a5d1a585b1a5e995960921b606082015260800190565b602080825260119082015270043616e6e6f74207769746864726177203607c1b604082015260600190565b60208082526021908201527f536166654d6174683a206d756c7469706c69636174696f6e206f766572666c6f6040820152607760f81b606082015260800190565b6020808252818101527f4f776e61626c653a2063616c6c6572206973206e6f7420746865206f776e6572604082015260600190565b6020808252601e908201527f4e6f7420737570706f72746564207374616b696e67206475726174696f6e0000604082015260600190565b6020808252600f908201526e14dd185ad9481b9bdd08199bdd5b99608a1b604082015260600190565b6020808252601d908201527f416464726573733a2063616c6c20746f206e6f6e2d636f6e7472616374000000604082015260600190565b6020808252602a908201527f5361666545524332303a204552433230206f7065726174696f6e20646964206e6040820152691bdd081cdd58d8d9595960b21b606082015260800190565b6020808252601f908201527f5265656e7472616e637947756172643a207265656e7472616e742063616c6c00604082015260600190565b90815260200190565b918252602082015260400190565b60005b83811015612b5e578181015183820152602001612b46565b838111156119e65750506000910152565b6001600160a01b03811681146105b557600080fd5b80151581146105b557600080fdfea2646970667358221220ee453720cd5452bce91536b54d32ea9a050df3ca2931105e56579a29fd23c60b64736f6c634300060b0033",
  "devdoc": {
    "kind": "dev",
    "methods": {
      "owner()": {
        "details": "Returns the address of the current owner."
      },
      "paused()": {
        "details": "Returns true if the contract is paused, and false otherwise."
      },
      "renounceOwnership()": {
        "details": "Leaves the contract without owner. It will not be possible to call `onlyOwner` functions anymore. Can only be called by the current owner. NOTE: Renouncing ownership will leave the contract without an owner, thereby removing any functionality that is only available to the owner."
      },
      "transferOwnership(address)": {
        "details": "Transfers ownership of the contract to a new account (`newOwner`). Can only be called by the current owner."
      }
    },
    "version": 1
  },
  "userdoc": {
    "kind": "user",
    "methods": {},
    "version": 1
  },
  "storageLayout": {
    "storage": [
      {
        "astId": 492,
        "contract": "contracts/Staking/StakingRewards.sol:StakingRewards",
        "label": "_initialized",
        "offset": 0,
        "slot": "0",
        "type": "t_bool"
      },
      {
        "astId": 495,
        "contract": "contracts/Staking/StakingRewards.sol:StakingRewards",
        "label": "_initializing",
        "offset": 1,
        "slot": "0",
        "type": "t_bool"
      },
      {
        "astId": 1447,
        "contract": "contracts/Staking/StakingRewards.sol:StakingRewards",
        "label": "__gap",
        "offset": 0,
        "slot": "1",
        "type": "t_array(t_uint256)50_storage"
      },
      {
        "astId": 1469,
        "contract": "contracts/Staking/StakingRewards.sol:StakingRewards",
        "label": "_paused",
        "offset": 0,
        "slot": "51",
        "type": "t_bool"
      },
      {
        "astId": 1560,
        "contract": "contracts/Staking/StakingRewards.sol:StakingRewards",
        "label": "__gap",
        "offset": 0,
        "slot": "52",
        "type": "t_array(t_uint256)49_storage"
      },
      {
        "astId": 10,
        "contract": "contracts/Staking/StakingRewards.sol:StakingRewards",
        "label": "_owner",
        "offset": 0,
        "slot": "101",
        "type": "t_address"
      },
      {
        "astId": 129,
        "contract": "contracts/Staking/StakingRewards.sol:StakingRewards",
        "label": "__gap",
        "offset": 0,
        "slot": "102",
        "type": "t_array(t_uint256)49_storage"
      },
      {
        "astId": 9701,
        "contract": "contracts/Staking/StakingRewards.sol:StakingRewards",
        "label": "DeploymentTimestamp",
        "offset": 0,
        "slot": "151",
        "type": "t_uint256"
      },
      {
        "astId": 9709,
        "contract": "contracts/Staking/StakingRewards.sol:StakingRewards",
        "label": "_reentry_guard_status",
        "offset": 0,
        "slot": "152",
        "type": "t_uint256"
      },
      {
        "astId": 9711,
        "contract": "contracts/Staking/StakingRewards.sol:StakingRewards",
        "label": "stakingToken",
        "offset": 0,
        "slot": "153",
        "type": "t_contract(ERC20)2529"
      },
      {
        "astId": 9713,
        "contract": "contracts/Staking/StakingRewards.sol:StakingRewards",
        "label": "stakingRewardsDistribution",
        "offset": 0,
        "slot": "154",
        "type": "t_contract(StakingRewardsDistribution)11465"
      },
      {
        "astId": 9715,
        "contract": "contracts/Staking/StakingRewards.sol:StakingRewards",
        "label": "periodFinish",
        "offset": 0,
        "slot": "155",
        "type": "t_uint256"
      },
      {
        "astId": 9717,
        "contract": "contracts/Staking/StakingRewards.sol:StakingRewards",
        "label": "isTrueBdPool",
        "offset": 0,
        "slot": "156",
        "type": "t_bool"
      },
      {
        "astId": 9719,
        "contract": "contracts/Staking/StakingRewards.sol:StakingRewards",
        "label": "rewardsDurationSeconds",
        "offset": 0,
        "slot": "157",
        "type": "t_uint256"
      },
      {
        "astId": 9721,
        "contract": "contracts/Staking/StakingRewards.sol:StakingRewards",
        "label": "lastUpdateTime",
        "offset": 0,
        "slot": "158",
        "type": "t_uint256"
      },
      {
        "astId": 9723,
        "contract": "contracts/Staking/StakingRewards.sol:StakingRewards",
        "label": "rewardPerTokenStored_REWARD_PRECISION",
        "offset": 0,
        "slot": "159",
        "type": "t_uint256"
      },
      {
        "astId": 9727,
        "contract": "contracts/Staking/StakingRewards.sol:StakingRewards",
        "label": "userRewardPerTokenPaid_REWARD_PRECISION",
        "offset": 0,
        "slot": "160",
        "type": "t_mapping(t_address,t_uint256)"
      },
      {
        "astId": 9731,
        "contract": "contracts/Staking/StakingRewards.sol:StakingRewards",
        "label": "rewards",
        "offset": 0,
        "slot": "161",
        "type": "t_mapping(t_address,t_uint256)"
      },
      {
        "astId": 9733,
        "contract": "contracts/Staking/StakingRewards.sol:StakingRewards",
        "label": "_staking_token_supply",
        "offset": 0,
        "slot": "162",
        "type": "t_uint256"
      },
      {
        "astId": 9735,
        "contract": "contracts/Staking/StakingRewards.sol:StakingRewards",
        "label": "_staking_token_boosted_supply",
        "offset": 0,
        "slot": "163",
        "type": "t_uint256"
      },
      {
        "astId": 9739,
        "contract": "contracts/Staking/StakingRewards.sol:StakingRewards",
        "label": "_unlocked_balances",
        "offset": 0,
        "slot": "164",
        "type": "t_mapping(t_address,t_uint256)"
      },
      {
        "astId": 9743,
        "contract": "contracts/Staking/StakingRewards.sol:StakingRewards",
        "label": "_locked_balances",
        "offset": 0,
        "slot": "165",
        "type": "t_mapping(t_address,t_uint256)"
      },
      {
        "astId": 9747,
        "contract": "contracts/Staking/StakingRewards.sol:StakingRewards",
        "label": "_boosted_balances",
        "offset": 0,
        "slot": "166",
        "type": "t_mapping(t_address,t_uint256)"
      },
      {
        "astId": 9752,
        "contract": "contracts/Staking/StakingRewards.sol:StakingRewards",
        "label": "lockedStakes",
        "offset": 0,
        "slot": "167",
        "type": "t_mapping(t_address,t_array(t_struct(LockedStake)9769_storage)dyn_storage)"
      },
      {
        "astId": 9756,
        "contract": "contracts/Staking/StakingRewards.sol:StakingRewards",
        "label": "greylist",
        "offset": 0,
        "slot": "168",
        "type": "t_mapping(t_address,t_bool)"
      },
      {
        "astId": 9758,
        "contract": "contracts/Staking/StakingRewards.sol:StakingRewards",
        "label": "unlockedStakes",
        "offset": 0,
        "slot": "169",
        "type": "t_bool"
      }
    ],
    "types": {
      "t_address": {
        "encoding": "inplace",
        "label": "address",
        "numberOfBytes": "20"
      },
      "t_array(t_struct(LockedStake)9769_storage)dyn_storage": {
        "base": "t_struct(LockedStake)9769_storage",
        "encoding": "dynamic_array",
        "label": "struct StakingRewards.LockedStake[]",
        "numberOfBytes": "32"
      },
      "t_array(t_uint256)49_storage": {
        "base": "t_uint256",
        "encoding": "inplace",
        "label": "uint256[49]",
        "numberOfBytes": "1568"
      },
      "t_array(t_uint256)50_storage": {
        "base": "t_uint256",
        "encoding": "inplace",
        "label": "uint256[50]",
        "numberOfBytes": "1600"
      },
      "t_bool": {
        "encoding": "inplace",
        "label": "bool",
        "numberOfBytes": "1"
      },
      "t_bytes32": {
        "encoding": "inplace",
        "label": "bytes32",
        "numberOfBytes": "32"
      },
      "t_contract(ERC20)2529": {
        "encoding": "inplace",
        "label": "contract ERC20",
        "numberOfBytes": "20"
      },
      "t_contract(StakingRewardsDistribution)11465": {
        "encoding": "inplace",
        "label": "contract StakingRewardsDistribution",
        "numberOfBytes": "20"
      },
      "t_mapping(t_address,t_array(t_struct(LockedStake)9769_storage)dyn_storage)": {
        "encoding": "mapping",
        "key": "t_address",
        "label": "mapping(address => struct StakingRewards.LockedStake[])",
        "numberOfBytes": "32",
        "value": "t_array(t_struct(LockedStake)9769_storage)dyn_storage"
      },
      "t_mapping(t_address,t_bool)": {
        "encoding": "mapping",
        "key": "t_address",
        "label": "mapping(address => bool)",
        "numberOfBytes": "32",
        "value": "t_bool"
      },
      "t_mapping(t_address,t_uint256)": {
        "encoding": "mapping",
        "key": "t_address",
        "label": "mapping(address => uint256)",
        "numberOfBytes": "32",
        "value": "t_uint256"
      },
      "t_struct(LockedStake)9769_storage": {
        "encoding": "inplace",
        "label": "struct StakingRewards.LockedStake",
        "members": [
          {
            "astId": 9760,
            "contract": "contracts/Staking/StakingRewards.sol:StakingRewards",
            "label": "kek_id",
            "offset": 0,
            "slot": "0",
            "type": "t_bytes32"
          },
          {
            "astId": 9762,
            "contract": "contracts/Staking/StakingRewards.sol:StakingRewards",
            "label": "start_timestamp",
            "offset": 0,
            "slot": "1",
            "type": "t_uint256"
          },
          {
            "astId": 9764,
            "contract": "contracts/Staking/StakingRewards.sol:StakingRewards",
            "label": "amount",
            "offset": 0,
            "slot": "2",
            "type": "t_uint256"
          },
          {
            "astId": 9766,
            "contract": "contracts/Staking/StakingRewards.sol:StakingRewards",
            "label": "ending_timestamp",
            "offset": 0,
            "slot": "3",
            "type": "t_uint256"
          },
          {
            "astId": 9768,
            "contract": "contracts/Staking/StakingRewards.sol:StakingRewards",
            "label": "multiplier_LOCK_MULTIPLIER_PRECISION",
            "offset": 0,
            "slot": "4",
            "type": "t_uint256"
          }
        ],
        "numberOfBytes": "160"
      },
      "t_uint256": {
        "encoding": "inplace",
        "label": "uint256",
        "numberOfBytes": "32"
      }
    }
  }
}