{
  "address": "0x3170df34d23Bc5e1be4A7b01F9d54DF2065FbB2B",
  "abi": [
    {
      "inputs": [
        {
          "internalType": "address",
          "name": "factoryAddress",
          "type": "address"
        },
        {
          "internalType": "address",
          "name": "tokenA",
          "type": "address"
        },
        {
          "internalType": "address",
          "name": "tokenB",
          "type": "address"
        }
      ],
      "stateMutability": "nonpayable",
      "type": "constructor"
    },
    {
      "anonymous": false,
      "inputs": [
        {
          "indexed": false,
          "internalType": "bool",
          "name": "allow_stale_consults",
          "type": "bool"
        }
      ],
      "name": "AllowStaleConsultsSet",
      "type": "event"
    },
    {
      "anonymous": false,
      "inputs": [
        {
          "indexed": false,
          "internalType": "uint256",
          "name": "consult_latency",
          "type": "uint256"
        }
      ],
      "name": "ConsultLeniencySet",
      "type": "event"
    },
    {
      "anonymous": false,
      "inputs": [
        {
          "indexed": true,
          "internalType": "address",
          "name": "previousOwner",
          "type": "address"
        },
        {
          "indexed": true,
          "internalType": "address",
          "name": "newOwner",
          "type": "address"
        }
      ],
      "name": "OwnershipTransferred",
      "type": "event"
    },
    {
      "anonymous": false,
      "inputs": [
        {
          "indexed": false,
          "internalType": "uint256",
          "name": "period",
          "type": "uint256"
        }
      ],
      "name": "PeriodSet",
      "type": "event"
    },
    {
      "inputs": [],
      "name": "allow_stale_consults",
      "outputs": [
        {
          "internalType": "bool",
          "name": "",
          "type": "bool"
        }
      ],
      "stateMutability": "view",
      "type": "function"
    },
    {
      "inputs": [],
      "name": "blockTimestampLast",
      "outputs": [
        {
          "internalType": "uint32",
          "name": "",
          "type": "uint32"
        }
      ],
      "stateMutability": "view",
      "type": "function"
    },
    {
      "inputs": [
        {
          "internalType": "address",
          "name": "token",
          "type": "address"
        },
        {
          "internalType": "uint256",
          "name": "amountIn",
          "type": "uint256"
        }
      ],
      "name": "consult",
      "outputs": [
        {
          "internalType": "uint256",
          "name": "amountOut",
          "type": "uint256"
        }
      ],
      "stateMutability": "view",
      "type": "function"
    },
    {
      "inputs": [],
      "name": "consult_leniency",
      "outputs": [
        {
          "internalType": "uint256",
          "name": "",
          "type": "uint256"
        }
      ],
      "stateMutability": "view",
      "type": "function"
    },
    {
      "inputs": [],
      "name": "decimals",
      "outputs": [
        {
          "internalType": "uint8",
          "name": "",
          "type": "uint8"
        }
      ],
      "stateMutability": "pure",
      "type": "function"
    },
    {
      "inputs": [],
      "name": "owner",
      "outputs": [
        {
          "internalType": "address",
          "name": "",
          "type": "address"
        }
      ],
      "stateMutability": "view",
      "type": "function"
    },
    {
      "inputs": [],
      "name": "pair",
      "outputs": [
        {
          "internalType": "contract IUniswapV2Pair",
          "name": "",
          "type": "address"
        }
      ],
      "stateMutability": "view",
      "type": "function"
    },
    {
      "inputs": [],
      "name": "period",
      "outputs": [
        {
          "internalType": "uint256",
          "name": "",
          "type": "uint256"
        }
      ],
      "stateMutability": "view",
      "type": "function"
    },
    {
      "inputs": [],
      "name": "price0Average",
      "outputs": [
        {
          "internalType": "uint224",
          "name": "_x",
          "type": "uint224"
        }
      ],
      "stateMutability": "view",
      "type": "function"
    },
    {
      "inputs": [],
      "name": "price0CumulativeLast",
      "outputs": [
        {
          "internalType": "uint256",
          "name": "",
          "type": "uint256"
        }
      ],
      "stateMutability": "view",
      "type": "function"
    },
    {
      "inputs": [],
      "name": "price1Average",
      "outputs": [
        {
          "internalType": "uint224",
          "name": "_x",
          "type": "uint224"
        }
      ],
      "stateMutability": "view",
      "type": "function"
    },
    {
      "inputs": [],
      "name": "price1CumulativeLast",
      "outputs": [
        {
          "internalType": "uint256",
          "name": "",
          "type": "uint256"
        }
      ],
      "stateMutability": "view",
      "type": "function"
    },
    {
      "inputs": [],
      "name": "renounceOwnership",
      "outputs": [],
      "stateMutability": "nonpayable",
      "type": "function"
    },
    {
      "inputs": [],
      "name": "reset",
      "outputs": [],
      "stateMutability": "nonpayable",
      "type": "function"
    },
    {
      "inputs": [
        {
          "internalType": "bool",
          "name": "_allow_stale_consults",
          "type": "bool"
        }
      ],
      "name": "setAllowStaleConsults",
      "outputs": [],
      "stateMutability": "nonpayable",
      "type": "function"
    },
    {
      "inputs": [
        {
          "internalType": "uint256",
          "name": "_consult_leniency",
          "type": "uint256"
        }
      ],
      "name": "setConsultLeniency",
      "outputs": [],
      "stateMutability": "nonpayable",
      "type": "function"
    },
    {
      "inputs": [
        {
          "internalType": "uint256",
          "name": "_period",
          "type": "uint256"
        }
      ],
      "name": "setPeriod",
      "outputs": [],
      "stateMutability": "nonpayable",
      "type": "function"
    },
    {
      "inputs": [],
      "name": "shouldUpdateOracle",
      "outputs": [
        {
          "internalType": "bool",
          "name": "",
          "type": "bool"
        }
      ],
      "stateMutability": "view",
      "type": "function"
    },
    {
      "inputs": [],
      "name": "token0",
      "outputs": [
        {
          "internalType": "address",
          "name": "",
          "type": "address"
        }
      ],
      "stateMutability": "view",
      "type": "function"
    },
    {
      "inputs": [],
      "name": "token1",
      "outputs": [
        {
          "internalType": "address",
          "name": "",
          "type": "address"
        }
      ],
      "stateMutability": "view",
      "type": "function"
    },
    {
      "inputs": [
        {
          "internalType": "address",
          "name": "newOwner",
          "type": "address"
        }
      ],
      "name": "transferOwnership",
      "outputs": [],
      "stateMutability": "nonpayable",
      "type": "function"
    },
    {
      "inputs": [],
      "name": "updateOracle",
      "outputs": [],
      "stateMutability": "nonpayable",
      "type": "function"
    }
  ],
  "transactionHash": "0x1e8753323c89a9163d317b1f8e29d7f688a08385fb272e6606b730bb64e8dbfc",
  "args": [
    "0x5Af7cba7CDfE30664ab6E06D8D2210915Ef73c2E",
    "0x542fDA317318eBF1d3DEAf76E0b632741A7e677d",
    "0xA4A8Fb98A26E5314397170e5D12Da8B73Dc2CEB5"
  ],
  "solcInputHash": "5a0c977d732c918ce49ef0ea74613e22",
  "bytecode": "0x60e0604052610e106001556103846002556003805460ff191690553480156200002757600080fd5b50604051620015b3380380620015b38339810160408190526200004a916200035f565b6200005533620002f2565b6001600160a01b038316620000b15760405162461bcd60e51b815260206004820152601b60248201527f466163746f727920616464726573732063616e6e6f742062652030000000000060448201526064015b60405180910390fd5b6001600160a01b038216620001095760405162461bcd60e51b815260206004820152601a60248201527f546f6b656e4120616464726573732063616e6e6f7420626520300000000000006044820152606401620000a8565b6001600160a01b038116620001615760405162461bcd60e51b815260206004820152601a60248201527f546f6b656e4220616464726573732063616e6e6f7420626520300000000000006044820152606401620000a8565b60405163e6a4390560e01b81526001600160a01b0383811660048301528281166024830152849160009183169063e6a4390590604401602060405180830381865afa158015620001b5573d6000803e3d6000fd5b505050506040513d601f19601f82011682018060405250810190620001db9190620003a9565b9050806001600160a01b03166080816001600160a01b031681525050806001600160a01b0316630dfe16816040518163ffffffff1660e01b8152600401602060405180830381865afa15801562000236573d6000803e3d6000fd5b505050506040513d601f19601f820116820180604052508101906200025c9190620003a9565b6001600160a01b031660a0816001600160a01b031681525050806001600160a01b031663d21220a76040518163ffffffff1660e01b8152600401602060405180830381865afa158015620002b4573d6000803e3d6000fd5b505050506040513d601f19601f82011682018060405250810190620002da9190620003a9565b6001600160a01b031660c05250620003ce9350505050565b600080546001600160a01b038381166001600160a01b0319831681178455604051919092169283917f8be0079c531659141344cd1fd0a4f28419497f9722a3daafe3b4186f6b6457e09190a35050565b80516001600160a01b03811681146200035a57600080fd5b919050565b6000806000606084860312156200037557600080fd5b620003808462000342565b9250620003906020850162000342565b9150620003a06040850162000342565b90509250925092565b600060208284031215620003bc57600080fd5b620003c78262000342565b9392505050565b60805160a05160c05161118b62000428600039600081816102cb015261059c01526000818161016901526105250152600081816102720152818161073d015281816108d60152818161095e01526109e9015261118b6000f3fe608060405234801561001057600080fd5b50600436106101425760003560e01c80638da5cb5b116100b8578063d21220a71161007c578063d21220a7146102c6578063d6f124f0146102ed578063d826f88f146102f5578063ef78d4fd146102fd578063f1551aea14610306578063f2fde38b1461031957600080fd5b80638da5cb5b14610249578063a6bb45391461025a578063a8aa1b311461026d578063aeec23ed14610294578063c5700a02146102a157600080fd5b80633ddac9531161010a5780633ddac953146101de5780635909c0d5146101f15780635a3d5493146101fa5780635cb9a714146102035780635e6aaf2c14610216578063715018a61461024157600080fd5b806309bf39ed146101475780630dfe1681146101645780630f3a9f65146101a35780631feb2193146101b8578063313ce567146101cf575b600080fd5b61014f61032c565b60405190151581526020015b60405180910390f35b61018b7f000000000000000000000000000000000000000000000000000000000000000081565b6040516001600160a01b03909116815260200161015b565b6101b66101b1366004610f6c565b610351565b005b6101c160025481565b60405190815260200161015b565b6040516012815260200161015b565b6101c16101ec366004610fa1565b610485565b6101c160045481565b6101c160055481565b6101b6610211366004610f6c565b610656565b600854610229906001600160e01b031681565b6040516001600160e01b03909116815260200161015b565b6101b66106b5565b6000546001600160a01b031661018b565b600754610229906001600160e01b031681565b61018b7f000000000000000000000000000000000000000000000000000000000000000081565b60035461014f9060ff1681565b6006546102b19063ffffffff1681565b60405163ffffffff909116815260200161015b565b61018b7f000000000000000000000000000000000000000000000000000000000000000081565b6101b66106eb565b6101b66108aa565b6101c160015481565b6101b6610314366004610fcb565b610af8565b6101b6610327366004610ff4565b610b63565b600080610337610bfe565b60065460015463ffffffff91821690920316101592915050565b6000546001600160a01b031633146103845760405162461bcd60e51b815260040161037b9061100f565b60405180910390fd5b6202a3008111156103e75760405162461bcd60e51b815260206004820152602760248201527f506169724f7261636c653a3a736574506572696f643a203e204d4158494d554d60448201526617d411549253d160ca1b606482015260840161037b565b61012c8110156104495760405162461bcd60e51b815260206004820152602760248201527f506169724f7261636c653a3a736574506572696f643a203c204d494e494d554d60448201526617d411549253d160ca1b606482015260840161037b565b60018190556040518181527f6649c90b5089688430ab3e855e2eedb017ca17f6eb1aed93805dcf4996a4da7d906020015b60405180910390a150565b600080610490610bfe565b60065460025460015492935063ffffffff9182168403920190821610806104b9575060035460ff165b6105235760405162461bcd60e51b815260206004820152603560248201527f556e6973776170506169724f7261636c653a2050524943455f49535f5354414c604482015274455f4e4545445f544f5f43414c4c5f55504441544560581b606482015260840161037b565b7f00000000000000000000000000000000000000000000000000000000000000006001600160a01b0316856001600160a01b03160361059a5760408051602081019091526007546001600160e01b0316815261058a906105839086610c14565b5160701c90565b6001600160901b0316925061064e565b7f00000000000000000000000000000000000000000000000000000000000000006001600160a01b0316856001600160a01b03161461061b5760405162461bcd60e51b815260206004820181905260248201527f556e6973776170506169724f7261636c653a20494e56414c49445f544f4b454e604482015260640161037b565b60408051602081019091526008546001600160e01b03168152610642906105839086610c14565b6001600160901b031692505b505092915050565b6000546001600160a01b031633146106805760405162461bcd60e51b815260040161037b9061100f565b60028190556040518181527fc4f07c802c33977425784acbb7fc1f28f19319a7e133b2afda5eaa260377dce19060200161047a565b6000546001600160a01b031633146106df5760405162461bcd60e51b815260040161037b9061100f565b6106e96000610cbe565b565b60065463ffffffff166107335760405162461bcd60e51b815260206004820152601060248201526f4f7261636c65206e6f7420726561647960801b604482015260640161037b565b60008060006107617f0000000000000000000000000000000000000000000000000000000000000000610d0e565b600654600154939650919450925063ffffffff90811683039190821610158061079457506000546001600160a01b031633145b6107ee5760405162461bcd60e51b815260206004820152602560248201527f556e6973776170506169724f7261636c653a20504552494f445f4e4f545f454c604482015264105414d15160da1b606482015260840161037b565b60405180602001604052808263ffffffff1660045487038161081257610812611044565b046001600160e01b039081169091529051600780546001600160e01b031916919092161790556040805160208101909152600554819063ffffffff84169086038161085f5761085f611044565b046001600160e01b039081169091529051600880546001600160e01b03191691909216179055506004929092556005556006805463ffffffff191663ffffffff909216919091179055565b6000546001600160a01b031633146108d45760405162461bcd60e51b815260040161037b9061100f565b7f00000000000000000000000000000000000000000000000000000000000000006001600160a01b0316635909c0d56040518163ffffffff1660e01b8152600401602060405180830381865afa158015610932573d6000803e3d6000fd5b505050506040513d601f19601f82011682018060405250810190610956919061105a565b6004819055507f00000000000000000000000000000000000000000000000000000000000000006001600160a01b0316635a3d54936040518163ffffffff1660e01b8152600401602060405180830381865afa1580156109ba573d6000803e3d6000fd5b505050506040513d601f19601f820116820180604052508101906109de919061105a565b6005819055506000807f00000000000000000000000000000000000000000000000000000000000000006001600160a01b0316630902f1ac6040518163ffffffff1660e01b8152600401606060405180830381865afa158015610a45573d6000803e3d6000fd5b505050506040513d601f19601f82011682018060405250810190610a69919061108a565b6006805463ffffffff191663ffffffff9290921691909117905590925090506001600160701b03821615801590610aa857506001600160701b03811615155b610af45760405162461bcd60e51b815260206004820152601e60248201527f556e6973776170506169724f7261636c653a204e4f5f52455345525645530000604482015260640161037b565b5050565b6000546001600160a01b03163314610b225760405162461bcd60e51b815260040161037b9061100f565b6003805460ff19168215159081179091556040519081527fe1c5a5be777de8339dedd7c2e84c98765e03575db544edef4a1d3feb8ad1fae99060200161047a565b6000546001600160a01b03163314610b8d5760405162461bcd60e51b815260040161037b9061100f565b6001600160a01b038116610bf25760405162461bcd60e51b815260206004820152602660248201527f4f776e61626c653a206e6577206f776e657220697320746865207a65726f206160448201526564647265737360d01b606482015260840161037b565b610bfb81610cbe565b50565b6000610c0f640100000000426110da565b905090565b6040805160208101909152600081526000821580610c51575083516001600160e01b031683610c4381836110ee565b9250610c4f908361111b565b145b610ca95760405162461bcd60e51b815260206004820152602360248201527f4669786564506f696e743a204d554c5449504c49434154494f4e5f4f564552466044820152624c4f5760e81b606482015260840161037b565b60408051602081019091529081529392505050565b600080546001600160a01b038381166001600160a01b0319831681178455604051919092169283917f8be0079c531659141344cd1fd0a4f28419497f9722a3daafe3b4186f6b6457e09190a35050565b6000806000610d1b610bfe565b90506000849050806001600160a01b0316635909c0d56040518163ffffffff1660e01b8152600401602060405180830381865afa158015610d60573d6000803e3d6000fd5b505050506040513d601f19601f82011682018060405250810190610d84919061105a565b9350806001600160a01b0316635a3d54936040518163ffffffff1660e01b8152600401602060405180830381865afa158015610dc4573d6000803e3d6000fd5b505050506040513d601f19601f82011682018060405250810190610de8919061105a565b92506000806000836001600160a01b0316630902f1ac6040518163ffffffff1660e01b8152600401606060405180830381865afa158015610e2d573d6000803e3d6000fd5b505050506040513d601f19601f82011682018060405250810190610e51919061108a565b9250925092508463ffffffff168163ffffffff1614610eb15780850363ffffffff8116610e7e8486610ebc565b516001600160e01b031602979097019663ffffffff8116610e9f8585610ebc565b516001600160e01b0316029690960195505b505050509193909250565b6040805160208101909152600081526000826001600160701b031611610f245760405162461bcd60e51b815260206004820152601760248201527f4669786564506f696e743a204449565f42595f5a45524f000000000000000000604482015260640161037b565b604080516020810190915280610f5a6001600160701b0385166dffffffffffffffffffffffffffff60701b607088901b1661112f565b6001600160e01b031690529392505050565b600060208284031215610f7e57600080fd5b5035919050565b80356001600160a01b0381168114610f9c57600080fd5b919050565b60008060408385031215610fb457600080fd5b610fbd83610f85565b946020939093013593505050565b600060208284031215610fdd57600080fd5b81358015158114610fed57600080fd5b9392505050565b60006020828403121561100657600080fd5b610fed82610f85565b6020808252818101527f4f776e61626c653a2063616c6c6572206973206e6f7420746865206f776e6572604082015260600190565b634e487b7160e01b600052601260045260246000fd5b60006020828403121561106c57600080fd5b5051919050565b80516001600160701b0381168114610f9c57600080fd5b60008060006060848603121561109f57600080fd5b6110a884611073565b92506110b660208501611073565b9150604084015163ffffffff811681146110cf57600080fd5b809150509250925092565b6000826110e9576110e9611044565b500690565b600081600019048311821515161561111657634e487b7160e01b600052601160045260246000fd5b500290565b60008261112a5761112a611044565b500490565b60006001600160e01b038381168061114957611149611044565b9216919091049291505056fea26469706673582212202d8acfcd9c9d57fe862148521025fa0af04fd5114167dcd8b33792af7cfe561d64736f6c634300080d0033",
  "devdoc": {
    "kind": "dev",
    "methods": {
      "owner()": {
        "details": "Returns the address of the current owner."
      },
      "renounceOwnership()": {
        "details": "Leaves the contract without owner. It will not be possible to call `onlyOwner` functions anymore. Can only be called by the current owner. NOTE: Renouncing ownership will leave the contract without an owner, thereby removing any functionality that is only available to the owner."
      },
      "transferOwnership(address)": {
        "details": "Transfers ownership of the contract to a new account (`newOwner`). Can only be called by the current owner."
      }
    },
    "version": 1
  },
  "userdoc": {
    "kind": "user",
    "methods": {},
    "version": 1
  },
  "storageLayout": {
    "storage": [
      {
        "astId": 1541,
        "contract": "contracts/Oracle/UniswapOracle/UniswapPairOracle.sol:UniswapPairOracle",
        "label": "_owner",
        "offset": 0,
        "slot": "0",
        "type": "t_address"
      },
      {
        "astId": 7786,
        "contract": "contracts/Oracle/UniswapOracle/UniswapPairOracle.sol:UniswapPairOracle",
        "label": "period",
        "offset": 0,
        "slot": "1",
        "type": "t_uint256"
      },
      {
        "astId": 7801,
        "contract": "contracts/Oracle/UniswapOracle/UniswapPairOracle.sol:UniswapPairOracle",
        "label": "consult_leniency",
        "offset": 0,
        "slot": "2",
        "type": "t_uint256"
      },
      {
        "astId": 7804,
        "contract": "contracts/Oracle/UniswapOracle/UniswapPairOracle.sol:UniswapPairOracle",
        "label": "allow_stale_consults",
        "offset": 0,
        "slot": "3",
        "type": "t_bool"
      },
      {
        "astId": 7813,
        "contract": "contracts/Oracle/UniswapOracle/UniswapPairOracle.sol:UniswapPairOracle",
        "label": "price0CumulativeLast",
        "offset": 0,
        "slot": "4",
        "type": "t_uint256"
      },
      {
        "astId": 7815,
        "contract": "contracts/Oracle/UniswapOracle/UniswapPairOracle.sol:UniswapPairOracle",
        "label": "price1CumulativeLast",
        "offset": 0,
        "slot": "5",
        "type": "t_uint256"
      },
      {
        "astId": 7817,
        "contract": "contracts/Oracle/UniswapOracle/UniswapPairOracle.sol:UniswapPairOracle",
        "label": "blockTimestampLast",
        "offset": 0,
        "slot": "6",
        "type": "t_uint32"
      },
      {
        "astId": 7820,
        "contract": "contracts/Oracle/UniswapOracle/UniswapPairOracle.sol:UniswapPairOracle",
        "label": "price0Average",
        "offset": 0,
        "slot": "7",
        "type": "t_struct(uq112x112)8368_storage"
      },
      {
        "astId": 7823,
        "contract": "contracts/Oracle/UniswapOracle/UniswapPairOracle.sol:UniswapPairOracle",
        "label": "price1Average",
        "offset": 0,
        "slot": "8",
        "type": "t_struct(uq112x112)8368_storage"
      }
    ],
    "types": {
      "t_address": {
        "encoding": "inplace",
        "label": "address",
        "numberOfBytes": "20"
      },
      "t_bool": {
        "encoding": "inplace",
        "label": "bool",
        "numberOfBytes": "1"
      },
      "t_struct(uq112x112)8368_storage": {
        "encoding": "inplace",
        "label": "struct FixedPoint.uq112x112",
        "members": [
          {
            "astId": 8367,
            "contract": "contracts/Oracle/UniswapOracle/UniswapPairOracle.sol:UniswapPairOracle",
            "label": "_x",
            "offset": 0,
            "slot": "0",
            "type": "t_uint224"
          }
        ],
        "numberOfBytes": "32"
      },
      "t_uint224": {
        "encoding": "inplace",
        "label": "uint224",
        "numberOfBytes": "28"
      },
      "t_uint256": {
        "encoding": "inplace",
        "label": "uint256",
        "numberOfBytes": "32"
      },
      "t_uint32": {
        "encoding": "inplace",
        "label": "uint32",
        "numberOfBytes": "4"
      }
    }
  }
}