{
  "address": "0xfAC5F4eFCa151227deAe71EBCD9E079faEeA5917",
  "abi": [
    {
      "inputs": [
        {
          "internalType": "address",
          "name": "factoryAddress",
          "type": "address"
        },
        {
          "internalType": "address",
          "name": "tokenA",
          "type": "address"
        },
        {
          "internalType": "address",
          "name": "tokenB",
          "type": "address"
        }
      ],
      "stateMutability": "nonpayable",
      "type": "constructor"
    },
    {
      "anonymous": false,
      "inputs": [
        {
          "indexed": false,
          "internalType": "uint256",
          "name": "consult_latency",
          "type": "uint256"
        }
      ],
      "name": "ConsultLatencySet",
      "type": "event"
    },
    {
      "anonymous": false,
      "inputs": [
        {
          "indexed": true,
          "internalType": "address",
          "name": "previousOwner",
          "type": "address"
        },
        {
          "indexed": true,
          "internalType": "address",
          "name": "newOwner",
          "type": "address"
        }
      ],
      "name": "OwnershipTransferred",
      "type": "event"
    },
    {
      "anonymous": false,
      "inputs": [
        {
          "indexed": false,
          "internalType": "uint256",
          "name": "period",
          "type": "uint256"
        }
      ],
      "name": "PeriodSet",
      "type": "event"
    },
    {
      "inputs": [],
      "name": "allow_stale_consults",
      "outputs": [
        {
          "internalType": "bool",
          "name": "",
          "type": "bool"
        }
      ],
      "stateMutability": "view",
      "type": "function"
    },
    {
      "inputs": [],
      "name": "blockTimestampLast",
      "outputs": [
        {
          "internalType": "uint32",
          "name": "",
          "type": "uint32"
        }
      ],
      "stateMutability": "view",
      "type": "function"
    },
    {
      "inputs": [
        {
          "internalType": "address",
          "name": "token",
          "type": "address"
        },
        {
          "internalType": "uint256",
          "name": "amountIn",
          "type": "uint256"
        }
      ],
      "name": "consult",
      "outputs": [
        {
          "internalType": "uint256",
          "name": "amountOut",
          "type": "uint256"
        }
      ],
      "stateMutability": "view",
      "type": "function"
    },
    {
      "inputs": [],
      "name": "consult_leniency",
      "outputs": [
        {
          "internalType": "uint256",
          "name": "",
          "type": "uint256"
        }
      ],
      "stateMutability": "view",
      "type": "function"
    },
    {
      "inputs": [],
      "name": "owner",
      "outputs": [
        {
          "internalType": "address",
          "name": "",
          "type": "address"
        }
      ],
      "stateMutability": "view",
      "type": "function"
    },
    {
      "inputs": [],
      "name": "pair",
      "outputs": [
        {
          "internalType": "contract IUniswapV2Pair",
          "name": "",
          "type": "address"
        }
      ],
      "stateMutability": "view",
      "type": "function"
    },
    {
      "inputs": [],
      "name": "period",
      "outputs": [
        {
          "internalType": "uint256",
          "name": "",
          "type": "uint256"
        }
      ],
      "stateMutability": "view",
      "type": "function"
    },
    {
      "inputs": [],
      "name": "price0Average",
      "outputs": [
        {
          "internalType": "uint224",
          "name": "_x",
          "type": "uint224"
        }
      ],
      "stateMutability": "view",
      "type": "function"
    },
    {
      "inputs": [],
      "name": "price0CumulativeLast",
      "outputs": [
        {
          "internalType": "uint256",
          "name": "",
          "type": "uint256"
        }
      ],
      "stateMutability": "view",
      "type": "function"
    },
    {
      "inputs": [],
      "name": "price1Average",
      "outputs": [
        {
          "internalType": "uint224",
          "name": "_x",
          "type": "uint224"
        }
      ],
      "stateMutability": "view",
      "type": "function"
    },
    {
      "inputs": [],
      "name": "price1CumulativeLast",
      "outputs": [
        {
          "internalType": "uint256",
          "name": "",
          "type": "uint256"
        }
      ],
      "stateMutability": "view",
      "type": "function"
    },
    {
      "inputs": [],
      "name": "renounceOwnership",
      "outputs": [],
      "stateMutability": "nonpayable",
      "type": "function"
    },
    {
      "inputs": [],
      "name": "reset",
      "outputs": [],
      "stateMutability": "nonpayable",
      "type": "function"
    },
    {
      "inputs": [
        {
          "internalType": "bool",
          "name": "_allow_stale_consults",
          "type": "bool"
        }
      ],
      "name": "setAllowStaleConsults",
      "outputs": [],
      "stateMutability": "nonpayable",
      "type": "function"
    },
    {
      "inputs": [
        {
          "internalType": "uint256",
          "name": "_consult_leniency",
          "type": "uint256"
        }
      ],
      "name": "setConsultLeniency",
      "outputs": [],
      "stateMutability": "nonpayable",
      "type": "function"
    },
    {
      "inputs": [
        {
          "internalType": "uint256",
          "name": "_period",
          "type": "uint256"
        }
      ],
      "name": "setPeriod",
      "outputs": [],
      "stateMutability": "nonpayable",
      "type": "function"
    },
    {
      "inputs": [],
      "name": "shouldUpdateOracle",
      "outputs": [
        {
          "internalType": "bool",
          "name": "",
          "type": "bool"
        }
      ],
      "stateMutability": "view",
      "type": "function"
    },
    {
      "inputs": [],
      "name": "token0",
      "outputs": [
        {
          "internalType": "address",
          "name": "",
          "type": "address"
        }
      ],
      "stateMutability": "view",
      "type": "function"
    },
    {
      "inputs": [],
      "name": "token1",
      "outputs": [
        {
          "internalType": "address",
          "name": "",
          "type": "address"
        }
      ],
      "stateMutability": "view",
      "type": "function"
    },
    {
      "inputs": [
        {
          "internalType": "address",
          "name": "newOwner",
          "type": "address"
        }
      ],
      "name": "transferOwnership",
      "outputs": [],
      "stateMutability": "nonpayable",
      "type": "function"
    },
    {
      "inputs": [],
      "name": "updateOracle",
      "outputs": [],
      "stateMutability": "nonpayable",
      "type": "function"
    },
    {
      "inputs": [],
      "name": "when_should_update_oracle_in_seconds",
      "outputs": [
        {
          "internalType": "uint256",
          "name": "",
          "type": "uint256"
        }
      ],
      "stateMutability": "view",
      "type": "function"
    }
  ],
  "transactionHash": "0x2bcb23560c7feb7e77727d8655391b221f82a8f10d7e92dca8d7afbd360dc88f",
  "args": [
    "0x6d0aE8f3da7A451A82B48594E91Bf9d79491971d",
    "0xB3dd46A470b2C3df15931238c61C49CDf429DD9a",
    "0x1d931bf8656d795e50ef6d639562c5bd8ac2b78f"
  ],
  "solcInputHash": "cd8720e2909469f7fade4e9f8329e216",
  "bytecode": "0x60e0604052610e1060015560786002556003805460ff191690553480156200002657600080fd5b50604051620016bc380380620016bc833981810160405260608110156200004c57600080fd5b508051602082015160409092015190919060006200006962000267565b600080546001600160a01b0319166001600160a01b0383169081178255604051929350917f8be0079c531659141344cd1fd0a4f28419497f9722a3daafe3b4186f6b6457e0908290a35060008390506000816001600160a01b031663e6a4390585856040518363ffffffff1660e01b815260040180836001600160a01b03168152602001826001600160a01b031681526020019250505060206040518083038186803b1580156200011957600080fd5b505afa1580156200012e573d6000803e3d6000fd5b505050506040513d60208110156200014557600080fd5b50516001600160601b0319606082901b1660805260408051630dfe168160e01b815290519192506001600160a01b03831691630dfe168191600480820192602092909190829003018186803b1580156200019e57600080fd5b505afa158015620001b3573d6000803e3d6000fd5b505050506040513d6020811015620001ca57600080fd5b505160601b6001600160601b03191660a0526040805163d21220a760e01b815290516001600160a01b0383169163d21220a7916004808301926020929190829003018186803b1580156200021d57600080fd5b505afa15801562000232573d6000803e3d6000fd5b505050506040513d60208110156200024957600080fd5b505160601b6001600160601b03191660c052506200026b9350505050565b3390565b60805160601c60a05160601c60c05160601c6113fd620002bf6000398061050d52806107895250806103615280610497525080610750528061080252806109bd5280610a5f5280610af152506113fd6000f3fe608060405234801561001057600080fd5b50600436106101425760003560e01c80638da5cb5b116100b8578063d21220a71161007c578063d21220a71461028e578063d6f124f014610296578063d826f88f1461029e578063ef78d4fd146102a6578063f1551aea146102ae578063f2fde38b146102cd57610142565b80638da5cb5b1461024d578063a6bb453914610255578063a8aa1b311461025d578063aeec23ed14610265578063c5700a021461026d57610142565b80633ddac9531161010a5780633ddac953146101c85780635909c0d5146101f45780635a3d5493146101fc5780635cb9a714146102045780635e6aaf2c14610221578063715018a61461024557610142565b806309bf39ed146101475780630ccec97a146101635780630dfe16811461017d5780630f3a9f65146101a15780631feb2193146101c0575b600080fd5b61014f6102f3565b604080519115158252519081900360200190f35b61016b610319565b60408051918252519081900360200190f35b61018561035f565b604080516001600160a01b039092168252519081900360200190f35b6101be600480360360208110156101b757600080fd5b5035610383565b005b61016b610420565b61016b600480360360408110156101de57600080fd5b506001600160a01b038135169060200135610426565b61016b6105cc565b61016b6105d2565b6101be6004803603602081101561021a57600080fd5b50356105d8565b610229610675565b604080516001600160e01b039092168252519081900360200190f35b6101be610684565b610185610730565b61022961073f565b61018561074e565b61014f610772565b61027561077b565b6040805163ffffffff9092168252519081900360200190f35b610185610787565b6101be6107ab565b6101be610959565b61016b610c01565b6101be600480360360208110156102c457600080fd5b50351515610c07565b6101be600480360360208110156102e357600080fd5b50356001600160a01b0316610c7c565b6000806102fe610d7e565b60065460015463ffffffff9182169092031610159150505b90565b600080610324610d7e565b60065460015491925063ffffffff9081168303919082161061034b57600092505050610316565b8063ffffffff166001540392505050610316565b7f000000000000000000000000000000000000000000000000000000000000000081565b61038b610d88565b6001600160a01b031661039c610730565b6001600160a01b0316146103e5576040805162461bcd60e51b81526020600482018190526024820152600080516020611383833981519152604482015290519081900360640190fd5b60018190556040805182815290517f6649c90b5089688430ab3e855e2eedb017ca17f6eb1aed93805dcf4996a4da7d9181900360200190a150565b60025481565b600080610431610d7e565b60065460025460015492935063ffffffff91821684039201908216108061045a575060035460ff165b6104955760405162461bcd60e51b81526004018080602001828103825260358152602001806113286035913960400191505060405180910390fd5b7f00000000000000000000000000000000000000000000000000000000000000006001600160a01b0316856001600160a01b0316141561050b5760408051602081019091526007546001600160e01b031681526104fb906104f69086610d8c565b610e22565b6001600160901b031692506105c4565b7f00000000000000000000000000000000000000000000000000000000000000006001600160a01b0316856001600160a01b031614610591576040805162461bcd60e51b815260206004820181905260248201527f556e6973776170506169724f7261636c653a20494e56414c49445f544f4b454e604482015290519081900360640190fd5b60408051602081019091526008546001600160e01b031681526105b8906104f69086610d8c565b6001600160901b031692505b505092915050565b60045481565b60055481565b6105e0610d88565b6001600160a01b03166105f1610730565b6001600160a01b03161461063a576040805162461bcd60e51b81526020600482018190526024820152600080516020611383833981519152604482015290519081900360640190fd5b60028190556040805182815290517f13cf66c05494970f300c415caac02fe0fcc5b1e1ad9344103b212a21d081230b9181900360200190a150565b6008546001600160e01b031681565b61068c610d88565b6001600160a01b031661069d610730565b6001600160a01b0316146106e6576040805162461bcd60e51b81526020600482018190526024820152600080516020611383833981519152604482015290519081900360640190fd5b600080546040516001600160a01b03909116907f8be0079c531659141344cd1fd0a4f28419497f9722a3daafe3b4186f6b6457e0908390a3600080546001600160a01b0319169055565b6000546001600160a01b031690565b6007546001600160e01b031681565b7f000000000000000000000000000000000000000000000000000000000000000081565b60035460ff1681565b60065463ffffffff1681565b7f000000000000000000000000000000000000000000000000000000000000000081565b60065463ffffffff166107f8576040805162461bcd60e51b815260206004820152601060248201526f4f7261636c65206e6f7420726561647960801b604482015290519081900360640190fd5b60008060006108267f0000000000000000000000000000000000000000000000000000000000000000610e29565b600654600154939650919450925063ffffffff90811683039190821610158061086e5750610852610d88565b6001600160a01b0316610863610730565b6001600160a01b0316145b6108a95760405162461bcd60e51b81526004018080602001828103825260258152602001806113a36025913960400191505060405180910390fd5b60405180602001604052808263ffffffff166004548703816108c757fe5b046001600160e01b039081169091529051600780546001600160e01b031916919092161790556040805160208101909152600554819063ffffffff84169086038161090e57fe5b046001600160e01b039081169091529051600880546001600160e01b03191691909216179055506004929092556005556006805463ffffffff191663ffffffff909216919091179055565b610961610d88565b6001600160a01b0316610972610730565b6001600160a01b0316146109bb576040805162461bcd60e51b81526020600482018190526024820152600080516020611383833981519152604482015290519081900360640190fd5b7f00000000000000000000000000000000000000000000000000000000000000006001600160a01b0316635909c0d56040518163ffffffff1660e01b815260040160206040518083038186803b158015610a1457600080fd5b505afa158015610a28573d6000803e3d6000fd5b505050506040513d6020811015610a3e57600080fd5b5051600490815560408051635a3d549360e01b815290516001600160a01b037f00000000000000000000000000000000000000000000000000000000000000001692635a3d549392808201926020929091829003018186803b158015610aa357600080fd5b505afa158015610ab7573d6000803e3d6000fd5b505050506040513d6020811015610acd57600080fd5b505160055560408051630240bc6b60e21b8152905160009182916001600160a01b037f00000000000000000000000000000000000000000000000000000000000000001691630902f1ac916004808301926060929190829003018186803b158015610b3757600080fd5b505afa158015610b4b573d6000803e3d6000fd5b505050506040513d6060811015610b6157600080fd5b50805160208201516040909201516006805463ffffffff191663ffffffff909216919091179055925090506001600160701b03821615801590610bac57506001600160701b03811615155b610bfd576040805162461bcd60e51b815260206004820152601e60248201527f556e6973776170506169724f7261636c653a204e4f5f52455345525645530000604482015290519081900360640190fd5b5050565b60015481565b610c0f610d88565b6001600160a01b0316610c20610730565b6001600160a01b031614610c69576040805162461bcd60e51b81526020600482018190526024820152600080516020611383833981519152604482015290519081900360640190fd5b6003805460ff1916911515919091179055565b610c84610d88565b6001600160a01b0316610c95610730565b6001600160a01b031614610cde576040805162461bcd60e51b81526020600482018190526024820152600080516020611383833981519152604482015290519081900360640190fd5b6001600160a01b038116610d235760405162461bcd60e51b81526004018080602001828103825260268152602001806113026026913960400191505060405180910390fd5b600080546040516001600160a01b03808516939216917f8be0079c531659141344cd1fd0a4f28419497f9722a3daafe3b4186f6b6457e091a3600080546001600160a01b0319166001600160a01b0392909216919091179055565b63ffffffff421690565b3390565b610d946112dc565b6000821580610dba57505082516001600160e01b031682810290838281610db757fe5b04145b610e0b576040805162461bcd60e51b815260206004820152601960248201527f4669786564506f696e743a3a6d756c3a206f766572666c6f7700000000000000604482015290519081900360640190fd5b604080516020810190915290815290505b92915050565b5160701c90565b6000806000610e36610d7e565b9050836001600160a01b0316635909c0d56040518163ffffffff1660e01b815260040160206040518083038186803b158015610e7157600080fd5b505afa158015610e85573d6000803e3d6000fd5b505050506040513d6020811015610e9b57600080fd5b505160408051635a3d549360e01b815290519194506001600160a01b03861691635a3d549391600480820192602092909190829003018186803b158015610ee157600080fd5b505afa158015610ef5573d6000803e3d6000fd5b505050506040513d6020811015610f0b57600080fd5b505160408051630240bc6b60e21b81529051919350600091829182916001600160a01b03891691630902f1ac916004808301926060929190829003018186803b158015610f5757600080fd5b505afa158015610f6b573d6000803e3d6000fd5b505050506040513d6060811015610f8157600080fd5b5080516020820151604090920151909450909250905063ffffffff8082169085161461100e5780840363ffffffff8116610fc76001600160701b03808616908716611018565b600001516001600160e01b031602870196508063ffffffff16610ffc856001600160701b0316856001600160701b0316611018565b516001600160e01b0316029590950194505b5050509193909250565b6110206112ef565b6000821161105f5760405162461bcd60e51b815260040180806020018281038252602681526020018061135d6026913960400191505060405180910390fd5b826110795750604080516020810190915260008152610e1c565b6001600160901b03831161111557600082607085901b8161109657fe5b0490506001600160e01b038111156110f5576040805162461bcd60e51b815260206004820152601e60248201527f4669786564506f696e743a3a6672616374696f6e3a206f766572666c6f770000604482015290519081900360640190fd5b6040518060200160405280826001600160e01b0316815250915050610e1c565b600061112684600160701b85611184565b90506001600160e01b038111156110f5576040805162461bcd60e51b815260206004820152601e60248201527f4669786564506f696e743a3a6672616374696f6e3a206f766572666c6f770000604482015290519081900360640190fd5b6000806000611193868661123f565b91509150600084806111a157fe5b8688099050828111156111b5576001820391505b9182900391816111d3578483816111c857fe5b049350505050611238565b848210611227576040805162461bcd60e51b815260206004820152601a60248201527f46756c6c4d6174683a2046554c4c4449565f4f564552464c4f57000000000000604482015290519081900360640190fd5b61123283838761126c565b93505050505b9392505050565b6000808060001984860990508385029250828103915082811015611264576001820391505b509250929050565b6000818103821680838161127c57fe5b04925080858161128857fe5b04945080816000038161129757fe5b60028581038087028203028087028203028087028203028087028203028087028203028087028203029586029003909402930460010193909302939093010292915050565b6040518060200160405280600081525090565b6040805160208101909152600081529056fe4f776e61626c653a206e6577206f776e657220697320746865207a65726f2061646472657373556e6973776170506169724f7261636c653a2050524943455f49535f5354414c455f4e4545445f544f5f43414c4c5f5550444154454669786564506f696e743a3a6672616374696f6e3a206469766973696f6e206279207a65726f4f776e61626c653a2063616c6c6572206973206e6f7420746865206f776e6572556e6973776170506169724f7261636c653a20504552494f445f4e4f545f454c4150534544a264697066735822122092d2bbe95669dd844dc7cfd651fa0a6822b6355aa466201f535708db50f384f064736f6c634300060c0033",
  "devdoc": {
    "kind": "dev",
    "methods": {
      "owner()": {
        "details": "Returns the address of the current owner."
      },
      "renounceOwnership()": {
        "details": "Leaves the contract without owner. It will not be possible to call `onlyOwner` functions anymore. Can only be called by the current owner. NOTE: Renouncing ownership will leave the contract without an owner, thereby removing any functionality that is only available to the owner."
      },
      "transferOwnership(address)": {
        "details": "Transfers ownership of the contract to a new account (`newOwner`). Can only be called by the current owner."
      }
    },
    "version": 1
  },
  "userdoc": {
    "kind": "user",
    "methods": {},
    "version": 1
  },
  "storageLayout": {
    "storage": [
      {
        "astId": 1782,
        "contract": "contracts/Oracle/UniswapPairOracle.sol:UniswapPairOracle",
        "label": "_owner",
        "offset": 0,
        "slot": "0",
        "type": "t_address"
      },
      {
        "astId": 9777,
        "contract": "contracts/Oracle/UniswapPairOracle.sol:UniswapPairOracle",
        "label": "period",
        "offset": 0,
        "slot": "1",
        "type": "t_uint256"
      },
      {
        "astId": 9780,
        "contract": "contracts/Oracle/UniswapPairOracle.sol:UniswapPairOracle",
        "label": "consult_leniency",
        "offset": 0,
        "slot": "2",
        "type": "t_uint256"
      },
      {
        "astId": 9783,
        "contract": "contracts/Oracle/UniswapPairOracle.sol:UniswapPairOracle",
        "label": "allow_stale_consults",
        "offset": 0,
        "slot": "3",
        "type": "t_bool"
      },
      {
        "astId": 9791,
        "contract": "contracts/Oracle/UniswapPairOracle.sol:UniswapPairOracle",
        "label": "price0CumulativeLast",
        "offset": 0,
        "slot": "4",
        "type": "t_uint256"
      },
      {
        "astId": 9793,
        "contract": "contracts/Oracle/UniswapPairOracle.sol:UniswapPairOracle",
        "label": "price1CumulativeLast",
        "offset": 0,
        "slot": "5",
        "type": "t_uint256"
      },
      {
        "astId": 9795,
        "contract": "contracts/Oracle/UniswapPairOracle.sol:UniswapPairOracle",
        "label": "blockTimestampLast",
        "offset": 0,
        "slot": "6",
        "type": "t_uint32"
      },
      {
        "astId": 9797,
        "contract": "contracts/Oracle/UniswapPairOracle.sol:UniswapPairOracle",
        "label": "price0Average",
        "offset": 0,
        "slot": "7",
        "type": "t_struct(uq112x112)3841_storage"
      },
      {
        "astId": 9799,
        "contract": "contracts/Oracle/UniswapPairOracle.sol:UniswapPairOracle",
        "label": "price1Average",
        "offset": 0,
        "slot": "8",
        "type": "t_struct(uq112x112)3841_storage"
      }
    ],
    "types": {
      "t_address": {
        "encoding": "inplace",
        "label": "address",
        "numberOfBytes": "20"
      },
      "t_bool": {
        "encoding": "inplace",
        "label": "bool",
        "numberOfBytes": "1"
      },
      "t_struct(uq112x112)3841_storage": {
        "encoding": "inplace",
        "label": "struct FixedPoint.uq112x112",
        "members": [
          {
            "astId": 3840,
            "contract": "contracts/Oracle/UniswapPairOracle.sol:UniswapPairOracle",
            "label": "_x",
            "offset": 0,
            "slot": "0",
            "type": "t_uint224"
          }
        ],
        "numberOfBytes": "32"
      },
      "t_uint224": {
        "encoding": "inplace",
        "label": "uint224",
        "numberOfBytes": "28"
      },
      "t_uint256": {
        "encoding": "inplace",
        "label": "uint256",
        "numberOfBytes": "32"
      },
      "t_uint32": {
        "encoding": "inplace",
        "label": "uint32",
        "numberOfBytes": "4"
      }
    }
  }
}