{
  "address": "0x9e264Ea1c75da24564c5CD7bF72757071cEB194c",
  "abi": [
    {
      "inputs": [
        {
          "internalType": "address",
          "name": "_treasury",
          "type": "address"
        },
        {
          "internalType": "uint256",
          "name": "_maxSpotVsOraclePriceDivergence_d12",
          "type": "uint256"
        }
      ],
      "stateMutability": "nonpayable",
      "type": "constructor"
    },
    {
      "anonymous": false,
      "inputs": [
        {
          "indexed": true,
          "internalType": "address",
          "name": "previousOwner",
          "type": "address"
        },
        {
          "indexed": true,
          "internalType": "address",
          "name": "newOwner",
          "type": "address"
        }
      ],
      "name": "OwnershipTransferred",
      "type": "event"
    },
    {
      "anonymous": false,
      "inputs": [
        {
          "indexed": true,
          "internalType": "address",
          "name": "token0",
          "type": "address"
        },
        {
          "indexed": true,
          "internalType": "address",
          "name": "token1",
          "type": "address"
        },
        {
          "indexed": false,
          "internalType": "address",
          "name": "pair",
          "type": "address"
        },
        {
          "indexed": false,
          "internalType": "uint256",
          "name": "",
          "type": "uint256"
        }
      ],
      "name": "PairCreated",
      "type": "event"
    },
    {
      "inputs": [
        {
          "internalType": "uint256",
          "name": "",
          "type": "uint256"
        }
      ],
      "name": "allPairs",
      "outputs": [
        {
          "internalType": "address",
          "name": "",
          "type": "address"
        }
      ],
      "stateMutability": "view",
      "type": "function"
    },
    {
      "inputs": [],
      "name": "allPairsLength",
      "outputs": [
        {
          "internalType": "uint256",
          "name": "",
          "type": "uint256"
        }
      ],
      "stateMutability": "view",
      "type": "function"
    },
    {
      "inputs": [
        {
          "internalType": "address",
          "name": "tokenA",
          "type": "address"
        },
        {
          "internalType": "address",
          "name": "tokenB",
          "type": "address"
        }
      ],
      "name": "createPair",
      "outputs": [
        {
          "internalType": "address",
          "name": "pair",
          "type": "address"
        }
      ],
      "stateMutability": "nonpayable",
      "type": "function"
    },
    {
      "inputs": [],
      "name": "feeTo",
      "outputs": [
        {
          "internalType": "address",
          "name": "",
          "type": "address"
        }
      ],
      "stateMutability": "view",
      "type": "function"
    },
    {
      "inputs": [
        {
          "internalType": "address",
          "name": "",
          "type": "address"
        },
        {
          "internalType": "address",
          "name": "",
          "type": "address"
        }
      ],
      "name": "getPair",
      "outputs": [
        {
          "internalType": "address",
          "name": "",
          "type": "address"
        }
      ],
      "stateMutability": "view",
      "type": "function"
    },
    {
      "inputs": [],
      "name": "maxSpotVsOraclePriceDivergence_d12",
      "outputs": [
        {
          "internalType": "uint256",
          "name": "",
          "type": "uint256"
        }
      ],
      "stateMutability": "view",
      "type": "function"
    },
    {
      "inputs": [],
      "name": "owner",
      "outputs": [
        {
          "internalType": "address",
          "name": "",
          "type": "address"
        }
      ],
      "stateMutability": "view",
      "type": "function"
    },
    {
      "inputs": [],
      "name": "renounceOwnership",
      "outputs": [],
      "stateMutability": "nonpayable",
      "type": "function"
    },
    {
      "inputs": [
        {
          "internalType": "address",
          "name": "_feeTo",
          "type": "address"
        }
      ],
      "name": "setFeeTo",
      "outputs": [],
      "stateMutability": "nonpayable",
      "type": "function"
    },
    {
      "inputs": [
        {
          "internalType": "uint256",
          "name": "_maxSpotVsOraclePriceDivergence_d12",
          "type": "uint256"
        }
      ],
      "name": "setMaxSpotVsOraclePriceDivergence_d12",
      "outputs": [],
      "stateMutability": "nonpayable",
      "type": "function"
    },
    {
      "inputs": [
        {
          "internalType": "address",
          "name": "_treasury",
          "type": "address"
        }
      ],
      "name": "setTreasury",
      "outputs": [],
      "stateMutability": "nonpayable",
      "type": "function"
    },
    {
      "inputs": [
        {
          "internalType": "address",
          "name": "newOwner",
          "type": "address"
        }
      ],
      "name": "transferOwnership",
      "outputs": [],
      "stateMutability": "nonpayable",
      "type": "function"
    },
    {
      "inputs": [],
      "name": "treasury",
      "outputs": [
        {
          "internalType": "address",
          "name": "",
          "type": "address"
        }
      ],
      "stateMutability": "view",
      "type": "function"
    }
  ],
  "transactionHash": "0x116266f2c6081a35395d3dd2ad12412de516c6e971868bd64b0dd05705feb5c1",
  "args": [
    "0x13Cb548287fde6931fA7782CcaB9772c858EFB99",
    10000000000
  ],
  "solcInputHash": "964b643a9886544e5729090027eb9ffb",
  "bytecode": "0x608060405234801561001057600080fd5b50604051613d14380380613d148339818101604052604081101561003357600080fd5b508051602090910151600061004f6001600160e01b036100c216565b600080546001600160a01b0319166001600160a01b0383169081178255604051929350917f8be0079c531659141344cd1fd0a4f28419497f9722a3daafe3b4186f6b6457e0908290a350600280546001600160a01b0319166001600160a01b0393909316929092179091556003556100c6565b3390565b613c3f806100d56000396000f3fe608060405234801561001057600080fd5b50600436106100cf5760003560e01c80638aa6d2cf1161008c578063e6a4390511610066578063e6a439051461019c578063f0f44260146101ca578063f2fde38b146101f0578063f46901ed14610216576100cf565b80638aa6d2cf1461015e5780638da5cb5b14610166578063c9c653961461016e576100cf565b8063017e7e58146100d45780631e3dd18b146100f857806346346a1214610115578063574f2ba31461013457806361d027b31461014e578063715018a614610156575b600080fd5b6100dc61023c565b604080516001600160a01b039092168252519081900360200190f35b6100dc6004803603602081101561010e57600080fd5b503561024b565b6101326004803603602081101561012b57600080fd5b5035610272565b005b61013c6102d9565b60408051918252519081900360200190f35b6100dc6102df565b6101326102ee565b61013c61039a565b6100dc6103a0565b6100dc6004803603604081101561018457600080fd5b506001600160a01b03813581169160200135166103af565b6100dc600480360360408110156101b257600080fd5b506001600160a01b0381358116916020013516610805565b610132600480360360208110156101e057600080fd5b50356001600160a01b031661082b565b6101326004803603602081101561020657600080fd5b50356001600160a01b03166108af565b6101326004803603602081101561022c57600080fd5b50356001600160a01b03166109b1565b6001546001600160a01b031681565b6005818154811061025857fe5b6000918252602090912001546001600160a01b0316905081565b61027a610a35565b6001600160a01b031661028b6103a0565b6001600160a01b0316146102d4576040805162461bcd60e51b81526020600482018190526024820152600080516020613bea833981519152604482015290519081900360640190fd5b600355565b60055490565b6002546001600160a01b031681565b6102f6610a35565b6001600160a01b03166103076103a0565b6001600160a01b031614610350576040805162461bcd60e51b81526020600482018190526024820152600080516020613bea833981519152604482015290519081900360640190fd5b600080546040516001600160a01b03909116907f8be0079c531659141344cd1fd0a4f28419497f9722a3daafe3b4186f6b6457e0908390a3600080546001600160a01b0319169055565b60035481565b6000546001600160a01b031690565b6000816001600160a01b0316836001600160a01b03161415610418576040805162461bcd60e51b815260206004820152601e60248201527f556e697377617056323a204944454e544943414c5f4144445245535345530000604482015290519081900360640190fd5b600080836001600160a01b0316856001600160a01b03161061043b57838561043e565b84845b90925090506001600160a01b03821661049e576040805162461bcd60e51b815260206004820152601760248201527f556e697377617056323a205a45524f5f41444452455353000000000000000000604482015290519081900360640190fd5b6001600160a01b03828116600090815260046020908152604080832085851684529091529020541615610511576040805162461bcd60e51b8152602060048201526016602482015275556e697377617056323a20504149525f45584953545360501b604482015290519081900360640190fd5b60606040518060200161052390610a39565b601f1982820381018352601f9091011660405261053e6103a0565b604080516001600160a01b0392831660208083019190915282518083038201815282840184526002549094166060808401919091528351808403909101815260808301909352845160a09092019182918601908083835b602083106105b45780518252601f199092019160209182019101610595565b51815160209384036101000a600019018019909216911617905286519190930192860191508083835b602083106105fc5780518252601f1990920191602091820191016105dd565b51815160209384036101000a600019018019909216911617905285519190930192850191508083835b602083106106445780518252601f199092019160209182019101610625565b51815160209384036101000a60001901801990921691161790526040805192909401828103601f1901835280855260608c811b6bffffffffffffffffffffffff1990811683850152908c901b16603482015284518082036028018152604890910190945283519381019390932081519198509650869550935050850190506000f56040805163485cc95560e01b81526001600160a01b038781166004830152868116602483015291519297509087169163485cc9559160448082019260009290919082900301818387803b15801561071b57600080fd5b505af115801561072f573d6000803e3d6000fd5b505050506001600160a01b0384811660008181526004602081815260408084208987168086529083528185208054978d166001600160a01b031998891681179091559383528185208686528352818520805488168517905560058054600181018255958190527f036b6384b5eca791c62761152d0c79bb0604c104a5fb6f4eb0703f3154bb3db090950180549097168417909655925483519283529082015281517f0d3648bd0f6ba80134a33ba9275ac585d9d315f0ad8355cddefde31afa28d0e9929181900390910190a35050505092915050565b60046020908152600092835260408084209091529082529020546001600160a01b031681565b610833610a35565b6001600160a01b03166108446103a0565b6001600160a01b03161461088d576040805162461bcd60e51b81526020600482018190526024820152600080516020613bea833981519152604482015290519081900360640190fd5b600280546001600160a01b0319166001600160a01b0392909216919091179055565b6108b7610a35565b6001600160a01b03166108c86103a0565b6001600160a01b031614610911576040805162461bcd60e51b81526020600482018190526024820152600080516020613bea833981519152604482015290519081900360640190fd5b6001600160a01b0381166109565760405162461bcd60e51b8152600401808060200182810382526026815260200180613bc46026913960400191505060405180910390fd5b600080546040516001600160a01b03808516939216917f8be0079c531659141344cd1fd0a4f28419497f9722a3daafe3b4186f6b6457e091a3600080546001600160a01b0319166001600160a01b0392909216919091179055565b6109b9610a35565b6001600160a01b03166109ca6103a0565b6001600160a01b031614610a13576040805162461bcd60e51b81526020600482018190526024820152600080516020613bea833981519152604482015290519081900360640190fd5b600180546001600160a01b0319166001600160a01b0392909216919091179055565b3390565b61317d80610a478339019056fe6080604052610e10600c556078600d55603c600e55600f805460ff1916905560006017556001601a5534801561003457600080fd5b5060405161317d38038061317d8339818101604052604081101561005757600080fd5b508051602090910151600580546001600160a01b03199081163317909155601880546001600160a01b03948516908316179055601980549390921692169190911790556130d4806100a96000396000f3fe608060405234801561001057600080fd5b50600436106102f15760003560e01c80635bef6a5f1161019d578063ba9a7a56116100e9578063d505accf116100a2578063eef772f21161007c578063eef772f2146108bb578063ef78d4fd146108d8578063f1551aea146108e0578063fff6cae9146108ff576102f1565b8063d505accf14610834578063d6f124f014610885578063dd62ed3e1461088d576102f1565b8063ba9a7a56146107d1578063bc25cf77146107d9578063c3ce111d146107ff578063c45a01551461081c578063d072c68b14610824578063d21220a71461082c576102f1565b806380edef8e1161015657806395d89b411161013057806395d89b411461078d5780639de12e2914610795578063a367e27d1461079d578063a9059cbb146107a5576102f1565b806380edef8e1461073e57806386f9e91d1461074657806389afcb441461074e576102f1565b80635bef6a5f146106865780635cb9a714146106a75780636a627842146106c457806370a08231146106ea5780637464fc3d146107105780637ecebe0014610718576102f1565b8063185bec681161025c57806334dd1c8811610215578063405ce1be116101ef578063405ce1be14610640578063485cc955146106485780635909c0d5146106765780635a3d54931461067e576102f1565b806334dd1c88146105e65780633644e5151461060c5780633ddac95314610614576102f1565b8063185bec6814610536578063193fd1851461055c5780631e5a209e1461058257806323b872dd1461058a57806330adf81f146105c0578063313ce567146105c8576102f1565b8063095ea7b3116102ae578063095ea7b31461049d57806309bf39ed146104dd5780630ccec97a146104e55780630dfe1681146104ed5780630f3a9f651461051157806318160ddd1461052e576102f1565b8063022c0d9f146102f657806302fe80581461038457806305585f991461039e57806306fdde03146103c257806308acfd2e1461043f5780630902f1ac14610465575b600080fd5b6103826004803603608081101561030c57600080fd5b8135916020810135916001600160a01b03604083013516919081019060808101606082013564010000000081111561034357600080fd5b82018360208201111561035557600080fd5b8035906020019184600183028401116401000000008311171561037757600080fd5b509092509050610907565b005b61038c610faa565b60408051918252519081900360200190f35b6103a6610fb0565b604080516001600160e01b039092168252519081900360200190f35b6103ca610fbf565b6040805160208082528351818301528351919283929083019185019080838360005b838110156104045781810151838201526020016103ec565b50505050905090810190601f1680156104315780820380516001836020036101000a031916815260200191505b509250505060405180910390f35b6103826004803603602081101561045557600080fd5b50356001600160a01b0316610fe7565b61046d61105f565b604080516001600160701b03948516815292909316602083015263ffffffff168183015290519081900360600190f35b6104c9600480360360408110156104b357600080fd5b506001600160a01b038135169060200135611089565b604080519115158252519081900360200190f35b6104c96110a0565b61038c611124565b6104f5611185565b604080516001600160a01b039092168252519081900360200190f35b6103826004803603602081101561052757600080fd5b5035611194565b61038c6111ef565b61038c6004803603602081101561054c57600080fd5b50356001600160a01b03166111f5565b6103826004803603602081101561057257600080fd5b50356001600160a01b0316611207565b61038c61127f565b6104c9600480360360608110156105a057600080fd5b506001600160a01b03813581169160208101359091169060400135611285565b61038c61131f565b6105d0611343565b6040805160ff9092168252519081900360200190f35b61038c600480360360208110156105fc57600080fd5b50356001600160a01b0316611348565b61038c61135a565b61038c6004803603604081101561062a57600080fd5b506001600160a01b038135169060200135611360565b6103a66114b5565b6103826004803603604081101561065e57600080fd5b506001600160a01b03813581169160200135166114c4565b61038c611548565b61038c61154e565b61068e611554565b6040805163ffffffff9092168252519081900360200190f35b610382600480360360208110156106bd57600080fd5b5035611560565b61038c600480360360208110156106da57600080fd5b50356001600160a01b03166115bb565b61038c6004803603602081101561070057600080fd5b50356001600160a01b03166118bb565b61038c6118cd565b61038c6004803603602081101561072e57600080fd5b50356001600160a01b03166118d3565b6104f56118e5565b61038c6118f4565b6107746004803603602081101561076457600080fd5b50356001600160a01b03166118fa565b6040805192835260208301919091528051918290030190f35b6103ca611ca0565b61038c611cc2565b6104f5611cc8565b6104c9600480360360408110156107bb57600080fd5b506001600160a01b038135169060200135611cd7565b61038c611ce4565b610382600480360360208110156107ef57600080fd5b50356001600160a01b0316611cea565b6103826004803603602081101561081557600080fd5b5035611e50565b6104f5611eab565b6104c9611eba565b6104f5611ec3565b610382600480360360e081101561084a57600080fd5b506001600160a01b03813581169160208101359091169060408101359060608101359060ff6080820135169060a08101359060c00135611ed2565b6103826120d4565b61038c600480360360408110156108a357600080fd5b506001600160a01b0381358116916020013516612261565b610382600480360360208110156108d157600080fd5b503561227e565b61038c6122d9565b610382600480360360208110156108f657600080fd5b503515156122df565b610382612348565b601a54600114610952576040805162461bcd60e51b8152602060048201526011602482015270155b9a5cddd85c158c8e881313d0d2d151607a1b604482015290519081900360640190fd5b6000601a55841515806109655750600084115b6109a05760405162461bcd60e51b8152600401808060200182810382526025815260200180612f466025913960400191505060405180910390fd5b6000806109ab61105f565b5091509150816001600160701b0316871080156109d05750806001600160701b031686105b610a0b5760405162461bcd60e51b8152600401808060200182810382526021815260200180612fb26021913960400191505060405180910390fd5b60065460009081906001600160a01b03888116911614801590610a3c57506007546001600160a01b03888116911614155b610a85576040805162461bcd60e51b8152602060048201526015602482015274556e697377617056323a20494e56414c49445f544f60581b604482015290519081900360640190fd5b8815610b56576017546001600160a01b038816600090815260166020526040902054610ab890439063ffffffff6124aa16565b1015610b2357600654610ae5906001600160a01b031688610ae08c600a63ffffffff61250716565b61256e565b600654601954610b1e916001600160a01b039081169116610ae0600a610b128e600963ffffffff61270816565b9063ffffffff61250716565b610b3a565b600654610b3a906001600160a01b0316888b61256e565b6001600160a01b03871660009081526015602052604090204390555b8715610c16576017546001600160a01b038816600090815260156020526040902054610b8990439063ffffffff6124aa16565b1015610be357600754610bb1906001600160a01b031688610ae08b600a63ffffffff61250716565b600754601954610bde916001600160a01b039081169116610ae0600a610b128d600963ffffffff61270816565b610bfa565b600754610bfa906001600160a01b0316888a61256e565b6001600160a01b03871660009081526016602052604090204390555b8415610cd157866001600160a01b03166310d1e85c338b8b8a8a6040518663ffffffff1660e01b815260040180866001600160a01b03166001600160a01b03168152602001858152602001848152602001806020018281038252848482818152602001925080828437600081840152601f19601f8201169050808301925050509650505050505050600060405180830381600087803b158015610cb857600080fd5b505af1158015610ccc573d6000803e3d6000fd5b505050505b600654604080516370a0823160e01b815230600482015290516001600160a01b03909216916370a0823191602480820192602092909190829003018186803b158015610d1c57600080fd5b505afa158015610d30573d6000803e3d6000fd5b505050506040513d6020811015610d4657600080fd5b5051600754604080516370a0823160e01b815230600482015290519294506001600160a01b03909116916370a0823191602480820192602092909190829003018186803b158015610d9657600080fd5b505afa158015610daa573d6000803e3d6000fd5b505050506040513d6020811015610dc057600080fd5b5051905060006001600160701b0385168a90038311610de0576000610def565b89856001600160701b03160383035b9050600089856001600160701b0316038311610e0c576000610e1b565b89856001600160701b03160383035b90506000821180610e2c5750600081115b610e675760405162461bcd60e51b8152600401808060200182810382526024815260200180612f6b6024913960400191505060405180910390fd5b6000610e9b610e7d84600363ffffffff61270816565b610e8f876103e863ffffffff61270816565b9063ffffffff6124aa16565b90506000610eb3610e7d84600363ffffffff61270816565b9050610ee4620f4240610ed86001600160701b038b8116908b1663ffffffff61270816565b9063ffffffff61270816565b610ef4838363ffffffff61270816565b1015610f36576040805162461bcd60e51b815260206004820152600c60248201526b556e697377617056323a204b60a01b604482015290519081900360640190fd5b5050610f4484848888612768565b60408051838152602081018390528082018d9052606081018c905290516001600160a01b038b169133917fd78ad95fa46c994b6551d0da85fc275fe613ce37657fb8d5e3d130840159d8229181900360800190a350506001601a55505050505050505050565b600d5481565b6011546001600160e01b031681565b6040518060400160405280600c81526020016b0426c696e64657820537761760a41b81525081565b6018546001600160a01b0316331461103d576040805162461bcd60e51b81526020600482015260146024820152732cb7ba9030b932903737ba1030b71037bbb732b960611b604482015290519081900360640190fd5b601980546001600160a01b0319166001600160a01b0392909216919091179055565b6008546001600160701b0380821692600160701b830490911691600160e01b900463ffffffff1690565b6000611096338484612940565b5060015b92915050565b6000806110ab6129a2565b601454600e54600d54600c5463ffffffff948516955093909216840392909101038110806110db5750600f5460ff165b806110ef57506008546001600160701b0316155b8061110a5750600854600160701b90046001600160701b0316155b1561111a57600092505050611121565b6001925050505b90565b60008061112f6129a2565b60145463ffffffff9182169250600091168211156111575760145463ffffffff16820361115a565b60005b90506000600e54600d54600c540103905081811061117a5781810361117d565b60005b935050505090565b6006546001600160a01b031681565b6018546001600160a01b031633146111ea576040805162461bcd60e51b81526020600482015260146024820152732cb7ba9030b932903737ba1030b71037bbb732b960611b604482015290519081900360640190fd5b600c55565b60005481565b60156020526000908152604090205481565b6018546001600160a01b0316331461125d576040805162461bcd60e51b81526020600482015260146024820152732cb7ba9030b932903737ba1030b71037bbb732b960611b604482015290519081900360640190fd5b601880546001600160a01b0319166001600160a01b0392909216919091179055565b60125481565b6001600160a01b03831660009081526002602090815260408083203384529091528120546000191461130a576001600160a01b03841660009081526002602090815260408083203384529091529020546112e5908363ffffffff6124aa16565b6001600160a01b03851660009081526002602090815260408083203384529091529020555b6113158484846129ac565b5060019392505050565b7f6e71edae12b1b97f4d1f60370fef10105fa2faae0126114a169c64845d6126c981565b601281565b60166020526000908152604090205481565b60035481565b60008061136b6129a2565b601454600d54600c5463ffffffff938416945091909216830391018110806113955750600f5460ff165b6113d05760405162461bcd60e51b81526004018080602001828103825260388152602001806130676038913960400191505060405180910390fd5b6006546001600160a01b03868116911614156114285760408051602081019091526010546001600160e01b0316815261141890611413908663ffffffff612a6616565b612ae4565b6001600160901b031692506114ad565b6007546001600160a01b038681169116146114745760405162461bcd60e51b8152600401808060200182810382526023815260200180612f8f6023913960400191505060405180910390fd5b60408051602081019091526011546001600160e01b031681526114a190611413908663ffffffff612a6616565b6001600160901b031692505b505092915050565b6010546001600160e01b031681565b6005546001600160a01b0316331461151a576040805162461bcd60e51b81526020600482015260146024820152732ab734b9bbb0b82b191d102327a92124a22222a760611b604482015290519081900360640190fd5b600680546001600160a01b039384166001600160a01b03199182161790915560078054929093169116179055565b60095481565b600a5481565b60145463ffffffff1681565b6018546001600160a01b031633146115b6576040805162461bcd60e51b81526020600482015260146024820152732cb7ba9030b932903737ba1030b71037bbb732b960611b604482015290519081900360640190fd5b600d55565b6000601a54600114611608576040805162461bcd60e51b8152602060048201526011602482015270155b9a5cddd85c158c8e881313d0d2d151607a1b604482015290519081900360640190fd5b6000601a8190558061161861105f565b50600654604080516370a0823160e01b815230600482015290519395509193506000926001600160a01b03909116916370a08231916024808301926020929190829003018186803b15801561166c57600080fd5b505afa158015611680573d6000803e3d6000fd5b505050506040513d602081101561169657600080fd5b5051600754604080516370a0823160e01b815230600482015290519293506000926001600160a01b03909216916370a0823191602480820192602092909190829003018186803b1580156116e957600080fd5b505afa1580156116fd573d6000803e3d6000fd5b505050506040513d602081101561171357600080fd5b505190506000611732836001600160701b03871663ffffffff6124aa16565b9050600061174f836001600160701b03871663ffffffff6124aa16565b9050600061175d8787612aef565b6000549091508061179a576117866103e8610e8f611781878763ffffffff61270816565b612c4c565b985061179560006103e8612c9d565b6117e9565b6117e66001600160701b0389166117b7868463ffffffff61270816565b816117be57fe5b046001600160701b0389166117d9868563ffffffff61270816565b816117e057fe5b04612d33565b98505b600089116118285760405162461bcd60e51b8152600401808060200182810382526028815260200180612ffb6028913960400191505060405180910390fd5b6118328a8a612c9d565b61183e86868a8a612768565b811561186e5760085461186a906001600160701b0380821691600160701b90041663ffffffff61270816565b600b555b6040805185815260208101859052815133927f4c209b5fc8ad50758f13e2e1088ba56a560dff690a1c6fef26394f4c03821c4f928290030190a250506001601a5550949695505050505050565b60016020526000908152604090205481565b600b5481565b60046020526000908152604090205481565b6018546001600160a01b031681565b600e5481565b600080601a54600114611948576040805162461bcd60e51b8152602060048201526011602482015270155b9a5cddd85c158c8e881313d0d2d151607a1b604482015290519081900360640190fd5b6000601a8190558061195861105f565b50600654600754604080516370a0823160e01b815230600482015290519496509294506001600160a01b039182169391169160009184916370a08231916024808301926020929190829003018186803b1580156119b457600080fd5b505afa1580156119c8573d6000803e3d6000fd5b505050506040513d60208110156119de57600080fd5b5051604080516370a0823160e01b815230600482015290519192506000916001600160a01b038516916370a08231916024808301926020929190829003018186803b158015611a2c57600080fd5b505afa158015611a40573d6000803e3d6000fd5b505050506040513d6020811015611a5657600080fd5b505130600090815260016020526040812054919250611a758888612aef565b60005490915080611a8c848763ffffffff61270816565b81611a9357fe5b049a5080611aa7848663ffffffff61270816565b81611aae57fe5b04995060008b118015611ac1575060008a115b611afc5760405162461bcd60e51b8152600401808060200182810382526028815260200180612fd36028913960400191505060405180910390fd5b611b063084612d49565b611b11878d8d61256e565b611b1c868d8c61256e565b604080516370a0823160e01b815230600482015290516001600160a01b038916916370a08231916024808301926020929190829003018186803b158015611b6257600080fd5b505afa158015611b76573d6000803e3d6000fd5b505050506040513d6020811015611b8c57600080fd5b5051604080516370a0823160e01b815230600482015290519196506001600160a01b038816916370a0823191602480820192602092909190829003018186803b158015611bd857600080fd5b505afa158015611bec573d6000803e3d6000fd5b505050506040513d6020811015611c0257600080fd5b50519350611c1285858b8b612768565b8115611c4257600854611c3e906001600160701b0380821691600160701b90041663ffffffff61270816565b600b555b604080518c8152602081018c905281516001600160a01b038f169233927fdccd412f0b1252819cb1fd330b93224ca42612892bb3f4f789976e6d81936496929081900390910190a35050505050505050506001601a81905550915091565b6040518060400160405280600681526020016504244535741560d41b81525081565b60135481565b6019546001600160a01b031681565b60006110963384846129ac565b6103e881565b601a54600114611d35576040805162461bcd60e51b8152602060048201526011602482015270155b9a5cddd85c158c8e881313d0d2d151607a1b604482015290519081900360640190fd5b6000601a55600654600754600854604080516370a0823160e01b815230600482015290516001600160a01b039485169490931692611ddf9285928792610ae0926001600160701b03169185916370a0823191602480820192602092909190829003018186803b158015611da757600080fd5b505afa158015611dbb573d6000803e3d6000fd5b505050506040513d6020811015611dd157600080fd5b50519063ffffffff6124aa16565b600854604080516370a0823160e01b81523060048201529051611e469284928792610ae092600160701b90046001600160701b0316916001600160a01b038616916370a0823191602480820192602092909190829003018186803b158015611da757600080fd5b50506001601a5550565b6018546001600160a01b03163314611ea6576040805162461bcd60e51b81526020600482015260146024820152732cb7ba9030b932903737ba1030b71037bbb732b960611b604482015290519081900360640190fd5b600e55565b6005546001600160a01b031681565b600f5460ff1681565b6007546001600160a01b031681565b42841015611f1c576040805162461bcd60e51b8152602060048201526012602482015271155b9a5cddd85c158c8e881156141254915160721b604482015290519081900360640190fd5b6003546001600160a01b0380891660008181526004602090815260408083208054600180820190925582517f6e71edae12b1b97f4d1f60370fef10105fa2faae0126114a169c64845d6126c98186015280840196909652958d166060860152608085018c905260a085019590955260c08085018b90528151808603909101815260e08501825280519083012061190160f01b6101008601526101028501969096526101228085019690965280518085039096018652610142840180825286519683019690962095839052610162840180825286905260ff89166101828501526101a284018890526101c28401879052519193926101e280820193601f1981019281900390910190855afa158015612037573d6000803e3d6000fd5b5050604051601f1901519150506001600160a01b0381161580159061206d5750886001600160a01b0316816001600160a01b0316145b6120be576040805162461bcd60e51b815260206004820152601c60248201527f556e697377617056323a20494e56414c49445f5349474e415455524500000000604482015290519081900360640190fd5b6120c9898989612940565b505050505050505050565b60006120de6129a2565b601454600c5491925063ffffffff90811683039190821610158061210c57506018546001600160a01b031633145b1561225d57600954600a5460085463ffffffff858116600160e01b90920416146121b35760085463ffffffff600160e01b8204811686039190821690612164906001600160701b03600160701b820481169116612de7565b516008546001600160e01b0390911691909102939093019263ffffffff8216906121a1906001600160701b0380821691600160701b900416612de7565b516001600160e01b0316029190910190505b60405180602001604052808463ffffffff166012548503816121d157fe5b046001600160e01b039081169091529051601080546001600160e01b031916919092161790556040805160208101909152601354819063ffffffff86169084038161221857fe5b046001600160e01b039081169091529051601180546001600160e01b031916919092161790556012919091556013556014805463ffffffff191663ffffffff84161790555b5050565b600260209081526000928352604080842090915290825290205481565b6018546001600160a01b031633146122d4576040805162461bcd60e51b81526020600482015260146024820152732cb7ba9030b932903737ba1030b71037bbb732b960611b604482015290519081900360640190fd5b601755565b600c5481565b6018546001600160a01b03163314612335576040805162461bcd60e51b81526020600482015260146024820152732cb7ba9030b932903737ba1030b71037bbb732b960611b604482015290519081900360640190fd5b600f805460ff1916911515919091179055565b601a54600114612393576040805162461bcd60e51b8152602060048201526011602482015270155b9a5cddd85c158c8e881313d0d2d151607a1b604482015290519081900360640190fd5b6000601a55600654604080516370a0823160e01b815230600482015290516124a3926001600160a01b0316916370a08231916024808301926020929190829003018186803b1580156123e457600080fd5b505afa1580156123f8573d6000803e3d6000fd5b505050506040513d602081101561240e57600080fd5b5051600754604080516370a0823160e01b815230600482015290516001600160a01b03909216916370a0823191602480820192602092909190829003018186803b15801561245b57600080fd5b505afa15801561246f573d6000803e3d6000fd5b505050506040513d602081101561248557600080fd5b50516008546001600160701b0380821691600160701b900416612768565b6001601a55565b600082821115612501576040805162461bcd60e51b815260206004820152601e60248201527f536166654d6174683a207375627472616374696f6e206f766572666c6f770000604482015290519081900360640190fd5b50900390565b600080821161255d576040805162461bcd60e51b815260206004820152601a60248201527f536166654d6174683a206469766973696f6e206279207a65726f000000000000604482015290519081900360640190fd5b81838161256657fe5b049392505050565b604080518082018252601981527f7472616e7366657228616464726573732c75696e74323536290000000000000060209182015281516001600160a01b0385811660248301526044808301869052845180840390910181526064909201845291810180516001600160e01b031663a9059cbb60e01b1781529251815160009460609489169392918291908083835b6020831061261b5780518252601f1990920191602091820191016125fc565b6001836020036101000a0380198251168184511680821785525050505050509050019150506000604051808303816000865af19150503d806000811461267d576040519150601f19603f3d011682016040523d82523d6000602084013e612682565b606091505b50915091508180156126b05750805115806126b057508080602001905160208110156126ad57600080fd5b50515b612701576040805162461bcd60e51b815260206004820152601a60248201527f556e697377617056323a205452414e534645525f4641494c4544000000000000604482015290519081900360640190fd5b5050505050565b6000826127175750600061109a565b8282028284828161272457fe5b04146127615760405162461bcd60e51b81526004018080602001828103825260218152602001806130236021913960400191505060405180910390fd5b9392505050565b6001600160701b03841180159061278657506001600160701b038311155b6127cd576040805162461bcd60e51b8152602060048201526013602482015272556e697377617056323a204f564552464c4f5760681b604482015290519081900360640190fd5b60085463ffffffff42811691600160e01b900481168203908116158015906127fd57506001600160701b03841615155b801561281157506001600160701b03831615155b15612882578063ffffffff1661283f8561282a86612e97565b6001600160e01b03169063ffffffff612ea916565b600980546001600160e01b03929092169290920201905563ffffffff811661286a8461282a87612e97565b600a80546001600160e01b0392909216929092020190555b600880546dffffffffffffffffffffffffffff19166001600160701b03888116919091176dffffffffffffffffffffffffffff60701b1916600160701b91881691909102176001600160e01b0316600160e01b63ffffffff8516021790556128e86120d4565b600854604080516001600160701b038084168252600160701b909304909216602083015280517f1c411e9a96e071241c2f21f7726b17ae89e3cab4c78be50e062b03a9fffbbad19281900390910190a1505050505050565b6001600160a01b03808416600081815260026020908152604080832094871680845294825291829020859055815185815291517f8c5be1e5ebec7d5bd14f71427d1e84f3dd0314c0f7b2291e5b200ac8c7c3b9259281900390910190a3505050565b63ffffffff421690565b6001600160a01b0383166000908152600160205260409020546129d5908263ffffffff6124aa16565b6001600160a01b038085166000908152600160205260408082209390935590841681522054612a0a908263ffffffff612ec616565b6001600160a01b0380841660008181526001602090815260409182902094909455805185815290519193928716927fddf252ad1be2c89b69c2b068fc378daa952ba7f163c4a11628f55a4df523b3ef92918290030190a3505050565b612a6e612f20565b6000821580612a9457505082516001600160e01b031682810290838281612a9157fe5b04145b612acf5760405162461bcd60e51b81526004018080602001828103825260238152602001806130446023913960400191505060405180910390fd5b60408051602081019091529081529392505050565b805160701c5b919050565b600080600560009054906101000a90046001600160a01b03166001600160a01b031663017e7e586040518163ffffffff1660e01b815260040160206040518083038186803b158015612b4057600080fd5b505afa158015612b54573d6000803e3d6000fd5b505050506040513d6020811015612b6a57600080fd5b5051600b546001600160a01b038216158015945091925090612c39578015612c34576000612bad6117816001600160701b0388811690881663ffffffff61270816565b90506000612bba83612c4c565b905080821115612c31576000612be8612bd9848463ffffffff6124aa16565b6000549063ffffffff61270816565b90506000612c0d83612c0186600563ffffffff61270816565b9063ffffffff612ec616565b90506000818381612c1a57fe5b0490508015612c2d57612c2d8782612c9d565b5050505b50505b6114ad565b80156114ad576000600b55505092915050565b60006003821115612c8f575080600160028204015b81811015612c8957809150600281828581612c7857fe5b040181612c8157fe5b049050612c61565b50612aea565b8115612aea57506001919050565b600054612cb0908263ffffffff612ec616565b60009081556001600160a01b038316815260016020526040902054612cdb908263ffffffff612ec616565b6001600160a01b03831660008181526001602090815260408083209490945583518581529351929391927fddf252ad1be2c89b69c2b068fc378daa952ba7f163c4a11628f55a4df523b3ef9281900390910190a35050565b6000818310612d425781612761565b5090919050565b6001600160a01b038216600090815260016020526040902054612d72908263ffffffff6124aa16565b6001600160a01b03831660009081526001602052604081209190915554612d9f908263ffffffff6124aa16565b60009081556040805183815290516001600160a01b038516917fddf252ad1be2c89b69c2b068fc378daa952ba7f163c4a11628f55a4df523b3ef919081900360200190a35050565b612def612f33565b6000826001600160701b031611612e4d576040805162461bcd60e51b815260206004820152601760248201527f4669786564506f696e743a204449565f42595f5a45524f000000000000000000604482015290519081900360640190fd5b6040805160208101909152806001600160701b0384166dffffffffffffffffffffffffffff60701b607087901b1681612e8257fe5b046001600160e01b0316815250905092915050565b6001600160701b0316600160701b0290565b60006001600160701b0382166001600160e01b0384168161256657fe5b600082820183811015612761576040805162461bcd60e51b815260206004820152601b60248201527f536166654d6174683a206164646974696f6e206f766572666c6f770000000000604482015290519081900360640190fd5b6040518060200160405280600081525090565b6040805160208101909152600081529056fe556e697377617056323a20494e53554646494349454e545f4f55545055545f414d4f554e54556e697377617056323a20494e53554646494349454e545f494e5055545f414d4f554e54556e6973776170563250616972204f7261636c653a20494e56414c49445f544f4b454e556e697377617056323a20494e53554646494349454e545f4c4951554944495459556e697377617056323a20494e53554646494349454e545f4c49515549444954595f4255524e4544556e697377617056323a20494e53554646494349454e545f4c49515549444954595f4d494e544544536166654d6174683a206d756c7469706c69636174696f6e206f766572666c6f774669786564506f696e743a204d554c5449504c49434154494f4e5f4f564552464c4f57556e6973776170563250616972204f7261636c653a2050524943455f49535f5354414c455f4e4545445f544f5f43414c4c5f555044415445a2646970667358221220c2ce7c19106705496fa85a4279a70d514d28b7bbca3c6430e98cfad4ad607cc164736f6c634300060b00334f776e61626c653a206e6577206f776e657220697320746865207a65726f20616464726573734f776e61626c653a2063616c6c6572206973206e6f7420746865206f776e6572a264697066735822122001b03e366630075b0ee9bbe16c12e853e1775d63110db8ea9e8f8975b9036a8d64736f6c634300060b0033",
  "devdoc": {
    "kind": "dev",
    "methods": {
      "owner()": {
        "details": "Returns the address of the current owner."
      },
      "renounceOwnership()": {
        "details": "Leaves the contract without owner. It will not be possible to call `onlyOwner` functions anymore. Can only be called by the current owner. NOTE: Renouncing ownership will leave the contract without an owner, thereby removing any functionality that is only available to the owner."
      },
      "transferOwnership(address)": {
        "details": "Transfers ownership of the contract to a new account (`newOwner`). Can only be called by the current owner."
      }
    },
    "version": 1
  },
  "userdoc": {
    "kind": "user",
    "methods": {},
    "version": 1
  },
  "storageLayout": {
    "storage": [
      {
        "astId": 1569,
        "contract": "contracts/Uniswap/UniswapV2Factory.sol:UniswapV2Factory",
        "label": "_owner",
        "offset": 0,
        "slot": "0",
        "type": "t_address"
      },
      {
        "astId": 13136,
        "contract": "contracts/Uniswap/UniswapV2Factory.sol:UniswapV2Factory",
        "label": "feeTo",
        "offset": 0,
        "slot": "1",
        "type": "t_address"
      },
      {
        "astId": 13139,
        "contract": "contracts/Uniswap/UniswapV2Factory.sol:UniswapV2Factory",
        "label": "treasury",
        "offset": 0,
        "slot": "2",
        "type": "t_address"
      },
      {
        "astId": 13142,
        "contract": "contracts/Uniswap/UniswapV2Factory.sol:UniswapV2Factory",
        "label": "maxSpotVsOraclePriceDivergence_d12",
        "offset": 0,
        "slot": "3",
        "type": "t_uint256"
      },
      {
        "astId": 13149,
        "contract": "contracts/Uniswap/UniswapV2Factory.sol:UniswapV2Factory",
        "label": "getPair",
        "offset": 0,
        "slot": "4",
        "type": "t_mapping(t_address,t_mapping(t_address,t_address))"
      },
      {
        "astId": 13153,
        "contract": "contracts/Uniswap/UniswapV2Factory.sol:UniswapV2Factory",
        "label": "allPairs",
        "offset": 0,
        "slot": "5",
        "type": "t_array(t_address)dyn_storage"
      }
    ],
    "types": {
      "t_address": {
        "encoding": "inplace",
        "label": "address",
        "numberOfBytes": "20"
      },
      "t_array(t_address)dyn_storage": {
        "base": "t_address",
        "encoding": "dynamic_array",
        "label": "address[]",
        "numberOfBytes": "32"
      },
      "t_mapping(t_address,t_address)": {
        "encoding": "mapping",
        "key": "t_address",
        "label": "mapping(address => address)",
        "numberOfBytes": "32",
        "value": "t_address"
      },
      "t_mapping(t_address,t_mapping(t_address,t_address))": {
        "encoding": "mapping",
        "key": "t_address",
        "label": "mapping(address => mapping(address => address))",
        "numberOfBytes": "32",
        "value": "t_mapping(t_address,t_address)"
      },
      "t_uint256": {
        "encoding": "inplace",
        "label": "uint256",
        "numberOfBytes": "32"
      }
    }
  }
}