{
  "address": "0x95978fe95918D911186EAAc507ddf4E5c57e8417",
  "abi": [
    {
      "inputs": [
        {
          "internalType": "address",
          "name": "factoryAddress",
          "type": "address"
        },
        {
          "internalType": "address",
          "name": "tokenA",
          "type": "address"
        },
        {
          "internalType": "address",
          "name": "tokenB",
          "type": "address"
        }
      ],
      "stateMutability": "nonpayable",
      "type": "constructor"
    },
    {
      "anonymous": false,
      "inputs": [
        {
          "indexed": false,
          "internalType": "bool",
          "name": "allow_stale_consults",
          "type": "bool"
        }
      ],
      "name": "AllowStaleConsultsSet",
      "type": "event"
    },
    {
      "anonymous": false,
      "inputs": [
        {
          "indexed": false,
          "internalType": "uint256",
          "name": "consult_latency",
          "type": "uint256"
        }
      ],
      "name": "ConsultLeniencySet",
      "type": "event"
    },
    {
      "anonymous": false,
      "inputs": [
        {
          "indexed": true,
          "internalType": "address",
          "name": "previousOwner",
          "type": "address"
        },
        {
          "indexed": true,
          "internalType": "address",
          "name": "newOwner",
          "type": "address"
        }
      ],
      "name": "OwnershipTransferred",
      "type": "event"
    },
    {
      "anonymous": false,
      "inputs": [
        {
          "indexed": false,
          "internalType": "uint256",
          "name": "period",
          "type": "uint256"
        }
      ],
      "name": "PeriodSet",
      "type": "event"
    },
    {
      "inputs": [],
      "name": "allow_stale_consults",
      "outputs": [
        {
          "internalType": "bool",
          "name": "",
          "type": "bool"
        }
      ],
      "stateMutability": "view",
      "type": "function"
    },
    {
      "inputs": [],
      "name": "blockTimestampLast",
      "outputs": [
        {
          "internalType": "uint32",
          "name": "",
          "type": "uint32"
        }
      ],
      "stateMutability": "view",
      "type": "function"
    },
    {
      "inputs": [
        {
          "internalType": "address",
          "name": "token",
          "type": "address"
        },
        {
          "internalType": "uint256",
          "name": "amountIn",
          "type": "uint256"
        }
      ],
      "name": "consult",
      "outputs": [
        {
          "internalType": "uint256",
          "name": "amountOut",
          "type": "uint256"
        }
      ],
      "stateMutability": "view",
      "type": "function"
    },
    {
      "inputs": [],
      "name": "consult_leniency",
      "outputs": [
        {
          "internalType": "uint256",
          "name": "",
          "type": "uint256"
        }
      ],
      "stateMutability": "view",
      "type": "function"
    },
    {
      "inputs": [],
      "name": "owner",
      "outputs": [
        {
          "internalType": "address",
          "name": "",
          "type": "address"
        }
      ],
      "stateMutability": "view",
      "type": "function"
    },
    {
      "inputs": [],
      "name": "pair",
      "outputs": [
        {
          "internalType": "contract IUniswapV2Pair",
          "name": "",
          "type": "address"
        }
      ],
      "stateMutability": "view",
      "type": "function"
    },
    {
      "inputs": [],
      "name": "period",
      "outputs": [
        {
          "internalType": "uint256",
          "name": "",
          "type": "uint256"
        }
      ],
      "stateMutability": "view",
      "type": "function"
    },
    {
      "inputs": [],
      "name": "price0Average",
      "outputs": [
        {
          "internalType": "uint224",
          "name": "_x",
          "type": "uint224"
        }
      ],
      "stateMutability": "view",
      "type": "function"
    },
    {
      "inputs": [],
      "name": "price0CumulativeLast",
      "outputs": [
        {
          "internalType": "uint256",
          "name": "",
          "type": "uint256"
        }
      ],
      "stateMutability": "view",
      "type": "function"
    },
    {
      "inputs": [],
      "name": "price1Average",
      "outputs": [
        {
          "internalType": "uint224",
          "name": "_x",
          "type": "uint224"
        }
      ],
      "stateMutability": "view",
      "type": "function"
    },
    {
      "inputs": [],
      "name": "price1CumulativeLast",
      "outputs": [
        {
          "internalType": "uint256",
          "name": "",
          "type": "uint256"
        }
      ],
      "stateMutability": "view",
      "type": "function"
    },
    {
      "inputs": [],
      "name": "renounceOwnership",
      "outputs": [],
      "stateMutability": "nonpayable",
      "type": "function"
    },
    {
      "inputs": [],
      "name": "reset",
      "outputs": [],
      "stateMutability": "nonpayable",
      "type": "function"
    },
    {
      "inputs": [
        {
          "internalType": "bool",
          "name": "_allow_stale_consults",
          "type": "bool"
        }
      ],
      "name": "setAllowStaleConsults",
      "outputs": [],
      "stateMutability": "nonpayable",
      "type": "function"
    },
    {
      "inputs": [
        {
          "internalType": "uint256",
          "name": "_consult_leniency",
          "type": "uint256"
        }
      ],
      "name": "setConsultLeniency",
      "outputs": [],
      "stateMutability": "nonpayable",
      "type": "function"
    },
    {
      "inputs": [
        {
          "internalType": "uint256",
          "name": "_period",
          "type": "uint256"
        }
      ],
      "name": "setPeriod",
      "outputs": [],
      "stateMutability": "nonpayable",
      "type": "function"
    },
    {
      "inputs": [],
      "name": "shouldUpdateOracle",
      "outputs": [
        {
          "internalType": "bool",
          "name": "",
          "type": "bool"
        }
      ],
      "stateMutability": "view",
      "type": "function"
    },
    {
      "inputs": [],
      "name": "token0",
      "outputs": [
        {
          "internalType": "address",
          "name": "",
          "type": "address"
        }
      ],
      "stateMutability": "view",
      "type": "function"
    },
    {
      "inputs": [],
      "name": "token1",
      "outputs": [
        {
          "internalType": "address",
          "name": "",
          "type": "address"
        }
      ],
      "stateMutability": "view",
      "type": "function"
    },
    {
      "inputs": [
        {
          "internalType": "address",
          "name": "newOwner",
          "type": "address"
        }
      ],
      "name": "transferOwnership",
      "outputs": [],
      "stateMutability": "nonpayable",
      "type": "function"
    },
    {
      "inputs": [],
      "name": "updateOracle",
      "outputs": [],
      "stateMutability": "nonpayable",
      "type": "function"
    }
  ],
  "transactionHash": "0x370e649c97e2f8556518ed56a155517671f9f28b8df051cd20944ca28867fe38",
  "args": [
    "0x5Af7cba7CDfE30664ab6E06D8D2210915Ef73c2E",
    "0x6542a10E68cEAc1Fa0641ec0D799a7492795AAC1",
    "0xB450ff06d950eFA9A9c0aD63790C51971C1BE885"
  ],
  "solcInputHash": "a2b283f9ba339a090f7b294daff0e306",
  "bytecode": "0x60e0604052610e106001556103846002556003805460ff191690553480156200002757600080fd5b50604051620017ab380380620017ab833981810160405260608110156200004d57600080fd5b508051602082015160409092015190919060006200006a6200037c565b600080546001600160a01b0319166001600160a01b0383169081178255604051929350917f8be0079c531659141344cd1fd0a4f28419497f9722a3daafe3b4186f6b6457e0908290a3506001600160a01b03831662000110576040805162461bcd60e51b815260206004820152601b60248201527f466163746f727920616464726573732063616e6e6f7420626520300000000000604482015290519081900360640190fd5b6001600160a01b0382166200016c576040805162461bcd60e51b815260206004820152601a60248201527f546f6b656e4120616464726573732063616e6e6f742062652030000000000000604482015290519081900360640190fd5b6001600160a01b038116620001c8576040805162461bcd60e51b815260206004820152601a60248201527f546f6b656e4220616464726573732063616e6e6f742062652030000000000000604482015290519081900360640190fd5b60008390506000816001600160a01b031663e6a4390585856040518363ffffffff1660e01b815260040180836001600160a01b03168152602001826001600160a01b031681526020019250505060206040518083038186803b1580156200022e57600080fd5b505afa15801562000243573d6000803e3d6000fd5b505050506040513d60208110156200025a57600080fd5b50516001600160601b0319606082901b1660805260408051630dfe168160e01b815290519192506001600160a01b03831691630dfe168191600480820192602092909190829003018186803b158015620002b357600080fd5b505afa158015620002c8573d6000803e3d6000fd5b505050506040513d6020811015620002df57600080fd5b505160601b6001600160601b03191660a0526040805163d21220a760e01b815290516001600160a01b0383169163d21220a7916004808301926020929190829003018186803b1580156200033257600080fd5b505afa15801562000347573d6000803e3d6000fd5b505050506040513d60208110156200035e57600080fd5b505160601b6001600160601b03191660c05250620003809350505050565b3390565b60805160601c60a05160601c60c05160601c6113d7620003d4600039806104b3528061072f525080610307528061043d5250806106f652806107a852806109635280610a055280610a9752506113d76000f3fe608060405234801561001057600080fd5b50600436106101375760003560e01c80638da5cb5b116100b8578063d21220a71161007c578063d21220a71461027b578063d6f124f014610283578063d826f88f1461028b578063ef78d4fd14610293578063f1551aea1461029b578063f2fde38b146102ba57610137565b80638da5cb5b1461023a578063a6bb453914610242578063a8aa1b311461024a578063aeec23ed14610252578063c5700a021461025a57610137565b80635909c0d5116100ff5780635909c0d5146101e15780635a3d5493146101e95780635cb9a714146101f15780635e6aaf2c1461020e578063715018a61461023257610137565b806309bf39ed1461013c5780630dfe1681146101585780630f3a9f651461017c5780631feb21931461019b5780633ddac953146101b5575b600080fd5b6101446102e0565b604080519115158252519081900360200190f35b610160610305565b604080516001600160a01b039092168252519081900360200190f35b6101996004803603602081101561019257600080fd5b5035610329565b005b6101a36103c6565b60408051918252519081900360200190f35b6101a3600480360360408110156101cb57600080fd5b506001600160a01b0381351690602001356103cc565b6101a3610572565b6101a3610578565b6101996004803603602081101561020757600080fd5b503561057e565b61021661061b565b604080516001600160e01b039092168252519081900360200190f35b61019961062a565b6101606106d6565b6102166106e5565b6101606106f4565b610144610718565b610262610721565b6040805163ffffffff9092168252519081900360200190f35b61016061072d565b610199610751565b6101996108ff565b6101a3610ba7565b610199600480360360208110156102b157600080fd5b50351515610bad565b610199600480360360208110156102d057600080fd5b50356001600160a01b0316610c56565b6000806102eb610d58565b60065460015463ffffffff91821690920316101591505090565b7f000000000000000000000000000000000000000000000000000000000000000081565b610331610d62565b6001600160a01b03166103426106d6565b6001600160a01b03161461038b576040805162461bcd60e51b8152602060048201819052602482015260008051602061135d833981519152604482015290519081900360640190fd5b60018190556040805182815290517f6649c90b5089688430ab3e855e2eedb017ca17f6eb1aed93805dcf4996a4da7d9181900360200190a150565b60025481565b6000806103d7610d58565b60065460025460015492935063ffffffff918216840392019082161080610400575060035460ff165b61043b5760405162461bcd60e51b81526004018080602001828103825260358152602001806113026035913960400191505060405180910390fd5b7f00000000000000000000000000000000000000000000000000000000000000006001600160a01b0316856001600160a01b031614156104b15760408051602081019091526007546001600160e01b031681526104a19061049c9086610d66565b610dfc565b6001600160901b0316925061056a565b7f00000000000000000000000000000000000000000000000000000000000000006001600160a01b0316856001600160a01b031614610537576040805162461bcd60e51b815260206004820181905260248201527f556e6973776170506169724f7261636c653a20494e56414c49445f544f4b454e604482015290519081900360640190fd5b60408051602081019091526008546001600160e01b0316815261055e9061049c9086610d66565b6001600160901b031692505b505092915050565b60045481565b60055481565b610586610d62565b6001600160a01b03166105976106d6565b6001600160a01b0316146105e0576040805162461bcd60e51b8152602060048201819052602482015260008051602061135d833981519152604482015290519081900360640190fd5b60028190556040805182815290517fc4f07c802c33977425784acbb7fc1f28f19319a7e133b2afda5eaa260377dce19181900360200190a150565b6008546001600160e01b031681565b610632610d62565b6001600160a01b03166106436106d6565b6001600160a01b03161461068c576040805162461bcd60e51b8152602060048201819052602482015260008051602061135d833981519152604482015290519081900360640190fd5b600080546040516001600160a01b03909116907f8be0079c531659141344cd1fd0a4f28419497f9722a3daafe3b4186f6b6457e0908390a3600080546001600160a01b0319169055565b6000546001600160a01b031690565b6007546001600160e01b031681565b7f000000000000000000000000000000000000000000000000000000000000000081565b60035460ff1681565b60065463ffffffff1681565b7f000000000000000000000000000000000000000000000000000000000000000081565b60065463ffffffff1661079e576040805162461bcd60e51b815260206004820152601060248201526f4f7261636c65206e6f7420726561647960801b604482015290519081900360640190fd5b60008060006107cc7f0000000000000000000000000000000000000000000000000000000000000000610e03565b600654600154939650919450925063ffffffff90811683039190821610158061081457506107f8610d62565b6001600160a01b03166108096106d6565b6001600160a01b0316145b61084f5760405162461bcd60e51b815260040180806020018281038252602581526020018061137d6025913960400191505060405180910390fd5b60405180602001604052808263ffffffff1660045487038161086d57fe5b046001600160e01b039081169091529051600780546001600160e01b031916919092161790556040805160208101909152600554819063ffffffff8416908603816108b457fe5b046001600160e01b039081169091529051600880546001600160e01b03191691909216179055506004929092556005556006805463ffffffff191663ffffffff909216919091179055565b610907610d62565b6001600160a01b03166109186106d6565b6001600160a01b031614610961576040805162461bcd60e51b8152602060048201819052602482015260008051602061135d833981519152604482015290519081900360640190fd5b7f00000000000000000000000000000000000000000000000000000000000000006001600160a01b0316635909c0d56040518163ffffffff1660e01b815260040160206040518083038186803b1580156109ba57600080fd5b505afa1580156109ce573d6000803e3d6000fd5b505050506040513d60208110156109e457600080fd5b5051600490815560408051635a3d549360e01b815290516001600160a01b037f00000000000000000000000000000000000000000000000000000000000000001692635a3d549392808201926020929091829003018186803b158015610a4957600080fd5b505afa158015610a5d573d6000803e3d6000fd5b505050506040513d6020811015610a7357600080fd5b505160055560408051630240bc6b60e21b8152905160009182916001600160a01b037f00000000000000000000000000000000000000000000000000000000000000001691630902f1ac916004808301926060929190829003018186803b158015610add57600080fd5b505afa158015610af1573d6000803e3d6000fd5b505050506040513d6060811015610b0757600080fd5b50805160208201516040909201516006805463ffffffff191663ffffffff909216919091179055925090506001600160701b03821615801590610b5257506001600160701b03811615155b610ba3576040805162461bcd60e51b815260206004820152601e60248201527f556e6973776170506169724f7261636c653a204e4f5f52455345525645530000604482015290519081900360640190fd5b5050565b60015481565b610bb5610d62565b6001600160a01b0316610bc66106d6565b6001600160a01b031614610c0f576040805162461bcd60e51b8152602060048201819052602482015260008051602061135d833981519152604482015290519081900360640190fd5b6003805482151560ff19909116811790915560408051918252517fe1c5a5be777de8339dedd7c2e84c98765e03575db544edef4a1d3feb8ad1fae99181900360200190a150565b610c5e610d62565b6001600160a01b0316610c6f6106d6565b6001600160a01b031614610cb8576040805162461bcd60e51b8152602060048201819052602482015260008051602061135d833981519152604482015290519081900360640190fd5b6001600160a01b038116610cfd5760405162461bcd60e51b81526004018080602001828103825260268152602001806112dc6026913960400191505060405180910390fd5b600080546040516001600160a01b03808516939216917f8be0079c531659141344cd1fd0a4f28419497f9722a3daafe3b4186f6b6457e091a3600080546001600160a01b0319166001600160a01b0392909216919091179055565b63ffffffff421690565b3390565b610d6e6112b6565b6000821580610d9457505082516001600160e01b031682810290838281610d9157fe5b04145b610de5576040805162461bcd60e51b815260206004820152601960248201527f4669786564506f696e743a3a6d756c3a206f766572666c6f7700000000000000604482015290519081900360640190fd5b604080516020810190915290815290505b92915050565b5160701c90565b6000806000610e10610d58565b9050836001600160a01b0316635909c0d56040518163ffffffff1660e01b815260040160206040518083038186803b158015610e4b57600080fd5b505afa158015610e5f573d6000803e3d6000fd5b505050506040513d6020811015610e7557600080fd5b505160408051635a3d549360e01b815290519194506001600160a01b03861691635a3d549391600480820192602092909190829003018186803b158015610ebb57600080fd5b505afa158015610ecf573d6000803e3d6000fd5b505050506040513d6020811015610ee557600080fd5b505160408051630240bc6b60e21b81529051919350600091829182916001600160a01b03891691630902f1ac916004808301926060929190829003018186803b158015610f3157600080fd5b505afa158015610f45573d6000803e3d6000fd5b505050506040513d6060811015610f5b57600080fd5b5080516020820151604090920151909450909250905063ffffffff80821690851614610fe85780840363ffffffff8116610fa16001600160701b03808616908716610ff2565b600001516001600160e01b031602870196508063ffffffff16610fd6856001600160701b0316856001600160701b0316610ff2565b516001600160e01b0316029590950194505b5050509193909250565b610ffa6112c9565b600082116110395760405162461bcd60e51b81526004018080602001828103825260268152602001806113376026913960400191505060405180910390fd5b826110535750604080516020810190915260008152610df6565b6001600160901b0383116110ef57600082607085901b8161107057fe5b0490506001600160e01b038111156110cf576040805162461bcd60e51b815260206004820152601e60248201527f4669786564506f696e743a3a6672616374696f6e3a206f766572666c6f770000604482015290519081900360640190fd5b6040518060200160405280826001600160e01b0316815250915050610df6565b600061110084600160701b8561115e565b90506001600160e01b038111156110cf576040805162461bcd60e51b815260206004820152601e60248201527f4669786564506f696e743a3a6672616374696f6e3a206f766572666c6f770000604482015290519081900360640190fd5b600080600061116d8686611219565b915091506000848061117b57fe5b86880990508281111561118f576001820391505b9182900391816111ad578483816111a257fe5b049350505050611212565b848210611201576040805162461bcd60e51b815260206004820152601a60248201527f46756c6c4d6174683a2046554c4c4449565f4f564552464c4f57000000000000604482015290519081900360640190fd5b61120c838387611246565b93505050505b9392505050565b600080806000198486099050838502925082810391508281101561123e576001820391505b509250929050565b6000818103821680838161125657fe5b04925080858161126257fe5b04945080816000038161127157fe5b60028581038087028203028087028203028087028203028087028203028087028203028087028203029586029003909402930460010193909302939093010292915050565b6040518060200160405280600081525090565b6040805160208101909152600081529056fe4f776e61626c653a206e6577206f776e657220697320746865207a65726f2061646472657373556e6973776170506169724f7261636c653a2050524943455f49535f5354414c455f4e4545445f544f5f43414c4c5f5550444154454669786564506f696e743a3a6672616374696f6e3a206469766973696f6e206279207a65726f4f776e61626c653a2063616c6c6572206973206e6f7420746865206f776e6572556e6973776170506169724f7261636c653a20504552494f445f4e4f545f454c4150534544a2646970667358221220f25d7ef3f2f3dac8444b76ec71b96015b6d07138b31b55dbedc666200b6734b364736f6c634300060c0033",
  "devdoc": {
    "kind": "dev",
    "methods": {
      "owner()": {
        "details": "Returns the address of the current owner."
      },
      "renounceOwnership()": {
        "details": "Leaves the contract without owner. It will not be possible to call `onlyOwner` functions anymore. Can only be called by the current owner. NOTE: Renouncing ownership will leave the contract without an owner, thereby removing any functionality that is only available to the owner."
      },
      "transferOwnership(address)": {
        "details": "Transfers ownership of the contract to a new account (`newOwner`). Can only be called by the current owner."
      }
    },
    "version": 1
  },
  "userdoc": {
    "kind": "user",
    "methods": {},
    "version": 1
  },
  "storageLayout": {
    "storage": [
      {
        "astId": 1782,
        "contract": "contracts/Oracle/UniswapPairOracle.sol:UniswapPairOracle",
        "label": "_owner",
        "offset": 0,
        "slot": "0",
        "type": "t_address"
      },
      {
        "astId": 10118,
        "contract": "contracts/Oracle/UniswapPairOracle.sol:UniswapPairOracle",
        "label": "period",
        "offset": 0,
        "slot": "1",
        "type": "t_uint256"
      },
      {
        "astId": 10123,
        "contract": "contracts/Oracle/UniswapPairOracle.sol:UniswapPairOracle",
        "label": "consult_leniency",
        "offset": 0,
        "slot": "2",
        "type": "t_uint256"
      },
      {
        "astId": 10126,
        "contract": "contracts/Oracle/UniswapPairOracle.sol:UniswapPairOracle",
        "label": "allow_stale_consults",
        "offset": 0,
        "slot": "3",
        "type": "t_bool"
      },
      {
        "astId": 10134,
        "contract": "contracts/Oracle/UniswapPairOracle.sol:UniswapPairOracle",
        "label": "price0CumulativeLast",
        "offset": 0,
        "slot": "4",
        "type": "t_uint256"
      },
      {
        "astId": 10136,
        "contract": "contracts/Oracle/UniswapPairOracle.sol:UniswapPairOracle",
        "label": "price1CumulativeLast",
        "offset": 0,
        "slot": "5",
        "type": "t_uint256"
      },
      {
        "astId": 10138,
        "contract": "contracts/Oracle/UniswapPairOracle.sol:UniswapPairOracle",
        "label": "blockTimestampLast",
        "offset": 0,
        "slot": "6",
        "type": "t_uint32"
      },
      {
        "astId": 10140,
        "contract": "contracts/Oracle/UniswapPairOracle.sol:UniswapPairOracle",
        "label": "price0Average",
        "offset": 0,
        "slot": "7",
        "type": "t_struct(uq112x112)3841_storage"
      },
      {
        "astId": 10142,
        "contract": "contracts/Oracle/UniswapPairOracle.sol:UniswapPairOracle",
        "label": "price1Average",
        "offset": 0,
        "slot": "8",
        "type": "t_struct(uq112x112)3841_storage"
      }
    ],
    "types": {
      "t_address": {
        "encoding": "inplace",
        "label": "address",
        "numberOfBytes": "20"
      },
      "t_bool": {
        "encoding": "inplace",
        "label": "bool",
        "numberOfBytes": "1"
      },
      "t_struct(uq112x112)3841_storage": {
        "encoding": "inplace",
        "label": "struct FixedPoint.uq112x112",
        "members": [
          {
            "astId": 3840,
            "contract": "contracts/Oracle/UniswapPairOracle.sol:UniswapPairOracle",
            "label": "_x",
            "offset": 0,
            "slot": "0",
            "type": "t_uint224"
          }
        ],
        "numberOfBytes": "32"
      },
      "t_uint224": {
        "encoding": "inplace",
        "label": "uint224",
        "numberOfBytes": "28"
      },
      "t_uint256": {
        "encoding": "inplace",
        "label": "uint256",
        "numberOfBytes": "32"
      },
      "t_uint32": {
        "encoding": "inplace",
        "label": "uint32",
        "numberOfBytes": "4"
      }
    }
  }
}