{
  "address": "0x78B2C268ddC24a89726B2567443ba1e109D59Ef0",
  "abi": [
    {
      "inputs": [
        {
          "internalType": "address",
          "name": "_updater",
          "type": "address"
        }
      ],
      "stateMutability": "nonpayable",
      "type": "constructor"
    },
    {
      "anonymous": false,
      "inputs": [
        {
          "indexed": true,
          "internalType": "address",
          "name": "previousOwner",
          "type": "address"
        },
        {
          "indexed": true,
          "internalType": "address",
          "name": "newOwner",
          "type": "address"
        }
      ],
      "name": "OwnershipTransferred",
      "type": "event"
    },
    {
      "anonymous": false,
      "inputs": [
        {
          "indexed": true,
          "internalType": "address",
          "name": "oldUpdater",
          "type": "address"
        },
        {
          "indexed": true,
          "internalType": "address",
          "name": "newUpdater",
          "type": "address"
        }
      ],
      "name": "UpdaterChanged",
      "type": "event"
    },
    {
      "inputs": [],
      "name": "owner",
      "outputs": [
        {
          "internalType": "address",
          "name": "",
          "type": "address"
        }
      ],
      "stateMutability": "view",
      "type": "function"
    },
    {
      "inputs": [],
      "name": "renounceOwnership",
      "outputs": [],
      "stateMutability": "nonpayable",
      "type": "function"
    },
    {
      "inputs": [
        {
          "internalType": "address",
          "name": "newUpdater",
          "type": "address"
        }
      ],
      "name": "setUpdater",
      "outputs": [],
      "stateMutability": "nonpayable",
      "type": "function"
    },
    {
      "inputs": [
        {
          "internalType": "address",
          "name": "newOwner",
          "type": "address"
        }
      ],
      "name": "transferOwnership",
      "outputs": [],
      "stateMutability": "nonpayable",
      "type": "function"
    },
    {
      "inputs": [
        {
          "internalType": "address[]",
          "name": "_sovrynOracles",
          "type": "address[]"
        },
        {
          "internalType": "uint256[]",
          "name": "_sovrynPrices",
          "type": "uint256[]"
        },
        {
          "internalType": "address[]",
          "name": "_fiatOracles",
          "type": "address[]"
        },
        {
          "internalType": "uint256[]",
          "name": "_fiatPrices",
          "type": "uint256[]"
        },
        {
          "internalType": "address[]",
          "name": "_uniswapOracles",
          "type": "address[]"
        },
        {
          "internalType": "address[]",
          "name": "_BDStables",
          "type": "address[]"
        }
      ],
      "name": "update",
      "outputs": [],
      "stateMutability": "nonpayable",
      "type": "function"
    },
    {
      "inputs": [],
      "name": "updater",
      "outputs": [
        {
          "internalType": "address",
          "name": "",
          "type": "address"
        }
      ],
      "stateMutability": "view",
      "type": "function"
    }
  ],
  "transactionHash": "0x8acbf4ded2859bae511c035261b04e9a768b0b4104a6187517d71fc90ce76931",
  "args": [
    "0x9C385013670F34256450ABA0ba7bd1B36eF02326"
  ],
  "solcInputHash": "9040a08733526bdf2badda00d6bd2184",
  "bytecode": "0x608060405234801561001057600080fd5b50604051610cc3380380610cc38339818101604052602081101561003357600080fd5b5051600061003f6100ae565b600080546001600160a01b0319166001600160a01b0383169081178255604051929350917f8be0079c531659141344cd1fd0a4f28419497f9722a3daafe3b4186f6b6457e0908290a350600180546001600160a01b0319166001600160a01b03929092169190911790556100b2565b3390565b610c02806100c16000396000f3fe608060405234801561001057600080fd5b50600436106100625760003560e01c8063715018a6146100675780638da5cb5b146100715780639d54f41914610095578063d0042312146100bb578063df034cd0146103e6578063f2fde38b146103ee575b600080fd5b61006f610414565b005b6100796104d2565b604080516001600160a01b039092168252519081900360200190f35b61006f600480360360208110156100ab57600080fd5b50356001600160a01b03166104e1565b61006f600480360360c08110156100d157600080fd5b810190602081018135600160201b8111156100eb57600080fd5b8201836020820111156100fd57600080fd5b803590602001918460208302840111600160201b8311171561011e57600080fd5b9190808060200260200160405190810160405280939291908181526020018383602002808284376000920191909152509295949360208101935035915050600160201b81111561016d57600080fd5b82018360208201111561017f57600080fd5b803590602001918460208302840111600160201b831117156101a057600080fd5b9190808060200260200160405190810160405280939291908181526020018383602002808284376000920191909152509295949360208101935035915050600160201b8111156101ef57600080fd5b82018360208201111561020157600080fd5b803590602001918460208302840111600160201b8311171561022257600080fd5b9190808060200260200160405190810160405280939291908181526020018383602002808284376000920191909152509295949360208101935035915050600160201b81111561027157600080fd5b82018360208201111561028357600080fd5b803590602001918460208302840111600160201b831117156102a457600080fd5b9190808060200260200160405190810160405280939291908181526020018383602002808284376000920191909152509295949360208101935035915050600160201b8111156102f357600080fd5b82018360208201111561030557600080fd5b803590602001918460208302840111600160201b8311171561032657600080fd5b9190808060200260200160405190810160405280939291908181526020018383602002808284376000920191909152509295949360208101935035915050600160201b81111561037557600080fd5b82018360208201111561038757600080fd5b803590602001918460208302840111600160201b831117156103a857600080fd5b9190808060200260200160405190810160405280939291908181526020018383602002808284376000920191909152509295506105ee945050505050565b6100796109e8565b61006f6004803603602081101561040457600080fd5b50356001600160a01b03166109f7565b61041c610b0b565b6001600160a01b031661042d6104d2565b6001600160a01b031614610488576040805162461bcd60e51b815260206004820181905260248201527f4f776e61626c653a2063616c6c6572206973206e6f7420746865206f776e6572604482015290519081900360640190fd5b600080546040516001600160a01b03909116907f8be0079c531659141344cd1fd0a4f28419497f9722a3daafe3b4186f6b6457e0908390a3600080546001600160a01b0319169055565b6000546001600160a01b031690565b6104e9610b0b565b6001600160a01b03166104fa6104d2565b6001600160a01b031614610555576040805162461bcd60e51b815260206004820181905260248201527f4f776e61626c653a2063616c6c6572206973206e6f7420746865206f776e6572604482015290519081900360640190fd5b6001600160a01b03811661059a5760405162461bcd60e51b8152600401808060200182810382526029815260200180610b366029913960400191505060405180910390fd5b600180546001600160a01b038381166001600160a01b03198316179283905560405191811692169082907f662a4a4a892f5f13cf7ee050fdaa045f8641601fdbc843e8a71f418099cacd4e90600090a35050565b6001546001600160a01b03163314610642576040805162461bcd60e51b81526020600482015260126024820152712cb7ba93b932903737ba103ab83230ba32b960711b604482015290519081900360640190fd5b84518651146106825760405162461bcd60e51b8152600401808060200182810382526038815260200180610b956038913960400191505060405180910390fd5b82518451146106c25760405162461bcd60e51b8152600401808060200182810382526036815260200180610b5f6036913960400191505060405180910390fd5b60005b86518110156107cb5760008782815181106106dc57fe5b60200260200101519050806001600160a01b03166309bf39ed6040518163ffffffff1660e01b815260040160206040518083038186803b15801561071f57600080fd5b505afa158015610733573d6000803e3d6000fd5b505050506040513d602081101561074957600080fd5b5051156107c257806001600160a01b0316633f55dfe488848151811061076b57fe5b60200260200101516040518263ffffffff1660e01b815260040180828152602001915050600060405180830381600087803b1580156107a957600080fd5b505af11580156107bd573d6000803e3d6000fd5b505050505b506001016106c5565b5060005b845181101561086e5760008582815181106107e657fe5b60200260200101519050806001600160a01b03166391b7f5ed86848151811061080b57fe5b60200260200101516040518263ffffffff1660e01b815260040180828152602001915050600060405180830381600087803b15801561084957600080fd5b505af115801561085d573d6000803e3d6000fd5b5050600190930192506107cf915050565b5060005b825181101561095a57600083828151811061088957fe5b60200260200101519050806001600160a01b03166309bf39ed6040518163ffffffff1660e01b815260040160206040518083038186803b1580156108cc57600080fd5b505afa1580156108e0573d6000803e3d6000fd5b505050506040513d60208110156108f657600080fd5b50511561095157806001600160a01b031663d6f124f06040518163ffffffff1660e01b8152600401600060405180830381600087803b15801561093857600080fd5b505af115801561094c573d6000803e3d6000fd5b505050505b50600101610872565b5060005b81518110156109df57600082828151811061097557fe5b60200260200101519050806001600160a01b0316634013124a6040518163ffffffff1660e01b8152600401600060405180830381600087803b1580156109ba57600080fd5b505af11580156109ce573d6000803e3d6000fd5b50506001909301925061095e915050565b50505050505050565b6001546001600160a01b031681565b6109ff610b0b565b6001600160a01b0316610a106104d2565b6001600160a01b031614610a6b576040805162461bcd60e51b815260206004820181905260248201527f4f776e61626c653a2063616c6c6572206973206e6f7420746865206f776e6572604482015290519081900360640190fd5b6001600160a01b038116610ab05760405162461bcd60e51b8152600401808060200182810382526026815260200180610b106026913960400191505060405180910390fd5b600080546040516001600160a01b03808516939216917f8be0079c531659141344cd1fd0a4f28419497f9722a3daafe3b4186f6b6457e091a3600080546001600160a01b0319166001600160a01b0392909216919091179055565b339056fe4f776e61626c653a206e6577206f776e657220697320746865207a65726f2061646472657373557064617465722063616e6e6f742062652073657420746f20746865207a65726f2061646472657373456163682066696174206f7261636c652061646472657373206e656564732069747320636f72726573706f6e64696e672070726963654561636820736f7672796e206f7261636c652061646472657373206e656564732069747320636f72726573706f6e64696e67207072696365a26469706673582212209307a607e1e7301e4497ebf066ec18050f37b3a304ed982a2e240313fa260b7864736f6c634300060c0033",
  "devdoc": {
    "kind": "dev",
    "methods": {
      "owner()": {
        "details": "Returns the address of the current owner."
      },
      "renounceOwnership()": {
        "details": "Leaves the contract without owner. It will not be possible to call `onlyOwner` functions anymore. Can only be called by the current owner. NOTE: Renouncing ownership will leave the contract without an owner, thereby removing any functionality that is only available to the owner."
      },
      "transferOwnership(address)": {
        "details": "Transfers ownership of the contract to a new account (`newOwner`). Can only be called by the current owner."
      }
    },
    "version": 1
  },
  "userdoc": {
    "kind": "user",
    "methods": {},
    "version": 1
  },
  "storageLayout": {
    "storage": [
      {
        "astId": 1782,
        "contract": "contracts/Utils/Updater.sol:Updater",
        "label": "_owner",
        "offset": 0,
        "slot": "0",
        "type": "t_address"
      },
      {
        "astId": 13278,
        "contract": "contracts/Utils/Updater.sol:Updater",
        "label": "updater",
        "offset": 0,
        "slot": "1",
        "type": "t_address"
      }
    ],
    "types": {
      "t_address": {
        "encoding": "inplace",
        "label": "address",
        "numberOfBytes": "20"
      }
    }
  }
}