{
  "address": "0x1B3F942DdefB88Fbd5A32F0c80F855C18d535c94",
  "abi": [
    {
      "anonymous": false,
      "inputs": [
        {
          "indexed": false,
          "internalType": "bool",
          "name": "toggled",
          "type": "bool"
        }
      ],
      "name": "ClaimingPausedToggled",
      "type": "event"
    },
    {
      "anonymous": false,
      "inputs": [
        {
          "indexed": true,
          "internalType": "address",
          "name": "previousOwner",
          "type": "address"
        },
        {
          "indexed": true,
          "internalType": "address",
          "name": "newOwner",
          "type": "address"
        }
      ],
      "name": "OwnershipTransferred",
      "type": "event"
    },
    {
      "anonymous": false,
      "inputs": [
        {
          "indexed": false,
          "internalType": "address",
          "name": "user",
          "type": "address"
        },
        {
          "indexed": false,
          "internalType": "uint256",
          "name": "amount",
          "type": "uint256"
        }
      ],
      "name": "RewardClaimed",
      "type": "event"
    },
    {
      "anonymous": false,
      "inputs": [
        {
          "indexed": false,
          "internalType": "address",
          "name": "user",
          "type": "address"
        },
        {
          "indexed": false,
          "internalType": "uint256",
          "name": "amount",
          "type": "uint256"
        }
      ],
      "name": "ScheduleCreated",
      "type": "event"
    },
    {
      "anonymous": false,
      "inputs": [
        {
          "indexed": false,
          "internalType": "uint256",
          "name": "vestingTimeInSeconds",
          "type": "uint256"
        }
      ],
      "name": "VestingTimeInSecondsSet",
      "type": "event"
    },
    {
      "inputs": [
        {
          "internalType": "uint256",
          "name": "from",
          "type": "uint256"
        },
        {
          "internalType": "uint256",
          "name": "to",
          "type": "uint256"
        }
      ],
      "name": "claim",
      "outputs": [],
      "stateMutability": "nonpayable",
      "type": "function"
    },
    {
      "inputs": [],
      "name": "claimingPaused",
      "outputs": [
        {
          "internalType": "bool",
          "name": "",
          "type": "bool"
        }
      ],
      "stateMutability": "view",
      "type": "function"
    },
    {
      "inputs": [],
      "name": "fundsProvider",
      "outputs": [
        {
          "internalType": "address",
          "name": "",
          "type": "address"
        }
      ],
      "stateMutability": "view",
      "type": "function"
    },
    {
      "inputs": [
        {
          "components": [
            {
              "internalType": "uint256",
              "name": "vestingStartedTimeStamp",
              "type": "uint256"
            },
            {
              "internalType": "uint256",
              "name": "vestingEndTimeStamp",
              "type": "uint256"
            },
            {
              "internalType": "uint256",
              "name": "totalVestedAmount_d18",
              "type": "uint256"
            },
            {
              "internalType": "uint256",
              "name": "releasedAmount_d18",
              "type": "uint256"
            }
          ],
          "internalType": "struct Vesting.VestingSchedule",
          "name": "_schedule",
          "type": "tuple"
        }
      ],
      "name": "getAvailableReward",
      "outputs": [
        {
          "internalType": "uint256",
          "name": "",
          "type": "uint256"
        }
      ],
      "stateMutability": "view",
      "type": "function"
    },
    {
      "inputs": [
        {
          "internalType": "address",
          "name": "_vestedTokenAddress",
          "type": "address"
        },
        {
          "internalType": "address",
          "name": "_vestingScheduler",
          "type": "address"
        },
        {
          "internalType": "address",
          "name": "_fundsProvider",
          "type": "address"
        },
        {
          "internalType": "uint256",
          "name": "_vestingTimeInSeconds",
          "type": "uint256"
        }
      ],
      "name": "initialize",
      "outputs": [],
      "stateMutability": "nonpayable",
      "type": "function"
    },
    {
      "inputs": [
        {
          "components": [
            {
              "internalType": "uint256",
              "name": "vestingStartedTimeStamp",
              "type": "uint256"
            },
            {
              "internalType": "uint256",
              "name": "vestingEndTimeStamp",
              "type": "uint256"
            },
            {
              "internalType": "uint256",
              "name": "totalVestedAmount_d18",
              "type": "uint256"
            },
            {
              "internalType": "uint256",
              "name": "releasedAmount_d18",
              "type": "uint256"
            }
          ],
          "internalType": "struct Vesting.VestingSchedule",
          "name": "_schedule",
          "type": "tuple"
        }
      ],
      "name": "isFullyVested",
      "outputs": [
        {
          "internalType": "bool",
          "name": "",
          "type": "bool"
        }
      ],
      "stateMutability": "view",
      "type": "function"
    },
    {
      "inputs": [],
      "name": "owner",
      "outputs": [
        {
          "internalType": "address",
          "name": "",
          "type": "address"
        }
      ],
      "stateMutability": "view",
      "type": "function"
    },
    {
      "inputs": [],
      "name": "renounceOwnership",
      "outputs": [],
      "stateMutability": "nonpayable",
      "type": "function"
    },
    {
      "inputs": [
        {
          "internalType": "address",
          "name": "_receiver",
          "type": "address"
        },
        {
          "internalType": "uint256",
          "name": "_amount_d18",
          "type": "uint256"
        }
      ],
      "name": "schedule",
      "outputs": [],
      "stateMutability": "nonpayable",
      "type": "function"
    },
    {
      "inputs": [
        {
          "internalType": "address",
          "name": "_fundsProvider",
          "type": "address"
        }
      ],
      "name": "setFundsProvider",
      "outputs": [],
      "stateMutability": "nonpayable",
      "type": "function"
    },
    {
      "inputs": [
        {
          "internalType": "address",
          "name": "_vestingScheduler",
          "type": "address"
        }
      ],
      "name": "setVestingScheduler",
      "outputs": [],
      "stateMutability": "nonpayable",
      "type": "function"
    },
    {
      "inputs": [
        {
          "internalType": "uint256",
          "name": "_vestingTimeInSeconds",
          "type": "uint256"
        }
      ],
      "name": "setVestingTimeInSeconds",
      "outputs": [],
      "stateMutability": "nonpayable",
      "type": "function"
    },
    {
      "inputs": [],
      "name": "toggleClaimingPaused",
      "outputs": [],
      "stateMutability": "nonpayable",
      "type": "function"
    },
    {
      "inputs": [
        {
          "internalType": "address",
          "name": "newOwner",
          "type": "address"
        }
      ],
      "name": "transferOwnership",
      "outputs": [],
      "stateMutability": "nonpayable",
      "type": "function"
    },
    {
      "inputs": [
        {
          "internalType": "address",
          "name": "user",
          "type": "address"
        }
      ],
      "name": "userVestingSchedulesCount",
      "outputs": [
        {
          "internalType": "uint256",
          "name": "",
          "type": "uint256"
        }
      ],
      "stateMutability": "view",
      "type": "function"
    },
    {
      "inputs": [],
      "name": "vestedToken",
      "outputs": [
        {
          "internalType": "contract IERC20",
          "name": "",
          "type": "address"
        }
      ],
      "stateMutability": "view",
      "type": "function"
    },
    {
      "inputs": [],
      "name": "vestingScheduler",
      "outputs": [
        {
          "internalType": "address",
          "name": "",
          "type": "address"
        }
      ],
      "stateMutability": "view",
      "type": "function"
    },
    {
      "inputs": [
        {
          "internalType": "address",
          "name": "",
          "type": "address"
        },
        {
          "internalType": "uint256",
          "name": "",
          "type": "uint256"
        }
      ],
      "name": "vestingSchedules",
      "outputs": [
        {
          "internalType": "uint256",
          "name": "vestingStartedTimeStamp",
          "type": "uint256"
        },
        {
          "internalType": "uint256",
          "name": "vestingEndTimeStamp",
          "type": "uint256"
        },
        {
          "internalType": "uint256",
          "name": "totalVestedAmount_d18",
          "type": "uint256"
        },
        {
          "internalType": "uint256",
          "name": "releasedAmount_d18",
          "type": "uint256"
        }
      ],
      "stateMutability": "view",
      "type": "function"
    },
    {
      "inputs": [
        {
          "internalType": "address",
          "name": "account",
          "type": "address"
        }
      ],
      "name": "vestingSchedulesOf",
      "outputs": [
        {
          "components": [
            {
              "internalType": "uint256",
              "name": "vestingStartedTimeStamp",
              "type": "uint256"
            },
            {
              "internalType": "uint256",
              "name": "vestingEndTimeStamp",
              "type": "uint256"
            },
            {
              "internalType": "uint256",
              "name": "totalVestedAmount_d18",
              "type": "uint256"
            },
            {
              "internalType": "uint256",
              "name": "releasedAmount_d18",
              "type": "uint256"
            }
          ],
          "internalType": "struct Vesting.VestingSchedule[]",
          "name": "",
          "type": "tuple[]"
        }
      ],
      "stateMutability": "view",
      "type": "function"
    },
    {
      "inputs": [],
      "name": "vestingTimeInSeconds",
      "outputs": [
        {
          "internalType": "uint256",
          "name": "",
          "type": "uint256"
        }
      ],
      "stateMutability": "view",
      "type": "function"
    }
  ],
  "transactionHash": "0xa0def1979343a3c780b554c36b4b921f65b2d16bfea4f8de62d626fb2d6d800a",
  "args": [],
  "numDeployments": 2,
  "solcInputHash": "496ade414799cd576f8e7261b13640dd",
  "bytecode": "0x608060405234801561001057600080fd5b5061174d806100206000396000f3fe608060405234801561001057600080fd5b506004361061012c5760003560e01c80638da5cb5b116100ad578063bfa56bbd11610071578063bfa56bbd146102b2578063c3490263146102c5578063cf756fdf146102d8578063ed9f3af1146102eb578063f2fde38b146102fe57600080fd5b80638da5cb5b146102545780638f2421971461026557806397b8401114610278578063a7ee9c8a1461028c578063b84c8ce51461029f57600080fd5b80635657f52a116100f45780635657f52a146101db5780635de297411461020457806369b810c41461022f578063715018a614610239578063784b07681461024157600080fd5b806326e43da7146101315780632a73dee41461015e57806343d6bef01461017e57806345626bd61461019f578063530f702c146101d2575b600080fd5b61014961013f366004611359565b6020015142101590565b60405190151581526020015b60405180910390f35b61017161016c3660046113e9565b610311565b6040516101559190611404565b61019161018c366004611359565b6103ae565b604051908152602001610155565b6101b26101ad366004611468565b610414565b604080519485526020850193909352918301526060820152608001610155565b61019160685481565b6101916101e93660046113e9565b6001600160a01b031660009081526065602052604090205490565b606954610217906001600160a01b031681565b6040516001600160a01b039091168152602001610155565b61023761045a565b005b6102376104f3565b606754610217906001600160a01b031681565b6033546001600160a01b0316610217565b610237610273366004611492565b610529565b60695461014990600160a01b900460ff1681565b61023761029a3660046113e9565b6105de565b6102376102ad366004611468565b610699565b6102376102c03660046113e9565b610803565b6102376102d33660046114ab565b6108c1565b6102376102e63660046114cd565b610ca3565b606654610217906001600160a01b031681565b61023761030c3660046113e9565b610f12565b6001600160a01b0381166000908152606560209081526040808320805482518185028101850190935280835260609492939192909184015b828210156103a3578382906000526020600020906004020160405180608001604052908160008201548152602001600182015481526020016002820154815260200160038201548152505081526020019060010190610349565b505050509050919050565b60006103be826020015142101590565b156103dd57816060015182604001516103d7919061152e565b92915050565b606082015160685483516103f1904261152e565b84604001516104009190611545565b61040a9190611564565b6103d7919061152e565b6065602052816000526040600020818154811061043057600080fd5b60009182526020909120600490910201805460018201546002830154600390930154919450925084565b6033546001600160a01b0316331461048d5760405162461bcd60e51b815260040161048490611586565b60405180910390fd5b6069805460ff600160a01b808304821615810260ff60a01b1990931692909217928390556040517f37cb5f16ce3bd4bc25759cdea31c756c13c55f4d72d731e41c1793f6ba12ee9b936104e99390049091161515815260200190565b60405180910390a1565b6033546001600160a01b0316331461051d5760405162461bcd60e51b815260040161048490611586565b6105276000610fad565b565b6033546001600160a01b031633146105535760405162461bcd60e51b815260040161048490611586565b600081116105a35760405162461bcd60e51b815260206004820181905260248201527f56657374696e672074696d6d652063616e6e6f742062652073657420746f20306044820152606401610484565b60688190556040518181527fd010edafcc24b1d96ad4e9a61706ebefc0dd288498a3826412140c4c38337f3f9060200160405180910390a150565b6033546001600160a01b031633146106085760405162461bcd60e51b815260040161048490611586565b6001600160a01b0381166106775760405162461bcd60e51b815260206004820152603060248201527f46756e64732070726f76696465722063616e6e6f742062652073657420746f2060448201526f746865207a65726f206164647265737360801b6064820152608401610484565b606780546001600160a01b0319166001600160a01b0392909216919091179055565b6066546001600160a01b0316331461070f5760405162461bcd60e51b815260206004820152603360248201527f4f6e6c792076657374696e67207363686564756c65722063616e206372656174604482015272652076657374696e67207363686564756c657360681b6064820152608401610484565b60656000836001600160a01b03166001600160a01b0316815260200190815260200160002060405180608001604052804281526020016068544261075391906115bb565b815260208082018590526000604092830181905284546001818101875595825290829020845160049092020190815590830151938101939093558101516002830155606001516003909101556067546069546107bd916001600160a01b0391821691163084610fff565b604080516001600160a01b0384168152602081018390527f9c52cb9bbb9b7fa6ddb26d1e82afc4e62c9ec50c0f3488c10bb8ad22d4edc4c3910160405180910390a15050565b6033546001600160a01b0316331461082d5760405162461bcd60e51b815260040161048490611586565b6001600160a01b03811661089f5760405162461bcd60e51b815260206004820152603360248201527f56657374696e67207363686564756c65722063616e6e6f742062652073657420604482015272746f20746865207a65726f206164647265737360681b6064820152608401610484565b606680546001600160a01b0319166001600160a01b0392909216919091179055565b606954600160a01b900460ff16156109105760405162461bcd60e51b815260206004820152601260248201527110db185a5b5a5b99c81a5cc81c185d5cd95960721b6044820152606401610484565b8082106109705760405162461bcd60e51b815260206004820152602860248201527f56657374696e673a2027746f27206d757374206265206c6172676572207468616044820152676e202766726f6d2760c01b6064820152608401610484565b3360009081526065602052604081208054909190816109908660016115bb565b90505b8481111580156109a35750818111155b15610c4b57610a12846109b760018461152e565b815481106109c7576109c76115d3565b90600052602060002090600402016040518060800160405290816000820154815260200160018201548152602001600282015481526020016003820154815250506020015142101590565b15610b5a5783610a2360018361152e565b81548110610a3357610a336115d3565b90600052602060002090600402016003015484600183610a53919061152e565b81548110610a6357610a636115d3565b90600052602060002090600402016002015484610a8091906115bb565b610a8a919061152e565b9250610a95826115e9565b9150838281548110610aa957610aa96115d3565b906000526020600020906004020184600183610ac5919061152e565b81548110610ad557610ad56115d3565b90600052602060002090600402016000820154816000015560018201548160010155600282015481600201556003820154816003015590505083805480610b1e57610b1e611600565b6000828152602081206004600019909301928302018181556001810182905560028101829055600301559055610b53816115e9565b9050610c3b565b6000610bc185610b6b60018561152e565b81548110610b7b57610b7b6115d3565b90600052602060002090600402016040518060800160405290816000820154815260200160018201548152602001600282015481526020016003820154815250506103ae565b9050610bcd81856115bb565b93508085610bdc60018561152e565b81548110610bec57610bec6115d3565b906000526020600020906004020160030154610c0891906115bb565b85610c1460018561152e565b81548110610c2457610c246115d3565b906000526020600020906004020160030181905550505b610c4481611616565b9050610993565b50606954610c63906001600160a01b03163384611070565b60408051338152602081018490527f106f923f993c2149d49b4255ff723acafa1f2d94393f561d3eda32ae348f7241910160405180910390a15050505050565b600054610100900460ff16610cbe5760005460ff1615610cc2565b303b155b610d255760405162461bcd60e51b815260206004820152602e60248201527f496e697469616c697a61626c653a20636f6e747261637420697320616c72656160448201526d191e481a5b9a5d1a585b1a5e995960921b6064820152608401610484565b600054610100900460ff16158015610d47576000805461ffff19166101011790555b6001600160a01b038516610d9d5760405162461bcd60e51b815260206004820152601b60248201527f56657374696e6720616464726573732063616e6e6f74206265203000000000006044820152606401610484565b6001600160a01b038416610dff5760405162461bcd60e51b8152602060048201526024808201527f56657374696e675363686564756c657220616464726573732063616e6e6f74206044820152630626520360e41b6064820152608401610484565b6001600160a01b038316610e5f5760405162461bcd60e51b815260206004820152602160248201527f46756e647350726f766964657220616464726573732063616e6e6f74206265206044820152600360fc1b6064820152608401610484565b60008211610eaf5760405162461bcd60e51b815260206004820181905260248201527f56657374696e672074696d6d652063616e6e6f742062652073657420746f20306044820152606401610484565b610eb76110a5565b606980546001600160a01b038088166001600160a01b03199283161790925560668054878416908316179055606780549286169290911691909117905560688290558015610f0b576000805461ff00191690555b5050505050565b6033546001600160a01b03163314610f3c5760405162461bcd60e51b815260040161048490611586565b6001600160a01b038116610fa15760405162461bcd60e51b815260206004820152602660248201527f4f776e61626c653a206e6577206f776e657220697320746865207a65726f206160448201526564647265737360d01b6064820152608401610484565b610faa81610fad565b50565b603380546001600160a01b038381166001600160a01b0319831681179093556040519116919082907f8be0079c531659141344cd1fd0a4f28419497f9722a3daafe3b4186f6b6457e090600090a35050565b6040516001600160a01b038085166024830152831660448201526064810182905261106a9085906323b872dd60e01b906084015b60408051601f198184030181529190526020810180516001600160e01b03166001600160e01b0319909316929092179091526110d4565b50505050565b6040516001600160a01b0383166024820152604481018290526110a090849063a9059cbb60e01b90606401611033565b505050565b600054610100900460ff166110cc5760405162461bcd60e51b81526004016104849061162f565b6105276111a6565b6000611129826040518060400160405280602081526020017f5361666545524332303a206c6f772d6c6576656c2063616c6c206661696c6564815250856001600160a01b03166111d69092919063ffffffff16565b8051909150156110a05780806020019051810190611147919061167a565b6110a05760405162461bcd60e51b815260206004820152602a60248201527f5361666545524332303a204552433230206f7065726174696f6e20646964206e6044820152691bdd081cdd58d8d9595960b21b6064820152608401610484565b600054610100900460ff166111cd5760405162461bcd60e51b81526004016104849061162f565b61052733610fad565b60606111e584846000856111ef565b90505b9392505050565b6060824710156112505760405162461bcd60e51b815260206004820152602660248201527f416464726573733a20696e73756666696369656e742062616c616e636520666f6044820152651c8818d85b1b60d21b6064820152608401610484565b6001600160a01b0385163b6112a75760405162461bcd60e51b815260206004820152601d60248201527f416464726573733a2063616c6c20746f206e6f6e2d636f6e74726163740000006044820152606401610484565b600080866001600160a01b031685876040516112c391906116c8565b60006040518083038185875af1925050503d8060008114611300576040519150601f19603f3d011682016040523d82523d6000602084013e611305565b606091505b5091509150611315828286611320565b979650505050505050565b6060831561132f5750816111e8565b82511561133f5782518084602001fd5b8160405162461bcd60e51b815260040161048491906116e4565b60006080828403121561136b57600080fd5b6040516080810181811067ffffffffffffffff8211171561139c57634e487b7160e01b600052604160045260246000fd5b8060405250823581526020830135602082015260408301356040820152606083013560608201528091505092915050565b80356001600160a01b03811681146113e457600080fd5b919050565b6000602082840312156113fb57600080fd5b6111e8826113cd565b602080825282518282018190526000919060409081850190868401855b8281101561145b57815180518552868101518786015285810151868601526060908101519085015260809093019290850190600101611421565b5091979650505050505050565b6000806040838503121561147b57600080fd5b611484836113cd565b946020939093013593505050565b6000602082840312156114a457600080fd5b5035919050565b600080604083850312156114be57600080fd5b50508035926020909101359150565b600080600080608085870312156114e357600080fd5b6114ec856113cd565b93506114fa602086016113cd565b9250611508604086016113cd565b9396929550929360600135925050565b634e487b7160e01b600052601160045260246000fd5b60008282101561154057611540611518565b500390565b600081600019048311821515161561155f5761155f611518565b500290565b60008261158157634e487b7160e01b600052601260045260246000fd5b500490565b6020808252818101527f4f776e61626c653a2063616c6c6572206973206e6f7420746865206f776e6572604082015260600190565b600082198211156115ce576115ce611518565b500190565b634e487b7160e01b600052603260045260246000fd5b6000816115f8576115f8611518565b506000190190565b634e487b7160e01b600052603160045260246000fd5b60006001820161162857611628611518565b5060010190565b6020808252602b908201527f496e697469616c697a61626c653a20636f6e7472616374206973206e6f74206960408201526a6e697469616c697a696e6760a81b606082015260800190565b60006020828403121561168c57600080fd5b815180151581146111e857600080fd5b60005b838110156116b757818101518382015260200161169f565b8381111561106a5750506000910152565b600082516116da81846020870161169c565b9190910192915050565b602081526000825180602084015261170381604085016020870161169c565b601f01601f1916919091016040019291505056fea2646970667358221220a0eff4ddfc016d54303e654e7fbd675a9366b39663eae35fe2db731ac6b70b5464736f6c634300080d0033",
  "devdoc": {
    "kind": "dev",
    "methods": {
      "owner()": {
        "details": "Returns the address of the current owner."
      },
      "renounceOwnership()": {
        "details": "Leaves the contract without owner. It will not be possible to call `onlyOwner` functions anymore. Can only be called by the current owner. NOTE: Renouncing ownership will leave the contract without an owner, thereby removing any functionality that is only available to the owner."
      },
      "transferOwnership(address)": {
        "details": "Transfers ownership of the contract to a new account (`newOwner`). Can only be called by the current owner."
      }
    },
    "version": 1
  },
  "userdoc": {
    "kind": "user",
    "methods": {},
    "version": 1
  },
  "storageLayout": {
    "storage": [
      {
        "astId": 176,
        "contract": "contracts/Staking/Vesting.sol:Vesting",
        "label": "_initialized",
        "offset": 0,
        "slot": "0",
        "type": "t_bool"
      },
      {
        "astId": 179,
        "contract": "contracts/Staking/Vesting.sol:Vesting",
        "label": "_initializing",
        "offset": 1,
        "slot": "0",
        "type": "t_bool"
      },
      {
        "astId": 1578,
        "contract": "contracts/Staking/Vesting.sol:Vesting",
        "label": "__gap",
        "offset": 0,
        "slot": "1",
        "type": "t_array(t_uint256)50_storage"
      },
      {
        "astId": 56,
        "contract": "contracts/Staking/Vesting.sol:Vesting",
        "label": "_owner",
        "offset": 0,
        "slot": "51",
        "type": "t_address"
      },
      {
        "astId": 168,
        "contract": "contracts/Staking/Vesting.sol:Vesting",
        "label": "__gap",
        "offset": 0,
        "slot": "52",
        "type": "t_array(t_uint256)49_storage"
      },
      {
        "astId": 12609,
        "contract": "contracts/Staking/Vesting.sol:Vesting",
        "label": "vestingSchedules",
        "offset": 0,
        "slot": "101",
        "type": "t_mapping(t_address,t_array(t_struct(VestingSchedule)12603_storage)dyn_storage)"
      },
      {
        "astId": 12611,
        "contract": "contracts/Staking/Vesting.sol:Vesting",
        "label": "vestingScheduler",
        "offset": 0,
        "slot": "102",
        "type": "t_address"
      },
      {
        "astId": 12613,
        "contract": "contracts/Staking/Vesting.sol:Vesting",
        "label": "fundsProvider",
        "offset": 0,
        "slot": "103",
        "type": "t_address"
      },
      {
        "astId": 12615,
        "contract": "contracts/Staking/Vesting.sol:Vesting",
        "label": "vestingTimeInSeconds",
        "offset": 0,
        "slot": "104",
        "type": "t_uint256"
      },
      {
        "astId": 12618,
        "contract": "contracts/Staking/Vesting.sol:Vesting",
        "label": "vestedToken",
        "offset": 0,
        "slot": "105",
        "type": "t_contract(IERC20)2390"
      },
      {
        "astId": 12620,
        "contract": "contracts/Staking/Vesting.sol:Vesting",
        "label": "claimingPaused",
        "offset": 20,
        "slot": "105",
        "type": "t_bool"
      }
    ],
    "types": {
      "t_address": {
        "encoding": "inplace",
        "label": "address",
        "numberOfBytes": "20"
      },
      "t_array(t_struct(VestingSchedule)12603_storage)dyn_storage": {
        "base": "t_struct(VestingSchedule)12603_storage",
        "encoding": "dynamic_array",
        "label": "struct Vesting.VestingSchedule[]",
        "numberOfBytes": "32"
      },
      "t_array(t_uint256)49_storage": {
        "base": "t_uint256",
        "encoding": "inplace",
        "label": "uint256[49]",
        "numberOfBytes": "1568"
      },
      "t_array(t_uint256)50_storage": {
        "base": "t_uint256",
        "encoding": "inplace",
        "label": "uint256[50]",
        "numberOfBytes": "1600"
      },
      "t_bool": {
        "encoding": "inplace",
        "label": "bool",
        "numberOfBytes": "1"
      },
      "t_contract(IERC20)2390": {
        "encoding": "inplace",
        "label": "contract IERC20",
        "numberOfBytes": "20"
      },
      "t_mapping(t_address,t_array(t_struct(VestingSchedule)12603_storage)dyn_storage)": {
        "encoding": "mapping",
        "key": "t_address",
        "label": "mapping(address => struct Vesting.VestingSchedule[])",
        "numberOfBytes": "32",
        "value": "t_array(t_struct(VestingSchedule)12603_storage)dyn_storage"
      },
      "t_struct(VestingSchedule)12603_storage": {
        "encoding": "inplace",
        "label": "struct Vesting.VestingSchedule",
        "members": [
          {
            "astId": 12596,
            "contract": "contracts/Staking/Vesting.sol:Vesting",
            "label": "vestingStartedTimeStamp",
            "offset": 0,
            "slot": "0",
            "type": "t_uint256"
          },
          {
            "astId": 12598,
            "contract": "contracts/Staking/Vesting.sol:Vesting",
            "label": "vestingEndTimeStamp",
            "offset": 0,
            "slot": "1",
            "type": "t_uint256"
          },
          {
            "astId": 12600,
            "contract": "contracts/Staking/Vesting.sol:Vesting",
            "label": "totalVestedAmount_d18",
            "offset": 0,
            "slot": "2",
            "type": "t_uint256"
          },
          {
            "astId": 12602,
            "contract": "contracts/Staking/Vesting.sol:Vesting",
            "label": "releasedAmount_d18",
            "offset": 0,
            "slot": "3",
            "type": "t_uint256"
          }
        ],
        "numberOfBytes": "128"
      },
      "t_uint256": {
        "encoding": "inplace",
        "label": "uint256",
        "numberOfBytes": "32"
      }
    }
  }
}