{
  "address": "0xa821c9e30985c63e6a2396210118e3E6dcD6A962",
  "abi": [
    {
      "anonymous": false,
      "inputs": [
        {
          "indexed": true,
          "internalType": "address",
          "name": "previousOwner",
          "type": "address"
        },
        {
          "indexed": true,
          "internalType": "address",
          "name": "newOwner",
          "type": "address"
        }
      ],
      "name": "OwnershipTransferred",
      "type": "event"
    },
    {
      "anonymous": false,
      "inputs": [
        {
          "indexed": false,
          "internalType": "address",
          "name": "user",
          "type": "address"
        },
        {
          "indexed": false,
          "internalType": "uint256",
          "name": "amount",
          "type": "uint256"
        }
      ],
      "name": "RewardClaimed",
      "type": "event"
    },
    {
      "anonymous": false,
      "inputs": [
        {
          "indexed": false,
          "internalType": "address",
          "name": "user",
          "type": "address"
        },
        {
          "indexed": false,
          "internalType": "uint256",
          "name": "amount",
          "type": "uint256"
        }
      ],
      "name": "ScheduleCreated",
      "type": "event"
    },
    {
      "inputs": [],
      "name": "MAX_VESTING_SCHEDULES_PER_USER",
      "outputs": [
        {
          "internalType": "uint256",
          "name": "",
          "type": "uint256"
        }
      ],
      "stateMutability": "view",
      "type": "function"
    },
    {
      "inputs": [],
      "name": "claim",
      "outputs": [],
      "stateMutability": "nonpayable",
      "type": "function"
    },
    {
      "inputs": [],
      "name": "fundsProvider",
      "outputs": [
        {
          "internalType": "address",
          "name": "",
          "type": "address"
        }
      ],
      "stateMutability": "view",
      "type": "function"
    },
    {
      "inputs": [
        {
          "components": [
            {
              "internalType": "uint256",
              "name": "vestingStartedTimeStamp",
              "type": "uint256"
            },
            {
              "internalType": "uint256",
              "name": "vestingEndTimeStamp",
              "type": "uint256"
            },
            {
              "internalType": "uint256",
              "name": "totalVestedAmount_d18",
              "type": "uint256"
            },
            {
              "internalType": "uint256",
              "name": "releasedAmount_d18",
              "type": "uint256"
            }
          ],
          "internalType": "struct Vesting.VestingSchedule",
          "name": "_schedule",
          "type": "tuple"
        }
      ],
      "name": "getAvailableReward",
      "outputs": [
        {
          "internalType": "uint256",
          "name": "",
          "type": "uint256"
        }
      ],
      "stateMutability": "view",
      "type": "function"
    },
    {
      "inputs": [
        {
          "internalType": "address",
          "name": "_vestedTokenAddress",
          "type": "address"
        },
        {
          "internalType": "address",
          "name": "_vestingScheduler",
          "type": "address"
        },
        {
          "internalType": "address",
          "name": "_fundsProvider",
          "type": "address"
        },
        {
          "internalType": "uint256",
          "name": "_vestingTimeInSeconds",
          "type": "uint256"
        }
      ],
      "name": "initialize",
      "outputs": [],
      "stateMutability": "nonpayable",
      "type": "function"
    },
    {
      "inputs": [
        {
          "components": [
            {
              "internalType": "uint256",
              "name": "vestingStartedTimeStamp",
              "type": "uint256"
            },
            {
              "internalType": "uint256",
              "name": "vestingEndTimeStamp",
              "type": "uint256"
            },
            {
              "internalType": "uint256",
              "name": "totalVestedAmount_d18",
              "type": "uint256"
            },
            {
              "internalType": "uint256",
              "name": "releasedAmount_d18",
              "type": "uint256"
            }
          ],
          "internalType": "struct Vesting.VestingSchedule",
          "name": "_schedule",
          "type": "tuple"
        }
      ],
      "name": "isFullyVested",
      "outputs": [
        {
          "internalType": "bool",
          "name": "",
          "type": "bool"
        }
      ],
      "stateMutability": "view",
      "type": "function"
    },
    {
      "inputs": [],
      "name": "owner",
      "outputs": [
        {
          "internalType": "address",
          "name": "",
          "type": "address"
        }
      ],
      "stateMutability": "view",
      "type": "function"
    },
    {
      "inputs": [],
      "name": "renounceOwnership",
      "outputs": [],
      "stateMutability": "nonpayable",
      "type": "function"
    },
    {
      "inputs": [
        {
          "internalType": "address",
          "name": "_receiver",
          "type": "address"
        },
        {
          "internalType": "uint256",
          "name": "_amount_d18",
          "type": "uint256"
        }
      ],
      "name": "schedule",
      "outputs": [],
      "stateMutability": "nonpayable",
      "type": "function"
    },
    {
      "inputs": [
        {
          "internalType": "address",
          "name": "_fundsProvider",
          "type": "address"
        }
      ],
      "name": "setFundsProvider",
      "outputs": [],
      "stateMutability": "nonpayable",
      "type": "function"
    },
    {
      "inputs": [
        {
          "internalType": "address",
          "name": "_vestingScheduler",
          "type": "address"
        }
      ],
      "name": "setVestingScheduler",
      "outputs": [],
      "stateMutability": "nonpayable",
      "type": "function"
    },
    {
      "inputs": [
        {
          "internalType": "uint256",
          "name": "_vestingTimeInSeconds",
          "type": "uint256"
        }
      ],
      "name": "setVestingTimeInSeconds",
      "outputs": [],
      "stateMutability": "nonpayable",
      "type": "function"
    },
    {
      "inputs": [
        {
          "internalType": "address",
          "name": "newOwner",
          "type": "address"
        }
      ],
      "name": "transferOwnership",
      "outputs": [],
      "stateMutability": "nonpayable",
      "type": "function"
    },
    {
      "inputs": [],
      "name": "vestingScheduler",
      "outputs": [
        {
          "internalType": "address",
          "name": "",
          "type": "address"
        }
      ],
      "stateMutability": "view",
      "type": "function"
    },
    {
      "inputs": [
        {
          "internalType": "address",
          "name": "",
          "type": "address"
        },
        {
          "internalType": "uint256",
          "name": "",
          "type": "uint256"
        }
      ],
      "name": "vestingSchedules",
      "outputs": [
        {
          "internalType": "uint256",
          "name": "vestingStartedTimeStamp",
          "type": "uint256"
        },
        {
          "internalType": "uint256",
          "name": "vestingEndTimeStamp",
          "type": "uint256"
        },
        {
          "internalType": "uint256",
          "name": "totalVestedAmount_d18",
          "type": "uint256"
        },
        {
          "internalType": "uint256",
          "name": "releasedAmount_d18",
          "type": "uint256"
        }
      ],
      "stateMutability": "view",
      "type": "function"
    },
    {
      "inputs": [
        {
          "internalType": "address",
          "name": "account",
          "type": "address"
        }
      ],
      "name": "vestingSchedulesOf",
      "outputs": [
        {
          "components": [
            {
              "internalType": "uint256",
              "name": "vestingStartedTimeStamp",
              "type": "uint256"
            },
            {
              "internalType": "uint256",
              "name": "vestingEndTimeStamp",
              "type": "uint256"
            },
            {
              "internalType": "uint256",
              "name": "totalVestedAmount_d18",
              "type": "uint256"
            },
            {
              "internalType": "uint256",
              "name": "releasedAmount_d18",
              "type": "uint256"
            }
          ],
          "internalType": "struct Vesting.VestingSchedule[]",
          "name": "",
          "type": "tuple[]"
        }
      ],
      "stateMutability": "view",
      "type": "function"
    },
    {
      "inputs": [],
      "name": "vestingTimeInSeconds",
      "outputs": [
        {
          "internalType": "uint256",
          "name": "",
          "type": "uint256"
        }
      ],
      "stateMutability": "view",
      "type": "function"
    }
  ],
  "transactionHash": "0xb4108c0277cd926853815b1423c7b92fe33465d4e327b6c6fd4e6bdd30204cd2",
  "args": [],
  "solcInputHash": "964b643a9886544e5729090027eb9ffb",
  "bytecode": "0x608060405234801561001057600080fd5b50611562806100206000396000f3fe608060405234801561001057600080fd5b506004361061010b5760003560e01c80638da5cb5b116100a2578063b84c8ce511610071578063b84c8ce514610201578063bfa56bbd14610214578063cf756fdf14610227578063ed9f3af11461023a578063f2fde38b146102425761010b565b80638da5cb5b146101cb5780638f242197146101d3578063a7ee9c8a146101e6578063ab7b071d146101f95761010b565b80634e71d92d116100de5780634e71d92d1461019c578063530f702c146101a6578063715018a6146101ae578063784b0768146101b65761010b565b806326e43da7146101105780632a73dee41461013957806343d6bef01461015957806345626bd614610179575b600080fd5b61012361011e366004611030565b610255565b6040516101309190611197565b60405180910390f35b61014c610147366004610f7b565b610263565b6040516101309190611133565b61016c610167366004611030565b610300565b60405161013091906114f3565b61018c610187366004610fe6565b610387565b60405161013094939291906114fc565b6101a46103ca565b005b61016c6105ee565b6101a46105f4565b6101be610686565b60405161013091906110e2565b6101be610695565b6101a46101e1366004611091565b6106a4565b6101a46101f4366004610f7b565b610701565b61016c61075b565b6101a461020f366004610fe6565b610760565b6101a4610222366004610f7b565b6108a8565b6101a4610235366004610f96565b610902565b6101be6109f3565b6101a4610250366004610f7b565b610a02565b60208101514210155b919050565b6001600160a01b0381166000908152606560209081526040808320805482518185028101850190935280835260609492939192909184015b828210156102f557838290600052602060002090600402016040518060800160405290816000820154815260200160018201548152602001600282015481526020016003820154815250508152602001906001019061029b565b505050509050919050565b600061030b82610255565b1561033057606082015160408301516103299163ffffffff610ac316565b905061025e565b6103818260600151610375606854610369610358876000015142610ac390919063ffffffff16565b60408801519063ffffffff610aeb16565b9063ffffffff610b2c16565b9063ffffffff610ac316565b92915050565b606560205281600052604060002081815481106103a057fe5b60009182526020909120600490910201805460018201546002830154600390930154919450925084565b33600090815260656020526040812090805b82548110156105995761043a8382815481106103f457fe5b9060005260206000209060040201604051806080016040529081600082015481526020016001820154815260200160028201548152602001600382015481525050610255565b156104d35761049c61048f84838154811061045157fe5b90600052602060002090600402016003015485848154811061046f57fe5b906000526020600020906004020160020154610ac390919063ffffffff16565b839063ffffffff610b5e16565b91508281815481106104aa57fe5b600091825260208220600490910201818155600181018290556002810182905560030155610591565b600061052a8483815481106104e457fe5b9060005260206000209060040201604051806080016040529081600082015481526020016001820154815260200160028201548152602001600382015481525050610300565b905061053c838263ffffffff610b5e16565b925061056e8185848154811061054e57fe5b906000526020600020906004020160030154610b5e90919063ffffffff16565b84838154811061057a57fe5b906000526020600020906004020160030181905550505b6001016103dc565b506069546105b1906001600160a01b03163383610b83565b7f106f923f993c2149d49b4255ff723acafa1f2d94393f561d3eda32ae348f724133826040516105e29291906110f6565b60405180910390a15050565b60685481565b6105fc610c6a565b6001600160a01b031661060d610695565b6001600160a01b03161461063c5760405162461bcd60e51b81526004016106339061143c565b60405180910390fd5b6033546040516000916001600160a01b0316907f8be0079c531659141344cd1fd0a4f28419497f9722a3daafe3b4186f6b6457e0908390a3603380546001600160a01b0319169055565b6067546001600160a01b031681565b6033546001600160a01b031690565b6106ac610695565b6001600160a01b0316336001600160a01b0316146106dc5760405162461bcd60e51b8152600401610633906112a7565b600081116106fc5760405162461bcd60e51b8152600401610633906114be565b606855565b610709610695565b6001600160a01b0316336001600160a01b0316146107395760405162461bcd60e51b8152600401610633906112a7565b606780546001600160a01b0319166001600160a01b0392909216919091179055565b608081565b6066546001600160a01b0316331461078a5760405162461bcd60e51b81526004016106339061130d565b6001600160a01b0382166000908152606560205260409020546080116107c25760405162461bcd60e51b8152600401610633906113ae565b60656000836001600160a01b03166001600160a01b03168152602001908152602001600020604051806080016040528042815260200161080d60685442610b5e90919063ffffffff16565b81526020808201859052600060409283018190528454600181810187559582529082902084516004909202019081559083015193810193909355810151600283015560600151600390910155606954606754610877916001600160a01b0390811691163084610c6e565b7f9c52cb9bbb9b7fa6ddb26d1e82afc4e62c9ec50c0f3488c10bb8ad22d4edc4c382826040516105e29291906110f6565b6108b0610695565b6001600160a01b0316336001600160a01b0316146108e05760405162461bcd60e51b8152600401610633906112a7565b606680546001600160a01b0319166001600160a01b0392909216919091179055565b600054610100900460ff168061091b575061091b610d5f565b80610929575060005460ff16155b6109455760405162461bcd60e51b815260040161063390611360565b600054610100900460ff16158015610970576000805460ff1961ff0019909116610100171660011790555b600082116109905760405162461bcd60e51b8152600401610633906114be565b610998610d70565b606980546001600160a01b038088166001600160a01b031992831617909255606680548784169083161790556067805492861692909116919091179055606882905580156109ec576000805461ff00191690555b5050505050565b6066546001600160a01b031681565b610a0a610c6a565b6001600160a01b0316610a1b610695565b6001600160a01b031614610a415760405162461bcd60e51b81526004016106339061143c565b6001600160a01b038116610a675760405162461bcd60e51b8152600401610633906111a2565b6033546040516001600160a01b038084169216907f8be0079c531659141344cd1fd0a4f28419497f9722a3daafe3b4186f6b6457e090600090a3603380546001600160a01b0319166001600160a01b0392909216919091179055565b600082821115610ae55760405162461bcd60e51b815260040161063390611270565b50900390565b600082610afa57506000610381565b82820282848281610b0757fe5b0414610b255760405162461bcd60e51b8152600401610633906113fb565b9392505050565b6000808211610b4d5760405162461bcd60e51b8152600401610633906112d6565b818381610b5657fe5b049392505050565b600082820183811015610b255760405162461bcd60e51b8152600401610633906111e8565b60006060846001600160a01b031663a9059cbb8585604051602401610ba99291906110f6565b6040516020818303038152906040529060e01b6020820180516001600160e01b038381831617835250505050604051610be291906110a9565b6000604051808303816000865af19150503d8060008114610c1f576040519150601f19603f3d011682016040523d82523d6000602084013e610c24565b606091505b5091509150818015610c4e575080511580610c4e575080806020019051810190610c4e9190611010565b6109ec5760405162461bcd60e51b815260040161063390611471565b3390565b60006060856001600160a01b03166323b872dd868686604051602401610c969392919061110f565b6040516020818303038152906040529060e01b6020820180516001600160e01b038381831617835250505050604051610ccf91906110a9565b6000604051808303816000865af19150503d8060008114610d0c576040519150601f19603f3d011682016040523d82523d6000602084013e610d11565b606091505b5091509150818015610d3b575080511580610d3b575080806020019051810190610d3b9190611010565b610d575760405162461bcd60e51b81526004016106339061121f565b505050505050565b6000610d6a30610e03565b15905090565b600054610100900460ff1680610d895750610d89610d5f565b80610d97575060005460ff16155b610db35760405162461bcd60e51b815260040161063390611360565b600054610100900460ff16158015610dde576000805460ff1961ff0019909116610100171660011790555b610de6610e09565b610dee610e8a565b8015610e00576000805461ff00191690555b50565b3b151590565b600054610100900460ff1680610e225750610e22610d5f565b80610e30575060005460ff16155b610e4c5760405162461bcd60e51b815260040161063390611360565b600054610100900460ff16158015610dee576000805460ff1961ff0019909116610100171660011790558015610e00576000805461ff001916905550565b600054610100900460ff1680610ea35750610ea3610d5f565b80610eb1575060005460ff16155b610ecd5760405162461bcd60e51b815260040161063390611360565b600054610100900460ff16158015610ef8576000805460ff1961ff0019909116610100171660011790555b6000610f02610c6a565b603380546001600160a01b0319166001600160a01b038316908117909155604051919250906000907f8be0079c531659141344cd1fd0a4f28419497f9722a3daafe3b4186f6b6457e0908290a3508015610e00576000805461ff001916905550565b80356001600160a01b038116811461038157600080fd5b600060208284031215610f8c578081fd5b610b258383610f64565b60008060008060808587031215610fab578283fd5b8435610fb681611517565b93506020850135610fc681611517565b92506040850135610fd681611517565b9396929550929360600135925050565b60008060408385031215610ff8578182fd5b6110028484610f64565b946020939093013593505050565b600060208284031215611021578081fd5b81518015158114610b25578182fd5b600060808284031215611041578081fd5b6040516080810181811067ffffffffffffffff82111715611060578283fd5b8060405250823581526020830135602082015260408301356040820152606083013560608201528091505092915050565b6000602082840312156110a2578081fd5b5035919050565b60008251815b818110156110c957602081860181015185830152016110af565b818111156110d75782828501525b509190910192915050565b6001600160a01b0391909116815260200190565b6001600160a01b03929092168252602082015260400190565b6001600160a01b039384168152919092166020820152604081019190915260600190565b602080825282518282018190526000919060409081850190868401855b8281101561118a57815180518552868101518786015285810151868601526060908101519085015260809093019290850190600101611150565b5091979650505050505050565b901515815260200190565b60208082526026908201527f4f776e61626c653a206e6577206f776e657220697320746865207a65726f206160408201526564647265737360d01b606082015260800190565b6020808252601b908201527f536166654d6174683a206164646974696f6e206f766572666c6f770000000000604082015260600190565b60208082526031908201527f5472616e7366657248656c7065723a3a7472616e7366657246726f6d3a207472604082015270185b9cd9995c919c9bdb4819985a5b1959607a1b606082015260800190565b6020808252601e908201527f536166654d6174683a207375627472616374696f6e206f766572666c6f770000604082015260600190565b6020808252601590820152742cb7ba9030b932903737ba103a34329037bbb732b960591b604082015260600190565b6020808252601a908201527f536166654d6174683a206469766973696f6e206279207a65726f000000000000604082015260600190565b60208082526033908201527f4f6e6c792076657374696e67207363686564756c65722063616e206372656174604082015272652076657374696e67207363686564756c657360681b606082015260800190565b6020808252602e908201527f496e697469616c697a61626c653a20636f6e747261637420697320616c72656160408201526d191e481a5b9a5d1a585b1a5e995960921b606082015260800190565b6020808252602d908201527f4c696d697420666f722076657374696e67207363686564756c657320666f722060408201526c1d5cd95c88195e18d959591959609a1b606082015260800190565b60208082526021908201527f536166654d6174683a206d756c7469706c69636174696f6e206f766572666c6f6040820152607760f81b606082015260800190565b6020808252818101527f4f776e61626c653a2063616c6c6572206973206e6f7420746865206f776e6572604082015260600190565b6020808252602d908201527f5472616e7366657248656c7065723a3a736166655472616e736665723a20747260408201526c185b9cd9995c8819985a5b1959609a1b606082015260800190565b6020808252818101527f56657374696e672074696d6d652063616e6e6f742062652073657420746f2030604082015260600190565b90815260200190565b93845260208401929092526040830152606082015260800190565b6001600160a01b0381168114610e0057600080fdfea2646970667358221220011932ef689a1e112549b7314f86d6725fa48ebfeac546ae8aa77c587625cfa964736f6c634300060b0033",
  "devdoc": {
    "kind": "dev",
    "methods": {
      "owner()": {
        "details": "Returns the address of the current owner."
      },
      "renounceOwnership()": {
        "details": "Leaves the contract without owner. It will not be possible to call `onlyOwner` functions anymore. Can only be called by the current owner. NOTE: Renouncing ownership will leave the contract without an owner, thereby removing any functionality that is only available to the owner."
      },
      "transferOwnership(address)": {
        "details": "Transfers ownership of the contract to a new account (`newOwner`). Can only be called by the current owner."
      }
    },
    "version": 1
  },
  "userdoc": {
    "kind": "user",
    "methods": {},
    "version": 1
  },
  "storageLayout": {
    "storage": [
      {
        "astId": 492,
        "contract": "contracts/Staking/Vesting.sol:Vesting",
        "label": "_initialized",
        "offset": 0,
        "slot": "0",
        "type": "t_bool"
      },
      {
        "astId": 495,
        "contract": "contracts/Staking/Vesting.sol:Vesting",
        "label": "_initializing",
        "offset": 1,
        "slot": "0",
        "type": "t_bool"
      },
      {
        "astId": 1447,
        "contract": "contracts/Staking/Vesting.sol:Vesting",
        "label": "__gap",
        "offset": 0,
        "slot": "1",
        "type": "t_array(t_uint256)50_storage"
      },
      {
        "astId": 10,
        "contract": "contracts/Staking/Vesting.sol:Vesting",
        "label": "_owner",
        "offset": 0,
        "slot": "51",
        "type": "t_address"
      },
      {
        "astId": 129,
        "contract": "contracts/Staking/Vesting.sol:Vesting",
        "label": "__gap",
        "offset": 0,
        "slot": "52",
        "type": "t_array(t_uint256)49_storage"
      },
      {
        "astId": 11497,
        "contract": "contracts/Staking/Vesting.sol:Vesting",
        "label": "vestingSchedules",
        "offset": 0,
        "slot": "101",
        "type": "t_mapping(t_address,t_array(t_struct(VestingSchedule)11492_storage)dyn_storage)"
      },
      {
        "astId": 11499,
        "contract": "contracts/Staking/Vesting.sol:Vesting",
        "label": "vestingScheduler",
        "offset": 0,
        "slot": "102",
        "type": "t_address"
      },
      {
        "astId": 11501,
        "contract": "contracts/Staking/Vesting.sol:Vesting",
        "label": "fundsProvider",
        "offset": 0,
        "slot": "103",
        "type": "t_address"
      },
      {
        "astId": 11503,
        "contract": "contracts/Staking/Vesting.sol:Vesting",
        "label": "vestingTimeInSeconds",
        "offset": 0,
        "slot": "104",
        "type": "t_uint256"
      },
      {
        "astId": 11508,
        "contract": "contracts/Staking/Vesting.sol:Vesting",
        "label": "vestedToken",
        "offset": 0,
        "slot": "105",
        "type": "t_contract(ERC20)2529"
      }
    ],
    "types": {
      "t_address": {
        "encoding": "inplace",
        "label": "address",
        "numberOfBytes": "20"
      },
      "t_array(t_struct(VestingSchedule)11492_storage)dyn_storage": {
        "base": "t_struct(VestingSchedule)11492_storage",
        "encoding": "dynamic_array",
        "label": "struct Vesting.VestingSchedule[]",
        "numberOfBytes": "32"
      },
      "t_array(t_uint256)49_storage": {
        "base": "t_uint256",
        "encoding": "inplace",
        "label": "uint256[49]",
        "numberOfBytes": "1568"
      },
      "t_array(t_uint256)50_storage": {
        "base": "t_uint256",
        "encoding": "inplace",
        "label": "uint256[50]",
        "numberOfBytes": "1600"
      },
      "t_bool": {
        "encoding": "inplace",
        "label": "bool",
        "numberOfBytes": "1"
      },
      "t_contract(ERC20)2529": {
        "encoding": "inplace",
        "label": "contract ERC20",
        "numberOfBytes": "20"
      },
      "t_mapping(t_address,t_array(t_struct(VestingSchedule)11492_storage)dyn_storage)": {
        "encoding": "mapping",
        "key": "t_address",
        "label": "mapping(address => struct Vesting.VestingSchedule[])",
        "numberOfBytes": "32",
        "value": "t_array(t_struct(VestingSchedule)11492_storage)dyn_storage"
      },
      "t_struct(VestingSchedule)11492_storage": {
        "encoding": "inplace",
        "label": "struct Vesting.VestingSchedule",
        "members": [
          {
            "astId": 11485,
            "contract": "contracts/Staking/Vesting.sol:Vesting",
            "label": "vestingStartedTimeStamp",
            "offset": 0,
            "slot": "0",
            "type": "t_uint256"
          },
          {
            "astId": 11487,
            "contract": "contracts/Staking/Vesting.sol:Vesting",
            "label": "vestingEndTimeStamp",
            "offset": 0,
            "slot": "1",
            "type": "t_uint256"
          },
          {
            "astId": 11489,
            "contract": "contracts/Staking/Vesting.sol:Vesting",
            "label": "totalVestedAmount_d18",
            "offset": 0,
            "slot": "2",
            "type": "t_uint256"
          },
          {
            "astId": 11491,
            "contract": "contracts/Staking/Vesting.sol:Vesting",
            "label": "releasedAmount_d18",
            "offset": 0,
            "slot": "3",
            "type": "t_uint256"
          }
        ],
        "numberOfBytes": "128"
      },
      "t_uint256": {
        "encoding": "inplace",
        "label": "uint256",
        "numberOfBytes": "32"
      }
    }
  }
}