{
  "address": "0x5A2E493ae606ff9b3F02761F8E0EE40Ad6Dc0215",
  "abi": [
    {
      "inputs": [
        {
          "internalType": "address",
          "name": "_wethAddress",
          "type": "address"
        }
      ],
      "stateMutability": "nonpayable",
      "type": "constructor"
    },
    {
      "inputs": [
        {
          "internalType": "address",
          "name": "tokenIn",
          "type": "address"
        },
        {
          "internalType": "uint256",
          "name": "amountIn",
          "type": "uint256"
        }
      ],
      "name": "consult",
      "outputs": [
        {
          "internalType": "uint256",
          "name": "amountOut",
          "type": "uint256"
        }
      ],
      "stateMutability": "view",
      "type": "function"
    },
    {
      "inputs": [],
      "name": "shouldUpdateOracle",
      "outputs": [
        {
          "internalType": "bool",
          "name": "",
          "type": "bool"
        }
      ],
      "stateMutability": "view",
      "type": "function"
    },
    {
      "inputs": [],
      "name": "updateOracle",
      "outputs": [],
      "stateMutability": "nonpayable",
      "type": "function"
    },
    {
      "inputs": [],
      "name": "when_should_update_oracle_in_seconds",
      "outputs": [
        {
          "internalType": "uint256",
          "name": "",
          "type": "uint256"
        }
      ],
      "stateMutability": "view",
      "type": "function"
    }
  ],
  "transactionHash": "0xe2fc58142cc313ead934e8975b2d9147fe29cdd822291f467ef2765774ccff67",
  "args": [
    "0x967f8799af07df1534d48a95a5c9febe92c53ae0"
  ],
  "solcInputHash": "964b643a9886544e5729090027eb9ffb",
  "bytecode": "0x608060405234801561001057600080fd5b506040516101e93803806101e98339818101604052602081101561003357600080fd5b5051600080546001600160a01b039092166001600160a01b0319909216919091179055610184806100656000396000f3fe608060405234801561001057600080fd5b506004361061004c5760003560e01c806309bf39ed146100515780630ccec97a1461006d5780633ddac95314610087578063d6f124f0146100b3575b600080fd5b6100596100bd565b604080519115158252519081900360200190f35b6100756100c2565b60408051918252519081900360200190f35b6100756004803603604081101561009d57600080fd5b506001600160a01b0381351690602001356100cb565b6100bb61011e565b005b600090565b64e8d4a5100090565b600080546001600160a01b038481169116146101185760405162461bcd60e51b815260040180806020018281038252602e815260200180610121602e913960400191505060405180910390fd5b50919050565b56fe54686973206f7261636c65206f6e6c79206163636570747320636f6e73756c74696e67205745544820696e707574a26469706673582212203060295dc0b2895667b6bf63070cc0bc2e1e584cc1347c2ae08b29f89363b83964736f6c634300060b0033",
  "devdoc": {
    "kind": "dev",
    "methods": {},
    "version": 1
  },
  "userdoc": {
    "kind": "user",
    "methods": {},
    "version": 1
  },
  "storageLayout": {
    "storage": [
      {
        "astId": 9617,
        "contract": "contracts/Oracle/WethToWethOracle.sol:WethToWethOracle",
        "label": "wethAddress",
        "offset": 0,
        "slot": "0",
        "type": "t_address"
      }
    ],
    "types": {
      "t_address": {
        "encoding": "inplace",
        "label": "address",
        "numberOfBytes": "20"
      }
    }
  }
}