{
  "address": "0x899c42d8d90020a297835dE14d3Df20f52e528eA",
  "abi": [
    {
      "anonymous": false,
      "inputs": [
        {
          "indexed": true,
          "internalType": "uint256",
          "name": "bdx_amount_paid",
          "type": "uint256"
        },
        {
          "indexed": true,
          "internalType": "uint256",
          "name": "collateral_paid_back",
          "type": "uint256"
        }
      ],
      "name": "BoughtBack",
      "type": "event"
    },
    {
      "anonymous": false,
      "inputs": [
        {
          "indexed": false,
          "internalType": "bool",
          "name": "buybackOnlyForOwner",
          "type": "bool"
        }
      ],
      "name": "BuybackOnlyForOwnerToggled",
      "type": "event"
    },
    {
      "anonymous": false,
      "inputs": [
        {
          "indexed": false,
          "internalType": "bool",
          "name": "toggled",
          "type": "bool"
        }
      ],
      "name": "BuybackPausedToggled",
      "type": "event"
    },
    {
      "anonymous": false,
      "inputs": [
        {
          "indexed": false,
          "internalType": "bool",
          "name": "toggled",
          "type": "bool"
        }
      ],
      "name": "CollateralPriceToggled",
      "type": "event"
    },
    {
      "anonymous": false,
      "inputs": [
        {
          "indexed": true,
          "internalType": "address",
          "name": "collateral_weth_oracle_address",
          "type": "address"
        },
        {
          "indexed": true,
          "internalType": "address",
          "name": "weth_address",
          "type": "address"
        }
      ],
      "name": "CollateralWethOracleSet",
      "type": "event"
    },
    {
      "anonymous": false,
      "inputs": [
        {
          "indexed": false,
          "internalType": "bool",
          "name": "toggled",
          "type": "bool"
        }
      ],
      "name": "MintingPausedToggled",
      "type": "event"
    },
    {
      "anonymous": false,
      "inputs": [
        {
          "indexed": false,
          "internalType": "uint256",
          "name": "new_ceiling",
          "type": "uint256"
        },
        {
          "indexed": false,
          "internalType": "uint256",
          "name": "new_bonus_rate",
          "type": "uint256"
        },
        {
          "indexed": false,
          "internalType": "uint256",
          "name": "new_redemption_delay",
          "type": "uint256"
        },
        {
          "indexed": false,
          "internalType": "uint256",
          "name": "new_mint_fee",
          "type": "uint256"
        },
        {
          "indexed": false,
          "internalType": "uint256",
          "name": "new_redeem_fee",
          "type": "uint256"
        },
        {
          "indexed": false,
          "internalType": "uint256",
          "name": "new_buyback_fee",
          "type": "uint256"
        },
        {
          "indexed": false,
          "internalType": "uint256",
          "name": "new_recollat_fee",
          "type": "uint256"
        }
      ],
      "name": "PoolParametersSet",
      "type": "event"
    },
    {
      "anonymous": false,
      "inputs": [
        {
          "indexed": false,
          "internalType": "bool",
          "name": "recollateralizeOnlyForOwner",
          "type": "bool"
        }
      ],
      "name": "RecollateralizeOnlyForOwnerToggled",
      "type": "event"
    },
    {
      "anonymous": false,
      "inputs": [
        {
          "indexed": false,
          "internalType": "bool",
          "name": "toggled",
          "type": "bool"
        }
      ],
      "name": "RecollateralizePausedToggled",
      "type": "event"
    },
    {
      "anonymous": false,
      "inputs": [
        {
          "indexed": true,
          "internalType": "uint256",
          "name": "collateral_amount_paid",
          "type": "uint256"
        },
        {
          "indexed": true,
          "internalType": "uint256",
          "name": "bdx_paid_back",
          "type": "uint256"
        }
      ],
      "name": "Recollateralized",
      "type": "event"
    },
    {
      "anonymous": false,
      "inputs": [
        {
          "indexed": false,
          "internalType": "bool",
          "name": "toggled",
          "type": "bool"
        }
      ],
      "name": "RedeemingPausedToggled",
      "type": "event"
    },
    {
      "inputs": [],
      "name": "availableExcessCollatDV",
      "outputs": [
        {
          "internalType": "uint256",
          "name": "",
          "type": "uint256"
        }
      ],
      "stateMutability": "view",
      "type": "function"
    },
    {
      "inputs": [],
      "name": "bonus_rate",
      "outputs": [
        {
          "internalType": "uint256",
          "name": "",
          "type": "uint256"
        }
      ],
      "stateMutability": "view",
      "type": "function"
    },
    {
      "inputs": [
        {
          "internalType": "uint256",
          "name": "BDX_amount",
          "type": "uint256"
        },
        {
          "internalType": "uint256",
          "name": "COLLATERAL_out_min",
          "type": "uint256"
        }
      ],
      "name": "buyBackBDX",
      "outputs": [],
      "stateMutability": "nonpayable",
      "type": "function"
    },
    {
      "inputs": [],
      "name": "buyBackPaused",
      "outputs": [
        {
          "internalType": "bool",
          "name": "",
          "type": "bool"
        }
      ],
      "stateMutability": "view",
      "type": "function"
    },
    {
      "inputs": [],
      "name": "buybackOnlyForOwner",
      "outputs": [
        {
          "internalType": "bool",
          "name": "",
          "type": "bool"
        }
      ],
      "stateMutability": "view",
      "type": "function"
    },
    {
      "inputs": [],
      "name": "buyback_fee",
      "outputs": [
        {
          "internalType": "uint256",
          "name": "",
          "type": "uint256"
        }
      ],
      "stateMutability": "view",
      "type": "function"
    },
    {
      "inputs": [],
      "name": "collatFiatBalance",
      "outputs": [
        {
          "internalType": "uint256",
          "name": "",
          "type": "uint256"
        }
      ],
      "stateMutability": "view",
      "type": "function"
    },
    {
      "inputs": [],
      "name": "collat_weth_oracle_address",
      "outputs": [
        {
          "internalType": "address",
          "name": "",
          "type": "address"
        }
      ],
      "stateMutability": "view",
      "type": "function"
    },
    {
      "inputs": [],
      "name": "collateralPricePaused",
      "outputs": [
        {
          "internalType": "bool",
          "name": "",
          "type": "bool"
        }
      ],
      "stateMutability": "view",
      "type": "function"
    },
    {
      "inputs": [],
      "name": "collateral_token",
      "outputs": [
        {
          "internalType": "contract ERC20",
          "name": "",
          "type": "address"
        }
      ],
      "stateMutability": "view",
      "type": "function"
    },
    {
      "inputs": [],
      "name": "collectRedemption",
      "outputs": [],
      "stateMutability": "nonpayable",
      "type": "function"
    },
    {
      "inputs": [],
      "name": "getCollateralPrice_d12",
      "outputs": [
        {
          "internalType": "uint256",
          "name": "",
          "type": "uint256"
        }
      ],
      "stateMutability": "view",
      "type": "function"
    },
    {
      "inputs": [
        {
          "internalType": "uint256",
          "name": "_watned_amount_d18",
          "type": "uint256"
        }
      ],
      "name": "howMuchBdxCanBeMinted",
      "outputs": [
        {
          "internalType": "uint256",
          "name": "",
          "type": "uint256"
        }
      ],
      "stateMutability": "view",
      "type": "function"
    },
    {
      "inputs": [
        {
          "internalType": "address",
          "name": "_bdstable_contract_address",
          "type": "address"
        },
        {
          "internalType": "address",
          "name": "_bdx_contract_address",
          "type": "address"
        },
        {
          "internalType": "address",
          "name": "_collateral_address",
          "type": "address"
        },
        {
          "internalType": "address",
          "name": "_creator_address",
          "type": "address"
        }
      ],
      "name": "initialize",
      "outputs": [],
      "stateMutability": "nonpayable",
      "type": "function"
    },
    {
      "inputs": [
        {
          "internalType": "address",
          "name": "",
          "type": "address"
        }
      ],
      "name": "lastRedeemed",
      "outputs": [
        {
          "internalType": "uint256",
          "name": "",
          "type": "uint256"
        }
      ],
      "stateMutability": "view",
      "type": "function"
    },
    {
      "inputs": [
        {
          "internalType": "uint256",
          "name": "collateral_amount",
          "type": "uint256"
        },
        {
          "internalType": "uint256",
          "name": "BD_out_min",
          "type": "uint256"
        }
      ],
      "name": "mint1t1BD",
      "outputs": [],
      "stateMutability": "nonpayable",
      "type": "function"
    },
    {
      "inputs": [
        {
          "internalType": "uint256",
          "name": "bdx_amount_d18",
          "type": "uint256"
        },
        {
          "internalType": "uint256",
          "name": "bdStable_out_min",
          "type": "uint256"
        }
      ],
      "name": "mintAlgorithmicBdStable",
      "outputs": [],
      "stateMutability": "nonpayable",
      "type": "function"
    },
    {
      "inputs": [
        {
          "internalType": "uint256",
          "name": "collateral_amount",
          "type": "uint256"
        },
        {
          "internalType": "uint256",
          "name": "bdx_amount",
          "type": "uint256"
        },
        {
          "internalType": "uint256",
          "name": "bdStable_out_min",
          "type": "uint256"
        }
      ],
      "name": "mintFractionalBdStable",
      "outputs": [],
      "stateMutability": "nonpayable",
      "type": "function"
    },
    {
      "inputs": [],
      "name": "mintPaused",
      "outputs": [
        {
          "internalType": "bool",
          "name": "",
          "type": "bool"
        }
      ],
      "stateMutability": "view",
      "type": "function"
    },
    {
      "inputs": [],
      "name": "minting_fee",
      "outputs": [
        {
          "internalType": "uint256",
          "name": "",
          "type": "uint256"
        }
      ],
      "stateMutability": "view",
      "type": "function"
    },
    {
      "inputs": [],
      "name": "pausedPrice",
      "outputs": [
        {
          "internalType": "uint256",
          "name": "",
          "type": "uint256"
        }
      ],
      "stateMutability": "view",
      "type": "function"
    },
    {
      "inputs": [],
      "name": "pool_ceiling",
      "outputs": [
        {
          "internalType": "uint256",
          "name": "",
          "type": "uint256"
        }
      ],
      "stateMutability": "view",
      "type": "function"
    },
    {
      "inputs": [],
      "name": "recollat_fee",
      "outputs": [
        {
          "internalType": "uint256",
          "name": "",
          "type": "uint256"
        }
      ],
      "stateMutability": "view",
      "type": "function"
    },
    {
      "inputs": [
        {
          "internalType": "uint256",
          "name": "collateral_amount",
          "type": "uint256"
        },
        {
          "internalType": "uint256",
          "name": "BDX_out_min",
          "type": "uint256"
        }
      ],
      "name": "recollateralizeBdStable",
      "outputs": [],
      "stateMutability": "nonpayable",
      "type": "function"
    },
    {
      "inputs": [],
      "name": "recollateralizeOnlyForOwner",
      "outputs": [
        {
          "internalType": "bool",
          "name": "",
          "type": "bool"
        }
      ],
      "stateMutability": "view",
      "type": "function"
    },
    {
      "inputs": [],
      "name": "recollateralizePaused",
      "outputs": [
        {
          "internalType": "bool",
          "name": "",
          "type": "bool"
        }
      ],
      "stateMutability": "view",
      "type": "function"
    },
    {
      "inputs": [
        {
          "internalType": "uint256",
          "name": "BD_amount",
          "type": "uint256"
        },
        {
          "internalType": "uint256",
          "name": "COLLATERAL_out_min",
          "type": "uint256"
        }
      ],
      "name": "redeem1t1BD",
      "outputs": [],
      "stateMutability": "nonpayable",
      "type": "function"
    },
    {
      "inputs": [
        {
          "internalType": "uint256",
          "name": "bdStable_amount",
          "type": "uint256"
        },
        {
          "internalType": "uint256",
          "name": "bdx_out_min",
          "type": "uint256"
        }
      ],
      "name": "redeemAlgorithmicBdStable",
      "outputs": [],
      "stateMutability": "nonpayable",
      "type": "function"
    },
    {
      "inputs": [
        {
          "internalType": "address",
          "name": "",
          "type": "address"
        }
      ],
      "name": "redeemBDXBalances",
      "outputs": [
        {
          "internalType": "uint256",
          "name": "",
          "type": "uint256"
        }
      ],
      "stateMutability": "view",
      "type": "function"
    },
    {
      "inputs": [
        {
          "internalType": "address",
          "name": "",
          "type": "address"
        }
      ],
      "name": "redeemCollateralBalances",
      "outputs": [
        {
          "internalType": "uint256",
          "name": "",
          "type": "uint256"
        }
      ],
      "stateMutability": "view",
      "type": "function"
    },
    {
      "inputs": [
        {
          "internalType": "uint256",
          "name": "BdStable_amount",
          "type": "uint256"
        },
        {
          "internalType": "uint256",
          "name": "BDX_out_min",
          "type": "uint256"
        },
        {
          "internalType": "uint256",
          "name": "COLLATERAL_out_min",
          "type": "uint256"
        }
      ],
      "name": "redeemFractionalBdStable",
      "outputs": [],
      "stateMutability": "nonpayable",
      "type": "function"
    },
    {
      "inputs": [],
      "name": "redeemPaused",
      "outputs": [
        {
          "internalType": "bool",
          "name": "",
          "type": "bool"
        }
      ],
      "stateMutability": "view",
      "type": "function"
    },
    {
      "inputs": [],
      "name": "redemption_delay",
      "outputs": [
        {
          "internalType": "uint256",
          "name": "",
          "type": "uint256"
        }
      ],
      "stateMutability": "view",
      "type": "function"
    },
    {
      "inputs": [],
      "name": "redemption_fee",
      "outputs": [
        {
          "internalType": "uint256",
          "name": "",
          "type": "uint256"
        }
      ],
      "stateMutability": "view",
      "type": "function"
    },
    {
      "inputs": [
        {
          "internalType": "address",
          "name": "_collateral_weth_oracle_address",
          "type": "address"
        },
        {
          "internalType": "address",
          "name": "_weth_address",
          "type": "address"
        }
      ],
      "name": "setCollatWETHOracle",
      "outputs": [],
      "stateMutability": "nonpayable",
      "type": "function"
    },
    {
      "inputs": [
        {
          "internalType": "address",
          "name": "_owner_address",
          "type": "address"
        }
      ],
      "name": "setOwner",
      "outputs": [],
      "stateMutability": "nonpayable",
      "type": "function"
    },
    {
      "inputs": [
        {
          "internalType": "uint256",
          "name": "new_ceiling",
          "type": "uint256"
        },
        {
          "internalType": "uint256",
          "name": "new_bonus_rate",
          "type": "uint256"
        },
        {
          "internalType": "uint256",
          "name": "new_redemption_delay",
          "type": "uint256"
        },
        {
          "internalType": "uint256",
          "name": "new_mint_fee",
          "type": "uint256"
        },
        {
          "internalType": "uint256",
          "name": "new_redeem_fee",
          "type": "uint256"
        },
        {
          "internalType": "uint256",
          "name": "new_buyback_fee",
          "type": "uint256"
        },
        {
          "internalType": "uint256",
          "name": "new_recollat_fee",
          "type": "uint256"
        }
      ],
      "name": "setPoolParameters",
      "outputs": [],
      "stateMutability": "nonpayable",
      "type": "function"
    },
    {
      "inputs": [],
      "name": "toggleBuybackOnlyForOwner",
      "outputs": [],
      "stateMutability": "nonpayable",
      "type": "function"
    },
    {
      "inputs": [],
      "name": "toggleBuybackPaused",
      "outputs": [],
      "stateMutability": "nonpayable",
      "type": "function"
    },
    {
      "inputs": [
        {
          "internalType": "uint256",
          "name": "_new_price",
          "type": "uint256"
        }
      ],
      "name": "toggleCollateralPrice",
      "outputs": [],
      "stateMutability": "nonpayable",
      "type": "function"
    },
    {
      "inputs": [],
      "name": "toggleMintingPaused",
      "outputs": [],
      "stateMutability": "nonpayable",
      "type": "function"
    },
    {
      "inputs": [],
      "name": "toggleRecollateralizeOnlyForOwner",
      "outputs": [],
      "stateMutability": "nonpayable",
      "type": "function"
    },
    {
      "inputs": [],
      "name": "toggleRecollateralizePaused",
      "outputs": [],
      "stateMutability": "nonpayable",
      "type": "function"
    },
    {
      "inputs": [],
      "name": "toggleRedeemingPaused",
      "outputs": [],
      "stateMutability": "nonpayable",
      "type": "function"
    },
    {
      "inputs": [],
      "name": "unclaimedPoolBDX",
      "outputs": [
        {
          "internalType": "uint256",
          "name": "",
          "type": "uint256"
        }
      ],
      "stateMutability": "view",
      "type": "function"
    },
    {
      "inputs": [],
      "name": "unclaimedPoolCollateral",
      "outputs": [
        {
          "internalType": "uint256",
          "name": "",
          "type": "uint256"
        }
      ],
      "stateMutability": "view",
      "type": "function"
    },
    {
      "inputs": [],
      "name": "updateOraclesIfNeeded",
      "outputs": [],
      "stateMutability": "nonpayable",
      "type": "function"
    }
  ],
  "transactionHash": "0xa6e13c02383058fef7f97078a62c4dd193c7439d0a5028ca0f9b376b47b1064a",
  "args": [],
  "solcInputHash": "36185021115f3fccbe06894bb4a1b398",
  "bytecode": "0x608060405234801561001057600080fd5b50614a0a806100206000396000f3fe608060405234801561001057600080fd5b50600436106102955760003560e01c80637e4831d311610167578063c3355b8d116100ce578063cbf81dba11610087578063cbf81dba146104c4578063deeea838146104cc578063e69d3010146104d4578063f61adab2146104dc578063f8c8765e146104e4578063fede5c9c146104f757610295565b8063c3355b8d14610489578063c39e011f14610491578063c3abe07714610499578063c74ec56a146104a1578063c7afa7cf146104a9578063cb73999f146104bc57610295565b8063abae2c4c11610120578063abae2c4c14610438578063ac2ede7b1461044b578063ac6d7d6b1461045e578063b235d46814610471578063b8d5886314610479578063bbf0ce1d1461048157610295565b80637e4831d3146103f25780637f877f85146103fa5780637fbc9090146104025780638d2ac7a4146104155780639ccabfb51461041d578063a6e6aa281461042557610295565b80632efca5341161020b57806364a889fa116101c457806364a889fa146103b75780636526a12a146103bf5780636c7ff97b146103c75780636d2c5615146103cf5780637ad1f61b146103d75780637b0461e9146103ea57610295565b80632efca534146103595780633559ca801461036e57806335d8ce6d146103815780634c634934146103945780634ebbe7621461039c5780635f55504c146103af57610295565b806313af40351161025d57806313af4035146102fb578063151284251461030e5780631c309e0a146103165780631d833ca61461031e5780632621db2f1461033157806326862f9e1461034657610295565b806308a7493d1461029a5780630cecc5d6146102c35780630f4cd912146102d8578063101197c7146102eb57806312ace5a2146102f3575b600080fd5b6102ad6102a83660046140ca565b6104ff565b6040516102ba9190614952565b60405180910390f35b6102d66102d13660046141e5565b610511565b005b6102ad6102e63660046141b5565b61091f565b6102ad6109c3565b6102d66109c9565b6102d66103093660046140ca565b610bcb565b6102ad610c17565b6102d6610c1d565b6102d661032c3660046141e5565b610cad565b610339611017565b6040516102ba91906142c0565b6102d66103543660046141e5565b61102c565b610361611587565b6040516102ba9190614311565b6102d661037c3660046141e5565b611599565b6102d661038f3660046141e5565b611af6565b6102ad611db4565b6102d66103aa366004614254565b611dba565b6102d6611e54565b610339611ed2565b6102ad611ee1565b6102d6611ee7565b610361612040565b6102d66103e53660046141b5565b61204f565b6102ad612100565b610361612106565b61036161210f565b6102d6610410366004614229565b61211f565b610361612a12565b6102ad612a23565b6102d6610433366004614102565b612c37565b6102ad6104463660046140ca565b612cc9565b6102d6610459366004614229565b612cdb565b6102ad61046c3660046140ca565b61313f565b610361613151565b6102ad61315f565b6102d6613165565b6102ad6131d3565b6102d66131d9565b6102d661325e565b6102ad6132e0565b6102d66104b73660046141e5565b6132e6565b6102ad613816565b6102d661381c565b61036161389c565b6102ad6138ac565b6102ad613a02565b6102d66104f236600461413a565b613c04565b6102ad613dbc565b600c6020526000908152604090205481565b60105460ff161561053d5760405162461bcd60e51b8152600401610534906147bd565b60405180910390fd5b610545611ee7565b6000600954600a0a83029050600660009054906101000a90046001600160a01b03166001600160a01b0316634013124a6040518163ffffffff1660e01b8152600401600060405180830381600087803b1580156105a157600080fd5b505af11580156105b5573d6000803e3d6000fd5b505050506000600660009054906101000a90046001600160a01b03166001600160a01b031663fadb1b026040518163ffffffff1660e01b815260040160206040518083038186803b15801561060957600080fd5b505afa15801561061d573d6000803e3d6000fd5b505050506040513d601f19601f8201168201806040525081019061064191906141cd565b905064e8d4a510008110156106685760405162461bcd60e51b8152600401610534906143f6565b601554600d546000546040516370a0823160e01b815261071592889261070992620100009091046001600160a01b0316906370a08231906106ad9030906004016142c0565b60206040518083038186803b1580156106c557600080fd5b505afa1580156106d9573d6000803e3d6000fd5b505050506040513d601f19601f820116820180604052508101906106fd91906141cd565b9063ffffffff613dc216565b9063ffffffff613e0d16565b11156107335760405162461bcd60e51b815260040161053490614818565b60007335cDf0804550Fd34202cedfD6Eb20168CF55507D63ba8b18086107576138ac565b856040518363ffffffff1660e01b815260040161077592919061495b565b60206040518083038186803b15801561078d57600080fd5b505af41580156107a1573d6000803e3d6000fd5b505050506040513d601f19601f820116820180604052508101906107c591906141cd565b905061080664e8d4a510006107fa6107ed60115464e8d4a51000613dc290919063ffffffff16565b849063ffffffff613e3216565b9063ffffffff613e6c16565b9050808411156108285760405162461bcd60e51b8152600401610534906147e8565b6000546040516323b872dd60e01b8152620100009091046001600160a01b0316906323b872dd9061086190339030908a906004016142d4565b602060405180830381600087803b15801561087b57600080fd5b505af115801561088f573d6000803e3d6000fd5b505050506040513d601f19601f820116820180604052508101906108b39190614195565b50600654604051635a7ab59360e11b81526001600160a01b039091169063b4f56b26906108e690339085906004016142f8565b600060405180830381600087803b15801561090057600080fd5b505af1158015610914573d6000803e3d6000fd5b505050505050505050565b600080600560009054906101000a90046001600160a01b03166001600160a01b0316631dbb32906040518163ffffffff1660e01b815260040160206040518083038186803b15801561097057600080fd5b505afa158015610984573d6000803e3d6000fd5b505050506040513d601f19601f820116820180604052508101906109a891906141cd565b9050828111156109bb57829150506109be565b90505b919050565b60135481565b601854336000908152600f602052604090205443916109ee919063ffffffff613e0d16565b1115610a0c5760405162461bcd60e51b815260040161053490614504565b336000908152600b602052604081205481908190819015610a5957336000908152600b602052604081208054919055600e54909250610a51908363ffffffff613dc216565b600e55600193505b336000908152600c602052604090205415610a9e5750336000908152600c602052604081208054919055600d54610a96908263ffffffff613dc216565b600d55600192505b60018415151415610b2f5760055460405163a9059cbb60e01b81526001600160a01b039091169063a9059cbb90610adb90339086906004016142f8565b602060405180830381600087803b158015610af557600080fd5b505af1158015610b09573d6000803e3d6000fd5b505050506040513d601f19601f82011682018060405250810190610b2d9190614195565b505b60018315151415610bc55760005460405163a9059cbb60e01b8152620100009091046001600160a01b03169063a9059cbb90610b7190339085906004016142f8565b602060405180830381600087803b158015610b8b57600080fd5b505af1158015610b9f573d6000803e3d6000fd5b505050506040513d601f19601f82011682018060405250810190610bc39190614195565b505b50505050565b6002546001600160a01b03163314610bf55760405162461bcd60e51b81526004016105349061456c565b600280546001600160a01b0319166001600160a01b0392909216919091179055565b60185481565b6002546001600160a01b03163314610c475760405162461bcd60e51b81526004016105349061456c565b6010805460ff65010000000000808304821615810265ff00000000001990931692909217928390556040517f5500d28fd6f79ee96ffff9ce2f45833d5913c84f586b8a537b6c6f25df0312a393610ca393900490911690614311565b60405180910390a1565b60105460ff1615610cd05760405162461bcd60e51b8152600401610534906147bd565b610cd8611ee7565b600660009054906101000a90046001600160a01b03166001600160a01b0316634013124a6040518163ffffffff1660e01b8152600401600060405180830381600087803b158015610d2857600080fd5b505af1158015610d3c573d6000803e3d6000fd5b505050506000600660009054906101000a90046001600160a01b03166001600160a01b031663ed99250c6040518163ffffffff1660e01b815260040160206040518083038186803b158015610d9057600080fd5b505afa158015610da4573d6000803e3d6000fd5b505050506040513d601f19601f82011682018060405250810190610dc891906141cd565b9050600660009054906101000a90046001600160a01b03166001600160a01b031663fadb1b026040518163ffffffff1660e01b815260040160206040518083038186803b158015610e1857600080fd5b505afa158015610e2c573d6000803e3d6000fd5b505050506040513d601f19601f82011682018060405250810190610e5091906141cd565b15610e6d5760405162461bcd60e51b8152600401610534906148f0565b604051630810278f60e41b81526000907335cDf0804550Fd34202cedfD6Eb20168CF55507D9063810278f090610ea9908590889060040161495b565b60206040518083038186803b158015610ec157600080fd5b505af4158015610ed5573d6000803e3d6000fd5b505050506040513d601f19601f82011682018060405250810190610ef991906141cd565b9050610f2164e8d4a510006107fa6107ed60115464e8d4a51000613dc290919063ffffffff16565b905080831115610f435760405162461bcd60e51b8152600401610534906147e8565b6005546006546040516302b7c01160e01b81526001600160a01b03928316926302b7c01192610f7b92911690339089906004016142d4565b600060405180830381600087803b158015610f9557600080fd5b505af1158015610fa9573d6000803e3d6000fd5b5050600654604051635a7ab59360e11b81526001600160a01b03909116925063b4f56b269150610fdf90339085906004016142f8565b600060405180830381600087803b158015610ff957600080fd5b505af115801561100d573d6000803e3d6000fd5b5050505050505050565b6000546201000090046001600160a01b031681565b601054610100900460ff16156110545760405162461bcd60e51b8152600401610534906145d2565b61105c611ee7565b600660009054906101000a90046001600160a01b03166001600160a01b0316634013124a6040518163ffffffff1660e01b8152600401600060405180830381600087803b1580156110ac57600080fd5b505af11580156110c0573d6000803e3d6000fd5b5050505064e8d4a51000600660009054906101000a90046001600160a01b03166001600160a01b031663fadb1b026040518163ffffffff1660e01b815260040160206040518083038186803b15801561111857600080fd5b505afa15801561112c573d6000803e3d6000fd5b505050506040513d601f19601f8201168201806040525081019061115091906141cd565b1461116d5760405162461bcd60e51b815260040161053490614786565b6000611187600954600a0a84613e6c90919063ffffffff16565b905060006111936138ac565b90506000600660009054906101000a90046001600160a01b03166001600160a01b031663fa6292196040518163ffffffff1660e01b815260040160206040518083038186803b1580156111e557600080fd5b505afa1580156111f9573d6000803e3d6000fd5b505050506040513d601f19601f8201168201806040525081019061121d91906141cd565b9050600064e8d4a510008211611233578161123a565b64e8d4a510005b90506000611269846107fa64e8d4a51000818661125d8d8463ffffffff613e3216565b9063ffffffff613e3216565b905061129164e8d4a510006107fa6107ed60125464e8d4a51000613dc290919063ffffffff16565b600d546000546040516370a0823160e01b81529293506112d092620100009091046001600160a01b0316906370a08231906106ad9030906004016142c0565b8111156112ef5760405162461bcd60e51b8152600401610534906148b9565b8086111561130f5760405162461bcd60e51b8152600401610534906147e8565b600654604051631096f10360e01b81526001600160a01b0390911690631096f1039061133f9033906004016142c0565b60206040518083038186803b15801561135757600080fd5b505afa15801561136b573d6000803e3d6000fd5b505050506040513d601f19601f8201168201806040525081019061138f9190614195565b156113c957336000908152600c60205260409020546113b4908263ffffffff613e0d16565b336000908152600c60205260409020556114f2565b60006113dc82600a63ffffffff613e6c16565b905060006113f6600a6107fa85600963ffffffff613e3216565b336000908152600c6020526040902054909150611419908363ffffffff613e0d16565b336000908152600c6020908152604080832093909355600654835163a367e27d60e01b8152935192936001600160a01b039091169263a367e27d92600480840193919291829003018186803b15801561147157600080fd5b505afa158015611485573d6000803e3d6000fd5b505050506040513d601f19601f820116820180604052508101906114a991906140e6565b6001600160a01b0381166000908152600c60205260409020549091506114d5908363ffffffff613e0d16565b6001600160a01b039091166000908152600c602052604090205550505b600d54611505908263ffffffff613e0d16565b600d55336000818152600f6020526040908190204390556006549051635453bc5760e11b81526001600160a01b039091169163a8a778ae9161154c91908b906004016142f8565b600060405180830381600087803b15801561156657600080fd5b505af115801561157a573d6000803e3d6000fd5b5050505050505050505050565b60105465010000000000900460ff1681565b60105462010000900460ff16156115c25760405162461bcd60e51b81526004016105349061484d565b60105465010000000000900460ff1615611600576002546001600160a01b031633146116005760405162461bcd60e51b81526004016105349061473e565b611608611ee7565b600660009054906101000a90046001600160a01b03166001600160a01b0316634013124a6040518163ffffffff1660e01b8152600401600060405180830381600087803b15801561165857600080fd5b505af115801561166c573d6000803e3d6000fd5b505050506000600954600a0a830290506000600660009054906101000a90046001600160a01b03166001600160a01b031663ed99250c6040518163ffffffff1660e01b815260040160206040518083038186803b1580156116cc57600080fd5b505afa1580156116e0573d6000803e3d6000fd5b505050506040513d601f19601f8201168201806040525081019061170491906141cd565b90506000600660009054906101000a90046001600160a01b03166001600160a01b03166318160ddd6040518163ffffffff1660e01b815260040160206040518083038186803b15801561175657600080fd5b505afa15801561176a573d6000803e3d6000fd5b505050506040513d601f19601f8201168201806040525081019061178e91906141cd565b90506000600660009054906101000a90046001600160a01b03166001600160a01b031663fadb1b026040518163ffffffff1660e01b815260040160206040518083038186803b1580156117e057600080fd5b505afa1580156117f4573d6000803e3d6000fd5b505050506040513d601f19601f8201168201806040525081019061181891906141cd565b90506000600660009054906101000a90046001600160a01b03166001600160a01b031663d2d97b066040518163ffffffff1660e01b815260040160206040518083038186803b15801561186a57600080fd5b505afa15801561187e573d6000803e3d6000fd5b505050506040513d601f19601f820116820180604052508101906118a291906141cd565b90506000807335cDf0804550Fd34202cedfD6Eb20168CF55507D634e820a3f886118ca6138ac565b8689896040518663ffffffff1660e01b81526004016118ed959493929190614969565b604080518083038186803b15801561190457600080fd5b505af4158015611918573d6000803e3d6000fd5b505050506040513d601f19601f8201168201806040525081019061193c9190614206565b91509150600061195a600954600a0a84613e6c90919063ffffffff16565b90506000611992886107fa6119856014546106fd60175464e8d4a51000613e0d90919063ffffffff16565b869063ffffffff613e3216565b905061199d8161091f565b9050808a11156119bf5760405162461bcd60e51b8152600401610534906147e8565b6000546040516323b872dd60e01b8152620100009091046001600160a01b0316906323b872dd906119f8903390309087906004016142d4565b602060405180830381600087803b158015611a1257600080fd5b505af1158015611a26573d6000803e3d6000fd5b505050506040513d601f19601f82011682018060405250810190611a4a9190614195565b508015611abc57600554600654604051636312a30560e11b81526001600160a01b039283169263c625460a92611a8992911690339086906004016142d4565b600060405180830381600087803b158015611aa357600080fd5b505af1158015611ab7573d6000803e3d6000fd5b505050505b604051819083907fc2d7df98caa1a9bc768fc3ab167e19ae4febd5da76dad18d3387fb9fc656a37390600090a35050505050505050505050565b6010546301000000900460ff1615611b205760405162461bcd60e51b815260040161053490614927565b601054600160301b900460ff1615611b5c576002546001600160a01b03163314611b5c5760405162461bcd60e51b815260040161053490614884565b611b64611ee7565b60065460408051633b66494360e21b815290516000926001600160a01b03169163ed99250c916004808301926020929190829003018186803b158015611ba957600080fd5b505afa158015611bbd573d6000803e3d6000fd5b505050506040513d601f19601f82011682018060405250810190611be191906141cd565b9050611beb614073565b6040518060800160405280611bfe613a02565b8152602001838152602001611c116138ac565b81526020018581525090506000611c4d64e8d4a510006107fa611c4460135464e8d4a51000613dc290919063ffffffff16565b61125d86613eae565b90506000611c69600954600a0a83613e6c90919063ffffffff16565b905080851115611c8b5760405162461bcd60e51b8152600401610534906147e8565b6005546006546040516302b7c01160e01b81526001600160a01b03928316926302b7c01192611cc39291169033908b906004016142d4565b600060405180830381600087803b158015611cdd57600080fd5b505af1158015611cf1573d6000803e3d6000fd5b505060005460405163a9059cbb60e01b8152620100009091046001600160a01b0316925063a9059cbb9150611d2c90339085906004016142f8565b602060405180830381600087803b158015611d4657600080fd5b505af1158015611d5a573d6000803e3d6000fd5b505050506040513d601f19601f82011682018060405250810190611d7e9190614195565b50604051819087907f15b90a6a755d5ed0f929f1f40375d58183388d8d9e2f8e9a2efa93043e70f6de90600090a3505050505050565b60175481565b6002546001600160a01b03163314611de45760405162461bcd60e51b81526004016105349061456c565b60158790556017869055601885905560118490556012839055601382905560148190556040517f17fe98b66d27bd793ea01bd8a23a54acab8eeb167d9eb016a0c7cd71c573920c90611e4390899089908990899089908990899061498c565b60405180910390a150505050505050565b6002546001600160a01b03163314611e7e5760405162461bcd60e51b81526004016105349061456c565b6010805460ff610100808304821615810261ff001990931692909217928390556040517fd449302f806044ba9a0f0b2862e496c86cb4ef1f6b3fd474113fb26e46d9b28a93610ca393900490911690614311565b6008546001600160a01b031681565b60155481565b600660009054906101000a90046001600160a01b03166001600160a01b0316636c7ff97b6040518163ffffffff1660e01b8152600401600060405180830381600087803b158015611f3757600080fd5b505af1158015611f4b573d6000803e3d6000fd5b50505050600760009054906101000a90046001600160a01b03166001600160a01b03166309bf39ed6040518163ffffffff1660e01b815260040160206040518083038186803b158015611f9d57600080fd5b505afa158015611fb1573d6000803e3d6000fd5b505050506040513d601f19601f82011682018060405250810190611fd59190614195565b1561203e57600760009054906101000a90046001600160a01b03166001600160a01b031663d6f124f06040518163ffffffff1660e01b8152600401600060405180830381600087803b15801561202a57600080fd5b505af1158015610bc5573d6000803e3d6000fd5b565b60105462010000900460ff1681565b6002546001600160a01b031633146120795760405162461bcd60e51b81526004016105349061456c565b601054640100000000900460ff1661209557601681905561209b565b60006016555b6010805460ff640100000000808304821615810264ff000000001990931692909217928390556040517fbf1f9e6d8d67bb57a141c627f40368ec23ed7603249f0c3518c16eafbf9c4f6f936120f593900490911690614311565b60405180910390a150565b600d5481565b60105460ff1681565b6010546301000000900460ff1681565b601054610100900460ff16156121475760405162461bcd60e51b8152600401610534906145d2565b61214f611ee7565b600660009054906101000a90046001600160a01b03166001600160a01b0316634013124a6040518163ffffffff1660e01b8152600401600060405180830381600087803b15801561219f57600080fd5b505af11580156121b3573d6000803e3d6000fd5b505050506000600660009054906101000a90046001600160a01b03166001600160a01b031663fadb1b026040518163ffffffff1660e01b815260040160206040518083038186803b15801561220757600080fd5b505afa15801561221b573d6000803e3d6000fd5b505050506040513d601f19601f8201168201806040525081019061223f91906141cd565b905064e8d4a51000811080156122555750600081115b6122715760405162461bcd60e51b815260040161053490614464565b6006546040805163fa62921960e01b815290516000926001600160a01b03169163fa629219916004808301926020929190829003018186803b1580156122b657600080fd5b505afa1580156122ca573d6000803e3d6000fd5b505050506040513d601f19601f820116820180604052508101906122ee91906141cd565b905060008282106122ff5782612301565b815b9050600061233864e8d4a510006107fa61232b60125464e8d4a51000613dc290919063ffffffff16565b8a9063ffffffff613e3216565b9050600061236561235864e8d4a510006107fa858763ffffffff613e3216565b839063ffffffff613dc216565b90506000612407600660009054906101000a90046001600160a01b03166001600160a01b031663ed99250c6040518163ffffffff1660e01b815260040160206040518083038186803b1580156123ba57600080fd5b505afa1580156123ce573d6000803e3d6000fd5b505050506040513d601f19601f820116820180604052508101906123f291906141cd565b6107fa8464e8d4a5100063ffffffff613e3216565b90506124128161091f565b9050600061242e600954600a0a85613e6c90919063ffffffff16565b9050600061244b64e8d4a510006107fa848963ffffffff613e3216565b9050600061245a6123f26138ac565b600d546000546040516370a0823160e01b815292935061249992620100009091046001600160a01b0316906370a08231906106ad9030906004016142c0565b8111156124b85760405162461bcd60e51b8152600401610534906148b9565b808a11156124d85760405162461bcd60e51b8152600401610534906144c1565b838b11156124f85760405162461bcd60e51b81526004016105349061459b565b600654604051631096f10360e01b81526001600160a01b0390911690631096f103906125289033906004016142c0565b60206040518083038186803b15801561254057600080fd5b505afa158015612554573d6000803e3d6000fd5b505050506040513d601f19601f820116820180604052508101906125789190614195565b156125b257336000908152600c602052604090205461259d908263ffffffff613e0d16565b336000908152600c60205260409020556126db565b60006125c582600a63ffffffff613e6c16565b905060006125df600a6107fa85600963ffffffff613e3216565b336000908152600c6020526040902054909150612602908363ffffffff613e0d16565b336000908152600c6020908152604080832093909355600654835163a367e27d60e01b8152935192936001600160a01b039091169263a367e27d92600480840193919291829003018186803b15801561265a57600080fd5b505afa15801561266e573d6000803e3d6000fd5b505050506040513d601f19601f8201168201806040525081019061269291906140e6565b6001600160a01b0381166000908152600c60205260409020549091506126be908363ffffffff613e0d16565b6001600160a01b039091166000908152600c602052604090205550505b600d546126ee908263ffffffff613e0d16565b600d5583156128f157600654604051631096f10360e01b81526001600160a01b0390911690631096f103906127279033906004016142c0565b60206040518083038186803b15801561273f57600080fd5b505afa158015612753573d6000803e3d6000fd5b505050506040513d601f19601f820116820180604052508101906127779190614195565b156127b157336000908152600b602052604090205461279c908563ffffffff613e0d16565b336000908152600b60205260409020556128da565b60006127c485600a63ffffffff613e6c16565b905060006127de600a6107fa88600963ffffffff613e3216565b336000908152600b6020526040902054909150612801908363ffffffff613e0d16565b336000908152600b6020908152604080832093909355600654835163a367e27d60e01b8152935192936001600160a01b039091169263a367e27d92600480840193919291829003018186803b15801561285957600080fd5b505afa15801561286d573d6000803e3d6000fd5b505050506040513d601f19601f8201168201806040525081019061289191906140e6565b6001600160a01b0381166000908152600b60205260409020549091506128bd908363ffffffff613e0d16565b6001600160a01b039091166000908152600b602052604090205550505b600e546128ed908563ffffffff613e0d16565b600e555b43600f6000336001600160a01b03166001600160a01b0316815260200190815260200160002081905550600660009054906101000a90046001600160a01b03166001600160a01b031663a8a778ae338e6040518363ffffffff1660e01b815260040161295e9291906142f8565b600060405180830381600087803b15801561297857600080fd5b505af115801561298c573d6000803e3d6000fd5b505050506000841115612a0457600554600654604051636312a30560e11b81526001600160a01b039283169263c625460a926129d192911690309089906004016142d4565b600060405180830381600087803b1580156129eb57600080fd5b505af11580156129ff573d6000803e3d6000fd5b505050505b505050505050505050505050565b601054640100000000900460ff1681565b601054600090640100000000900460ff16151560011415612aa457612a9d64e8d4a510006107fa60165461125d600954600a0a61125d600d54600060029054906101000a90046001600160a01b03166001600160a01b03166370a08231306040518263ffffffff1660e01b81526004016106ad91906142c0565b9050612c34565b60065460408051632d83c63b60e11b815290516000926001600160a01b031691635b078c76916004808301926020929190829003018186803b158015612ae957600080fd5b505afa158015612afd573d6000803e3d6000fd5b505050506040513d601f19601f82011682018060405250810190612b2191906141cd565b600754600a54604051633ddac95360e01b81529293506000926001600160a01b0392831692633ddac95392612b629291169064e8d4a51000906004016142f8565b60206040518083038186803b158015612b7a57600080fd5b505afa158015612b8e573d6000803e3d6000fd5b505050506040513d601f19601f82011682018060405250810190612bb291906141cd565b90506000612bcf826107fa8564e8d4a5100063ffffffff613e3216565b9050612c2e64e8d4a510006107fa8361125d600954600a0a61125d600d54600060029054906101000a90046001600160a01b03166001600160a01b03166370a08231306040518263ffffffff1660e01b81526004016106ad91906142c0565b93505050505b90565b6002546001600160a01b03163314612c615760405162461bcd60e51b81526004016105349061456c565b600880546001600160a01b03199081166001600160a01b0385811691821790935560078054831682179055600a80549092169284169283179091556040517f856e4796eef882904bc46a505b32b16c6fbcef9e0930ac95b2f980781517bf6390600090a35050565b600f6020526000908152604090205481565b60105460ff1615612cfe5760405162461bcd60e51b8152600401610534906147bd565b612d06611ee7565b600660009054906101000a90046001600160a01b03166001600160a01b0316634013124a6040518163ffffffff1660e01b8152600401600060405180830381600087803b158015612d5657600080fd5b505af1158015612d6a573d6000803e3d6000fd5b505050506000600660009054906101000a90046001600160a01b03166001600160a01b031663ed99250c6040518163ffffffff1660e01b815260040160206040518083038186803b158015612dbe57600080fd5b505afa158015612dd2573d6000803e3d6000fd5b505050506040513d601f19601f82011682018060405250810190612df691906141cd565b90506000600660009054906101000a90046001600160a01b03166001600160a01b031663fadb1b026040518163ffffffff1660e01b815260040160206040518083038186803b158015612e4857600080fd5b505afa158015612e5c573d6000803e3d6000fd5b505050506040513d601f19601f82011682018060405250810190612e8091906141cd565b905064e8d4a5100081108015612e965750600081115b612eb25760405162461bcd60e51b815260040161053490614464565b601554600d546000546040516370a0823160e01b8152612ef792899261070992620100009091046001600160a01b0316906370a08231906106ad9030906004016142c0565b1115612f155760405162461bcd60e51b81526004016105349061468e565b600954600a0a8502612f2561409b565b6040518060a00160405280858152602001612f3e6138ac565b8152602001878152602001838152602001848152509050600080612f6183613f42565b91509150612f9864e8d4a510006107fa612f8b60115464e8d4a51000613dc290919063ffffffff16565b859063ffffffff613e3216565b915081871115612fba5760405162461bcd60e51b8152600401610534906147e8565b87811115612fda5760405162461bcd60e51b8152600401610534906143bf565b6005546006546040516302b7c01160e01b81526001600160a01b03928316926302b7c0119261301292911690339086906004016142d4565b600060405180830381600087803b15801561302c57600080fd5b505af1158015613040573d6000803e3d6000fd5b50506000546040516323b872dd60e01b8152620100009091046001600160a01b031692506323b872dd915061307d90339030908e906004016142d4565b602060405180830381600087803b15801561309757600080fd5b505af11580156130ab573d6000803e3d6000fd5b505050506040513d601f19601f820116820180604052508101906130cf9190614195565b50600654604051635a7ab59360e11b81526001600160a01b039091169063b4f56b269061310290339086906004016142f8565b600060405180830381600087803b15801561311c57600080fd5b505af1158015613130573d6000803e3d6000fd5b50505050505050505050505050565b600b6020526000908152604090205481565b601054610100900460ff1681565b600e5481565b6002546001600160a01b0316331461318f5760405162461bcd60e51b81526004016105349061456c565b6010805460ff19811660ff9182161517918290556040517f3f3c6b7e51ec0201fea018ffcf768f21f85a27593219359fd6af1d95c7e8b44192610ca3921690614311565b60115481565b6002546001600160a01b031633146132035760405162461bcd60e51b81526004016105349061456c565b6010805460ff600160301b808304821615810266ff0000000000001990931692909217928390556040517fd5bc042d6e197fb30aec38c1634dabc01e0bb517e3fea6db130cea575371224693610ca393900490911690614311565b6002546001600160a01b031633146132885760405162461bcd60e51b81526004016105349061456c565b6010805460ff6301000000808304821615810263ff0000001990931692909217928390556040517fef220f30673af554aae10180ad5ab98f41c923213a66d1207dbe61f00aa75acf93610ca393900490911690614311565b60165481565b601054610100900460ff161561330e5760405162461bcd60e51b8152600401610534906145d2565b613316611ee7565b600660009054906101000a90046001600160a01b03166001600160a01b0316634013124a6040518163ffffffff1660e01b8152600401600060405180830381600087803b15801561336657600080fd5b505af115801561337a573d6000803e3d6000fd5b505050506000600660009054906101000a90046001600160a01b03166001600160a01b031663ed99250c6040518163ffffffff1660e01b815260040160206040518083038186803b1580156133ce57600080fd5b505afa1580156133e2573d6000803e3d6000fd5b505050506040513d601f19601f8201168201806040525081019061340691906141cd565b90506000600660009054906101000a90046001600160a01b03166001600160a01b031663fadb1b026040518163ffffffff1660e01b815260040160206040518083038186803b15801561345857600080fd5b505afa15801561346c573d6000803e3d6000fd5b505050506040513d601f19601f8201168201806040525081019061349091906141cd565b905080156134b05760405162461bcd60e51b8152600401610534906148f0565b60008490506134db64e8d4a510006107fa6107ed60125464e8d4a51000613dc290919063ffffffff16565b905060006134f8846107fa8464e8d4a5100063ffffffff613e3216565b90506135038161091f565b9050801561370557600654604051631096f10360e01b81526001600160a01b0390911690631096f1039061353b9033906004016142c0565b60206040518083038186803b15801561355357600080fd5b505afa158015613567573d6000803e3d6000fd5b505050506040513d601f19601f8201168201806040525081019061358b9190614195565b156135c557336000908152600b60205260409020546135b0908263ffffffff613e0d16565b336000908152600b60205260409020556136ee565b60006135d882600a63ffffffff613e6c16565b905060006135f2600a6107fa85600963ffffffff613e3216565b336000908152600b6020526040902054909150613615908363ffffffff613e0d16565b336000908152600b6020908152604080832093909355600654835163a367e27d60e01b8152935192936001600160a01b039091169263a367e27d92600480840193919291829003018186803b15801561366d57600080fd5b505afa158015613681573d6000803e3d6000fd5b505050506040513d601f19601f820116820180604052508101906136a591906140e6565b6001600160a01b0381166000908152600b60205260409020549091506136d1908363ffffffff613e0d16565b6001600160a01b039091166000908152600b602052604090205550505b600e54613701908263ffffffff613e0d16565b600e555b336000908152600f602052604090204390558085106137365760405162461bcd60e51b8152600401610534906147e8565b600654604051635453bc5760e11b81526001600160a01b039091169063a8a778ae906137689033908a906004016142f8565b600060405180830381600087803b15801561378257600080fd5b505af1158015613796573d6000803e3d6000fd5b50505050600081111561380e57600554600654604051636312a30560e11b81526001600160a01b039283169263c625460a926137db92911690309086906004016142d4565b600060405180830381600087803b1580156137f557600080fd5b505af1158015613809573d6000803e3d6000fd5b505050505b505050505050565b60125481565b6002546001600160a01b031633146138465760405162461bcd60e51b81526004016105349061456c565b6010805460ff62010000808304821615810262ff00001990931692909217928390556040517f7e9a29a085706d1cf00b68ff18532dae53be17faa8be9bab8821c355a393656a93610ca393900490911690614311565b601054600160301b900460ff1681565b601054600090640100000000900460ff161515600114156138d05750601654612c34565b60065460408051632d83c63b60e11b815290516000926001600160a01b031691635b078c76916004808301926020929190829003018186803b15801561391557600080fd5b505afa158015613929573d6000803e3d6000fd5b505050506040513d601f19601f8201168201806040525081019061394d91906141cd565b600754600a54604051633ddac95360e01b81529293506000926001600160a01b0392831692633ddac9539261398e9291169064e8d4a51000906004016142f8565b60206040518083038186803b1580156139a657600080fd5b505afa1580156139ba573d6000803e3d6000fd5b505050506040513d601f19601f820116820180604052508101906139de91906141cd565b90506139f9816107fa8464e8d4a5100063ffffffff613e3216565b92505050612c34565b600080600660009054906101000a90046001600160a01b03166001600160a01b03166318160ddd6040518163ffffffff1660e01b815260040160206040518083038186803b158015613a5357600080fd5b505afa158015613a67573d6000803e3d6000fd5b505050506040513d601f19601f82011682018060405250810190613a8b91906141cd565b90506000600660009054906101000a90046001600160a01b03166001600160a01b031663fadb1b026040518163ffffffff1660e01b815260040160206040518083038186803b158015613add57600080fd5b505afa158015613af1573d6000803e3d6000fd5b505050506040513d601f19601f82011682018060405250810190613b1591906141cd565b90506000600660009054906101000a90046001600160a01b03166001600160a01b031663d2d97b066040518163ffffffff1660e01b815260040160206040518083038186803b158015613b6757600080fd5b505afa158015613b7b573d6000803e3d6000fd5b505050506040513d601f19601f82011682018060405250810190613b9f91906141cd565b905064e8d4a51000821115613bb75764e8d4a5100091505b6000613bd264e8d4a510006107fa868663ffffffff613e3216565b905080821115613bf757613bec828263ffffffff613dc216565b945050505050612c34565b6000945050505050612c34565b600054610100900460ff1680613c1d5750613c1d613ff9565b80613c2b575060005460ff16155b613c475760405162461bcd60e51b815260040161053490614640565b600054610100900460ff16158015613c72576000805460ff1961ff0019909116610100171660011790555b600680546001600160a01b03199081166001600160a01b03888116918217909355600580548316888516908117909155600380548416909217909155600480548316909117815560018054831687851690811790915560028054909316868516179092556000805462010000600160b01b0319166201000093840217908190556040805163313ce56760e01b81529051613d7b95949092049093169263313ce5679281810192602092909190829003018186803b158015613d3257600080fd5b505afa158015613d46573d6000803e3d6000fd5b505050506040513d601f19601f82011682018060405250810190613d6a919061429f565b60129060ff1663ffffffff613dc216565b6009556ec097ce7bc90715b34b9f100000000060155560006016556401bf08eb0060175560016018558015610bc3576000805461ff00191690555050505050565b60145481565b6000613e0483836040518060400160405280601e81526020017f536166654d6174683a207375627472616374696f6e206f766572666c6f77000081525061400a565b90505b92915050565b600082820183811015613e045760405162461bcd60e51b81526004016105349061442d565b600082613e4157506000613e07565b82820282848281613e4e57fe5b0414613e045760405162461bcd60e51b8152600401610534906146fd565b6000613e0483836040518060400160405280601a81526020017f536166654d6174683a206469766973696f6e206279207a65726f000000000000815250614036565b8051600090613ecf5760405162461bcd60e51b8152600401610534906145ff565b6000613ef564e8d4a510006107fa85602001518660600151613e3290919063ffffffff16565b8351909150811115613f195760405162461bcd60e51b81526004016105349061436f565b6040830151600090613f3a906107fa8464e8d4a5100063ffffffff613e3216565b949350505050565b600080600080613f6c64e8d4a510006107fa87600001518860400151613e3290919063ffffffff16565b9150613f9264e8d4a510006107fa87602001518860600151613e3290919063ffffffff16565b90506000613fba826106fd88608001516107fa64e8d4a5100087613e3290919063ffffffff16565b8651909150600090613fdb906107fa8464e8d4a5100063ffffffff613e3216565b9050613fed838363ffffffff613e0d16565b95509350505050915091565b60006140043061406d565b15905090565b6000818484111561402e5760405162461bcd60e51b8152600401610534919061431c565b505050900390565b600081836140575760405162461bcd60e51b8152600401610534919061431c565b50600083858161406357fe5b0495945050505050565b3b151590565b6040518060800160405280600081526020016000815260200160008152602001600081525090565b6040518060a0016040528060008152602001600081526020016000815260200160008152602001600081525090565b6000602082840312156140db578081fd5b8135613e04816149bc565b6000602082840312156140f7578081fd5b8151613e04816149bc565b60008060408385031215614114578081fd5b823561411f816149bc565b9150602083013561412f816149bc565b809150509250929050565b6000806000806080858703121561414f578182fd5b843561415a816149bc565b9350602085013561416a816149bc565b9250604085013561417a816149bc565b9150606085013561418a816149bc565b939692955090935050565b6000602082840312156141a6578081fd5b81518015158114613e04578182fd5b6000602082840312156141c6578081fd5b5035919050565b6000602082840312156141de578081fd5b5051919050565b600080604083850312156141f7578182fd5b50508035926020909101359150565b60008060408385031215614218578182fd5b505080516020909101519092909150565b60008060006060848603121561423d578283fd5b505081359360208301359350604090920135919050565b600080600080600080600060e0888a03121561426e578283fd5b505085359760208701359750604087013596606081013596506080810135955060a0810135945060c0013592509050565b6000602082840312156142b0578081fd5b815160ff81168114613e04578182fd5b6001600160a01b0391909116815260200190565b6001600160a01b039384168152919092166020820152604081019190915260600190565b6001600160a01b03929092168252602082015260400190565b901515815260200190565b6000602080835283518082850152825b818110156143485785810183015185820160400152820161432c565b818111156143595783604083870101525b50601f01601f1916929092016040019392505050565b60208082526030908201527f596f752061726520747279696e6720746f20627579206261636b206d6f72652060408201526f7468616e20746865206578636573732160801b606082015260800190565b60208082526017908201527f4e6f7420656e6f7567682042445820696e707574746564000000000000000000604082015260600190565b6020808252601d908201527f436f6c6c61746572616c20726174696f206d757374206265203e3d2031000000604082015260600190565b6020808252601b908201527f536166654d6174683a206164646974696f6e206f766572666c6f770000000000604082015260600190565b60208082526038908201527f436f6c6c61746572616c20726174696f206e6565647320746f2062652062657460408201527f7765656e202e30303030303120616e64202e3939393939390000000000000000606082015260800190565b60208082526023908201527f536c697070616765206c696d69742072656163686564205b636f6c6c61746572604082015262616c5d60e81b606082015260800190565b60208082526042908201527f4d757374207761697420666f7220726564656d7074696f6e5f64656c6179206260408201527f6c6f636b73206265666f726520636f6c6c656374696e6720726564656d70746960608201526137b760f11b608082015260a00190565b6020808252601590820152742cb7ba9030b932903737ba103a34329037bbb732b960591b604082015260600190565b6020808252601c908201527f536c697070616765206c696d69742072656163686564205b4244585d00000000604082015260600190565b60208082526013908201527214995919595b5a5b99c81a5cc81c185d5cd959606a1b604082015260600190565b60208082526021908201527f4e6f2065786365737320636f6c6c61746572616c20746f20627579206261636b6040820152602160f81b606082015260800190565b6020808252602e908201527f496e697469616c697a61626c653a20636f6e747261637420697320616c72656160408201526d191e481a5b9a5d1a585b1a5e995960921b606082015260800190565b60208082526049908201527f506f6f6c206365696c696e6720726561636865642c206e6f206d6f726520426460408201527f537461626c652063616e206265206d696e7465642077697468207468697320636060820152681bdb1b185d195c985b60ba1b608082015260a00190565b60208082526021908201527f536166654d6174683a206d756c7469706c69636174696f6e206f766572666c6f6040820152607760f81b606082015260800190565b60208082526028908201527f43757272656e746c79206f6e6c79206f776e65722063616e207265636f6c6c61604082015267746572616c697a6560c01b606082015260800190565b6020808252601d908201527f436f6c6c61746572616c20726174696f206d757374206265203d3d2031000000604082015260600190565b602080825260119082015270135a5b9d1a5b99c81a5cc81c185d5cd959607a1b604082015260600190565b60208082526016908201527514db1a5c1c1859d9481b1a5b5a5d081c995858da195960521b604082015260600190565b6020808252818101527f5b506f6f6c277320436c6f7365645d3a204365696c696e672072656163686564604082015260600190565b60208082526019908201527f5265636f6c6c61746572616c697a652069732070617573656400000000000000604082015260600190565b6020808252818101527f43757272656e746c79206f6e6c79206f776e65722063616e206275796261636b604082015260600190565b6020808252601d908201527f4e6f7420656e6f75676820636f6c6c61746572616c20696e20706f6f6c000000604082015260600190565b6020808252601a908201527f436f6c6c61746572616c20726174696f206d7573742062652030000000000000604082015260600190565b602080825260119082015270109d5e589858dac81a5cc81c185d5cd959607a1b604082015260600190565b90815260200190565b918252602082015260400190565b948552602085019390935260408401919091526060830152608082015260a00190565b968752602087019590955260408601939093526060850191909152608084015260a083015260c082015260e00190565b6001600160a01b03811681146149d157600080fd5b5056fea2646970667358221220e85c1f57887cf030a72c3ae5bb86a05317c57c4ca5982206ce0a3fa027e7720364736f6c634300060b0033",
  "deployedBytecode": "0x608060405234801561001057600080fd5b50600436106102955760003560e01c80637e4831d311610167578063c3355b8d116100ce578063cbf81dba11610087578063cbf81dba146104c4578063deeea838146104cc578063e69d3010146104d4578063f61adab2146104dc578063f8c8765e146104e4578063fede5c9c146104f757610295565b8063c3355b8d14610489578063c39e011f14610491578063c3abe07714610499578063c74ec56a146104a1578063c7afa7cf146104a9578063cb73999f146104bc57610295565b8063abae2c4c11610120578063abae2c4c14610438578063ac2ede7b1461044b578063ac6d7d6b1461045e578063b235d46814610471578063b8d5886314610479578063bbf0ce1d1461048157610295565b80637e4831d3146103f25780637f877f85146103fa5780637fbc9090146104025780638d2ac7a4146104155780639ccabfb51461041d578063a6e6aa281461042557610295565b80632efca5341161020b57806364a889fa116101c457806364a889fa146103b75780636526a12a146103bf5780636c7ff97b146103c75780636d2c5615146103cf5780637ad1f61b146103d75780637b0461e9146103ea57610295565b80632efca534146103595780633559ca801461036e57806335d8ce6d146103815780634c634934146103945780634ebbe7621461039c5780635f55504c146103af57610295565b806313af40351161025d57806313af4035146102fb578063151284251461030e5780631c309e0a146103165780631d833ca61461031e5780632621db2f1461033157806326862f9e1461034657610295565b806308a7493d1461029a5780630cecc5d6146102c35780630f4cd912146102d8578063101197c7146102eb57806312ace5a2146102f3575b600080fd5b6102ad6102a83660046140ca565b6104ff565b6040516102ba9190614952565b60405180910390f35b6102d66102d13660046141e5565b610511565b005b6102ad6102e63660046141b5565b61091f565b6102ad6109c3565b6102d66109c9565b6102d66103093660046140ca565b610bcb565b6102ad610c17565b6102d6610c1d565b6102d661032c3660046141e5565b610cad565b610339611017565b6040516102ba91906142c0565b6102d66103543660046141e5565b61102c565b610361611587565b6040516102ba9190614311565b6102d661037c3660046141e5565b611599565b6102d661038f3660046141e5565b611af6565b6102ad611db4565b6102d66103aa366004614254565b611dba565b6102d6611e54565b610339611ed2565b6102ad611ee1565b6102d6611ee7565b610361612040565b6102d66103e53660046141b5565b61204f565b6102ad612100565b610361612106565b61036161210f565b6102d6610410366004614229565b61211f565b610361612a12565b6102ad612a23565b6102d6610433366004614102565b612c37565b6102ad6104463660046140ca565b612cc9565b6102d6610459366004614229565b612cdb565b6102ad61046c3660046140ca565b61313f565b610361613151565b6102ad61315f565b6102d6613165565b6102ad6131d3565b6102d66131d9565b6102d661325e565b6102ad6132e0565b6102d66104b73660046141e5565b6132e6565b6102ad613816565b6102d661381c565b61036161389c565b6102ad6138ac565b6102ad613a02565b6102d66104f236600461413a565b613c04565b6102ad613dbc565b600c6020526000908152604090205481565b60105460ff161561053d5760405162461bcd60e51b8152600401610534906147bd565b60405180910390fd5b610545611ee7565b6000600954600a0a83029050600660009054906101000a90046001600160a01b03166001600160a01b0316634013124a6040518163ffffffff1660e01b8152600401600060405180830381600087803b1580156105a157600080fd5b505af11580156105b5573d6000803e3d6000fd5b505050506000600660009054906101000a90046001600160a01b03166001600160a01b031663fadb1b026040518163ffffffff1660e01b815260040160206040518083038186803b15801561060957600080fd5b505afa15801561061d573d6000803e3d6000fd5b505050506040513d601f19601f8201168201806040525081019061064191906141cd565b905064e8d4a510008110156106685760405162461bcd60e51b8152600401610534906143f6565b601554600d546000546040516370a0823160e01b815261071592889261070992620100009091046001600160a01b0316906370a08231906106ad9030906004016142c0565b60206040518083038186803b1580156106c557600080fd5b505afa1580156106d9573d6000803e3d6000fd5b505050506040513d601f19601f820116820180604052508101906106fd91906141cd565b9063ffffffff613dc216565b9063ffffffff613e0d16565b11156107335760405162461bcd60e51b815260040161053490614818565b600073__$2bf843f4f991f9d722eec7097e29151082$__63ba8b18086107576138ac565b856040518363ffffffff1660e01b815260040161077592919061495b565b60206040518083038186803b15801561078d57600080fd5b505af41580156107a1573d6000803e3d6000fd5b505050506040513d601f19601f820116820180604052508101906107c591906141cd565b905061080664e8d4a510006107fa6107ed60115464e8d4a51000613dc290919063ffffffff16565b849063ffffffff613e3216565b9063ffffffff613e6c16565b9050808411156108285760405162461bcd60e51b8152600401610534906147e8565b6000546040516323b872dd60e01b8152620100009091046001600160a01b0316906323b872dd9061086190339030908a906004016142d4565b602060405180830381600087803b15801561087b57600080fd5b505af115801561088f573d6000803e3d6000fd5b505050506040513d601f19601f820116820180604052508101906108b39190614195565b50600654604051635a7ab59360e11b81526001600160a01b039091169063b4f56b26906108e690339085906004016142f8565b600060405180830381600087803b15801561090057600080fd5b505af1158015610914573d6000803e3d6000fd5b505050505050505050565b600080600560009054906101000a90046001600160a01b03166001600160a01b0316631dbb32906040518163ffffffff1660e01b815260040160206040518083038186803b15801561097057600080fd5b505afa158015610984573d6000803e3d6000fd5b505050506040513d601f19601f820116820180604052508101906109a891906141cd565b9050828111156109bb57829150506109be565b90505b919050565b60135481565b601854336000908152600f602052604090205443916109ee919063ffffffff613e0d16565b1115610a0c5760405162461bcd60e51b815260040161053490614504565b336000908152600b602052604081205481908190819015610a5957336000908152600b602052604081208054919055600e54909250610a51908363ffffffff613dc216565b600e55600193505b336000908152600c602052604090205415610a9e5750336000908152600c602052604081208054919055600d54610a96908263ffffffff613dc216565b600d55600192505b60018415151415610b2f5760055460405163a9059cbb60e01b81526001600160a01b039091169063a9059cbb90610adb90339086906004016142f8565b602060405180830381600087803b158015610af557600080fd5b505af1158015610b09573d6000803e3d6000fd5b505050506040513d601f19601f82011682018060405250810190610b2d9190614195565b505b60018315151415610bc55760005460405163a9059cbb60e01b8152620100009091046001600160a01b03169063a9059cbb90610b7190339085906004016142f8565b602060405180830381600087803b158015610b8b57600080fd5b505af1158015610b9f573d6000803e3d6000fd5b505050506040513d601f19601f82011682018060405250810190610bc39190614195565b505b50505050565b6002546001600160a01b03163314610bf55760405162461bcd60e51b81526004016105349061456c565b600280546001600160a01b0319166001600160a01b0392909216919091179055565b60185481565b6002546001600160a01b03163314610c475760405162461bcd60e51b81526004016105349061456c565b6010805460ff65010000000000808304821615810265ff00000000001990931692909217928390556040517f5500d28fd6f79ee96ffff9ce2f45833d5913c84f586b8a537b6c6f25df0312a393610ca393900490911690614311565b60405180910390a1565b60105460ff1615610cd05760405162461bcd60e51b8152600401610534906147bd565b610cd8611ee7565b600660009054906101000a90046001600160a01b03166001600160a01b0316634013124a6040518163ffffffff1660e01b8152600401600060405180830381600087803b158015610d2857600080fd5b505af1158015610d3c573d6000803e3d6000fd5b505050506000600660009054906101000a90046001600160a01b03166001600160a01b031663ed99250c6040518163ffffffff1660e01b815260040160206040518083038186803b158015610d9057600080fd5b505afa158015610da4573d6000803e3d6000fd5b505050506040513d601f19601f82011682018060405250810190610dc891906141cd565b9050600660009054906101000a90046001600160a01b03166001600160a01b031663fadb1b026040518163ffffffff1660e01b815260040160206040518083038186803b158015610e1857600080fd5b505afa158015610e2c573d6000803e3d6000fd5b505050506040513d601f19601f82011682018060405250810190610e5091906141cd565b15610e6d5760405162461bcd60e51b8152600401610534906148f0565b604051630810278f60e41b815260009073__$2bf843f4f991f9d722eec7097e29151082$__9063810278f090610ea9908590889060040161495b565b60206040518083038186803b158015610ec157600080fd5b505af4158015610ed5573d6000803e3d6000fd5b505050506040513d601f19601f82011682018060405250810190610ef991906141cd565b9050610f2164e8d4a510006107fa6107ed60115464e8d4a51000613dc290919063ffffffff16565b905080831115610f435760405162461bcd60e51b8152600401610534906147e8565b6005546006546040516302b7c01160e01b81526001600160a01b03928316926302b7c01192610f7b92911690339089906004016142d4565b600060405180830381600087803b158015610f9557600080fd5b505af1158015610fa9573d6000803e3d6000fd5b5050600654604051635a7ab59360e11b81526001600160a01b03909116925063b4f56b269150610fdf90339085906004016142f8565b600060405180830381600087803b158015610ff957600080fd5b505af115801561100d573d6000803e3d6000fd5b5050505050505050565b6000546201000090046001600160a01b031681565b601054610100900460ff16156110545760405162461bcd60e51b8152600401610534906145d2565b61105c611ee7565b600660009054906101000a90046001600160a01b03166001600160a01b0316634013124a6040518163ffffffff1660e01b8152600401600060405180830381600087803b1580156110ac57600080fd5b505af11580156110c0573d6000803e3d6000fd5b5050505064e8d4a51000600660009054906101000a90046001600160a01b03166001600160a01b031663fadb1b026040518163ffffffff1660e01b815260040160206040518083038186803b15801561111857600080fd5b505afa15801561112c573d6000803e3d6000fd5b505050506040513d601f19601f8201168201806040525081019061115091906141cd565b1461116d5760405162461bcd60e51b815260040161053490614786565b6000611187600954600a0a84613e6c90919063ffffffff16565b905060006111936138ac565b90506000600660009054906101000a90046001600160a01b03166001600160a01b031663fa6292196040518163ffffffff1660e01b815260040160206040518083038186803b1580156111e557600080fd5b505afa1580156111f9573d6000803e3d6000fd5b505050506040513d601f19601f8201168201806040525081019061121d91906141cd565b9050600064e8d4a510008211611233578161123a565b64e8d4a510005b90506000611269846107fa64e8d4a51000818661125d8d8463ffffffff613e3216565b9063ffffffff613e3216565b905061129164e8d4a510006107fa6107ed60125464e8d4a51000613dc290919063ffffffff16565b600d546000546040516370a0823160e01b81529293506112d092620100009091046001600160a01b0316906370a08231906106ad9030906004016142c0565b8111156112ef5760405162461bcd60e51b8152600401610534906148b9565b8086111561130f5760405162461bcd60e51b8152600401610534906147e8565b600654604051631096f10360e01b81526001600160a01b0390911690631096f1039061133f9033906004016142c0565b60206040518083038186803b15801561135757600080fd5b505afa15801561136b573d6000803e3d6000fd5b505050506040513d601f19601f8201168201806040525081019061138f9190614195565b156113c957336000908152600c60205260409020546113b4908263ffffffff613e0d16565b336000908152600c60205260409020556114f2565b60006113dc82600a63ffffffff613e6c16565b905060006113f6600a6107fa85600963ffffffff613e3216565b336000908152600c6020526040902054909150611419908363ffffffff613e0d16565b336000908152600c6020908152604080832093909355600654835163a367e27d60e01b8152935192936001600160a01b039091169263a367e27d92600480840193919291829003018186803b15801561147157600080fd5b505afa158015611485573d6000803e3d6000fd5b505050506040513d601f19601f820116820180604052508101906114a991906140e6565b6001600160a01b0381166000908152600c60205260409020549091506114d5908363ffffffff613e0d16565b6001600160a01b039091166000908152600c602052604090205550505b600d54611505908263ffffffff613e0d16565b600d55336000818152600f6020526040908190204390556006549051635453bc5760e11b81526001600160a01b039091169163a8a778ae9161154c91908b906004016142f8565b600060405180830381600087803b15801561156657600080fd5b505af115801561157a573d6000803e3d6000fd5b5050505050505050505050565b60105465010000000000900460ff1681565b60105462010000900460ff16156115c25760405162461bcd60e51b81526004016105349061484d565b60105465010000000000900460ff1615611600576002546001600160a01b031633146116005760405162461bcd60e51b81526004016105349061473e565b611608611ee7565b600660009054906101000a90046001600160a01b03166001600160a01b0316634013124a6040518163ffffffff1660e01b8152600401600060405180830381600087803b15801561165857600080fd5b505af115801561166c573d6000803e3d6000fd5b505050506000600954600a0a830290506000600660009054906101000a90046001600160a01b03166001600160a01b031663ed99250c6040518163ffffffff1660e01b815260040160206040518083038186803b1580156116cc57600080fd5b505afa1580156116e0573d6000803e3d6000fd5b505050506040513d601f19601f8201168201806040525081019061170491906141cd565b90506000600660009054906101000a90046001600160a01b03166001600160a01b03166318160ddd6040518163ffffffff1660e01b815260040160206040518083038186803b15801561175657600080fd5b505afa15801561176a573d6000803e3d6000fd5b505050506040513d601f19601f8201168201806040525081019061178e91906141cd565b90506000600660009054906101000a90046001600160a01b03166001600160a01b031663fadb1b026040518163ffffffff1660e01b815260040160206040518083038186803b1580156117e057600080fd5b505afa1580156117f4573d6000803e3d6000fd5b505050506040513d601f19601f8201168201806040525081019061181891906141cd565b90506000600660009054906101000a90046001600160a01b03166001600160a01b031663d2d97b066040518163ffffffff1660e01b815260040160206040518083038186803b15801561186a57600080fd5b505afa15801561187e573d6000803e3d6000fd5b505050506040513d601f19601f820116820180604052508101906118a291906141cd565b905060008073__$2bf843f4f991f9d722eec7097e29151082$__634e820a3f886118ca6138ac565b8689896040518663ffffffff1660e01b81526004016118ed959493929190614969565b604080518083038186803b15801561190457600080fd5b505af4158015611918573d6000803e3d6000fd5b505050506040513d601f19601f8201168201806040525081019061193c9190614206565b91509150600061195a600954600a0a84613e6c90919063ffffffff16565b90506000611992886107fa6119856014546106fd60175464e8d4a51000613e0d90919063ffffffff16565b869063ffffffff613e3216565b905061199d8161091f565b9050808a11156119bf5760405162461bcd60e51b8152600401610534906147e8565b6000546040516323b872dd60e01b8152620100009091046001600160a01b0316906323b872dd906119f8903390309087906004016142d4565b602060405180830381600087803b158015611a1257600080fd5b505af1158015611a26573d6000803e3d6000fd5b505050506040513d601f19601f82011682018060405250810190611a4a9190614195565b508015611abc57600554600654604051636312a30560e11b81526001600160a01b039283169263c625460a92611a8992911690339086906004016142d4565b600060405180830381600087803b158015611aa357600080fd5b505af1158015611ab7573d6000803e3d6000fd5b505050505b604051819083907fc2d7df98caa1a9bc768fc3ab167e19ae4febd5da76dad18d3387fb9fc656a37390600090a35050505050505050505050565b6010546301000000900460ff1615611b205760405162461bcd60e51b815260040161053490614927565b601054600160301b900460ff1615611b5c576002546001600160a01b03163314611b5c5760405162461bcd60e51b815260040161053490614884565b611b64611ee7565b60065460408051633b66494360e21b815290516000926001600160a01b03169163ed99250c916004808301926020929190829003018186803b158015611ba957600080fd5b505afa158015611bbd573d6000803e3d6000fd5b505050506040513d601f19601f82011682018060405250810190611be191906141cd565b9050611beb614073565b6040518060800160405280611bfe613a02565b8152602001838152602001611c116138ac565b81526020018581525090506000611c4d64e8d4a510006107fa611c4460135464e8d4a51000613dc290919063ffffffff16565b61125d86613eae565b90506000611c69600954600a0a83613e6c90919063ffffffff16565b905080851115611c8b5760405162461bcd60e51b8152600401610534906147e8565b6005546006546040516302b7c01160e01b81526001600160a01b03928316926302b7c01192611cc39291169033908b906004016142d4565b600060405180830381600087803b158015611cdd57600080fd5b505af1158015611cf1573d6000803e3d6000fd5b505060005460405163a9059cbb60e01b8152620100009091046001600160a01b0316925063a9059cbb9150611d2c90339085906004016142f8565b602060405180830381600087803b158015611d4657600080fd5b505af1158015611d5a573d6000803e3d6000fd5b505050506040513d601f19601f82011682018060405250810190611d7e9190614195565b50604051819087907f15b90a6a755d5ed0f929f1f40375d58183388d8d9e2f8e9a2efa93043e70f6de90600090a3505050505050565b60175481565b6002546001600160a01b03163314611de45760405162461bcd60e51b81526004016105349061456c565b60158790556017869055601885905560118490556012839055601382905560148190556040517f17fe98b66d27bd793ea01bd8a23a54acab8eeb167d9eb016a0c7cd71c573920c90611e4390899089908990899089908990899061498c565b60405180910390a150505050505050565b6002546001600160a01b03163314611e7e5760405162461bcd60e51b81526004016105349061456c565b6010805460ff610100808304821615810261ff001990931692909217928390556040517fd449302f806044ba9a0f0b2862e496c86cb4ef1f6b3fd474113fb26e46d9b28a93610ca393900490911690614311565b6008546001600160a01b031681565b60155481565b600660009054906101000a90046001600160a01b03166001600160a01b0316636c7ff97b6040518163ffffffff1660e01b8152600401600060405180830381600087803b158015611f3757600080fd5b505af1158015611f4b573d6000803e3d6000fd5b50505050600760009054906101000a90046001600160a01b03166001600160a01b03166309bf39ed6040518163ffffffff1660e01b815260040160206040518083038186803b158015611f9d57600080fd5b505afa158015611fb1573d6000803e3d6000fd5b505050506040513d601f19601f82011682018060405250810190611fd59190614195565b1561203e57600760009054906101000a90046001600160a01b03166001600160a01b031663d6f124f06040518163ffffffff1660e01b8152600401600060405180830381600087803b15801561202a57600080fd5b505af1158015610bc5573d6000803e3d6000fd5b565b60105462010000900460ff1681565b6002546001600160a01b031633146120795760405162461bcd60e51b81526004016105349061456c565b601054640100000000900460ff1661209557601681905561209b565b60006016555b6010805460ff640100000000808304821615810264ff000000001990931692909217928390556040517fbf1f9e6d8d67bb57a141c627f40368ec23ed7603249f0c3518c16eafbf9c4f6f936120f593900490911690614311565b60405180910390a150565b600d5481565b60105460ff1681565b6010546301000000900460ff1681565b601054610100900460ff16156121475760405162461bcd60e51b8152600401610534906145d2565b61214f611ee7565b600660009054906101000a90046001600160a01b03166001600160a01b0316634013124a6040518163ffffffff1660e01b8152600401600060405180830381600087803b15801561219f57600080fd5b505af11580156121b3573d6000803e3d6000fd5b505050506000600660009054906101000a90046001600160a01b03166001600160a01b031663fadb1b026040518163ffffffff1660e01b815260040160206040518083038186803b15801561220757600080fd5b505afa15801561221b573d6000803e3d6000fd5b505050506040513d601f19601f8201168201806040525081019061223f91906141cd565b905064e8d4a51000811080156122555750600081115b6122715760405162461bcd60e51b815260040161053490614464565b6006546040805163fa62921960e01b815290516000926001600160a01b03169163fa629219916004808301926020929190829003018186803b1580156122b657600080fd5b505afa1580156122ca573d6000803e3d6000fd5b505050506040513d601f19601f820116820180604052508101906122ee91906141cd565b905060008282106122ff5782612301565b815b9050600061233864e8d4a510006107fa61232b60125464e8d4a51000613dc290919063ffffffff16565b8a9063ffffffff613e3216565b9050600061236561235864e8d4a510006107fa858763ffffffff613e3216565b839063ffffffff613dc216565b90506000612407600660009054906101000a90046001600160a01b03166001600160a01b031663ed99250c6040518163ffffffff1660e01b815260040160206040518083038186803b1580156123ba57600080fd5b505afa1580156123ce573d6000803e3d6000fd5b505050506040513d601f19601f820116820180604052508101906123f291906141cd565b6107fa8464e8d4a5100063ffffffff613e3216565b90506124128161091f565b9050600061242e600954600a0a85613e6c90919063ffffffff16565b9050600061244b64e8d4a510006107fa848963ffffffff613e3216565b9050600061245a6123f26138ac565b600d546000546040516370a0823160e01b815292935061249992620100009091046001600160a01b0316906370a08231906106ad9030906004016142c0565b8111156124b85760405162461bcd60e51b8152600401610534906148b9565b808a11156124d85760405162461bcd60e51b8152600401610534906144c1565b838b11156124f85760405162461bcd60e51b81526004016105349061459b565b600654604051631096f10360e01b81526001600160a01b0390911690631096f103906125289033906004016142c0565b60206040518083038186803b15801561254057600080fd5b505afa158015612554573d6000803e3d6000fd5b505050506040513d601f19601f820116820180604052508101906125789190614195565b156125b257336000908152600c602052604090205461259d908263ffffffff613e0d16565b336000908152600c60205260409020556126db565b60006125c582600a63ffffffff613e6c16565b905060006125df600a6107fa85600963ffffffff613e3216565b336000908152600c6020526040902054909150612602908363ffffffff613e0d16565b336000908152600c6020908152604080832093909355600654835163a367e27d60e01b8152935192936001600160a01b039091169263a367e27d92600480840193919291829003018186803b15801561265a57600080fd5b505afa15801561266e573d6000803e3d6000fd5b505050506040513d601f19601f8201168201806040525081019061269291906140e6565b6001600160a01b0381166000908152600c60205260409020549091506126be908363ffffffff613e0d16565b6001600160a01b039091166000908152600c602052604090205550505b600d546126ee908263ffffffff613e0d16565b600d5583156128f157600654604051631096f10360e01b81526001600160a01b0390911690631096f103906127279033906004016142c0565b60206040518083038186803b15801561273f57600080fd5b505afa158015612753573d6000803e3d6000fd5b505050506040513d601f19601f820116820180604052508101906127779190614195565b156127b157336000908152600b602052604090205461279c908563ffffffff613e0d16565b336000908152600b60205260409020556128da565b60006127c485600a63ffffffff613e6c16565b905060006127de600a6107fa88600963ffffffff613e3216565b336000908152600b6020526040902054909150612801908363ffffffff613e0d16565b336000908152600b6020908152604080832093909355600654835163a367e27d60e01b8152935192936001600160a01b039091169263a367e27d92600480840193919291829003018186803b15801561285957600080fd5b505afa15801561286d573d6000803e3d6000fd5b505050506040513d601f19601f8201168201806040525081019061289191906140e6565b6001600160a01b0381166000908152600b60205260409020549091506128bd908363ffffffff613e0d16565b6001600160a01b039091166000908152600b602052604090205550505b600e546128ed908563ffffffff613e0d16565b600e555b43600f6000336001600160a01b03166001600160a01b0316815260200190815260200160002081905550600660009054906101000a90046001600160a01b03166001600160a01b031663a8a778ae338e6040518363ffffffff1660e01b815260040161295e9291906142f8565b600060405180830381600087803b15801561297857600080fd5b505af115801561298c573d6000803e3d6000fd5b505050506000841115612a0457600554600654604051636312a30560e11b81526001600160a01b039283169263c625460a926129d192911690309089906004016142d4565b600060405180830381600087803b1580156129eb57600080fd5b505af11580156129ff573d6000803e3d6000fd5b505050505b505050505050505050505050565b601054640100000000900460ff1681565b601054600090640100000000900460ff16151560011415612aa457612a9d64e8d4a510006107fa60165461125d600954600a0a61125d600d54600060029054906101000a90046001600160a01b03166001600160a01b03166370a08231306040518263ffffffff1660e01b81526004016106ad91906142c0565b9050612c34565b60065460408051632d83c63b60e11b815290516000926001600160a01b031691635b078c76916004808301926020929190829003018186803b158015612ae957600080fd5b505afa158015612afd573d6000803e3d6000fd5b505050506040513d601f19601f82011682018060405250810190612b2191906141cd565b600754600a54604051633ddac95360e01b81529293506000926001600160a01b0392831692633ddac95392612b629291169064e8d4a51000906004016142f8565b60206040518083038186803b158015612b7a57600080fd5b505afa158015612b8e573d6000803e3d6000fd5b505050506040513d601f19601f82011682018060405250810190612bb291906141cd565b90506000612bcf826107fa8564e8d4a5100063ffffffff613e3216565b9050612c2e64e8d4a510006107fa8361125d600954600a0a61125d600d54600060029054906101000a90046001600160a01b03166001600160a01b03166370a08231306040518263ffffffff1660e01b81526004016106ad91906142c0565b93505050505b90565b6002546001600160a01b03163314612c615760405162461bcd60e51b81526004016105349061456c565b600880546001600160a01b03199081166001600160a01b0385811691821790935560078054831682179055600a80549092169284169283179091556040517f856e4796eef882904bc46a505b32b16c6fbcef9e0930ac95b2f980781517bf6390600090a35050565b600f6020526000908152604090205481565b60105460ff1615612cfe5760405162461bcd60e51b8152600401610534906147bd565b612d06611ee7565b600660009054906101000a90046001600160a01b03166001600160a01b0316634013124a6040518163ffffffff1660e01b8152600401600060405180830381600087803b158015612d5657600080fd5b505af1158015612d6a573d6000803e3d6000fd5b505050506000600660009054906101000a90046001600160a01b03166001600160a01b031663ed99250c6040518163ffffffff1660e01b815260040160206040518083038186803b158015612dbe57600080fd5b505afa158015612dd2573d6000803e3d6000fd5b505050506040513d601f19601f82011682018060405250810190612df691906141cd565b90506000600660009054906101000a90046001600160a01b03166001600160a01b031663fadb1b026040518163ffffffff1660e01b815260040160206040518083038186803b158015612e4857600080fd5b505afa158015612e5c573d6000803e3d6000fd5b505050506040513d601f19601f82011682018060405250810190612e8091906141cd565b905064e8d4a5100081108015612e965750600081115b612eb25760405162461bcd60e51b815260040161053490614464565b601554600d546000546040516370a0823160e01b8152612ef792899261070992620100009091046001600160a01b0316906370a08231906106ad9030906004016142c0565b1115612f155760405162461bcd60e51b81526004016105349061468e565b600954600a0a8502612f2561409b565b6040518060a00160405280858152602001612f3e6138ac565b8152602001878152602001838152602001848152509050600080612f6183613f42565b91509150612f9864e8d4a510006107fa612f8b60115464e8d4a51000613dc290919063ffffffff16565b859063ffffffff613e3216565b915081871115612fba5760405162461bcd60e51b8152600401610534906147e8565b87811115612fda5760405162461bcd60e51b8152600401610534906143bf565b6005546006546040516302b7c01160e01b81526001600160a01b03928316926302b7c0119261301292911690339086906004016142d4565b600060405180830381600087803b15801561302c57600080fd5b505af1158015613040573d6000803e3d6000fd5b50506000546040516323b872dd60e01b8152620100009091046001600160a01b031692506323b872dd915061307d90339030908e906004016142d4565b602060405180830381600087803b15801561309757600080fd5b505af11580156130ab573d6000803e3d6000fd5b505050506040513d601f19601f820116820180604052508101906130cf9190614195565b50600654604051635a7ab59360e11b81526001600160a01b039091169063b4f56b269061310290339086906004016142f8565b600060405180830381600087803b15801561311c57600080fd5b505af1158015613130573d6000803e3d6000fd5b50505050505050505050505050565b600b6020526000908152604090205481565b601054610100900460ff1681565b600e5481565b6002546001600160a01b0316331461318f5760405162461bcd60e51b81526004016105349061456c565b6010805460ff19811660ff9182161517918290556040517f3f3c6b7e51ec0201fea018ffcf768f21f85a27593219359fd6af1d95c7e8b44192610ca3921690614311565b60115481565b6002546001600160a01b031633146132035760405162461bcd60e51b81526004016105349061456c565b6010805460ff600160301b808304821615810266ff0000000000001990931692909217928390556040517fd5bc042d6e197fb30aec38c1634dabc01e0bb517e3fea6db130cea575371224693610ca393900490911690614311565b6002546001600160a01b031633146132885760405162461bcd60e51b81526004016105349061456c565b6010805460ff6301000000808304821615810263ff0000001990931692909217928390556040517fef220f30673af554aae10180ad5ab98f41c923213a66d1207dbe61f00aa75acf93610ca393900490911690614311565b60165481565b601054610100900460ff161561330e5760405162461bcd60e51b8152600401610534906145d2565b613316611ee7565b600660009054906101000a90046001600160a01b03166001600160a01b0316634013124a6040518163ffffffff1660e01b8152600401600060405180830381600087803b15801561336657600080fd5b505af115801561337a573d6000803e3d6000fd5b505050506000600660009054906101000a90046001600160a01b03166001600160a01b031663ed99250c6040518163ffffffff1660e01b815260040160206040518083038186803b1580156133ce57600080fd5b505afa1580156133e2573d6000803e3d6000fd5b505050506040513d601f19601f8201168201806040525081019061340691906141cd565b90506000600660009054906101000a90046001600160a01b03166001600160a01b031663fadb1b026040518163ffffffff1660e01b815260040160206040518083038186803b15801561345857600080fd5b505afa15801561346c573d6000803e3d6000fd5b505050506040513d601f19601f8201168201806040525081019061349091906141cd565b905080156134b05760405162461bcd60e51b8152600401610534906148f0565b60008490506134db64e8d4a510006107fa6107ed60125464e8d4a51000613dc290919063ffffffff16565b905060006134f8846107fa8464e8d4a5100063ffffffff613e3216565b90506135038161091f565b9050801561370557600654604051631096f10360e01b81526001600160a01b0390911690631096f1039061353b9033906004016142c0565b60206040518083038186803b15801561355357600080fd5b505afa158015613567573d6000803e3d6000fd5b505050506040513d601f19601f8201168201806040525081019061358b9190614195565b156135c557336000908152600b60205260409020546135b0908263ffffffff613e0d16565b336000908152600b60205260409020556136ee565b60006135d882600a63ffffffff613e6c16565b905060006135f2600a6107fa85600963ffffffff613e3216565b336000908152600b6020526040902054909150613615908363ffffffff613e0d16565b336000908152600b6020908152604080832093909355600654835163a367e27d60e01b8152935192936001600160a01b039091169263a367e27d92600480840193919291829003018186803b15801561366d57600080fd5b505afa158015613681573d6000803e3d6000fd5b505050506040513d601f19601f820116820180604052508101906136a591906140e6565b6001600160a01b0381166000908152600b60205260409020549091506136d1908363ffffffff613e0d16565b6001600160a01b039091166000908152600b602052604090205550505b600e54613701908263ffffffff613e0d16565b600e555b336000908152600f602052604090204390558085106137365760405162461bcd60e51b8152600401610534906147e8565b600654604051635453bc5760e11b81526001600160a01b039091169063a8a778ae906137689033908a906004016142f8565b600060405180830381600087803b15801561378257600080fd5b505af1158015613796573d6000803e3d6000fd5b50505050600081111561380e57600554600654604051636312a30560e11b81526001600160a01b039283169263c625460a926137db92911690309086906004016142d4565b600060405180830381600087803b1580156137f557600080fd5b505af1158015613809573d6000803e3d6000fd5b505050505b505050505050565b60125481565b6002546001600160a01b031633146138465760405162461bcd60e51b81526004016105349061456c565b6010805460ff62010000808304821615810262ff00001990931692909217928390556040517f7e9a29a085706d1cf00b68ff18532dae53be17faa8be9bab8821c355a393656a93610ca393900490911690614311565b601054600160301b900460ff1681565b601054600090640100000000900460ff161515600114156138d05750601654612c34565b60065460408051632d83c63b60e11b815290516000926001600160a01b031691635b078c76916004808301926020929190829003018186803b15801561391557600080fd5b505afa158015613929573d6000803e3d6000fd5b505050506040513d601f19601f8201168201806040525081019061394d91906141cd565b600754600a54604051633ddac95360e01b81529293506000926001600160a01b0392831692633ddac9539261398e9291169064e8d4a51000906004016142f8565b60206040518083038186803b1580156139a657600080fd5b505afa1580156139ba573d6000803e3d6000fd5b505050506040513d601f19601f820116820180604052508101906139de91906141cd565b90506139f9816107fa8464e8d4a5100063ffffffff613e3216565b92505050612c34565b600080600660009054906101000a90046001600160a01b03166001600160a01b03166318160ddd6040518163ffffffff1660e01b815260040160206040518083038186803b158015613a5357600080fd5b505afa158015613a67573d6000803e3d6000fd5b505050506040513d601f19601f82011682018060405250810190613a8b91906141cd565b90506000600660009054906101000a90046001600160a01b03166001600160a01b031663fadb1b026040518163ffffffff1660e01b815260040160206040518083038186803b158015613add57600080fd5b505afa158015613af1573d6000803e3d6000fd5b505050506040513d601f19601f82011682018060405250810190613b1591906141cd565b90506000600660009054906101000a90046001600160a01b03166001600160a01b031663d2d97b066040518163ffffffff1660e01b815260040160206040518083038186803b158015613b6757600080fd5b505afa158015613b7b573d6000803e3d6000fd5b505050506040513d601f19601f82011682018060405250810190613b9f91906141cd565b905064e8d4a51000821115613bb75764e8d4a5100091505b6000613bd264e8d4a510006107fa868663ffffffff613e3216565b905080821115613bf757613bec828263ffffffff613dc216565b945050505050612c34565b6000945050505050612c34565b600054610100900460ff1680613c1d5750613c1d613ff9565b80613c2b575060005460ff16155b613c475760405162461bcd60e51b815260040161053490614640565b600054610100900460ff16158015613c72576000805460ff1961ff0019909116610100171660011790555b600680546001600160a01b03199081166001600160a01b03888116918217909355600580548316888516908117909155600380548416909217909155600480548316909117815560018054831687851690811790915560028054909316868516179092556000805462010000600160b01b0319166201000093840217908190556040805163313ce56760e01b81529051613d7b95949092049093169263313ce5679281810192602092909190829003018186803b158015613d3257600080fd5b505afa158015613d46573d6000803e3d6000fd5b505050506040513d601f19601f82011682018060405250810190613d6a919061429f565b60129060ff1663ffffffff613dc216565b6009556ec097ce7bc90715b34b9f100000000060155560006016556401bf08eb0060175560016018558015610bc3576000805461ff00191690555050505050565b60145481565b6000613e0483836040518060400160405280601e81526020017f536166654d6174683a207375627472616374696f6e206f766572666c6f77000081525061400a565b90505b92915050565b600082820183811015613e045760405162461bcd60e51b81526004016105349061442d565b600082613e4157506000613e07565b82820282848281613e4e57fe5b0414613e045760405162461bcd60e51b8152600401610534906146fd565b6000613e0483836040518060400160405280601a81526020017f536166654d6174683a206469766973696f6e206279207a65726f000000000000815250614036565b8051600090613ecf5760405162461bcd60e51b8152600401610534906145ff565b6000613ef564e8d4a510006107fa85602001518660600151613e3290919063ffffffff16565b8351909150811115613f195760405162461bcd60e51b81526004016105349061436f565b6040830151600090613f3a906107fa8464e8d4a5100063ffffffff613e3216565b949350505050565b600080600080613f6c64e8d4a510006107fa87600001518860400151613e3290919063ffffffff16565b9150613f9264e8d4a510006107fa87602001518860600151613e3290919063ffffffff16565b90506000613fba826106fd88608001516107fa64e8d4a5100087613e3290919063ffffffff16565b8651909150600090613fdb906107fa8464e8d4a5100063ffffffff613e3216565b9050613fed838363ffffffff613e0d16565b95509350505050915091565b60006140043061406d565b15905090565b6000818484111561402e5760405162461bcd60e51b8152600401610534919061431c565b505050900390565b600081836140575760405162461bcd60e51b8152600401610534919061431c565b50600083858161406357fe5b0495945050505050565b3b151590565b6040518060800160405280600081526020016000815260200160008152602001600081525090565b6040518060a0016040528060008152602001600081526020016000815260200160008152602001600081525090565b6000602082840312156140db578081fd5b8135613e04816149bc565b6000602082840312156140f7578081fd5b8151613e04816149bc565b60008060408385031215614114578081fd5b823561411f816149bc565b9150602083013561412f816149bc565b809150509250929050565b6000806000806080858703121561414f578182fd5b843561415a816149bc565b9350602085013561416a816149bc565b9250604085013561417a816149bc565b9150606085013561418a816149bc565b939692955090935050565b6000602082840312156141a6578081fd5b81518015158114613e04578182fd5b6000602082840312156141c6578081fd5b5035919050565b6000602082840312156141de578081fd5b5051919050565b600080604083850312156141f7578182fd5b50508035926020909101359150565b60008060408385031215614218578182fd5b505080516020909101519092909150565b60008060006060848603121561423d578283fd5b505081359360208301359350604090920135919050565b600080600080600080600060e0888a03121561426e578283fd5b505085359760208701359750604087013596606081013596506080810135955060a0810135945060c0013592509050565b6000602082840312156142b0578081fd5b815160ff81168114613e04578182fd5b6001600160a01b0391909116815260200190565b6001600160a01b039384168152919092166020820152604081019190915260600190565b6001600160a01b03929092168252602082015260400190565b901515815260200190565b6000602080835283518082850152825b818110156143485785810183015185820160400152820161432c565b818111156143595783604083870101525b50601f01601f1916929092016040019392505050565b60208082526030908201527f596f752061726520747279696e6720746f20627579206261636b206d6f72652060408201526f7468616e20746865206578636573732160801b606082015260800190565b60208082526017908201527f4e6f7420656e6f7567682042445820696e707574746564000000000000000000604082015260600190565b6020808252601d908201527f436f6c6c61746572616c20726174696f206d757374206265203e3d2031000000604082015260600190565b6020808252601b908201527f536166654d6174683a206164646974696f6e206f766572666c6f770000000000604082015260600190565b60208082526038908201527f436f6c6c61746572616c20726174696f206e6565647320746f2062652062657460408201527f7765656e202e30303030303120616e64202e3939393939390000000000000000606082015260800190565b60208082526023908201527f536c697070616765206c696d69742072656163686564205b636f6c6c61746572604082015262616c5d60e81b606082015260800190565b60208082526042908201527f4d757374207761697420666f7220726564656d7074696f6e5f64656c6179206260408201527f6c6f636b73206265666f726520636f6c6c656374696e6720726564656d70746960608201526137b760f11b608082015260a00190565b6020808252601590820152742cb7ba9030b932903737ba103a34329037bbb732b960591b604082015260600190565b6020808252601c908201527f536c697070616765206c696d69742072656163686564205b4244585d00000000604082015260600190565b60208082526013908201527214995919595b5a5b99c81a5cc81c185d5cd959606a1b604082015260600190565b60208082526021908201527f4e6f2065786365737320636f6c6c61746572616c20746f20627579206261636b6040820152602160f81b606082015260800190565b6020808252602e908201527f496e697469616c697a61626c653a20636f6e747261637420697320616c72656160408201526d191e481a5b9a5d1a585b1a5e995960921b606082015260800190565b60208082526049908201527f506f6f6c206365696c696e6720726561636865642c206e6f206d6f726520426460408201527f537461626c652063616e206265206d696e7465642077697468207468697320636060820152681bdb1b185d195c985b60ba1b608082015260a00190565b60208082526021908201527f536166654d6174683a206d756c7469706c69636174696f6e206f766572666c6f6040820152607760f81b606082015260800190565b60208082526028908201527f43757272656e746c79206f6e6c79206f776e65722063616e207265636f6c6c61604082015267746572616c697a6560c01b606082015260800190565b6020808252601d908201527f436f6c6c61746572616c20726174696f206d757374206265203d3d2031000000604082015260600190565b602080825260119082015270135a5b9d1a5b99c81a5cc81c185d5cd959607a1b604082015260600190565b60208082526016908201527514db1a5c1c1859d9481b1a5b5a5d081c995858da195960521b604082015260600190565b6020808252818101527f5b506f6f6c277320436c6f7365645d3a204365696c696e672072656163686564604082015260600190565b60208082526019908201527f5265636f6c6c61746572616c697a652069732070617573656400000000000000604082015260600190565b6020808252818101527f43757272656e746c79206f6e6c79206f776e65722063616e206275796261636b604082015260600190565b6020808252601d908201527f4e6f7420656e6f75676820636f6c6c61746572616c20696e20706f6f6c000000604082015260600190565b6020808252601a908201527f436f6c6c61746572616c20726174696f206d7573742062652030000000000000604082015260600190565b602080825260119082015270109d5e589858dac81a5cc81c185d5cd959607a1b604082015260600190565b90815260200190565b918252602082015260400190565b948552602085019390935260408401919091526060830152608082015260a00190565b968752602087019590955260408601939093526060850191909152608084015260a083015260c082015260e00190565b6001600160a01b03811681146149d157600080fd5b5056fea2646970667358221220e85c1f57887cf030a72c3ae5bb86a05317c57c4ca5982206ce0a3fa027e7720364736f6c634300060b0033",
  "libraries": {
    "BdPoolLibrary": "0x35cDf0804550Fd34202cedfD6Eb20168CF55507D"
  },
  "devdoc": {
    "kind": "dev",
    "methods": {},
    "version": 1
  },
  "userdoc": {
    "kind": "user",
    "methods": {},
    "version": 1
  },
  "storageLayout": {
    "storage": [
      {
        "astId": 492,
        "contract": "contracts/Frax/Pools/BdStablePool.sol:BdStablePool",
        "label": "_initialized",
        "offset": 0,
        "slot": "0",
        "type": "t_bool"
      },
      {
        "astId": 495,
        "contract": "contracts/Frax/Pools/BdStablePool.sol:BdStablePool",
        "label": "_initializing",
        "offset": 1,
        "slot": "0",
        "type": "t_bool"
      },
      {
        "astId": 4850,
        "contract": "contracts/Frax/Pools/BdStablePool.sol:BdStablePool",
        "label": "collateral_token",
        "offset": 2,
        "slot": "0",
        "type": "t_contract(ERC20)2158"
      },
      {
        "astId": 4852,
        "contract": "contracts/Frax/Pools/BdStablePool.sol:BdStablePool",
        "label": "collateral_address",
        "offset": 0,
        "slot": "1",
        "type": "t_address"
      },
      {
        "astId": 4854,
        "contract": "contracts/Frax/Pools/BdStablePool.sol:BdStablePool",
        "label": "owner_address",
        "offset": 0,
        "slot": "2",
        "type": "t_address"
      },
      {
        "astId": 4856,
        "contract": "contracts/Frax/Pools/BdStablePool.sol:BdStablePool",
        "label": "bdstable_contract_address",
        "offset": 0,
        "slot": "3",
        "type": "t_address"
      },
      {
        "astId": 4858,
        "contract": "contracts/Frax/Pools/BdStablePool.sol:BdStablePool",
        "label": "bdx_contract_address",
        "offset": 0,
        "slot": "4",
        "type": "t_address"
      },
      {
        "astId": 4860,
        "contract": "contracts/Frax/Pools/BdStablePool.sol:BdStablePool",
        "label": "BDX",
        "offset": 0,
        "slot": "5",
        "type": "t_contract(BDXShares)3612"
      },
      {
        "astId": 4862,
        "contract": "contracts/Frax/Pools/BdStablePool.sol:BdStablePool",
        "label": "BDSTABLE",
        "offset": 0,
        "slot": "6",
        "type": "t_contract(BDStable)4549"
      },
      {
        "astId": 4864,
        "contract": "contracts/Frax/Pools/BdStablePool.sol:BdStablePool",
        "label": "collatWEthOracle",
        "offset": 0,
        "slot": "7",
        "type": "t_contract(ICryptoPairOracle)8494"
      },
      {
        "astId": 4866,
        "contract": "contracts/Frax/Pools/BdStablePool.sol:BdStablePool",
        "label": "collat_weth_oracle_address",
        "offset": 0,
        "slot": "8",
        "type": "t_address"
      },
      {
        "astId": 4868,
        "contract": "contracts/Frax/Pools/BdStablePool.sol:BdStablePool",
        "label": "missing_decimals",
        "offset": 0,
        "slot": "9",
        "type": "t_uint256"
      },
      {
        "astId": 4870,
        "contract": "contracts/Frax/Pools/BdStablePool.sol:BdStablePool",
        "label": "weth_address",
        "offset": 0,
        "slot": "10",
        "type": "t_address"
      },
      {
        "astId": 4874,
        "contract": "contracts/Frax/Pools/BdStablePool.sol:BdStablePool",
        "label": "redeemBDXBalances",
        "offset": 0,
        "slot": "11",
        "type": "t_mapping(t_address,t_uint256)"
      },
      {
        "astId": 4878,
        "contract": "contracts/Frax/Pools/BdStablePool.sol:BdStablePool",
        "label": "redeemCollateralBalances",
        "offset": 0,
        "slot": "12",
        "type": "t_mapping(t_address,t_uint256)"
      },
      {
        "astId": 4880,
        "contract": "contracts/Frax/Pools/BdStablePool.sol:BdStablePool",
        "label": "unclaimedPoolCollateral",
        "offset": 0,
        "slot": "13",
        "type": "t_uint256"
      },
      {
        "astId": 4882,
        "contract": "contracts/Frax/Pools/BdStablePool.sol:BdStablePool",
        "label": "unclaimedPoolBDX",
        "offset": 0,
        "slot": "14",
        "type": "t_uint256"
      },
      {
        "astId": 4886,
        "contract": "contracts/Frax/Pools/BdStablePool.sol:BdStablePool",
        "label": "lastRedeemed",
        "offset": 0,
        "slot": "15",
        "type": "t_mapping(t_address,t_uint256)"
      },
      {
        "astId": 4888,
        "contract": "contracts/Frax/Pools/BdStablePool.sol:BdStablePool",
        "label": "mintPaused",
        "offset": 0,
        "slot": "16",
        "type": "t_bool"
      },
      {
        "astId": 4890,
        "contract": "contracts/Frax/Pools/BdStablePool.sol:BdStablePool",
        "label": "redeemPaused",
        "offset": 1,
        "slot": "16",
        "type": "t_bool"
      },
      {
        "astId": 4892,
        "contract": "contracts/Frax/Pools/BdStablePool.sol:BdStablePool",
        "label": "recollateralizePaused",
        "offset": 2,
        "slot": "16",
        "type": "t_bool"
      },
      {
        "astId": 4894,
        "contract": "contracts/Frax/Pools/BdStablePool.sol:BdStablePool",
        "label": "buyBackPaused",
        "offset": 3,
        "slot": "16",
        "type": "t_bool"
      },
      {
        "astId": 4896,
        "contract": "contracts/Frax/Pools/BdStablePool.sol:BdStablePool",
        "label": "collateralPricePaused",
        "offset": 4,
        "slot": "16",
        "type": "t_bool"
      },
      {
        "astId": 4898,
        "contract": "contracts/Frax/Pools/BdStablePool.sol:BdStablePool",
        "label": "recollateralizeOnlyForOwner",
        "offset": 5,
        "slot": "16",
        "type": "t_bool"
      },
      {
        "astId": 4900,
        "contract": "contracts/Frax/Pools/BdStablePool.sol:BdStablePool",
        "label": "buybackOnlyForOwner",
        "offset": 6,
        "slot": "16",
        "type": "t_bool"
      },
      {
        "astId": 4902,
        "contract": "contracts/Frax/Pools/BdStablePool.sol:BdStablePool",
        "label": "minting_fee",
        "offset": 0,
        "slot": "17",
        "type": "t_uint256"
      },
      {
        "astId": 4904,
        "contract": "contracts/Frax/Pools/BdStablePool.sol:BdStablePool",
        "label": "redemption_fee",
        "offset": 0,
        "slot": "18",
        "type": "t_uint256"
      },
      {
        "astId": 4906,
        "contract": "contracts/Frax/Pools/BdStablePool.sol:BdStablePool",
        "label": "buyback_fee",
        "offset": 0,
        "slot": "19",
        "type": "t_uint256"
      },
      {
        "astId": 4908,
        "contract": "contracts/Frax/Pools/BdStablePool.sol:BdStablePool",
        "label": "recollat_fee",
        "offset": 0,
        "slot": "20",
        "type": "t_uint256"
      },
      {
        "astId": 4910,
        "contract": "contracts/Frax/Pools/BdStablePool.sol:BdStablePool",
        "label": "pool_ceiling",
        "offset": 0,
        "slot": "21",
        "type": "t_uint256"
      },
      {
        "astId": 4912,
        "contract": "contracts/Frax/Pools/BdStablePool.sol:BdStablePool",
        "label": "pausedPrice",
        "offset": 0,
        "slot": "22",
        "type": "t_uint256"
      },
      {
        "astId": 4914,
        "contract": "contracts/Frax/Pools/BdStablePool.sol:BdStablePool",
        "label": "bonus_rate",
        "offset": 0,
        "slot": "23",
        "type": "t_uint256"
      },
      {
        "astId": 4916,
        "contract": "contracts/Frax/Pools/BdStablePool.sol:BdStablePool",
        "label": "redemption_delay",
        "offset": 0,
        "slot": "24",
        "type": "t_uint256"
      }
    ],
    "types": {
      "t_address": {
        "encoding": "inplace",
        "label": "address",
        "numberOfBytes": "20"
      },
      "t_bool": {
        "encoding": "inplace",
        "label": "bool",
        "numberOfBytes": "1"
      },
      "t_contract(BDStable)4549": {
        "encoding": "inplace",
        "label": "contract BDStable",
        "numberOfBytes": "20"
      },
      "t_contract(BDXShares)3612": {
        "encoding": "inplace",
        "label": "contract BDXShares",
        "numberOfBytes": "20"
      },
      "t_contract(ERC20)2158": {
        "encoding": "inplace",
        "label": "contract ERC20",
        "numberOfBytes": "20"
      },
      "t_contract(ICryptoPairOracle)8494": {
        "encoding": "inplace",
        "label": "contract ICryptoPairOracle",
        "numberOfBytes": "20"
      },
      "t_mapping(t_address,t_uint256)": {
        "encoding": "mapping",
        "key": "t_address",
        "label": "mapping(address => uint256)",
        "numberOfBytes": "32",
        "value": "t_uint256"
      },
      "t_uint256": {
        "encoding": "inplace",
        "label": "uint256",
        "numberOfBytes": "32"
      }
    }
  }
}