{
  "address": "0x027F19941c79b01a7e977aB5db0894314e663c38",
  "abi": [
    {
      "anonymous": false,
      "inputs": [
        {
          "indexed": true,
          "internalType": "address",
          "name": "owner",
          "type": "address"
        },
        {
          "indexed": true,
          "internalType": "address",
          "name": "spender",
          "type": "address"
        },
        {
          "indexed": false,
          "internalType": "uint256",
          "name": "value",
          "type": "uint256"
        }
      ],
      "name": "Approval",
      "type": "event"
    },
    {
      "anonymous": false,
      "inputs": [
        {
          "indexed": true,
          "internalType": "address",
          "name": "bdstable_oracle_addr",
          "type": "address"
        },
        {
          "indexed": true,
          "internalType": "address",
          "name": "weth_address",
          "type": "address"
        }
      ],
      "name": "BDStable_WETH_OracleSet",
      "type": "event"
    },
    {
      "anonymous": false,
      "inputs": [
        {
          "indexed": true,
          "internalType": "address",
          "name": "bdx_oracle_address",
          "type": "address"
        },
        {
          "indexed": true,
          "internalType": "address",
          "name": "weth_address",
          "type": "address"
        }
      ],
      "name": "BDX_WETH_OracleSet",
      "type": "event"
    },
    {
      "anonymous": false,
      "inputs": [
        {
          "indexed": true,
          "internalType": "address",
          "name": "from",
          "type": "address"
        },
        {
          "indexed": true,
          "internalType": "address",
          "name": "to",
          "type": "address"
        },
        {
          "indexed": false,
          "internalType": "uint256",
          "name": "amount",
          "type": "uint256"
        }
      ],
      "name": "BdStableBurned",
      "type": "event"
    },
    {
      "anonymous": false,
      "inputs": [
        {
          "indexed": true,
          "internalType": "address",
          "name": "from",
          "type": "address"
        },
        {
          "indexed": true,
          "internalType": "address",
          "name": "to",
          "type": "address"
        },
        {
          "indexed": false,
          "internalType": "uint256",
          "name": "amount",
          "type": "uint256"
        }
      ],
      "name": "BdStableMinted",
      "type": "event"
    },
    {
      "anonymous": false,
      "inputs": [
        {
          "indexed": false,
          "internalType": "uint256",
          "name": "bdStable_step_d12",
          "type": "uint256"
        }
      ],
      "name": "BdStableStepSet",
      "type": "event"
    },
    {
      "anonymous": false,
      "inputs": [
        {
          "indexed": false,
          "internalType": "uint256",
          "name": "lockedCR_d12",
          "type": "uint256"
        }
      ],
      "name": "CollateralRatioLocked",
      "type": "event"
    },
    {
      "anonymous": false,
      "inputs": [
        {
          "indexed": false,
          "internalType": "bool",
          "name": "collateral_ratio_paused",
          "type": "bool"
        }
      ],
      "name": "CollateralRatioPausedToggled",
      "type": "event"
    },
    {
      "anonymous": false,
      "inputs": [
        {
          "indexed": false,
          "internalType": "uint256",
          "name": "global_collateral_ratio",
          "type": "uint256"
        }
      ],
      "name": "CollateralRatioRefreshed",
      "type": "event"
    },
    {
      "anonymous": false,
      "inputs": [
        {
          "indexed": false,
          "internalType": "address",
          "name": "eth_fiat_consumer_address",
          "type": "address"
        }
      ],
      "name": "EthFiatOracleSet",
      "type": "event"
    },
    {
      "anonymous": false,
      "inputs": [
        {
          "indexed": true,
          "internalType": "address",
          "name": "newOwner",
          "type": "address"
        }
      ],
      "name": "OwnerSet",
      "type": "event"
    },
    {
      "anonymous": false,
      "inputs": [
        {
          "indexed": false,
          "internalType": "address",
          "name": "pool_address",
          "type": "address"
        }
      ],
      "name": "PoolAdded",
      "type": "event"
    },
    {
      "anonymous": false,
      "inputs": [
        {
          "indexed": false,
          "internalType": "address",
          "name": "pool_address",
          "type": "address"
        }
      ],
      "name": "PoolRemoved",
      "type": "event"
    },
    {
      "anonymous": false,
      "inputs": [
        {
          "indexed": false,
          "internalType": "uint256",
          "name": "_price_band_d12",
          "type": "uint256"
        }
      ],
      "name": "PriceBandSet",
      "type": "event"
    },
    {
      "anonymous": false,
      "inputs": [
        {
          "indexed": false,
          "internalType": "uint256",
          "name": "_price_target_d12",
          "type": "uint256"
        }
      ],
      "name": "PriceTargetSet",
      "type": "event"
    },
    {
      "anonymous": false,
      "inputs": [
        {
          "indexed": true,
          "internalType": "address",
          "name": "from",
          "type": "address"
        },
        {
          "indexed": true,
          "internalType": "address",
          "name": "to",
          "type": "address"
        },
        {
          "indexed": false,
          "internalType": "uint256",
          "name": "value",
          "type": "uint256"
        }
      ],
      "name": "Transfer",
      "type": "event"
    },
    {
      "inputs": [],
      "name": "BDX_price_d12",
      "outputs": [
        {
          "internalType": "uint256",
          "name": "",
          "type": "uint256"
        }
      ],
      "stateMutability": "view",
      "type": "function"
    },
    {
      "inputs": [
        {
          "internalType": "address",
          "name": "pool_address",
          "type": "address"
        }
      ],
      "name": "addPool",
      "outputs": [],
      "stateMutability": "nonpayable",
      "type": "function"
    },
    {
      "inputs": [
        {
          "internalType": "address",
          "name": "owner",
          "type": "address"
        },
        {
          "internalType": "address",
          "name": "spender",
          "type": "address"
        }
      ],
      "name": "allowance",
      "outputs": [
        {
          "internalType": "uint256",
          "name": "",
          "type": "uint256"
        }
      ],
      "stateMutability": "view",
      "type": "function"
    },
    {
      "inputs": [
        {
          "internalType": "address",
          "name": "spender",
          "type": "address"
        },
        {
          "internalType": "uint256",
          "name": "amount",
          "type": "uint256"
        }
      ],
      "name": "approve",
      "outputs": [
        {
          "internalType": "bool",
          "name": "",
          "type": "bool"
        }
      ],
      "stateMutability": "nonpayable",
      "type": "function"
    },
    {
      "inputs": [
        {
          "internalType": "address",
          "name": "account",
          "type": "address"
        }
      ],
      "name": "balanceOf",
      "outputs": [
        {
          "internalType": "uint256",
          "name": "",
          "type": "uint256"
        }
      ],
      "stateMutability": "view",
      "type": "function"
    },
    {
      "inputs": [],
      "name": "bdStable_step_d12",
      "outputs": [
        {
          "internalType": "uint256",
          "name": "",
          "type": "uint256"
        }
      ],
      "stateMutability": "view",
      "type": "function"
    },
    {
      "inputs": [
        {
          "internalType": "address",
          "name": "",
          "type": "address"
        }
      ],
      "name": "bdstable_pools",
      "outputs": [
        {
          "internalType": "bool",
          "name": "",
          "type": "bool"
        }
      ],
      "stateMutability": "view",
      "type": "function"
    },
    {
      "inputs": [
        {
          "internalType": "uint256",
          "name": "",
          "type": "uint256"
        }
      ],
      "name": "bdstable_pools_array",
      "outputs": [
        {
          "internalType": "address",
          "name": "",
          "type": "address"
        }
      ],
      "stateMutability": "view",
      "type": "function"
    },
    {
      "inputs": [],
      "name": "bdstable_price_d12",
      "outputs": [
        {
          "internalType": "uint256",
          "name": "",
          "type": "uint256"
        }
      ],
      "stateMutability": "view",
      "type": "function"
    },
    {
      "inputs": [],
      "name": "bdx_address",
      "outputs": [
        {
          "internalType": "address",
          "name": "",
          "type": "address"
        }
      ],
      "stateMutability": "view",
      "type": "function"
    },
    {
      "inputs": [
        {
          "internalType": "uint256",
          "name": "amount",
          "type": "uint256"
        }
      ],
      "name": "burn",
      "outputs": [],
      "stateMutability": "nonpayable",
      "type": "function"
    },
    {
      "inputs": [
        {
          "internalType": "address",
          "name": "account",
          "type": "address"
        },
        {
          "internalType": "uint256",
          "name": "amount",
          "type": "uint256"
        }
      ],
      "name": "burnFrom",
      "outputs": [],
      "stateMutability": "nonpayable",
      "type": "function"
    },
    {
      "inputs": [
        {
          "internalType": "address",
          "name": "who",
          "type": "address"
        }
      ],
      "name": "canLegallyRedeem",
      "outputs": [
        {
          "internalType": "bool",
          "name": "",
          "type": "bool"
        }
      ],
      "stateMutability": "view",
      "type": "function"
    },
    {
      "inputs": [],
      "name": "collateral_ratio_paused",
      "outputs": [
        {
          "internalType": "bool",
          "name": "",
          "type": "bool"
        }
      ],
      "stateMutability": "view",
      "type": "function"
    },
    {
      "inputs": [],
      "name": "decimals",
      "outputs": [
        {
          "internalType": "uint8",
          "name": "",
          "type": "uint8"
        }
      ],
      "stateMutability": "view",
      "type": "function"
    },
    {
      "inputs": [
        {
          "internalType": "address",
          "name": "spender",
          "type": "address"
        },
        {
          "internalType": "uint256",
          "name": "subtractedValue",
          "type": "uint256"
        }
      ],
      "name": "decreaseAllowance",
      "outputs": [
        {
          "internalType": "bool",
          "name": "",
          "type": "bool"
        }
      ],
      "stateMutability": "nonpayable",
      "type": "function"
    },
    {
      "inputs": [],
      "name": "effective_global_collateral_ratio_d12",
      "outputs": [
        {
          "internalType": "uint256",
          "name": "",
          "type": "uint256"
        }
      ],
      "stateMutability": "view",
      "type": "function"
    },
    {
      "inputs": [],
      "name": "fiat",
      "outputs": [
        {
          "internalType": "string",
          "name": "",
          "type": "string"
        }
      ],
      "stateMutability": "view",
      "type": "function"
    },
    {
      "inputs": [],
      "name": "getBdStablesPoolsLength",
      "outputs": [
        {
          "internalType": "uint256",
          "name": "",
          "type": "uint256"
        }
      ],
      "stateMutability": "view",
      "type": "function"
    },
    {
      "inputs": [],
      "name": "globalCollateralValue",
      "outputs": [
        {
          "internalType": "uint256",
          "name": "",
          "type": "uint256"
        }
      ],
      "stateMutability": "view",
      "type": "function"
    },
    {
      "inputs": [],
      "name": "global_collateral_ratio_d12",
      "outputs": [
        {
          "internalType": "uint256",
          "name": "",
          "type": "uint256"
        }
      ],
      "stateMutability": "view",
      "type": "function"
    },
    {
      "inputs": [
        {
          "internalType": "address",
          "name": "spender",
          "type": "address"
        },
        {
          "internalType": "uint256",
          "name": "addedValue",
          "type": "uint256"
        }
      ],
      "name": "increaseAllowance",
      "outputs": [
        {
          "internalType": "bool",
          "name": "",
          "type": "bool"
        }
      ],
      "stateMutability": "nonpayable",
      "type": "function"
    },
    {
      "inputs": [
        {
          "internalType": "string",
          "name": "_name",
          "type": "string"
        },
        {
          "internalType": "string",
          "name": "_symbol",
          "type": "string"
        },
        {
          "internalType": "string",
          "name": "_fiat",
          "type": "string"
        },
        {
          "internalType": "address",
          "name": "_owner_address",
          "type": "address"
        },
        {
          "internalType": "address",
          "name": "_treasury_address",
          "type": "address"
        },
        {
          "internalType": "address",
          "name": "_bdx_address",
          "type": "address"
        },
        {
          "internalType": "uint256",
          "name": "_initalBdStableToOwner_d18",
          "type": "uint256"
        }
      ],
      "name": "initialize",
      "outputs": [],
      "stateMutability": "nonpayable",
      "type": "function"
    },
    {
      "inputs": [
        {
          "internalType": "address",
          "name": "",
          "type": "address"
        }
      ],
      "name": "lastMintByUserBlock",
      "outputs": [
        {
          "internalType": "uint256",
          "name": "",
          "type": "uint256"
        }
      ],
      "stateMutability": "view",
      "type": "function"
    },
    {
      "inputs": [
        {
          "internalType": "uint256",
          "name": "wantedCR_d12",
          "type": "uint256"
        }
      ],
      "name": "lockCollateralRatioAt",
      "outputs": [],
      "stateMutability": "nonpayable",
      "type": "function"
    },
    {
      "inputs": [],
      "name": "name",
      "outputs": [
        {
          "internalType": "string",
          "name": "",
          "type": "string"
        }
      ],
      "stateMutability": "view",
      "type": "function"
    },
    {
      "inputs": [],
      "name": "owner_address",
      "outputs": [
        {
          "internalType": "address",
          "name": "",
          "type": "address"
        }
      ],
      "stateMutability": "view",
      "type": "function"
    },
    {
      "inputs": [
        {
          "internalType": "address",
          "name": "b_address",
          "type": "address"
        },
        {
          "internalType": "uint256",
          "name": "b_amount",
          "type": "uint256"
        }
      ],
      "name": "pool_burn_from",
      "outputs": [],
      "stateMutability": "nonpayable",
      "type": "function"
    },
    {
      "inputs": [
        {
          "internalType": "address",
          "name": "m_address",
          "type": "address"
        },
        {
          "internalType": "uint256",
          "name": "m_amount",
          "type": "uint256"
        }
      ],
      "name": "pool_mint",
      "outputs": [],
      "stateMutability": "nonpayable",
      "type": "function"
    },
    {
      "inputs": [],
      "name": "price_band_d12",
      "outputs": [
        {
          "internalType": "uint256",
          "name": "",
          "type": "uint256"
        }
      ],
      "stateMutability": "view",
      "type": "function"
    },
    {
      "inputs": [],
      "name": "price_target_d12",
      "outputs": [
        {
          "internalType": "uint256",
          "name": "",
          "type": "uint256"
        }
      ],
      "stateMutability": "view",
      "type": "function"
    },
    {
      "inputs": [],
      "name": "refreshCollateralRatio",
      "outputs": [],
      "stateMutability": "nonpayable",
      "type": "function"
    },
    {
      "inputs": [],
      "name": "refreshCollateralRatio_last_call_time",
      "outputs": [
        {
          "internalType": "uint256",
          "name": "",
          "type": "uint256"
        }
      ],
      "stateMutability": "view",
      "type": "function"
    },
    {
      "inputs": [],
      "name": "refresh_cooldown",
      "outputs": [
        {
          "internalType": "uint256",
          "name": "",
          "type": "uint256"
        }
      ],
      "stateMutability": "view",
      "type": "function"
    },
    {
      "inputs": [
        {
          "internalType": "address",
          "name": "pool_address",
          "type": "address"
        }
      ],
      "name": "removePool",
      "outputs": [],
      "stateMutability": "nonpayable",
      "type": "function"
    },
    {
      "inputs": [
        {
          "internalType": "address",
          "name": "_bdstable_oracle_addr",
          "type": "address"
        },
        {
          "internalType": "address",
          "name": "_weth_address",
          "type": "address"
        }
      ],
      "name": "setBDStable_WETH_Oracle",
      "outputs": [],
      "stateMutability": "nonpayable",
      "type": "function"
    },
    {
      "inputs": [
        {
          "internalType": "address",
          "name": "_bdx_oracle_addr",
          "type": "address"
        },
        {
          "internalType": "address",
          "name": "_weth_address",
          "type": "address"
        }
      ],
      "name": "setBDX_WETH_Oracle",
      "outputs": [],
      "stateMutability": "nonpayable",
      "type": "function"
    },
    {
      "inputs": [
        {
          "internalType": "uint256",
          "name": "_bdStable_step_d12",
          "type": "uint256"
        }
      ],
      "name": "setBdStable_step_d12",
      "outputs": [],
      "stateMutability": "nonpayable",
      "type": "function"
    },
    {
      "inputs": [
        {
          "internalType": "address",
          "name": "_eth_fiat_consumer_address",
          "type": "address"
        }
      ],
      "name": "setETH_fiat_Oracle",
      "outputs": [],
      "stateMutability": "nonpayable",
      "type": "function"
    },
    {
      "inputs": [
        {
          "internalType": "uint256",
          "name": "_minimumMintRedeemDelayInBlocks",
          "type": "uint256"
        }
      ],
      "name": "setMinimumSwapsDelayInBlocks",
      "outputs": [],
      "stateMutability": "nonpayable",
      "type": "function"
    },
    {
      "inputs": [
        {
          "internalType": "address",
          "name": "_owner_address",
          "type": "address"
        }
      ],
      "name": "setOwner",
      "outputs": [],
      "stateMutability": "nonpayable",
      "type": "function"
    },
    {
      "inputs": [
        {
          "internalType": "address",
          "name": "_treasury_address",
          "type": "address"
        }
      ],
      "name": "setTreasury_address",
      "outputs": [],
      "stateMutability": "nonpayable",
      "type": "function"
    },
    {
      "inputs": [
        {
          "internalType": "uint256",
          "name": "_price_band_d12",
          "type": "uint256"
        }
      ],
      "name": "set_price_band_d12",
      "outputs": [],
      "stateMutability": "nonpayable",
      "type": "function"
    },
    {
      "inputs": [
        {
          "internalType": "uint256",
          "name": "_price_target_d12",
          "type": "uint256"
        }
      ],
      "name": "set_price_target_d12",
      "outputs": [],
      "stateMutability": "nonpayable",
      "type": "function"
    },
    {
      "inputs": [],
      "name": "shouldUpdateOracles",
      "outputs": [
        {
          "internalType": "bool",
          "name": "",
          "type": "bool"
        }
      ],
      "stateMutability": "view",
      "type": "function"
    },
    {
      "inputs": [],
      "name": "symbol",
      "outputs": [
        {
          "internalType": "string",
          "name": "",
          "type": "string"
        }
      ],
      "stateMutability": "view",
      "type": "function"
    },
    {
      "inputs": [],
      "name": "toggleCollateralRatioPaused",
      "outputs": [],
      "stateMutability": "nonpayable",
      "type": "function"
    },
    {
      "inputs": [],
      "name": "totalSupply",
      "outputs": [
        {
          "internalType": "uint256",
          "name": "",
          "type": "uint256"
        }
      ],
      "stateMutability": "view",
      "type": "function"
    },
    {
      "inputs": [
        {
          "internalType": "address",
          "name": "recipient",
          "type": "address"
        },
        {
          "internalType": "uint256",
          "name": "amount",
          "type": "uint256"
        }
      ],
      "name": "transfer",
      "outputs": [
        {
          "internalType": "bool",
          "name": "",
          "type": "bool"
        }
      ],
      "stateMutability": "nonpayable",
      "type": "function"
    },
    {
      "inputs": [
        {
          "internalType": "address",
          "name": "sender",
          "type": "address"
        },
        {
          "internalType": "address",
          "name": "recipient",
          "type": "address"
        },
        {
          "internalType": "uint256",
          "name": "amount",
          "type": "uint256"
        }
      ],
      "name": "transferFrom",
      "outputs": [
        {
          "internalType": "bool",
          "name": "",
          "type": "bool"
        }
      ],
      "stateMutability": "nonpayable",
      "type": "function"
    },
    {
      "inputs": [],
      "name": "treasury_address",
      "outputs": [
        {
          "internalType": "address",
          "name": "",
          "type": "address"
        }
      ],
      "stateMutability": "view",
      "type": "function"
    },
    {
      "inputs": [],
      "name": "updateOraclesIfNeeded",
      "outputs": [],
      "stateMutability": "nonpayable",
      "type": "function"
    },
    {
      "inputs": [],
      "name": "weth_address",
      "outputs": [
        {
          "internalType": "address",
          "name": "",
          "type": "address"
        }
      ],
      "stateMutability": "view",
      "type": "function"
    },
    {
      "inputs": [],
      "name": "weth_fiat_price",
      "outputs": [
        {
          "internalType": "uint256",
          "name": "",
          "type": "uint256"
        }
      ],
      "stateMutability": "view",
      "type": "function"
    }
  ],
  "transactionHash": "0x70080ad63e34651c085d15921f28b46c29ecbf3a08ca2461b2a1aeed3623a9e6",
  "args": [],
  "solcInputHash": "7fc5f7df362effb291697cb25232d91e",
  "bytecode": "0x6080604052600260425534801561001557600080fd5b50612ba3806100256000396000f3fe608060405234801561001057600080fd5b50600436106103425760003560e01c806387a140c3116101b8578063b4f56b2611610104578063da6ed553116100a2578063ed99250c1161007c578063ed99250c1461064c578063eef772f214610654578063fa62921914610667578063fadb1b021461066f57610342565b8063da6ed5531461061e578063dd62ed3e14610626578063ed7e119f1461063957610342565b8063c03f7be3116100de578063c03f7be3146105f3578063ce202603146105fb578063d2d97b0614610603578063d914cd4b1461060b57610342565b8063b4f56b26146105d0578063b843153a146105e3578063bcdede5b146105eb57610342565b8063a50edca011610171578063abfd85751161014b578063abfd85751461058f578063b02f6aec146105a2578063b20b02aa146105b5578063b2d23622146105bd57610342565b8063a50edca014610561578063a8a778ae14610569578063a9059cbb1461057c57610342565b806387a140c31461051057806395d89b41146105185780639e92f14f146105205780639f5f79e014610533578063a367e27d14610546578063a457c2d71461054e57610342565b80633950935111610292578063686d14e61161023057806370a082311161020a57806370a08231146104da57806379cc6790146104ed57806380edef8e14610500578063870cfeab1461050857610342565b8063686d14e6146104b7578063688c0f47146104ca5780636c7ff97b146104d257610342565b806342966c681161026c57806342966c6814610476578063497b59611461048957806349daf9a41461049c5780635b078c76146104af57610342565b806339509351146104485780633b7d09461461045b5780634013124a1461046e57610342565b80631c098458116102ff57806325f10c9b116102d957806325f10c9b1461041057806326191e4b146104185780632fe16b9614610420578063313ce5671461043357610342565b80631c098458146103d557806323b872dd146103e8578063246126bd146103fb57610342565b806306fdde031461034757806308acfd2e14610365578063095ea7b31461037a5780631096f1031461039a57806313af4035146103ad57806318160ddd146103c0575b600080fd5b61034f610677565b60405161035c9190612650565b60405180910390f35b61037861037336600461242b565b610705565b005b61038d6103883660046124ba565b61075a565b60405161035c9190612645565b61038d6103a836600461242b565b610778565b6103786103bb36600461242b565b6107b0565b6103c861084a565b60405161035c9190612a88565b6103786103e33660046125c7565b610851565b61038d6103f636600461247a565b6108bb565b610403610948565b60405161035c9190612618565b6103c8610957565b6103c8610968565b61038d61042e36600461242b565b61096e565b61043b610983565b60405161035c9190612a91565b61038d6104563660046124ba565b610988565b61037861046936600461242b565b6109dc565b610378610b70565b6103786104843660046125c7565b610d85565b6104036104973660046125c7565b610d99565b6103786104aa366004612504565b610dc0565b6103c8610f30565b6103786104c536600461242b565b610fd9565b6103c86110e0565b6103786110e6565b6103c86104e836600461242b565b6112cf565b6103786104fb3660046124ba565b6112ea565b610403611345565b6103c8611354565b61038d61135a565b61034f611363565b61037861052e366004612446565b6113be565b6103786105413660046125c7565b611446565b6104036114a5565b61038d61055c3660046124ba565b6114b4565b61034f611522565b6103786105773660046124ba565b61157d565b61038d61058a3660046124ba565b61160a565b61037861059d3660046125c7565b61161e565b6103786105b03660046125c7565b61167b565b6103c86116e7565b6103786105cb366004612446565b6116ed565b6103786105de3660046124ba565b611775565b610403611800565b61038d61180f565b6103c8611918565b6103c861191e565b6103c8611924565b61037861061936600461242b565b6119e1565b610378611afd565b6103c8610634366004612446565b611b75565b6103c861064736600461242b565b611ba0565b6103c8611bb2565b6103786106623660046125c7565b611bbe565b6103c8611bed565b6103c8611c29565b6032805460408051602060026001851615610100026000190190941693909304601f810184900484028201840190925281815292918301828280156106fd5780601f106106d2576101008083540402835291602001916106fd565b820191906000526020600020905b8154815290600101906020018083116106e057829003601f168201915b505050505081565b6034546001600160a01b031633146107385760405162461bcd60e51b815260040161072f906127da565b60405180910390fd5b603680546001600160a01b0319166001600160a01b0392909216919091179055565b600061076e610767611c2f565b8484611c33565b5060015b92915050565b6042546001600160a01b0382166000908152604460205260408120549091906107a890439063ffffffff611ce716565b101592915050565b6034546001600160a01b031633146107da5760405162461bcd60e51b815260040161072f906127da565b6001600160a01b0381166108005760405162461bcd60e51b815260040161072f906129bc565b603480546001600160a01b0319166001600160a01b0383169081179091556040517f50146d0e3c60aa1d17a70635b05494f864e86144a2201275021014fbf08bafe290600090a250565b6002545b90565b6034546001600160a01b0316331461087b5760405162461bcd60e51b815260040161072f906127da565b603e8190556040517fa603e975ae74b9c52c4ab59b67b328222c699f765f89b808e8a2ae7c9ae2428e906108b0908390612a88565b60405180910390a150565b60006108c8848484611d30565b61093e846108d4611c2f565b61093985604051806060016040528060288152602001612afd602891396001600160a01b038a16600090815260016020526040812090610912611c2f565b6001600160a01b03168152602081019190915260400160002054919063ffffffff611e5116565b611c33565b5060019392505050565b603b546001600160a01b031681565b60006109636000611e7d565b905090565b603e5481565b603d6020526000908152604090205460ff1681565b601281565b600061076e610995611c2f565b8461093985600160006109a6611c2f565b6001600160a01b03908116825260208083019390935260409182016000908120918c16815292529020549063ffffffff61201516565b6034546001600160a01b03163314610a065760405162461bcd60e51b815260040161072f906127da565b6001600160a01b0381166000908152603d602052604090205460ff161515600114610a435760405162461bcd60e51b815260040161072f9061275f565b6001600160a01b0381166000908152603d60205260408120805460ff191690555b603c54811015610b4057816001600160a01b0316603c8281548110610a8557fe5b6000918252602090912001546001600160a01b03161415610b3857603c80546000198101908110610ab257fe5b600091825260209091200154603c80546001600160a01b039092169183908110610ad857fe5b9060005260206000200160006101000a8154816001600160a01b0302191690836001600160a01b03160217905550603c805480610b1157fe5b600082815260209020810160001990810180546001600160a01b0319169055019055610b40565b600101610a64565b507f4106dfdaa577573db51c0ca93f766dbedfa0758faa2e7f5bcdb7c142be803c3f816040516108b09190612618565b60435460ff16151560011415610b8557610d83565b603f5460455442031015610b9857610d83565b603760009054906101000a90046001600160a01b03166001600160a01b03166309bf39ed6040518163ffffffff1660e01b815260040160206040518083038186803b158015610be657600080fd5b505afa158015610bfa573d6000803e3d6000fd5b505050506040513d601f19601f82011682018060405250810190610c1e91906124e4565b15610c8c57603760009054906101000a90046001600160a01b03166001600160a01b031663d6f124f06040518163ffffffff1660e01b8152600401600060405180830381600087803b158015610c7357600080fd5b505af1158015610c87573d6000803e3d6000fd5b505050505b6000610c96610957565b9050610caf60415460405461201590919063ffffffff16565b811115610ce957603e54603a5411610ccb576000603a55610ce4565b603e54603a54610ce09163ffffffff611ce716565b603a555b610d4e565b604154604054610cfe9163ffffffff611ce716565b811015610d4e5764e8d4a51000610d22603e54603a5461201590919063ffffffff16565b10610d355764e8d4a51000603a55610d4e565b603e54603a54610d4a9163ffffffff61201516565b603a555b42604555603a546040517fb1200af9b3ac4dec88c9d01e1fb7cc7fa1f0fe55bf4afac1f30cc4fc2b2d1dd2916108b091612a88565b565b610d96610d90611c2f565b8261203a565b50565b603c8181548110610da657fe5b6000918252602090912001546001600160a01b0316905081565b603054610100900460ff1680610dd95750610dd961211c565b80610de7575060305460ff16155b610e035760405162461bcd60e51b815260040161072f90612809565b603054610100900460ff16158015610e2e576030805460ff1961ff0019909116610100171660011790555b8751610e419060329060208b01906122fe565b508651610e559060319060208a01906122fe565b508551610e699060339060208901906122fe565b50603480546001600160a01b038088166001600160a01b031992831617909255603680548784169083161790556035805492861692909116919091179055610ecf612710610ec364e8d4a51000601963ffffffff61212d16565b9063ffffffff61216716565b603e5564e8d4a51000603a8190556040819055610efb9061271090610ec390603263ffffffff61212d16565b604155610e10603f558115610f1457610f1485836121a9565b8015610f26576030805461ff00191690555b5050505050505050565b6039546040805163f245a92f60e01b815290516000926109639260ff600160a01b830416600a0a92610ec39264e8d4a51000926001600160a01b039091169163f245a92f91600480820192602092909190829003018186803b158015610f9557600080fd5b505afa158015610fa9573d6000803e3d6000fd5b505050506040513d601f19601f82011682018060405250810190610fcd91906125df565b9063ffffffff61212d16565b6034546001600160a01b031633146110035760405162461bcd60e51b815260040161072f906127da565b603980546001600160a01b0319166001600160a01b03838116919091179182905560408051633c05076160e21b81529051929091169163f0141d8491600480820192602092909190829003018186803b15801561105f57600080fd5b505afa158015611073573d6000803e3d6000fd5b505050506040513d601f19601f8201168201806040525081019061109791906125f7565b603960146101000a81548160ff021916908360ff1602179055507f6643a1fbc87d792d8e737bc2f2d5c0f1c7477ab534d0254404a448decceb3d97816040516108b09190612618565b603c5490565b603860009054906101000a90046001600160a01b03166001600160a01b03166309bf39ed6040518163ffffffff1660e01b815260040160206040518083038186803b15801561113457600080fd5b505afa158015611148573d6000803e3d6000fd5b505050506040513d601f19601f8201168201806040525081019061116c91906124e4565b156111da57603860009054906101000a90046001600160a01b03166001600160a01b031663d6f124f06040518163ffffffff1660e01b8152600401600060405180830381600087803b1580156111c157600080fd5b505af11580156111d5573d6000803e3d6000fd5b505050505b603760009054906101000a90046001600160a01b03166001600160a01b03166309bf39ed6040518163ffffffff1660e01b815260040160206040518083038186803b15801561122857600080fd5b505afa15801561123c573d6000803e3d6000fd5b505050506040513d601f19601f8201168201806040525081019061126091906124e4565b15610d8357603760009054906101000a90046001600160a01b03166001600160a01b031663d6f124f06040518163ffffffff1660e01b8152600401600060405180830381600087803b1580156112b557600080fd5b505af11580156112c9573d6000803e3d6000fd5b50505050565b6001600160a01b031660009081526020819052604090205490565b600061132282604051806060016040528060248152602001612b256024913961131586610634611c2f565b919063ffffffff611e5116565b905061133683611330611c2f565b83611c33565b611340838361203a565b505050565b6034546001600160a01b031681565b60455481565b60435460ff1681565b6031805460408051602060026001851615610100026000190190941693909304601f810184900484028201840190925281815292918301828280156106fd5780601f106106d2576101008083540402835291602001916106fd565b6034546001600160a01b031633146113e85760405162461bcd60e51b815260040161072f906127da565b603880546001600160a01b03199081166001600160a01b03858116918217909355603b80549092169284169283179091556040517fc9f7b9114f19207e2ab326f6283ffa7ca31152981ed14b34a1a8fb039bf562e490600090a35050565b6034546001600160a01b031633146114705760405162461bcd60e51b815260040161072f906127da565b60418190556040517fe9febe6aec89ff2870eeab6d13333c59cbed275b1d9a95f527c853d99ddb7cf4906108b0908390612a88565b6036546001600160a01b031681565b600061076e6114c1611c2f565b8461093985604051806060016040528060258152602001612b4960259139600160006114eb611c2f565b6001600160a01b03908116825260208083019390935260409182016000908120918d1681529252902054919063ffffffff611e5116565b6033805460408051602060026001851615610100026000190190941693909304601f810184900484028201840190925281815292918301828280156106fd5780601f106106d2576101008083540402835291602001916106fd565b336000908152603d602052604090205460ff1615156001146115b15760405162461bcd60e51b815260040161072f90612796565b6115bb8282612269565b336001600160a01b0316826001600160a01b03167f12d4d764706ce89037b449ff0dea7e084ef851d40ff63edaa38db6f33a581c7f836040516115fe9190612a88565b60405180910390a35050565b600061076e611617611c2f565b8484611d30565b6034546001600160a01b031633146116485760405162461bcd60e51b815260040161072f906127da565b6040818155517f898a2c9df7982133daaa8cfd78b8c49c520cba03205eec6480552c19059f6e3a906108b0908390612a88565b6034546001600160a01b031633146116a55760405162461bcd60e51b815260040161072f906127da565b603a8190556043805460ff191660011790556040517ff3cd0dd9cc1a87f0d8733b9942a8864d40cb15c961b612792723a0a7858dd53d906108b0908390612a88565b60415481565b6034546001600160a01b031633146117175760405162461bcd60e51b815260040161072f906127da565b603780546001600160a01b03199081166001600160a01b03858116918217909355603b80549092169284169283179091556040517f7bfb3b83b7a634aa3363e0d152007e16be1802bba198a3def769d8c1e4849f5f90600090a35050565b336000908152603d602052604090205460ff1615156001146117a95760405162461bcd60e51b815260040161072f90612796565b6117b382826121a9565b6001600160a01b038216600081815260446020526040908190204390555133907f69f651718349cff8d0d00acbb3ebb2bf127edbdfc02746168d5e35fb7998b399906115fe908590612a88565b6035546001600160a01b031681565b603854604080516309bf39ed60e01b815290516000926001600160a01b0316916309bf39ed916004808301926020929190829003018186803b15801561185457600080fd5b505afa158015611868573d6000803e3d6000fd5b505050506040513d601f19601f8201168201806040525081019061188c91906124e4565b806109635750603760009054906101000a90046001600160a01b03166001600160a01b03166309bf39ed6040518163ffffffff1660e01b815260040160206040518083038186803b1580156118e057600080fd5b505afa1580156118f4573d6000803e3d6000fd5b505050506040513d601f19601f8201168201806040525081019061096391906124e4565b603f5481565b60405481565b600080805b603c548110156119db576119d1603c828154811061194357fe5b6000918252602091829020015460408051639ccabfb560e01b815290516001600160a01b0390921692639ccabfb592600480840193829003018186803b15801561198c57600080fd5b505afa1580156119a0573d6000803e3d6000fd5b505050506040513d601f19601f820116820180604052508101906119c491906125df565b839063ffffffff61201516565b9150600101611929565b50905090565b6034546001600160a01b03163314611a0b5760405162461bcd60e51b815260040161072f906127da565b6001600160a01b0381166000908152603d602052604090205460ff1615611a445760405162461bcd60e51b815260040161072f90612898565b603c54602011611a665760405162461bcd60e51b815260040161072f90612906565b6001600160a01b0381166000818152603d6020526040808220805460ff19166001908117909155603c805491820181559092527fc6bb06cb7f92603de181bf256cd16846b93b752a170ff24824098b31aa008a7e90910180546001600160a01b031916909217909155517f73cca62ab1b520c9715bf4e6c71e3e518c754e7148f65102f43289a7df0efea6906108b0908390612618565b6034546001600160a01b03163314611b275760405162461bcd60e51b815260040161072f906127da565b6043805460ff19811660ff9182161517918290556040517f558e3ca434dbb046a1200c25235032a55789c63515e8c78f60495063b75e141f92611b6b921690612645565b60405180910390a1565b6001600160a01b03918216600090815260016020908152604080832093909416825291909152205490565b60446020526000908152604090205481565b60006109636001611e7d565b6034546001600160a01b03163314611be85760405162461bcd60e51b815260040161072f906127da565b604255565b600080611bf861084a565b90506000611c04611924565b90506000611c2183610ec38464e8d4a5100063ffffffff61212d16565b935050505090565b603a5481565b3390565b6001600160a01b038316611c595760405162461bcd60e51b815260040161072f90612978565b6001600160a01b038216611c7f5760405162461bcd60e51b815260040161072f906126e6565b6001600160a01b0380841660008181526001602090815260408083209487168084529490915290819020849055517f8c5be1e5ebec7d5bd14f71427d1e84f3dd0314c0f7b2291e5b200ac8c7c3b92590611cda908590612a88565b60405180910390a3505050565b6000611d2983836040518060400160405280601e81526020017f536166654d6174683a207375627472616374696f6e206f766572666c6f770000815250611e51565b9392505050565b6001600160a01b038316611d565760405162461bcd60e51b815260040161072f90612933565b6001600160a01b038216611d7c5760405162461bcd60e51b815260040161072f906126a3565b611d87838383611340565b611dca81604051806060016040528060268152602001612ad7602691396001600160a01b038616600090815260208190526040902054919063ffffffff611e5116565b6001600160a01b038085166000908152602081905260408082209390935590841681522054611dff908263ffffffff61201516565b6001600160a01b0380841660008181526020819052604090819020939093559151908516907fddf252ad1be2c89b69c2b068fc378daa952ba7f163c4a11628f55a4df523b3ef90611cda908590612a88565b60008184841115611e755760405162461bcd60e51b815260040161072f9190612650565b505050900390565b6039546040805163f245a92f60e01b815290516000928392611ee49260ff600160a01b840416600a0a92610ec39264e8d4a51000926001600160a01b039092169163f245a92f91600480820192602092909190829003018186803b158015610f9557600080fd5b9050600080846001811115611ef557fe5b1415611f8d57603754603b54604051633ddac95360e01b81526001600160a01b0392831692633ddac95392611f369291169064e8d4a510009060040161262c565b60206040518083038186803b158015611f4e57600080fd5b505afa158015611f62573d6000803e3d6000fd5b505050506040513d601f19601f82011682018060405250810190611f8691906125df565b9050611ff4565b6001846001811115611f9b57fe5b1415611fdc57603854603b54604051633ddac95360e01b81526001600160a01b0392831692633ddac95392611f369291169064e8d4a510009060040161262c565b60405162461bcd60e51b815260040161072f906129f3565b61200d81610ec38464e8d4a5100063ffffffff61212d16565b949350505050565b600082820183811015611d295760405162461bcd60e51b815260040161072f90612728565b6001600160a01b0382166120605760405162461bcd60e51b815260040161072f906128c5565b61206c82600083611340565b6120af81604051806060016040528060228152602001612ab5602291396001600160a01b038516600090815260208190526040902054919063ffffffff611e5116565b6001600160a01b0383166000908152602081905260409020556002546120db908263ffffffff611ce716565b6002556040516000906001600160a01b038416907fddf252ad1be2c89b69c2b068fc378daa952ba7f163c4a11628f55a4df523b3ef906115fe908590612a88565b6000612127306122c1565b15905090565b60008261213c57506000610772565b8282028284828161214957fe5b0414611d295760405162461bcd60e51b815260040161072f90612857565b6000611d2983836040518060400160405280601a81526020017f536166654d6174683a206469766973696f6e206279207a65726f0000000000008152506122c7565b6001600160a01b0382166121cf5760405162461bcd60e51b815260040161072f90612a51565b6121db60008383611340565b6002546121ee908263ffffffff61201516565b6002556001600160a01b03821660009081526020819052604090205461221a908263ffffffff61201516565b6001600160a01b0383166000818152602081905260408082209390935591519091907fddf252ad1be2c89b69c2b068fc378daa952ba7f163c4a11628f55a4df523b3ef906115fe908590612a88565b612273828261203a565b6122bd8261227f611c2f565b61093984604051806060016040528060248152602001612b25602491396001600160a01b038816600090815260016020526040812090610912611c2f565b5050565b3b151590565b600081836122e85760405162461bcd60e51b815260040161072f9190612650565b5060008385816122f457fe5b0495945050505050565b828054600181600116156101000203166002900490600052602060002090601f016020900481019282601f1061233f57805160ff191683800117855561236c565b8280016001018555821561236c579182015b8281111561236c578251825591602001919060010190612351565b5061237892915061237c565b5090565b61084e91905b808211156123785760008155600101612382565b80356001600160a01b038116811461077257600080fd5b600082601f8301126123bd578081fd5b813567ffffffffffffffff808211156123d4578283fd5b604051601f8301601f1916810160200182811182821017156123f4578485fd5b60405282815292508284830160200186101561240f57600080fd5b8260208601602083013760006020848301015250505092915050565b60006020828403121561243c578081fd5b611d298383612396565b60008060408385031215612458578081fd5b6124628484612396565b91506124718460208501612396565b90509250929050565b60008060006060848603121561248e578081fd5b833561249981612a9f565b925060208401356124a981612a9f565b929592945050506040919091013590565b600080604083850312156124cc578182fd5b6124d68484612396565b946020939093013593505050565b6000602082840312156124f5578081fd5b81518015158114611d29578182fd5b600080600080600080600060e0888a03121561251e578283fd5b873567ffffffffffffffff80821115612535578485fd5b6125418b838c016123ad565b985060208a0135915080821115612556578485fd5b6125628b838c016123ad565b975060408a0135915080821115612577578485fd5b506125848a828b016123ad565b9550506125948960608a01612396565b93506125a38960808a01612396565b92506125b28960a08a01612396565b915060c0880135905092959891949750929550565b6000602082840312156125d8578081fd5b5035919050565b6000602082840312156125f0578081fd5b5051919050565b600060208284031215612608578081fd5b815160ff81168114611d29578182fd5b6001600160a01b0391909116815260200190565b6001600160a01b03929092168252602082015260400190565b901515815260200190565b6000602080835283518082850152825b8181101561267c57858101830151858201604001528201612660565b8181111561268d5783604083870101525b50601f01601f1916929092016040019392505050565b60208082526023908201527f45524332303a207472616e7366657220746f20746865207a65726f206164647260408201526265737360e81b606082015260800190565b60208082526022908201527f45524332303a20617070726f766520746f20746865207a65726f206164647265604082015261737360f01b606082015260800190565b6020808252601b908201527f536166654d6174683a206164646974696f6e206f766572666c6f770000000000604082015260600190565b6020808252601d908201527f6164647265737320646f65736e277420657869737420616c7265616479000000604082015260600190565b60208082526024908201527f4f6e6c7920626420706f6f6c732063616e2063616c6c20746869732066756e636040820152633a34b7b760e11b606082015260800190565b6020808252601590820152742cb7ba9030b932903737ba103a34329037bbb732b960591b604082015260600190565b6020808252602e908201527f496e697469616c697a61626c653a20636f6e747261637420697320616c72656160408201526d191e481a5b9a5d1a585b1a5e995960921b606082015260800190565b60208082526021908201527f536166654d6174683a206d756c7469706c69636174696f6e206f766572666c6f6040820152607760f81b606082015260800190565b602080825260139082015272706f6f6c20616c72656164792065786973747360681b604082015260600190565b60208082526021908201527f45524332303a206275726e2066726f6d20746865207a65726f206164647265736040820152607360f81b606082015260800190565b6020808252601390820152721c1bdbdb1cc81b1a5b5a5d081c995858da1959606a1b604082015260600190565b60208082526025908201527f45524332303a207472616e736665722066726f6d20746865207a65726f206164604082015264647265737360d81b606082015260800190565b60208082526024908201527f45524332303a20617070726f76652066726f6d20746865207a65726f206164646040820152637265737360e01b606082015260800190565b6020808252601f908201527f4e6577206f776e65722063616e2774206265207a65726f206164647265737300604082015260600190565b602080825260409082018190527f494e56414c49442050524943452043484f4943452e204e6565647320746f2062908201527f6520656974686572203020284244535441424c4529206f722031202842445829606082015260800190565b6020808252601f908201527f45524332303a206d696e7420746f20746865207a65726f206164647265737300604082015260600190565b90815260200190565b60ff91909116815260200190565b6001600160a01b0381168114610d9657600080fdfe45524332303a206275726e20616d6f756e7420657863656564732062616c616e636545524332303a207472616e7366657220616d6f756e7420657863656564732062616c616e636545524332303a207472616e7366657220616d6f756e74206578636565647320616c6c6f77616e636545524332303a206275726e20616d6f756e74206578636565647320616c6c6f77616e636545524332303a2064656372656173656420616c6c6f77616e63652062656c6f77207a65726fa26469706673582212208c3980d4951c7749766905eb960b2cd2e55188b84b78524bbe87dfacf049f34f64736f6c634300060b0033",
  "devdoc": {
    "kind": "dev",
    "methods": {
      "allowance(address,address)": {
        "details": "See {IERC20-allowance}."
      },
      "approve(address,uint256)": {
        "details": "See {IERC20-approve}. Requirements: - `spender` cannot be the zero address.approve(address spender, uint256 amount)"
      },
      "balanceOf(address)": {
        "details": "See {IERC20-balanceOf}."
      },
      "burn(uint256)": {
        "details": "Destroys `amount` tokens from the caller. See {ERC20-_burn}."
      },
      "burnFrom(address,uint256)": {
        "details": "Destroys `amount` tokens from `account`, deducting from the caller's allowance. See {ERC20-_burn} and {ERC20-allowance}. Requirements: - the caller must have allowance for `accounts`'s tokens of at least `amount`."
      },
      "decreaseAllowance(address,uint256)": {
        "details": "Atomically decreases the allowance granted to `spender` by the caller. This is an alternative to {approve} that can be used as a mitigation for problems described in {IERC20-approve}. Emits an {Approval} event indicating the updated allowance. Requirements: - `spender` cannot be the zero address. - `spender` must have allowance for the caller of at least `subtractedValue`."
      },
      "increaseAllowance(address,uint256)": {
        "details": "Atomically increases the allowance granted to `spender` by the caller. This is an alternative to {approve} that can be used as a mitigation for problems described in {IERC20-approve}. Emits an {Approval} event indicating the updated allowance. Requirements: - `spender` cannot be the zero address."
      },
      "totalSupply()": {
        "details": "See {IERC20-totalSupply}."
      },
      "transfer(address,uint256)": {
        "details": "See {IERC20-transfer}. Requirements: - `recipient` cannot be the zero address. - the caller must have a balance of at least `amount`."
      },
      "transferFrom(address,address,uint256)": {
        "details": "See {IERC20-transferFrom}. Emits an {Approval} event indicating the updated allowance. This is not required by the EIP. See the note at the beginning of {ERC20}; Requirements: - `sender` and `recipient` cannot be the zero address. - `sender` must have a balance of at least `amount`. - the caller must have allowance for `sender`'s tokens of at least `amount`."
      }
    },
    "version": 1
  },
  "userdoc": {
    "kind": "user",
    "methods": {},
    "version": 1
  },
  "storageLayout": {
    "storage": [
      {
        "astId": 5875,
        "contract": "contracts/BdStable/BDStable.sol:BDStable",
        "label": "_balances",
        "offset": 0,
        "slot": "0",
        "type": "t_mapping(t_address,t_uint256)"
      },
      {
        "astId": 5881,
        "contract": "contracts/BdStable/BDStable.sol:BDStable",
        "label": "_allowances",
        "offset": 0,
        "slot": "1",
        "type": "t_mapping(t_address,t_mapping(t_address,t_uint256))"
      },
      {
        "astId": 5883,
        "contract": "contracts/BdStable/BDStable.sol:BDStable",
        "label": "_totalSupply",
        "offset": 0,
        "slot": "2",
        "type": "t_uint256"
      },
      {
        "astId": 6375,
        "contract": "contracts/BdStable/BDStable.sol:BDStable",
        "label": "__gap",
        "offset": 0,
        "slot": "3",
        "type": "t_array(t_uint256)45_storage"
      },
      {
        "astId": 492,
        "contract": "contracts/BdStable/BDStable.sol:BDStable",
        "label": "_initialized",
        "offset": 0,
        "slot": "48",
        "type": "t_bool"
      },
      {
        "astId": 495,
        "contract": "contracts/BdStable/BDStable.sol:BDStable",
        "label": "_initializing",
        "offset": 1,
        "slot": "48",
        "type": "t_bool"
      },
      {
        "astId": 1593,
        "contract": "contracts/BdStable/BDStable.sol:BDStable",
        "label": "symbol",
        "offset": 0,
        "slot": "49",
        "type": "t_string_storage"
      },
      {
        "astId": 1595,
        "contract": "contracts/BdStable/BDStable.sol:BDStable",
        "label": "name",
        "offset": 0,
        "slot": "50",
        "type": "t_string_storage"
      },
      {
        "astId": 1597,
        "contract": "contracts/BdStable/BDStable.sol:BDStable",
        "label": "fiat",
        "offset": 0,
        "slot": "51",
        "type": "t_string_storage"
      },
      {
        "astId": 1599,
        "contract": "contracts/BdStable/BDStable.sol:BDStable",
        "label": "owner_address",
        "offset": 0,
        "slot": "52",
        "type": "t_address"
      },
      {
        "astId": 1601,
        "contract": "contracts/BdStable/BDStable.sol:BDStable",
        "label": "bdx_address",
        "offset": 0,
        "slot": "53",
        "type": "t_address"
      },
      {
        "astId": 1603,
        "contract": "contracts/BdStable/BDStable.sol:BDStable",
        "label": "treasury_address",
        "offset": 0,
        "slot": "54",
        "type": "t_address"
      },
      {
        "astId": 1605,
        "contract": "contracts/BdStable/BDStable.sol:BDStable",
        "label": "bdstableWethOracle",
        "offset": 0,
        "slot": "55",
        "type": "t_contract(ICryptoPairOracle)8445"
      },
      {
        "astId": 1607,
        "contract": "contracts/BdStable/BDStable.sol:BDStable",
        "label": "bdxWethOracle",
        "offset": 0,
        "slot": "56",
        "type": "t_contract(ICryptoPairOracle)8445"
      },
      {
        "astId": 1609,
        "contract": "contracts/BdStable/BDStable.sol:BDStable",
        "label": "weth_fiat_pricer",
        "offset": 0,
        "slot": "57",
        "type": "t_contract(IChainlinkBasedCryptoFiatFeed)8425"
      },
      {
        "astId": 1611,
        "contract": "contracts/BdStable/BDStable.sol:BDStable",
        "label": "weth_fiat_pricer_decimals",
        "offset": 20,
        "slot": "57",
        "type": "t_uint8"
      },
      {
        "astId": 1613,
        "contract": "contracts/BdStable/BDStable.sol:BDStable",
        "label": "global_collateral_ratio_d12",
        "offset": 0,
        "slot": "58",
        "type": "t_uint256"
      },
      {
        "astId": 1615,
        "contract": "contracts/BdStable/BDStable.sol:BDStable",
        "label": "weth_address",
        "offset": 0,
        "slot": "59",
        "type": "t_address"
      },
      {
        "astId": 1618,
        "contract": "contracts/BdStable/BDStable.sol:BDStable",
        "label": "bdstable_pools_array",
        "offset": 0,
        "slot": "60",
        "type": "t_array(t_address)dyn_storage"
      },
      {
        "astId": 1622,
        "contract": "contracts/BdStable/BDStable.sol:BDStable",
        "label": "bdstable_pools",
        "offset": 0,
        "slot": "61",
        "type": "t_mapping(t_address,t_bool)"
      },
      {
        "astId": 1624,
        "contract": "contracts/BdStable/BDStable.sol:BDStable",
        "label": "bdStable_step_d12",
        "offset": 0,
        "slot": "62",
        "type": "t_uint256"
      },
      {
        "astId": 1626,
        "contract": "contracts/BdStable/BDStable.sol:BDStable",
        "label": "refresh_cooldown",
        "offset": 0,
        "slot": "63",
        "type": "t_uint256"
      },
      {
        "astId": 1628,
        "contract": "contracts/BdStable/BDStable.sol:BDStable",
        "label": "price_target_d12",
        "offset": 0,
        "slot": "64",
        "type": "t_uint256"
      },
      {
        "astId": 1630,
        "contract": "contracts/BdStable/BDStable.sol:BDStable",
        "label": "price_band_d12",
        "offset": 0,
        "slot": "65",
        "type": "t_uint256"
      },
      {
        "astId": 1633,
        "contract": "contracts/BdStable/BDStable.sol:BDStable",
        "label": "minimumMintRedeemDelayInBlocks",
        "offset": 0,
        "slot": "66",
        "type": "t_uint256"
      },
      {
        "astId": 1635,
        "contract": "contracts/BdStable/BDStable.sol:BDStable",
        "label": "collateral_ratio_paused",
        "offset": 0,
        "slot": "67",
        "type": "t_bool"
      },
      {
        "astId": 1639,
        "contract": "contracts/BdStable/BDStable.sol:BDStable",
        "label": "lastMintByUserBlock",
        "offset": 0,
        "slot": "68",
        "type": "t_mapping(t_address,t_uint256)"
      },
      {
        "astId": 1641,
        "contract": "contracts/BdStable/BDStable.sol:BDStable",
        "label": "refreshCollateralRatio_last_call_time",
        "offset": 0,
        "slot": "69",
        "type": "t_uint256"
      }
    ],
    "types": {
      "t_address": {
        "encoding": "inplace",
        "label": "address",
        "numberOfBytes": "20"
      },
      "t_array(t_address)dyn_storage": {
        "base": "t_address",
        "encoding": "dynamic_array",
        "label": "address[]",
        "numberOfBytes": "32"
      },
      "t_array(t_uint256)45_storage": {
        "base": "t_uint256",
        "encoding": "inplace",
        "label": "uint256[45]",
        "numberOfBytes": "1440"
      },
      "t_bool": {
        "encoding": "inplace",
        "label": "bool",
        "numberOfBytes": "1"
      },
      "t_contract(IChainlinkBasedCryptoFiatFeed)8425": {
        "encoding": "inplace",
        "label": "contract IChainlinkBasedCryptoFiatFeed",
        "numberOfBytes": "20"
      },
      "t_contract(ICryptoPairOracle)8445": {
        "encoding": "inplace",
        "label": "contract ICryptoPairOracle",
        "numberOfBytes": "20"
      },
      "t_mapping(t_address,t_bool)": {
        "encoding": "mapping",
        "key": "t_address",
        "label": "mapping(address => bool)",
        "numberOfBytes": "32",
        "value": "t_bool"
      },
      "t_mapping(t_address,t_mapping(t_address,t_uint256))": {
        "encoding": "mapping",
        "key": "t_address",
        "label": "mapping(address => mapping(address => uint256))",
        "numberOfBytes": "32",
        "value": "t_mapping(t_address,t_uint256)"
      },
      "t_mapping(t_address,t_uint256)": {
        "encoding": "mapping",
        "key": "t_address",
        "label": "mapping(address => uint256)",
        "numberOfBytes": "32",
        "value": "t_uint256"
      },
      "t_string_storage": {
        "encoding": "bytes",
        "label": "string",
        "numberOfBytes": "32"
      },
      "t_uint256": {
        "encoding": "inplace",
        "label": "uint256",
        "numberOfBytes": "32"
      },
      "t_uint8": {
        "encoding": "inplace",
        "label": "uint8",
        "numberOfBytes": "1"
      }
    }
  }
}