{
  "address": "0x309918F54bEeFAb76B1B96C6ee49Dac7e6aa5F36",
  "abi": [
    {
      "anonymous": false,
      "inputs": [
        {
          "indexed": true,
          "internalType": "address",
          "name": "owner",
          "type": "address"
        },
        {
          "indexed": true,
          "internalType": "address",
          "name": "spender",
          "type": "address"
        },
        {
          "indexed": false,
          "internalType": "uint256",
          "name": "value",
          "type": "uint256"
        }
      ],
      "name": "Approval",
      "type": "event"
    },
    {
      "anonymous": false,
      "inputs": [
        {
          "indexed": true,
          "internalType": "address",
          "name": "bdstable_oracle_addr",
          "type": "address"
        },
        {
          "indexed": true,
          "internalType": "address",
          "name": "weth_address",
          "type": "address"
        }
      ],
      "name": "BDStable_WETH_OracleSet",
      "type": "event"
    },
    {
      "anonymous": false,
      "inputs": [
        {
          "indexed": true,
          "internalType": "address",
          "name": "bdx_oracle_address",
          "type": "address"
        },
        {
          "indexed": true,
          "internalType": "address",
          "name": "weth_address",
          "type": "address"
        }
      ],
      "name": "BDX_WETH_OracleSet",
      "type": "event"
    },
    {
      "anonymous": false,
      "inputs": [
        {
          "indexed": true,
          "internalType": "address",
          "name": "from",
          "type": "address"
        },
        {
          "indexed": true,
          "internalType": "address",
          "name": "to",
          "type": "address"
        },
        {
          "indexed": false,
          "internalType": "uint256",
          "name": "amount",
          "type": "uint256"
        }
      ],
      "name": "BdStableBurned",
      "type": "event"
    },
    {
      "anonymous": false,
      "inputs": [
        {
          "indexed": true,
          "internalType": "address",
          "name": "from",
          "type": "address"
        },
        {
          "indexed": true,
          "internalType": "address",
          "name": "to",
          "type": "address"
        },
        {
          "indexed": false,
          "internalType": "uint256",
          "name": "amount",
          "type": "uint256"
        }
      ],
      "name": "BdStableMinted",
      "type": "event"
    },
    {
      "anonymous": false,
      "inputs": [
        {
          "indexed": false,
          "internalType": "uint256",
          "name": "bdStable_step_d12",
          "type": "uint256"
        }
      ],
      "name": "BdStableStepSet",
      "type": "event"
    },
    {
      "anonymous": false,
      "inputs": [
        {
          "indexed": false,
          "internalType": "uint256",
          "name": "lockedCR_d12",
          "type": "uint256"
        }
      ],
      "name": "CollateralRatioLocked",
      "type": "event"
    },
    {
      "anonymous": false,
      "inputs": [
        {
          "indexed": false,
          "internalType": "bool",
          "name": "collateral_ratio_paused",
          "type": "bool"
        }
      ],
      "name": "CollateralRatioPausedToggled",
      "type": "event"
    },
    {
      "anonymous": false,
      "inputs": [
        {
          "indexed": false,
          "internalType": "uint256",
          "name": "global_collateral_ratio",
          "type": "uint256"
        }
      ],
      "name": "CollateralRatioRefreshed",
      "type": "event"
    },
    {
      "anonymous": false,
      "inputs": [
        {
          "indexed": false,
          "internalType": "address",
          "name": "eth_fiat_consumer_address",
          "type": "address"
        }
      ],
      "name": "EthFiatOracleSet",
      "type": "event"
    },
    {
      "anonymous": false,
      "inputs": [
        {
          "indexed": false,
          "internalType": "address",
          "name": "pool_address",
          "type": "address"
        }
      ],
      "name": "PoolAdded",
      "type": "event"
    },
    {
      "anonymous": false,
      "inputs": [
        {
          "indexed": false,
          "internalType": "address",
          "name": "pool_address",
          "type": "address"
        }
      ],
      "name": "PoolRemoved",
      "type": "event"
    },
    {
      "anonymous": false,
      "inputs": [
        {
          "indexed": true,
          "internalType": "address",
          "name": "from",
          "type": "address"
        },
        {
          "indexed": true,
          "internalType": "address",
          "name": "to",
          "type": "address"
        },
        {
          "indexed": false,
          "internalType": "uint256",
          "name": "value",
          "type": "uint256"
        }
      ],
      "name": "Transfer",
      "type": "event"
    },
    {
      "inputs": [],
      "name": "BDX_price_d12",
      "outputs": [
        {
          "internalType": "uint256",
          "name": "",
          "type": "uint256"
        }
      ],
      "stateMutability": "view",
      "type": "function"
    },
    {
      "inputs": [
        {
          "internalType": "address",
          "name": "pool_address",
          "type": "address"
        }
      ],
      "name": "addPool",
      "outputs": [],
      "stateMutability": "nonpayable",
      "type": "function"
    },
    {
      "inputs": [],
      "name": "allPools",
      "outputs": [
        {
          "internalType": "address[]",
          "name": "",
          "type": "address[]"
        }
      ],
      "stateMutability": "view",
      "type": "function"
    },
    {
      "inputs": [
        {
          "internalType": "address",
          "name": "owner",
          "type": "address"
        },
        {
          "internalType": "address",
          "name": "spender",
          "type": "address"
        }
      ],
      "name": "allowance",
      "outputs": [
        {
          "internalType": "uint256",
          "name": "",
          "type": "uint256"
        }
      ],
      "stateMutability": "view",
      "type": "function"
    },
    {
      "inputs": [
        {
          "internalType": "address",
          "name": "spender",
          "type": "address"
        },
        {
          "internalType": "uint256",
          "name": "amount",
          "type": "uint256"
        }
      ],
      "name": "approve",
      "outputs": [
        {
          "internalType": "bool",
          "name": "",
          "type": "bool"
        }
      ],
      "stateMutability": "nonpayable",
      "type": "function"
    },
    {
      "inputs": [
        {
          "internalType": "address",
          "name": "account",
          "type": "address"
        }
      ],
      "name": "balanceOf",
      "outputs": [
        {
          "internalType": "uint256",
          "name": "",
          "type": "uint256"
        }
      ],
      "stateMutability": "view",
      "type": "function"
    },
    {
      "inputs": [],
      "name": "bdStable_step_d12",
      "outputs": [
        {
          "internalType": "uint256",
          "name": "",
          "type": "uint256"
        }
      ],
      "stateMutability": "view",
      "type": "function"
    },
    {
      "inputs": [
        {
          "internalType": "address",
          "name": "",
          "type": "address"
        }
      ],
      "name": "bdstable_pools",
      "outputs": [
        {
          "internalType": "bool",
          "name": "",
          "type": "bool"
        }
      ],
      "stateMutability": "view",
      "type": "function"
    },
    {
      "inputs": [
        {
          "internalType": "uint256",
          "name": "",
          "type": "uint256"
        }
      ],
      "name": "bdstable_pools_array",
      "outputs": [
        {
          "internalType": "address",
          "name": "",
          "type": "address"
        }
      ],
      "stateMutability": "view",
      "type": "function"
    },
    {
      "inputs": [],
      "name": "bdstable_price_d12",
      "outputs": [
        {
          "internalType": "uint256",
          "name": "",
          "type": "uint256"
        }
      ],
      "stateMutability": "view",
      "type": "function"
    },
    {
      "inputs": [],
      "name": "bdx_address",
      "outputs": [
        {
          "internalType": "address",
          "name": "",
          "type": "address"
        }
      ],
      "stateMutability": "view",
      "type": "function"
    },
    {
      "inputs": [
        {
          "internalType": "uint256",
          "name": "amount",
          "type": "uint256"
        }
      ],
      "name": "burn",
      "outputs": [],
      "stateMutability": "nonpayable",
      "type": "function"
    },
    {
      "inputs": [
        {
          "internalType": "address",
          "name": "account",
          "type": "address"
        },
        {
          "internalType": "uint256",
          "name": "amount",
          "type": "uint256"
        }
      ],
      "name": "burnFrom",
      "outputs": [],
      "stateMutability": "nonpayable",
      "type": "function"
    },
    {
      "inputs": [
        {
          "internalType": "address",
          "name": "who",
          "type": "address"
        }
      ],
      "name": "canLegallyRedeem",
      "outputs": [
        {
          "internalType": "bool",
          "name": "",
          "type": "bool"
        }
      ],
      "stateMutability": "view",
      "type": "function"
    },
    {
      "inputs": [],
      "name": "collateral_ratio_paused",
      "outputs": [
        {
          "internalType": "bool",
          "name": "",
          "type": "bool"
        }
      ],
      "stateMutability": "view",
      "type": "function"
    },
    {
      "inputs": [],
      "name": "decimals",
      "outputs": [
        {
          "internalType": "uint8",
          "name": "",
          "type": "uint8"
        }
      ],
      "stateMutability": "view",
      "type": "function"
    },
    {
      "inputs": [
        {
          "internalType": "address",
          "name": "spender",
          "type": "address"
        },
        {
          "internalType": "uint256",
          "name": "subtractedValue",
          "type": "uint256"
        }
      ],
      "name": "decreaseAllowance",
      "outputs": [
        {
          "internalType": "bool",
          "name": "",
          "type": "bool"
        }
      ],
      "stateMutability": "nonpayable",
      "type": "function"
    },
    {
      "inputs": [],
      "name": "effective_global_collateral_ratio_d12",
      "outputs": [
        {
          "internalType": "uint256",
          "name": "",
          "type": "uint256"
        }
      ],
      "stateMutability": "view",
      "type": "function"
    },
    {
      "inputs": [],
      "name": "fiat",
      "outputs": [
        {
          "internalType": "string",
          "name": "",
          "type": "string"
        }
      ],
      "stateMutability": "view",
      "type": "function"
    },
    {
      "inputs": [],
      "name": "globalCollateralValue",
      "outputs": [
        {
          "internalType": "uint256",
          "name": "",
          "type": "uint256"
        }
      ],
      "stateMutability": "view",
      "type": "function"
    },
    {
      "inputs": [],
      "name": "global_collateral_ratio_d12",
      "outputs": [
        {
          "internalType": "uint256",
          "name": "",
          "type": "uint256"
        }
      ],
      "stateMutability": "view",
      "type": "function"
    },
    {
      "inputs": [
        {
          "internalType": "address",
          "name": "spender",
          "type": "address"
        },
        {
          "internalType": "uint256",
          "name": "addedValue",
          "type": "uint256"
        }
      ],
      "name": "increaseAllowance",
      "outputs": [
        {
          "internalType": "bool",
          "name": "",
          "type": "bool"
        }
      ],
      "stateMutability": "nonpayable",
      "type": "function"
    },
    {
      "inputs": [
        {
          "internalType": "string",
          "name": "_name",
          "type": "string"
        },
        {
          "internalType": "string",
          "name": "_symbol",
          "type": "string"
        },
        {
          "internalType": "string",
          "name": "_fiat",
          "type": "string"
        },
        {
          "internalType": "address",
          "name": "_owner_address",
          "type": "address"
        },
        {
          "internalType": "address",
          "name": "_treasury_address",
          "type": "address"
        },
        {
          "internalType": "address",
          "name": "_bdx_address",
          "type": "address"
        },
        {
          "internalType": "uint256",
          "name": "_initalBdStableToOwner_d18",
          "type": "uint256"
        }
      ],
      "name": "initialize",
      "outputs": [],
      "stateMutability": "nonpayable",
      "type": "function"
    },
    {
      "inputs": [
        {
          "internalType": "address",
          "name": "",
          "type": "address"
        }
      ],
      "name": "lastMintByUserBlock",
      "outputs": [
        {
          "internalType": "uint256",
          "name": "",
          "type": "uint256"
        }
      ],
      "stateMutability": "view",
      "type": "function"
    },
    {
      "inputs": [
        {
          "internalType": "uint256",
          "name": "wantedCR_d12",
          "type": "uint256"
        }
      ],
      "name": "lockCollateralRatioAt",
      "outputs": [],
      "stateMutability": "nonpayable",
      "type": "function"
    },
    {
      "inputs": [],
      "name": "name",
      "outputs": [
        {
          "internalType": "string",
          "name": "",
          "type": "string"
        }
      ],
      "stateMutability": "view",
      "type": "function"
    },
    {
      "inputs": [],
      "name": "owner_address",
      "outputs": [
        {
          "internalType": "address",
          "name": "",
          "type": "address"
        }
      ],
      "stateMutability": "view",
      "type": "function"
    },
    {
      "inputs": [
        {
          "internalType": "address",
          "name": "b_address",
          "type": "address"
        },
        {
          "internalType": "uint256",
          "name": "b_amount",
          "type": "uint256"
        }
      ],
      "name": "pool_burn_from",
      "outputs": [],
      "stateMutability": "nonpayable",
      "type": "function"
    },
    {
      "inputs": [
        {
          "internalType": "address",
          "name": "m_address",
          "type": "address"
        },
        {
          "internalType": "uint256",
          "name": "m_amount",
          "type": "uint256"
        }
      ],
      "name": "pool_mint",
      "outputs": [],
      "stateMutability": "nonpayable",
      "type": "function"
    },
    {
      "inputs": [],
      "name": "price_band",
      "outputs": [
        {
          "internalType": "uint256",
          "name": "",
          "type": "uint256"
        }
      ],
      "stateMutability": "view",
      "type": "function"
    },
    {
      "inputs": [],
      "name": "price_target",
      "outputs": [
        {
          "internalType": "uint256",
          "name": "",
          "type": "uint256"
        }
      ],
      "stateMutability": "view",
      "type": "function"
    },
    {
      "inputs": [],
      "name": "refreshCollateralRatio",
      "outputs": [],
      "stateMutability": "nonpayable",
      "type": "function"
    },
    {
      "inputs": [],
      "name": "refreshCollateralRatio_last_call_time",
      "outputs": [
        {
          "internalType": "uint256",
          "name": "",
          "type": "uint256"
        }
      ],
      "stateMutability": "view",
      "type": "function"
    },
    {
      "inputs": [],
      "name": "refresh_cooldown",
      "outputs": [
        {
          "internalType": "uint256",
          "name": "",
          "type": "uint256"
        }
      ],
      "stateMutability": "view",
      "type": "function"
    },
    {
      "inputs": [
        {
          "internalType": "address",
          "name": "pool_address",
          "type": "address"
        }
      ],
      "name": "removePool",
      "outputs": [],
      "stateMutability": "nonpayable",
      "type": "function"
    },
    {
      "inputs": [
        {
          "internalType": "address",
          "name": "_bdstable_oracle_addr",
          "type": "address"
        },
        {
          "internalType": "address",
          "name": "_weth_address",
          "type": "address"
        }
      ],
      "name": "setBDStable_WETH_Oracle",
      "outputs": [],
      "stateMutability": "nonpayable",
      "type": "function"
    },
    {
      "inputs": [
        {
          "internalType": "address",
          "name": "_bdx_oracle_addr",
          "type": "address"
        },
        {
          "internalType": "address",
          "name": "_weth_address",
          "type": "address"
        }
      ],
      "name": "setBDX_WETH_Oracle",
      "outputs": [],
      "stateMutability": "nonpayable",
      "type": "function"
    },
    {
      "inputs": [
        {
          "internalType": "uint256",
          "name": "_bdStable_step_d12",
          "type": "uint256"
        }
      ],
      "name": "setBdStable_step_d12",
      "outputs": [],
      "stateMutability": "nonpayable",
      "type": "function"
    },
    {
      "inputs": [
        {
          "internalType": "address",
          "name": "_eth_fiat_consumer_address",
          "type": "address"
        }
      ],
      "name": "setETH_fiat_Oracle",
      "outputs": [],
      "stateMutability": "nonpayable",
      "type": "function"
    },
    {
      "inputs": [
        {
          "internalType": "uint256",
          "name": "_minimumMintRedeemDelayInBlocks",
          "type": "uint256"
        }
      ],
      "name": "setMinimumSwapsDelayInBlocks",
      "outputs": [],
      "stateMutability": "nonpayable",
      "type": "function"
    },
    {
      "inputs": [
        {
          "internalType": "address",
          "name": "_treasury_address",
          "type": "address"
        }
      ],
      "name": "setTreasury_address",
      "outputs": [],
      "stateMutability": "nonpayable",
      "type": "function"
    },
    {
      "inputs": [],
      "name": "shouldUpdateOracles",
      "outputs": [
        {
          "internalType": "bool",
          "name": "",
          "type": "bool"
        }
      ],
      "stateMutability": "view",
      "type": "function"
    },
    {
      "inputs": [],
      "name": "symbol",
      "outputs": [
        {
          "internalType": "string",
          "name": "",
          "type": "string"
        }
      ],
      "stateMutability": "view",
      "type": "function"
    },
    {
      "inputs": [],
      "name": "toggleCollateralRatioPaused",
      "outputs": [],
      "stateMutability": "nonpayable",
      "type": "function"
    },
    {
      "inputs": [],
      "name": "totalSupply",
      "outputs": [
        {
          "internalType": "uint256",
          "name": "",
          "type": "uint256"
        }
      ],
      "stateMutability": "view",
      "type": "function"
    },
    {
      "inputs": [
        {
          "internalType": "address",
          "name": "recipient",
          "type": "address"
        },
        {
          "internalType": "uint256",
          "name": "amount",
          "type": "uint256"
        }
      ],
      "name": "transfer",
      "outputs": [
        {
          "internalType": "bool",
          "name": "",
          "type": "bool"
        }
      ],
      "stateMutability": "nonpayable",
      "type": "function"
    },
    {
      "inputs": [
        {
          "internalType": "address",
          "name": "sender",
          "type": "address"
        },
        {
          "internalType": "address",
          "name": "recipient",
          "type": "address"
        },
        {
          "internalType": "uint256",
          "name": "amount",
          "type": "uint256"
        }
      ],
      "name": "transferFrom",
      "outputs": [
        {
          "internalType": "bool",
          "name": "",
          "type": "bool"
        }
      ],
      "stateMutability": "nonpayable",
      "type": "function"
    },
    {
      "inputs": [],
      "name": "treasury_address",
      "outputs": [
        {
          "internalType": "address",
          "name": "",
          "type": "address"
        }
      ],
      "stateMutability": "view",
      "type": "function"
    },
    {
      "inputs": [],
      "name": "updateOraclesIfNeeded",
      "outputs": [],
      "stateMutability": "nonpayable",
      "type": "function"
    },
    {
      "inputs": [],
      "name": "weth_address",
      "outputs": [
        {
          "internalType": "address",
          "name": "",
          "type": "address"
        }
      ],
      "stateMutability": "view",
      "type": "function"
    },
    {
      "inputs": [],
      "name": "weth_fiat_price",
      "outputs": [
        {
          "internalType": "uint256",
          "name": "",
          "type": "uint256"
        }
      ],
      "stateMutability": "view",
      "type": "function"
    }
  ],
  "transactionHash": "0x1840592264598ad573043f12c88a2b2639bdaa682ee3bf8cf4e626052e0e5551",
  "args": [],
  "solcInputHash": "36185021115f3fccbe06894bb4a1b398",
  "bytecode": "0x6080604052600060445534801561001557600080fd5b506129dd806100256000396000f3fe608060405234801561001057600080fd5b50600436106102f15760003560e01c806380edef8e1161019d578063b843153a116100e9578063da6ed553116100a2578063ed99250c1161007c578063ed99250c146105cf578063eef772f2146105d7578063fa629219146105ea578063fadb1b02146105f2576102f1565b8063da6ed553146105a1578063dd62ed3e146105a9578063ed7e119f146105bc576102f1565b8063b843153a14610559578063bcdede5b14610561578063c03f7be314610569578063c5c63e6514610571578063d2d97b0614610586578063d914cd4b1461058e576102f1565b8063a457c2d711610156578063a9059cbb11610130578063a9059cbb1461050d578063b02f6aec14610520578063b2d2362214610533578063b4f56b2614610546576102f1565b8063a457c2d7146104df578063a50edca0146104f2578063a8a778ae146104fa576102f1565b806380edef8e146104a4578063870cfeab146104ac57806387a140c3146104b457806395d89b41146104bc5780639e92f14f146104c4578063a367e27d146104d7576102f1565b80632fe16b961161025c578063497b596111610215578063686d14e6116101ef578063686d14e6146104635780636c7ff97b1461047657806370a082311461047e57806379cc679014610491576102f1565b8063497b59611461043557806349daf9a4146104485780635b078c761461045b576102f1565b80632fe16b96146103cc578063313ce567146103df57806339509351146103f45780633b7d0946146104075780634013124a1461041a57806342966c6814610422576102f1565b806323b872dd116102ae57806323b872dd14610384578063246126bd1461039757806325f10c9b146103ac57806326191e4b146103b45780632853fb10146103bc5780632cb4f63e146103c4576102f1565b806306fdde03146102f657806308acfd2e14610314578063095ea7b3146103295780631096f1031461034957806318160ddd1461035c5780631c09845814610371575b600080fd5b6102fe6105fa565b60405161030b91906124eb565b60405180910390f35b610327610322366004612279565b610688565b005b61033c610337366004612308565b6106dd565b60405161030b91906124e0565b61033c610357366004612279565b6106fb565b610364610733565b60405161030b91906128c2565b61032761037f366004612415565b61073a565b61033c6103923660046122c8565b6107a4565b61039f610831565b60405161030b9190612466565b610364610840565b610364610851565b610364610857565b61036461085d565b61033c6103da366004612279565b610863565b6103e7610878565b60405161030b91906128cb565b61033c610402366004612308565b61087d565b610327610415366004612279565b6108d1565b610327610a0f565b610327610430366004612415565b610c24565b61039f610443366004612415565b610c38565b610327610456366004612352565b610c5f565b610364610dd9565b610327610471366004612279565b610e82565b610327610f89565b61036461048c366004612279565b611172565b61032761049f366004612308565b61118d565b61039f6111e8565b6103646111f7565b61033c6111fd565b6102fe611206565b6103276104d2366004612294565b611261565b61039f6112e9565b61033c6104ed366004612308565b6112f8565b6102fe611366565b610327610508366004612308565b6113c1565b61033c61051b366004612308565b61144e565b61032761052e366004612415565b611462565b610327610541366004612294565b6114ce565b610327610554366004612308565b611556565b61039f6115e1565b61033c6115f0565b6103646116f9565b6105796116ff565b60405161030b9190612493565b610364611761565b61032761059c366004612279565b611851565b61032761194b565b6103646105b7366004612294565b6119c3565b6103646105ca366004612279565b6119ee565b610364611a00565b6103276105e5366004612415565b611a0c565b610364611a3b565b610364611a77565b6032805460408051602060026001851615610100026000190190941693909304601f810184900484028201840190925281815292918301828280156106805780601f1061065557610100808354040283529160200191610680565b820191906000526020600020905b81548152906001019060200180831161066357829003601f168201915b505050505081565b6034546001600160a01b031633146106bb5760405162461bcd60e51b81526004016106b290612675565b60405180910390fd5b603680546001600160a01b0319166001600160a01b0392909216919091179055565b60006106f16106ea611a7d565b8484611a81565b5060015b92915050565b6044546001600160a01b03821660009081526043602052604081205490919061072b90439063ffffffff611b3516565b101592915050565b6002545b90565b6034546001600160a01b031633146107645760405162461bcd60e51b81526004016106b290612675565b603e8190556040517fa603e975ae74b9c52c4ab59b67b328222c699f765f89b808e8a2ae7c9ae2428e906107999083906128c2565b60405180910390a150565b60006107b1848484611b7e565b610827846107bd611a7d565b61082285604051806060016040528060288152602001612937602891396001600160a01b038a166000908152600160205260408120906107fb611a7d565b6001600160a01b03168152602081019190915260400160002054919063ffffffff611c9f16565b611a81565b5060019392505050565b603b546001600160a01b031681565b600061084c6000611ccb565b905090565b603e5481565b60415481565b60405481565b603d6020526000908152604090205460ff1681565b601281565b60006106f161088a611a7d565b84610822856001600061089b611a7d565b6001600160a01b03908116825260208083019390935260409182016000908120918c16815292529020549063ffffffff611e6316565b6034546001600160a01b031633146108fb5760405162461bcd60e51b81526004016106b290612675565b6001600160a01b0381166000908152603d602052604090205460ff1615156001146109385760405162461bcd60e51b81526004016106b2906125fa565b6001600160a01b0381166000908152603d60205260408120805460ff191690555b603c548110156109df57816001600160a01b0316603c828154811061097a57fe5b6000918252602090912001546001600160a01b031614156109d7576000603c82815481106109a457fe5b9060005260206000200160006101000a8154816001600160a01b0302191690836001600160a01b031602179055506109df565b600101610959565b507f4106dfdaa577573db51c0ca93f766dbedfa0758faa2e7f5bcdb7c142be803c3f816040516107999190612466565b60425460ff16151560011415610a2457610c22565b603f5460455442031015610a3757610c22565b603760009054906101000a90046001600160a01b03166001600160a01b03166309bf39ed6040518163ffffffff1660e01b815260040160206040518083038186803b158015610a8557600080fd5b505afa158015610a99573d6000803e3d6000fd5b505050506040513d601f19601f82011682018060405250810190610abd9190612332565b15610b2b57603760009054906101000a90046001600160a01b03166001600160a01b031663d6f124f06040518163ffffffff1660e01b8152600401600060405180830381600087803b158015610b1257600080fd5b505af1158015610b26573d6000803e3d6000fd5b505050505b6000610b35610840565b9050610b4e604154604054611e6390919063ffffffff16565b811115610b8857603e54603a5411610b6a576000603a55610b83565b603e54603a54610b7f9163ffffffff611b3516565b603a555b610bed565b604154604054610b9d9163ffffffff611b3516565b811015610bed5764e8d4a51000610bc1603e54603a54611e6390919063ffffffff16565b10610bd45764e8d4a51000603a55610bed565b603e54603a54610be99163ffffffff611e6316565b603a555b42604555603a546040517fb1200af9b3ac4dec88c9d01e1fb7cc7fa1f0fe55bf4afac1f30cc4fc2b2d1dd291610799916128c2565b565b610c35610c2f611a7d565b82611e88565b50565b603c8181548110610c4557fe5b6000918252602090912001546001600160a01b0316905081565b603054610100900460ff1680610c785750610c78611f6a565b80610c86575060305460ff16155b610ca25760405162461bcd60e51b81526004016106b2906126a4565b603054610100900460ff16158015610ccd576030805460ff1961ff0019909116610100171660011790555b8751610ce09060329060208b019061214c565b508651610cf49060319060208a019061214c565b508551610d0890603390602089019061214c565b50603480546001600160a01b038088166001600160a01b031992831617909255603680548784169083161790556035805492861692909116919091179055610d6e612710610d6264e8d4a51000601963ffffffff611f7b16565b9063ffffffff611fb516565b603e5564e8d4a51000603a8190556040819055610d9a9061271090610d6290603263ffffffff611f7b16565b604155610e10603f556042805460ff191690558115610dbd57610dbd8583611ff7565b8015610dcf576030805461ff00191690555b5050505050505050565b6039546040805163f245a92f60e01b8152905160009261084c9260ff600160a01b830416600a0a92610d629264e8d4a51000926001600160a01b039091169163f245a92f91600480820192602092909190829003018186803b158015610e3e57600080fd5b505afa158015610e52573d6000803e3d6000fd5b505050506040513d601f19601f82011682018060405250810190610e76919061242d565b9063ffffffff611f7b16565b6034546001600160a01b03163314610eac5760405162461bcd60e51b81526004016106b290612675565b603980546001600160a01b0319166001600160a01b03838116919091179182905560408051633c05076160e21b81529051929091169163f0141d8491600480820192602092909190829003018186803b158015610f0857600080fd5b505afa158015610f1c573d6000803e3d6000fd5b505050506040513d601f19601f82011682018060405250810190610f409190612445565b603960146101000a81548160ff021916908360ff1602179055507f6643a1fbc87d792d8e737bc2f2d5c0f1c7477ab534d0254404a448decceb3d97816040516107999190612466565b603860009054906101000a90046001600160a01b03166001600160a01b03166309bf39ed6040518163ffffffff1660e01b815260040160206040518083038186803b158015610fd757600080fd5b505afa158015610feb573d6000803e3d6000fd5b505050506040513d601f19601f8201168201806040525081019061100f9190612332565b1561107d57603860009054906101000a90046001600160a01b03166001600160a01b031663d6f124f06040518163ffffffff1660e01b8152600401600060405180830381600087803b15801561106457600080fd5b505af1158015611078573d6000803e3d6000fd5b505050505b603760009054906101000a90046001600160a01b03166001600160a01b03166309bf39ed6040518163ffffffff1660e01b815260040160206040518083038186803b1580156110cb57600080fd5b505afa1580156110df573d6000803e3d6000fd5b505050506040513d601f19601f820116820180604052508101906111039190612332565b15610c2257603760009054906101000a90046001600160a01b03166001600160a01b031663d6f124f06040518163ffffffff1660e01b8152600401600060405180830381600087803b15801561115857600080fd5b505af115801561116c573d6000803e3d6000fd5b50505050565b6001600160a01b031660009081526020819052604090205490565b60006111c58260405180606001604052806024815260200161295f602491396111b8866105b7611a7d565b919063ffffffff611c9f16565b90506111d9836111d3611a7d565b83611a81565b6111e38383611e88565b505050565b6034546001600160a01b031681565b60455481565b60425460ff1681565b6031805460408051602060026001851615610100026000190190941693909304601f810184900484028201840190925281815292918301828280156106805780601f1061065557610100808354040283529160200191610680565b6034546001600160a01b0316331461128b5760405162461bcd60e51b81526004016106b290612675565b603880546001600160a01b03199081166001600160a01b03858116918217909355603b80549092169284169283179091556040517fc9f7b9114f19207e2ab326f6283ffa7ca31152981ed14b34a1a8fb039bf562e490600090a35050565b6036546001600160a01b031681565b60006106f1611305611a7d565b8461082285604051806060016040528060258152602001612983602591396001600061132f611a7d565b6001600160a01b03908116825260208083019390935260409182016000908120918d1681529252902054919063ffffffff611c9f16565b6033805460408051602060026001851615610100026000190190941693909304601f810184900484028201840190925281815292918301828280156106805780601f1061065557610100808354040283529160200191610680565b336000908152603d602052604090205460ff1615156001146113f55760405162461bcd60e51b81526004016106b290612631565b6113ff82826120b7565b336001600160a01b0316826001600160a01b03167f12d4d764706ce89037b449ff0dea7e084ef851d40ff63edaa38db6f33a581c7f8360405161144291906128c2565b60405180910390a35050565b60006106f161145b611a7d565b8484611b7e565b6034546001600160a01b0316331461148c5760405162461bcd60e51b81526004016106b290612675565b603a8190556042805460ff191660011790556040517ff3cd0dd9cc1a87f0d8733b9942a8864d40cb15c961b612792723a0a7858dd53d906107999083906128c2565b6034546001600160a01b031633146114f85760405162461bcd60e51b81526004016106b290612675565b603780546001600160a01b03199081166001600160a01b03858116918217909355603b80549092169284169283179091556040517f7bfb3b83b7a634aa3363e0d152007e16be1802bba198a3def769d8c1e4849f5f90600090a35050565b336000908152603d602052604090205460ff16151560011461158a5760405162461bcd60e51b81526004016106b290612631565b6115948282611ff7565b6001600160a01b038216600081815260436020526040908190204390555133907f69f651718349cff8d0d00acbb3ebb2bf127edbdfc02746168d5e35fb7998b399906114429085906128c2565b6035546001600160a01b031681565b603854604080516309bf39ed60e01b815290516000926001600160a01b0316916309bf39ed916004808301926020929190829003018186803b15801561163557600080fd5b505afa158015611649573d6000803e3d6000fd5b505050506040513d601f19601f8201168201806040525081019061166d9190612332565b8061084c5750603760009054906101000a90046001600160a01b03166001600160a01b03166309bf39ed6040518163ffffffff1660e01b815260040160206040518083038186803b1580156116c157600080fd5b505afa1580156116d5573d6000803e3d6000fd5b505050506040513d601f19601f8201168201806040525081019061084c9190612332565b603f5481565b6060603c80548060200260200160405190810160405280929190818152602001828054801561175757602002820191906000526020600020905b81546001600160a01b03168152600190910190602001808311611739575b5050505050905090565b600080805b603c5481101561184b5760006001600160a01b0316603c828154811061178857fe5b6000918252602090912001546001600160a01b03161461184357611840603c82815481106117b257fe5b6000918252602091829020015460408051639ccabfb560e01b815290516001600160a01b0390921692639ccabfb592600480840193829003018186803b1580156117fb57600080fd5b505afa15801561180f573d6000803e3d6000fd5b505050506040513d601f19601f82011682018060405250810190611833919061242d565b839063ffffffff611e6316565b91505b600101611766565b50905090565b6034546001600160a01b0316331461187b5760405162461bcd60e51b81526004016106b290612675565b6001600160a01b0381166000908152603d602052604090205460ff16156118b45760405162461bcd60e51b81526004016106b2906127fd565b6001600160a01b0381166000818152603d6020526040808220805460ff19166001908117909155603c805491820181559092527fc6bb06cb7f92603de181bf256cd16846b93b752a170ff24824098b31aa008a7e90910180546001600160a01b031916909217909155517f73cca62ab1b520c9715bf4e6c71e3e518c754e7148f65102f43289a7df0efea690610799908390612466565b6034546001600160a01b031633146119755760405162461bcd60e51b81526004016106b290612675565b6042805460ff19811660ff9182161517918290556040517f558e3ca434dbb046a1200c25235032a55789c63515e8c78f60495063b75e141f926119b99216906124e0565b60405180910390a1565b6001600160a01b03918216600090815260016020908152604080832093909416825291909152205490565b60436020526000908152604090205481565b600061084c6001611ccb565b6034546001600160a01b03163314611a365760405162461bcd60e51b81526004016106b290612675565b604455565b600080611a46610733565b90506000611a52611761565b90506000611a6f83610d628464e8d4a5100063ffffffff611f7b16565b935050505090565b603a5481565b3390565b6001600160a01b038316611aa75760405162461bcd60e51b81526004016106b2906127b9565b6001600160a01b038216611acd5760405162461bcd60e51b81526004016106b290612581565b6001600160a01b0380841660008181526001602090815260408083209487168084529490915290819020849055517f8c5be1e5ebec7d5bd14f71427d1e84f3dd0314c0f7b2291e5b200ac8c7c3b92590611b289085906128c2565b60405180910390a3505050565b6000611b7783836040518060400160405280601e81526020017f536166654d6174683a207375627472616374696f6e206f766572666c6f770000815250611c9f565b9392505050565b6001600160a01b038316611ba45760405162461bcd60e51b81526004016106b290612774565b6001600160a01b038216611bca5760405162461bcd60e51b81526004016106b29061253e565b611bd58383836111e3565b611c1881604051806060016040528060268152602001612911602691396001600160a01b038616600090815260208190526040902054919063ffffffff611c9f16565b6001600160a01b038085166000908152602081905260408082209390935590841681522054611c4d908263ffffffff611e6316565b6001600160a01b0380841660008181526020819052604090819020939093559151908516907fddf252ad1be2c89b69c2b068fc378daa952ba7f163c4a11628f55a4df523b3ef90611b289085906128c2565b60008184841115611cc35760405162461bcd60e51b81526004016106b291906124eb565b505050900390565b6039546040805163f245a92f60e01b815290516000928392611d329260ff600160a01b840416600a0a92610d629264e8d4a51000926001600160a01b039092169163f245a92f91600480820192602092909190829003018186803b158015610e3e57600080fd5b9050600080846001811115611d4357fe5b1415611ddb57603754603b54604051633ddac95360e01b81526001600160a01b0392831692633ddac95392611d849291169064e8d4a510009060040161247a565b60206040518083038186803b158015611d9c57600080fd5b505afa158015611db0573d6000803e3d6000fd5b505050506040513d601f19601f82011682018060405250810190611dd4919061242d565b9050611e42565b6001846001811115611de957fe5b1415611e2a57603854603b54604051633ddac95360e01b81526001600160a01b0392831692633ddac95392611d849291169064e8d4a510009060040161247a565b60405162461bcd60e51b81526004016106b29061282d565b611e5b81610d628464e8d4a5100063ffffffff611f7b16565b949350505050565b600082820183811015611b775760405162461bcd60e51b81526004016106b2906125c3565b6001600160a01b038216611eae5760405162461bcd60e51b81526004016106b290612733565b611eba826000836111e3565b611efd816040518060600160405280602281526020016128ef602291396001600160a01b038516600090815260208190526040902054919063ffffffff611c9f16565b6001600160a01b038316600090815260208190526040902055600254611f29908263ffffffff611b3516565b6002556040516000906001600160a01b038416907fddf252ad1be2c89b69c2b068fc378daa952ba7f163c4a11628f55a4df523b3ef906114429085906128c2565b6000611f753061210f565b15905090565b600082611f8a575060006106f5565b82820282848281611f9757fe5b0414611b775760405162461bcd60e51b81526004016106b2906126f2565b6000611b7783836040518060400160405280601a81526020017f536166654d6174683a206469766973696f6e206279207a65726f000000000000815250612115565b6001600160a01b03821661201d5760405162461bcd60e51b81526004016106b29061288b565b612029600083836111e3565b60025461203c908263ffffffff611e6316565b6002556001600160a01b038216600090815260208190526040902054612068908263ffffffff611e6316565b6001600160a01b0383166000818152602081905260408082209390935591519091907fddf252ad1be2c89b69c2b068fc378daa952ba7f163c4a11628f55a4df523b3ef906114429085906128c2565b6120c18282611e88565b61210b826120cd611a7d565b6108228460405180606001604052806024815260200161295f602491396001600160a01b0388166000908152600160205260408120906107fb611a7d565b5050565b3b151590565b600081836121365760405162461bcd60e51b81526004016106b291906124eb565b50600083858161214257fe5b0495945050505050565b828054600181600116156101000203166002900490600052602060002090601f016020900481019282601f1061218d57805160ff19168380011785556121ba565b828001600101855582156121ba579182015b828111156121ba57825182559160200191906001019061219f565b506121c69291506121ca565b5090565b61073791905b808211156121c657600081556001016121d0565b80356001600160a01b03811681146106f557600080fd5b600082601f83011261220b578081fd5b813567ffffffffffffffff80821115612222578283fd5b604051601f8301601f191681016020018281118282101715612242578485fd5b60405282815292508284830160200186101561225d57600080fd5b8260208601602083013760006020848301015250505092915050565b60006020828403121561228a578081fd5b611b7783836121e4565b600080604083850312156122a6578081fd5b6122b084846121e4565b91506122bf84602085016121e4565b90509250929050565b6000806000606084860312156122dc578081fd5b83356122e7816128d9565b925060208401356122f7816128d9565b929592945050506040919091013590565b6000806040838503121561231a578182fd5b61232484846121e4565b946020939093013593505050565b600060208284031215612343578081fd5b81518015158114611b77578182fd5b600080600080600080600060e0888a03121561236c578283fd5b873567ffffffffffffffff80821115612383578485fd5b61238f8b838c016121fb565b985060208a01359150808211156123a4578485fd5b6123b08b838c016121fb565b975060408a01359150808211156123c5578485fd5b506123d28a828b016121fb565b9550506123e28960608a016121e4565b93506123f18960808a016121e4565b92506124008960a08a016121e4565b915060c0880135905092959891949750929550565b600060208284031215612426578081fd5b5035919050565b60006020828403121561243e578081fd5b5051919050565b600060208284031215612456578081fd5b815160ff81168114611b77578182fd5b6001600160a01b0391909116815260200190565b6001600160a01b03929092168252602082015260400190565b6020808252825182820181905260009190848201906040850190845b818110156124d45783516001600160a01b0316835292840192918401916001016124af565b50909695505050505050565b901515815260200190565b6000602080835283518082850152825b81811015612517578581018301518582016040015282016124fb565b818111156125285783604083870101525b50601f01601f1916929092016040019392505050565b60208082526023908201527f45524332303a207472616e7366657220746f20746865207a65726f206164647260408201526265737360e81b606082015260800190565b60208082526022908201527f45524332303a20617070726f766520746f20746865207a65726f206164647265604082015261737360f01b606082015260800190565b6020808252601b908201527f536166654d6174683a206164646974696f6e206f766572666c6f770000000000604082015260600190565b6020808252601d908201527f6164647265737320646f65736e277420657869737420616c7265616479000000604082015260600190565b60208082526024908201527f4f6e6c7920626420706f6f6c732063616e2063616c6c20746869732066756e636040820152633a34b7b760e11b606082015260800190565b6020808252601590820152742cb7ba9030b932903737ba103a34329037bbb732b960591b604082015260600190565b6020808252602e908201527f496e697469616c697a61626c653a20636f6e747261637420697320616c72656160408201526d191e481a5b9a5d1a585b1a5e995960921b606082015260800190565b60208082526021908201527f536166654d6174683a206d756c7469706c69636174696f6e206f766572666c6f6040820152607760f81b606082015260800190565b60208082526021908201527f45524332303a206275726e2066726f6d20746865207a65726f206164647265736040820152607360f81b606082015260800190565b60208082526025908201527f45524332303a207472616e736665722066726f6d20746865207a65726f206164604082015264647265737360d81b606082015260800190565b60208082526024908201527f45524332303a20617070726f76652066726f6d20746865207a65726f206164646040820152637265737360e01b606082015260800190565b6020808252601690820152756164647265737320616c72656164792065786973747360501b604082015260600190565b602080825260409082018190527f494e56414c49442050524943452043484f4943452e204e6565647320746f2062908201527f6520656974686572203020284244535441424c4529206f722031202842445829606082015260800190565b6020808252601f908201527f45524332303a206d696e7420746f20746865207a65726f206164647265737300604082015260600190565b90815260200190565b60ff91909116815260200190565b6001600160a01b0381168114610c3557600080fdfe45524332303a206275726e20616d6f756e7420657863656564732062616c616e636545524332303a207472616e7366657220616d6f756e7420657863656564732062616c616e636545524332303a207472616e7366657220616d6f756e74206578636565647320616c6c6f77616e636545524332303a206275726e20616d6f756e74206578636565647320616c6c6f77616e636545524332303a2064656372656173656420616c6c6f77616e63652062656c6f77207a65726fa2646970667358221220d242febdb808f4da358ac927d1a6dec64b0e1f14567bf93dc94aaeafac87152d64736f6c634300060b0033",
  "devdoc": {
    "kind": "dev",
    "methods": {
      "allowance(address,address)": {
        "details": "See {IERC20-allowance}."
      },
      "approve(address,uint256)": {
        "details": "See {IERC20-approve}. Requirements: - `spender` cannot be the zero address.approve(address spender, uint256 amount)"
      },
      "balanceOf(address)": {
        "details": "See {IERC20-balanceOf}."
      },
      "burn(uint256)": {
        "details": "Destroys `amount` tokens from the caller. See {ERC20-_burn}."
      },
      "burnFrom(address,uint256)": {
        "details": "Destroys `amount` tokens from `account`, deducting from the caller's allowance. See {ERC20-_burn} and {ERC20-allowance}. Requirements: - the caller must have allowance for `accounts`'s tokens of at least `amount`."
      },
      "decreaseAllowance(address,uint256)": {
        "details": "Atomically decreases the allowance granted to `spender` by the caller. This is an alternative to {approve} that can be used as a mitigation for problems described in {IERC20-approve}. Emits an {Approval} event indicating the updated allowance. Requirements: - `spender` cannot be the zero address. - `spender` must have allowance for the caller of at least `subtractedValue`."
      },
      "increaseAllowance(address,uint256)": {
        "details": "Atomically increases the allowance granted to `spender` by the caller. This is an alternative to {approve} that can be used as a mitigation for problems described in {IERC20-approve}. Emits an {Approval} event indicating the updated allowance. Requirements: - `spender` cannot be the zero address."
      },
      "totalSupply()": {
        "details": "See {IERC20-totalSupply}."
      },
      "transfer(address,uint256)": {
        "details": "See {IERC20-transfer}. Requirements: - `recipient` cannot be the zero address. - the caller must have a balance of at least `amount`."
      },
      "transferFrom(address,address,uint256)": {
        "details": "See {IERC20-transferFrom}. Emits an {Approval} event indicating the updated allowance. This is not required by the EIP. See the note at the beginning of {ERC20}; Requirements: - `sender` and `recipient` cannot be the zero address. - `sender` must have a balance of at least `amount`. - the caller must have allowance for `sender`'s tokens of at least `amount`."
      }
    },
    "version": 1
  },
  "userdoc": {
    "kind": "user",
    "methods": {},
    "version": 1
  },
  "storageLayout": {
    "storage": [
      {
        "astId": 2176,
        "contract": "contracts/Frax/BDStable.sol:BDStable",
        "label": "_balances",
        "offset": 0,
        "slot": "0",
        "type": "t_mapping(t_address,t_uint256)"
      },
      {
        "astId": 2182,
        "contract": "contracts/Frax/BDStable.sol:BDStable",
        "label": "_allowances",
        "offset": 0,
        "slot": "1",
        "type": "t_mapping(t_address,t_mapping(t_address,t_uint256))"
      },
      {
        "astId": 2184,
        "contract": "contracts/Frax/BDStable.sol:BDStable",
        "label": "_totalSupply",
        "offset": 0,
        "slot": "2",
        "type": "t_uint256"
      },
      {
        "astId": 2676,
        "contract": "contracts/Frax/BDStable.sol:BDStable",
        "label": "__gap",
        "offset": 0,
        "slot": "3",
        "type": "t_array(t_uint256)45_storage"
      },
      {
        "astId": 492,
        "contract": "contracts/Frax/BDStable.sol:BDStable",
        "label": "_initialized",
        "offset": 0,
        "slot": "48",
        "type": "t_bool"
      },
      {
        "astId": 495,
        "contract": "contracts/Frax/BDStable.sol:BDStable",
        "label": "_initializing",
        "offset": 1,
        "slot": "48",
        "type": "t_bool"
      },
      {
        "astId": 3644,
        "contract": "contracts/Frax/BDStable.sol:BDStable",
        "label": "symbol",
        "offset": 0,
        "slot": "49",
        "type": "t_string_storage"
      },
      {
        "astId": 3646,
        "contract": "contracts/Frax/BDStable.sol:BDStable",
        "label": "name",
        "offset": 0,
        "slot": "50",
        "type": "t_string_storage"
      },
      {
        "astId": 3648,
        "contract": "contracts/Frax/BDStable.sol:BDStable",
        "label": "fiat",
        "offset": 0,
        "slot": "51",
        "type": "t_string_storage"
      },
      {
        "astId": 3650,
        "contract": "contracts/Frax/BDStable.sol:BDStable",
        "label": "owner_address",
        "offset": 0,
        "slot": "52",
        "type": "t_address"
      },
      {
        "astId": 3652,
        "contract": "contracts/Frax/BDStable.sol:BDStable",
        "label": "bdx_address",
        "offset": 0,
        "slot": "53",
        "type": "t_address"
      },
      {
        "astId": 3654,
        "contract": "contracts/Frax/BDStable.sol:BDStable",
        "label": "treasury_address",
        "offset": 0,
        "slot": "54",
        "type": "t_address"
      },
      {
        "astId": 3656,
        "contract": "contracts/Frax/BDStable.sol:BDStable",
        "label": "bdstableWethOracle",
        "offset": 0,
        "slot": "55",
        "type": "t_contract(ICryptoPairOracle)8494"
      },
      {
        "astId": 3658,
        "contract": "contracts/Frax/BDStable.sol:BDStable",
        "label": "bdxWethOracle",
        "offset": 0,
        "slot": "56",
        "type": "t_contract(ICryptoPairOracle)8494"
      },
      {
        "astId": 3660,
        "contract": "contracts/Frax/BDStable.sol:BDStable",
        "label": "weth_fiat_pricer",
        "offset": 0,
        "slot": "57",
        "type": "t_contract(IChainlinkBasedCryptoFiatFeed)8474"
      },
      {
        "astId": 3662,
        "contract": "contracts/Frax/BDStable.sol:BDStable",
        "label": "weth_fiat_pricer_decimals",
        "offset": 20,
        "slot": "57",
        "type": "t_uint8"
      },
      {
        "astId": 3664,
        "contract": "contracts/Frax/BDStable.sol:BDStable",
        "label": "global_collateral_ratio_d12",
        "offset": 0,
        "slot": "58",
        "type": "t_uint256"
      },
      {
        "astId": 3666,
        "contract": "contracts/Frax/BDStable.sol:BDStable",
        "label": "weth_address",
        "offset": 0,
        "slot": "59",
        "type": "t_address"
      },
      {
        "astId": 3669,
        "contract": "contracts/Frax/BDStable.sol:BDStable",
        "label": "bdstable_pools_array",
        "offset": 0,
        "slot": "60",
        "type": "t_array(t_address)dyn_storage"
      },
      {
        "astId": 3673,
        "contract": "contracts/Frax/BDStable.sol:BDStable",
        "label": "bdstable_pools",
        "offset": 0,
        "slot": "61",
        "type": "t_mapping(t_address,t_bool)"
      },
      {
        "astId": 3675,
        "contract": "contracts/Frax/BDStable.sol:BDStable",
        "label": "bdStable_step_d12",
        "offset": 0,
        "slot": "62",
        "type": "t_uint256"
      },
      {
        "astId": 3677,
        "contract": "contracts/Frax/BDStable.sol:BDStable",
        "label": "refresh_cooldown",
        "offset": 0,
        "slot": "63",
        "type": "t_uint256"
      },
      {
        "astId": 3679,
        "contract": "contracts/Frax/BDStable.sol:BDStable",
        "label": "price_target",
        "offset": 0,
        "slot": "64",
        "type": "t_uint256"
      },
      {
        "astId": 3681,
        "contract": "contracts/Frax/BDStable.sol:BDStable",
        "label": "price_band",
        "offset": 0,
        "slot": "65",
        "type": "t_uint256"
      },
      {
        "astId": 3683,
        "contract": "contracts/Frax/BDStable.sol:BDStable",
        "label": "collateral_ratio_paused",
        "offset": 0,
        "slot": "66",
        "type": "t_bool"
      },
      {
        "astId": 3687,
        "contract": "contracts/Frax/BDStable.sol:BDStable",
        "label": "lastMintByUserBlock",
        "offset": 0,
        "slot": "67",
        "type": "t_mapping(t_address,t_uint256)"
      },
      {
        "astId": 3690,
        "contract": "contracts/Frax/BDStable.sol:BDStable",
        "label": "minimumMintRedeemDelayInBlocks",
        "offset": 0,
        "slot": "68",
        "type": "t_uint256"
      },
      {
        "astId": 4033,
        "contract": "contracts/Frax/BDStable.sol:BDStable",
        "label": "refreshCollateralRatio_last_call_time",
        "offset": 0,
        "slot": "69",
        "type": "t_uint256"
      }
    ],
    "types": {
      "t_address": {
        "encoding": "inplace",
        "label": "address",
        "numberOfBytes": "20"
      },
      "t_array(t_address)dyn_storage": {
        "base": "t_address",
        "encoding": "dynamic_array",
        "label": "address[]",
        "numberOfBytes": "32"
      },
      "t_array(t_uint256)45_storage": {
        "base": "t_uint256",
        "encoding": "inplace",
        "label": "uint256[45]",
        "numberOfBytes": "1440"
      },
      "t_bool": {
        "encoding": "inplace",
        "label": "bool",
        "numberOfBytes": "1"
      },
      "t_contract(IChainlinkBasedCryptoFiatFeed)8474": {
        "encoding": "inplace",
        "label": "contract IChainlinkBasedCryptoFiatFeed",
        "numberOfBytes": "20"
      },
      "t_contract(ICryptoPairOracle)8494": {
        "encoding": "inplace",
        "label": "contract ICryptoPairOracle",
        "numberOfBytes": "20"
      },
      "t_mapping(t_address,t_bool)": {
        "encoding": "mapping",
        "key": "t_address",
        "label": "mapping(address => bool)",
        "numberOfBytes": "32",
        "value": "t_bool"
      },
      "t_mapping(t_address,t_mapping(t_address,t_uint256))": {
        "encoding": "mapping",
        "key": "t_address",
        "label": "mapping(address => mapping(address => uint256))",
        "numberOfBytes": "32",
        "value": "t_mapping(t_address,t_uint256)"
      },
      "t_mapping(t_address,t_uint256)": {
        "encoding": "mapping",
        "key": "t_address",
        "label": "mapping(address => uint256)",
        "numberOfBytes": "32",
        "value": "t_uint256"
      },
      "t_string_storage": {
        "encoding": "bytes",
        "label": "string",
        "numberOfBytes": "32"
      },
      "t_uint256": {
        "encoding": "inplace",
        "label": "uint256",
        "numberOfBytes": "32"
      },
      "t_uint8": {
        "encoding": "inplace",
        "label": "uint8",
        "numberOfBytes": "1"
      }
    }
  }
}