{
  "address": "0xF21e9F32316cc91A2a3Fca5547E5FA1f302BC5F7",
  "abi": [
    {
      "anonymous": false,
      "inputs": [
        {
          "indexed": true,
          "internalType": "uint256",
          "name": "bdx_amount_paid",
          "type": "uint256"
        },
        {
          "indexed": true,
          "internalType": "uint256",
          "name": "collateral_paid_back",
          "type": "uint256"
        }
      ],
      "name": "BoughtBack",
      "type": "event"
    },
    {
      "anonymous": false,
      "inputs": [
        {
          "indexed": false,
          "internalType": "bool",
          "name": "buybackOnlyForOwner",
          "type": "bool"
        }
      ],
      "name": "BuybackOnlyForOwnerToggled",
      "type": "event"
    },
    {
      "anonymous": false,
      "inputs": [
        {
          "indexed": false,
          "internalType": "bool",
          "name": "toggled",
          "type": "bool"
        }
      ],
      "name": "BuybackPausedToggled",
      "type": "event"
    },
    {
      "anonymous": false,
      "inputs": [
        {
          "indexed": false,
          "internalType": "bool",
          "name": "toggled",
          "type": "bool"
        }
      ],
      "name": "CollateralPriceToggled",
      "type": "event"
    },
    {
      "anonymous": false,
      "inputs": [
        {
          "indexed": true,
          "internalType": "address",
          "name": "collateral_weth_oracle_address",
          "type": "address"
        },
        {
          "indexed": true,
          "internalType": "address",
          "name": "weth_address",
          "type": "address"
        }
      ],
      "name": "CollateralWethOracleSet",
      "type": "event"
    },
    {
      "anonymous": false,
      "inputs": [
        {
          "indexed": false,
          "internalType": "bool",
          "name": "toggled",
          "type": "bool"
        }
      ],
      "name": "MintingPausedToggled",
      "type": "event"
    },
    {
      "anonymous": false,
      "inputs": [
        {
          "indexed": true,
          "internalType": "address",
          "name": "newOwner",
          "type": "address"
        }
      ],
      "name": "OwnerSet",
      "type": "event"
    },
    {
      "anonymous": false,
      "inputs": [
        {
          "indexed": false,
          "internalType": "uint256",
          "name": "new_ceiling",
          "type": "uint256"
        },
        {
          "indexed": false,
          "internalType": "uint256",
          "name": "new_bonus_rate",
          "type": "uint256"
        },
        {
          "indexed": false,
          "internalType": "uint256",
          "name": "new_redemption_delay",
          "type": "uint256"
        },
        {
          "indexed": false,
          "internalType": "uint256",
          "name": "new_mint_fee",
          "type": "uint256"
        },
        {
          "indexed": false,
          "internalType": "uint256",
          "name": "new_redeem_fee",
          "type": "uint256"
        },
        {
          "indexed": false,
          "internalType": "uint256",
          "name": "new_buyback_fee",
          "type": "uint256"
        },
        {
          "indexed": false,
          "internalType": "uint256",
          "name": "new_recollat_fee",
          "type": "uint256"
        }
      ],
      "name": "PoolParametersSet",
      "type": "event"
    },
    {
      "anonymous": false,
      "inputs": [
        {
          "indexed": false,
          "internalType": "bool",
          "name": "recollateralizeOnlyForOwner",
          "type": "bool"
        }
      ],
      "name": "RecollateralizeOnlyForOwnerToggled",
      "type": "event"
    },
    {
      "anonymous": false,
      "inputs": [
        {
          "indexed": false,
          "internalType": "bool",
          "name": "toggled",
          "type": "bool"
        }
      ],
      "name": "RecollateralizePausedToggled",
      "type": "event"
    },
    {
      "anonymous": false,
      "inputs": [
        {
          "indexed": true,
          "internalType": "uint256",
          "name": "collateral_amount_paid",
          "type": "uint256"
        },
        {
          "indexed": true,
          "internalType": "uint256",
          "name": "bdx_paid_back",
          "type": "uint256"
        }
      ],
      "name": "Recollateralized",
      "type": "event"
    },
    {
      "anonymous": false,
      "inputs": [
        {
          "indexed": false,
          "internalType": "bool",
          "name": "toggled",
          "type": "bool"
        }
      ],
      "name": "RedeemingPausedToggled",
      "type": "event"
    },
    {
      "inputs": [],
      "name": "availableExcessCollatDV",
      "outputs": [
        {
          "internalType": "uint256",
          "name": "",
          "type": "uint256"
        }
      ],
      "stateMutability": "view",
      "type": "function"
    },
    {
      "inputs": [],
      "name": "bonus_rate",
      "outputs": [
        {
          "internalType": "uint256",
          "name": "",
          "type": "uint256"
        }
      ],
      "stateMutability": "view",
      "type": "function"
    },
    {
      "inputs": [
        {
          "internalType": "uint256",
          "name": "BDX_amount",
          "type": "uint256"
        },
        {
          "internalType": "uint256",
          "name": "COLLATERAL_out_min",
          "type": "uint256"
        }
      ],
      "name": "buyBackBDX",
      "outputs": [],
      "stateMutability": "nonpayable",
      "type": "function"
    },
    {
      "inputs": [],
      "name": "buyBackPaused",
      "outputs": [
        {
          "internalType": "bool",
          "name": "",
          "type": "bool"
        }
      ],
      "stateMutability": "view",
      "type": "function"
    },
    {
      "inputs": [],
      "name": "buybackOnlyForOwner",
      "outputs": [
        {
          "internalType": "bool",
          "name": "",
          "type": "bool"
        }
      ],
      "stateMutability": "view",
      "type": "function"
    },
    {
      "inputs": [],
      "name": "buyback_fee",
      "outputs": [
        {
          "internalType": "uint256",
          "name": "",
          "type": "uint256"
        }
      ],
      "stateMutability": "view",
      "type": "function"
    },
    {
      "inputs": [],
      "name": "collatFiatBalance",
      "outputs": [
        {
          "internalType": "uint256",
          "name": "",
          "type": "uint256"
        }
      ],
      "stateMutability": "view",
      "type": "function"
    },
    {
      "inputs": [],
      "name": "collateralPricePaused",
      "outputs": [
        {
          "internalType": "bool",
          "name": "",
          "type": "bool"
        }
      ],
      "stateMutability": "view",
      "type": "function"
    },
    {
      "inputs": [],
      "name": "collateral_address",
      "outputs": [
        {
          "internalType": "address",
          "name": "",
          "type": "address"
        }
      ],
      "stateMutability": "view",
      "type": "function"
    },
    {
      "inputs": [],
      "name": "collectRedemption",
      "outputs": [],
      "stateMutability": "nonpayable",
      "type": "function"
    },
    {
      "inputs": [],
      "name": "getCollateralPrice_d12",
      "outputs": [
        {
          "internalType": "uint256",
          "name": "",
          "type": "uint256"
        }
      ],
      "stateMutability": "view",
      "type": "function"
    },
    {
      "inputs": [
        {
          "internalType": "uint256",
          "name": "_watned_amount_d18",
          "type": "uint256"
        }
      ],
      "name": "howMuchBdxCanBeMinted",
      "outputs": [
        {
          "internalType": "uint256",
          "name": "",
          "type": "uint256"
        }
      ],
      "stateMutability": "view",
      "type": "function"
    },
    {
      "inputs": [
        {
          "internalType": "address",
          "name": "_bdstable_contract_address",
          "type": "address"
        },
        {
          "internalType": "address",
          "name": "_bdx_contract_address",
          "type": "address"
        },
        {
          "internalType": "address",
          "name": "_collateral_address",
          "type": "address"
        },
        {
          "internalType": "address",
          "name": "_creator_address",
          "type": "address"
        }
      ],
      "name": "initialize",
      "outputs": [],
      "stateMutability": "nonpayable",
      "type": "function"
    },
    {
      "inputs": [
        {
          "internalType": "address",
          "name": "",
          "type": "address"
        }
      ],
      "name": "lastRedeemed",
      "outputs": [
        {
          "internalType": "uint256",
          "name": "",
          "type": "uint256"
        }
      ],
      "stateMutability": "view",
      "type": "function"
    },
    {
      "inputs": [
        {
          "internalType": "uint256",
          "name": "collateral_amount",
          "type": "uint256"
        },
        {
          "internalType": "uint256",
          "name": "BD_out_min",
          "type": "uint256"
        }
      ],
      "name": "mint1t1BD",
      "outputs": [],
      "stateMutability": "nonpayable",
      "type": "function"
    },
    {
      "inputs": [
        {
          "internalType": "uint256",
          "name": "bdx_amount_d18",
          "type": "uint256"
        },
        {
          "internalType": "uint256",
          "name": "bdStable_out_min",
          "type": "uint256"
        }
      ],
      "name": "mintAlgorithmicBdStable",
      "outputs": [],
      "stateMutability": "nonpayable",
      "type": "function"
    },
    {
      "inputs": [
        {
          "internalType": "uint256",
          "name": "collateral_amount",
          "type": "uint256"
        },
        {
          "internalType": "uint256",
          "name": "bdx_in_max",
          "type": "uint256"
        },
        {
          "internalType": "uint256",
          "name": "bdStable_out_min",
          "type": "uint256"
        }
      ],
      "name": "mintFractionalBdStable",
      "outputs": [],
      "stateMutability": "nonpayable",
      "type": "function"
    },
    {
      "inputs": [],
      "name": "mintPaused",
      "outputs": [
        {
          "internalType": "bool",
          "name": "",
          "type": "bool"
        }
      ],
      "stateMutability": "view",
      "type": "function"
    },
    {
      "inputs": [],
      "name": "minting_fee",
      "outputs": [
        {
          "internalType": "uint256",
          "name": "",
          "type": "uint256"
        }
      ],
      "stateMutability": "view",
      "type": "function"
    },
    {
      "inputs": [],
      "name": "owner_address",
      "outputs": [
        {
          "internalType": "address",
          "name": "",
          "type": "address"
        }
      ],
      "stateMutability": "view",
      "type": "function"
    },
    {
      "inputs": [],
      "name": "pausedPrice",
      "outputs": [
        {
          "internalType": "uint256",
          "name": "",
          "type": "uint256"
        }
      ],
      "stateMutability": "view",
      "type": "function"
    },
    {
      "inputs": [],
      "name": "pool_ceiling",
      "outputs": [
        {
          "internalType": "uint256",
          "name": "",
          "type": "uint256"
        }
      ],
      "stateMutability": "view",
      "type": "function"
    },
    {
      "inputs": [],
      "name": "recollat_fee",
      "outputs": [
        {
          "internalType": "uint256",
          "name": "",
          "type": "uint256"
        }
      ],
      "stateMutability": "view",
      "type": "function"
    },
    {
      "inputs": [
        {
          "internalType": "uint256",
          "name": "collateral_amount",
          "type": "uint256"
        },
        {
          "internalType": "uint256",
          "name": "BDX_out_min",
          "type": "uint256"
        }
      ],
      "name": "recollateralizeBdStable",
      "outputs": [],
      "stateMutability": "nonpayable",
      "type": "function"
    },
    {
      "inputs": [],
      "name": "recollateralizeOnlyForOwner",
      "outputs": [
        {
          "internalType": "bool",
          "name": "",
          "type": "bool"
        }
      ],
      "stateMutability": "view",
      "type": "function"
    },
    {
      "inputs": [],
      "name": "recollateralizePaused",
      "outputs": [
        {
          "internalType": "bool",
          "name": "",
          "type": "bool"
        }
      ],
      "stateMutability": "view",
      "type": "function"
    },
    {
      "inputs": [
        {
          "internalType": "uint256",
          "name": "BD_amount",
          "type": "uint256"
        },
        {
          "internalType": "uint256",
          "name": "COLLATERAL_out_min",
          "type": "uint256"
        }
      ],
      "name": "redeem1t1BD",
      "outputs": [],
      "stateMutability": "nonpayable",
      "type": "function"
    },
    {
      "inputs": [
        {
          "internalType": "uint256",
          "name": "bdStable_amount",
          "type": "uint256"
        },
        {
          "internalType": "uint256",
          "name": "bdx_out_min",
          "type": "uint256"
        }
      ],
      "name": "redeemAlgorithmicBdStable",
      "outputs": [],
      "stateMutability": "nonpayable",
      "type": "function"
    },
    {
      "inputs": [
        {
          "internalType": "address",
          "name": "",
          "type": "address"
        }
      ],
      "name": "redeemBDXBalances",
      "outputs": [
        {
          "internalType": "uint256",
          "name": "",
          "type": "uint256"
        }
      ],
      "stateMutability": "view",
      "type": "function"
    },
    {
      "inputs": [
        {
          "internalType": "address",
          "name": "",
          "type": "address"
        }
      ],
      "name": "redeemCollateralBalances",
      "outputs": [
        {
          "internalType": "uint256",
          "name": "",
          "type": "uint256"
        }
      ],
      "stateMutability": "view",
      "type": "function"
    },
    {
      "inputs": [
        {
          "internalType": "uint256",
          "name": "BdStable_amount",
          "type": "uint256"
        },
        {
          "internalType": "uint256",
          "name": "BDX_out_min",
          "type": "uint256"
        },
        {
          "internalType": "uint256",
          "name": "COLLATERAL_out_min",
          "type": "uint256"
        }
      ],
      "name": "redeemFractionalBdStable",
      "outputs": [],
      "stateMutability": "nonpayable",
      "type": "function"
    },
    {
      "inputs": [],
      "name": "redeemPaused",
      "outputs": [
        {
          "internalType": "bool",
          "name": "",
          "type": "bool"
        }
      ],
      "stateMutability": "view",
      "type": "function"
    },
    {
      "inputs": [],
      "name": "redemption_delay",
      "outputs": [
        {
          "internalType": "uint256",
          "name": "",
          "type": "uint256"
        }
      ],
      "stateMutability": "view",
      "type": "function"
    },
    {
      "inputs": [],
      "name": "redemption_fee",
      "outputs": [
        {
          "internalType": "uint256",
          "name": "",
          "type": "uint256"
        }
      ],
      "stateMutability": "view",
      "type": "function"
    },
    {
      "inputs": [
        {
          "internalType": "address",
          "name": "_collateral_weth_oracle_address",
          "type": "address"
        },
        {
          "internalType": "address",
          "name": "_weth_address",
          "type": "address"
        }
      ],
      "name": "setCollatWETHOracle",
      "outputs": [],
      "stateMutability": "nonpayable",
      "type": "function"
    },
    {
      "inputs": [
        {
          "internalType": "address",
          "name": "_owner_address",
          "type": "address"
        }
      ],
      "name": "setOwner",
      "outputs": [],
      "stateMutability": "nonpayable",
      "type": "function"
    },
    {
      "inputs": [
        {
          "internalType": "uint256",
          "name": "new_ceiling",
          "type": "uint256"
        },
        {
          "internalType": "uint256",
          "name": "new_bonus_rate",
          "type": "uint256"
        },
        {
          "internalType": "uint256",
          "name": "new_redemption_delay",
          "type": "uint256"
        },
        {
          "internalType": "uint256",
          "name": "new_mint_fee",
          "type": "uint256"
        },
        {
          "internalType": "uint256",
          "name": "new_redeem_fee",
          "type": "uint256"
        },
        {
          "internalType": "uint256",
          "name": "new_buyback_fee",
          "type": "uint256"
        },
        {
          "internalType": "uint256",
          "name": "new_recollat_fee",
          "type": "uint256"
        }
      ],
      "name": "setPoolParameters",
      "outputs": [],
      "stateMutability": "nonpayable",
      "type": "function"
    },
    {
      "inputs": [],
      "name": "toggleBuybackOnlyForOwner",
      "outputs": [],
      "stateMutability": "nonpayable",
      "type": "function"
    },
    {
      "inputs": [],
      "name": "toggleBuybackPaused",
      "outputs": [],
      "stateMutability": "nonpayable",
      "type": "function"
    },
    {
      "inputs": [
        {
          "internalType": "uint256",
          "name": "_new_price",
          "type": "uint256"
        }
      ],
      "name": "toggleCollateralPricePaused",
      "outputs": [],
      "stateMutability": "nonpayable",
      "type": "function"
    },
    {
      "inputs": [],
      "name": "toggleMintingPaused",
      "outputs": [],
      "stateMutability": "nonpayable",
      "type": "function"
    },
    {
      "inputs": [],
      "name": "toggleRecollateralizeOnlyForOwner",
      "outputs": [],
      "stateMutability": "nonpayable",
      "type": "function"
    },
    {
      "inputs": [],
      "name": "toggleRecollateralizePaused",
      "outputs": [],
      "stateMutability": "nonpayable",
      "type": "function"
    },
    {
      "inputs": [],
      "name": "toggleRedeemingPaused",
      "outputs": [],
      "stateMutability": "nonpayable",
      "type": "function"
    },
    {
      "inputs": [],
      "name": "unclaimedPoolBDX",
      "outputs": [
        {
          "internalType": "uint256",
          "name": "",
          "type": "uint256"
        }
      ],
      "stateMutability": "view",
      "type": "function"
    },
    {
      "inputs": [],
      "name": "unclaimedPoolCollateral",
      "outputs": [
        {
          "internalType": "uint256",
          "name": "",
          "type": "uint256"
        }
      ],
      "stateMutability": "view",
      "type": "function"
    },
    {
      "inputs": [],
      "name": "updateOraclesIfNeeded",
      "outputs": [],
      "stateMutability": "nonpayable",
      "type": "function"
    }
  ],
  "transactionHash": "0xa59537a55a19df31bfd40ca4952e97ee925df91f450cb23e0b65294d81b08679",
  "args": [],
  "solcInputHash": "7fc5f7df362effb291697cb25232d91e",
  "bytecode": "0x608060405234801561001057600080fd5b506147c8806100206000396000f3fe608060405234801561001057600080fd5b50600436106102955760003560e01c80637f877f8511610167578063c3355b8d116100ce578063cbf81dba11610087578063cbf81dba146104c4578063deeea838146104cc578063e69d3010146104d4578063f61adab2146104dc578063f8c8765e146104e4578063fede5c9c146104f757610295565b8063c3355b8d14610489578063c39e011f14610491578063c3abe07714610499578063c74ec56a146104a1578063c7afa7cf146104a9578063cb73999f146104bc57610295565b8063abae2c4c11610120578063abae2c4c14610438578063ac2ede7b1461044b578063ac6d7d6b1461045e578063b235d46814610471578063b8d5886314610479578063bbf0ce1d1461048157610295565b80637f877f85146103f25780637fbc9090146103fa57806380edef8e1461040d5780638d2ac7a4146104155780639ccabfb51461041d578063a6e6aa281461042557610295565b80632efca5341161020b57806364fe5de2116101c457806364fe5de2146103b75780636526a12a146103ca5780636c7ff97b146103d25780636d2c5615146103da5780637b0461e9146103e25780637e4831d3146103ea57610295565b80632efca534146103595780633559ca801461036e57806335d8ce6d146103815780634c634934146103945780634ebbe7621461039c5780635f55504c146103af57610295565b806313af40351161025d57806313af4035146102fb578063151284251461030e5780631c309e0a146103165780631d833ca61461031e5780631eaa0e171461033157806326862f9e1461034657610295565b806308a7493d1461029a5780630cecc5d6146102c35780630f4cd912146102d8578063101197c7146102eb57806312ace5a2146102f3575b600080fd5b6102ad6102a8366004613e51565b6104ff565b6040516102ba9190614710565b60405180910390f35b6102d66102d1366004613f6c565b610511565b005b6102ad6102e6366004613f3c565b61091f565b6102ad6109c3565b6102d66109c9565b6102d6610309366004613e51565b610bcb565b6102ad610c65565b6102d6610c6b565b6102d661032c366004613f6c565b610cfb565b610339611065565b6040516102ba9190614047565b6102d6610354366004613f6c565b611074565b6103616115b2565b6040516102ba9190614098565b6102d661037c366004613f6c565b6115c4565b6102d661038f366004613f6c565b611b21565b6102ad611db6565b6102d66103aa366004613fdb565b611dbc565b6102d6611e56565b6102d66103c5366004613f3c565b611ed4565b6102ad611f85565b6102d6611f8b565b6103616120e4565b6102ad6120f3565b6103616120f9565b610361612102565b6102d6610408366004613fb0565b612112565b610339612a05565b610361612a14565b6102ad612a25565b6102d6610433366004613e89565b612b03565b6102ad610446366004613e51565b612b8b565b6102d6610459366004613fb0565b612b9d565b6102ad61046c366004613e51565b612fc4565b610361612fd6565b6102ad612fe4565b6102d6612fea565b6102ad613058565b6102d661305e565b6102d66130e3565b6102ad613165565b6102d66104b7366004613f6c565b61316b565b6102ad613668565b6102d661366e565b6103616136ee565b6102ad6136fe565b6102ad613854565b6102d66104f2366004613ec1565b613a40565b6102ad613be6565b60096020526000908152604090205481565b600d5460ff161561053d5760405162461bcd60e51b815260040161053490614544565b60405180910390fd5b610545611f8b565b6000600654600a0a83029050600260009054906101000a90046001600160a01b03166001600160a01b0316634013124a6040518163ffffffff1660e01b8152600401600060405180830381600087803b1580156105a157600080fd5b505af11580156105b5573d6000803e3d6000fd5b505050506000600260009054906101000a90046001600160a01b03166001600160a01b031663fadb1b026040518163ffffffff1660e01b815260040160206040518083038186803b15801561060957600080fd5b505afa15801561061d573d6000803e3d6000fd5b505050506040513d601f19601f820116820180604052508101906106419190613f54565b905064e8d4a510008110156106685760405162461bcd60e51b81526004016105349061417d565b601254600a546000546040516370a0823160e01b815261071592889261070992620100009091046001600160a01b0316906370a08231906106ad903090600401614047565b60206040518083038186803b1580156106c557600080fd5b505afa1580156106d9573d6000803e3d6000fd5b505050506040513d601f19601f820116820180604052508101906106fd9190613f54565b9063ffffffff613bec16565b9063ffffffff613c3716565b11156107335760405162461bcd60e51b81526004016105349061459f565b600073798A271E3966156515BCc947d26f736E8580A43663ba8b18086107576136fe565b856040518363ffffffff1660e01b8152600401610775929190614719565b60206040518083038186803b15801561078d57600080fd5b505af41580156107a1573d6000803e3d6000fd5b505050506040513d601f19601f820116820180604052508101906107c59190613f54565b905061080664e8d4a510006107fa6107ed600e5464e8d4a51000613bec90919063ffffffff16565b849063ffffffff613c5c16565b9063ffffffff613c9616565b9050808411156108285760405162461bcd60e51b81526004016105349061456f565b6000546040516323b872dd60e01b8152620100009091046001600160a01b0316906323b872dd9061086190339030908a9060040161405b565b602060405180830381600087803b15801561087b57600080fd5b505af115801561088f573d6000803e3d6000fd5b505050506040513d601f19601f820116820180604052508101906108b39190613f1c565b50600254604051635a7ab59360e11b81526001600160a01b039091169063b4f56b26906108e6903390859060040161407f565b600060405180830381600087803b15801561090057600080fd5b505af1158015610914573d6000803e3d6000fd5b505050505050505050565b600080600160009054906101000a90046001600160a01b03166001600160a01b0316631dbb32906040518163ffffffff1660e01b815260040160206040518083038186803b15801561097057600080fd5b505afa158015610984573d6000803e3d6000fd5b505050506040513d601f19601f820116820180604052508101906109a89190613f54565b9050828111156109bb57829150506109be565b90505b919050565b60105481565b601554336000908152600c602052604090205443916109ee919063ffffffff613c3716565b1115610a0c5760405162461bcd60e51b81526004016105349061428b565b3360009081526008602052604081205481908190819015610a59573360009081526008602052604081208054919055600b54909250610a51908363ffffffff613bec16565b600b55600193505b3360009081526009602052604090205415610a9e57503360009081526009602052604081208054919055600a54610a96908263ffffffff613bec16565b600a55600192505b60018415151415610b2f5760015460405163a9059cbb60e01b81526001600160a01b039091169063a9059cbb90610adb903390869060040161407f565b602060405180830381600087803b158015610af557600080fd5b505af1158015610b09573d6000803e3d6000fd5b505050506040513d601f19601f82011682018060405250810190610b2d9190613f1c565b505b60018315151415610bc55760005460405163a9059cbb60e01b8152620100009091046001600160a01b03169063a9059cbb90610b71903390859060040161407f565b602060405180830381600087803b158015610b8b57600080fd5b505af1158015610b9f573d6000803e3d6000fd5b505050506040513d601f19601f82011682018060405250810190610bc39190613f1c565b505b50505050565b6005546001600160a01b03163314610bf55760405162461bcd60e51b8152600401610534906142f3565b6001600160a01b038116610c1b5760405162461bcd60e51b815260040161053490614640565b600580546001600160a01b0319166001600160a01b0383169081179091556040517f50146d0e3c60aa1d17a70635b05494f864e86144a2201275021014fbf08bafe290600090a250565b60155481565b6005546001600160a01b03163314610c955760405162461bcd60e51b8152600401610534906142f3565b600d805460ff65010000000000808304821615810265ff00000000001990931692909217928390556040517f5500d28fd6f79ee96ffff9ce2f45833d5913c84f586b8a537b6c6f25df0312a393610cf193900490911690614098565b60405180910390a1565b600d5460ff1615610d1e5760405162461bcd60e51b815260040161053490614544565b610d26611f8b565b600260009054906101000a90046001600160a01b03166001600160a01b0316634013124a6040518163ffffffff1660e01b8152600401600060405180830381600087803b158015610d7657600080fd5b505af1158015610d8a573d6000803e3d6000fd5b505050506000600260009054906101000a90046001600160a01b03166001600160a01b031663ed99250c6040518163ffffffff1660e01b815260040160206040518083038186803b158015610dde57600080fd5b505afa158015610df2573d6000803e3d6000fd5b505050506040513d601f19601f82011682018060405250810190610e169190613f54565b9050600260009054906101000a90046001600160a01b03166001600160a01b031663fadb1b026040518163ffffffff1660e01b815260040160206040518083038186803b158015610e6657600080fd5b505afa158015610e7a573d6000803e3d6000fd5b505050506040513d601f19601f82011682018060405250810190610e9e9190613f54565b15610ebb5760405162461bcd60e51b8152600401610534906146ae565b604051630810278f60e41b815260009073798A271E3966156515BCc947d26f736E8580A4369063810278f090610ef79085908890600401614719565b60206040518083038186803b158015610f0f57600080fd5b505af4158015610f23573d6000803e3d6000fd5b505050506040513d601f19601f82011682018060405250810190610f479190613f54565b9050610f6f64e8d4a510006107fa6107ed600e5464e8d4a51000613bec90919063ffffffff16565b905080831115610f915760405162461bcd60e51b81526004016105349061456f565b6001546002546040516302b7c01160e01b81526001600160a01b03928316926302b7c01192610fc9929116903390899060040161405b565b600060405180830381600087803b158015610fe357600080fd5b505af1158015610ff7573d6000803e3d6000fd5b5050600254604051635a7ab59360e11b81526001600160a01b03909116925063b4f56b26915061102d903390859060040161407f565b600060405180830381600087803b15801561104757600080fd5b505af115801561105b573d6000803e3d6000fd5b5050505050505050565b6004546001600160a01b031681565b600d54610100900460ff161561109c5760405162461bcd60e51b815260040161053490614359565b6110a4611f8b565b600260009054906101000a90046001600160a01b03166001600160a01b0316634013124a6040518163ffffffff1660e01b8152600401600060405180830381600087803b1580156110f457600080fd5b505af1158015611108573d6000803e3d6000fd5b5050505064e8d4a51000600260009054906101000a90046001600160a01b03166001600160a01b031663fadb1b026040518163ffffffff1660e01b815260040160206040518083038186803b15801561116057600080fd5b505afa158015611174573d6000803e3d6000fd5b505050506040513d601f19601f820116820180604052508101906111989190613f54565b146111b55760405162461bcd60e51b81526004016105349061450d565b60006111bf6136fe565b90506000600260009054906101000a90046001600160a01b03166001600160a01b031663fa6292196040518163ffffffff1660e01b815260040160206040518083038186803b15801561121157600080fd5b505afa158015611225573d6000803e3d6000fd5b505050506040513d601f19601f820116820180604052508101906112499190613f54565b9050600064e8d4a51000821161125f5781611266565b64e8d4a510005b90506000611295846107fa64e8d4a5100081866112898c8463ffffffff613c5c16565b9063ffffffff613c5c16565b90506112bd64e8d4a510006107fa6107ed600f5464e8d4a51000613bec90919063ffffffff16565b600a546000546040516370a0823160e01b81529293506112fc92620100009091046001600160a01b0316906370a08231906106ad903090600401614047565b81111561131b5760405162461bcd60e51b815260040161053490614677565b8085111561133b5760405162461bcd60e51b81526004016105349061456f565b600254604051631096f10360e01b81526001600160a01b0390911690631096f1039061136b903390600401614047565b60206040518083038186803b15801561138357600080fd5b505afa158015611397573d6000803e3d6000fd5b505050506040513d601f19601f820116820180604052508101906113bb9190613f1c565b156113f557336000908152600960205260409020546113e0908263ffffffff613c3716565b3360009081526009602052604090205561151e565b600061140882600a63ffffffff613c9616565b90506000611422600a6107fa85600963ffffffff613c5c16565b33600090815260096020526040902054909150611445908363ffffffff613c3716565b33600090815260096020908152604080832093909355600254835163a367e27d60e01b8152935192936001600160a01b039091169263a367e27d92600480840193919291829003018186803b15801561149d57600080fd5b505afa1580156114b1573d6000803e3d6000fd5b505050506040513d601f19601f820116820180604052508101906114d59190613e6d565b6001600160a01b038116600090815260096020526040902054909150611501908363ffffffff613c3716565b6001600160a01b0390911660009081526009602052604090205550505b600a54611531908263ffffffff613c3716565b600a55336000818152600c6020526040908190204390556002549051635453bc5760e11b81526001600160a01b039091169163a8a778ae9161157891908a9060040161407f565b600060405180830381600087803b15801561159257600080fd5b505af11580156115a6573d6000803e3d6000fd5b50505050505050505050565b600d5465010000000000900460ff1681565b600d5462010000900460ff16156115ed5760405162461bcd60e51b8152600401610534906145d4565b600d5465010000000000900460ff161561162b576005546001600160a01b0316331461162b5760405162461bcd60e51b8152600401610534906144c5565b611633611f8b565b600260009054906101000a90046001600160a01b03166001600160a01b0316634013124a6040518163ffffffff1660e01b8152600401600060405180830381600087803b15801561168357600080fd5b505af1158015611697573d6000803e3d6000fd5b505050506000600654600a0a830290506000600260009054906101000a90046001600160a01b03166001600160a01b031663ed99250c6040518163ffffffff1660e01b815260040160206040518083038186803b1580156116f757600080fd5b505afa15801561170b573d6000803e3d6000fd5b505050506040513d601f19601f8201168201806040525081019061172f9190613f54565b90506000600260009054906101000a90046001600160a01b03166001600160a01b03166318160ddd6040518163ffffffff1660e01b815260040160206040518083038186803b15801561178157600080fd5b505afa158015611795573d6000803e3d6000fd5b505050506040513d601f19601f820116820180604052508101906117b99190613f54565b90506000600260009054906101000a90046001600160a01b03166001600160a01b031663fadb1b026040518163ffffffff1660e01b815260040160206040518083038186803b15801561180b57600080fd5b505afa15801561181f573d6000803e3d6000fd5b505050506040513d601f19601f820116820180604052508101906118439190613f54565b90506000600260009054906101000a90046001600160a01b03166001600160a01b031663d2d97b066040518163ffffffff1660e01b815260040160206040518083038186803b15801561189557600080fd5b505afa1580156118a9573d6000803e3d6000fd5b505050506040513d601f19601f820116820180604052508101906118cd9190613f54565b905060008073798A271E3966156515BCc947d26f736E8580A436634e820a3f886118f56136fe565b8689896040518663ffffffff1660e01b8152600401611918959493929190614727565b604080518083038186803b15801561192f57600080fd5b505af4158015611943573d6000803e3d6000fd5b505050506040513d601f19601f820116820180604052508101906119679190613f8d565b915091506000611985600654600a0a84613c9690919063ffffffff16565b905060006119bd886107fa6119b06011546106fd60145464e8d4a51000613c3790919063ffffffff16565b869063ffffffff613c5c16565b90506119c88161091f565b9050808a11156119ea5760405162461bcd60e51b81526004016105349061456f565b6000546040516323b872dd60e01b8152620100009091046001600160a01b0316906323b872dd90611a239033903090879060040161405b565b602060405180830381600087803b158015611a3d57600080fd5b505af1158015611a51573d6000803e3d6000fd5b505050506040513d601f19601f82011682018060405250810190611a759190613f1c565b508015611ae757600154600254604051636361ddf360e11b81526001600160a01b039283169263c6c3bbe692611ab4929116903390869060040161405b565b600060405180830381600087803b158015611ace57600080fd5b505af1158015611ae2573d6000803e3d6000fd5b505050505b604051819083907fc2d7df98caa1a9bc768fc3ab167e19ae4febd5da76dad18d3387fb9fc656a37390600090a35050505050505050505050565b600d546301000000900460ff1615611b4b5760405162461bcd60e51b8152600401610534906146e5565b600d54600160301b900460ff1615611b87576005546001600160a01b03163314611b875760405162461bcd60e51b81526004016105349061460b565b611b8f611f8b565b60025460408051633b66494360e21b815290516000926001600160a01b03169163ed99250c916004808301926020929190829003018186803b158015611bd457600080fd5b505afa158015611be8573d6000803e3d6000fd5b505050506040513d601f19601f82011682018060405250810190611c0c9190613f54565b90506000611c5064e8d4a510006107fa611c3660105464e8d4a51000613bec90919063ffffffff16565b611289611c41613854565b87611c4a6136fe565b8b613cd8565b90506000611c6c600654600a0a83613c9690919063ffffffff16565b905080841115611c8e5760405162461bcd60e51b81526004016105349061456f565b6001546002546040516302b7c01160e01b81526001600160a01b03928316926302b7c01192611cc69291169033908a9060040161405b565b600060405180830381600087803b158015611ce057600080fd5b505af1158015611cf4573d6000803e3d6000fd5b505060005460405163a9059cbb60e01b8152620100009091046001600160a01b0316925063a9059cbb9150611d2f903390859060040161407f565b602060405180830381600087803b158015611d4957600080fd5b505af1158015611d5d573d6000803e3d6000fd5b505050506040513d601f19601f82011682018060405250810190611d819190613f1c565b50604051819086907f15b90a6a755d5ed0f929f1f40375d58183388d8d9e2f8e9a2efa93043e70f6de90600090a35050505050565b60145481565b6005546001600160a01b03163314611de65760405162461bcd60e51b8152600401610534906142f3565b601287905560148690556015859055600e849055600f839055601082905560118190556040517f17fe98b66d27bd793ea01bd8a23a54acab8eeb167d9eb016a0c7cd71c573920c90611e4590899089908990899089908990899061474a565b60405180910390a150505050505050565b6005546001600160a01b03163314611e805760405162461bcd60e51b8152600401610534906142f3565b600d805460ff610100808304821615810261ff001990931692909217928390556040517fd449302f806044ba9a0f0b2862e496c86cb4ef1f6b3fd474113fb26e46d9b28a93610cf193900490911690614098565b6005546001600160a01b03163314611efe5760405162461bcd60e51b8152600401610534906142f3565b600d54640100000000900460ff16611f1a576013819055611f20565b60006013555b600d805460ff640100000000808304821615810264ff000000001990931692909217928390556040517fbf1f9e6d8d67bb57a141c627f40368ec23ed7603249f0c3518c16eafbf9c4f6f93611f7a93900490911690614098565b60405180910390a150565b60125481565b600260009054906101000a90046001600160a01b03166001600160a01b0316636c7ff97b6040518163ffffffff1660e01b8152600401600060405180830381600087803b158015611fdb57600080fd5b505af1158015611fef573d6000803e3d6000fd5b50505050600360009054906101000a90046001600160a01b03166001600160a01b03166309bf39ed6040518163ffffffff1660e01b815260040160206040518083038186803b15801561204157600080fd5b505afa158015612055573d6000803e3d6000fd5b505050506040513d601f19601f820116820180604052508101906120799190613f1c565b156120e257600360009054906101000a90046001600160a01b03166001600160a01b031663d6f124f06040518163ffffffff1660e01b8152600401600060405180830381600087803b1580156120ce57600080fd5b505af1158015610bc5573d6000803e3d6000fd5b565b600d5462010000900460ff1681565b600a5481565b600d5460ff1681565b600d546301000000900460ff1681565b600d54610100900460ff161561213a5760405162461bcd60e51b815260040161053490614359565b612142611f8b565b600260009054906101000a90046001600160a01b03166001600160a01b0316634013124a6040518163ffffffff1660e01b8152600401600060405180830381600087803b15801561219257600080fd5b505af11580156121a6573d6000803e3d6000fd5b505050506000600260009054906101000a90046001600160a01b03166001600160a01b031663fadb1b026040518163ffffffff1660e01b815260040160206040518083038186803b1580156121fa57600080fd5b505afa15801561220e573d6000803e3d6000fd5b505050506040513d601f19601f820116820180604052508101906122329190613f54565b905064e8d4a51000811080156122485750600081115b6122645760405162461bcd60e51b8152600401610534906141eb565b6002546040805163fa62921960e01b815290516000926001600160a01b03169163fa629219916004808301926020929190829003018186803b1580156122a957600080fd5b505afa1580156122bd573d6000803e3d6000fd5b505050506040513d601f19601f820116820180604052508101906122e19190613f54565b905060008282106122f257826122f4565b815b9050600061232b64e8d4a510006107fa61231e600f5464e8d4a51000613bec90919063ffffffff16565b8a9063ffffffff613c5c16565b9050600061235861234b64e8d4a510006107fa858763ffffffff613c5c16565b839063ffffffff613bec16565b905060006123fa600260009054906101000a90046001600160a01b03166001600160a01b031663ed99250c6040518163ffffffff1660e01b815260040160206040518083038186803b1580156123ad57600080fd5b505afa1580156123c1573d6000803e3d6000fd5b505050506040513d601f19601f820116820180604052508101906123e59190613f54565b6107fa8464e8d4a5100063ffffffff613c5c16565b90506124058161091f565b90506000612421600654600a0a85613c9690919063ffffffff16565b9050600061243e64e8d4a510006107fa848963ffffffff613c5c16565b9050600061244d6123e56136fe565b600a546000546040516370a0823160e01b815292935061248c92620100009091046001600160a01b0316906370a08231906106ad903090600401614047565b8111156124ab5760405162461bcd60e51b815260040161053490614677565b808a11156124cb5760405162461bcd60e51b815260040161053490614248565b838b11156124eb5760405162461bcd60e51b815260040161053490614322565b600254604051631096f10360e01b81526001600160a01b0390911690631096f1039061251b903390600401614047565b60206040518083038186803b15801561253357600080fd5b505afa158015612547573d6000803e3d6000fd5b505050506040513d601f19601f8201168201806040525081019061256b9190613f1c565b156125a55733600090815260096020526040902054612590908263ffffffff613c3716565b336000908152600960205260409020556126ce565b60006125b882600a63ffffffff613c9616565b905060006125d2600a6107fa85600963ffffffff613c5c16565b336000908152600960205260409020549091506125f5908363ffffffff613c3716565b33600090815260096020908152604080832093909355600254835163a367e27d60e01b8152935192936001600160a01b039091169263a367e27d92600480840193919291829003018186803b15801561264d57600080fd5b505afa158015612661573d6000803e3d6000fd5b505050506040513d601f19601f820116820180604052508101906126859190613e6d565b6001600160a01b0381166000908152600960205260409020549091506126b1908363ffffffff613c3716565b6001600160a01b0390911660009081526009602052604090205550505b600a546126e1908263ffffffff613c3716565b600a5583156128e457600254604051631096f10360e01b81526001600160a01b0390911690631096f1039061271a903390600401614047565b60206040518083038186803b15801561273257600080fd5b505afa158015612746573d6000803e3d6000fd5b505050506040513d601f19601f8201168201806040525081019061276a9190613f1c565b156127a4573360009081526008602052604090205461278f908563ffffffff613c3716565b336000908152600860205260409020556128cd565b60006127b785600a63ffffffff613c9616565b905060006127d1600a6107fa88600963ffffffff613c5c16565b336000908152600860205260409020549091506127f4908363ffffffff613c3716565b33600090815260086020908152604080832093909355600254835163a367e27d60e01b8152935192936001600160a01b039091169263a367e27d92600480840193919291829003018186803b15801561284c57600080fd5b505afa158015612860573d6000803e3d6000fd5b505050506040513d601f19601f820116820180604052508101906128849190613e6d565b6001600160a01b0381166000908152600860205260409020549091506128b0908363ffffffff613c3716565b6001600160a01b0390911660009081526008602052604090205550505b600b546128e0908563ffffffff613c3716565b600b555b43600c6000336001600160a01b03166001600160a01b0316815260200190815260200160002081905550600260009054906101000a90046001600160a01b03166001600160a01b031663a8a778ae338e6040518363ffffffff1660e01b815260040161295192919061407f565b600060405180830381600087803b15801561296b57600080fd5b505af115801561297f573d6000803e3d6000fd5b5050505060008411156129f757600154600254604051636361ddf360e11b81526001600160a01b039283169263c6c3bbe6926129c4929116903090899060040161405b565b600060405180830381600087803b1580156129de57600080fd5b505af11580156129f2573d6000803e3d6000fd5b505050505b505050505050505050505050565b6005546001600160a01b031681565b600d54640100000000900460ff1681565b600d54600090640100000000900460ff16151560011415612aa657612a9f64e8d4a510006107fa601354611289600654600a0a611289600a54600060029054906101000a90046001600160a01b03166001600160a01b03166370a08231306040518263ffffffff1660e01b81526004016106ad9190614047565b9050612b00565b612a9f64e8d4a510006107fa612aba6136fe565b600654600a80546000546040516370a0823160e01b81526112899490930a928492916201000090046001600160a01b0316906370a08231906106ad903090600401614047565b90565b6005546001600160a01b03163314612b2d5760405162461bcd60e51b8152600401610534906142f3565b600380546001600160a01b03199081166001600160a01b03858116918217909355600780549092169284169283179091556040517f856e4796eef882904bc46a505b32b16c6fbcef9e0930ac95b2f980781517bf6390600090a35050565b600c6020526000908152604090205481565b600d5460ff1615612bc05760405162461bcd60e51b815260040161053490614544565b612bc8611f8b565b600260009054906101000a90046001600160a01b03166001600160a01b0316634013124a6040518163ffffffff1660e01b8152600401600060405180830381600087803b158015612c1857600080fd5b505af1158015612c2c573d6000803e3d6000fd5b505050506000600260009054906101000a90046001600160a01b03166001600160a01b031663ed99250c6040518163ffffffff1660e01b815260040160206040518083038186803b158015612c8057600080fd5b505afa158015612c94573d6000803e3d6000fd5b505050506040513d601f19601f82011682018060405250810190612cb89190613f54565b90506000600260009054906101000a90046001600160a01b03166001600160a01b031663fadb1b026040518163ffffffff1660e01b815260040160206040518083038186803b158015612d0a57600080fd5b505afa158015612d1e573d6000803e3d6000fd5b505050506040513d601f19601f82011682018060405250810190612d429190613f54565b905064e8d4a5100081108015612d585750600081115b612d745760405162461bcd60e51b8152600401610534906141eb565b601254600a546000546040516370a0823160e01b8152612db992899261070992620100009091046001600160a01b0316906370a08231906106ad903090600401614047565b1115612dd75760405162461bcd60e51b815260040161053490614415565b600654600a0a8502600080612df585612dee6136fe565b8587613d5c565b91509150612e2c64e8d4a510006107fa612e1f600e5464e8d4a51000613bec90919063ffffffff16565b859063ffffffff613c5c16565b915081861115612e4e5760405162461bcd60e51b81526004016105349061456f565b86811115612e6e5760405162461bcd60e51b815260040161053490614146565b6001546002546040516302b7c01160e01b81526001600160a01b03928316926302b7c01192612ea6929116903390869060040161405b565b600060405180830381600087803b158015612ec057600080fd5b505af1158015612ed4573d6000803e3d6000fd5b50506000546040516323b872dd60e01b8152620100009091046001600160a01b031692506323b872dd9150612f1190339030908d9060040161405b565b602060405180830381600087803b158015612f2b57600080fd5b505af1158015612f3f573d6000803e3d6000fd5b505050506040513d601f19601f82011682018060405250810190612f639190613f1c565b50600254604051635a7ab59360e11b81526001600160a01b039091169063b4f56b2690612f96903390869060040161407f565b600060405180830381600087803b158015612fb057600080fd5b505af11580156129f7573d6000803e3d6000fd5b60086020526000908152604090205481565b600d54610100900460ff1681565b600b5481565b6005546001600160a01b031633146130145760405162461bcd60e51b8152600401610534906142f3565b600d805460ff19811660ff9182161517918290556040517f3f3c6b7e51ec0201fea018ffcf768f21f85a27593219359fd6af1d95c7e8b44192610cf1921690614098565b600e5481565b6005546001600160a01b031633146130885760405162461bcd60e51b8152600401610534906142f3565b600d805460ff600160301b808304821615810266ff0000000000001990931692909217928390556040517fd5bc042d6e197fb30aec38c1634dabc01e0bb517e3fea6db130cea575371224693610cf193900490911690614098565b6005546001600160a01b0316331461310d5760405162461bcd60e51b8152600401610534906142f3565b600d805460ff6301000000808304821615810263ff0000001990931692909217928390556040517fef220f30673af554aae10180ad5ab98f41c923213a66d1207dbe61f00aa75acf93610cf193900490911690614098565b60135481565b600d54610100900460ff16156131935760405162461bcd60e51b815260040161053490614359565b61319b611f8b565b600260009054906101000a90046001600160a01b03166001600160a01b0316634013124a6040518163ffffffff1660e01b8152600401600060405180830381600087803b1580156131eb57600080fd5b505af11580156131ff573d6000803e3d6000fd5b505050506000600260009054906101000a90046001600160a01b03166001600160a01b031663ed99250c6040518163ffffffff1660e01b815260040160206040518083038186803b15801561325357600080fd5b505afa158015613267573d6000803e3d6000fd5b505050506040513d601f19601f8201168201806040525081019061328b9190613f54565b90506000600260009054906101000a90046001600160a01b03166001600160a01b031663fadb1b026040518163ffffffff1660e01b815260040160206040518083038186803b1580156132dd57600080fd5b505afa1580156132f1573d6000803e3d6000fd5b505050506040513d601f19601f820116820180604052508101906133159190613f54565b905080156133355760405162461bcd60e51b8152600401610534906146ae565b600084905061336064e8d4a510006107fa6107ed600f5464e8d4a51000613bec90919063ffffffff16565b9050600061337d846107fa8464e8d4a5100063ffffffff613c5c16565b90506133888161091f565b9050801561358a57600254604051631096f10360e01b81526001600160a01b0390911690631096f103906133c0903390600401614047565b60206040518083038186803b1580156133d857600080fd5b505afa1580156133ec573d6000803e3d6000fd5b505050506040513d601f19601f820116820180604052508101906134109190613f1c565b1561344a5733600090815260086020526040902054613435908263ffffffff613c3716565b33600090815260086020526040902055613573565b600061345d82600a63ffffffff613c9616565b90506000613477600a6107fa85600963ffffffff613c5c16565b3360009081526008602052604090205490915061349a908363ffffffff613c3716565b33600090815260086020908152604080832093909355600254835163a367e27d60e01b8152935192936001600160a01b039091169263a367e27d92600480840193919291829003018186803b1580156134f257600080fd5b505afa158015613506573d6000803e3d6000fd5b505050506040513d601f19601f8201168201806040525081019061352a9190613e6d565b6001600160a01b038116600090815260086020526040902054909150613556908363ffffffff613c3716565b6001600160a01b0390911660009081526008602052604090205550505b600b54613586908263ffffffff613c3716565b600b555b336000908152600c602052604090204390558085106135bb5760405162461bcd60e51b81526004016105349061456f565b600254604051635453bc5760e11b81526001600160a01b039091169063a8a778ae906135ed9033908a9060040161407f565b600060405180830381600087803b15801561360757600080fd5b505af115801561361b573d6000803e3d6000fd5b50505050600081111561366057600154600254604051636361ddf360e11b81526001600160a01b039283169263c6c3bbe692611578929116903090869060040161405b565b505050505050565b600f5481565b6005546001600160a01b031633146136985760405162461bcd60e51b8152600401610534906142f3565b600d805460ff62010000808304821615810262ff00001990931692909217928390556040517f7e9a29a085706d1cf00b68ff18532dae53be17faa8be9bab8821c355a393656a93610cf193900490911690614098565b600d54600160301b900460ff1681565b600d54600090640100000000900460ff161515600114156137225750601354612b00565b60025460408051632d83c63b60e11b815290516000926001600160a01b031691635b078c76916004808301926020929190829003018186803b15801561376757600080fd5b505afa15801561377b573d6000803e3d6000fd5b505050506040513d601f19601f8201168201806040525081019061379f9190613f54565b600354600754604051633ddac95360e01b81529293506000926001600160a01b0392831692633ddac953926137e09291169064e8d4a510009060040161407f565b60206040518083038186803b1580156137f857600080fd5b505afa15801561380c573d6000803e3d6000fd5b505050506040513d601f19601f820116820180604052508101906138309190613f54565b905061384b816107fa8464e8d4a5100063ffffffff613c5c16565b92505050612b00565b600080600260009054906101000a90046001600160a01b03166001600160a01b03166318160ddd6040518163ffffffff1660e01b815260040160206040518083038186803b1580156138a557600080fd5b505afa1580156138b9573d6000803e3d6000fd5b505050506040513d601f19601f820116820180604052508101906138dd9190613f54565b90506000600260009054906101000a90046001600160a01b03166001600160a01b031663fadb1b026040518163ffffffff1660e01b815260040160206040518083038186803b15801561392f57600080fd5b505afa158015613943573d6000803e3d6000fd5b505050506040513d601f19601f820116820180604052508101906139679190613f54565b90506000600260009054906101000a90046001600160a01b03166001600160a01b031663d2d97b066040518163ffffffff1660e01b815260040160206040518083038186803b1580156139b957600080fd5b505afa1580156139cd573d6000803e3d6000fd5b505050506040513d601f19601f820116820180604052508101906139f19190613f54565b90506000613a0e64e8d4a510006107fa868663ffffffff613c5c16565b905080821115613a3357613a28828263ffffffff613bec16565b945050505050612b00565b6000945050505050612b00565b600054610100900460ff1680613a595750613a59613dd7565b80613a67575060005460ff16155b613a835760405162461bcd60e51b8152600401610534906143c7565b600054610100900460ff16158015613aae576000805460ff1961ff0019909116610100171660011790555b600280546001600160a01b03199081166001600160a01b0388811691909117909255600180548216878416179055600480548216868416908117825560058054909316868516179092556000805462010000600160b01b0319166201000093840217908190556040805163313ce56760e01b81529051613b9d95949092049093169263313ce5679281810192602092909190829003018186803b158015613b5457600080fd5b505afa158015613b68573d6000803e3d6000fd5b505050506040513d601f19601f82011682018060405250810190613b8c9190614026565b60129060ff1663ffffffff613bec16565b6006556ec097ce7bc90715b34b9f10000000006012556401bf08eb00601455600160155563b2d05e00600e819055600f558015610bc3576000805461ff00191690555050505050565b60115481565b6000613c2e83836040518060400160405280601e81526020017f536166654d6174683a207375627472616374696f6e206f766572666c6f770000815250613de8565b90505b92915050565b600082820183811015613c2e5760405162461bcd60e51b8152600401610534906141b4565b600082613c6b57506000613c31565b82820282848281613c7857fe5b0414613c2e5760405162461bcd60e51b815260040161053490614484565b6000613c2e83836040518060400160405280601a81526020017f536166654d6174683a206469766973696f6e206279207a65726f000000000000815250613e14565b6000808511613cf95760405162461bcd60e51b815260040161053490614386565b6000613d1464e8d4a510006107fa858863ffffffff613c5c16565b905085811115613d365760405162461bcd60e51b8152600401610534906140f6565b6000613d51856107fa8464e8d4a5100063ffffffff613c5c16565b979650505050505050565b60008080613d7964e8d4a510006107fa878963ffffffff613c5c16565b90506000613d9a826106fd876107fa8364e8d4a5100063ffffffff613c5c16565b90506000613db7896107fa8464e8d4a5100063ffffffff613c5c16565b9050613dc9838363ffffffff613c3716565b999098509650505050505050565b6000613de230613e4b565b15905090565b60008184841115613e0c5760405162461bcd60e51b815260040161053491906140a3565b505050900390565b60008183613e355760405162461bcd60e51b815260040161053491906140a3565b506000838581613e4157fe5b0495945050505050565b3b151590565b600060208284031215613e62578081fd5b8135613c2e8161477a565b600060208284031215613e7e578081fd5b8151613c2e8161477a565b60008060408385031215613e9b578081fd5b8235613ea68161477a565b91506020830135613eb68161477a565b809150509250929050565b60008060008060808587031215613ed6578182fd5b8435613ee18161477a565b93506020850135613ef18161477a565b92506040850135613f018161477a565b91506060850135613f118161477a565b939692955090935050565b600060208284031215613f2d578081fd5b81518015158114613c2e578182fd5b600060208284031215613f4d578081fd5b5035919050565b600060208284031215613f65578081fd5b5051919050565b60008060408385031215613f7e578182fd5b50508035926020909101359150565b60008060408385031215613f9f578182fd5b505080516020909101519092909150565b600080600060608486031215613fc4578283fd5b505081359360208301359350604090920135919050565b600080600080600080600060e0888a031215613ff5578283fd5b505085359760208701359750604087013596606081013596506080810135955060a0810135945060c0013592509050565b600060208284031215614037578081fd5b815160ff81168114613c2e578182fd5b6001600160a01b0391909116815260200190565b6001600160a01b039384168152919092166020820152604081019190915260600190565b6001600160a01b03929092168252602082015260400190565b901515815260200190565b6000602080835283518082850152825b818110156140cf578581018301518582016040015282016140b3565b818111156140e05783604083870101525b50601f01601f1916929092016040019392505050565b60208082526030908201527f596f752061726520747279696e6720746f20627579206261636b206d6f72652060408201526f7468616e20746865206578636573732160801b606082015260800190565b60208082526017908201527f4e6f7420656e6f7567682042445820696e707574746564000000000000000000604082015260600190565b6020808252601d908201527f436f6c6c61746572616c20726174696f206d757374206265203e3d2031000000604082015260600190565b6020808252601b908201527f536166654d6174683a206164646974696f6e206f766572666c6f770000000000604082015260600190565b60208082526038908201527f436f6c6c61746572616c20726174696f206e6565647320746f2062652062657460408201527f7765656e202e30303030303120616e64202e3939393939390000000000000000606082015260800190565b60208082526023908201527f536c697070616765206c696d69742072656163686564205b636f6c6c61746572604082015262616c5d60e81b606082015260800190565b60208082526042908201527f4d757374207761697420666f7220726564656d7074696f6e5f64656c6179206260408201527f6c6f636b73206265666f726520636f6c6c656374696e6720726564656d70746960608201526137b760f11b608082015260a00190565b6020808252601590820152742cb7ba9030b932903737ba103a34329037bbb732b960591b604082015260600190565b6020808252601c908201527f536c697070616765206c696d69742072656163686564205b4244585d00000000604082015260600190565b60208082526013908201527214995919595b5a5b99c81a5cc81c185d5cd959606a1b604082015260600190565b60208082526021908201527f4e6f2065786365737320636f6c6c61746572616c20746f20627579206261636b6040820152602160f81b606082015260800190565b6020808252602e908201527f496e697469616c697a61626c653a20636f6e747261637420697320616c72656160408201526d191e481a5b9a5d1a585b1a5e995960921b606082015260800190565b60208082526049908201527f506f6f6c206365696c696e6720726561636865642c206e6f206d6f726520426460408201527f537461626c652063616e206265206d696e7465642077697468207468697320636060820152681bdb1b185d195c985b60ba1b608082015260a00190565b60208082526021908201527f536166654d6174683a206d756c7469706c69636174696f6e206f766572666c6f6040820152607760f81b606082015260800190565b60208082526028908201527f43757272656e746c79206f6e6c79206f776e65722063616e207265636f6c6c61604082015267746572616c697a6560c01b606082015260800190565b6020808252601d908201527f436f6c6c61746572616c20726174696f206d757374206265203d3d2031000000604082015260600190565b602080825260119082015270135a5b9d1a5b99c81a5cc81c185d5cd959607a1b604082015260600190565b60208082526016908201527514db1a5c1c1859d9481b1a5b5a5d081c995858da195960521b604082015260600190565b6020808252818101527f5b506f6f6c277320436c6f7365645d3a204365696c696e672072656163686564604082015260600190565b60208082526019908201527f5265636f6c6c61746572616c697a652069732070617573656400000000000000604082015260600190565b6020808252818101527f43757272656e746c79206f6e6c79206f776e65722063616e206275796261636b604082015260600190565b6020808252601f908201527f4e6577206f776e65722063616e2774206265207a65726f206164647265737300604082015260600190565b6020808252601d908201527f4e6f7420656e6f75676820636f6c6c61746572616c20696e20706f6f6c000000604082015260600190565b6020808252601a908201527f436f6c6c61746572616c20726174696f206d7573742062652030000000000000604082015260600190565b602080825260119082015270109d5e589858dac81a5cc81c185d5cd959607a1b604082015260600190565b90815260200190565b918252602082015260400190565b948552602085019390935260408401919091526060830152608082015260a00190565b968752602087019590955260408601939093526060850191909152608084015260a083015260c082015260e00190565b6001600160a01b038116811461478f57600080fd5b5056fea26469706673582212205c0eeed6fb0fe951263ecae0453e4389f648d800199cd0967eac4ee17dcb79df64736f6c634300060b0033",
  "deployedBytecode": "0x608060405234801561001057600080fd5b50600436106102955760003560e01c80637f877f8511610167578063c3355b8d116100ce578063cbf81dba11610087578063cbf81dba146104c4578063deeea838146104cc578063e69d3010146104d4578063f61adab2146104dc578063f8c8765e146104e4578063fede5c9c146104f757610295565b8063c3355b8d14610489578063c39e011f14610491578063c3abe07714610499578063c74ec56a146104a1578063c7afa7cf146104a9578063cb73999f146104bc57610295565b8063abae2c4c11610120578063abae2c4c14610438578063ac2ede7b1461044b578063ac6d7d6b1461045e578063b235d46814610471578063b8d5886314610479578063bbf0ce1d1461048157610295565b80637f877f85146103f25780637fbc9090146103fa57806380edef8e1461040d5780638d2ac7a4146104155780639ccabfb51461041d578063a6e6aa281461042557610295565b80632efca5341161020b57806364fe5de2116101c457806364fe5de2146103b75780636526a12a146103ca5780636c7ff97b146103d25780636d2c5615146103da5780637b0461e9146103e25780637e4831d3146103ea57610295565b80632efca534146103595780633559ca801461036e57806335d8ce6d146103815780634c634934146103945780634ebbe7621461039c5780635f55504c146103af57610295565b806313af40351161025d57806313af4035146102fb578063151284251461030e5780631c309e0a146103165780631d833ca61461031e5780631eaa0e171461033157806326862f9e1461034657610295565b806308a7493d1461029a5780630cecc5d6146102c35780630f4cd912146102d8578063101197c7146102eb57806312ace5a2146102f3575b600080fd5b6102ad6102a8366004613e51565b6104ff565b6040516102ba9190614710565b60405180910390f35b6102d66102d1366004613f6c565b610511565b005b6102ad6102e6366004613f3c565b61091f565b6102ad6109c3565b6102d66109c9565b6102d6610309366004613e51565b610bcb565b6102ad610c65565b6102d6610c6b565b6102d661032c366004613f6c565b610cfb565b610339611065565b6040516102ba9190614047565b6102d6610354366004613f6c565b611074565b6103616115b2565b6040516102ba9190614098565b6102d661037c366004613f6c565b6115c4565b6102d661038f366004613f6c565b611b21565b6102ad611db6565b6102d66103aa366004613fdb565b611dbc565b6102d6611e56565b6102d66103c5366004613f3c565b611ed4565b6102ad611f85565b6102d6611f8b565b6103616120e4565b6102ad6120f3565b6103616120f9565b610361612102565b6102d6610408366004613fb0565b612112565b610339612a05565b610361612a14565b6102ad612a25565b6102d6610433366004613e89565b612b03565b6102ad610446366004613e51565b612b8b565b6102d6610459366004613fb0565b612b9d565b6102ad61046c366004613e51565b612fc4565b610361612fd6565b6102ad612fe4565b6102d6612fea565b6102ad613058565b6102d661305e565b6102d66130e3565b6102ad613165565b6102d66104b7366004613f6c565b61316b565b6102ad613668565b6102d661366e565b6103616136ee565b6102ad6136fe565b6102ad613854565b6102d66104f2366004613ec1565b613a40565b6102ad613be6565b60096020526000908152604090205481565b600d5460ff161561053d5760405162461bcd60e51b815260040161053490614544565b60405180910390fd5b610545611f8b565b6000600654600a0a83029050600260009054906101000a90046001600160a01b03166001600160a01b0316634013124a6040518163ffffffff1660e01b8152600401600060405180830381600087803b1580156105a157600080fd5b505af11580156105b5573d6000803e3d6000fd5b505050506000600260009054906101000a90046001600160a01b03166001600160a01b031663fadb1b026040518163ffffffff1660e01b815260040160206040518083038186803b15801561060957600080fd5b505afa15801561061d573d6000803e3d6000fd5b505050506040513d601f19601f820116820180604052508101906106419190613f54565b905064e8d4a510008110156106685760405162461bcd60e51b81526004016105349061417d565b601254600a546000546040516370a0823160e01b815261071592889261070992620100009091046001600160a01b0316906370a08231906106ad903090600401614047565b60206040518083038186803b1580156106c557600080fd5b505afa1580156106d9573d6000803e3d6000fd5b505050506040513d601f19601f820116820180604052508101906106fd9190613f54565b9063ffffffff613bec16565b9063ffffffff613c3716565b11156107335760405162461bcd60e51b81526004016105349061459f565b600073__$1b7833db14374605bbf4baa82b35c8734a$__63ba8b18086107576136fe565b856040518363ffffffff1660e01b8152600401610775929190614719565b60206040518083038186803b15801561078d57600080fd5b505af41580156107a1573d6000803e3d6000fd5b505050506040513d601f19601f820116820180604052508101906107c59190613f54565b905061080664e8d4a510006107fa6107ed600e5464e8d4a51000613bec90919063ffffffff16565b849063ffffffff613c5c16565b9063ffffffff613c9616565b9050808411156108285760405162461bcd60e51b81526004016105349061456f565b6000546040516323b872dd60e01b8152620100009091046001600160a01b0316906323b872dd9061086190339030908a9060040161405b565b602060405180830381600087803b15801561087b57600080fd5b505af115801561088f573d6000803e3d6000fd5b505050506040513d601f19601f820116820180604052508101906108b39190613f1c565b50600254604051635a7ab59360e11b81526001600160a01b039091169063b4f56b26906108e6903390859060040161407f565b600060405180830381600087803b15801561090057600080fd5b505af1158015610914573d6000803e3d6000fd5b505050505050505050565b600080600160009054906101000a90046001600160a01b03166001600160a01b0316631dbb32906040518163ffffffff1660e01b815260040160206040518083038186803b15801561097057600080fd5b505afa158015610984573d6000803e3d6000fd5b505050506040513d601f19601f820116820180604052508101906109a89190613f54565b9050828111156109bb57829150506109be565b90505b919050565b60105481565b601554336000908152600c602052604090205443916109ee919063ffffffff613c3716565b1115610a0c5760405162461bcd60e51b81526004016105349061428b565b3360009081526008602052604081205481908190819015610a59573360009081526008602052604081208054919055600b54909250610a51908363ffffffff613bec16565b600b55600193505b3360009081526009602052604090205415610a9e57503360009081526009602052604081208054919055600a54610a96908263ffffffff613bec16565b600a55600192505b60018415151415610b2f5760015460405163a9059cbb60e01b81526001600160a01b039091169063a9059cbb90610adb903390869060040161407f565b602060405180830381600087803b158015610af557600080fd5b505af1158015610b09573d6000803e3d6000fd5b505050506040513d601f19601f82011682018060405250810190610b2d9190613f1c565b505b60018315151415610bc55760005460405163a9059cbb60e01b8152620100009091046001600160a01b03169063a9059cbb90610b71903390859060040161407f565b602060405180830381600087803b158015610b8b57600080fd5b505af1158015610b9f573d6000803e3d6000fd5b505050506040513d601f19601f82011682018060405250810190610bc39190613f1c565b505b50505050565b6005546001600160a01b03163314610bf55760405162461bcd60e51b8152600401610534906142f3565b6001600160a01b038116610c1b5760405162461bcd60e51b815260040161053490614640565b600580546001600160a01b0319166001600160a01b0383169081179091556040517f50146d0e3c60aa1d17a70635b05494f864e86144a2201275021014fbf08bafe290600090a250565b60155481565b6005546001600160a01b03163314610c955760405162461bcd60e51b8152600401610534906142f3565b600d805460ff65010000000000808304821615810265ff00000000001990931692909217928390556040517f5500d28fd6f79ee96ffff9ce2f45833d5913c84f586b8a537b6c6f25df0312a393610cf193900490911690614098565b60405180910390a1565b600d5460ff1615610d1e5760405162461bcd60e51b815260040161053490614544565b610d26611f8b565b600260009054906101000a90046001600160a01b03166001600160a01b0316634013124a6040518163ffffffff1660e01b8152600401600060405180830381600087803b158015610d7657600080fd5b505af1158015610d8a573d6000803e3d6000fd5b505050506000600260009054906101000a90046001600160a01b03166001600160a01b031663ed99250c6040518163ffffffff1660e01b815260040160206040518083038186803b158015610dde57600080fd5b505afa158015610df2573d6000803e3d6000fd5b505050506040513d601f19601f82011682018060405250810190610e169190613f54565b9050600260009054906101000a90046001600160a01b03166001600160a01b031663fadb1b026040518163ffffffff1660e01b815260040160206040518083038186803b158015610e6657600080fd5b505afa158015610e7a573d6000803e3d6000fd5b505050506040513d601f19601f82011682018060405250810190610e9e9190613f54565b15610ebb5760405162461bcd60e51b8152600401610534906146ae565b604051630810278f60e41b815260009073__$1b7833db14374605bbf4baa82b35c8734a$__9063810278f090610ef79085908890600401614719565b60206040518083038186803b158015610f0f57600080fd5b505af4158015610f23573d6000803e3d6000fd5b505050506040513d601f19601f82011682018060405250810190610f479190613f54565b9050610f6f64e8d4a510006107fa6107ed600e5464e8d4a51000613bec90919063ffffffff16565b905080831115610f915760405162461bcd60e51b81526004016105349061456f565b6001546002546040516302b7c01160e01b81526001600160a01b03928316926302b7c01192610fc9929116903390899060040161405b565b600060405180830381600087803b158015610fe357600080fd5b505af1158015610ff7573d6000803e3d6000fd5b5050600254604051635a7ab59360e11b81526001600160a01b03909116925063b4f56b26915061102d903390859060040161407f565b600060405180830381600087803b15801561104757600080fd5b505af115801561105b573d6000803e3d6000fd5b5050505050505050565b6004546001600160a01b031681565b600d54610100900460ff161561109c5760405162461bcd60e51b815260040161053490614359565b6110a4611f8b565b600260009054906101000a90046001600160a01b03166001600160a01b0316634013124a6040518163ffffffff1660e01b8152600401600060405180830381600087803b1580156110f457600080fd5b505af1158015611108573d6000803e3d6000fd5b5050505064e8d4a51000600260009054906101000a90046001600160a01b03166001600160a01b031663fadb1b026040518163ffffffff1660e01b815260040160206040518083038186803b15801561116057600080fd5b505afa158015611174573d6000803e3d6000fd5b505050506040513d601f19601f820116820180604052508101906111989190613f54565b146111b55760405162461bcd60e51b81526004016105349061450d565b60006111bf6136fe565b90506000600260009054906101000a90046001600160a01b03166001600160a01b031663fa6292196040518163ffffffff1660e01b815260040160206040518083038186803b15801561121157600080fd5b505afa158015611225573d6000803e3d6000fd5b505050506040513d601f19601f820116820180604052508101906112499190613f54565b9050600064e8d4a51000821161125f5781611266565b64e8d4a510005b90506000611295846107fa64e8d4a5100081866112898c8463ffffffff613c5c16565b9063ffffffff613c5c16565b90506112bd64e8d4a510006107fa6107ed600f5464e8d4a51000613bec90919063ffffffff16565b600a546000546040516370a0823160e01b81529293506112fc92620100009091046001600160a01b0316906370a08231906106ad903090600401614047565b81111561131b5760405162461bcd60e51b815260040161053490614677565b8085111561133b5760405162461bcd60e51b81526004016105349061456f565b600254604051631096f10360e01b81526001600160a01b0390911690631096f1039061136b903390600401614047565b60206040518083038186803b15801561138357600080fd5b505afa158015611397573d6000803e3d6000fd5b505050506040513d601f19601f820116820180604052508101906113bb9190613f1c565b156113f557336000908152600960205260409020546113e0908263ffffffff613c3716565b3360009081526009602052604090205561151e565b600061140882600a63ffffffff613c9616565b90506000611422600a6107fa85600963ffffffff613c5c16565b33600090815260096020526040902054909150611445908363ffffffff613c3716565b33600090815260096020908152604080832093909355600254835163a367e27d60e01b8152935192936001600160a01b039091169263a367e27d92600480840193919291829003018186803b15801561149d57600080fd5b505afa1580156114b1573d6000803e3d6000fd5b505050506040513d601f19601f820116820180604052508101906114d59190613e6d565b6001600160a01b038116600090815260096020526040902054909150611501908363ffffffff613c3716565b6001600160a01b0390911660009081526009602052604090205550505b600a54611531908263ffffffff613c3716565b600a55336000818152600c6020526040908190204390556002549051635453bc5760e11b81526001600160a01b039091169163a8a778ae9161157891908a9060040161407f565b600060405180830381600087803b15801561159257600080fd5b505af11580156115a6573d6000803e3d6000fd5b50505050505050505050565b600d5465010000000000900460ff1681565b600d5462010000900460ff16156115ed5760405162461bcd60e51b8152600401610534906145d4565b600d5465010000000000900460ff161561162b576005546001600160a01b0316331461162b5760405162461bcd60e51b8152600401610534906144c5565b611633611f8b565b600260009054906101000a90046001600160a01b03166001600160a01b0316634013124a6040518163ffffffff1660e01b8152600401600060405180830381600087803b15801561168357600080fd5b505af1158015611697573d6000803e3d6000fd5b505050506000600654600a0a830290506000600260009054906101000a90046001600160a01b03166001600160a01b031663ed99250c6040518163ffffffff1660e01b815260040160206040518083038186803b1580156116f757600080fd5b505afa15801561170b573d6000803e3d6000fd5b505050506040513d601f19601f8201168201806040525081019061172f9190613f54565b90506000600260009054906101000a90046001600160a01b03166001600160a01b03166318160ddd6040518163ffffffff1660e01b815260040160206040518083038186803b15801561178157600080fd5b505afa158015611795573d6000803e3d6000fd5b505050506040513d601f19601f820116820180604052508101906117b99190613f54565b90506000600260009054906101000a90046001600160a01b03166001600160a01b031663fadb1b026040518163ffffffff1660e01b815260040160206040518083038186803b15801561180b57600080fd5b505afa15801561181f573d6000803e3d6000fd5b505050506040513d601f19601f820116820180604052508101906118439190613f54565b90506000600260009054906101000a90046001600160a01b03166001600160a01b031663d2d97b066040518163ffffffff1660e01b815260040160206040518083038186803b15801561189557600080fd5b505afa1580156118a9573d6000803e3d6000fd5b505050506040513d601f19601f820116820180604052508101906118cd9190613f54565b905060008073__$1b7833db14374605bbf4baa82b35c8734a$__634e820a3f886118f56136fe565b8689896040518663ffffffff1660e01b8152600401611918959493929190614727565b604080518083038186803b15801561192f57600080fd5b505af4158015611943573d6000803e3d6000fd5b505050506040513d601f19601f820116820180604052508101906119679190613f8d565b915091506000611985600654600a0a84613c9690919063ffffffff16565b905060006119bd886107fa6119b06011546106fd60145464e8d4a51000613c3790919063ffffffff16565b869063ffffffff613c5c16565b90506119c88161091f565b9050808a11156119ea5760405162461bcd60e51b81526004016105349061456f565b6000546040516323b872dd60e01b8152620100009091046001600160a01b0316906323b872dd90611a239033903090879060040161405b565b602060405180830381600087803b158015611a3d57600080fd5b505af1158015611a51573d6000803e3d6000fd5b505050506040513d601f19601f82011682018060405250810190611a759190613f1c565b508015611ae757600154600254604051636361ddf360e11b81526001600160a01b039283169263c6c3bbe692611ab4929116903390869060040161405b565b600060405180830381600087803b158015611ace57600080fd5b505af1158015611ae2573d6000803e3d6000fd5b505050505b604051819083907fc2d7df98caa1a9bc768fc3ab167e19ae4febd5da76dad18d3387fb9fc656a37390600090a35050505050505050505050565b600d546301000000900460ff1615611b4b5760405162461bcd60e51b8152600401610534906146e5565b600d54600160301b900460ff1615611b87576005546001600160a01b03163314611b875760405162461bcd60e51b81526004016105349061460b565b611b8f611f8b565b60025460408051633b66494360e21b815290516000926001600160a01b03169163ed99250c916004808301926020929190829003018186803b158015611bd457600080fd5b505afa158015611be8573d6000803e3d6000fd5b505050506040513d601f19601f82011682018060405250810190611c0c9190613f54565b90506000611c5064e8d4a510006107fa611c3660105464e8d4a51000613bec90919063ffffffff16565b611289611c41613854565b87611c4a6136fe565b8b613cd8565b90506000611c6c600654600a0a83613c9690919063ffffffff16565b905080841115611c8e5760405162461bcd60e51b81526004016105349061456f565b6001546002546040516302b7c01160e01b81526001600160a01b03928316926302b7c01192611cc69291169033908a9060040161405b565b600060405180830381600087803b158015611ce057600080fd5b505af1158015611cf4573d6000803e3d6000fd5b505060005460405163a9059cbb60e01b8152620100009091046001600160a01b0316925063a9059cbb9150611d2f903390859060040161407f565b602060405180830381600087803b158015611d4957600080fd5b505af1158015611d5d573d6000803e3d6000fd5b505050506040513d601f19601f82011682018060405250810190611d819190613f1c565b50604051819086907f15b90a6a755d5ed0f929f1f40375d58183388d8d9e2f8e9a2efa93043e70f6de90600090a35050505050565b60145481565b6005546001600160a01b03163314611de65760405162461bcd60e51b8152600401610534906142f3565b601287905560148690556015859055600e849055600f839055601082905560118190556040517f17fe98b66d27bd793ea01bd8a23a54acab8eeb167d9eb016a0c7cd71c573920c90611e4590899089908990899089908990899061474a565b60405180910390a150505050505050565b6005546001600160a01b03163314611e805760405162461bcd60e51b8152600401610534906142f3565b600d805460ff610100808304821615810261ff001990931692909217928390556040517fd449302f806044ba9a0f0b2862e496c86cb4ef1f6b3fd474113fb26e46d9b28a93610cf193900490911690614098565b6005546001600160a01b03163314611efe5760405162461bcd60e51b8152600401610534906142f3565b600d54640100000000900460ff16611f1a576013819055611f20565b60006013555b600d805460ff640100000000808304821615810264ff000000001990931692909217928390556040517fbf1f9e6d8d67bb57a141c627f40368ec23ed7603249f0c3518c16eafbf9c4f6f93611f7a93900490911690614098565b60405180910390a150565b60125481565b600260009054906101000a90046001600160a01b03166001600160a01b0316636c7ff97b6040518163ffffffff1660e01b8152600401600060405180830381600087803b158015611fdb57600080fd5b505af1158015611fef573d6000803e3d6000fd5b50505050600360009054906101000a90046001600160a01b03166001600160a01b03166309bf39ed6040518163ffffffff1660e01b815260040160206040518083038186803b15801561204157600080fd5b505afa158015612055573d6000803e3d6000fd5b505050506040513d601f19601f820116820180604052508101906120799190613f1c565b156120e257600360009054906101000a90046001600160a01b03166001600160a01b031663d6f124f06040518163ffffffff1660e01b8152600401600060405180830381600087803b1580156120ce57600080fd5b505af1158015610bc5573d6000803e3d6000fd5b565b600d5462010000900460ff1681565b600a5481565b600d5460ff1681565b600d546301000000900460ff1681565b600d54610100900460ff161561213a5760405162461bcd60e51b815260040161053490614359565b612142611f8b565b600260009054906101000a90046001600160a01b03166001600160a01b0316634013124a6040518163ffffffff1660e01b8152600401600060405180830381600087803b15801561219257600080fd5b505af11580156121a6573d6000803e3d6000fd5b505050506000600260009054906101000a90046001600160a01b03166001600160a01b031663fadb1b026040518163ffffffff1660e01b815260040160206040518083038186803b1580156121fa57600080fd5b505afa15801561220e573d6000803e3d6000fd5b505050506040513d601f19601f820116820180604052508101906122329190613f54565b905064e8d4a51000811080156122485750600081115b6122645760405162461bcd60e51b8152600401610534906141eb565b6002546040805163fa62921960e01b815290516000926001600160a01b03169163fa629219916004808301926020929190829003018186803b1580156122a957600080fd5b505afa1580156122bd573d6000803e3d6000fd5b505050506040513d601f19601f820116820180604052508101906122e19190613f54565b905060008282106122f257826122f4565b815b9050600061232b64e8d4a510006107fa61231e600f5464e8d4a51000613bec90919063ffffffff16565b8a9063ffffffff613c5c16565b9050600061235861234b64e8d4a510006107fa858763ffffffff613c5c16565b839063ffffffff613bec16565b905060006123fa600260009054906101000a90046001600160a01b03166001600160a01b031663ed99250c6040518163ffffffff1660e01b815260040160206040518083038186803b1580156123ad57600080fd5b505afa1580156123c1573d6000803e3d6000fd5b505050506040513d601f19601f820116820180604052508101906123e59190613f54565b6107fa8464e8d4a5100063ffffffff613c5c16565b90506124058161091f565b90506000612421600654600a0a85613c9690919063ffffffff16565b9050600061243e64e8d4a510006107fa848963ffffffff613c5c16565b9050600061244d6123e56136fe565b600a546000546040516370a0823160e01b815292935061248c92620100009091046001600160a01b0316906370a08231906106ad903090600401614047565b8111156124ab5760405162461bcd60e51b815260040161053490614677565b808a11156124cb5760405162461bcd60e51b815260040161053490614248565b838b11156124eb5760405162461bcd60e51b815260040161053490614322565b600254604051631096f10360e01b81526001600160a01b0390911690631096f1039061251b903390600401614047565b60206040518083038186803b15801561253357600080fd5b505afa158015612547573d6000803e3d6000fd5b505050506040513d601f19601f8201168201806040525081019061256b9190613f1c565b156125a55733600090815260096020526040902054612590908263ffffffff613c3716565b336000908152600960205260409020556126ce565b60006125b882600a63ffffffff613c9616565b905060006125d2600a6107fa85600963ffffffff613c5c16565b336000908152600960205260409020549091506125f5908363ffffffff613c3716565b33600090815260096020908152604080832093909355600254835163a367e27d60e01b8152935192936001600160a01b039091169263a367e27d92600480840193919291829003018186803b15801561264d57600080fd5b505afa158015612661573d6000803e3d6000fd5b505050506040513d601f19601f820116820180604052508101906126859190613e6d565b6001600160a01b0381166000908152600960205260409020549091506126b1908363ffffffff613c3716565b6001600160a01b0390911660009081526009602052604090205550505b600a546126e1908263ffffffff613c3716565b600a5583156128e457600254604051631096f10360e01b81526001600160a01b0390911690631096f1039061271a903390600401614047565b60206040518083038186803b15801561273257600080fd5b505afa158015612746573d6000803e3d6000fd5b505050506040513d601f19601f8201168201806040525081019061276a9190613f1c565b156127a4573360009081526008602052604090205461278f908563ffffffff613c3716565b336000908152600860205260409020556128cd565b60006127b785600a63ffffffff613c9616565b905060006127d1600a6107fa88600963ffffffff613c5c16565b336000908152600860205260409020549091506127f4908363ffffffff613c3716565b33600090815260086020908152604080832093909355600254835163a367e27d60e01b8152935192936001600160a01b039091169263a367e27d92600480840193919291829003018186803b15801561284c57600080fd5b505afa158015612860573d6000803e3d6000fd5b505050506040513d601f19601f820116820180604052508101906128849190613e6d565b6001600160a01b0381166000908152600860205260409020549091506128b0908363ffffffff613c3716565b6001600160a01b0390911660009081526008602052604090205550505b600b546128e0908563ffffffff613c3716565b600b555b43600c6000336001600160a01b03166001600160a01b0316815260200190815260200160002081905550600260009054906101000a90046001600160a01b03166001600160a01b031663a8a778ae338e6040518363ffffffff1660e01b815260040161295192919061407f565b600060405180830381600087803b15801561296b57600080fd5b505af115801561297f573d6000803e3d6000fd5b5050505060008411156129f757600154600254604051636361ddf360e11b81526001600160a01b039283169263c6c3bbe6926129c4929116903090899060040161405b565b600060405180830381600087803b1580156129de57600080fd5b505af11580156129f2573d6000803e3d6000fd5b505050505b505050505050505050505050565b6005546001600160a01b031681565b600d54640100000000900460ff1681565b600d54600090640100000000900460ff16151560011415612aa657612a9f64e8d4a510006107fa601354611289600654600a0a611289600a54600060029054906101000a90046001600160a01b03166001600160a01b03166370a08231306040518263ffffffff1660e01b81526004016106ad9190614047565b9050612b00565b612a9f64e8d4a510006107fa612aba6136fe565b600654600a80546000546040516370a0823160e01b81526112899490930a928492916201000090046001600160a01b0316906370a08231906106ad903090600401614047565b90565b6005546001600160a01b03163314612b2d5760405162461bcd60e51b8152600401610534906142f3565b600380546001600160a01b03199081166001600160a01b03858116918217909355600780549092169284169283179091556040517f856e4796eef882904bc46a505b32b16c6fbcef9e0930ac95b2f980781517bf6390600090a35050565b600c6020526000908152604090205481565b600d5460ff1615612bc05760405162461bcd60e51b815260040161053490614544565b612bc8611f8b565b600260009054906101000a90046001600160a01b03166001600160a01b0316634013124a6040518163ffffffff1660e01b8152600401600060405180830381600087803b158015612c1857600080fd5b505af1158015612c2c573d6000803e3d6000fd5b505050506000600260009054906101000a90046001600160a01b03166001600160a01b031663ed99250c6040518163ffffffff1660e01b815260040160206040518083038186803b158015612c8057600080fd5b505afa158015612c94573d6000803e3d6000fd5b505050506040513d601f19601f82011682018060405250810190612cb89190613f54565b90506000600260009054906101000a90046001600160a01b03166001600160a01b031663fadb1b026040518163ffffffff1660e01b815260040160206040518083038186803b158015612d0a57600080fd5b505afa158015612d1e573d6000803e3d6000fd5b505050506040513d601f19601f82011682018060405250810190612d429190613f54565b905064e8d4a5100081108015612d585750600081115b612d745760405162461bcd60e51b8152600401610534906141eb565b601254600a546000546040516370a0823160e01b8152612db992899261070992620100009091046001600160a01b0316906370a08231906106ad903090600401614047565b1115612dd75760405162461bcd60e51b815260040161053490614415565b600654600a0a8502600080612df585612dee6136fe565b8587613d5c565b91509150612e2c64e8d4a510006107fa612e1f600e5464e8d4a51000613bec90919063ffffffff16565b859063ffffffff613c5c16565b915081861115612e4e5760405162461bcd60e51b81526004016105349061456f565b86811115612e6e5760405162461bcd60e51b815260040161053490614146565b6001546002546040516302b7c01160e01b81526001600160a01b03928316926302b7c01192612ea6929116903390869060040161405b565b600060405180830381600087803b158015612ec057600080fd5b505af1158015612ed4573d6000803e3d6000fd5b50506000546040516323b872dd60e01b8152620100009091046001600160a01b031692506323b872dd9150612f1190339030908d9060040161405b565b602060405180830381600087803b158015612f2b57600080fd5b505af1158015612f3f573d6000803e3d6000fd5b505050506040513d601f19601f82011682018060405250810190612f639190613f1c565b50600254604051635a7ab59360e11b81526001600160a01b039091169063b4f56b2690612f96903390869060040161407f565b600060405180830381600087803b158015612fb057600080fd5b505af11580156129f7573d6000803e3d6000fd5b60086020526000908152604090205481565b600d54610100900460ff1681565b600b5481565b6005546001600160a01b031633146130145760405162461bcd60e51b8152600401610534906142f3565b600d805460ff19811660ff9182161517918290556040517f3f3c6b7e51ec0201fea018ffcf768f21f85a27593219359fd6af1d95c7e8b44192610cf1921690614098565b600e5481565b6005546001600160a01b031633146130885760405162461bcd60e51b8152600401610534906142f3565b600d805460ff600160301b808304821615810266ff0000000000001990931692909217928390556040517fd5bc042d6e197fb30aec38c1634dabc01e0bb517e3fea6db130cea575371224693610cf193900490911690614098565b6005546001600160a01b0316331461310d5760405162461bcd60e51b8152600401610534906142f3565b600d805460ff6301000000808304821615810263ff0000001990931692909217928390556040517fef220f30673af554aae10180ad5ab98f41c923213a66d1207dbe61f00aa75acf93610cf193900490911690614098565b60135481565b600d54610100900460ff16156131935760405162461bcd60e51b815260040161053490614359565b61319b611f8b565b600260009054906101000a90046001600160a01b03166001600160a01b0316634013124a6040518163ffffffff1660e01b8152600401600060405180830381600087803b1580156131eb57600080fd5b505af11580156131ff573d6000803e3d6000fd5b505050506000600260009054906101000a90046001600160a01b03166001600160a01b031663ed99250c6040518163ffffffff1660e01b815260040160206040518083038186803b15801561325357600080fd5b505afa158015613267573d6000803e3d6000fd5b505050506040513d601f19601f8201168201806040525081019061328b9190613f54565b90506000600260009054906101000a90046001600160a01b03166001600160a01b031663fadb1b026040518163ffffffff1660e01b815260040160206040518083038186803b1580156132dd57600080fd5b505afa1580156132f1573d6000803e3d6000fd5b505050506040513d601f19601f820116820180604052508101906133159190613f54565b905080156133355760405162461bcd60e51b8152600401610534906146ae565b600084905061336064e8d4a510006107fa6107ed600f5464e8d4a51000613bec90919063ffffffff16565b9050600061337d846107fa8464e8d4a5100063ffffffff613c5c16565b90506133888161091f565b9050801561358a57600254604051631096f10360e01b81526001600160a01b0390911690631096f103906133c0903390600401614047565b60206040518083038186803b1580156133d857600080fd5b505afa1580156133ec573d6000803e3d6000fd5b505050506040513d601f19601f820116820180604052508101906134109190613f1c565b1561344a5733600090815260086020526040902054613435908263ffffffff613c3716565b33600090815260086020526040902055613573565b600061345d82600a63ffffffff613c9616565b90506000613477600a6107fa85600963ffffffff613c5c16565b3360009081526008602052604090205490915061349a908363ffffffff613c3716565b33600090815260086020908152604080832093909355600254835163a367e27d60e01b8152935192936001600160a01b039091169263a367e27d92600480840193919291829003018186803b1580156134f257600080fd5b505afa158015613506573d6000803e3d6000fd5b505050506040513d601f19601f8201168201806040525081019061352a9190613e6d565b6001600160a01b038116600090815260086020526040902054909150613556908363ffffffff613c3716565b6001600160a01b0390911660009081526008602052604090205550505b600b54613586908263ffffffff613c3716565b600b555b336000908152600c602052604090204390558085106135bb5760405162461bcd60e51b81526004016105349061456f565b600254604051635453bc5760e11b81526001600160a01b039091169063a8a778ae906135ed9033908a9060040161407f565b600060405180830381600087803b15801561360757600080fd5b505af115801561361b573d6000803e3d6000fd5b50505050600081111561366057600154600254604051636361ddf360e11b81526001600160a01b039283169263c6c3bbe692611578929116903090869060040161405b565b505050505050565b600f5481565b6005546001600160a01b031633146136985760405162461bcd60e51b8152600401610534906142f3565b600d805460ff62010000808304821615810262ff00001990931692909217928390556040517f7e9a29a085706d1cf00b68ff18532dae53be17faa8be9bab8821c355a393656a93610cf193900490911690614098565b600d54600160301b900460ff1681565b600d54600090640100000000900460ff161515600114156137225750601354612b00565b60025460408051632d83c63b60e11b815290516000926001600160a01b031691635b078c76916004808301926020929190829003018186803b15801561376757600080fd5b505afa15801561377b573d6000803e3d6000fd5b505050506040513d601f19601f8201168201806040525081019061379f9190613f54565b600354600754604051633ddac95360e01b81529293506000926001600160a01b0392831692633ddac953926137e09291169064e8d4a510009060040161407f565b60206040518083038186803b1580156137f857600080fd5b505afa15801561380c573d6000803e3d6000fd5b505050506040513d601f19601f820116820180604052508101906138309190613f54565b905061384b816107fa8464e8d4a5100063ffffffff613c5c16565b92505050612b00565b600080600260009054906101000a90046001600160a01b03166001600160a01b03166318160ddd6040518163ffffffff1660e01b815260040160206040518083038186803b1580156138a557600080fd5b505afa1580156138b9573d6000803e3d6000fd5b505050506040513d601f19601f820116820180604052508101906138dd9190613f54565b90506000600260009054906101000a90046001600160a01b03166001600160a01b031663fadb1b026040518163ffffffff1660e01b815260040160206040518083038186803b15801561392f57600080fd5b505afa158015613943573d6000803e3d6000fd5b505050506040513d601f19601f820116820180604052508101906139679190613f54565b90506000600260009054906101000a90046001600160a01b03166001600160a01b031663d2d97b066040518163ffffffff1660e01b815260040160206040518083038186803b1580156139b957600080fd5b505afa1580156139cd573d6000803e3d6000fd5b505050506040513d601f19601f820116820180604052508101906139f19190613f54565b90506000613a0e64e8d4a510006107fa868663ffffffff613c5c16565b905080821115613a3357613a28828263ffffffff613bec16565b945050505050612b00565b6000945050505050612b00565b600054610100900460ff1680613a595750613a59613dd7565b80613a67575060005460ff16155b613a835760405162461bcd60e51b8152600401610534906143c7565b600054610100900460ff16158015613aae576000805460ff1961ff0019909116610100171660011790555b600280546001600160a01b03199081166001600160a01b0388811691909117909255600180548216878416179055600480548216868416908117825560058054909316868516179092556000805462010000600160b01b0319166201000093840217908190556040805163313ce56760e01b81529051613b9d95949092049093169263313ce5679281810192602092909190829003018186803b158015613b5457600080fd5b505afa158015613b68573d6000803e3d6000fd5b505050506040513d601f19601f82011682018060405250810190613b8c9190614026565b60129060ff1663ffffffff613bec16565b6006556ec097ce7bc90715b34b9f10000000006012556401bf08eb00601455600160155563b2d05e00600e819055600f558015610bc3576000805461ff00191690555050505050565b60115481565b6000613c2e83836040518060400160405280601e81526020017f536166654d6174683a207375627472616374696f6e206f766572666c6f770000815250613de8565b90505b92915050565b600082820183811015613c2e5760405162461bcd60e51b8152600401610534906141b4565b600082613c6b57506000613c31565b82820282848281613c7857fe5b0414613c2e5760405162461bcd60e51b815260040161053490614484565b6000613c2e83836040518060400160405280601a81526020017f536166654d6174683a206469766973696f6e206279207a65726f000000000000815250613e14565b6000808511613cf95760405162461bcd60e51b815260040161053490614386565b6000613d1464e8d4a510006107fa858863ffffffff613c5c16565b905085811115613d365760405162461bcd60e51b8152600401610534906140f6565b6000613d51856107fa8464e8d4a5100063ffffffff613c5c16565b979650505050505050565b60008080613d7964e8d4a510006107fa878963ffffffff613c5c16565b90506000613d9a826106fd876107fa8364e8d4a5100063ffffffff613c5c16565b90506000613db7896107fa8464e8d4a5100063ffffffff613c5c16565b9050613dc9838363ffffffff613c3716565b999098509650505050505050565b6000613de230613e4b565b15905090565b60008184841115613e0c5760405162461bcd60e51b815260040161053491906140a3565b505050900390565b60008183613e355760405162461bcd60e51b815260040161053491906140a3565b506000838581613e4157fe5b0495945050505050565b3b151590565b600060208284031215613e62578081fd5b8135613c2e8161477a565b600060208284031215613e7e578081fd5b8151613c2e8161477a565b60008060408385031215613e9b578081fd5b8235613ea68161477a565b91506020830135613eb68161477a565b809150509250929050565b60008060008060808587031215613ed6578182fd5b8435613ee18161477a565b93506020850135613ef18161477a565b92506040850135613f018161477a565b91506060850135613f118161477a565b939692955090935050565b600060208284031215613f2d578081fd5b81518015158114613c2e578182fd5b600060208284031215613f4d578081fd5b5035919050565b600060208284031215613f65578081fd5b5051919050565b60008060408385031215613f7e578182fd5b50508035926020909101359150565b60008060408385031215613f9f578182fd5b505080516020909101519092909150565b600080600060608486031215613fc4578283fd5b505081359360208301359350604090920135919050565b600080600080600080600060e0888a031215613ff5578283fd5b505085359760208701359750604087013596606081013596506080810135955060a0810135945060c0013592509050565b600060208284031215614037578081fd5b815160ff81168114613c2e578182fd5b6001600160a01b0391909116815260200190565b6001600160a01b039384168152919092166020820152604081019190915260600190565b6001600160a01b03929092168252602082015260400190565b901515815260200190565b6000602080835283518082850152825b818110156140cf578581018301518582016040015282016140b3565b818111156140e05783604083870101525b50601f01601f1916929092016040019392505050565b60208082526030908201527f596f752061726520747279696e6720746f20627579206261636b206d6f72652060408201526f7468616e20746865206578636573732160801b606082015260800190565b60208082526017908201527f4e6f7420656e6f7567682042445820696e707574746564000000000000000000604082015260600190565b6020808252601d908201527f436f6c6c61746572616c20726174696f206d757374206265203e3d2031000000604082015260600190565b6020808252601b908201527f536166654d6174683a206164646974696f6e206f766572666c6f770000000000604082015260600190565b60208082526038908201527f436f6c6c61746572616c20726174696f206e6565647320746f2062652062657460408201527f7765656e202e30303030303120616e64202e3939393939390000000000000000606082015260800190565b60208082526023908201527f536c697070616765206c696d69742072656163686564205b636f6c6c61746572604082015262616c5d60e81b606082015260800190565b60208082526042908201527f4d757374207761697420666f7220726564656d7074696f6e5f64656c6179206260408201527f6c6f636b73206265666f726520636f6c6c656374696e6720726564656d70746960608201526137b760f11b608082015260a00190565b6020808252601590820152742cb7ba9030b932903737ba103a34329037bbb732b960591b604082015260600190565b6020808252601c908201527f536c697070616765206c696d69742072656163686564205b4244585d00000000604082015260600190565b60208082526013908201527214995919595b5a5b99c81a5cc81c185d5cd959606a1b604082015260600190565b60208082526021908201527f4e6f2065786365737320636f6c6c61746572616c20746f20627579206261636b6040820152602160f81b606082015260800190565b6020808252602e908201527f496e697469616c697a61626c653a20636f6e747261637420697320616c72656160408201526d191e481a5b9a5d1a585b1a5e995960921b606082015260800190565b60208082526049908201527f506f6f6c206365696c696e6720726561636865642c206e6f206d6f726520426460408201527f537461626c652063616e206265206d696e7465642077697468207468697320636060820152681bdb1b185d195c985b60ba1b608082015260a00190565b60208082526021908201527f536166654d6174683a206d756c7469706c69636174696f6e206f766572666c6f6040820152607760f81b606082015260800190565b60208082526028908201527f43757272656e746c79206f6e6c79206f776e65722063616e207265636f6c6c61604082015267746572616c697a6560c01b606082015260800190565b6020808252601d908201527f436f6c6c61746572616c20726174696f206d757374206265203d3d2031000000604082015260600190565b602080825260119082015270135a5b9d1a5b99c81a5cc81c185d5cd959607a1b604082015260600190565b60208082526016908201527514db1a5c1c1859d9481b1a5b5a5d081c995858da195960521b604082015260600190565b6020808252818101527f5b506f6f6c277320436c6f7365645d3a204365696c696e672072656163686564604082015260600190565b60208082526019908201527f5265636f6c6c61746572616c697a652069732070617573656400000000000000604082015260600190565b6020808252818101527f43757272656e746c79206f6e6c79206f776e65722063616e206275796261636b604082015260600190565b6020808252601f908201527f4e6577206f776e65722063616e2774206265207a65726f206164647265737300604082015260600190565b6020808252601d908201527f4e6f7420656e6f75676820636f6c6c61746572616c20696e20706f6f6c000000604082015260600190565b6020808252601a908201527f436f6c6c61746572616c20726174696f206d7573742062652030000000000000604082015260600190565b602080825260119082015270109d5e589858dac81a5cc81c185d5cd959607a1b604082015260600190565b90815260200190565b918252602082015260400190565b948552602085019390935260408401919091526060830152608082015260a00190565b968752602087019590955260408601939093526060850191909152608084015260a083015260c082015260e00190565b6001600160a01b038116811461478f57600080fd5b5056fea26469706673582212205c0eeed6fb0fe951263ecae0453e4389f648d800199cd0967eac4ee17dcb79df64736f6c634300060b0033",
  "libraries": {
    "BdPoolLibrary": "0x798A271E3966156515BCc947d26f736E8580A436"
  },
  "devdoc": {
    "kind": "dev",
    "methods": {},
    "version": 1
  },
  "userdoc": {
    "kind": "user",
    "methods": {},
    "version": 1
  },
  "storageLayout": {
    "storage": [
      {
        "astId": 492,
        "contract": "contracts/BdStable/Pools/BdStablePool.sol:BdStablePool",
        "label": "_initialized",
        "offset": 0,
        "slot": "0",
        "type": "t_bool"
      },
      {
        "astId": 495,
        "contract": "contracts/BdStable/Pools/BdStablePool.sol:BdStablePool",
        "label": "_initializing",
        "offset": 1,
        "slot": "0",
        "type": "t_bool"
      },
      {
        "astId": 2842,
        "contract": "contracts/BdStable/Pools/BdStablePool.sol:BdStablePool",
        "label": "collateral_token",
        "offset": 2,
        "slot": "0",
        "type": "t_contract(ERC20)5857"
      },
      {
        "astId": 2844,
        "contract": "contracts/BdStable/Pools/BdStablePool.sol:BdStablePool",
        "label": "BDX",
        "offset": 0,
        "slot": "1",
        "type": "t_contract(BDXShares)5261"
      },
      {
        "astId": 2846,
        "contract": "contracts/BdStable/Pools/BdStablePool.sol:BdStablePool",
        "label": "BDSTABLE",
        "offset": 0,
        "slot": "2",
        "type": "t_contract(BDStable)2581"
      },
      {
        "astId": 2848,
        "contract": "contracts/BdStable/Pools/BdStablePool.sol:BdStablePool",
        "label": "collatWEthOracle",
        "offset": 0,
        "slot": "3",
        "type": "t_contract(ICryptoPairOracle)8445"
      },
      {
        "astId": 2850,
        "contract": "contracts/BdStable/Pools/BdStablePool.sol:BdStablePool",
        "label": "collateral_address",
        "offset": 0,
        "slot": "4",
        "type": "t_address"
      },
      {
        "astId": 2852,
        "contract": "contracts/BdStable/Pools/BdStablePool.sol:BdStablePool",
        "label": "owner_address",
        "offset": 0,
        "slot": "5",
        "type": "t_address"
      },
      {
        "astId": 2854,
        "contract": "contracts/BdStable/Pools/BdStablePool.sol:BdStablePool",
        "label": "missing_decimals",
        "offset": 0,
        "slot": "6",
        "type": "t_uint256"
      },
      {
        "astId": 2856,
        "contract": "contracts/BdStable/Pools/BdStablePool.sol:BdStablePool",
        "label": "weth_address",
        "offset": 0,
        "slot": "7",
        "type": "t_address"
      },
      {
        "astId": 2860,
        "contract": "contracts/BdStable/Pools/BdStablePool.sol:BdStablePool",
        "label": "redeemBDXBalances",
        "offset": 0,
        "slot": "8",
        "type": "t_mapping(t_address,t_uint256)"
      },
      {
        "astId": 2864,
        "contract": "contracts/BdStable/Pools/BdStablePool.sol:BdStablePool",
        "label": "redeemCollateralBalances",
        "offset": 0,
        "slot": "9",
        "type": "t_mapping(t_address,t_uint256)"
      },
      {
        "astId": 2866,
        "contract": "contracts/BdStable/Pools/BdStablePool.sol:BdStablePool",
        "label": "unclaimedPoolCollateral",
        "offset": 0,
        "slot": "10",
        "type": "t_uint256"
      },
      {
        "astId": 2868,
        "contract": "contracts/BdStable/Pools/BdStablePool.sol:BdStablePool",
        "label": "unclaimedPoolBDX",
        "offset": 0,
        "slot": "11",
        "type": "t_uint256"
      },
      {
        "astId": 2872,
        "contract": "contracts/BdStable/Pools/BdStablePool.sol:BdStablePool",
        "label": "lastRedeemed",
        "offset": 0,
        "slot": "12",
        "type": "t_mapping(t_address,t_uint256)"
      },
      {
        "astId": 2874,
        "contract": "contracts/BdStable/Pools/BdStablePool.sol:BdStablePool",
        "label": "mintPaused",
        "offset": 0,
        "slot": "13",
        "type": "t_bool"
      },
      {
        "astId": 2876,
        "contract": "contracts/BdStable/Pools/BdStablePool.sol:BdStablePool",
        "label": "redeemPaused",
        "offset": 1,
        "slot": "13",
        "type": "t_bool"
      },
      {
        "astId": 2878,
        "contract": "contracts/BdStable/Pools/BdStablePool.sol:BdStablePool",
        "label": "recollateralizePaused",
        "offset": 2,
        "slot": "13",
        "type": "t_bool"
      },
      {
        "astId": 2880,
        "contract": "contracts/BdStable/Pools/BdStablePool.sol:BdStablePool",
        "label": "buyBackPaused",
        "offset": 3,
        "slot": "13",
        "type": "t_bool"
      },
      {
        "astId": 2882,
        "contract": "contracts/BdStable/Pools/BdStablePool.sol:BdStablePool",
        "label": "collateralPricePaused",
        "offset": 4,
        "slot": "13",
        "type": "t_bool"
      },
      {
        "astId": 2884,
        "contract": "contracts/BdStable/Pools/BdStablePool.sol:BdStablePool",
        "label": "recollateralizeOnlyForOwner",
        "offset": 5,
        "slot": "13",
        "type": "t_bool"
      },
      {
        "astId": 2886,
        "contract": "contracts/BdStable/Pools/BdStablePool.sol:BdStablePool",
        "label": "buybackOnlyForOwner",
        "offset": 6,
        "slot": "13",
        "type": "t_bool"
      },
      {
        "astId": 2888,
        "contract": "contracts/BdStable/Pools/BdStablePool.sol:BdStablePool",
        "label": "minting_fee",
        "offset": 0,
        "slot": "14",
        "type": "t_uint256"
      },
      {
        "astId": 2890,
        "contract": "contracts/BdStable/Pools/BdStablePool.sol:BdStablePool",
        "label": "redemption_fee",
        "offset": 0,
        "slot": "15",
        "type": "t_uint256"
      },
      {
        "astId": 2892,
        "contract": "contracts/BdStable/Pools/BdStablePool.sol:BdStablePool",
        "label": "buyback_fee",
        "offset": 0,
        "slot": "16",
        "type": "t_uint256"
      },
      {
        "astId": 2894,
        "contract": "contracts/BdStable/Pools/BdStablePool.sol:BdStablePool",
        "label": "recollat_fee",
        "offset": 0,
        "slot": "17",
        "type": "t_uint256"
      },
      {
        "astId": 2896,
        "contract": "contracts/BdStable/Pools/BdStablePool.sol:BdStablePool",
        "label": "pool_ceiling",
        "offset": 0,
        "slot": "18",
        "type": "t_uint256"
      },
      {
        "astId": 2898,
        "contract": "contracts/BdStable/Pools/BdStablePool.sol:BdStablePool",
        "label": "pausedPrice",
        "offset": 0,
        "slot": "19",
        "type": "t_uint256"
      },
      {
        "astId": 2900,
        "contract": "contracts/BdStable/Pools/BdStablePool.sol:BdStablePool",
        "label": "bonus_rate",
        "offset": 0,
        "slot": "20",
        "type": "t_uint256"
      },
      {
        "astId": 2902,
        "contract": "contracts/BdStable/Pools/BdStablePool.sol:BdStablePool",
        "label": "redemption_delay",
        "offset": 0,
        "slot": "21",
        "type": "t_uint256"
      }
    ],
    "types": {
      "t_address": {
        "encoding": "inplace",
        "label": "address",
        "numberOfBytes": "20"
      },
      "t_bool": {
        "encoding": "inplace",
        "label": "bool",
        "numberOfBytes": "1"
      },
      "t_contract(BDStable)2581": {
        "encoding": "inplace",
        "label": "contract BDStable",
        "numberOfBytes": "20"
      },
      "t_contract(BDXShares)5261": {
        "encoding": "inplace",
        "label": "contract BDXShares",
        "numberOfBytes": "20"
      },
      "t_contract(ERC20)5857": {
        "encoding": "inplace",
        "label": "contract ERC20",
        "numberOfBytes": "20"
      },
      "t_contract(ICryptoPairOracle)8445": {
        "encoding": "inplace",
        "label": "contract ICryptoPairOracle",
        "numberOfBytes": "20"
      },
      "t_mapping(t_address,t_uint256)": {
        "encoding": "mapping",
        "key": "t_address",
        "label": "mapping(address => uint256)",
        "numberOfBytes": "32",
        "value": "t_uint256"
      },
      "t_uint256": {
        "encoding": "inplace",
        "label": "uint256",
        "numberOfBytes": "32"
      }
    }
  }
}