{
  "address": "0x0a0040CD407ee73DA65D2Be19669eea0Eb3C2979",
  "abi": [
    {
      "anonymous": false,
      "inputs": [
        {
          "indexed": true,
          "internalType": "address",
          "name": "previousOwner",
          "type": "address"
        },
        {
          "indexed": true,
          "internalType": "address",
          "name": "newOwner",
          "type": "address"
        }
      ],
      "name": "OwnershipTransferred",
      "type": "event"
    },
    {
      "inputs": [],
      "name": "AllBdStables",
      "outputs": [
        {
          "components": [
            {
              "internalType": "string",
              "name": "fiat",
              "type": "string"
            },
            {
              "internalType": "address",
              "name": "token",
              "type": "address"
            }
          ],
          "internalType": "struct BDLens.BdStableInfo[]",
          "name": "",
          "type": "tuple[]"
        }
      ],
      "stateMutability": "view",
      "type": "function"
    },
    {
      "inputs": [],
      "name": "AllStakings",
      "outputs": [
        {
          "components": [
            {
              "internalType": "address",
              "name": "lp",
              "type": "address"
            },
            {
              "internalType": "address",
              "name": "token",
              "type": "address"
            }
          ],
          "internalType": "struct BDLens.StakingInfo[]",
          "name": "",
          "type": "tuple[]"
        }
      ],
      "stateMutability": "view",
      "type": "function"
    },
    {
      "inputs": [],
      "name": "BDX",
      "outputs": [
        {
          "internalType": "address",
          "name": "",
          "type": "address"
        }
      ],
      "stateMutability": "view",
      "type": "function"
    },
    {
      "inputs": [
        {
          "internalType": "uint256",
          "name": "",
          "type": "uint256"
        }
      ],
      "name": "BdStables",
      "outputs": [
        {
          "internalType": "address",
          "name": "",
          "type": "address"
        }
      ],
      "stateMutability": "view",
      "type": "function"
    },
    {
      "inputs": [],
      "name": "BdStablesLength",
      "outputs": [
        {
          "internalType": "uint256",
          "name": "",
          "type": "uint256"
        }
      ],
      "stateMutability": "view",
      "type": "function"
    },
    {
      "inputs": [],
      "name": "StakingRewardsDistribution",
      "outputs": [
        {
          "internalType": "address",
          "name": "",
          "type": "address"
        }
      ],
      "stateMutability": "view",
      "type": "function"
    },
    {
      "inputs": [
        {
          "internalType": "uint256",
          "name": "",
          "type": "uint256"
        }
      ],
      "name": "Stakings",
      "outputs": [
        {
          "internalType": "address",
          "name": "",
          "type": "address"
        }
      ],
      "stateMutability": "view",
      "type": "function"
    },
    {
      "inputs": [],
      "name": "StakingsLength",
      "outputs": [
        {
          "internalType": "uint256",
          "name": "",
          "type": "uint256"
        }
      ],
      "stateMutability": "view",
      "type": "function"
    },
    {
      "inputs": [],
      "name": "SwapFactory",
      "outputs": [
        {
          "internalType": "address",
          "name": "",
          "type": "address"
        }
      ],
      "stateMutability": "view",
      "type": "function"
    },
    {
      "inputs": [],
      "name": "SwapRouter",
      "outputs": [
        {
          "internalType": "address",
          "name": "",
          "type": "address"
        }
      ],
      "stateMutability": "view",
      "type": "function"
    },
    {
      "inputs": [],
      "name": "initialize",
      "outputs": [],
      "stateMutability": "nonpayable",
      "type": "function"
    },
    {
      "inputs": [],
      "name": "owner",
      "outputs": [
        {
          "internalType": "address",
          "name": "",
          "type": "address"
        }
      ],
      "stateMutability": "view",
      "type": "function"
    },
    {
      "inputs": [
        {
          "internalType": "address",
          "name": "_bdstable",
          "type": "address"
        }
      ],
      "name": "pushBdStable",
      "outputs": [],
      "stateMutability": "nonpayable",
      "type": "function"
    },
    {
      "inputs": [
        {
          "internalType": "address",
          "name": "_staking",
          "type": "address"
        }
      ],
      "name": "pushStaking",
      "outputs": [],
      "stateMutability": "nonpayable",
      "type": "function"
    },
    {
      "inputs": [],
      "name": "renounceOwnership",
      "outputs": [],
      "stateMutability": "nonpayable",
      "type": "function"
    },
    {
      "inputs": [
        {
          "internalType": "address",
          "name": "_bdx",
          "type": "address"
        }
      ],
      "name": "setBDX",
      "outputs": [],
      "stateMutability": "nonpayable",
      "type": "function"
    },
    {
      "inputs": [
        {
          "internalType": "address",
          "name": "_stakingRewardsDistribution",
          "type": "address"
        }
      ],
      "name": "setStakingRewardsDistribution",
      "outputs": [],
      "stateMutability": "nonpayable",
      "type": "function"
    },
    {
      "inputs": [
        {
          "internalType": "address",
          "name": "_swapFactory",
          "type": "address"
        }
      ],
      "name": "setSwapFactory",
      "outputs": [],
      "stateMutability": "nonpayable",
      "type": "function"
    },
    {
      "inputs": [
        {
          "internalType": "address",
          "name": "_swapRouter",
          "type": "address"
        }
      ],
      "name": "setSwapRouter",
      "outputs": [],
      "stateMutability": "nonpayable",
      "type": "function"
    },
    {
      "inputs": [
        {
          "internalType": "address",
          "name": "newOwner",
          "type": "address"
        }
      ],
      "name": "transferOwnership",
      "outputs": [],
      "stateMutability": "nonpayable",
      "type": "function"
    }
  ],
  "transactionHash": "0x328556ec3f9c1308f3389fb4e23d377df15ca9f867f8c56aa9a490f0bfb63ca9",
  "args": [],
  "solcInputHash": "7fc5f7df362effb291697cb25232d91e",
  "bytecode": "0x608060405234801561001057600080fd5b50610fa5806100206000396000f3fe608060405234801561001057600080fd5b506004361061012c5760003560e01c8063a4209b5d116100ad578063edf6741c11610071578063edf6741c1461021f578063ee916bf714610232578063f2fde38b14610245578063faee813214610258578063ffa839741461026b5761012c565b8063a4209b5d146101d4578063b66c64b6146101e7578063c34e596f146101fc578063c3eaf6671461020f578063e28cae39146102175761012c565b8063715018a6116100f4578063715018a6146101945780638129fc1c1461019c57806384562603146101a45780638da5cb5b146101b75780639bd3b5fc146101bf5761012c565b80632c0037db14610131578063412736571461014f5780634dc32eff14610164578063625817841461016c5780636700c5231461017f575b600080fd5b610139610273565b6040516101469190610d21565b60405180910390f35b61016261015d366004610c22565b610282565b005b6101396102e5565b61016261017a366004610c22565b6102f4565b61018761034e565b6040516101469190610dcd565b6101626104a8565b610162610531565b6101626101b2366004610c22565b6105bc565b610139610646565b6101c7610655565b6040516101469190610f21565b6101626101e2366004610c22565b61065b565b6101ef6106e5565b6040516101469190610d35565b61016261020a366004610c22565b610832565b61013961088c565b61013961089b565b61013961022d366004610cfc565b6108aa565b610139610240366004610cfc565b6108d1565b610162610253366004610c22565b6108de565b610162610266366004610c22565b61099f565b6101c76109f9565b6068546001600160a01b031681565b61028a610646565b6001600160a01b0316336001600160a01b0316146102c35760405162461bcd60e51b81526004016102ba90610e6f565b60405180910390fd5b606780546001600160a01b0319166001600160a01b0392909216919091179055565b6067546001600160a01b031681565b6102fc610646565b6001600160a01b0316336001600160a01b03161461032c5760405162461bcd60e51b81526004016102ba90610e6f565b606580546001600160a01b0319166001600160a01b0392909216919091179055565b606a54606090819067ffffffffffffffff8111801561036c57600080fd5b506040519080825280602002602001820160405280156103a657816020015b610393610bf3565b81526020019060019003908161038b5790505b50905060005b606a548110156104a2576040518060400160405280606a83815481106103ce57fe5b60009182526020918290200154604080516372f702f360e01b815290516001600160a01b03909216926372f702f392600480840193829003018186803b15801561041757600080fd5b505afa15801561042b573d6000803e3d6000fd5b505050506040513d601f19601f8201168201806040525081019061044f9190610c45565b6001600160a01b03168152602001606a838154811061046a57fe5b6000918252602090912001546001600160a01b03169052825183908390811061048f57fe5b60209081029190910101526001016103ac565b50905090565b6104b06109ff565b6001600160a01b03166104c1610646565b6001600160a01b0316146104e75760405162461bcd60e51b81526004016102ba90610eec565b6033546040516000916001600160a01b0316907f8be0079c531659141344cd1fd0a4f28419497f9722a3daafe3b4186f6b6457e0908390a3603380546001600160a01b0319169055565b600054610100900460ff168061054a575061054a610a03565b80610558575060005460ff16155b6105745760405162461bcd60e51b81526004016102ba90610e9e565b600054610100900460ff1615801561059f576000805460ff1961ff0019909116610100171660011790555b6105a7610a14565b80156105b9576000805461ff00191690555b50565b6105c4610646565b6001600160a01b0316336001600160a01b0316146105f45760405162461bcd60e51b81526004016102ba90610e6f565b606980546001810182556000919091527f7fb4302e8e91f9110a6554c2c0a24601252c2a42c2220ca988efcfe3999143080180546001600160a01b0319166001600160a01b0392909216919091179055565b6033546001600160a01b031690565b606a5490565b610663610646565b6001600160a01b0316336001600160a01b0316146106935760405162461bcd60e51b81526004016102ba90610e6f565b606a80546001810182556000919091527f116fea137db6e131133e7f2bab296045d8f41cc5607279db17b218cab0929a510180546001600160a01b0319166001600160a01b0392909216919091179055565b606954606090819067ffffffffffffffff8111801561070357600080fd5b5060405190808252806020026020018201604052801561073d57816020015b61072a610c0a565b8152602001906001900390816107225790505b50905060005b6069548110156104a25760405180604001604052806069838154811061076557fe5b60009182526020822001546040805163052876e560e51b815290516001600160a01b039092169263a50edca092600480840193829003018186803b1580156107ac57600080fd5b505afa1580156107c0573d6000803e3d6000fd5b505050506040513d6000823e601f3d908101601f191682016040526107e89190810190610c61565b8152602001606983815481106107fa57fe5b6000918252602090912001546001600160a01b03169052825183908390811061081f57fe5b6020908102919091010152600101610743565b61083a610646565b6001600160a01b0316336001600160a01b03161461086a5760405162461bcd60e51b81526004016102ba90610e6f565b606680546001600160a01b0319166001600160a01b0392909216919091179055565b6066546001600160a01b031681565b6065546001600160a01b031681565b606981815481106108b757fe5b6000918252602090912001546001600160a01b0316905081565b606a81815481106108b757fe5b6108e66109ff565b6001600160a01b03166108f7610646565b6001600160a01b03161461091d5760405162461bcd60e51b81526004016102ba90610eec565b6001600160a01b0381166109435760405162461bcd60e51b81526004016102ba90610e29565b6033546040516001600160a01b038084169216907f8be0079c531659141344cd1fd0a4f28419497f9722a3daafe3b4186f6b6457e090600090a3603380546001600160a01b0319166001600160a01b0392909216919091179055565b6109a7610646565b6001600160a01b0316336001600160a01b0316146109d75760405162461bcd60e51b81526004016102ba90610e6f565b606880546001600160a01b0319166001600160a01b0392909216919091179055565b60695490565b3390565b6000610a0e30610a92565b15905090565b600054610100900460ff1680610a2d5750610a2d610a03565b80610a3b575060005460ff16155b610a575760405162461bcd60e51b81526004016102ba90610e9e565b600054610100900460ff16158015610a82576000805460ff1961ff0019909116610100171660011790555b610a8a610a98565b6105a7610b19565b3b151590565b600054610100900460ff1680610ab15750610ab1610a03565b80610abf575060005460ff16155b610adb5760405162461bcd60e51b81526004016102ba90610e9e565b600054610100900460ff161580156105a7576000805460ff1961ff00199091166101001716600117905580156105b9576000805461ff001916905550565b600054610100900460ff1680610b325750610b32610a03565b80610b40575060005460ff16155b610b5c5760405162461bcd60e51b81526004016102ba90610e9e565b600054610100900460ff16158015610b87576000805460ff1961ff0019909116610100171660011790555b6000610b916109ff565b603380546001600160a01b0319166001600160a01b038316908117909155604051919250906000907f8be0079c531659141344cd1fd0a4f28419497f9722a3daafe3b4186f6b6457e0908290a35080156105b9576000805461ff001916905550565b604080518082019091526000808252602082015290565b60408051808201909152606081526000602082015290565b600060208284031215610c33578081fd5b8135610c3e81610f5a565b9392505050565b600060208284031215610c56578081fd5b8151610c3e81610f5a565b600060208284031215610c72578081fd5b815167ffffffffffffffff80821115610c89578283fd5b81840185601f820112610c9a578384fd5b8051925081831115610caa578384fd5b604051601f8401601f191681016020018381118282101715610cca578586fd5b604052838152818401602001871015610ce1578485fd5b610cf2846020830160208501610f2a565b9695505050505050565b600060208284031215610d0d578081fd5b5035919050565b6001600160a01b03169052565b6001600160a01b0391909116815260200190565b60208082528251828201819052600091906040908185019080840286018301878501865b83811015610dbf57603f1989840301855281518051878552805180898701526060610d89828289018d8601610f2a565b8a8401519250610d9b8b880184610d14565b978a0197601f91909101601f19169590950190940193505090860190600101610d59565b509098975050505050505050565b602080825282518282018190526000919060409081850190868401855b82811015610e1c57815180516001600160a01b0390811686529087015116868501529284019290850190600101610dea565b5091979650505050505050565b60208082526026908201527f4f776e61626c653a206e6577206f776e657220697320746865207a65726f206160408201526564647265737360d01b606082015260800190565b6020808252601590820152742cb7ba9030b932903737ba103a34329037bbb732b960591b604082015260600190565b6020808252602e908201527f496e697469616c697a61626c653a20636f6e747261637420697320616c72656160408201526d191e481a5b9a5d1a585b1a5e995960921b606082015260800190565b6020808252818101527f4f776e61626c653a2063616c6c6572206973206e6f7420746865206f776e6572604082015260600190565b90815260200190565b60005b83811015610f45578181015183820152602001610f2d565b83811115610f54576000848401525b50505050565b6001600160a01b03811681146105b957600080fdfea2646970667358221220078c758a84f671e6ff5ebf45fc80d3b598ec5eb0aaf31ba85bdddd5c1a3fd14664736f6c634300060b0033",
  "devdoc": {
    "kind": "dev",
    "methods": {
      "owner()": {
        "details": "Returns the address of the current owner."
      },
      "renounceOwnership()": {
        "details": "Leaves the contract without owner. It will not be possible to call `onlyOwner` functions anymore. Can only be called by the current owner. NOTE: Renouncing ownership will leave the contract without an owner, thereby removing any functionality that is only available to the owner."
      },
      "transferOwnership(address)": {
        "details": "Transfers ownership of the contract to a new account (`newOwner`). Can only be called by the current owner."
      }
    },
    "version": 1
  },
  "userdoc": {
    "kind": "user",
    "methods": {},
    "version": 1
  },
  "storageLayout": {
    "storage": [
      {
        "astId": 492,
        "contract": "contracts/Utils/BDLens.sol:BDLens",
        "label": "_initialized",
        "offset": 0,
        "slot": "0",
        "type": "t_bool"
      },
      {
        "astId": 495,
        "contract": "contracts/Utils/BDLens.sol:BDLens",
        "label": "_initializing",
        "offset": 1,
        "slot": "0",
        "type": "t_bool"
      },
      {
        "astId": 1447,
        "contract": "contracts/Utils/BDLens.sol:BDLens",
        "label": "__gap",
        "offset": 0,
        "slot": "1",
        "type": "t_array(t_uint256)50_storage"
      },
      {
        "astId": 10,
        "contract": "contracts/Utils/BDLens.sol:BDLens",
        "label": "_owner",
        "offset": 0,
        "slot": "51",
        "type": "t_address"
      },
      {
        "astId": 129,
        "contract": "contracts/Utils/BDLens.sol:BDLens",
        "label": "__gap",
        "offset": 0,
        "slot": "52",
        "type": "t_array(t_uint256)49_storage"
      },
      {
        "astId": 17275,
        "contract": "contracts/Utils/BDLens.sol:BDLens",
        "label": "BDX",
        "offset": 0,
        "slot": "101",
        "type": "t_address"
      },
      {
        "astId": 17277,
        "contract": "contracts/Utils/BDLens.sol:BDLens",
        "label": "SwapFactory",
        "offset": 0,
        "slot": "102",
        "type": "t_address"
      },
      {
        "astId": 17279,
        "contract": "contracts/Utils/BDLens.sol:BDLens",
        "label": "SwapRouter",
        "offset": 0,
        "slot": "103",
        "type": "t_address"
      },
      {
        "astId": 17281,
        "contract": "contracts/Utils/BDLens.sol:BDLens",
        "label": "StakingRewardsDistribution",
        "offset": 0,
        "slot": "104",
        "type": "t_address"
      },
      {
        "astId": 17284,
        "contract": "contracts/Utils/BDLens.sol:BDLens",
        "label": "BdStables",
        "offset": 0,
        "slot": "105",
        "type": "t_array(t_address)dyn_storage"
      },
      {
        "astId": 17287,
        "contract": "contracts/Utils/BDLens.sol:BDLens",
        "label": "Stakings",
        "offset": 0,
        "slot": "106",
        "type": "t_array(t_address)dyn_storage"
      }
    ],
    "types": {
      "t_address": {
        "encoding": "inplace",
        "label": "address",
        "numberOfBytes": "20"
      },
      "t_array(t_address)dyn_storage": {
        "base": "t_address",
        "encoding": "dynamic_array",
        "label": "address[]",
        "numberOfBytes": "32"
      },
      "t_array(t_uint256)49_storage": {
        "base": "t_uint256",
        "encoding": "inplace",
        "label": "uint256[49]",
        "numberOfBytes": "1568"
      },
      "t_array(t_uint256)50_storage": {
        "base": "t_uint256",
        "encoding": "inplace",
        "label": "uint256[50]",
        "numberOfBytes": "1600"
      },
      "t_bool": {
        "encoding": "inplace",
        "label": "bool",
        "numberOfBytes": "1"
      },
      "t_uint256": {
        "encoding": "inplace",
        "label": "uint256",
        "numberOfBytes": "32"
      }
    }
  }
}