{
  "address": "0x7D2E033e546B19AA8BBe153254D621e7Aad420B6",
  "abi": [
    {
      "inputs": [],
      "stateMutability": "nonpayable",
      "type": "constructor"
    },
    {
      "inputs": [],
      "name": "AllBdStables",
      "outputs": [
        {
          "components": [
            {
              "internalType": "string",
              "name": "fiat",
              "type": "string"
            },
            {
              "internalType": "address",
              "name": "token",
              "type": "address"
            }
          ],
          "internalType": "struct BDLens.BdStableInfo[]",
          "name": "",
          "type": "tuple[]"
        }
      ],
      "stateMutability": "view",
      "type": "function"
    },
    {
      "inputs": [],
      "name": "AllStakings",
      "outputs": [
        {
          "components": [
            {
              "internalType": "address",
              "name": "lp",
              "type": "address"
            },
            {
              "internalType": "address",
              "name": "token",
              "type": "address"
            }
          ],
          "internalType": "struct BDLens.StakingInfo[]",
          "name": "",
          "type": "tuple[]"
        }
      ],
      "stateMutability": "view",
      "type": "function"
    },
    {
      "inputs": [],
      "name": "BDX",
      "outputs": [
        {
          "internalType": "address",
          "name": "",
          "type": "address"
        }
      ],
      "stateMutability": "view",
      "type": "function"
    },
    {
      "inputs": [
        {
          "internalType": "uint256",
          "name": "",
          "type": "uint256"
        }
      ],
      "name": "BdStables",
      "outputs": [
        {
          "internalType": "address",
          "name": "",
          "type": "address"
        }
      ],
      "stateMutability": "view",
      "type": "function"
    },
    {
      "inputs": [],
      "name": "BdStablesLength",
      "outputs": [
        {
          "internalType": "uint256",
          "name": "",
          "type": "uint256"
        }
      ],
      "stateMutability": "view",
      "type": "function"
    },
    {
      "inputs": [
        {
          "internalType": "uint256",
          "name": "",
          "type": "uint256"
        }
      ],
      "name": "Stakings",
      "outputs": [
        {
          "internalType": "address",
          "name": "",
          "type": "address"
        }
      ],
      "stateMutability": "view",
      "type": "function"
    },
    {
      "inputs": [],
      "name": "StakingsLength",
      "outputs": [
        {
          "internalType": "uint256",
          "name": "",
          "type": "uint256"
        }
      ],
      "stateMutability": "view",
      "type": "function"
    },
    {
      "inputs": [],
      "name": "SwapFactory",
      "outputs": [
        {
          "internalType": "address",
          "name": "",
          "type": "address"
        }
      ],
      "stateMutability": "view",
      "type": "function"
    },
    {
      "inputs": [],
      "name": "SwapRouter",
      "outputs": [
        {
          "internalType": "address",
          "name": "",
          "type": "address"
        }
      ],
      "stateMutability": "view",
      "type": "function"
    },
    {
      "inputs": [
        {
          "internalType": "address",
          "name": "_bdstable",
          "type": "address"
        }
      ],
      "name": "pushBdStable",
      "outputs": [],
      "stateMutability": "nonpayable",
      "type": "function"
    },
    {
      "inputs": [
        {
          "internalType": "address",
          "name": "_staking",
          "type": "address"
        }
      ],
      "name": "pushStaking",
      "outputs": [],
      "stateMutability": "nonpayable",
      "type": "function"
    },
    {
      "inputs": [
        {
          "internalType": "address",
          "name": "_bdx",
          "type": "address"
        }
      ],
      "name": "setBDX",
      "outputs": [],
      "stateMutability": "nonpayable",
      "type": "function"
    },
    {
      "inputs": [
        {
          "internalType": "address",
          "name": "_swapFactory",
          "type": "address"
        }
      ],
      "name": "setSwapFactory",
      "outputs": [],
      "stateMutability": "nonpayable",
      "type": "function"
    },
    {
      "inputs": [
        {
          "internalType": "address",
          "name": "_swapRouter",
          "type": "address"
        }
      ],
      "name": "setSwapRouter",
      "outputs": [],
      "stateMutability": "nonpayable",
      "type": "function"
    }
  ],
  "transactionHash": "0xdd79ef0bb89867d4d1ee7ee421397f411de9dd132e806e797c4f11b5ce9d524a",
  "args": [],
  "solcInputHash": "36185021115f3fccbe06894bb4a1b398",
  "bytecode": "0x608060405234801561001057600080fd5b5061096d806100206000396000f3fe608060405234801561001057600080fd5b50600436106100ea5760003560e01c8063b66c64b61161008c578063e28cae3911610066578063e28cae39146101b5578063edf6741c146101bd578063ee916bf7146101d0578063ffa83974146101e3576100ea565b8063b66c64b614610185578063c34e596f1461019a578063c3eaf667146101ad576100ea565b80636700c523116100c85780636700c52314610135578063845626031461014a5780639bd3b5fc1461015d578063a4209b5d14610172576100ea565b806341273657146100ef5780634dc32eff146101045780636258178414610122575b600080fd5b6101026100fd3660046106e2565b6101eb565b005b61010c61020d565b60405161011991906107e1565b60405180910390f35b6101026101303660046106e2565b61021c565b61013d61023e565b604051610119919061088d565b6101026101583660046106e2565b6103c2565b610165610414565b60405161011991906108e9565b6101026101803660046106e2565b61041a565b61018d610475565b60405161011991906107f5565b6101026101a83660046106e2565b6105d2565b61010c6105f4565b61010c610603565b61010c6101cb3660046107bc565b610612565b61010c6101de3660046107bc565b610639565b610165610646565b600280546001600160a01b0319166001600160a01b0392909216919091179055565b6002546001600160a01b031681565b600080546001600160a01b0319166001600160a01b0392909216919091179055565b600454606090819067ffffffffffffffff8111801561025c57600080fd5b5060405190808252806020026020018201604052801561029657816020015b6102836106b3565b81526020019060019003908161027b5790505b50905060005b6004548110156103bc576102d0600482815481106102b657fe5b6000918252602090912001546001600160a01b031661064c565b6040518060400160405280600483815481106102e857fe5b60009182526020918290200154604080516372f702f360e01b815290516001600160a01b03909216926372f702f392600480840193829003018186803b15801561033157600080fd5b505afa158015610345573d6000803e3d6000fd5b505050506040513d601f19601f820116820180604052508101906103699190610705565b6001600160a01b031681526020016004838154811061038457fe5b6000918252602090912001546001600160a01b0316905282518390839081106103a957fe5b602090810291909101015260010161029c565b50905090565b600380546001810182556000919091527fc2575a0e9e593c00f959f8c92f12db2869c3395a3b0502d05e2516446f71f85b0180546001600160a01b0319166001600160a01b0392909216919091179055565b60045490565b6104238161064c565b600480546001810182556000919091527f8a35acfbc15ff81a39ae7d344fd709f28e8600b4aa8c65c6b64bfe7fe36bd19b0180546001600160a01b0319166001600160a01b0392909216919091179055565b600354606090819067ffffffffffffffff8111801561049357600080fd5b506040519080825280602002602001820160405280156104cd57816020015b6104ba6106ca565b8152602001906001900390816104b25790505b50905060005b6003548110156103bc576104ed600382815481106102b657fe5b60405180604001604052806003838154811061050557fe5b60009182526020822001546040805163052876e560e51b815290516001600160a01b039092169263a50edca092600480840193829003018186803b15801561054c57600080fd5b505afa158015610560573d6000803e3d6000fd5b505050506040513d6000823e601f3d908101601f191682016040526105889190810190610721565b81526020016003838154811061059a57fe5b6000918252602090912001546001600160a01b0316905282518390839081106105bf57fe5b60209081029190910101526001016104d3565b600180546001600160a01b0319166001600160a01b0392909216919091179055565b6001546001600160a01b031681565b6000546001600160a01b031681565b6003818154811061061f57fe5b6000918252602090912001546001600160a01b0316905081565b6004818154811061061f57fe5b60035490565b61068f8160405160240161066091906107e1565b60408051601f198184030181529190526020810180516001600160e01b031663161765e160e11b179052610692565b50565b80516a636f6e736f6c652e6c6f67602083016000808483855afa5050505050565b604080518082019091526000808252602082015290565b60408051808201909152606081526000602082015290565b6000602082840312156106f3578081fd5b81356106fe81610922565b9392505050565b600060208284031215610716578081fd5b81516106fe81610922565b600060208284031215610732578081fd5b815167ffffffffffffffff80821115610749578283fd5b81840185601f82011261075a578384fd5b805192508183111561076a578384fd5b604051601f8401601f19168101602001838111828210171561078a578586fd5b6040528381528184016020018710156107a1578485fd5b6107b28460208301602085016108f2565b9695505050505050565b6000602082840312156107cd578081fd5b5035919050565b6001600160a01b03169052565b6001600160a01b0391909116815260200190565b60208082528251828201819052600091906040908185019080840286018301878501865b8381101561087f57603f1989840301855281518051878552805180898701526060610849828289018d86016108f2565b8a840151925061085b8b8801846107d4565b978a0197601f91909101601f19169590950190940193505090860190600101610819565b509098975050505050505050565b602080825282518282018190526000919060409081850190868401855b828110156108dc57815180516001600160a01b03908116865290870151168685015292840192908501906001016108aa565b5091979650505050505050565b90815260200190565b60005b8381101561090d5781810151838201526020016108f5565b8381111561091c576000848401525b50505050565b6001600160a01b038116811461068f57600080fdfea264697066735822122057a4c34838096a7b18a495dd8fdf819ff7ae483394cdedfc9fdc4223d368561164736f6c634300060b0033",
  "devdoc": {
    "kind": "dev",
    "methods": {},
    "version": 1
  },
  "userdoc": {
    "kind": "user",
    "methods": {},
    "version": 1
  },
  "storageLayout": {
    "storage": [
      {
        "astId": 17410,
        "contract": "contracts/Utils/BDLens.sol:BDLens",
        "label": "BDX",
        "offset": 0,
        "slot": "0",
        "type": "t_address"
      },
      {
        "astId": 17412,
        "contract": "contracts/Utils/BDLens.sol:BDLens",
        "label": "SwapFactory",
        "offset": 0,
        "slot": "1",
        "type": "t_address"
      },
      {
        "astId": 17414,
        "contract": "contracts/Utils/BDLens.sol:BDLens",
        "label": "SwapRouter",
        "offset": 0,
        "slot": "2",
        "type": "t_address"
      },
      {
        "astId": 17417,
        "contract": "contracts/Utils/BDLens.sol:BDLens",
        "label": "BdStables",
        "offset": 0,
        "slot": "3",
        "type": "t_array(t_address)dyn_storage"
      },
      {
        "astId": 17420,
        "contract": "contracts/Utils/BDLens.sol:BDLens",
        "label": "Stakings",
        "offset": 0,
        "slot": "4",
        "type": "t_array(t_address)dyn_storage"
      }
    ],
    "types": {
      "t_address": {
        "encoding": "inplace",
        "label": "address",
        "numberOfBytes": "20"
      },
      "t_array(t_address)dyn_storage": {
        "base": "t_address",
        "encoding": "dynamic_array",
        "label": "address[]",
        "numberOfBytes": "32"
      }
    }
  }
}