{
  "address": "0x35cDf0804550Fd34202cedfD6Eb20168CF55507D",
  "abi": [
    {
      "inputs": [
        {
          "internalType": "uint256",
          "name": "col_price",
          "type": "uint256"
        },
        {
          "internalType": "uint256",
          "name": "collateral_amount_d18",
          "type": "uint256"
        }
      ],
      "name": "calcMint1t1BD",
      "outputs": [
        {
          "internalType": "uint256",
          "name": "",
          "type": "uint256"
        }
      ],
      "stateMutability": "pure",
      "type": "function"
    },
    {
      "inputs": [
        {
          "internalType": "uint256",
          "name": "bdx_price_fiat_d12",
          "type": "uint256"
        },
        {
          "internalType": "uint256",
          "name": "bdx_amount_d18_d18",
          "type": "uint256"
        }
      ],
      "name": "calcMintAlgorithmicBD",
      "outputs": [
        {
          "internalType": "uint256",
          "name": "",
          "type": "uint256"
        }
      ],
      "stateMutability": "pure",
      "type": "function"
    },
    {
      "inputs": [
        {
          "internalType": "uint256",
          "name": "collateral_amount_d18",
          "type": "uint256"
        },
        {
          "internalType": "uint256",
          "name": "col_price",
          "type": "uint256"
        },
        {
          "internalType": "uint256",
          "name": "global_collat_value",
          "type": "uint256"
        },
        {
          "internalType": "uint256",
          "name": "bdStable_total_supply",
          "type": "uint256"
        },
        {
          "internalType": "uint256",
          "name": "global_collateral_ratio",
          "type": "uint256"
        }
      ],
      "name": "calcRecollateralizeBdStableInner",
      "outputs": [
        {
          "internalType": "uint256",
          "name": "",
          "type": "uint256"
        },
        {
          "internalType": "uint256",
          "name": "",
          "type": "uint256"
        }
      ],
      "stateMutability": "pure",
      "type": "function"
    }
  ],
  "transactionHash": "0xfe768ee63bcff23c4c02a94b43cef3322e5284043c9fd9474424fdc2d7b12d82",
  "args": [],
  "solcInputHash": "36185021115f3fccbe06894bb4a1b398",
  "bytecode": "0x6103e4610026600b82828239805160001a60731461001957fe5b30600052607381538281f3fe730000000000000000000000000000000000000000301460806040526004361061004b5760003560e01c80634e820a3f14610050578063810278f01461007a578063ba8b18081461007a575b600080fd5b61006361005e3660046102c9565b61009a565b6040516100719291906103a0565b60405180910390f35b61008d6100883660046102a8565b61015a565b6040516100719190610397565b600080806100c364e8d4a510006100b78a8a63ffffffff61017e16565b9063ffffffff6101c116565b905060006100e0866100b78964e8d4a5100063ffffffff61017e16565b9050600061011c64e8d4a510006100b76101008a8663ffffffff61017e16565b6101108a8c63ffffffff61017e16565b9063ffffffff61020316565b9050600081841161012e575082610131565b50805b61014a8a6100b78364e8d4a5100063ffffffff61017e16565b9b909a5098505050505050505050565b600061017564e8d4a510006100b7848663ffffffff61017e16565b90505b92915050565b60008261018d57506000610178565b8282028284828161019a57fe5b04146101755760405162461bcd60e51b81526004016101b890610356565b60405180910390fd5b600061017583836040518060400160405280601a81526020017f536166654d6174683a206469766973696f6e206279207a65726f000000000000815250610245565b600061017583836040518060400160405280601e81526020017f536166654d6174683a207375627472616374696f6e206f766572666c6f77000081525061027c565b600081836102665760405162461bcd60e51b81526004016101b89190610303565b50600083858161027257fe5b0495945050505050565b600081848411156102a05760405162461bcd60e51b81526004016101b89190610303565b505050900390565b600080604083850312156102ba578182fd5b50508035926020909101359150565b600080600080600060a086880312156102e0578081fd5b505083359560208501359550604085013594606081013594506080013592509050565b6000602080835283518082850152825b8181101561032f57858101830151858201604001528201610313565b818111156103405783604083870101525b50601f01601f1916929092016040019392505050565b60208082526021908201527f536166654d6174683a206d756c7469706c69636174696f6e206f766572666c6f6040820152607760f81b606082015260800190565b90815260200190565b91825260208201526040019056fea264697066735822122045856394f10d3b72622ffe7f10e0f28a6c26652640e2f1f4269cc1957918529d64736f6c634300060b0033",
  "devdoc": {
    "kind": "dev",
    "methods": {},
    "version": 1
  },
  "userdoc": {
    "kind": "user",
    "methods": {},
    "version": 1
  },
  "storageLayout": {
    "storage": [],
    "types": null
  }
}