{
  "address": "0x798A271E3966156515BCc947d26f736E8580A436",
  "abi": [
    {
      "inputs": [],
      "name": "COLLATERAL_RATIO_MAX",
      "outputs": [
        {
          "internalType": "uint256",
          "name": "",
          "type": "uint256"
        }
      ],
      "stateMutability": "view",
      "type": "function"
    },
    {
      "inputs": [],
      "name": "COLLATERAL_RATIO_PRECISION",
      "outputs": [
        {
          "internalType": "uint256",
          "name": "",
          "type": "uint256"
        }
      ],
      "stateMutability": "view",
      "type": "function"
    },
    {
      "inputs": [],
      "name": "PRICE_PRECISION",
      "outputs": [
        {
          "internalType": "uint256",
          "name": "",
          "type": "uint256"
        }
      ],
      "stateMutability": "view",
      "type": "function"
    },
    {
      "inputs": [
        {
          "internalType": "uint256",
          "name": "col_price",
          "type": "uint256"
        },
        {
          "internalType": "uint256",
          "name": "collateral_amount_d18",
          "type": "uint256"
        }
      ],
      "name": "calcMint1t1BD",
      "outputs": [
        {
          "internalType": "uint256",
          "name": "",
          "type": "uint256"
        }
      ],
      "stateMutability": "pure",
      "type": "function"
    },
    {
      "inputs": [
        {
          "internalType": "uint256",
          "name": "bdx_price_fiat_d12",
          "type": "uint256"
        },
        {
          "internalType": "uint256",
          "name": "bdx_amount_d18",
          "type": "uint256"
        }
      ],
      "name": "calcMintAlgorithmicBD",
      "outputs": [
        {
          "internalType": "uint256",
          "name": "",
          "type": "uint256"
        }
      ],
      "stateMutability": "pure",
      "type": "function"
    },
    {
      "inputs": [
        {
          "internalType": "uint256",
          "name": "collateral_amount_d18",
          "type": "uint256"
        },
        {
          "internalType": "uint256",
          "name": "col_price",
          "type": "uint256"
        },
        {
          "internalType": "uint256",
          "name": "global_collat_value",
          "type": "uint256"
        },
        {
          "internalType": "uint256",
          "name": "bdStable_total_supply",
          "type": "uint256"
        },
        {
          "internalType": "uint256",
          "name": "global_collateral_ratio",
          "type": "uint256"
        }
      ],
      "name": "calcRecollateralizeBdStableInner",
      "outputs": [
        {
          "internalType": "uint256",
          "name": "",
          "type": "uint256"
        },
        {
          "internalType": "uint256",
          "name": "",
          "type": "uint256"
        }
      ],
      "stateMutability": "pure",
      "type": "function"
    }
  ],
  "transactionHash": "0x3f7e341f845962948dad96b21b112d3eda6ed63ca6aab0cc5d296aaba7001e60",
  "args": [],
  "solcInputHash": "7fc5f7df362effb291697cb25232d91e",
  "bytecode": "0x610416610026600b82828239805160001a60731461001957fe5b30600052607381538281f3fe730000000000000000000000000000000000000000301460806040526004361061006c5760003560e01c80634e820a3f14610071578063810278f01461009b57806395082d25146100bb578063ba8b18081461009b578063d07ac67e146100bb578063dd89fe0a146100bb575b600080fd5b61008461007f3660046102fb565b6100c3565b6040516100929291906103d2565b60405180910390f35b6100ae6100a93660046102da565b610183565b60405161009291906103c9565b6100ae6101a7565b600080806100ec64e8d4a510006100e08a8a63ffffffff6101b016565b9063ffffffff6101f316565b90506000610109866100e08964e8d4a5100063ffffffff6101b016565b9050600061014564e8d4a510006100e06101298a8663ffffffff6101b016565b6101398a8c63ffffffff6101b016565b9063ffffffff61023516565b9050600081841161015757508261015a565b50805b6101738a6100e08364e8d4a5100063ffffffff6101b016565b9b909a5098505050505050505050565b600061019e64e8d4a510006100e0848663ffffffff6101b016565b90505b92915050565b64e8d4a5100081565b6000826101bf575060006101a1565b828202828482816101cc57fe5b041461019e5760405162461bcd60e51b81526004016101ea90610388565b60405180910390fd5b600061019e83836040518060400160405280601a81526020017f536166654d6174683a206469766973696f6e206279207a65726f000000000000815250610277565b600061019e83836040518060400160405280601e81526020017f536166654d6174683a207375627472616374696f6e206f766572666c6f7700008152506102ae565b600081836102985760405162461bcd60e51b81526004016101ea9190610335565b5060008385816102a457fe5b0495945050505050565b600081848411156102d25760405162461bcd60e51b81526004016101ea9190610335565b505050900390565b600080604083850312156102ec578182fd5b50508035926020909101359150565b600080600080600060a08688031215610312578081fd5b505083359560208501359550604085013594606081013594506080013592509050565b6000602080835283518082850152825b8181101561036157858101830151858201604001528201610345565b818111156103725783604083870101525b50601f01601f1916929092016040019392505050565b60208082526021908201527f536166654d6174683a206d756c7469706c69636174696f6e206f766572666c6f6040820152607760f81b606082015260800190565b90815260200190565b91825260208201526040019056fea26469706673582212207914ab0b927bb784864caf2ded352ab63377fd21a8b5b498134763ba46a3466964736f6c634300060b0033",
  "devdoc": {
    "kind": "dev",
    "methods": {},
    "version": 1
  },
  "userdoc": {
    "kind": "user",
    "methods": {},
    "version": 1
  },
  "storageLayout": {
    "storage": [],
    "types": null
  }
}