{
  "address": "0x31FafbE12d2E1a21Bc6DB74e4980d34b92eb1807",
  "abi": [
    {
      "anonymous": false,
      "inputs": [
        {
          "indexed": true,
          "internalType": "address",
          "name": "owner",
          "type": "address"
        },
        {
          "indexed": true,
          "internalType": "address",
          "name": "spender",
          "type": "address"
        },
        {
          "indexed": false,
          "internalType": "uint256",
          "name": "value",
          "type": "uint256"
        }
      ],
      "name": "Approval",
      "type": "event"
    },
    {
      "anonymous": false,
      "inputs": [
        {
          "indexed": false,
          "internalType": "address",
          "name": "addr",
          "type": "address"
        }
      ],
      "name": "BdStableAddressAdded",
      "type": "event"
    },
    {
      "anonymous": false,
      "inputs": [
        {
          "indexed": true,
          "internalType": "address",
          "name": "from",
          "type": "address"
        },
        {
          "indexed": true,
          "internalType": "address",
          "name": "to",
          "type": "address"
        },
        {
          "indexed": true,
          "internalType": "uint256",
          "name": "amount",
          "type": "uint256"
        }
      ],
      "name": "BdxBurned",
      "type": "event"
    },
    {
      "anonymous": false,
      "inputs": [
        {
          "indexed": true,
          "internalType": "address",
          "name": "from",
          "type": "address"
        },
        {
          "indexed": true,
          "internalType": "address",
          "name": "to",
          "type": "address"
        },
        {
          "indexed": true,
          "internalType": "uint256",
          "name": "amount",
          "type": "uint256"
        }
      ],
      "name": "BdxMinted",
      "type": "event"
    },
    {
      "anonymous": false,
      "inputs": [
        {
          "indexed": true,
          "internalType": "address",
          "name": "newOwner",
          "type": "address"
        }
      ],
      "name": "OwnerSet",
      "type": "event"
    },
    {
      "anonymous": false,
      "inputs": [
        {
          "indexed": true,
          "internalType": "address",
          "name": "from",
          "type": "address"
        },
        {
          "indexed": true,
          "internalType": "address",
          "name": "to",
          "type": "address"
        },
        {
          "indexed": false,
          "internalType": "uint256",
          "name": "value",
          "type": "uint256"
        }
      ],
      "name": "Transfer",
      "type": "event"
    },
    {
      "inputs": [],
      "name": "FRAXStablecoinAdd",
      "outputs": [
        {
          "internalType": "address",
          "name": "",
          "type": "address"
        }
      ],
      "stateMutability": "view",
      "type": "function"
    },
    {
      "inputs": [],
      "name": "MAX_TOTAL_SUPPLY",
      "outputs": [
        {
          "internalType": "uint256",
          "name": "",
          "type": "uint256"
        }
      ],
      "stateMutability": "view",
      "type": "function"
    },
    {
      "inputs": [
        {
          "internalType": "address",
          "name": "bdstable_contract_address",
          "type": "address"
        }
      ],
      "name": "addBdStableAddress",
      "outputs": [],
      "stateMutability": "nonpayable",
      "type": "function"
    },
    {
      "inputs": [
        {
          "internalType": "address",
          "name": "owner",
          "type": "address"
        },
        {
          "internalType": "address",
          "name": "spender",
          "type": "address"
        }
      ],
      "name": "allowance",
      "outputs": [
        {
          "internalType": "uint256",
          "name": "",
          "type": "uint256"
        }
      ],
      "stateMutability": "view",
      "type": "function"
    },
    {
      "inputs": [
        {
          "internalType": "address",
          "name": "spender",
          "type": "address"
        },
        {
          "internalType": "uint256",
          "name": "amount",
          "type": "uint256"
        }
      ],
      "name": "approve",
      "outputs": [
        {
          "internalType": "bool",
          "name": "",
          "type": "bool"
        }
      ],
      "stateMutability": "nonpayable",
      "type": "function"
    },
    {
      "inputs": [
        {
          "internalType": "address",
          "name": "account",
          "type": "address"
        }
      ],
      "name": "balanceOf",
      "outputs": [
        {
          "internalType": "uint256",
          "name": "",
          "type": "uint256"
        }
      ],
      "stateMutability": "view",
      "type": "function"
    },
    {
      "inputs": [
        {
          "internalType": "uint256",
          "name": "amount",
          "type": "uint256"
        }
      ],
      "name": "burn",
      "outputs": [],
      "stateMutability": "nonpayable",
      "type": "function"
    },
    {
      "inputs": [
        {
          "internalType": "address",
          "name": "account",
          "type": "address"
        },
        {
          "internalType": "uint256",
          "name": "amount",
          "type": "uint256"
        }
      ],
      "name": "burnFrom",
      "outputs": [],
      "stateMutability": "nonpayable",
      "type": "function"
    },
    {
      "inputs": [],
      "name": "decimals",
      "outputs": [
        {
          "internalType": "uint8",
          "name": "",
          "type": "uint8"
        }
      ],
      "stateMutability": "view",
      "type": "function"
    },
    {
      "inputs": [
        {
          "internalType": "address",
          "name": "spender",
          "type": "address"
        },
        {
          "internalType": "uint256",
          "name": "subtractedValue",
          "type": "uint256"
        }
      ],
      "name": "decreaseAllowance",
      "outputs": [
        {
          "internalType": "bool",
          "name": "",
          "type": "bool"
        }
      ],
      "stateMutability": "nonpayable",
      "type": "function"
    },
    {
      "inputs": [],
      "name": "howMuchCanBeMinted",
      "outputs": [
        {
          "internalType": "uint256",
          "name": "",
          "type": "uint256"
        }
      ],
      "stateMutability": "view",
      "type": "function"
    },
    {
      "inputs": [
        {
          "internalType": "address",
          "name": "spender",
          "type": "address"
        },
        {
          "internalType": "uint256",
          "name": "addedValue",
          "type": "uint256"
        }
      ],
      "name": "increaseAllowance",
      "outputs": [
        {
          "internalType": "bool",
          "name": "",
          "type": "bool"
        }
      ],
      "stateMutability": "nonpayable",
      "type": "function"
    },
    {
      "inputs": [
        {
          "internalType": "string",
          "name": "_name",
          "type": "string"
        },
        {
          "internalType": "string",
          "name": "_symbol",
          "type": "string"
        },
        {
          "internalType": "address",
          "name": "_owner_address",
          "type": "address"
        }
      ],
      "name": "initialize",
      "outputs": [],
      "stateMutability": "nonpayable",
      "type": "function"
    },
    {
      "inputs": [
        {
          "internalType": "address",
          "name": "bd_stable",
          "type": "address"
        },
        {
          "internalType": "address",
          "name": "to",
          "type": "address"
        },
        {
          "internalType": "uint256",
          "name": "amount_d18",
          "type": "uint256"
        }
      ],
      "name": "mint",
      "outputs": [],
      "stateMutability": "nonpayable",
      "type": "function"
    },
    {
      "inputs": [],
      "name": "name",
      "outputs": [
        {
          "internalType": "string",
          "name": "",
          "type": "string"
        }
      ],
      "stateMutability": "view",
      "type": "function"
    },
    {
      "inputs": [],
      "name": "owner_address",
      "outputs": [
        {
          "internalType": "address",
          "name": "",
          "type": "address"
        }
      ],
      "stateMutability": "view",
      "type": "function"
    },
    {
      "inputs": [
        {
          "internalType": "address",
          "name": "bd_stable",
          "type": "address"
        },
        {
          "internalType": "address",
          "name": "b_address",
          "type": "address"
        },
        {
          "internalType": "uint256",
          "name": "b_amount",
          "type": "uint256"
        }
      ],
      "name": "pool_burn_from",
      "outputs": [],
      "stateMutability": "nonpayable",
      "type": "function"
    },
    {
      "inputs": [
        {
          "internalType": "address",
          "name": "bd_stable",
          "type": "address"
        },
        {
          "internalType": "address",
          "name": "to",
          "type": "address"
        },
        {
          "internalType": "uint256",
          "name": "amount_d18",
          "type": "uint256"
        }
      ],
      "name": "pool_mint",
      "outputs": [],
      "stateMutability": "nonpayable",
      "type": "function"
    },
    {
      "inputs": [
        {
          "internalType": "address",
          "name": "_owner_address",
          "type": "address"
        }
      ],
      "name": "setOwner",
      "outputs": [],
      "stateMutability": "nonpayable",
      "type": "function"
    },
    {
      "inputs": [],
      "name": "symbol",
      "outputs": [
        {
          "internalType": "string",
          "name": "",
          "type": "string"
        }
      ],
      "stateMutability": "view",
      "type": "function"
    },
    {
      "inputs": [],
      "name": "totalSupply",
      "outputs": [
        {
          "internalType": "uint256",
          "name": "",
          "type": "uint256"
        }
      ],
      "stateMutability": "view",
      "type": "function"
    },
    {
      "inputs": [
        {
          "internalType": "address",
          "name": "recipient",
          "type": "address"
        },
        {
          "internalType": "uint256",
          "name": "amount",
          "type": "uint256"
        }
      ],
      "name": "transfer",
      "outputs": [
        {
          "internalType": "bool",
          "name": "",
          "type": "bool"
        }
      ],
      "stateMutability": "nonpayable",
      "type": "function"
    },
    {
      "inputs": [
        {
          "internalType": "address",
          "name": "sender",
          "type": "address"
        },
        {
          "internalType": "address",
          "name": "recipient",
          "type": "address"
        },
        {
          "internalType": "uint256",
          "name": "amount",
          "type": "uint256"
        }
      ],
      "name": "transferFrom",
      "outputs": [
        {
          "internalType": "bool",
          "name": "",
          "type": "bool"
        }
      ],
      "stateMutability": "nonpayable",
      "type": "function"
    }
  ],
  "transactionHash": "0x0c51f33fbc62055d2555e5c5a89188f561ce290335e5f02e10207b8bfc3e36d4",
  "args": [],
  "solcInputHash": "36185021115f3fccbe06894bb4a1b398",
  "bytecode": "0x608060405234801561001057600080fd5b50611724806100206000396000f3fe608060405234801561001057600080fd5b506004361061014d5760003560e01c806342966c68116100c357806395d89b411161007c57806395d89b4114610294578063a457c2d71461029c578063a9059cbb146102af578063c625460a146102c2578063c6c3bbe6146102d5578063dd62ed3e146102e85761014d565b806342966c681461022b57806370a082311461023e57806379cc67901461025157806380edef8e146102645780638bb3af6c1461027957806394ac91c61461028c5761014d565b806318160ddd1161011557806318160ddd146101cb5780631dbb3290146101e057806323b872dd146101e8578063313ce567146101fb57806333039d3d1461021057806339509351146102185761014d565b806302b7c0111461015257806306fdde0314610167578063077f224a14610185578063095ea7b31461019857806313af4035146101b8575b600080fd5b610165610160366004611187565b6102fb565b005b61016f61040f565b60405161017c91906112bd565b60405180910390f35b610165610193366004611211565b61049d565b6101ab6101a63660046111c7565b610566565b60405161017c91906112b2565b6101656101c6366004611138565b610584565b6101d36105f8565b60405161017c9190611609565b6101d36105ff565b6101ab6101f6366004611187565b610629565b6102036106b6565b60405161017c9190611612565b6101d36106bb565b6101ab6102263660046111c7565b6106ca565b610165610239366004611286565b61071e565b6101d361024c366004611138565b610732565b61016561025f3660046111c7565b61074d565b61026c6107a8565b60405161017c919061129e565b610165610287366004611138565b6107b7565b61026c61083f565b61016f61084e565b6101ab6102aa3660046111c7565b6108a9565b6101ab6102bd3660046111c7565b610917565b6101656102d0366004611187565b61092b565b6101656102e3366004611187565b610a78565b6101d36102f6366004611153565b610b50565b6001600160a01b038316600090815260356020526040902054839060ff1680156103a257506040516317f0b5cb60e11b81526001600160a01b03821690632fe16b969061034c90339060040161129e565b60206040518083038186803b15801561036457600080fd5b505afa158015610378573d6000803e3d6000fd5b505050506040513d601f19601f8201168201806040525081019061039c91906111f1565b15156001145b6103c75760405162461bcd60e51b81526004016103be9061158c565b60405180910390fd5b6103d18383610b7b565b604051829030906001600160a01b038616907fbf812f909b5ed520448bf10957e089d2444fb12fec2e3f6174eef3a5134f855190600090a450505050565b6032805460408051602060026001851615610100026000190190941693909304601f810184900484028201840190925281815292918301828280156104955780601f1061046a57610100808354040283529160200191610495565b820191906000526020600020905b81548152906001019060200180831161047857829003601f168201915b505050505081565b603054610100900460ff16806104b657506104b6610bd3565b806104c4575060305460ff16155b6104e05760405162461bcd60e51b81526004016103be90611446565b603054610100900460ff1615801561050b576030805460ff1961ff0019909116610100171660011790555b835161051e90603290602087019061100b565b50825161053290603190602086019061100b565b50603480546001600160a01b0319166001600160a01b0384161790558015610560576030805461ff00191690555b50505050565b600061057a610573610be4565b8484610be8565b5060015b92915050565b6034546001600160a01b031633146105ae5760405162461bcd60e51b81526004016103be90611494565b603480546001600160a01b0319166001600160a01b0383169081179091556040517f50146d0e3c60aa1d17a70635b05494f864e86144a2201275021014fbf08bafe290600090a250565b6002545b90565b600061062461060c6105f8565b6a115eec47f6cf7e350000009063ffffffff610c9c16565b905090565b6000610636848484610ce5565b6106ac84610642610be4565b6106a78560405180606001604052806028815260200161167e602891396001600160a01b038a16600090815260016020526040812090610680610be4565b6001600160a01b03168152602081019190915260400160002054919063ffffffff610e0616565b610be8565b5060019392505050565b601281565b6a115eec47f6cf7e3500000081565b600061057a6106d7610be4565b846106a785600160006106e8610be4565b6001600160a01b03908116825260208083019390935260409182016000908120918c16815292529020549063ffffffff610e3216565b61072f610729610be4565b82610e57565b50565b6001600160a01b031660009081526020819052604090205490565b6000610785826040518060600160405280602481526020016116a660249139610778866102f6610be4565b919063ffffffff610e0616565b905061079983610793610be4565b83610be8565b6107a38383610e57565b505050565b6034546001600160a01b031681565b6034546001600160a01b031633146107e15760405162461bcd60e51b81526004016103be90611494565b6001600160a01b03811660009081526035602052604090819020805460ff19166001179055517ff0cb17bf28778490aec475a1856c7a87e59f878315f75066749924f6cb203fb39061083490839061129e565b60405180910390a150565b6033546001600160a01b031681565b6031805460408051602060026001851615610100026000190190941693909304601f810184900484028201840190925281815292918301828280156104955780601f1061046a57610100808354040283529160200191610495565b600061057a6108b6610be4565b846106a7856040518060600160405280602581526020016116ca60259139600160006108e0610be4565b6001600160a01b03908116825260208083019390935260409182016000908120918d1681529252902054919063ffffffff610e0616565b600061057a610924610be4565b8484610ce5565b6001600160a01b038316600090815260356020526040902054839060ff1680156109d257506040516317f0b5cb60e11b81526001600160a01b03821690632fe16b969061097c90339060040161129e565b60206040518083038186803b15801561099457600080fd5b505afa1580156109a8573d6000803e3d6000fd5b505050506040513d601f19601f820116820180604052508101906109cc91906111f1565b15156001145b6109ee5760405162461bcd60e51b81526004016103be9061158c565b6a115eec47f6cf7e35000000610a1283610a066105f8565b9063ffffffff610e3216565b1115610a305760405162461bcd60e51b81526004016103be906113cc565b610a3a8383610f45565b60405182906001600160a01b0385169030907f6c6e376e39c4db6a8d41d5186adb4ce4bca96bda9fcaf8346ee1b5acc642be3a90600090a450505050565b6001600160a01b038316600090815260356020526040902054839060ff168015610b1f57506040516317f0b5cb60e11b81526001600160a01b03821690632fe16b9690610ac990339060040161129e565b60206040518083038186803b158015610ae157600080fd5b505afa158015610af5573d6000803e3d6000fd5b505050506040513d601f19601f82011682018060405250810190610b1991906111f1565b15156001145b80610b3457506034546001600160a01b031633145b6109ee5760405162461bcd60e51b81526004016103be906113f7565b6001600160a01b03918216600090815260016020908152604080832093909416825291909152205490565b610b858282610e57565b610bcf82610b91610be4565b6106a7846040518060600160405280602481526020016116a6602491396001600160a01b038816600090815260016020526040812090610680610be4565b5050565b6000610bde30611005565b15905090565b3390565b6001600160a01b038316610c0e5760405162461bcd60e51b81526004016103be90611548565b6001600160a01b038216610c345760405162461bcd60e51b81526004016103be90611353565b6001600160a01b0380841660008181526001602090815260408083209487168084529490915290819020849055517f8c5be1e5ebec7d5bd14f71427d1e84f3dd0314c0f7b2291e5b200ac8c7c3b92590610c8f908590611609565b60405180910390a3505050565b6000610cde83836040518060400160405280601e81526020017f536166654d6174683a207375627472616374696f6e206f766572666c6f770000815250610e06565b9392505050565b6001600160a01b038316610d0b5760405162461bcd60e51b81526004016103be90611503565b6001600160a01b038216610d315760405162461bcd60e51b81526004016103be90611310565b610d3c8383836107a3565b610d7f81604051806060016040528060268152602001611658602691396001600160a01b038616600090815260208190526040902054919063ffffffff610e0616565b6001600160a01b038085166000908152602081905260408082209390935590841681522054610db4908263ffffffff610e3216565b6001600160a01b0380841660008181526020819052604090819020939093559151908516907fddf252ad1be2c89b69c2b068fc378daa952ba7f163c4a11628f55a4df523b3ef90610c8f908590611609565b60008184841115610e2a5760405162461bcd60e51b81526004016103be91906112bd565b505050900390565b600082820183811015610cde5760405162461bcd60e51b81526004016103be90611395565b6001600160a01b038216610e7d5760405162461bcd60e51b81526004016103be906114c2565b610e89826000836107a3565b610ecc81604051806060016040528060228152602001611636602291396001600160a01b038516600090815260208190526040902054919063ffffffff610e0616565b6001600160a01b038316600090815260208190526040902055600254610ef8908263ffffffff610c9c16565b6002556040516000906001600160a01b038416907fddf252ad1be2c89b69c2b068fc378daa952ba7f163c4a11628f55a4df523b3ef90610f39908590611609565b60405180910390a35050565b6001600160a01b038216610f6b5760405162461bcd60e51b81526004016103be906115d2565b610f77600083836107a3565b600254610f8a908263ffffffff610e3216565b6002556001600160a01b038216600090815260208190526040902054610fb6908263ffffffff610e3216565b6001600160a01b0383166000818152602081905260408082209390935591519091907fddf252ad1be2c89b69c2b068fc378daa952ba7f163c4a11628f55a4df523b3ef90610f39908590611609565b3b151590565b828054600181600116156101000203166002900490600052602060002090601f016020900481019282601f1061104c57805160ff1916838001178555611079565b82800160010185558215611079579182015b8281111561107957825182559160200191906001019061105e565b50611085929150611089565b5090565b6105fc91905b80821115611085576000815560010161108f565b80356001600160a01b038116811461057e57600080fd5b600082601f8301126110ca578081fd5b813567ffffffffffffffff808211156110e1578283fd5b604051601f8301601f191681016020018281118282101715611101578485fd5b60405282815292508284830160200186101561111c57600080fd5b8260208601602083013760006020848301015250505092915050565b600060208284031215611149578081fd5b610cde83836110a3565b60008060408385031215611165578081fd5b61116f84846110a3565b915061117e84602085016110a3565b90509250929050565b60008060006060848603121561119b578081fd5b83356111a681611620565b925060208401356111b681611620565b929592945050506040919091013590565b600080604083850312156111d9578182fd5b6111e384846110a3565b946020939093013593505050565b600060208284031215611202578081fd5b81518015158114610cde578182fd5b600080600060608486031215611225578283fd5b833567ffffffffffffffff8082111561123c578485fd5b611248878388016110ba565b9450602086013591508082111561125d578384fd5b5061126a868287016110ba565b925050604084013561127b81611620565b809150509250925092565b600060208284031215611297578081fd5b5035919050565b6001600160a01b0391909116815260200190565b901515815260200190565b6000602080835283518082850152825b818110156112e9578581018301518582016040015282016112cd565b818111156112fa5783604083870101525b50601f01601f1916929092016040019392505050565b60208082526023908201527f45524332303a207472616e7366657220746f20746865207a65726f206164647260408201526265737360e81b606082015260800190565b60208082526022908201527f45524332303a20617070726f766520746f20746865207a65726f206164647265604082015261737360f01b606082015260800190565b6020808252601b908201527f536166654d6174683a206164646974696f6e206f766572666c6f770000000000604082015260600190565b602080825260119082015270109116081b1a5b5a5d081c995858da1959607a1b604082015260600190565b6020808252602f908201527f4f6e6c7920626420706f6f6c73206f72206f776e65722063616e20726564656560408201526e6d206e657720424420737461626c6560881b606082015260800190565b6020808252602e908201527f496e697469616c697a61626c653a20636f6e747261637420697320616c72656160408201526d191e481a5b9a5d1a585b1a5e995960921b606082015260800190565b6020808252601490820152732cb7ba9030b932903737ba1030b71037bbb732b960611b604082015260600190565b60208082526021908201527f45524332303a206275726e2066726f6d20746865207a65726f206164647265736040820152607360f81b606082015260800190565b60208082526025908201527f45524332303a207472616e736665722066726f6d20746865207a65726f206164604082015264647265737360d81b606082015260800190565b60208082526024908201527f45524332303a20617070726f76652066726f6d20746865207a65726f206164646040820152637265737360e01b606082015260800190565b60208082526026908201527f4f6e6c7920626420706f6f6c732063616e2072656465656d206e657720424420604082015265737461626c6560d01b606082015260800190565b6020808252601f908201527f45524332303a206d696e7420746f20746865207a65726f206164647265737300604082015260600190565b90815260200190565b60ff91909116815260200190565b6001600160a01b038116811461072f57600080fdfe45524332303a206275726e20616d6f756e7420657863656564732062616c616e636545524332303a207472616e7366657220616d6f756e7420657863656564732062616c616e636545524332303a207472616e7366657220616d6f756e74206578636565647320616c6c6f77616e636545524332303a206275726e20616d6f756e74206578636565647320616c6c6f77616e636545524332303a2064656372656173656420616c6c6f77616e63652062656c6f77207a65726fa26469706673582212202f3deb7796c9580a83f3fefed832ed242ebd7fd1353ccfbc5728ba629b7ee4c264736f6c634300060b0033",
  "devdoc": {
    "kind": "dev",
    "methods": {
      "allowance(address,address)": {
        "details": "See {IERC20-allowance}."
      },
      "approve(address,uint256)": {
        "details": "See {IERC20-approve}. Requirements: - `spender` cannot be the zero address.approve(address spender, uint256 amount)"
      },
      "balanceOf(address)": {
        "details": "See {IERC20-balanceOf}."
      },
      "burn(uint256)": {
        "details": "Destroys `amount` tokens from the caller. See {ERC20-_burn}."
      },
      "burnFrom(address,uint256)": {
        "details": "Destroys `amount` tokens from `account`, deducting from the caller's allowance. See {ERC20-_burn} and {ERC20-allowance}. Requirements: - the caller must have allowance for `accounts`'s tokens of at least `amount`."
      },
      "decreaseAllowance(address,uint256)": {
        "details": "Atomically decreases the allowance granted to `spender` by the caller. This is an alternative to {approve} that can be used as a mitigation for problems described in {IERC20-approve}. Emits an {Approval} event indicating the updated allowance. Requirements: - `spender` cannot be the zero address. - `spender` must have allowance for the caller of at least `subtractedValue`."
      },
      "increaseAllowance(address,uint256)": {
        "details": "Atomically increases the allowance granted to `spender` by the caller. This is an alternative to {approve} that can be used as a mitigation for problems described in {IERC20-approve}. Emits an {Approval} event indicating the updated allowance. Requirements: - `spender` cannot be the zero address."
      },
      "totalSupply()": {
        "details": "See {IERC20-totalSupply}."
      },
      "transfer(address,uint256)": {
        "details": "See {IERC20-transfer}. Requirements: - `recipient` cannot be the zero address. - the caller must have a balance of at least `amount`."
      },
      "transferFrom(address,address,uint256)": {
        "details": "See {IERC20-transferFrom}. Emits an {Approval} event indicating the updated allowance. This is not required by the EIP. See the note at the beginning of {ERC20}; Requirements: - `sender` and `recipient` cannot be the zero address. - `sender` must have a balance of at least `amount`. - the caller must have allowance for `sender`'s tokens of at least `amount`."
      }
    },
    "version": 1
  },
  "userdoc": {
    "kind": "user",
    "methods": {},
    "version": 1
  },
  "storageLayout": {
    "storage": [
      {
        "astId": 2176,
        "contract": "contracts/FXS/BDXShares.sol:BDXShares",
        "label": "_balances",
        "offset": 0,
        "slot": "0",
        "type": "t_mapping(t_address,t_uint256)"
      },
      {
        "astId": 2182,
        "contract": "contracts/FXS/BDXShares.sol:BDXShares",
        "label": "_allowances",
        "offset": 0,
        "slot": "1",
        "type": "t_mapping(t_address,t_mapping(t_address,t_uint256))"
      },
      {
        "astId": 2184,
        "contract": "contracts/FXS/BDXShares.sol:BDXShares",
        "label": "_totalSupply",
        "offset": 0,
        "slot": "2",
        "type": "t_uint256"
      },
      {
        "astId": 2676,
        "contract": "contracts/FXS/BDXShares.sol:BDXShares",
        "label": "__gap",
        "offset": 0,
        "slot": "3",
        "type": "t_array(t_uint256)45_storage"
      },
      {
        "astId": 492,
        "contract": "contracts/FXS/BDXShares.sol:BDXShares",
        "label": "_initialized",
        "offset": 0,
        "slot": "48",
        "type": "t_bool"
      },
      {
        "astId": 495,
        "contract": "contracts/FXS/BDXShares.sol:BDXShares",
        "label": "_initializing",
        "offset": 1,
        "slot": "48",
        "type": "t_bool"
      },
      {
        "astId": 3300,
        "contract": "contracts/FXS/BDXShares.sol:BDXShares",
        "label": "symbol",
        "offset": 0,
        "slot": "49",
        "type": "t_string_storage"
      },
      {
        "astId": 3302,
        "contract": "contracts/FXS/BDXShares.sol:BDXShares",
        "label": "name",
        "offset": 0,
        "slot": "50",
        "type": "t_string_storage"
      },
      {
        "astId": 3304,
        "contract": "contracts/FXS/BDXShares.sol:BDXShares",
        "label": "FRAXStablecoinAdd",
        "offset": 0,
        "slot": "51",
        "type": "t_address"
      },
      {
        "astId": 3306,
        "contract": "contracts/FXS/BDXShares.sol:BDXShares",
        "label": "owner_address",
        "offset": 0,
        "slot": "52",
        "type": "t_address"
      },
      {
        "astId": 3310,
        "contract": "contracts/FXS/BDXShares.sol:BDXShares",
        "label": "bdstables",
        "offset": 0,
        "slot": "53",
        "type": "t_mapping(t_address,t_bool)"
      }
    ],
    "types": {
      "t_address": {
        "encoding": "inplace",
        "label": "address",
        "numberOfBytes": "20"
      },
      "t_array(t_uint256)45_storage": {
        "base": "t_uint256",
        "encoding": "inplace",
        "label": "uint256[45]",
        "numberOfBytes": "1440"
      },
      "t_bool": {
        "encoding": "inplace",
        "label": "bool",
        "numberOfBytes": "1"
      },
      "t_mapping(t_address,t_bool)": {
        "encoding": "mapping",
        "key": "t_address",
        "label": "mapping(address => bool)",
        "numberOfBytes": "32",
        "value": "t_bool"
      },
      "t_mapping(t_address,t_mapping(t_address,t_uint256))": {
        "encoding": "mapping",
        "key": "t_address",
        "label": "mapping(address => mapping(address => uint256))",
        "numberOfBytes": "32",
        "value": "t_mapping(t_address,t_uint256)"
      },
      "t_mapping(t_address,t_uint256)": {
        "encoding": "mapping",
        "key": "t_address",
        "label": "mapping(address => uint256)",
        "numberOfBytes": "32",
        "value": "t_uint256"
      },
      "t_string_storage": {
        "encoding": "bytes",
        "label": "string",
        "numberOfBytes": "32"
      },
      "t_uint256": {
        "encoding": "inplace",
        "label": "uint256",
        "numberOfBytes": "32"
      }
    }
  }
}