{
  "address": "0x3452f25939422725aEd0BA7B2727C8D6F6101D9C",
  "abi": [
    {
      "anonymous": false,
      "inputs": [
        {
          "indexed": true,
          "internalType": "address",
          "name": "owner",
          "type": "address"
        },
        {
          "indexed": true,
          "internalType": "address",
          "name": "spender",
          "type": "address"
        },
        {
          "indexed": false,
          "internalType": "uint256",
          "name": "value",
          "type": "uint256"
        }
      ],
      "name": "Approval",
      "type": "event"
    },
    {
      "anonymous": false,
      "inputs": [
        {
          "indexed": true,
          "internalType": "address",
          "name": "addr",
          "type": "address"
        }
      ],
      "name": "BdStableAddressAdded",
      "type": "event"
    },
    {
      "anonymous": false,
      "inputs": [
        {
          "indexed": true,
          "internalType": "address",
          "name": "from",
          "type": "address"
        },
        {
          "indexed": true,
          "internalType": "address",
          "name": "to",
          "type": "address"
        },
        {
          "indexed": false,
          "internalType": "address",
          "name": "bd_stable",
          "type": "address"
        },
        {
          "indexed": true,
          "internalType": "uint256",
          "name": "amount",
          "type": "uint256"
        }
      ],
      "name": "BdxBurned",
      "type": "event"
    },
    {
      "anonymous": false,
      "inputs": [
        {
          "indexed": true,
          "internalType": "address",
          "name": "from",
          "type": "address"
        },
        {
          "indexed": true,
          "internalType": "address",
          "name": "to",
          "type": "address"
        },
        {
          "indexed": false,
          "internalType": "address",
          "name": "bd_stable",
          "type": "address"
        },
        {
          "indexed": true,
          "internalType": "uint256",
          "name": "amount",
          "type": "uint256"
        }
      ],
      "name": "BdxMinted",
      "type": "event"
    },
    {
      "anonymous": false,
      "inputs": [
        {
          "indexed": true,
          "internalType": "address",
          "name": "newOwner",
          "type": "address"
        }
      ],
      "name": "OwnerSet",
      "type": "event"
    },
    {
      "anonymous": false,
      "inputs": [
        {
          "indexed": true,
          "internalType": "address",
          "name": "from",
          "type": "address"
        },
        {
          "indexed": true,
          "internalType": "address",
          "name": "to",
          "type": "address"
        },
        {
          "indexed": false,
          "internalType": "uint256",
          "name": "value",
          "type": "uint256"
        }
      ],
      "name": "Transfer",
      "type": "event"
    },
    {
      "inputs": [],
      "name": "MAX_TOTAL_SUPPLY",
      "outputs": [
        {
          "internalType": "uint256",
          "name": "",
          "type": "uint256"
        }
      ],
      "stateMutability": "view",
      "type": "function"
    },
    {
      "inputs": [
        {
          "internalType": "address",
          "name": "bdstable_contract_address",
          "type": "address"
        }
      ],
      "name": "addBdStableAddress",
      "outputs": [],
      "stateMutability": "nonpayable",
      "type": "function"
    },
    {
      "inputs": [
        {
          "internalType": "address",
          "name": "owner",
          "type": "address"
        },
        {
          "internalType": "address",
          "name": "spender",
          "type": "address"
        }
      ],
      "name": "allowance",
      "outputs": [
        {
          "internalType": "uint256",
          "name": "",
          "type": "uint256"
        }
      ],
      "stateMutability": "view",
      "type": "function"
    },
    {
      "inputs": [
        {
          "internalType": "address",
          "name": "spender",
          "type": "address"
        },
        {
          "internalType": "uint256",
          "name": "amount",
          "type": "uint256"
        }
      ],
      "name": "approve",
      "outputs": [
        {
          "internalType": "bool",
          "name": "",
          "type": "bool"
        }
      ],
      "stateMutability": "nonpayable",
      "type": "function"
    },
    {
      "inputs": [
        {
          "internalType": "address",
          "name": "account",
          "type": "address"
        }
      ],
      "name": "balanceOf",
      "outputs": [
        {
          "internalType": "uint256",
          "name": "",
          "type": "uint256"
        }
      ],
      "stateMutability": "view",
      "type": "function"
    },
    {
      "inputs": [
        {
          "internalType": "uint256",
          "name": "amount",
          "type": "uint256"
        }
      ],
      "name": "burn",
      "outputs": [],
      "stateMutability": "nonpayable",
      "type": "function"
    },
    {
      "inputs": [
        {
          "internalType": "address",
          "name": "account",
          "type": "address"
        },
        {
          "internalType": "uint256",
          "name": "amount",
          "type": "uint256"
        }
      ],
      "name": "burnFrom",
      "outputs": [],
      "stateMutability": "nonpayable",
      "type": "function"
    },
    {
      "inputs": [],
      "name": "decimals",
      "outputs": [
        {
          "internalType": "uint8",
          "name": "",
          "type": "uint8"
        }
      ],
      "stateMutability": "view",
      "type": "function"
    },
    {
      "inputs": [
        {
          "internalType": "address",
          "name": "spender",
          "type": "address"
        },
        {
          "internalType": "uint256",
          "name": "subtractedValue",
          "type": "uint256"
        }
      ],
      "name": "decreaseAllowance",
      "outputs": [
        {
          "internalType": "bool",
          "name": "",
          "type": "bool"
        }
      ],
      "stateMutability": "nonpayable",
      "type": "function"
    },
    {
      "inputs": [],
      "name": "howMuchCanBeMinted",
      "outputs": [
        {
          "internalType": "uint256",
          "name": "",
          "type": "uint256"
        }
      ],
      "stateMutability": "view",
      "type": "function"
    },
    {
      "inputs": [
        {
          "internalType": "address",
          "name": "spender",
          "type": "address"
        },
        {
          "internalType": "uint256",
          "name": "addedValue",
          "type": "uint256"
        }
      ],
      "name": "increaseAllowance",
      "outputs": [
        {
          "internalType": "bool",
          "name": "",
          "type": "bool"
        }
      ],
      "stateMutability": "nonpayable",
      "type": "function"
    },
    {
      "inputs": [
        {
          "internalType": "string",
          "name": "_name",
          "type": "string"
        },
        {
          "internalType": "string",
          "name": "_symbol",
          "type": "string"
        },
        {
          "internalType": "address",
          "name": "_owner_address",
          "type": "address"
        }
      ],
      "name": "initialize",
      "outputs": [],
      "stateMutability": "nonpayable",
      "type": "function"
    },
    {
      "inputs": [
        {
          "internalType": "address",
          "name": "bd_stable",
          "type": "address"
        },
        {
          "internalType": "address",
          "name": "to",
          "type": "address"
        },
        {
          "internalType": "uint256",
          "name": "amount",
          "type": "uint256"
        }
      ],
      "name": "mint",
      "outputs": [],
      "stateMutability": "nonpayable",
      "type": "function"
    },
    {
      "inputs": [],
      "name": "name",
      "outputs": [
        {
          "internalType": "string",
          "name": "",
          "type": "string"
        }
      ],
      "stateMutability": "view",
      "type": "function"
    },
    {
      "inputs": [],
      "name": "owner_address",
      "outputs": [
        {
          "internalType": "address",
          "name": "",
          "type": "address"
        }
      ],
      "stateMutability": "view",
      "type": "function"
    },
    {
      "inputs": [
        {
          "internalType": "address",
          "name": "bd_stable",
          "type": "address"
        },
        {
          "internalType": "address",
          "name": "b_address",
          "type": "address"
        },
        {
          "internalType": "uint256",
          "name": "b_amount",
          "type": "uint256"
        }
      ],
      "name": "pool_burn_from",
      "outputs": [],
      "stateMutability": "nonpayable",
      "type": "function"
    },
    {
      "inputs": [
        {
          "internalType": "address",
          "name": "_owner_address",
          "type": "address"
        }
      ],
      "name": "setOwner",
      "outputs": [],
      "stateMutability": "nonpayable",
      "type": "function"
    },
    {
      "inputs": [],
      "name": "symbol",
      "outputs": [
        {
          "internalType": "string",
          "name": "",
          "type": "string"
        }
      ],
      "stateMutability": "view",
      "type": "function"
    },
    {
      "inputs": [],
      "name": "totalSupply",
      "outputs": [
        {
          "internalType": "uint256",
          "name": "",
          "type": "uint256"
        }
      ],
      "stateMutability": "view",
      "type": "function"
    },
    {
      "inputs": [
        {
          "internalType": "address",
          "name": "recipient",
          "type": "address"
        },
        {
          "internalType": "uint256",
          "name": "amount",
          "type": "uint256"
        }
      ],
      "name": "transfer",
      "outputs": [
        {
          "internalType": "bool",
          "name": "",
          "type": "bool"
        }
      ],
      "stateMutability": "nonpayable",
      "type": "function"
    },
    {
      "inputs": [
        {
          "internalType": "address",
          "name": "sender",
          "type": "address"
        },
        {
          "internalType": "address",
          "name": "recipient",
          "type": "address"
        },
        {
          "internalType": "uint256",
          "name": "amount",
          "type": "uint256"
        }
      ],
      "name": "transferFrom",
      "outputs": [
        {
          "internalType": "bool",
          "name": "",
          "type": "bool"
        }
      ],
      "stateMutability": "nonpayable",
      "type": "function"
    }
  ],
  "transactionHash": "0xb086cb51bef34d6eeb43c79f0a80fe859bf959d8e8bc2452e489942c1b2501c2",
  "args": [],
  "solcInputHash": "7fc5f7df362effb291697cb25232d91e",
  "bytecode": "0x608060405234801561001057600080fd5b50611662806100206000396000f3fe608060405234801561001057600080fd5b50600436106101375760003560e01c806339509351116100b85780638bb3af6c1161007c5780638bb3af6c1461026357806395d89b4114610276578063a457c2d71461027e578063a9059cbb14610291578063c6c3bbe6146102a4578063dd62ed3e146102b757610137565b8063395093511461020257806342966c681461021557806370a082311461022857806379cc67901461023b57806380edef8e1461024e57610137565b806318160ddd116100ff57806318160ddd146101b55780631dbb3290146101ca57806323b872dd146101d2578063313ce567146101e557806333039d3d146101fa57610137565b806302b7c0111461013c57806306fdde0314610151578063077f224a1461016f578063095ea7b31461018257806313af4035146101a2575b600080fd5b61014f61014a3660046110b2565b6102ca565b005b6101596103f2565b60405161016691906111e8565b60405180910390f35b61014f61017d36600461113c565b610480565b6101956101903660046110f2565b610549565b60405161016691906111dd565b61014f6101b0366004611063565b610567565b6101bd610601565b6040516101669190611547565b6101bd610608565b6101956101e03660046110b2565b610632565b6101ed6106bf565b6040516101669190611550565b6101bd6106c4565b6101956102103660046110f2565b6106d3565b61014f6102233660046111b1565b610727565b6101bd610236366004611063565b61073b565b61014f6102493660046110f2565b610756565b6102566107b1565b60405161016691906111c9565b61014f610271366004611063565b6107c0565b610159610836565b61019561028c3660046110f2565b610891565b61019561029f3660046110f2565b6108ff565b61014f6102b23660046110b2565b610913565b6101bd6102c536600461107e565b610a7b565b6001600160a01b038316600090815260346020526040902054839060ff16801561037157506040516317f0b5cb60e11b81526001600160a01b03821690632fe16b969061031b9033906004016111c9565b60206040518083038186803b15801561033357600080fd5b505afa158015610347573d6000803e3d6000fd5b505050506040513d601f19601f8201168201806040525081019061036b919061111c565b15156001145b6103965760405162461bcd60e51b815260040161038d906114aa565b60405180910390fd5b6103a08383610aa6565b81306001600160a01b0316846001600160a01b03167f89c38c6b96de2650888a5391e04c3fdc6c0918b490db65933098ec15fd5cdb28876040516103e491906111c9565b60405180910390a450505050565b6032805460408051602060026001851615610100026000190190941693909304601f810184900484028201840190925281815292918301828280156104785780601f1061044d57610100808354040283529160200191610478565b820191906000526020600020905b81548152906001019060200180831161045b57829003601f168201915b505050505081565b603054610100900460ff16806104995750610499610afe565b806104a7575060305460ff16155b6104c35760405162461bcd60e51b815260040161038d90611322565b603054610100900460ff161580156104ee576030805460ff1961ff0019909116610100171660011790555b8351610501906032906020870190610f36565b508251610515906031906020860190610f36565b50603380546001600160a01b0319166001600160a01b0384161790558015610543576030805461ff00191690555b50505050565b600061055d610556610b0f565b8484610b13565b5060015b92915050565b6033546001600160a01b031633146105915760405162461bcd60e51b815260040161038d90611370565b6001600160a01b0381166105b75760405162461bcd60e51b815260040161038d906114d9565b603380546001600160a01b0319166001600160a01b0383169081179091556040517f50146d0e3c60aa1d17a70635b05494f864e86144a2201275021014fbf08bafe290600090a250565b6002545b90565b600061062d610615610601565b6a115eec47f6cf7e350000009063ffffffff610bc716565b905090565b600061063f848484610c10565b6106b58461064b610b0f565b6106b0856040518060600160405280602881526020016115bc602891396001600160a01b038a16600090815260016020526040812090610689610b0f565b6001600160a01b03168152602081019190915260400160002054919063ffffffff610d3116565b610b13565b5060019392505050565b601281565b6a115eec47f6cf7e3500000081565b600061055d6106e0610b0f565b846106b085600160006106f1610b0f565b6001600160a01b03908116825260208083019390935260409182016000908120918c16815292529020549063ffffffff610d5d16565b610738610732610b0f565b82610d82565b50565b6001600160a01b031660009081526020819052604090205490565b600061078e826040518060600160405280602481526020016115e460249139610781866102c5610b0f565b919063ffffffff610d3116565b90506107a28361079c610b0f565b83610b13565b6107ac8383610d82565b505050565b6033546001600160a01b031681565b6033546001600160a01b031633146107ea5760405162461bcd60e51b815260040161038d90611370565b6001600160a01b038116600081815260346020526040808220805460ff19166001179055517ff0cb17bf28778490aec475a1856c7a87e59f878315f75066749924f6cb203fb39190a250565b6031805460408051602060026001851615610100026000190190941693909304601f810184900484028201840190925281815292918301828280156104785780601f1061044d57610100808354040283529160200191610478565b600061055d61089e610b0f565b846106b08560405180606001604052806025815260200161160860259139600160006108c8610b0f565b6001600160a01b03908116825260208083019390935260409182016000908120918d1681529252902054919063ffffffff610d3116565b600061055d61090c610b0f565b8484610c10565b6001600160a01b038316600090815260346020526040902054839060ff1680156109ba57506040516317f0b5cb60e11b81526001600160a01b03821690632fe16b96906109649033906004016111c9565b60206040518083038186803b15801561097c57600080fd5b505afa158015610990573d6000803e3d6000fd5b505050506040513d601f19601f820116820180604052508101906109b4919061111c565b15156001145b806109cf57506033546001600160a01b031633145b6109eb5760405162461bcd60e51b815260040161038d90611424565b6a115eec47f6cf7e35000000610a0f83610a03610601565b9063ffffffff610d5d16565b1115610a2d5760405162461bcd60e51b815260040161038d906112f7565b610a378383610e70565b81836001600160a01b0316306001600160a01b03167ff80e5f32cffc18515da81aa81b6eebc0f12c1122b4409afebdb78b6c3683fe5d876040516103e491906111c9565b6001600160a01b03918216600090815260016020908152604080832093909416825291909152205490565b610ab08282610d82565b610afa82610abc610b0f565b6106b0846040518060600160405280602481526020016115e4602491396001600160a01b038816600090815260016020526040812090610689610b0f565b5050565b6000610b0930610f30565b15905090565b3390565b6001600160a01b038316610b395760405162461bcd60e51b815260040161038d90611466565b6001600160a01b038216610b5f5760405162461bcd60e51b815260040161038d9061127e565b6001600160a01b0380841660008181526001602090815260408083209487168084529490915290819020849055517f8c5be1e5ebec7d5bd14f71427d1e84f3dd0314c0f7b2291e5b200ac8c7c3b92590610bba908590611547565b60405180910390a3505050565b6000610c0983836040518060400160405280601e81526020017f536166654d6174683a207375627472616374696f6e206f766572666c6f770000815250610d31565b9392505050565b6001600160a01b038316610c365760405162461bcd60e51b815260040161038d906113df565b6001600160a01b038216610c5c5760405162461bcd60e51b815260040161038d9061123b565b610c678383836107ac565b610caa81604051806060016040528060268152602001611596602691396001600160a01b038616600090815260208190526040902054919063ffffffff610d3116565b6001600160a01b038085166000908152602081905260408082209390935590841681522054610cdf908263ffffffff610d5d16565b6001600160a01b0380841660008181526020819052604090819020939093559151908516907fddf252ad1be2c89b69c2b068fc378daa952ba7f163c4a11628f55a4df523b3ef90610bba908590611547565b60008184841115610d555760405162461bcd60e51b815260040161038d91906111e8565b505050900390565b600082820183811015610c095760405162461bcd60e51b815260040161038d906112c0565b6001600160a01b038216610da85760405162461bcd60e51b815260040161038d9061139e565b610db4826000836107ac565b610df781604051806060016040528060228152602001611574602291396001600160a01b038516600090815260208190526040902054919063ffffffff610d3116565b6001600160a01b038316600090815260208190526040902055600254610e23908263ffffffff610bc716565b6002556040516000906001600160a01b038416907fddf252ad1be2c89b69c2b068fc378daa952ba7f163c4a11628f55a4df523b3ef90610e64908590611547565b60405180910390a35050565b6001600160a01b038216610e965760405162461bcd60e51b815260040161038d90611510565b610ea2600083836107ac565b600254610eb5908263ffffffff610d5d16565b6002556001600160a01b038216600090815260208190526040902054610ee1908263ffffffff610d5d16565b6001600160a01b0383166000818152602081905260408082209390935591519091907fddf252ad1be2c89b69c2b068fc378daa952ba7f163c4a11628f55a4df523b3ef90610e64908590611547565b3b151590565b828054600181600116156101000203166002900490600052602060002090601f016020900481019282601f10610f7757805160ff1916838001178555610fa4565b82800160010185558215610fa4579182015b82811115610fa4578251825591602001919060010190610f89565b50610fb0929150610fb4565b5090565b61060591905b80821115610fb05760008155600101610fba565b80356001600160a01b038116811461056157600080fd5b600082601f830112610ff5578081fd5b813567ffffffffffffffff8082111561100c578283fd5b604051601f8301601f19168101602001828111828210171561102c578485fd5b60405282815292508284830160200186101561104757600080fd5b8260208601602083013760006020848301015250505092915050565b600060208284031215611074578081fd5b610c098383610fce565b60008060408385031215611090578081fd5b61109a8484610fce565b91506110a98460208501610fce565b90509250929050565b6000806000606084860312156110c6578081fd5b83356110d18161155e565b925060208401356110e18161155e565b929592945050506040919091013590565b60008060408385031215611104578182fd5b61110e8484610fce565b946020939093013593505050565b60006020828403121561112d578081fd5b81518015158114610c09578182fd5b600080600060608486031215611150578283fd5b833567ffffffffffffffff80821115611167578485fd5b61117387838801610fe5565b94506020860135915080821115611188578384fd5b5061119586828701610fe5565b92505060408401356111a68161155e565b809150509250925092565b6000602082840312156111c2578081fd5b5035919050565b6001600160a01b0391909116815260200190565b901515815260200190565b6000602080835283518082850152825b81811015611214578581018301518582016040015282016111f8565b818111156112255783604083870101525b50601f01601f1916929092016040019392505050565b60208082526023908201527f45524332303a207472616e7366657220746f20746865207a65726f206164647260408201526265737360e81b606082015260800190565b60208082526022908201527f45524332303a20617070726f766520746f20746865207a65726f206164647265604082015261737360f01b606082015260800190565b6020808252601b908201527f536166654d6174683a206164646974696f6e206f766572666c6f770000000000604082015260600190565b602080825260119082015270109116081b1a5b5a5d081c995858da1959607a1b604082015260600190565b6020808252602e908201527f496e697469616c697a61626c653a20636f6e747261637420697320616c72656160408201526d191e481a5b9a5d1a585b1a5e995960921b606082015260800190565b6020808252601490820152732cb7ba9030b932903737ba1030b71037bbb732b960611b604082015260600190565b60208082526021908201527f45524332303a206275726e2066726f6d20746865207a65726f206164647265736040820152607360f81b606082015260800190565b60208082526025908201527f45524332303a207472616e736665722066726f6d20746865207a65726f206164604082015264647265737360d81b606082015260800190565b60208082526022908201527f596f7520617265206e6f7420616e206f776e6572206e6f72206120626420706f6040820152611bdb60f21b606082015260800190565b60208082526024908201527f45524332303a20617070726f76652066726f6d20746865207a65726f206164646040820152637265737360e01b606082015260800190565b602080825260159082015274165bdd48185c99481b9bdd0818481899081c1bdbdb605a1b604082015260600190565b6020808252601f908201527f4e6577206f776e65722063616e2774206265207a65726f206164647265737300604082015260600190565b6020808252601f908201527f45524332303a206d696e7420746f20746865207a65726f206164647265737300604082015260600190565b90815260200190565b60ff91909116815260200190565b6001600160a01b038116811461073857600080fdfe45524332303a206275726e20616d6f756e7420657863656564732062616c616e636545524332303a207472616e7366657220616d6f756e7420657863656564732062616c616e636545524332303a207472616e7366657220616d6f756e74206578636565647320616c6c6f77616e636545524332303a206275726e20616d6f756e74206578636565647320616c6c6f77616e636545524332303a2064656372656173656420616c6c6f77616e63652062656c6f77207a65726fa264697066735822122028ed50e18152079822711a590010a7cc84d407f4aacf2684be7fa8439a9fc7ff64736f6c634300060b0033",
  "devdoc": {
    "kind": "dev",
    "methods": {
      "allowance(address,address)": {
        "details": "See {IERC20-allowance}."
      },
      "approve(address,uint256)": {
        "details": "See {IERC20-approve}. Requirements: - `spender` cannot be the zero address.approve(address spender, uint256 amount)"
      },
      "balanceOf(address)": {
        "details": "See {IERC20-balanceOf}."
      },
      "burn(uint256)": {
        "details": "Destroys `amount` tokens from the caller. See {ERC20-_burn}."
      },
      "burnFrom(address,uint256)": {
        "details": "Destroys `amount` tokens from `account`, deducting from the caller's allowance. See {ERC20-_burn} and {ERC20-allowance}. Requirements: - the caller must have allowance for `accounts`'s tokens of at least `amount`."
      },
      "decreaseAllowance(address,uint256)": {
        "details": "Atomically decreases the allowance granted to `spender` by the caller. This is an alternative to {approve} that can be used as a mitigation for problems described in {IERC20-approve}. Emits an {Approval} event indicating the updated allowance. Requirements: - `spender` cannot be the zero address. - `spender` must have allowance for the caller of at least `subtractedValue`."
      },
      "increaseAllowance(address,uint256)": {
        "details": "Atomically increases the allowance granted to `spender` by the caller. This is an alternative to {approve} that can be used as a mitigation for problems described in {IERC20-approve}. Emits an {Approval} event indicating the updated allowance. Requirements: - `spender` cannot be the zero address."
      },
      "totalSupply()": {
        "details": "See {IERC20-totalSupply}."
      },
      "transfer(address,uint256)": {
        "details": "See {IERC20-transfer}. Requirements: - `recipient` cannot be the zero address. - the caller must have a balance of at least `amount`."
      },
      "transferFrom(address,address,uint256)": {
        "details": "See {IERC20-transferFrom}. Emits an {Approval} event indicating the updated allowance. This is not required by the EIP. See the note at the beginning of {ERC20}; Requirements: - `sender` and `recipient` cannot be the zero address. - `sender` must have a balance of at least `amount`. - the caller must have allowance for `sender`'s tokens of at least `amount`."
      }
    },
    "version": 1
  },
  "userdoc": {
    "kind": "user",
    "methods": {},
    "version": 1
  },
  "storageLayout": {
    "storage": [
      {
        "astId": 5875,
        "contract": "contracts/Bdx/BDXShares.sol:BDXShares",
        "label": "_balances",
        "offset": 0,
        "slot": "0",
        "type": "t_mapping(t_address,t_uint256)"
      },
      {
        "astId": 5881,
        "contract": "contracts/Bdx/BDXShares.sol:BDXShares",
        "label": "_allowances",
        "offset": 0,
        "slot": "1",
        "type": "t_mapping(t_address,t_mapping(t_address,t_uint256))"
      },
      {
        "astId": 5883,
        "contract": "contracts/Bdx/BDXShares.sol:BDXShares",
        "label": "_totalSupply",
        "offset": 0,
        "slot": "2",
        "type": "t_uint256"
      },
      {
        "astId": 6375,
        "contract": "contracts/Bdx/BDXShares.sol:BDXShares",
        "label": "__gap",
        "offset": 0,
        "slot": "3",
        "type": "t_array(t_uint256)45_storage"
      },
      {
        "astId": 492,
        "contract": "contracts/Bdx/BDXShares.sol:BDXShares",
        "label": "_initialized",
        "offset": 0,
        "slot": "48",
        "type": "t_bool"
      },
      {
        "astId": 495,
        "contract": "contracts/Bdx/BDXShares.sol:BDXShares",
        "label": "_initializing",
        "offset": 1,
        "slot": "48",
        "type": "t_bool"
      },
      {
        "astId": 5014,
        "contract": "contracts/Bdx/BDXShares.sol:BDXShares",
        "label": "symbol",
        "offset": 0,
        "slot": "49",
        "type": "t_string_storage"
      },
      {
        "astId": 5016,
        "contract": "contracts/Bdx/BDXShares.sol:BDXShares",
        "label": "name",
        "offset": 0,
        "slot": "50",
        "type": "t_string_storage"
      },
      {
        "astId": 5018,
        "contract": "contracts/Bdx/BDXShares.sol:BDXShares",
        "label": "owner_address",
        "offset": 0,
        "slot": "51",
        "type": "t_address"
      },
      {
        "astId": 5022,
        "contract": "contracts/Bdx/BDXShares.sol:BDXShares",
        "label": "bdstables",
        "offset": 0,
        "slot": "52",
        "type": "t_mapping(t_address,t_bool)"
      }
    ],
    "types": {
      "t_address": {
        "encoding": "inplace",
        "label": "address",
        "numberOfBytes": "20"
      },
      "t_array(t_uint256)45_storage": {
        "base": "t_uint256",
        "encoding": "inplace",
        "label": "uint256[45]",
        "numberOfBytes": "1440"
      },
      "t_bool": {
        "encoding": "inplace",
        "label": "bool",
        "numberOfBytes": "1"
      },
      "t_mapping(t_address,t_bool)": {
        "encoding": "mapping",
        "key": "t_address",
        "label": "mapping(address => bool)",
        "numberOfBytes": "32",
        "value": "t_bool"
      },
      "t_mapping(t_address,t_mapping(t_address,t_uint256))": {
        "encoding": "mapping",
        "key": "t_address",
        "label": "mapping(address => mapping(address => uint256))",
        "numberOfBytes": "32",
        "value": "t_mapping(t_address,t_uint256)"
      },
      "t_mapping(t_address,t_uint256)": {
        "encoding": "mapping",
        "key": "t_address",
        "label": "mapping(address => uint256)",
        "numberOfBytes": "32",
        "value": "t_uint256"
      },
      "t_string_storage": {
        "encoding": "bytes",
        "label": "string",
        "numberOfBytes": "32"
      },
      "t_uint256": {
        "encoding": "inplace",
        "label": "uint256",
        "numberOfBytes": "32"
      }
    }
  }
}