{
  "address": "0xaBAf6e36D9c7aC01f70e7629fFd537191f40a75e",
  "abi": [
    {
      "inputs": [
        {
          "internalType": "address",
          "name": "_updater",
          "type": "address"
        }
      ],
      "stateMutability": "nonpayable",
      "type": "constructor"
    },
    {
      "anonymous": false,
      "inputs": [
        {
          "indexed": true,
          "internalType": "address",
          "name": "previousOwner",
          "type": "address"
        },
        {
          "indexed": true,
          "internalType": "address",
          "name": "newOwner",
          "type": "address"
        }
      ],
      "name": "OwnershipTransferred",
      "type": "event"
    },
    {
      "anonymous": false,
      "inputs": [
        {
          "indexed": true,
          "internalType": "address",
          "name": "oldUpdater",
          "type": "address"
        },
        {
          "indexed": true,
          "internalType": "address",
          "name": "newUpdater",
          "type": "address"
        }
      ],
      "name": "UpdaterChanged",
      "type": "event"
    },
    {
      "inputs": [],
      "name": "owner",
      "outputs": [
        {
          "internalType": "address",
          "name": "",
          "type": "address"
        }
      ],
      "stateMutability": "view",
      "type": "function"
    },
    {
      "inputs": [],
      "name": "renounceOwnership",
      "outputs": [],
      "stateMutability": "nonpayable",
      "type": "function"
    },
    {
      "inputs": [
        {
          "internalType": "address",
          "name": "newUpdater",
          "type": "address"
        }
      ],
      "name": "setUpdater",
      "outputs": [],
      "stateMutability": "nonpayable",
      "type": "function"
    },
    {
      "inputs": [
        {
          "internalType": "address",
          "name": "newOwner",
          "type": "address"
        }
      ],
      "name": "transferOwnership",
      "outputs": [],
      "stateMutability": "nonpayable",
      "type": "function"
    },
    {
      "inputs": [
        {
          "internalType": "address[]",
          "name": "_sovrynOracles",
          "type": "address[]"
        },
        {
          "internalType": "uint256[]",
          "name": "_sovrynPrices",
          "type": "uint256[]"
        },
        {
          "internalType": "address[]",
          "name": "_fiatOracles",
          "type": "address[]"
        },
        {
          "internalType": "uint256[]",
          "name": "_fiatPrices",
          "type": "uint256[]"
        },
        {
          "internalType": "address[]",
          "name": "_uniswapOracles",
          "type": "address[]"
        },
        {
          "internalType": "address[]",
          "name": "_BDStables",
          "type": "address[]"
        }
      ],
      "name": "update",
      "outputs": [],
      "stateMutability": "nonpayable",
      "type": "function"
    },
    {
      "inputs": [],
      "name": "updater",
      "outputs": [
        {
          "internalType": "address",
          "name": "",
          "type": "address"
        }
      ],
      "stateMutability": "view",
      "type": "function"
    }
  ],
  "transactionHash": "0x7b6ce5e079253aca9d49d386aa45c3634617fb10cf052fa38a20a8f65b39717f",
  "args": [
    "0x2A119532248d0E4Ff68A42bB37f64336C3F20872"
  ],
  "solcInputHash": "15a1661137a690de95fbb333f0cd57f7",
  "bytecode": "0x608060405234801561001057600080fd5b50604051610c18380380610c1883398101604081905261002f916100b1565b61003833610061565b60018055600280546001600160a01b0319166001600160a01b03929092169190911790556100e1565b600080546001600160a01b038381166001600160a01b0319831681178455604051919092169283917f8be0079c531659141344cd1fd0a4f28419497f9722a3daafe3b4186f6b6457e09190a35050565b6000602082840312156100c357600080fd5b81516001600160a01b03811681146100da57600080fd5b9392505050565b610b28806100f06000396000f3fe608060405234801561001057600080fd5b50600436106100625760003560e01c8063715018a6146100675780638da5cb5b146100715780639d54f4191461009a578063d0042312146100ad578063df034cd0146100c0578063f2fde38b146100d3575b600080fd5b61006f6100e6565b005b6000546001600160a01b03165b6040516001600160a01b03909116815260200160405180910390f35b61006f6100a836600461080f565b610125565b61006f6100bb366004610969565b610209565b60025461007e906001600160a01b031681565b61006f6100e136600461080f565b610708565b6000546001600160a01b031633146101195760405162461bcd60e51b815260040161011090610a5e565b60405180910390fd5b61012360006107a3565b565b6000546001600160a01b0316331461014f5760405162461bcd60e51b815260040161011090610a5e565b6001600160a01b0381166101b75760405162461bcd60e51b815260206004820152602960248201527f557064617465722063616e6e6f742062652073657420746f20746865207a65726044820152686f206164647265737360b81b6064820152608401610110565b600280546001600160a01b038381166001600160a01b0319831681179093556040519116919082907f662a4a4a892f5f13cf7ee050fdaa045f8641601fdbc843e8a71f418099cacd4e90600090a35050565b6002546001600160a01b0316331461025c5760405162461bcd60e51b81526020600482015260166024820152752cb7ba93b932903737ba103a3432903ab83230ba32b960511b6044820152606401610110565b6002600154036102ae5760405162461bcd60e51b815260206004820152601f60248201527f5265656e7472616e637947756172643a207265656e7472616e742063616c6c006044820152606401610110565b6002600155845186511461032a5760405162461bcd60e51b815260206004820152603860248201527f4561636820736f7672796e206f7261636c652061646472657373206e6565647360448201527f2069747320636f72726573706f6e64696e6720707269636500000000000000006064820152608401610110565b825184511461039a5760405162461bcd60e51b815260206004820152603660248201527f456163682066696174206f7261636c652061646472657373206e656564732069604482015275747320636f72726573706f6e64696e6720707269636560501b6064820152608401610110565b60005b86518110156104b85760008782815181106103ba576103ba610a93565b60200260200101519050806001600160a01b03166348dc531f6040518163ffffffff1660e01b8152600401602060405180830381865afa158015610402573d6000803e3d6000fd5b505050506040513d601f19601f820116820180604052508101906104269190610aa9565b156104a557806001600160a01b0316633f55dfe488848151811061044c5761044c610a93565b60200260200101516040518263ffffffff1660e01b815260040161047291815260200190565b600060405180830381600087803b15801561048c57600080fd5b505af11580156104a0573d6000803e3d6000fd5b505050505b50806104b081610acb565b91505061039d565b5060005b84518110156105705760008582815181106104d9576104d9610a93565b60200260200101519050806001600160a01b03166391b7f5ed86848151811061050457610504610a93565b60200260200101516040518263ffffffff1660e01b815260040161052a91815260200190565b600060405180830381600087803b15801561054457600080fd5b505af1158015610558573d6000803e3d6000fd5b5050505050808061056890610acb565b9150506104bc565b5060005b825181101561066957600083828151811061059157610591610a93565b60200260200101519050806001600160a01b03166309bf39ed6040518163ffffffff1660e01b8152600401602060405180830381865afa1580156105d9573d6000803e3d6000fd5b505050506040513d601f19601f820116820180604052508101906105fd9190610aa9565b1561065657806001600160a01b031663d6f124f06040518163ffffffff1660e01b8152600401600060405180830381600087803b15801561063d57600080fd5b505af1158015610651573d6000803e3d6000fd5b505050505b508061066181610acb565b915050610574565b5060005b81518110156106fb57600082828151811061068a5761068a610a93565b60200260200101519050806001600160a01b0316634013124a6040518163ffffffff1660e01b8152600401600060405180830381600087803b1580156106cf57600080fd5b505af11580156106e3573d6000803e3d6000fd5b505050505080806106f390610acb565b91505061066d565b5050600180555050505050565b6000546001600160a01b031633146107325760405162461bcd60e51b815260040161011090610a5e565b6001600160a01b0381166107975760405162461bcd60e51b815260206004820152602660248201527f4f776e61626c653a206e6577206f776e657220697320746865207a65726f206160448201526564647265737360d01b6064820152608401610110565b6107a0816107a3565b50565b600080546001600160a01b038381166001600160a01b0319831681178455604051919092169283917f8be0079c531659141344cd1fd0a4f28419497f9722a3daafe3b4186f6b6457e09190a35050565b80356001600160a01b038116811461080a57600080fd5b919050565b60006020828403121561082157600080fd5b61082a826107f3565b9392505050565b634e487b7160e01b600052604160045260246000fd5b604051601f8201601f1916810167ffffffffffffffff8111828210171561087057610870610831565b604052919050565b600067ffffffffffffffff82111561089257610892610831565b5060051b60200190565b600082601f8301126108ad57600080fd5b813560206108c26108bd83610878565b610847565b82815260059290921b840181019181810190868411156108e157600080fd5b8286015b84811015610903576108f6816107f3565b83529183019183016108e5565b509695505050505050565b600082601f83011261091f57600080fd5b8135602061092f6108bd83610878565b82815260059290921b8401810191818101908684111561094e57600080fd5b8286015b848110156109035780358352918301918301610952565b60008060008060008060c0878903121561098257600080fd5b863567ffffffffffffffff8082111561099a57600080fd5b6109a68a838b0161089c565b975060208901359150808211156109bc57600080fd5b6109c88a838b0161090e565b965060408901359150808211156109de57600080fd5b6109ea8a838b0161089c565b95506060890135915080821115610a0057600080fd5b610a0c8a838b0161090e565b94506080890135915080821115610a2257600080fd5b610a2e8a838b0161089c565b935060a0890135915080821115610a4457600080fd5b50610a5189828a0161089c565b9150509295509295509295565b6020808252818101527f4f776e61626c653a2063616c6c6572206973206e6f7420746865206f776e6572604082015260600190565b634e487b7160e01b600052603260045260246000fd5b600060208284031215610abb57600080fd5b8151801515811461082a57600080fd5b600060018201610aeb57634e487b7160e01b600052601160045260246000fd5b506001019056fea2646970667358221220214998f95c243734f5a5dfae46ac46cb0f897fd761a364dfe427db82f4303f1b64736f6c634300080d0033",
  "devdoc": {
    "kind": "dev",
    "methods": {
      "owner()": {
        "details": "Returns the address of the current owner."
      },
      "renounceOwnership()": {
        "details": "Leaves the contract without owner. It will not be possible to call `onlyOwner` functions anymore. Can only be called by the current owner. NOTE: Renouncing ownership will leave the contract without an owner, thereby removing any functionality that is only available to the owner."
      },
      "transferOwnership(address)": {
        "details": "Transfers ownership of the contract to a new account (`newOwner`). Can only be called by the current owner."
      }
    },
    "version": 1
  },
  "userdoc": {
    "kind": "user",
    "methods": {},
    "version": 1
  },
  "storageLayout": {
    "storage": [
      {
        "astId": 1587,
        "contract": "contracts/Utils/BlindexUpdater.sol:BlindexUpdater",
        "label": "_owner",
        "offset": 0,
        "slot": "0",
        "type": "t_address"
      },
      {
        "astId": 1695,
        "contract": "contracts/Utils/BlindexUpdater.sol:BlindexUpdater",
        "label": "_status",
        "offset": 0,
        "slot": "1",
        "type": "t_uint256"
      },
      {
        "astId": 11482,
        "contract": "contracts/Utils/BlindexUpdater.sol:BlindexUpdater",
        "label": "updater",
        "offset": 0,
        "slot": "2",
        "type": "t_address"
      }
    ],
    "types": {
      "t_address": {
        "encoding": "inplace",
        "label": "address",
        "numberOfBytes": "20"
      },
      "t_uint256": {
        "encoding": "inplace",
        "label": "uint256",
        "numberOfBytes": "32"
      }
    }
  }
}