{
  "address": "0x25aC7D9b3eA85FC3c9b0F2d2Cea2A71f765EAa8a",
  "abi": [
    {
      "inputs": [
        {
          "internalType": "address",
          "name": "_btcEthFeedAddress",
          "type": "address"
        },
        {
          "internalType": "address",
          "name": "_wethAddress",
          "type": "address"
        }
      ],
      "stateMutability": "nonpayable",
      "type": "constructor"
    },
    {
      "inputs": [
        {
          "internalType": "address",
          "name": "tokenIn",
          "type": "address"
        },
        {
          "internalType": "uint256",
          "name": "amountIn",
          "type": "uint256"
        }
      ],
      "name": "consult",
      "outputs": [
        {
          "internalType": "uint256",
          "name": "",
          "type": "uint256"
        }
      ],
      "stateMutability": "view",
      "type": "function"
    },
    {
      "inputs": [],
      "name": "getPrice_1e12",
      "outputs": [
        {
          "internalType": "uint256",
          "name": "",
          "type": "uint256"
        }
      ],
      "stateMutability": "view",
      "type": "function"
    },
    {
      "inputs": [],
      "name": "shouldUpdateOracle",
      "outputs": [
        {
          "internalType": "bool",
          "name": "",
          "type": "bool"
        }
      ],
      "stateMutability": "view",
      "type": "function"
    },
    {
      "inputs": [],
      "name": "updateOracle",
      "outputs": [],
      "stateMutability": "nonpayable",
      "type": "function"
    }
  ],
  "transactionHash": "0xcf9a7fcce5ec0bcbf073b139a5dd34706a9ec2c2d0e1c4889907d3c579d5fbed",
  "args": [
    "0xF7904a295A029a3aBDFFB6F12755974a958C7C25",
    "0xd0a1e359811322d97991e03f863a0c30c2cf029c"
  ],
  "solcInputHash": "36185021115f3fccbe06894bb4a1b398",
  "bytecode": "0x608060405234801561001057600080fd5b506040516104ad3803806104ad8339818101604052604081101561003357600080fd5b508051602090910151600080546001600160a01b039384166001600160a01b031991821617909155600180549390921692169190911790556104338061007a6000396000f3fe608060405234801561001057600080fd5b506004361061004c5760003560e01c806309bf39ed146100515780633ddac9531461006d578063d6f124f0146100ab578063f245a92f146100b5575b600080fd5b6100596100bd565b604080519115158252519081900360200190f35b6100996004803603604081101561008357600080fd5b506001600160a01b0381351690602001356100c2565b60408051918252519081900360200190f35b6100b3610146565b005b610099610148565b600090565b6001546000906001600160a01b038481169116146101115760405162461bcd60e51b815260040180806020018281038252602e8152602001806103d0602e913960400191505060405180910390fd5b61013d61011c610148565b6101318464e8d4a5100063ffffffff6101ff16565b9063ffffffff61025816565b90505b92915050565b565b600080548190610160906001600160a01b031661029a565b90506101f96000809054906101000a90046001600160a01b03166001600160a01b031663313ce5676040518163ffffffff1660e01b815260040160206040518083038186803b1580156101b257600080fd5b505afa1580156101c6573d6000803e3d6000fd5b505050506040513d60208110156101dc57600080fd5b505160ff16600a0a61013164e8d4a510008463ffffffff6101ff16565b91505090565b60008261020e57506000610140565b8282028284828161021b57fe5b041461013d5760405162461bcd60e51b81526004018080602001828103825260218152602001806103af6021913960400191505060405180910390fd5b600061013d83836040518060400160405280601a81526020017f536166654d6174683a206469766973696f6e206279207a65726f00000000000081525061030c565b600080826001600160a01b031663feaf968c6040518163ffffffff1660e01b815260040160a06040518083038186803b1580156102d657600080fd5b505afa1580156102ea573d6000803e3d6000fd5b505050506040513d60a081101561030057600080fd5b50602001519392505050565b600081836103985760405162461bcd60e51b81526004018080602001828103825283818151815260200191508051906020019080838360005b8381101561035d578181015183820152602001610345565b50505050905090810190601f16801561038a5780820380516001836020036101000a031916815260200191505b509250505060405180910390fd5b5060008385816103a457fe5b049594505050505056fe536166654d6174683a206d756c7469706c69636174696f6e206f766572666c6f7754686973206f7261636c65206f6e6c79206163636570747320636f6e73756c74696e67205745544820696e707574a2646970667358221220f5ccc0c2a10644966a64a003d04276fce9b39aeeb04624531a8fc3cda5bf294364736f6c634300060b0033",
  "devdoc": {
    "kind": "dev",
    "methods": {},
    "version": 1
  },
  "userdoc": {
    "kind": "user",
    "methods": {},
    "version": 1
  },
  "storageLayout": {
    "storage": [
      {
        "astId": 8196,
        "contract": "contracts/Oracle/BtcToEthOracle.sol:BtcToEthOracle",
        "label": "feed",
        "offset": 0,
        "slot": "0",
        "type": "t_contract(AggregatorV3Interface)8183"
      },
      {
        "astId": 8198,
        "contract": "contracts/Oracle/BtcToEthOracle.sol:BtcToEthOracle",
        "label": "wethAddress",
        "offset": 0,
        "slot": "1",
        "type": "t_address"
      }
    ],
    "types": {
      "t_address": {
        "encoding": "inplace",
        "label": "address",
        "numberOfBytes": "20"
      },
      "t_contract(AggregatorV3Interface)8183": {
        "encoding": "inplace",
        "label": "contract AggregatorV3Interface",
        "numberOfBytes": "20"
      }
    }
  }
}