{
  "address": "0xCccd33912581132Ac3fbc30906499E00BAe23D66",
  "abi": [
    {
      "inputs": [
        {
          "internalType": "address",
          "name": "_fiatToUsdFeedAddress",
          "type": "address"
        },
        {
          "internalType": "address",
          "name": "_cryptUsdFeedAddress",
          "type": "address"
        }
      ],
      "stateMutability": "nonpayable",
      "type": "constructor"
    },
    {
      "inputs": [
        {
          "internalType": "address",
          "name": "tokenIn",
          "type": "address"
        },
        {
          "internalType": "uint256",
          "name": "amountIn",
          "type": "uint256"
        }
      ],
      "name": "consult",
      "outputs": [
        {
          "internalType": "uint256",
          "name": "",
          "type": "uint256"
        }
      ],
      "stateMutability": "view",
      "type": "function"
    },
    {
      "inputs": [],
      "name": "getDecimals",
      "outputs": [
        {
          "internalType": "uint8",
          "name": "",
          "type": "uint8"
        }
      ],
      "stateMutability": "view",
      "type": "function"
    },
    {
      "inputs": [],
      "name": "getPrice_1e12",
      "outputs": [
        {
          "internalType": "uint256",
          "name": "",
          "type": "uint256"
        }
      ],
      "stateMutability": "view",
      "type": "function"
    }
  ],
  "transactionHash": "0xf29e0484a678a1ddb89f90e75c8763f98dd9d8ff816f2419e542042a64ef4d54",
  "args": [
    "0x0c15Ab9A0DB086e062194c273CC79f41597Bbf13",
    "0x9326BFA02ADD2366b30bacB125260Af641031331"
  ],
  "solcInputHash": "36185021115f3fccbe06894bb4a1b398",
  "bytecode": "0x608060405234801561001057600080fd5b506040516106203803806106208339818101604052604081101561003357600080fd5b508051602090910151600080546001600160a01b039384166001600160a01b031991821617909155600180549390921692169190911790556105a68061007a6000396000f3fe608060405234801561001057600080fd5b50600436106100415760003560e01c80633ddac95314610046578063f0141d8414610084578063f245a92f146100a2575b600080fd5b6100726004803603604081101561005c57600080fd5b506001600160a01b0381351690602001356100aa565b60408051918252519081900360200190f35b61008c61012f565b6040805160ff9092168252519081900360200190f35b61007261021a565b6001546000906001600160a01b038481169116146100f95760405162461bcd60e51b81526004018080602001828103825260308152602001806105206030913960400191505060405180910390fd5b61012664e8d4a5100061011a8461010e61021a565b9063ffffffff61037016565b9063ffffffff6103c916565b90505b92915050565b6001546040805163313ce56760e01b815290516000926001600160a01b03169163313ce567916004808301926020929190829003018186803b15801561017457600080fd5b505afa158015610188573d6000803e3d6000fd5b505050506040513d602081101561019e57600080fd5b50516000546040805163313ce56760e01b815290516001600160a01b039092169163313ce56791600480820192602092909190829003018186803b1580156101e557600080fd5b505afa1580156101f9573d6000803e3d6000fd5b505050506040513d602081101561020f57600080fd5b505103600c01905090565b600080548190610232906001600160a01b031661040b565b60015490915060009061024d906001600160a01b031661040b565b9050610369600160009054906101000a90046001600160a01b03166001600160a01b031663313ce5676040518163ffffffff1660e01b815260040160206040518083038186803b1580156102a057600080fd5b505afa1580156102b4573d6000803e3d6000fd5b505050506040513d60208110156102ca57600080fd5b50516000546040805163313ce56760e01b8152905160ff909316600a0a9261011a92879284926001600160a01b039092169163313ce56791600480820192602092909190829003018186803b15801561032257600080fd5b505afa158015610336573d6000803e3d6000fd5b505050506040513d602081101561034c57600080fd5b505160ff16600a0a61010e64e8d4a510008863ffffffff61037016565b9250505090565b60008261037f57506000610129565b8282028284828161038c57fe5b04146101265760405162461bcd60e51b81526004018080602001828103825260218152602001806105506021913960400191505060405180910390fd5b600061012683836040518060400160405280601a81526020017f536166654d6174683a206469766973696f6e206279207a65726f00000000000081525061047d565b600080826001600160a01b031663feaf968c6040518163ffffffff1660e01b815260040160a06040518083038186803b15801561044757600080fd5b505afa15801561045b573d6000803e3d6000fd5b505050506040513d60a081101561047157600080fd5b50602001519392505050565b600081836105095760405162461bcd60e51b81526004018080602001828103825283818151815260200191508051906020019080838360005b838110156104ce5781810151838201526020016104b6565b50505050905090810190601f1680156104fb5780820380516001836020036101000a031916815260200191505b509250505060405180910390fd5b50600083858161051557fe5b049594505050505056fe54686973206f7261636c65206f6e6c79206163636570747320636f6e73756c74696e672063727970746f20696e707574536166654d6174683a206d756c7469706c69636174696f6e206f766572666c6f77a264697066735822122070397a334b139427c6badf7deb96feb0aa37322614231b69c7c4b21f9ab967d664736f6c634300060b0033",
  "devdoc": {
    "kind": "dev",
    "methods": {},
    "version": 1
  },
  "userdoc": {
    "kind": "user",
    "methods": {},
    "version": 1
  },
  "storageLayout": {
    "storage": [
      {
        "astId": 8320,
        "contract": "contracts/Oracle/ChainlinkBasedCryptoFiatFeed.sol:ChainlinkBasedCryptoFiatFeed",
        "label": "fiatToUsdFeed",
        "offset": 0,
        "slot": "0",
        "type": "t_contract(AggregatorV3Interface)8183"
      },
      {
        "astId": 8322,
        "contract": "contracts/Oracle/ChainlinkBasedCryptoFiatFeed.sol:ChainlinkBasedCryptoFiatFeed",
        "label": "cryptoToUsdFeed",
        "offset": 0,
        "slot": "1",
        "type": "t_contract(AggregatorV3Interface)8183"
      }
    ],
    "types": {
      "t_contract(AggregatorV3Interface)8183": {
        "encoding": "inplace",
        "label": "contract AggregatorV3Interface",
        "numberOfBytes": "20"
      }
    }
  }
}