{
  "address": "0x6aEBE0e60A7f58f4ABC6450499DB3f9B58f79965",
  "abi": [
    {
      "anonymous": false,
      "inputs": [
        {
          "indexed": true,
          "internalType": "address",
          "name": "previousOwner",
          "type": "address"
        },
        {
          "indexed": true,
          "internalType": "address",
          "name": "newOwner",
          "type": "address"
        }
      ],
      "name": "OwnershipTransferred",
      "type": "event"
    },
    {
      "anonymous": false,
      "inputs": [
        {
          "indexed": true,
          "internalType": "address[]",
          "name": "stakingRewardsAddresses",
          "type": "address[]"
        },
        {
          "indexed": true,
          "internalType": "uint256[]",
          "name": "stakingRewardsWeights",
          "type": "uint256[]"
        }
      ],
      "name": "PoolsRegistered",
      "type": "event"
    },
    {
      "anonymous": false,
      "inputs": [],
      "name": "RewardsWeightsReset",
      "type": "event"
    },
    {
      "inputs": [],
      "name": "BDX_MINTING_SCHEDULE_PRECISON",
      "outputs": [
        {
          "internalType": "uint256",
          "name": "",
          "type": "uint256"
        }
      ],
      "stateMutability": "view",
      "type": "function"
    },
    {
      "inputs": [],
      "name": "BDX_MINTING_SCHEDULE_YEAR_1",
      "outputs": [
        {
          "internalType": "uint256",
          "name": "",
          "type": "uint256"
        }
      ],
      "stateMutability": "view",
      "type": "function"
    },
    {
      "inputs": [],
      "name": "BDX_MINTING_SCHEDULE_YEAR_2",
      "outputs": [
        {
          "internalType": "uint256",
          "name": "",
          "type": "uint256"
        }
      ],
      "stateMutability": "view",
      "type": "function"
    },
    {
      "inputs": [],
      "name": "BDX_MINTING_SCHEDULE_YEAR_3",
      "outputs": [
        {
          "internalType": "uint256",
          "name": "",
          "type": "uint256"
        }
      ],
      "stateMutability": "view",
      "type": "function"
    },
    {
      "inputs": [],
      "name": "BDX_MINTING_SCHEDULE_YEAR_4",
      "outputs": [
        {
          "internalType": "uint256",
          "name": "",
          "type": "uint256"
        }
      ],
      "stateMutability": "view",
      "type": "function"
    },
    {
      "inputs": [],
      "name": "BDX_MINTING_SCHEDULE_YEAR_5",
      "outputs": [
        {
          "internalType": "uint256",
          "name": "",
          "type": "uint256"
        }
      ],
      "stateMutability": "view",
      "type": "function"
    },
    {
      "inputs": [],
      "name": "TOTAL_BDX_SUPPLY",
      "outputs": [
        {
          "internalType": "uint256",
          "name": "",
          "type": "uint256"
        }
      ],
      "stateMutability": "view",
      "type": "function"
    },
    {
      "inputs": [
        {
          "internalType": "address",
          "name": "_stakingRewardsAddress",
          "type": "address"
        }
      ],
      "name": "getRewardRatePerSecond",
      "outputs": [
        {
          "internalType": "uint256",
          "name": "",
          "type": "uint256"
        }
      ],
      "stateMutability": "view",
      "type": "function"
    },
    {
      "inputs": [
        {
          "internalType": "address",
          "name": "_timelock_address",
          "type": "address"
        },
        {
          "internalType": "address",
          "name": "_rewardsToken",
          "type": "address"
        }
      ],
      "name": "initialize",
      "outputs": [],
      "stateMutability": "nonpayable",
      "type": "function"
    },
    {
      "inputs": [],
      "name": "owner",
      "outputs": [
        {
          "internalType": "address",
          "name": "",
          "type": "address"
        }
      ],
      "stateMutability": "view",
      "type": "function"
    },
    {
      "inputs": [
        {
          "internalType": "address[]",
          "name": "_stakingRewardsAddresses",
          "type": "address[]"
        },
        {
          "internalType": "uint256[]",
          "name": "_stakingRewardsWeights",
          "type": "uint256[]"
        }
      ],
      "name": "registerPools",
      "outputs": [],
      "stateMutability": "nonpayable",
      "type": "function"
    },
    {
      "inputs": [],
      "name": "renounceOwnership",
      "outputs": [],
      "stateMutability": "nonpayable",
      "type": "function"
    },
    {
      "inputs": [],
      "name": "resetRewardsWeights",
      "outputs": [],
      "stateMutability": "nonpayable",
      "type": "function"
    },
    {
      "inputs": [
        {
          "internalType": "uint256",
          "name": "",
          "type": "uint256"
        }
      ],
      "name": "stakingRewardsAddresses",
      "outputs": [
        {
          "internalType": "address",
          "name": "",
          "type": "address"
        }
      ],
      "stateMutability": "view",
      "type": "function"
    },
    {
      "inputs": [
        {
          "internalType": "address",
          "name": "",
          "type": "address"
        }
      ],
      "name": "stakingRewardsWeights",
      "outputs": [
        {
          "internalType": "uint256",
          "name": "",
          "type": "uint256"
        }
      ],
      "stateMutability": "view",
      "type": "function"
    },
    {
      "inputs": [],
      "name": "stakingRewardsWeightsTotal",
      "outputs": [
        {
          "internalType": "uint256",
          "name": "",
          "type": "uint256"
        }
      ],
      "stateMutability": "view",
      "type": "function"
    },
    {
      "inputs": [],
      "name": "timelock_address",
      "outputs": [
        {
          "internalType": "address",
          "name": "",
          "type": "address"
        }
      ],
      "stateMutability": "view",
      "type": "function"
    },
    {
      "inputs": [
        {
          "internalType": "address",
          "name": "newOwner",
          "type": "address"
        }
      ],
      "name": "transferOwnership",
      "outputs": [],
      "stateMutability": "nonpayable",
      "type": "function"
    },
    {
      "inputs": [
        {
          "internalType": "address",
          "name": "_recepient",
          "type": "address"
        },
        {
          "internalType": "uint256",
          "name": "amountErc20",
          "type": "uint256"
        }
      ],
      "name": "transferRewards",
      "outputs": [],
      "stateMutability": "nonpayable",
      "type": "function"
    }
  ],
  "transactionHash": "0x78cce1212922ebace5b320d75425667a119217a7fc964128adf58835a22f8edc",
  "args": [],
  "solcInputHash": "36185021115f3fccbe06894bb4a1b398",
  "bytecode": "0x608060405234801561001057600080fd5b506111ce806100206000396000f3fe608060405234801561001057600080fd5b50600436106101215760003560e01c8063964efe81116100ad578063cde076bd11610071578063cde076bd14610261578063d101a80d14610269578063dc6663c714610271578063f2ae870a14610279578063f2fde38b1461033b57610121565b8063964efe81146102065780639c4dd2b31461022c578063ad98f04514610234578063b3e90f181461023c578063c2f621501461025957610121565b806377d75d03116100f457806377d75d0314610180578063827231921461018857806382d8b3e0146101b45780638da5cb5b146101bc57806391dfa22b146101e057610121565b8063015ef47b14610126578063485cc955146101405780635d03fae614610170578063715018a614610178575b600080fd5b61012e610361565b60408051918252519081900360200190f35b61016e6004803603604081101561015657600080fd5b506001600160a01b0381358116916020013516610367565b005b61016e61055f565b61016e610657565b61012e610715565b61016e6004803603604081101561019e57600080fd5b506001600160a01b03813516906020013561071b565b61012e6107ec565b6101c46107f4565b604080516001600160a01b039092168252519081900360200190f35b61012e600480360360208110156101f657600080fd5b50356001600160a01b0316610804565b61012e6004803603602081101561021c57600080fd5b50356001600160a01b0316610816565b61012e6108c0565b61012e6108c6565b6101c46004803603602081101561025257600080fd5b50356108cc565b61012e6108f3565b61012e6108f9565b61012e6108ff565b6101c4610905565b61016e6004803603604081101561028f57600080fd5b8101906020810181356401000000008111156102aa57600080fd5b8201836020820111156102bc57600080fd5b803590602001918460208302840111640100000000831117156102de57600080fd5b9193909290916020810190356401000000008111156102fc57600080fd5b82018360208201111561030e57600080fd5b8035906020019184602083028401116401000000008311171561033057600080fd5b509092509050610914565b61016e6004803603602081101561035157600080fd5b50356001600160a01b0316610b94565b60665481565b600054610100900460ff16806103805750610380610ca9565b8061038e575060005460ff16155b6103c95760405162461bcd60e51b815260040180806020018281038252602e815260200180611119602e913960400191505060405180910390fd5b600054610100900460ff161580156103f4576000805460ff1961ff0019909116610100171660011790555b6103fc610cba565b606f80546001600160a01b038086166001600160a01b031992831617909255607080549285169290911691909117905561046b6103e861045f60c86104536301406f40670de0b6b3a764000063ffffffff610d6c16565b9063ffffffff610d6c16565b9063ffffffff610dce16565b6065556104956103e861045f607d6104536301406f40670de0b6b3a764000063ffffffff610d6c16565b6066556104bf6103e861045f60646104536301406f40670de0b6b3a764000063ffffffff610d6c16565b6067556104e96103e861045f60326104536301406f40670de0b6b3a764000063ffffffff610d6c16565b6068556105136103e861045f60196104536301406f40670de0b6b3a764000063ffffffff610d6c16565b606955426301e133808101606a556303c267008101606b556305a39a808101606c55630784ce008101606d55630966018001606e55801561055a576000805461ff00191690555b505050565b6105676107f4565b6001600160a01b0316336001600160a01b031614806105905750606f546001600160a01b031633145b6105cb5760405162461bcd60e51b81526004018080602001828103825260308152602001806110e96030913960400191505060405180910390fd5b60005b60725481101561061857600060716000607284815481106105eb57fe5b60009182526020808320909101546001600160a01b031683528201929092526040019020556001016105ce565b506000607381905561062c90607290611055565b6040517f10ce663a33129ff06664005970ad82d1d9f351f00003d8165ee7f5587472a54490600090a1565b61065f610e10565b6001600160a01b03166106706107f4565b6001600160a01b0316146106cb576040805162461bcd60e51b815260206004820181905260248201527f4f776e61626c653a2063616c6c6572206973206e6f7420746865206f776e6572604482015290519081900360640190fd5b6033546040516000916001600160a01b0316907f8be0079c531659141344cd1fd0a4f28419497f9722a3daafe3b4186f6b6457e0908390a3603380546001600160a01b0319169055565b60655481565b336000908152607160205260409020546107665760405162461bcd60e51b81526004018080602001828103825260318152602001806111686031913960400191505060405180910390fd5b6070546040805163a9059cbb60e01b81526001600160a01b038581166004830152602482018590529151919092169163a9059cbb9160448083019260209291908290030181600087803b1580156107bc57600080fd5b505af11580156107d0573d6000803e3d6000fd5b505050506040513d60208110156107e657600080fd5b50505050565b6301406f4081565b6033546001600160a01b03165b90565b60716020526000908152604090205481565b606a54600090819042101561082e575060655461087e565b606b54421015610841575060665461087e565b606c54421015610854575060675461087e565b606d54421015610867575060685461087e565b606e5442101561087a575060695461087e565b5060005b6073546001600160a01b03841660009081526071602052604081205490916108b89161045f90610453866301e1338063ffffffff610dce16565b949350505050565b60695481565b60685481565b607281815481106108d957fe5b6000918252602090912001546001600160a01b0316905081565b60735481565b60675481565b6103e881565b606f546001600160a01b031681565b61091c6107f4565b6001600160a01b0316336001600160a01b031614806109455750606f546001600160a01b031633145b6109805760405162461bcd60e51b81526004018080602001828103825260308152602001806110e96030913960400191505060405180910390fd5b8281146109be5760405162461bcd60e51b81526004018080602001828103825260368152602001806110b36036913960400191505060405180910390fd5b60005b83811015610b2b57607160008686848181106109d957fe5b905060200201356001600160a01b03166001600160a01b03166001600160a01b031681526020019081526020016000205460001415610a5d576072858583818110610a2057fe5b835460018101855560009485526020948590200180546001600160a01b0319166001600160a01b0395909202939093013593909316929092179055505b60716000868684818110610a6d57fe5b905060200201356001600160a01b03166001600160a01b03166001600160a01b0316815260200190815260200160002054607360008282540392505081905550828282818110610ab957fe5b9050602002013560716000878785818110610ad057fe5b905060200201356001600160a01b03166001600160a01b03166001600160a01b0316815260200190815260200160002081905550828282818110610b1057fe5b607380546020909202939093013501909155506001016109c1565b508181604051808383602002808284376040519201829003822094508893508792508190508360208402808284376040519201829003822094507f8edc76df8df41040c10508f425f5c12bd12345e571d144062bef5b6f1680642b93506000925050a350505050565b610b9c610e10565b6001600160a01b0316610bad6107f4565b6001600160a01b031614610c08576040805162461bcd60e51b815260206004820181905260248201527f4f776e61626c653a2063616c6c6572206973206e6f7420746865206f776e6572604482015290519081900360640190fd5b6001600160a01b038116610c4d5760405162461bcd60e51b815260040180806020018281038252602681526020018061108d6026913960400191505060405180910390fd5b6033546040516001600160a01b038084169216907f8be0079c531659141344cd1fd0a4f28419497f9722a3daafe3b4186f6b6457e090600090a3603380546001600160a01b0319166001600160a01b0392909216919091179055565b6000610cb430610e14565b15905090565b600054610100900460ff1680610cd35750610cd3610ca9565b80610ce1575060005460ff16155b610d1c5760405162461bcd60e51b815260040180806020018281038252602e815260200180611119602e913960400191505060405180910390fd5b600054610100900460ff16158015610d47576000805460ff1961ff0019909116610100171660011790555b610d4f610e1a565b610d57610eba565b8015610d69576000805461ff00191690555b50565b600082610d7b57506000610dc8565b82820282848281610d8857fe5b0414610dc55760405162461bcd60e51b81526004018080602001828103825260218152602001806111476021913960400191505060405180910390fd5b90505b92915050565b6000610dc583836040518060400160405280601a81526020017f536166654d6174683a206469766973696f6e206279207a65726f000000000000815250610fb3565b3390565b3b151590565b600054610100900460ff1680610e335750610e33610ca9565b80610e41575060005460ff16155b610e7c5760405162461bcd60e51b815260040180806020018281038252602e815260200180611119602e913960400191505060405180910390fd5b600054610100900460ff16158015610d57576000805460ff1961ff0019909116610100171660011790558015610d69576000805461ff001916905550565b600054610100900460ff1680610ed35750610ed3610ca9565b80610ee1575060005460ff16155b610f1c5760405162461bcd60e51b815260040180806020018281038252602e815260200180611119602e913960400191505060405180910390fd5b600054610100900460ff16158015610f47576000805460ff1961ff0019909116610100171660011790555b6000610f51610e10565b603380546001600160a01b0319166001600160a01b038316908117909155604051919250906000907f8be0079c531659141344cd1fd0a4f28419497f9722a3daafe3b4186f6b6457e0908290a3508015610d69576000805461ff001916905550565b6000818361103f5760405162461bcd60e51b81526004018080602001828103825283818151815260200191508051906020019080838360005b83811015611004578181015183820152602001610fec565b50505050905090810190601f1680156110315780820380516001836020036101000a031916815260200191505b509250505060405180910390fd5b50600083858161104b57fe5b0495945050505050565b5080546000825590600052602060002090810190610d69919061080191905b808211156110885760008155600101611074565b509056fe4f776e61626c653a206e6577206f776e657220697320746865207a65726f2061646472657373506f6f6c732061646472657373657320616e642077656967687473206c656e677468732073686f756c64206265207468652073616d65596f7520617265206e6f7420746865206f776e6572206f722074686520676f7665726e616e63652074696d656c6f636b496e697469616c697a61626c653a20636f6e747261637420697320616c726561647920696e697469616c697a6564536166654d6174683a206d756c7469706c69636174696f6e206f766572666c6f774f6e6c792072656769737465726564207374616b696e67207265776172647320636f6e74726163747320616c6c6f776564a26469706673582212202aba5f056d625e55f2fa8116ca58a3d105ba6b370f4a7167c6b1ad97468884f264736f6c634300060b0033",
  "devdoc": {
    "kind": "dev",
    "methods": {
      "owner()": {
        "details": "Returns the address of the current owner."
      },
      "renounceOwnership()": {
        "details": "Leaves the contract without owner. It will not be possible to call `onlyOwner` functions anymore. Can only be called by the current owner. NOTE: Renouncing ownership will leave the contract without an owner, thereby removing any functionality that is only available to the owner."
      },
      "transferOwnership(address)": {
        "details": "Transfers ownership of the contract to a new account (`newOwner`). Can only be called by the current owner."
      }
    },
    "version": 1
  },
  "userdoc": {
    "kind": "user",
    "methods": {},
    "version": 1
  },
  "storageLayout": {
    "storage": [
      {
        "astId": 492,
        "contract": "contracts/Staking/StakingRewardsDistribution.sol:StakingRewardsDistribution",
        "label": "_initialized",
        "offset": 0,
        "slot": "0",
        "type": "t_bool"
      },
      {
        "astId": 495,
        "contract": "contracts/Staking/StakingRewardsDistribution.sol:StakingRewardsDistribution",
        "label": "_initializing",
        "offset": 1,
        "slot": "0",
        "type": "t_bool"
      },
      {
        "astId": 1447,
        "contract": "contracts/Staking/StakingRewardsDistribution.sol:StakingRewardsDistribution",
        "label": "__gap",
        "offset": 0,
        "slot": "1",
        "type": "t_array(t_uint256)50_storage"
      },
      {
        "astId": 10,
        "contract": "contracts/Staking/StakingRewardsDistribution.sol:StakingRewardsDistribution",
        "label": "_owner",
        "offset": 0,
        "slot": "51",
        "type": "t_address"
      },
      {
        "astId": 129,
        "contract": "contracts/Staking/StakingRewardsDistribution.sol:StakingRewardsDistribution",
        "label": "__gap",
        "offset": 0,
        "slot": "52",
        "type": "t_array(t_uint256)49_storage"
      },
      {
        "astId": 10231,
        "contract": "contracts/Staking/StakingRewardsDistribution.sol:StakingRewardsDistribution",
        "label": "BDX_MINTING_SCHEDULE_YEAR_1",
        "offset": 0,
        "slot": "101",
        "type": "t_uint256"
      },
      {
        "astId": 10233,
        "contract": "contracts/Staking/StakingRewardsDistribution.sol:StakingRewardsDistribution",
        "label": "BDX_MINTING_SCHEDULE_YEAR_2",
        "offset": 0,
        "slot": "102",
        "type": "t_uint256"
      },
      {
        "astId": 10235,
        "contract": "contracts/Staking/StakingRewardsDistribution.sol:StakingRewardsDistribution",
        "label": "BDX_MINTING_SCHEDULE_YEAR_3",
        "offset": 0,
        "slot": "103",
        "type": "t_uint256"
      },
      {
        "astId": 10237,
        "contract": "contracts/Staking/StakingRewardsDistribution.sol:StakingRewardsDistribution",
        "label": "BDX_MINTING_SCHEDULE_YEAR_4",
        "offset": 0,
        "slot": "104",
        "type": "t_uint256"
      },
      {
        "astId": 10239,
        "contract": "contracts/Staking/StakingRewardsDistribution.sol:StakingRewardsDistribution",
        "label": "BDX_MINTING_SCHEDULE_YEAR_5",
        "offset": 0,
        "slot": "105",
        "type": "t_uint256"
      },
      {
        "astId": 10241,
        "contract": "contracts/Staking/StakingRewardsDistribution.sol:StakingRewardsDistribution",
        "label": "EndOfYear_1",
        "offset": 0,
        "slot": "106",
        "type": "t_uint256"
      },
      {
        "astId": 10243,
        "contract": "contracts/Staking/StakingRewardsDistribution.sol:StakingRewardsDistribution",
        "label": "EndOfYear_2",
        "offset": 0,
        "slot": "107",
        "type": "t_uint256"
      },
      {
        "astId": 10245,
        "contract": "contracts/Staking/StakingRewardsDistribution.sol:StakingRewardsDistribution",
        "label": "EndOfYear_3",
        "offset": 0,
        "slot": "108",
        "type": "t_uint256"
      },
      {
        "astId": 10247,
        "contract": "contracts/Staking/StakingRewardsDistribution.sol:StakingRewardsDistribution",
        "label": "EndOfYear_4",
        "offset": 0,
        "slot": "109",
        "type": "t_uint256"
      },
      {
        "astId": 10249,
        "contract": "contracts/Staking/StakingRewardsDistribution.sol:StakingRewardsDistribution",
        "label": "EndOfYear_5",
        "offset": 0,
        "slot": "110",
        "type": "t_uint256"
      },
      {
        "astId": 10251,
        "contract": "contracts/Staking/StakingRewardsDistribution.sol:StakingRewardsDistribution",
        "label": "timelock_address",
        "offset": 0,
        "slot": "111",
        "type": "t_address"
      },
      {
        "astId": 10253,
        "contract": "contracts/Staking/StakingRewardsDistribution.sol:StakingRewardsDistribution",
        "label": "rewardsToken",
        "offset": 0,
        "slot": "112",
        "type": "t_contract(ERC20)2158"
      },
      {
        "astId": 10257,
        "contract": "contracts/Staking/StakingRewardsDistribution.sol:StakingRewardsDistribution",
        "label": "stakingRewardsWeights",
        "offset": 0,
        "slot": "113",
        "type": "t_mapping(t_address,t_uint256)"
      },
      {
        "astId": 10260,
        "contract": "contracts/Staking/StakingRewardsDistribution.sol:StakingRewardsDistribution",
        "label": "stakingRewardsAddresses",
        "offset": 0,
        "slot": "114",
        "type": "t_array(t_address)dyn_storage"
      },
      {
        "astId": 10262,
        "contract": "contracts/Staking/StakingRewardsDistribution.sol:StakingRewardsDistribution",
        "label": "stakingRewardsWeightsTotal",
        "offset": 0,
        "slot": "115",
        "type": "t_uint256"
      }
    ],
    "types": {
      "t_address": {
        "encoding": "inplace",
        "label": "address",
        "numberOfBytes": "20"
      },
      "t_array(t_address)dyn_storage": {
        "base": "t_address",
        "encoding": "dynamic_array",
        "label": "address[]",
        "numberOfBytes": "32"
      },
      "t_array(t_uint256)49_storage": {
        "base": "t_uint256",
        "encoding": "inplace",
        "label": "uint256[49]",
        "numberOfBytes": "1568"
      },
      "t_array(t_uint256)50_storage": {
        "base": "t_uint256",
        "encoding": "inplace",
        "label": "uint256[50]",
        "numberOfBytes": "1600"
      },
      "t_bool": {
        "encoding": "inplace",
        "label": "bool",
        "numberOfBytes": "1"
      },
      "t_contract(ERC20)2158": {
        "encoding": "inplace",
        "label": "contract ERC20",
        "numberOfBytes": "20"
      },
      "t_mapping(t_address,t_uint256)": {
        "encoding": "mapping",
        "key": "t_address",
        "label": "mapping(address => uint256)",
        "numberOfBytes": "32",
        "value": "t_uint256"
      },
      "t_uint256": {
        "encoding": "inplace",
        "label": "uint256",
        "numberOfBytes": "32"
      }
    }
  }
}