{
  "address": "0xB7A5F5830773Bb5597f85D0969787743F0A56d8D",
  "abi": [
    {
      "anonymous": false,
      "inputs": [
        {
          "indexed": true,
          "internalType": "address",
          "name": "previousOwner",
          "type": "address"
        },
        {
          "indexed": true,
          "internalType": "address",
          "name": "newOwner",
          "type": "address"
        }
      ],
      "name": "OwnershipTransferred",
      "type": "event"
    },
    {
      "anonymous": false,
      "inputs": [
        {
          "indexed": false,
          "internalType": "address",
          "name": "account",
          "type": "address"
        }
      ],
      "name": "Paused",
      "type": "event"
    },
    {
      "anonymous": false,
      "inputs": [
        {
          "indexed": false,
          "internalType": "address",
          "name": "token",
          "type": "address"
        },
        {
          "indexed": false,
          "internalType": "uint256",
          "name": "amount",
          "type": "uint256"
        }
      ],
      "name": "Recovered",
      "type": "event"
    },
    {
      "anonymous": false,
      "inputs": [
        {
          "indexed": true,
          "internalType": "address",
          "name": "user",
          "type": "address"
        },
        {
          "indexed": false,
          "internalType": "uint256",
          "name": "reward",
          "type": "uint256"
        }
      ],
      "name": "RewardPaid",
      "type": "event"
    },
    {
      "anonymous": false,
      "inputs": [
        {
          "indexed": false,
          "internalType": "address",
          "name": "user",
          "type": "address"
        },
        {
          "indexed": false,
          "internalType": "uint256",
          "name": "amount",
          "type": "uint256"
        }
      ],
      "name": "RewardVested",
      "type": "event"
    },
    {
      "anonymous": false,
      "inputs": [
        {
          "indexed": false,
          "internalType": "uint256",
          "name": "newDuration",
          "type": "uint256"
        }
      ],
      "name": "RewardsDurationUpdated",
      "type": "event"
    },
    {
      "anonymous": false,
      "inputs": [
        {
          "indexed": false,
          "internalType": "address",
          "name": "token",
          "type": "address"
        }
      ],
      "name": "RewardsPeriodRenewed",
      "type": "event"
    },
    {
      "anonymous": false,
      "inputs": [
        {
          "indexed": true,
          "internalType": "address",
          "name": "user",
          "type": "address"
        },
        {
          "indexed": false,
          "internalType": "uint256",
          "name": "amount",
          "type": "uint256"
        },
        {
          "indexed": false,
          "internalType": "uint256",
          "name": "secs",
          "type": "uint256"
        }
      ],
      "name": "StakeLocked",
      "type": "event"
    },
    {
      "anonymous": false,
      "inputs": [
        {
          "indexed": true,
          "internalType": "address",
          "name": "user",
          "type": "address"
        },
        {
          "indexed": false,
          "internalType": "uint256",
          "name": "amount",
          "type": "uint256"
        }
      ],
      "name": "Staked",
      "type": "event"
    },
    {
      "anonymous": false,
      "inputs": [
        {
          "indexed": false,
          "internalType": "address",
          "name": "account",
          "type": "address"
        }
      ],
      "name": "Unpaused",
      "type": "event"
    },
    {
      "anonymous": false,
      "inputs": [
        {
          "indexed": true,
          "internalType": "address",
          "name": "user",
          "type": "address"
        },
        {
          "indexed": false,
          "internalType": "uint256",
          "name": "amount",
          "type": "uint256"
        }
      ],
      "name": "Withdrawn",
      "type": "event"
    },
    {
      "anonymous": false,
      "inputs": [
        {
          "indexed": true,
          "internalType": "address",
          "name": "user",
          "type": "address"
        },
        {
          "indexed": false,
          "internalType": "uint256",
          "name": "amount",
          "type": "uint256"
        },
        {
          "indexed": false,
          "internalType": "bytes32",
          "name": "kek_id",
          "type": "bytes32"
        }
      ],
      "name": "WithdrawnLocked",
      "type": "event"
    },
    {
      "inputs": [],
      "name": "LOCK_MULTIPLIER_PRECISION",
      "outputs": [
        {
          "internalType": "uint256",
          "name": "",
          "type": "uint256"
        }
      ],
      "stateMutability": "view",
      "type": "function"
    },
    {
      "inputs": [],
      "name": "REWARD_PRECISION",
      "outputs": [
        {
          "internalType": "uint256",
          "name": "",
          "type": "uint256"
        }
      ],
      "stateMutability": "view",
      "type": "function"
    },
    {
      "inputs": [
        {
          "internalType": "address",
          "name": "account",
          "type": "address"
        }
      ],
      "name": "balanceOf",
      "outputs": [
        {
          "internalType": "uint256",
          "name": "",
          "type": "uint256"
        }
      ],
      "stateMutability": "view",
      "type": "function"
    },
    {
      "inputs": [
        {
          "internalType": "address",
          "name": "account",
          "type": "address"
        }
      ],
      "name": "boostedBalanceOf",
      "outputs": [
        {
          "internalType": "uint256",
          "name": "",
          "type": "uint256"
        }
      ],
      "stateMutability": "view",
      "type": "function"
    },
    {
      "inputs": [
        {
          "internalType": "address",
          "name": "account",
          "type": "address"
        }
      ],
      "name": "earned",
      "outputs": [
        {
          "internalType": "uint256",
          "name": "",
          "type": "uint256"
        }
      ],
      "stateMutability": "view",
      "type": "function"
    },
    {
      "inputs": [],
      "name": "getReward",
      "outputs": [],
      "stateMutability": "nonpayable",
      "type": "function"
    },
    {
      "inputs": [],
      "name": "getRewardForDuration",
      "outputs": [
        {
          "internalType": "uint256",
          "name": "",
          "type": "uint256"
        }
      ],
      "stateMutability": "view",
      "type": "function"
    },
    {
      "inputs": [
        {
          "internalType": "address",
          "name": "",
          "type": "address"
        }
      ],
      "name": "greylist",
      "outputs": [
        {
          "internalType": "bool",
          "name": "",
          "type": "bool"
        }
      ],
      "stateMutability": "view",
      "type": "function"
    },
    {
      "inputs": [
        {
          "internalType": "address",
          "name": "_stakingToken",
          "type": "address"
        },
        {
          "internalType": "address",
          "name": "_stakingRewardsDistribution",
          "type": "address"
        },
        {
          "internalType": "address",
          "name": "_vesting",
          "type": "address"
        },
        {
          "internalType": "bool",
          "name": "_isTrueBdPool",
          "type": "bool"
        }
      ],
      "name": "initialize",
      "outputs": [],
      "stateMutability": "nonpayable",
      "type": "function"
    },
    {
      "inputs": [],
      "name": "isTrueBdPool",
      "outputs": [
        {
          "internalType": "bool",
          "name": "",
          "type": "bool"
        }
      ],
      "stateMutability": "view",
      "type": "function"
    },
    {
      "inputs": [],
      "name": "lastTimeRewardApplicable",
      "outputs": [
        {
          "internalType": "uint256",
          "name": "",
          "type": "uint256"
        }
      ],
      "stateMutability": "view",
      "type": "function"
    },
    {
      "inputs": [],
      "name": "lastUpdateTime",
      "outputs": [
        {
          "internalType": "uint256",
          "name": "",
          "type": "uint256"
        }
      ],
      "stateMutability": "view",
      "type": "function"
    },
    {
      "inputs": [
        {
          "internalType": "address",
          "name": "account",
          "type": "address"
        }
      ],
      "name": "lockedBalanceOf",
      "outputs": [
        {
          "internalType": "uint256",
          "name": "",
          "type": "uint256"
        }
      ],
      "stateMutability": "view",
      "type": "function"
    },
    {
      "inputs": [
        {
          "internalType": "address",
          "name": "account",
          "type": "address"
        }
      ],
      "name": "lockedStakesOf",
      "outputs": [
        {
          "components": [
            {
              "internalType": "bytes32",
              "name": "kek_id",
              "type": "bytes32"
            },
            {
              "internalType": "uint256",
              "name": "start_timestamp",
              "type": "uint256"
            },
            {
              "internalType": "uint256",
              "name": "amount",
              "type": "uint256"
            },
            {
              "internalType": "uint256",
              "name": "ending_timestamp",
              "type": "uint256"
            },
            {
              "internalType": "uint256",
              "name": "multiplier_LOCK_MULTIPLIER_PRECISION",
              "type": "uint256"
            }
          ],
          "internalType": "struct StakingRewards.LockedStake[]",
          "name": "",
          "type": "tuple[]"
        }
      ],
      "stateMutability": "view",
      "type": "function"
    },
    {
      "inputs": [
        {
          "internalType": "uint256",
          "name": "yearsNo",
          "type": "uint256"
        }
      ],
      "name": "lockedStakingMultiplier_LOCK_MULTIPLIER_PRECISION",
      "outputs": [
        {
          "internalType": "uint256",
          "name": "",
          "type": "uint256"
        }
      ],
      "stateMutability": "pure",
      "type": "function"
    },
    {
      "inputs": [],
      "name": "owner",
      "outputs": [
        {
          "internalType": "address",
          "name": "",
          "type": "address"
        }
      ],
      "stateMutability": "view",
      "type": "function"
    },
    {
      "inputs": [],
      "name": "paused",
      "outputs": [
        {
          "internalType": "bool",
          "name": "",
          "type": "bool"
        }
      ],
      "stateMutability": "view",
      "type": "function"
    },
    {
      "inputs": [],
      "name": "periodFinish",
      "outputs": [
        {
          "internalType": "uint256",
          "name": "",
          "type": "uint256"
        }
      ],
      "stateMutability": "view",
      "type": "function"
    },
    {
      "inputs": [
        {
          "internalType": "address",
          "name": "tokenAddress",
          "type": "address"
        },
        {
          "internalType": "uint256",
          "name": "tokenAmount",
          "type": "uint256"
        }
      ],
      "name": "recoverERC20",
      "outputs": [],
      "stateMutability": "nonpayable",
      "type": "function"
    },
    {
      "inputs": [],
      "name": "renewIfApplicable",
      "outputs": [],
      "stateMutability": "nonpayable",
      "type": "function"
    },
    {
      "inputs": [],
      "name": "renounceOwnership",
      "outputs": [],
      "stateMutability": "nonpayable",
      "type": "function"
    },
    {
      "inputs": [],
      "name": "rewardPerToken",
      "outputs": [
        {
          "internalType": "uint256",
          "name": "",
          "type": "uint256"
        }
      ],
      "stateMutability": "view",
      "type": "function"
    },
    {
      "inputs": [],
      "name": "rewardPerTokenStored_REWARD_PRECISION",
      "outputs": [
        {
          "internalType": "uint256",
          "name": "",
          "type": "uint256"
        }
      ],
      "stateMutability": "view",
      "type": "function"
    },
    {
      "inputs": [
        {
          "internalType": "address",
          "name": "",
          "type": "address"
        }
      ],
      "name": "rewards",
      "outputs": [
        {
          "internalType": "uint256",
          "name": "",
          "type": "uint256"
        }
      ],
      "stateMutability": "view",
      "type": "function"
    },
    {
      "inputs": [],
      "name": "rewardsDurationSeconds",
      "outputs": [
        {
          "internalType": "uint256",
          "name": "",
          "type": "uint256"
        }
      ],
      "stateMutability": "view",
      "type": "function"
    },
    {
      "inputs": [
        {
          "internalType": "address",
          "name": "_address",
          "type": "address"
        },
        {
          "internalType": "bool",
          "name": "isGraylisted",
          "type": "bool"
        }
      ],
      "name": "setIsAddressGraylisted",
      "outputs": [],
      "stateMutability": "nonpayable",
      "type": "function"
    },
    {
      "inputs": [
        {
          "internalType": "address",
          "name": "_new_owner",
          "type": "address"
        }
      ],
      "name": "setOwner",
      "outputs": [],
      "stateMutability": "nonpayable",
      "type": "function"
    },
    {
      "inputs": [
        {
          "internalType": "uint256",
          "name": "_rewardsDurationSeconds",
          "type": "uint256"
        }
      ],
      "name": "setRewardsDuration",
      "outputs": [],
      "stateMutability": "nonpayable",
      "type": "function"
    },
    {
      "inputs": [
        {
          "internalType": "uint256",
          "name": "amount",
          "type": "uint256"
        }
      ],
      "name": "stake",
      "outputs": [],
      "stateMutability": "nonpayable",
      "type": "function"
    },
    {
      "inputs": [
        {
          "internalType": "uint256",
          "name": "amount",
          "type": "uint256"
        },
        {
          "internalType": "uint256",
          "name": "yearsNo",
          "type": "uint256"
        }
      ],
      "name": "stakeLocked",
      "outputs": [],
      "stateMutability": "nonpayable",
      "type": "function"
    },
    {
      "inputs": [],
      "name": "stakingDecimals",
      "outputs": [
        {
          "internalType": "uint256",
          "name": "",
          "type": "uint256"
        }
      ],
      "stateMutability": "view",
      "type": "function"
    },
    {
      "inputs": [],
      "name": "stakingToken",
      "outputs": [
        {
          "internalType": "contract ERC20",
          "name": "",
          "type": "address"
        }
      ],
      "stateMutability": "view",
      "type": "function"
    },
    {
      "inputs": [],
      "name": "toggleUnlockStakes",
      "outputs": [],
      "stateMutability": "nonpayable",
      "type": "function"
    },
    {
      "inputs": [],
      "name": "totalBoostedSupply",
      "outputs": [
        {
          "internalType": "uint256",
          "name": "",
          "type": "uint256"
        }
      ],
      "stateMutability": "view",
      "type": "function"
    },
    {
      "inputs": [],
      "name": "totalSupply",
      "outputs": [
        {
          "internalType": "uint256",
          "name": "",
          "type": "uint256"
        }
      ],
      "stateMutability": "view",
      "type": "function"
    },
    {
      "inputs": [
        {
          "internalType": "address",
          "name": "newOwner",
          "type": "address"
        }
      ],
      "name": "transferOwnership",
      "outputs": [],
      "stateMutability": "nonpayable",
      "type": "function"
    },
    {
      "inputs": [
        {
          "internalType": "address",
          "name": "account",
          "type": "address"
        }
      ],
      "name": "unlockedBalanceOf",
      "outputs": [
        {
          "internalType": "uint256",
          "name": "",
          "type": "uint256"
        }
      ],
      "stateMutability": "view",
      "type": "function"
    },
    {
      "inputs": [],
      "name": "unlockedStakes",
      "outputs": [
        {
          "internalType": "bool",
          "name": "",
          "type": "bool"
        }
      ],
      "stateMutability": "view",
      "type": "function"
    },
    {
      "inputs": [
        {
          "internalType": "address",
          "name": "",
          "type": "address"
        }
      ],
      "name": "userRewardPerTokenPaid_REWARD_PRECISION",
      "outputs": [
        {
          "internalType": "uint256",
          "name": "",
          "type": "uint256"
        }
      ],
      "stateMutability": "view",
      "type": "function"
    },
    {
      "inputs": [
        {
          "internalType": "uint256",
          "name": "amount",
          "type": "uint256"
        }
      ],
      "name": "withdraw",
      "outputs": [],
      "stateMutability": "nonpayable",
      "type": "function"
    },
    {
      "inputs": [
        {
          "internalType": "bytes32",
          "name": "kek_id",
          "type": "bytes32"
        }
      ],
      "name": "withdrawLocked",
      "outputs": [],
      "stateMutability": "nonpayable",
      "type": "function"
    }
  ],
  "transactionHash": "0xa57378f33251bb24df88ef5b98cb1690d3f690494d3ac529ce5db80cc64f7869",
  "args": [],
  "solcInputHash": "7fc5f7df362effb291697cb25232d91e",
  "bytecode": "0x608060405234801561001057600080fd5b50612c9a806100206000396000f3fe608060405234801561001057600080fd5b50600436106102525760003560e01c806370a0823111610146578063a694fc3a116100c3578063cd3daf9d11610087578063cd3daf9d14610474578063d96eb3f41461047c578063ebe2b12b14610484578063f2fde38b1461048c578063fecf97341461049f578063fee2eae6146104b257610252565b8063a694fc3a14610436578063bf1b71a514610449578063c11f534414610451578063c8f33c9114610459578063cc1a378f1461046157610252565b806384955c881161010a57806384955c88146103ed57806387bf5b66146104005780638980f11f146104135780638da5cb5b1461042657806399a9cfc61461042e57610252565b806370a08231146103a2578063715018a6146103b557806372f702f3146103bd57806380060d49146103d257806380faa57d146103e557610252565b80632e1a7d4d116101d45780633d6aa5e1116101985780633d6aa5e11461035957806351e3fc171461036157806359355736146103745780635bb2a8f6146103875780635c975abb1461039a57610252565b80632e1a7d4d1461030e57806331ca208c14610321578063399f5467146103415780633a88e1d0146103495780633d18b9121461035157610252565b806318160ddd1161021b57806318160ddd146102c35780631beabcd2146102cb5780631c1f78eb146102de5780631e090f01146102e6578063262696d41461030657610252565b80628cc262146102575780630700037d146102805780630dda72991461029357806313af40351461029b57806317b18c89146102b0575b600080fd5b61026a610265366004612446565b6104ba565b6040516102779190612c0f565b60405180910390f35b61026a61028e366004612446565b610552565b61026a610564565b6102ae6102a9366004612446565b61056b565b005b6102ae6102be366004612566565b6105b8565b61026a61091f565b61026a6102d9366004612446565b610925565b61026a610940565b6102f96102f4366004612446565b6109dd565b604051610277919061263f565b61026a610a84565b6102ae61031c366004612536565b610a8a565b61033461032f366004612446565b610c35565b60405161027791906126ad565b610334610c4a565b61026a610c53565b6102ae610c5a565b61026a610f5f565b6102ae61036f366004612536565b610f6b565b61026a610382366004612446565b611296565b6102ae6103953660046124b9565b6112b1565b610334611314565b61026a6103b0366004612446565b61131d565b6102ae611350565b6103c56113d9565b60405161027791906125ee565b61026a6103e0366004612536565b6113e8565b61026a611462565b61026a6103fb366004612446565b611470565b61026a61040e366004612446565b61148b565b6102ae6104213660046124f0565b61149d565b6103c56115b5565b61026a6115c4565b6102ae610444366004612536565b6115ca565b6103346117b8565b61026a6117c1565b61026a611846565b6102ae61046f366004612536565b61184c565b61026a6118f0565b6102ae6119c7565b61026a611a13565b6102ae61049a366004612446565b611a19565b6102ae6104ad366004612461565b611ada565b6102ae611bf5565b6001600160a01b038116600090815260a2602090815260408083205460a190925282205461054a919061053e90670de0b6b3a7640000906105329061050d906105016118f0565b9063ffffffff611c0916565b6001600160a01b038816600090815260a760205260409020549063ffffffff611c5416565b9063ffffffff611c8e16565b9063ffffffff611cd016565b90505b919050565b60a26020526000908152604090205481565b60a4545b90565b6105736115b5565b6001600160a01b0316336001600160a01b0316146105ac5760405162461bcd60e51b81526004016105a39061290e565b60405180910390fd5b6105b581611a19565b50565b600260985414156105db5760405162461bcd60e51b81526004016105a390612bd8565b60026098556105e8611314565b156106055760405162461bcd60e51b81526004016105a39061299a565b33609c5442111561061d57610618611cf5565b610634565b6106256118f0565b60a055610630611462565b609f555b6001600160a01b038116156106785761064c816104ba565b6001600160a01b038216600090815260a2602090815260408083209390935560a05460a1909152919020555b600083116106985760405162461bcd60e51b81526004016105a390612878565b81600a14156106c857609d5460ff166106c35760405162461bcd60e51b81526004016105a39061293d565b610714565b81600114806106d75750816002145b806106e25750816003145b806106ed5750816005145b806106f8575081600a145b6107145760405162461bcd60e51b81526004016105a3906127a5565b33600090815260a9602052604090205460ff16156107445760405162461bcd60e51b81526004016105a3906126eb565b6301e1338082026000610756846113e8565b90506000610771620f4240610532888563ffffffff611c5416565b33600081815260a8602052604090819020815160a081019092529293509081906107a090428b60c085016125a8565b6040516020818303038152906040528051906020012081526020014281526020018881526020016107da8642611cd090919063ffffffff16565b815260209081018590528254600181810185556000948552938290208351600590920201908155908201519281019290925560408101516002830155606081015160038301556080015160049091015560a35461083d908763ffffffff611cd016565b60a35560a454610853908263ffffffff611cd016565b60a45533600090815260a66020526040902054610876908763ffffffff611cd016565b33600090815260a6602090815260408083209390935560a7905220546108a2908263ffffffff611cd016565b33600081815260a760205260409020919091556099546108cf916001600160a01b03909116903089611dbc565b336001600160a01b03167fa5ae833d0bb1dcd632d98a8b70973e8516812898e19bf27b70071ebc8dc52c01878560405161090a929190612c18565b60405180910390a25050600160985550505050565b60a35490565b6001600160a01b0316600090815260a7602052604090205490565b609e54609a5460405163964efe8160e01b81526000926109d89290916001600160a01b039091169063964efe819061097c9030906004016125ee565b60206040518083038186803b15801561099457600080fd5b505afa1580156109a8573d6000803e3d6000fd5b505050506040513d601f19601f820116820180604052508101906109cc919061254e565b9063ffffffff611c5416565b905090565b6001600160a01b038116600090815260a860209081526040808320805482518185028101850190935280835260609492939192909184015b82821015610a7957838290600052602060002090600502016040518060a00160405290816000820154815260200160018201548152602001600282015481526020016003820154815260200160048201548152505081526020019060010190610a15565b505050509050919050565b60a05481565b60026098541415610aad5760405162461bcd60e51b81526004016105a390612bd8565b6002609855609c543390421115610acb57610ac6611cf5565b610ae2565b610ad36118f0565b60a055610ade611462565b609f555b6001600160a01b03811615610b2657610afa816104ba565b6001600160a01b038216600090815260a2602090815260408083209390935560a05460a1909152919020555b60008211610b465760405162461bcd60e51b81526004016105a390612a12565b33600090815260a56020526040902054610b66908363ffffffff611c0916565b33600090815260a5602090815260408083209390935560a790522054610b92908363ffffffff611c0916565b33600090815260a7602052604090205560a354610bb5908363ffffffff611c0916565b60a35560a454610bcb908363ffffffff611c0916565b60a455609954610beb906001600160a01b0316338463ffffffff611ead16565b336001600160a01b03167f7084f5476618d8e60b11ef0d7d3f06914655adb8793e28ff7f018d4c76d505d583604051610c249190612c0f565b60405180910390a250506001609855565b60a96020526000908152604090205460ff1681565b60aa5460ff1681565b620f424081565b60026098541415610c7d5760405162461bcd60e51b81526004016105a390612bd8565b6002609855609c543390421115610c9b57610c96611cf5565b610cb2565b610ca36118f0565b60a055610cae611462565b609f555b6001600160a01b03811615610cf657610cca816104ba565b6001600160a01b038216600090815260a2602090815260408083209390935560a05460a1909152919020555b33600090815260a260205260409020548015610f565733600090815260a260209081526040808320839055609a5481516328d48e9f60e01b815291516001600160a01b03909116926328d48e9f9260048082019391829003018186803b158015610d5f57600080fd5b505afa158015610d73573d6000803e3d6000fd5b505050506040513d601f19601f82011682018060405250810190610d97919061254e565b609a54609b546040516326ed0e9160e01b81529293506064848103860204926001600160a01b03928316926326ed0e9192610ddb9291169085880390600401612602565b600060405180830381600087803b158015610df557600080fd5b505af1158015610e09573d6000803e3d6000fd5b5050609b5460405163b84c8ce560e01b81526001600160a01b03909116925063b84c8ce59150610e4190339085880390600401612602565b600060405180830381600087803b158015610e5b57600080fd5b505af1158015610e6f573d6000803e3d6000fd5b5050609a5460405163413918c960e11b81526001600160a01b03909116925063827231929150610ea59033908590600401612602565b600060405180830381600087803b158015610ebf57600080fd5b505af1158015610ed3573d6000803e3d6000fd5b50505050336001600160a01b03167fe2403640ba68fed3a2f88b7557551d1993f84b99bb10ff833f0cf8db0c5e048682604051610f109190612c0f565b60405180910390a27f9fbc695eed6a70ae78a7532506abdb142ee788cd93f76ef3b7122561422f636733828503604051610f4b929190612602565b60405180910390a150505b50506001609855565b670de0b6b3a764000081565b60026098541415610f8e5760405162461bcd60e51b81526004016105a390612bd8565b6002609855609c543390421115610fac57610fa7611cf5565b610fc3565b610fb46118f0565b60a055610fbf611462565b609f555b6001600160a01b0381161561100757610fdb816104ba565b6001600160a01b038216600090815260a2602090815260408083209390935560a05460a1909152919020555b61100f6123fd565b600060408201819052805b33600090815260a860205260409020548110156110dd5733600090815260a86020526040902080548290811061104c57fe5b9060005260206000209060050201600001548514156110d55733600090815260a86020526040902080548290811061108057fe5b90600052602060002090600502016040518060a00160405290816000820154815260200160018201548152602001600282015481526020016003820154815260200160048201548152505092508091506110dd565b60010161101a565b50815184146110fe5760405162461bcd60e51b81526004016105a390612aea565b816060015142101580611118575060aa5460ff1615156001145b6111345760405162461bcd60e51b81526004016105a390612802565b6040820151608083015160009061115b90620f42409061053290859063ffffffff611c5416565b905081156112895733600090815260a66020526040902054611183908363ffffffff611c0916565b33600090815260a6602090815260408083209390935560a7905220546111af908263ffffffff611c0916565b33600090815260a7602052604090205560a3546111d2908363ffffffff611c0916565b60a35560a4546111e8908263ffffffff611c0916565b60a45533600090815260a86020526040902080548490811061120657fe5b6000918252602082206005909102018181556001810182905560028101829055600381018290556004015560995461124e906001600160a01b0316338463ffffffff611ead16565b336001600160a01b03167f1f70bda8ea2447de035db87c33fe8f03f7514d49c394293e5cffdb4c34352cf6838860405161090a929190612c18565b5050600160985550505050565b6001600160a01b0316600090815260a6602052604090205490565b6112b96115b5565b6001600160a01b0316336001600160a01b0316146112e95760405162461bcd60e51b81526004016105a39061290e565b6001600160a01b0391909116600090815260a960205260409020805460ff1916911515919091179055565b60335460ff1690565b6001600160a01b038116600090815260a6602090815260408083205460a590925282205461054a9163ffffffff611cd016565b611358611f08565b6001600160a01b03166113696115b5565b6001600160a01b03161461138f5760405162461bcd60e51b81526004016105a390612a7e565b6065546040516000916001600160a01b0316907f8be0079c531659141344cd1fd0a4f28419497f9722a3daafe3b4186f6b6457e0908390a3606580546001600160a01b0319169055565b6099546001600160a01b031681565b600081600a14156113fe57506302faf08061054d565b816005141561141157506298968061054d565b81600314156114245750622dc6c061054d565b816002141561143757506223994861054d565b816001141561144a575062196fb861054d565b60405162461bcd60e51b81526004016105a390612ab3565b60006109d842609c54611f0c565b6001600160a01b0316600090815260a5602052604090205490565b60a16020526000908152604090205481565b6114a56115b5565b6001600160a01b0316336001600160a01b0316146114d55760405162461bcd60e51b81526004016105a39061290e565b6099546001600160a01b03838116911614156114f057600080fd5b816001600160a01b031663a9059cbb6115076115b5565b836040518363ffffffff1660e01b8152600401611525929190612602565b602060405180830381600087803b15801561153f57600080fd5b505af1158015611553573d6000803e3d6000fd5b505050506040513d601f19601f82011682018060405250810190611577919061251a565b507f8c1256b8896378cd5044f80c202f9772b9d77dc85c8a6eb51967210b09bfaa2882826040516115a9929190612602565b60405180910390a15050565b6065546001600160a01b031690565b609e5481565b600260985414156115ed5760405162461bcd60e51b81526004016105a390612bd8565b60026098556115fa611314565b156116175760405162461bcd60e51b81526004016105a39061299a565b33609c5442111561162f5761162a611cf5565b611646565b6116376118f0565b60a055611642611462565b609f555b6001600160a01b0381161561168a5761165e816104ba565b6001600160a01b038216600090815260a2602090815260408083209390935560a05460a1909152919020555b600082116116aa5760405162461bcd60e51b81526004016105a390612878565b33600090815260a9602052604090205460ff16156116da5760405162461bcd60e51b81526004016105a3906126eb565b60a3546116ed908363ffffffff611cd016565b60a35560a454611703908363ffffffff611cd016565b60a45533600090815260a56020526040902054611726908363ffffffff611cd016565b33600090815260a5602090815260408083209390935560a790522054611752908363ffffffff611cd016565b33600081815260a7602052604090209190915560995461177f916001600160a01b03909116903085611dbc565b336001600160a01b03167f9e71bc8eea02a63969f509818f2dafb9254532904319f9dbda79b67bd34a5f3d83604051610c249190612c0f565b609d5460ff1681565b6099546040805163313ce56760e01b815290516000926001600160a01b03169163313ce567916004808301926020929190829003018186803b15801561180657600080fd5b505afa15801561181a573d6000803e3d6000fd5b505050506040513d601f19601f8201168201806040525081019061183e9190612587565b60ff16905090565b609f5481565b6118546115b5565b6001600160a01b0316336001600160a01b0316146118845760405162461bcd60e51b81526004016105a39061290e565b609c5415806118945750609c5442115b6118b05760405162461bcd60e51b81526004016105a390612722565b609e8190556040517ffb46ca5a5e06d4540d6387b930a7c978bce0db5f449ec6b3f5d07c6e1d44f2d3906118e5908390612c0f565b60405180910390a150565b600060a35460001415611906575060a054610568565b60a454609a5460405163964efe8160e01b81526119c0926119b192909161053291670de0b6b3a7640000916109cc916001600160a01b03169063964efe81906119539030906004016125ee565b60206040518083038186803b15801561196b57600080fd5b505afa15801561197f573d6000803e3d6000fd5b505050506040513d601f19601f820116820180604052508101906119a3919061254e565b6109cc609f54610501611462565b60a0549063ffffffff611cd016565b9050610568565b6119cf6115b5565b6001600160a01b0316336001600160a01b0316146119ff5760405162461bcd60e51b81526004016105a39061290e565b60aa805460ff19811660ff90911615179055565b609c5481565b611a21611f08565b6001600160a01b0316611a326115b5565b6001600160a01b031614611a585760405162461bcd60e51b81526004016105a390612a7e565b6001600160a01b038116611a7e5760405162461bcd60e51b81526004016105a390612832565b6065546040516001600160a01b038084169216907f8be0079c531659141344cd1fd0a4f28419497f9722a3daafe3b4186f6b6457e090600090a3606580546001600160a01b0319166001600160a01b0392909216919091179055565b600054610100900460ff1680611af35750611af3611f22565b80611b01575060005460ff16155b611b1d5760405162461bcd60e51b81526004016105a3906129c4565b600054610100900460ff16158015611b48576000805460ff1961ff0019909116610100171660011790555b611b50611f33565b611b58611fc5565b609980546001600160a01b038088166001600160a01b031992831617909255609a8054878416908316179055609b805492861692909116919091179055426097819055609d805484151560ff199182161790915562093a80609e81905560aa8054909216909155609f829055611bd4919063ffffffff611cd016565b609c5560016098558015611bee576000805461ff00191690555b5050505050565b609c54421115611c0757611c07611cf5565b565b6000611c4b83836040518060400160405280601e81526020017f536166654d6174683a207375627472616374696f6e206f766572666c6f770000815250612043565b90505b92915050565b600082611c6357506000611c4e565b82820282848281611c7057fe5b0414611c4b5760405162461bcd60e51b81526004016105a390612a3d565b6000611c4b83836040518060400160405280601a81526020017f536166654d6174683a206469766973696f6e206279207a65726f00000000000081525061206f565b600082820183811015611c4b5760405162461bcd60e51b81526004016105a3906128a0565b609c544211611d165760405162461bcd60e51b81526004016105a3906128d7565b6000609e54611d30609c5442611c0990919063ffffffff16565b81611d3757fe5b049050611d66611d57609e546109cc600185611cd090919063ffffffff16565b609c549063ffffffff611cd016565b609c55611d716118f0565b60a055611d7c611462565b609f556099546040517f6f2b3b3aaf1881d69a5d40565500f93ea73df36e7b6a29bf48b21479a9237fe9916118e5916001600160a01b03909116906125ee565b60006060856001600160a01b03166323b872dd868686604051602401611de49392919061261b565b6040516020818303038152906040529060e01b6020820180516001600160e01b038381831617835250505050604051611e1d91906125d2565b6000604051808303816000865af19150503d8060008114611e5a576040519150601f19603f3d011682016040523d82523d6000602084013e611e5f565b606091505b5091509150818015611e89575080511580611e89575080806020019051810190611e89919061251a565b611ea55760405162461bcd60e51b81526004016105a390612b94565b505050505050565b611f038363a9059cbb60e01b8484604051602401611ecc929190612602565b60408051601f198184030181529190526020810180516001600160e01b03166001600160e01b0319909316929092179091526120a6565b505050565b3390565b6000818310611f1b5781611c4b565b5090919050565b6000611f2d30612135565b15905090565b600054610100900460ff1680611f4c5750611f4c611f22565b80611f5a575060005460ff16155b611f765760405162461bcd60e51b81526004016105a3906129c4565b600054610100900460ff16158015611fa1576000805460ff1961ff0019909116610100171660011790555b611fa961213b565b611fb16121bc565b80156105b5576000805461ff001916905550565b600054610100900460ff1680611fde5750611fde611f22565b80611fec575060005460ff16155b6120085760405162461bcd60e51b81526004016105a3906129c4565b600054610100900460ff16158015612033576000805460ff1961ff0019909116610100171660011790555b61203b61213b565b611fb1612296565b600081848411156120675760405162461bcd60e51b81526004016105a391906126b8565b505050900390565b600081836120905760405162461bcd60e51b81526004016105a391906126b8565b50600083858161209c57fe5b0495945050505050565b60606120fb826040518060400160405280602081526020017f5361666545524332303a206c6f772d6c6576656c2063616c6c206661696c6564815250856001600160a01b03166123229092919063ffffffff16565b805190915015611f035780806020019051810190612119919061251a565b611f035760405162461bcd60e51b81526004016105a390612b4a565b3b151590565b600054610100900460ff16806121545750612154611f22565b80612162575060005460ff16155b61217e5760405162461bcd60e51b81526004016105a3906129c4565b600054610100900460ff16158015611fb1576000805460ff1961ff00199091166101001716600117905580156105b5576000805461ff001916905550565b600054610100900460ff16806121d557506121d5611f22565b806121e3575060005460ff16155b6121ff5760405162461bcd60e51b81526004016105a3906129c4565b600054610100900460ff1615801561222a576000805460ff1961ff0019909116610100171660011790555b6000612234611f08565b606580546001600160a01b0319166001600160a01b038316908117909155604051919250906000907f8be0079c531659141344cd1fd0a4f28419497f9722a3daafe3b4186f6b6457e0908290a35080156105b5576000805461ff001916905550565b600054610100900460ff16806122af57506122af611f22565b806122bd575060005460ff16155b6122d95760405162461bcd60e51b81526004016105a3906129c4565b600054610100900460ff16158015612304576000805460ff1961ff0019909116610100171660011790555b6033805460ff1916905580156105b5576000805461ff001916905550565b60606123318484600085612339565b949350505050565b606061234485612135565b6123605760405162461bcd60e51b81526004016105a390612b13565b60006060866001600160a01b0316858760405161237d91906125d2565b60006040518083038185875af1925050503d80600081146123ba576040519150601f19603f3d011682016040523d82523d6000602084013e6123bf565b606091505b509150915081156123d35791506123319050565b8051156123e35780518082602001fd5b8360405162461bcd60e51b81526004016105a391906126b8565b6040518060a0016040528060008019168152602001600081526020016000815260200160008152602001600081525090565b80356001600160a01b0381168114611c4e57600080fd5b600060208284031215612457578081fd5b611c4b838361242f565b60008060008060808587031215612476578283fd5b612480868661242f565b935061248f866020870161242f565b925061249e866040870161242f565b915060608501356124ae81612c56565b939692955090935050565b600080604083850312156124cb578182fd5b6124d5848461242f565b915060208301356124e581612c56565b809150509250929050565b60008060408385031215612502578182fd5b61250c848461242f565b946020939093013593505050565b60006020828403121561252b578081fd5b8151611c4b81612c56565b600060208284031215612547578081fd5b5035919050565b60006020828403121561255f578081fd5b5051919050565b60008060408385031215612578578182fd5b50508035926020909101359150565b600060208284031215612598578081fd5b815160ff81168114611c4b578182fd5b60609390931b6bffffffffffffffffffffffff191683526014830191909152603482015260540190565b600082516125e4818460208701612c26565b9190910192915050565b6001600160a01b0391909116815260200190565b6001600160a01b03929092168252602082015260400190565b6001600160a01b039384168152919092166020820152604081019190915260600190565b602080825282518282018190526000919060409081850190868401855b828110156126a05781518051855286810151878601528581015186860152606080820151908601526080908101519085015260a0909301929085019060010161265c565b5091979650505050505050565b901515815260200190565b60006020825282518060208401526126d7816040850160208701612c26565b601f01601f19169190910160400192915050565b6020808252601b908201527f6164647265737320686173206265656e20677265796c69737465640000000000604082015260600190565b60208082526058908201527f50726576696f7573207265776172647320706572696f64206d7573742062652060408201527f636f6d706c657465206265666f7265206368616e67696e67207468652064757260608201527f6174696f6e20666f7220746865206e657720706572696f640000000000000000608082015260a00190565b6020808252603e908201527f596f752063616e206f6e6c79207374616b65206c6f636b6564206c697175696460408201527f69747920666f7220312c20322c20332c2035206f722031302079656172730000606082015260800190565b6020808252601690820152755374616b65206973207374696c6c206c6f636b65642160501b604082015260600190565b60208082526026908201527f4f776e61626c653a206e6577206f776e657220697320746865207a65726f206160408201526564647265737360d01b606082015260800190565b6020808252600e908201526d043616e6e6f74207374616b6520360941b604082015260600190565b6020808252601b908201527f536166654d6174683a206164646974696f6e206f766572666c6f770000000000604082015260600190565b6020808252601b908201527f506572696f6420686173206e6f74206578706972656420796574210000000000604082015260600190565b6020808252601590820152742cb7ba9030b932903737ba103a34329037bbb732b960591b604082015260600190565b6020808252603e908201527f596f752063616e206f6e6c79207374616b65206c6f636b6564206c697175696460408201527f69747920313020796561727320666f72207472756520424420706f6f6c730000606082015260800190565b60208082526010908201526f14185d5cd8589b194e881c185d5cd95960821b604082015260600190565b6020808252602e908201527f496e697469616c697a61626c653a20636f6e747261637420697320616c72656160408201526d191e481a5b9a5d1a585b1a5e995960921b606082015260800190565b602080825260119082015270043616e6e6f74207769746864726177203607c1b604082015260600190565b60208082526021908201527f536166654d6174683a206d756c7469706c69636174696f6e206f766572666c6f6040820152607760f81b606082015260800190565b6020808252818101527f4f776e61626c653a2063616c6c6572206973206e6f7420746865206f776e6572604082015260600190565b6020808252601e908201527f4e6f7420737570706f72746564207374616b696e67206475726174696f6e0000604082015260600190565b6020808252600f908201526e14dd185ad9481b9bdd08199bdd5b99608a1b604082015260600190565b6020808252601d908201527f416464726573733a2063616c6c20746f206e6f6e2d636f6e7472616374000000604082015260600190565b6020808252602a908201527f5361666545524332303a204552433230206f7065726174696f6e20646964206e6040820152691bdd081cdd58d8d9595960b21b606082015260800190565b60208082526024908201527f5472616e7366657248656c7065723a205452414e534645525f46524f4d5f46416040820152631253115160e21b606082015260800190565b6020808252601f908201527f5265656e7472616e637947756172643a207265656e7472616e742063616c6c00604082015260600190565b90815260200190565b918252602082015260400190565b60005b83811015612c41578181015183820152602001612c29565b83811115612c50576000848401525b50505050565b80151581146105b557600080fdfea26469706673582212209315bf948f47320181702c49d5c1205a3b4a62cf6166c48a0d16d6f7ca80e64164736f6c634300060b0033",
  "devdoc": {
    "kind": "dev",
    "methods": {
      "owner()": {
        "details": "Returns the address of the current owner."
      },
      "paused()": {
        "details": "Returns true if the contract is paused, and false otherwise."
      },
      "renounceOwnership()": {
        "details": "Leaves the contract without owner. It will not be possible to call `onlyOwner` functions anymore. Can only be called by the current owner. NOTE: Renouncing ownership will leave the contract without an owner, thereby removing any functionality that is only available to the owner."
      },
      "transferOwnership(address)": {
        "details": "Transfers ownership of the contract to a new account (`newOwner`). Can only be called by the current owner."
      }
    },
    "version": 1
  },
  "userdoc": {
    "kind": "user",
    "methods": {},
    "version": 1
  },
  "storageLayout": {
    "storage": [
      {
        "astId": 492,
        "contract": "contracts/Staking/StakingRewards.sol:StakingRewards",
        "label": "_initialized",
        "offset": 0,
        "slot": "0",
        "type": "t_bool"
      },
      {
        "astId": 495,
        "contract": "contracts/Staking/StakingRewards.sol:StakingRewards",
        "label": "_initializing",
        "offset": 1,
        "slot": "0",
        "type": "t_bool"
      },
      {
        "astId": 1447,
        "contract": "contracts/Staking/StakingRewards.sol:StakingRewards",
        "label": "__gap",
        "offset": 0,
        "slot": "1",
        "type": "t_array(t_uint256)50_storage"
      },
      {
        "astId": 1469,
        "contract": "contracts/Staking/StakingRewards.sol:StakingRewards",
        "label": "_paused",
        "offset": 0,
        "slot": "51",
        "type": "t_bool"
      },
      {
        "astId": 1560,
        "contract": "contracts/Staking/StakingRewards.sol:StakingRewards",
        "label": "__gap",
        "offset": 0,
        "slot": "52",
        "type": "t_array(t_uint256)49_storage"
      },
      {
        "astId": 10,
        "contract": "contracts/Staking/StakingRewards.sol:StakingRewards",
        "label": "_owner",
        "offset": 0,
        "slot": "101",
        "type": "t_address"
      },
      {
        "astId": 129,
        "contract": "contracts/Staking/StakingRewards.sol:StakingRewards",
        "label": "__gap",
        "offset": 0,
        "slot": "102",
        "type": "t_array(t_uint256)49_storage"
      },
      {
        "astId": 8533,
        "contract": "contracts/Staking/StakingRewards.sol:StakingRewards",
        "label": "DeploymentTimestamp",
        "offset": 0,
        "slot": "151",
        "type": "t_uint256"
      },
      {
        "astId": 8541,
        "contract": "contracts/Staking/StakingRewards.sol:StakingRewards",
        "label": "_reentry_guard_status",
        "offset": 0,
        "slot": "152",
        "type": "t_uint256"
      },
      {
        "astId": 8543,
        "contract": "contracts/Staking/StakingRewards.sol:StakingRewards",
        "label": "stakingToken",
        "offset": 0,
        "slot": "153",
        "type": "t_contract(ERC20)5857"
      },
      {
        "astId": 8545,
        "contract": "contracts/Staking/StakingRewards.sol:StakingRewards",
        "label": "stakingRewardsDistribution",
        "offset": 0,
        "slot": "154",
        "type": "t_contract(StakingRewardsDistribution)10320"
      },
      {
        "astId": 8547,
        "contract": "contracts/Staking/StakingRewards.sol:StakingRewards",
        "label": "vesting",
        "offset": 0,
        "slot": "155",
        "type": "t_contract(Vesting)10652"
      },
      {
        "astId": 8549,
        "contract": "contracts/Staking/StakingRewards.sol:StakingRewards",
        "label": "periodFinish",
        "offset": 0,
        "slot": "156",
        "type": "t_uint256"
      },
      {
        "astId": 8551,
        "contract": "contracts/Staking/StakingRewards.sol:StakingRewards",
        "label": "isTrueBdPool",
        "offset": 0,
        "slot": "157",
        "type": "t_bool"
      },
      {
        "astId": 8553,
        "contract": "contracts/Staking/StakingRewards.sol:StakingRewards",
        "label": "rewardsDurationSeconds",
        "offset": 0,
        "slot": "158",
        "type": "t_uint256"
      },
      {
        "astId": 8555,
        "contract": "contracts/Staking/StakingRewards.sol:StakingRewards",
        "label": "lastUpdateTime",
        "offset": 0,
        "slot": "159",
        "type": "t_uint256"
      },
      {
        "astId": 8557,
        "contract": "contracts/Staking/StakingRewards.sol:StakingRewards",
        "label": "rewardPerTokenStored_REWARD_PRECISION",
        "offset": 0,
        "slot": "160",
        "type": "t_uint256"
      },
      {
        "astId": 8561,
        "contract": "contracts/Staking/StakingRewards.sol:StakingRewards",
        "label": "userRewardPerTokenPaid_REWARD_PRECISION",
        "offset": 0,
        "slot": "161",
        "type": "t_mapping(t_address,t_uint256)"
      },
      {
        "astId": 8565,
        "contract": "contracts/Staking/StakingRewards.sol:StakingRewards",
        "label": "rewards",
        "offset": 0,
        "slot": "162",
        "type": "t_mapping(t_address,t_uint256)"
      },
      {
        "astId": 8567,
        "contract": "contracts/Staking/StakingRewards.sol:StakingRewards",
        "label": "_staking_token_supply",
        "offset": 0,
        "slot": "163",
        "type": "t_uint256"
      },
      {
        "astId": 8569,
        "contract": "contracts/Staking/StakingRewards.sol:StakingRewards",
        "label": "_staking_token_boosted_supply",
        "offset": 0,
        "slot": "164",
        "type": "t_uint256"
      },
      {
        "astId": 8573,
        "contract": "contracts/Staking/StakingRewards.sol:StakingRewards",
        "label": "_unlocked_balances",
        "offset": 0,
        "slot": "165",
        "type": "t_mapping(t_address,t_uint256)"
      },
      {
        "astId": 8577,
        "contract": "contracts/Staking/StakingRewards.sol:StakingRewards",
        "label": "_locked_balances",
        "offset": 0,
        "slot": "166",
        "type": "t_mapping(t_address,t_uint256)"
      },
      {
        "astId": 8581,
        "contract": "contracts/Staking/StakingRewards.sol:StakingRewards",
        "label": "_boosted_balances",
        "offset": 0,
        "slot": "167",
        "type": "t_mapping(t_address,t_uint256)"
      },
      {
        "astId": 8586,
        "contract": "contracts/Staking/StakingRewards.sol:StakingRewards",
        "label": "lockedStakes",
        "offset": 0,
        "slot": "168",
        "type": "t_mapping(t_address,t_array(t_struct(LockedStake)8603_storage)dyn_storage)"
      },
      {
        "astId": 8590,
        "contract": "contracts/Staking/StakingRewards.sol:StakingRewards",
        "label": "greylist",
        "offset": 0,
        "slot": "169",
        "type": "t_mapping(t_address,t_bool)"
      },
      {
        "astId": 8592,
        "contract": "contracts/Staking/StakingRewards.sol:StakingRewards",
        "label": "unlockedStakes",
        "offset": 0,
        "slot": "170",
        "type": "t_bool"
      }
    ],
    "types": {
      "t_address": {
        "encoding": "inplace",
        "label": "address",
        "numberOfBytes": "20"
      },
      "t_array(t_struct(LockedStake)8603_storage)dyn_storage": {
        "base": "t_struct(LockedStake)8603_storage",
        "encoding": "dynamic_array",
        "label": "struct StakingRewards.LockedStake[]",
        "numberOfBytes": "32"
      },
      "t_array(t_uint256)49_storage": {
        "base": "t_uint256",
        "encoding": "inplace",
        "label": "uint256[49]",
        "numberOfBytes": "1568"
      },
      "t_array(t_uint256)50_storage": {
        "base": "t_uint256",
        "encoding": "inplace",
        "label": "uint256[50]",
        "numberOfBytes": "1600"
      },
      "t_bool": {
        "encoding": "inplace",
        "label": "bool",
        "numberOfBytes": "1"
      },
      "t_bytes32": {
        "encoding": "inplace",
        "label": "bytes32",
        "numberOfBytes": "32"
      },
      "t_contract(ERC20)5857": {
        "encoding": "inplace",
        "label": "contract ERC20",
        "numberOfBytes": "20"
      },
      "t_contract(StakingRewardsDistribution)10320": {
        "encoding": "inplace",
        "label": "contract StakingRewardsDistribution",
        "numberOfBytes": "20"
      },
      "t_contract(Vesting)10652": {
        "encoding": "inplace",
        "label": "contract Vesting",
        "numberOfBytes": "20"
      },
      "t_mapping(t_address,t_array(t_struct(LockedStake)8603_storage)dyn_storage)": {
        "encoding": "mapping",
        "key": "t_address",
        "label": "mapping(address => struct StakingRewards.LockedStake[])",
        "numberOfBytes": "32",
        "value": "t_array(t_struct(LockedStake)8603_storage)dyn_storage"
      },
      "t_mapping(t_address,t_bool)": {
        "encoding": "mapping",
        "key": "t_address",
        "label": "mapping(address => bool)",
        "numberOfBytes": "32",
        "value": "t_bool"
      },
      "t_mapping(t_address,t_uint256)": {
        "encoding": "mapping",
        "key": "t_address",
        "label": "mapping(address => uint256)",
        "numberOfBytes": "32",
        "value": "t_uint256"
      },
      "t_struct(LockedStake)8603_storage": {
        "encoding": "inplace",
        "label": "struct StakingRewards.LockedStake",
        "members": [
          {
            "astId": 8594,
            "contract": "contracts/Staking/StakingRewards.sol:StakingRewards",
            "label": "kek_id",
            "offset": 0,
            "slot": "0",
            "type": "t_bytes32"
          },
          {
            "astId": 8596,
            "contract": "contracts/Staking/StakingRewards.sol:StakingRewards",
            "label": "start_timestamp",
            "offset": 0,
            "slot": "1",
            "type": "t_uint256"
          },
          {
            "astId": 8598,
            "contract": "contracts/Staking/StakingRewards.sol:StakingRewards",
            "label": "amount",
            "offset": 0,
            "slot": "2",
            "type": "t_uint256"
          },
          {
            "astId": 8600,
            "contract": "contracts/Staking/StakingRewards.sol:StakingRewards",
            "label": "ending_timestamp",
            "offset": 0,
            "slot": "3",
            "type": "t_uint256"
          },
          {
            "astId": 8602,
            "contract": "contracts/Staking/StakingRewards.sol:StakingRewards",
            "label": "multiplier_LOCK_MULTIPLIER_PRECISION",
            "offset": 0,
            "slot": "4",
            "type": "t_uint256"
          }
        ],
        "numberOfBytes": "160"
      },
      "t_uint256": {
        "encoding": "inplace",
        "label": "uint256",
        "numberOfBytes": "32"
      }
    }
  }
}