{
  "address": "0xdD7E5b8605D6C3cAB75E23cbf9DE9C8087Ca5759",
  "abi": [
    {
      "anonymous": false,
      "inputs": [
        {
          "indexed": true,
          "internalType": "address",
          "name": "previousOwner",
          "type": "address"
        },
        {
          "indexed": true,
          "internalType": "address",
          "name": "newOwner",
          "type": "address"
        }
      ],
      "name": "OwnershipTransferred",
      "type": "event"
    },
    {
      "anonymous": false,
      "inputs": [
        {
          "indexed": true,
          "internalType": "address[]",
          "name": "stakingRewardsAddresses",
          "type": "address[]"
        },
        {
          "indexed": true,
          "internalType": "uint256[]",
          "name": "stakingRewardsWeights",
          "type": "uint256[]"
        }
      ],
      "name": "PoolsRegistered",
      "type": "event"
    },
    {
      "anonymous": false,
      "inputs": [],
      "name": "RewardsWeightsReset",
      "type": "event"
    },
    {
      "inputs": [],
      "name": "BDX_MINTING_SCHEDULE_PRECISON",
      "outputs": [
        {
          "internalType": "uint256",
          "name": "",
          "type": "uint256"
        }
      ],
      "stateMutability": "view",
      "type": "function"
    },
    {
      "inputs": [],
      "name": "BDX_MINTING_SCHEDULE_YEAR_1",
      "outputs": [
        {
          "internalType": "uint256",
          "name": "",
          "type": "uint256"
        }
      ],
      "stateMutability": "view",
      "type": "function"
    },
    {
      "inputs": [],
      "name": "BDX_MINTING_SCHEDULE_YEAR_2",
      "outputs": [
        {
          "internalType": "uint256",
          "name": "",
          "type": "uint256"
        }
      ],
      "stateMutability": "view",
      "type": "function"
    },
    {
      "inputs": [],
      "name": "BDX_MINTING_SCHEDULE_YEAR_3",
      "outputs": [
        {
          "internalType": "uint256",
          "name": "",
          "type": "uint256"
        }
      ],
      "stateMutability": "view",
      "type": "function"
    },
    {
      "inputs": [],
      "name": "BDX_MINTING_SCHEDULE_YEAR_4",
      "outputs": [
        {
          "internalType": "uint256",
          "name": "",
          "type": "uint256"
        }
      ],
      "stateMutability": "view",
      "type": "function"
    },
    {
      "inputs": [],
      "name": "BDX_MINTING_SCHEDULE_YEAR_5",
      "outputs": [
        {
          "internalType": "uint256",
          "name": "",
          "type": "uint256"
        }
      ],
      "stateMutability": "view",
      "type": "function"
    },
    {
      "inputs": [],
      "name": "EndOfYear_1",
      "outputs": [
        {
          "internalType": "uint256",
          "name": "",
          "type": "uint256"
        }
      ],
      "stateMutability": "view",
      "type": "function"
    },
    {
      "inputs": [],
      "name": "EndOfYear_2",
      "outputs": [
        {
          "internalType": "uint256",
          "name": "",
          "type": "uint256"
        }
      ],
      "stateMutability": "view",
      "type": "function"
    },
    {
      "inputs": [],
      "name": "EndOfYear_3",
      "outputs": [
        {
          "internalType": "uint256",
          "name": "",
          "type": "uint256"
        }
      ],
      "stateMutability": "view",
      "type": "function"
    },
    {
      "inputs": [],
      "name": "EndOfYear_4",
      "outputs": [
        {
          "internalType": "uint256",
          "name": "",
          "type": "uint256"
        }
      ],
      "stateMutability": "view",
      "type": "function"
    },
    {
      "inputs": [],
      "name": "EndOfYear_5",
      "outputs": [
        {
          "internalType": "uint256",
          "name": "",
          "type": "uint256"
        }
      ],
      "stateMutability": "view",
      "type": "function"
    },
    {
      "inputs": [],
      "name": "TOTAL_BDX_SUPPLY",
      "outputs": [
        {
          "internalType": "uint256",
          "name": "",
          "type": "uint256"
        }
      ],
      "stateMutability": "view",
      "type": "function"
    },
    {
      "inputs": [
        {
          "internalType": "address",
          "name": "spenderAddress",
          "type": "address"
        },
        {
          "internalType": "uint256",
          "name": "amountErc20",
          "type": "uint256"
        }
      ],
      "name": "approveRewardTransferTo",
      "outputs": [],
      "stateMutability": "nonpayable",
      "type": "function"
    },
    {
      "inputs": [
        {
          "internalType": "address",
          "name": "_stakingRewardsAddress",
          "type": "address"
        }
      ],
      "name": "getRewardRatePerSecond",
      "outputs": [
        {
          "internalType": "uint256",
          "name": "",
          "type": "uint256"
        }
      ],
      "stateMutability": "view",
      "type": "function"
    },
    {
      "inputs": [
        {
          "internalType": "address",
          "name": "_rewardsToken",
          "type": "address"
        },
        {
          "internalType": "uint256",
          "name": "_vestingRewardRatio_percent",
          "type": "uint256"
        }
      ],
      "name": "initialize",
      "outputs": [],
      "stateMutability": "nonpayable",
      "type": "function"
    },
    {
      "inputs": [],
      "name": "owner",
      "outputs": [
        {
          "internalType": "address",
          "name": "",
          "type": "address"
        }
      ],
      "stateMutability": "view",
      "type": "function"
    },
    {
      "inputs": [
        {
          "internalType": "address[]",
          "name": "_stakingRewardsAddresses",
          "type": "address[]"
        },
        {
          "internalType": "uint256[]",
          "name": "_stakingRewardsWeights",
          "type": "uint256[]"
        }
      ],
      "name": "registerPools",
      "outputs": [],
      "stateMutability": "nonpayable",
      "type": "function"
    },
    {
      "inputs": [],
      "name": "renounceOwnership",
      "outputs": [],
      "stateMutability": "nonpayable",
      "type": "function"
    },
    {
      "inputs": [],
      "name": "resetRewardsWeights",
      "outputs": [],
      "stateMutability": "nonpayable",
      "type": "function"
    },
    {
      "inputs": [
        {
          "internalType": "uint256",
          "name": "_vestingRewardRatio",
          "type": "uint256"
        }
      ],
      "name": "setVestingRewardRatio",
      "outputs": [],
      "stateMutability": "nonpayable",
      "type": "function"
    },
    {
      "inputs": [
        {
          "internalType": "uint256",
          "name": "",
          "type": "uint256"
        }
      ],
      "name": "stakingRewardsAddresses",
      "outputs": [
        {
          "internalType": "address",
          "name": "",
          "type": "address"
        }
      ],
      "stateMutability": "view",
      "type": "function"
    },
    {
      "inputs": [
        {
          "internalType": "address",
          "name": "",
          "type": "address"
        }
      ],
      "name": "stakingRewardsWeights",
      "outputs": [
        {
          "internalType": "uint256",
          "name": "",
          "type": "uint256"
        }
      ],
      "stateMutability": "view",
      "type": "function"
    },
    {
      "inputs": [],
      "name": "stakingRewardsWeightsTotal",
      "outputs": [
        {
          "internalType": "uint256",
          "name": "",
          "type": "uint256"
        }
      ],
      "stateMutability": "view",
      "type": "function"
    },
    {
      "inputs": [
        {
          "internalType": "address",
          "name": "newOwner",
          "type": "address"
        }
      ],
      "name": "transferOwnership",
      "outputs": [],
      "stateMutability": "nonpayable",
      "type": "function"
    },
    {
      "inputs": [
        {
          "internalType": "address",
          "name": "_recepient",
          "type": "address"
        },
        {
          "internalType": "uint256",
          "name": "amountErc20",
          "type": "uint256"
        }
      ],
      "name": "transferRewards",
      "outputs": [],
      "stateMutability": "nonpayable",
      "type": "function"
    },
    {
      "inputs": [],
      "name": "vestingRewardRatio_percent",
      "outputs": [
        {
          "internalType": "uint256",
          "name": "",
          "type": "uint256"
        }
      ],
      "stateMutability": "view",
      "type": "function"
    }
  ],
  "transactionHash": "0x0c83ed969a98872b0c208f2a70ffaf16a10af4024bf4f2c9e06b95bd244cbe1c",
  "args": [],
  "solcInputHash": "7fc5f7df362effb291697cb25232d91e",
  "bytecode": "0x608060405234801561001057600080fd5b50611516806100206000396000f3fe608060405234801561001057600080fd5b506004361061018e5760003560e01c8063964efe81116100de578063c2f6215011610097578063d101a80d11610071578063d101a80d14610345578063e363d7601461034d578063f2ae870a14610355578063f2fde38b146104175761018e565b8063c2f6215014610309578063cd6dc68714610311578063cde076bd1461033d5761018e565b8063964efe81146102a65780639c4dd2b3146102cc578063aa200951146102d4578063ad98f045146102dc578063b3e90f18146102e4578063b805df71146103015761018e565b8063715018a61161014b57806382d8b3e01161012557806382d8b3e01461024c5780638da5cb5b146102545780638e99d10b1461027857806391dfa22b146102805761018e565b8063715018a61461021057806377d75d031461021857806382723192146102205761018e565b8063015ef47b1461019357806326ed0e91146101ad57806328d48e9f146101db5780633b0ade12146101e35780633b684c72146102005780635d03fae614610208575b600080fd5b61019b61043d565b60408051918252519081900360200190f35b6101d9600480360360408110156101c357600080fd5b506001600160a01b038135169060200135610443565b005b61019b610514565b6101d9600480360360208110156101f957600080fd5b503561051a565b61019b6105c4565b6101d96105ca565b6101d96106bb565b61019b610779565b6101d96004803603604081101561023657600080fd5b506001600160a01b03813516906020013561077f565b61019b6107e5565b61025c6107ed565b604080516001600160a01b039092168252519081900360200190f35b61019b6107fd565b61019b6004803603602081101561029657600080fd5b50356001600160a01b0316610803565b61019b600480360360208110156102bc57600080fd5b50356001600160a01b0316610815565b61019b6108d7565b61019b6108dd565b61019b6108e3565b61025c600480360360208110156102fa57600080fd5b50356108e9565b61019b610910565b61019b610916565b6101d96004803603604081101561032757600080fd5b506001600160a01b03813516906020013561091c565b61019b610ae6565b61019b610aec565b61019b610af2565b6101d96004803603604081101561036b57600080fd5b81019060208101813564010000000081111561038657600080fd5b82018360208201111561039857600080fd5b803590602001918460208302840111640100000000831117156103ba57600080fd5b9193909290916020810190356401000000008111156103d857600080fd5b8201836020820111156103ea57600080fd5b8035906020019184602083028401116401000000008311171561040c57600080fd5b509092509050610af8565b6101d96004803603602081101561042d57600080fd5b50356001600160a01b0316610d71565b60665481565b3360009081526071602052604090205461048e5760405162461bcd60e51b81526004018080602001828103825260318152602001806114b06031913960400191505060405180910390fd5b6070546040805163095ea7b360e01b81526001600160a01b038581166004830152602482018590529151919092169163095ea7b39160448083019260209291908290030181600087803b1580156104e457600080fd5b505af11580156104f8573d6000803e3d6000fd5b505050506040513d602081101561050e57600080fd5b50505050565b606f5481565b6105226107ed565b6001600160a01b0316336001600160a01b03161461057f576040805162461bcd60e51b81526020600482015260156024820152742cb7ba9030b932903737ba103a34329037bbb732b960591b604482015290519081900360640190fd5b60648111156105bf5760405162461bcd60e51b81526004018080602001828103825260318152602001806113fa6031913960400191505060405180910390fd5b606f55565b606b5481565b6105d26107ed565b6001600160a01b0316336001600160a01b03161461062f576040805162461bcd60e51b81526020600482015260156024820152742cb7ba9030b932903737ba103a34329037bbb732b960591b604482015290519081900360640190fd5b60005b60725481101561067c576000607160006072848154811061064f57fe5b60009182526020808320909101546001600160a01b03168352820192909252604001902055600101610632565b50600060738190556106909060729061139c565b6040517f10ce663a33129ff06664005970ad82d1d9f351f00003d8165ee7f5587472a54490600090a1565b6106c3610e86565b6001600160a01b03166106d46107ed565b6001600160a01b03161461072f576040805162461bcd60e51b815260206004820181905260248201527f4f776e61626c653a2063616c6c6572206973206e6f7420746865206f776e6572604482015290519081900360640190fd5b6033546040516000916001600160a01b0316907f8be0079c531659141344cd1fd0a4f28419497f9722a3daafe3b4186f6b6457e0908390a3603380546001600160a01b0319169055565b60655481565b336000908152607160205260409020546107ca5760405162461bcd60e51b81526004018080602001828103825260318152602001806114b06031913960400191505060405180910390fd5b6070546107e1906001600160a01b03168383610e8a565b5050565b6301406f4081565b6033546001600160a01b03165b90565b606c5481565b60716020526000908152604090205481565b606a54600090819042101561082d575060655461087d565b606b54421015610840575060665461087d565b606c54421015610853575060675461087d565b606d54421015610866575060685461087d565b606e54421015610879575060695461087d565b5060005b6073546001600160a01b03841660009081526071602052604081205490916108cf916108c3906108b7866301e1338063ffffffff610ff416565b9063ffffffff61103f16565b9063ffffffff610ff416565b949350505050565b60695481565b606a5481565b60685481565b607281815481106108f657fe5b6000918252602090912001546001600160a01b0316905081565b606d5481565b60735481565b600054610100900460ff16806109355750610935611098565b80610943575060005460ff16155b61097e5760405162461bcd60e51b815260040180806020018281038252602e815260200180611461602e913960400191505060405180910390fd5b600054610100900460ff161580156109a9576000805460ff1961ff0019909116610100171660011790555b6109b16110a9565b607080546001600160a01b0319166001600160a01b0385161790556109ed6103e86108c360c86108b76301406f40670de0b6b3a764000061103f565b606555610a176103e86108c3607d6108b76301406f40670de0b6b3a764000063ffffffff61103f16565b606655610a416103e86108c360646108b76301406f40670de0b6b3a764000063ffffffff61103f16565b606755610a6b6103e86108c360326108b76301406f40670de0b6b3a764000063ffffffff61103f16565b606855610a956103e86108c360196108b76301406f40670de0b6b3a764000063ffffffff61103f16565b606955426301e133808101606a556303c267008101606b556305a39a808101606c55630784ce008101606d55630966018001606e55606f8290558015610ae1576000805461ff00191690555b505050565b60675481565b6103e881565b606e5481565b610b006107ed565b6001600160a01b0316336001600160a01b031614610b5d576040805162461bcd60e51b81526020600482015260156024820152742cb7ba9030b932903737ba103a34329037bbb732b960591b604482015290519081900360640190fd5b828114610b9b5760405162461bcd60e51b815260040180806020018281038252603681526020018061142b6036913960400191505060405180910390fd5b60005b83811015610d085760716000868684818110610bb657fe5b905060200201356001600160a01b03166001600160a01b03166001600160a01b031681526020019081526020016000205460001415610c3a576072858583818110610bfd57fe5b835460018101855560009485526020948590200180546001600160a01b0319166001600160a01b0395909202939093013593909316929092179055505b60716000868684818110610c4a57fe5b905060200201356001600160a01b03166001600160a01b03166001600160a01b0316815260200190815260200160002054607360008282540392505081905550828282818110610c9657fe5b9050602002013560716000878785818110610cad57fe5b905060200201356001600160a01b03166001600160a01b03166001600160a01b0316815260200190815260200160002081905550828282818110610ced57fe5b60738054602090920293909301350190915550600101610b9e565b508181604051808383602002808284376040519201829003822094508893508792508190508360208402808284376040519201829003822094507f8edc76df8df41040c10508f425f5c12bd12345e571d144062bef5b6f1680642b93506000925050a350505050565b610d79610e86565b6001600160a01b0316610d8a6107ed565b6001600160a01b031614610de5576040805162461bcd60e51b815260206004820181905260248201527f4f776e61626c653a2063616c6c6572206973206e6f7420746865206f776e6572604482015290519081900360640190fd5b6001600160a01b038116610e2a5760405162461bcd60e51b81526004018080602001828103825260268152602001806113d46026913960400191505060405180910390fd5b6033546040516001600160a01b038084169216907f8be0079c531659141344cd1fd0a4f28419497f9722a3daafe3b4186f6b6457e090600090a3603380546001600160a01b0319166001600160a01b0392909216919091179055565b3390565b604080516001600160a01b038481166024830152604480830185905283518084039091018152606490920183526020820180516001600160e01b031663a9059cbb60e01b178152925182516000946060949389169392918291908083835b60208310610f075780518252601f199092019160209182019101610ee8565b6001836020036101000a0380198251168184511680821785525050505050509050019150506000604051808303816000865af19150503d8060008114610f69576040519150601f19603f3d011682016040523d82523d6000602084013e610f6e565b606091505b5091509150818015610f9c575080511580610f9c5750808060200190516020811015610f9957600080fd5b50515b610fed576040805162461bcd60e51b815260206004820152601f60248201527f5472616e7366657248656c7065723a205452414e534645525f4641494c454400604482015290519081900360640190fd5b5050505050565b600061103683836040518060400160405280601a81526020017f536166654d6174683a206469766973696f6e206279207a65726f00000000000081525061115b565b90505b92915050565b60008261104e57506000611039565b8282028284828161105b57fe5b04146110365760405162461bcd60e51b815260040180806020018281038252602181526020018061148f6021913960400191505060405180910390fd5b60006110a3306111fd565b15905090565b600054610100900460ff16806110c257506110c2611098565b806110d0575060005460ff16155b61110b5760405162461bcd60e51b815260040180806020018281038252602e815260200180611461602e913960400191505060405180910390fd5b600054610100900460ff16158015611136576000805460ff1961ff0019909116610100171660011790555b61113e611203565b6111466112a3565b8015611158576000805461ff00191690555b50565b600081836111e75760405162461bcd60e51b81526004018080602001828103825283818151815260200191508051906020019080838360005b838110156111ac578181015183820152602001611194565b50505050905090810190601f1680156111d95780820380516001836020036101000a031916815260200191505b509250505060405180910390fd5b5060008385816111f357fe5b0495945050505050565b3b151590565b600054610100900460ff168061121c575061121c611098565b8061122a575060005460ff16155b6112655760405162461bcd60e51b815260040180806020018281038252602e815260200180611461602e913960400191505060405180910390fd5b600054610100900460ff16158015611146576000805460ff1961ff0019909116610100171660011790558015611158576000805461ff001916905550565b600054610100900460ff16806112bc57506112bc611098565b806112ca575060005460ff16155b6113055760405162461bcd60e51b815260040180806020018281038252602e815260200180611461602e913960400191505060405180910390fd5b600054610100900460ff16158015611330576000805460ff1961ff0019909116610100171660011790555b600061133a610e86565b603380546001600160a01b0319166001600160a01b038316908117909155604051919250906000907f8be0079c531659141344cd1fd0a4f28419497f9722a3daafe3b4186f6b6457e0908290a3508015611158576000805461ff001916905550565b508054600082559060005260206000209081019061115891906107fa91905b808211156113cf57600081556001016113bb565b509056fe4f776e61626c653a206e6577206f776e657220697320746865207a65726f206164647265737376657374696e67526577617264526174696f2073686f756c64206265206578707265737365642061732070657263656e74506f6f6c732061646472657373657320616e642077656967687473206c656e677468732073686f756c64206265207468652073616d65496e697469616c697a61626c653a20636f6e747261637420697320616c726561647920696e697469616c697a6564536166654d6174683a206d756c7469706c69636174696f6e206f766572666c6f774f6e6c792072656769737465726564207374616b696e67207265776172647320636f6e74726163747320616c6c6f776564a2646970667358221220936b66b2bcf777af0d27c28f8561510f20177f009ad34ff6b796cb2491fd708f64736f6c634300060b0033",
  "devdoc": {
    "kind": "dev",
    "methods": {
      "owner()": {
        "details": "Returns the address of the current owner."
      },
      "renounceOwnership()": {
        "details": "Leaves the contract without owner. It will not be possible to call `onlyOwner` functions anymore. Can only be called by the current owner. NOTE: Renouncing ownership will leave the contract without an owner, thereby removing any functionality that is only available to the owner."
      },
      "transferOwnership(address)": {
        "details": "Transfers ownership of the contract to a new account (`newOwner`). Can only be called by the current owner."
      }
    },
    "version": 1
  },
  "userdoc": {
    "kind": "user",
    "methods": {},
    "version": 1
  },
  "storageLayout": {
    "storage": [
      {
        "astId": 492,
        "contract": "contracts/Staking/StakingRewardsDistribution.sol:StakingRewardsDistribution",
        "label": "_initialized",
        "offset": 0,
        "slot": "0",
        "type": "t_bool"
      },
      {
        "astId": 495,
        "contract": "contracts/Staking/StakingRewardsDistribution.sol:StakingRewardsDistribution",
        "label": "_initializing",
        "offset": 1,
        "slot": "0",
        "type": "t_bool"
      },
      {
        "astId": 1447,
        "contract": "contracts/Staking/StakingRewardsDistribution.sol:StakingRewardsDistribution",
        "label": "__gap",
        "offset": 0,
        "slot": "1",
        "type": "t_array(t_uint256)50_storage"
      },
      {
        "astId": 10,
        "contract": "contracts/Staking/StakingRewardsDistribution.sol:StakingRewardsDistribution",
        "label": "_owner",
        "offset": 0,
        "slot": "51",
        "type": "t_address"
      },
      {
        "astId": 129,
        "contract": "contracts/Staking/StakingRewardsDistribution.sol:StakingRewardsDistribution",
        "label": "__gap",
        "offset": 0,
        "slot": "52",
        "type": "t_array(t_uint256)49_storage"
      },
      {
        "astId": 9852,
        "contract": "contracts/Staking/StakingRewardsDistribution.sol:StakingRewardsDistribution",
        "label": "BDX_MINTING_SCHEDULE_YEAR_1",
        "offset": 0,
        "slot": "101",
        "type": "t_uint256"
      },
      {
        "astId": 9854,
        "contract": "contracts/Staking/StakingRewardsDistribution.sol:StakingRewardsDistribution",
        "label": "BDX_MINTING_SCHEDULE_YEAR_2",
        "offset": 0,
        "slot": "102",
        "type": "t_uint256"
      },
      {
        "astId": 9856,
        "contract": "contracts/Staking/StakingRewardsDistribution.sol:StakingRewardsDistribution",
        "label": "BDX_MINTING_SCHEDULE_YEAR_3",
        "offset": 0,
        "slot": "103",
        "type": "t_uint256"
      },
      {
        "astId": 9858,
        "contract": "contracts/Staking/StakingRewardsDistribution.sol:StakingRewardsDistribution",
        "label": "BDX_MINTING_SCHEDULE_YEAR_4",
        "offset": 0,
        "slot": "104",
        "type": "t_uint256"
      },
      {
        "astId": 9860,
        "contract": "contracts/Staking/StakingRewardsDistribution.sol:StakingRewardsDistribution",
        "label": "BDX_MINTING_SCHEDULE_YEAR_5",
        "offset": 0,
        "slot": "105",
        "type": "t_uint256"
      },
      {
        "astId": 9862,
        "contract": "contracts/Staking/StakingRewardsDistribution.sol:StakingRewardsDistribution",
        "label": "EndOfYear_1",
        "offset": 0,
        "slot": "106",
        "type": "t_uint256"
      },
      {
        "astId": 9864,
        "contract": "contracts/Staking/StakingRewardsDistribution.sol:StakingRewardsDistribution",
        "label": "EndOfYear_2",
        "offset": 0,
        "slot": "107",
        "type": "t_uint256"
      },
      {
        "astId": 9866,
        "contract": "contracts/Staking/StakingRewardsDistribution.sol:StakingRewardsDistribution",
        "label": "EndOfYear_3",
        "offset": 0,
        "slot": "108",
        "type": "t_uint256"
      },
      {
        "astId": 9868,
        "contract": "contracts/Staking/StakingRewardsDistribution.sol:StakingRewardsDistribution",
        "label": "EndOfYear_4",
        "offset": 0,
        "slot": "109",
        "type": "t_uint256"
      },
      {
        "astId": 9870,
        "contract": "contracts/Staking/StakingRewardsDistribution.sol:StakingRewardsDistribution",
        "label": "EndOfYear_5",
        "offset": 0,
        "slot": "110",
        "type": "t_uint256"
      },
      {
        "astId": 9872,
        "contract": "contracts/Staking/StakingRewardsDistribution.sol:StakingRewardsDistribution",
        "label": "vestingRewardRatio_percent",
        "offset": 0,
        "slot": "111",
        "type": "t_uint256"
      },
      {
        "astId": 9874,
        "contract": "contracts/Staking/StakingRewardsDistribution.sol:StakingRewardsDistribution",
        "label": "rewardsToken",
        "offset": 0,
        "slot": "112",
        "type": "t_contract(ERC20)5857"
      },
      {
        "astId": 9878,
        "contract": "contracts/Staking/StakingRewardsDistribution.sol:StakingRewardsDistribution",
        "label": "stakingRewardsWeights",
        "offset": 0,
        "slot": "113",
        "type": "t_mapping(t_address,t_uint256)"
      },
      {
        "astId": 9881,
        "contract": "contracts/Staking/StakingRewardsDistribution.sol:StakingRewardsDistribution",
        "label": "stakingRewardsAddresses",
        "offset": 0,
        "slot": "114",
        "type": "t_array(t_address)dyn_storage"
      },
      {
        "astId": 9883,
        "contract": "contracts/Staking/StakingRewardsDistribution.sol:StakingRewardsDistribution",
        "label": "stakingRewardsWeightsTotal",
        "offset": 0,
        "slot": "115",
        "type": "t_uint256"
      }
    ],
    "types": {
      "t_address": {
        "encoding": "inplace",
        "label": "address",
        "numberOfBytes": "20"
      },
      "t_array(t_address)dyn_storage": {
        "base": "t_address",
        "encoding": "dynamic_array",
        "label": "address[]",
        "numberOfBytes": "32"
      },
      "t_array(t_uint256)49_storage": {
        "base": "t_uint256",
        "encoding": "inplace",
        "label": "uint256[49]",
        "numberOfBytes": "1568"
      },
      "t_array(t_uint256)50_storage": {
        "base": "t_uint256",
        "encoding": "inplace",
        "label": "uint256[50]",
        "numberOfBytes": "1600"
      },
      "t_bool": {
        "encoding": "inplace",
        "label": "bool",
        "numberOfBytes": "1"
      },
      "t_contract(ERC20)5857": {
        "encoding": "inplace",
        "label": "contract ERC20",
        "numberOfBytes": "20"
      },
      "t_mapping(t_address,t_uint256)": {
        "encoding": "mapping",
        "key": "t_address",
        "label": "mapping(address => uint256)",
        "numberOfBytes": "32",
        "value": "t_uint256"
      },
      "t_uint256": {
        "encoding": "inplace",
        "label": "uint256",
        "numberOfBytes": "32"
      }
    }
  }
}