{
  "address": "0xC0C17195Bb69DB39999452859c1EE53485a945Ea",
  "abi": [
    {
      "anonymous": false,
      "inputs": [
        {
          "indexed": true,
          "internalType": "address",
          "name": "previousOwner",
          "type": "address"
        },
        {
          "indexed": true,
          "internalType": "address",
          "name": "newOwner",
          "type": "address"
        }
      ],
      "name": "OwnershipTransferred",
      "type": "event"
    },
    {
      "anonymous": false,
      "inputs": [
        {
          "indexed": false,
          "internalType": "address",
          "name": "account",
          "type": "address"
        }
      ],
      "name": "Paused",
      "type": "event"
    },
    {
      "anonymous": false,
      "inputs": [
        {
          "indexed": false,
          "internalType": "address",
          "name": "token",
          "type": "address"
        },
        {
          "indexed": false,
          "internalType": "uint256",
          "name": "amount",
          "type": "uint256"
        }
      ],
      "name": "Recovered",
      "type": "event"
    },
    {
      "anonymous": false,
      "inputs": [
        {
          "indexed": true,
          "internalType": "address",
          "name": "user",
          "type": "address"
        },
        {
          "indexed": false,
          "internalType": "uint256",
          "name": "reward",
          "type": "uint256"
        }
      ],
      "name": "RewardPaid",
      "type": "event"
    },
    {
      "anonymous": false,
      "inputs": [
        {
          "indexed": false,
          "internalType": "uint256",
          "name": "newDuration",
          "type": "uint256"
        }
      ],
      "name": "RewardsDurationUpdated",
      "type": "event"
    },
    {
      "anonymous": false,
      "inputs": [
        {
          "indexed": false,
          "internalType": "address",
          "name": "token",
          "type": "address"
        }
      ],
      "name": "RewardsPeriodRenewed",
      "type": "event"
    },
    {
      "anonymous": false,
      "inputs": [
        {
          "indexed": true,
          "internalType": "address",
          "name": "user",
          "type": "address"
        },
        {
          "indexed": false,
          "internalType": "uint256",
          "name": "amount",
          "type": "uint256"
        },
        {
          "indexed": false,
          "internalType": "uint256",
          "name": "secs",
          "type": "uint256"
        }
      ],
      "name": "StakeLocked",
      "type": "event"
    },
    {
      "anonymous": false,
      "inputs": [
        {
          "indexed": true,
          "internalType": "address",
          "name": "user",
          "type": "address"
        },
        {
          "indexed": false,
          "internalType": "uint256",
          "name": "amount",
          "type": "uint256"
        }
      ],
      "name": "Staked",
      "type": "event"
    },
    {
      "anonymous": false,
      "inputs": [
        {
          "indexed": false,
          "internalType": "address",
          "name": "account",
          "type": "address"
        }
      ],
      "name": "Unpaused",
      "type": "event"
    },
    {
      "anonymous": false,
      "inputs": [
        {
          "indexed": true,
          "internalType": "address",
          "name": "user",
          "type": "address"
        },
        {
          "indexed": false,
          "internalType": "uint256",
          "name": "amount",
          "type": "uint256"
        }
      ],
      "name": "Withdrawn",
      "type": "event"
    },
    {
      "anonymous": false,
      "inputs": [
        {
          "indexed": true,
          "internalType": "address",
          "name": "user",
          "type": "address"
        },
        {
          "indexed": false,
          "internalType": "uint256",
          "name": "amount",
          "type": "uint256"
        },
        {
          "indexed": false,
          "internalType": "bytes32",
          "name": "kek_id",
          "type": "bytes32"
        }
      ],
      "name": "WithdrawnLocked",
      "type": "event"
    },
    {
      "inputs": [],
      "name": "REWARD_PRECISON",
      "outputs": [
        {
          "internalType": "uint256",
          "name": "",
          "type": "uint256"
        }
      ],
      "stateMutability": "view",
      "type": "function"
    },
    {
      "inputs": [
        {
          "internalType": "address",
          "name": "account",
          "type": "address"
        }
      ],
      "name": "balanceOf",
      "outputs": [
        {
          "internalType": "uint256",
          "name": "",
          "type": "uint256"
        }
      ],
      "stateMutability": "view",
      "type": "function"
    },
    {
      "inputs": [
        {
          "internalType": "address",
          "name": "account",
          "type": "address"
        }
      ],
      "name": "boostedBalanceOf",
      "outputs": [
        {
          "internalType": "uint256",
          "name": "",
          "type": "uint256"
        }
      ],
      "stateMutability": "view",
      "type": "function"
    },
    {
      "inputs": [
        {
          "internalType": "address",
          "name": "account",
          "type": "address"
        }
      ],
      "name": "earned",
      "outputs": [
        {
          "internalType": "uint256",
          "name": "",
          "type": "uint256"
        }
      ],
      "stateMutability": "view",
      "type": "function"
    },
    {
      "inputs": [],
      "name": "getReward",
      "outputs": [],
      "stateMutability": "nonpayable",
      "type": "function"
    },
    {
      "inputs": [],
      "name": "getRewardForDuration",
      "outputs": [
        {
          "internalType": "uint256",
          "name": "",
          "type": "uint256"
        }
      ],
      "stateMutability": "view",
      "type": "function"
    },
    {
      "inputs": [
        {
          "internalType": "address",
          "name": "",
          "type": "address"
        }
      ],
      "name": "greylist",
      "outputs": [
        {
          "internalType": "bool",
          "name": "",
          "type": "bool"
        }
      ],
      "stateMutability": "view",
      "type": "function"
    },
    {
      "inputs": [
        {
          "internalType": "address",
          "name": "_address",
          "type": "address"
        }
      ],
      "name": "greylistAddress",
      "outputs": [],
      "stateMutability": "nonpayable",
      "type": "function"
    },
    {
      "inputs": [
        {
          "internalType": "address",
          "name": "_stakingToken",
          "type": "address"
        },
        {
          "internalType": "address",
          "name": "_timelock_address",
          "type": "address"
        },
        {
          "internalType": "address",
          "name": "_stakingRewardsDistribution",
          "type": "address"
        },
        {
          "internalType": "bool",
          "name": "_isTrueBdPool",
          "type": "bool"
        }
      ],
      "name": "initialize",
      "outputs": [],
      "stateMutability": "nonpayable",
      "type": "function"
    },
    {
      "inputs": [],
      "name": "lastTimeRewardApplicable",
      "outputs": [
        {
          "internalType": "uint256",
          "name": "",
          "type": "uint256"
        }
      ],
      "stateMutability": "view",
      "type": "function"
    },
    {
      "inputs": [],
      "name": "lastUpdateTime",
      "outputs": [
        {
          "internalType": "uint256",
          "name": "",
          "type": "uint256"
        }
      ],
      "stateMutability": "view",
      "type": "function"
    },
    {
      "inputs": [
        {
          "internalType": "address",
          "name": "account",
          "type": "address"
        }
      ],
      "name": "lockedBalanceOf",
      "outputs": [
        {
          "internalType": "uint256",
          "name": "",
          "type": "uint256"
        }
      ],
      "stateMutability": "view",
      "type": "function"
    },
    {
      "inputs": [
        {
          "internalType": "address",
          "name": "account",
          "type": "address"
        }
      ],
      "name": "lockedStakesOf",
      "outputs": [
        {
          "components": [
            {
              "internalType": "bytes32",
              "name": "kek_id",
              "type": "bytes32"
            },
            {
              "internalType": "uint256",
              "name": "start_timestamp",
              "type": "uint256"
            },
            {
              "internalType": "uint256",
              "name": "amount",
              "type": "uint256"
            },
            {
              "internalType": "uint256",
              "name": "ending_timestamp",
              "type": "uint256"
            },
            {
              "internalType": "uint256",
              "name": "multiplier_LOCK_MULTIPLIER_PRECISION",
              "type": "uint256"
            }
          ],
          "internalType": "struct StakingRewards.LockedStake[]",
          "name": "",
          "type": "tuple[]"
        }
      ],
      "stateMutability": "view",
      "type": "function"
    },
    {
      "inputs": [
        {
          "internalType": "uint256",
          "name": "yearsNo",
          "type": "uint256"
        }
      ],
      "name": "lockedStakingMultiplier_LOCK_MULTIPLIER_PRECISION",
      "outputs": [
        {
          "internalType": "uint256",
          "name": "",
          "type": "uint256"
        }
      ],
      "stateMutability": "pure",
      "type": "function"
    },
    {
      "inputs": [],
      "name": "owner",
      "outputs": [
        {
          "internalType": "address",
          "name": "",
          "type": "address"
        }
      ],
      "stateMutability": "view",
      "type": "function"
    },
    {
      "inputs": [],
      "name": "paused",
      "outputs": [
        {
          "internalType": "bool",
          "name": "",
          "type": "bool"
        }
      ],
      "stateMutability": "view",
      "type": "function"
    },
    {
      "inputs": [],
      "name": "periodFinish",
      "outputs": [
        {
          "internalType": "uint256",
          "name": "",
          "type": "uint256"
        }
      ],
      "stateMutability": "view",
      "type": "function"
    },
    {
      "inputs": [
        {
          "internalType": "address",
          "name": "tokenAddress",
          "type": "address"
        },
        {
          "internalType": "uint256",
          "name": "tokenAmount",
          "type": "uint256"
        }
      ],
      "name": "recoverERC20",
      "outputs": [],
      "stateMutability": "nonpayable",
      "type": "function"
    },
    {
      "inputs": [],
      "name": "renewIfApplicable",
      "outputs": [],
      "stateMutability": "nonpayable",
      "type": "function"
    },
    {
      "inputs": [],
      "name": "renounceOwnership",
      "outputs": [],
      "stateMutability": "nonpayable",
      "type": "function"
    },
    {
      "inputs": [],
      "name": "rewardPerToken",
      "outputs": [
        {
          "internalType": "uint256",
          "name": "",
          "type": "uint256"
        }
      ],
      "stateMutability": "view",
      "type": "function"
    },
    {
      "inputs": [],
      "name": "rewardPerTokenStored_REWARD_PRECISON",
      "outputs": [
        {
          "internalType": "uint256",
          "name": "",
          "type": "uint256"
        }
      ],
      "stateMutability": "view",
      "type": "function"
    },
    {
      "inputs": [
        {
          "internalType": "address",
          "name": "",
          "type": "address"
        }
      ],
      "name": "rewards",
      "outputs": [
        {
          "internalType": "uint256",
          "name": "",
          "type": "uint256"
        }
      ],
      "stateMutability": "view",
      "type": "function"
    },
    {
      "inputs": [],
      "name": "rewardsDurationSeconds",
      "outputs": [
        {
          "internalType": "uint256",
          "name": "",
          "type": "uint256"
        }
      ],
      "stateMutability": "view",
      "type": "function"
    },
    {
      "inputs": [
        {
          "internalType": "address",
          "name": "account",
          "type": "address"
        }
      ],
      "name": "rewardsFor",
      "outputs": [
        {
          "internalType": "uint256",
          "name": "",
          "type": "uint256"
        }
      ],
      "stateMutability": "view",
      "type": "function"
    },
    {
      "inputs": [
        {
          "internalType": "address",
          "name": "_new_owner",
          "type": "address"
        },
        {
          "internalType": "address",
          "name": "_new_timelock",
          "type": "address"
        }
      ],
      "name": "setOwnerAndTimelock",
      "outputs": [],
      "stateMutability": "nonpayable",
      "type": "function"
    },
    {
      "inputs": [
        {
          "internalType": "uint256",
          "name": "_rewardsDurationSeconds",
          "type": "uint256"
        }
      ],
      "name": "setRewardsDuration",
      "outputs": [],
      "stateMutability": "nonpayable",
      "type": "function"
    },
    {
      "inputs": [
        {
          "internalType": "uint256",
          "name": "amount",
          "type": "uint256"
        }
      ],
      "name": "stake",
      "outputs": [],
      "stateMutability": "nonpayable",
      "type": "function"
    },
    {
      "inputs": [
        {
          "internalType": "uint256",
          "name": "amount",
          "type": "uint256"
        },
        {
          "internalType": "uint256",
          "name": "yearsNo",
          "type": "uint256"
        }
      ],
      "name": "stakeLocked",
      "outputs": [],
      "stateMutability": "nonpayable",
      "type": "function"
    },
    {
      "inputs": [],
      "name": "stakingDecimals",
      "outputs": [
        {
          "internalType": "uint256",
          "name": "",
          "type": "uint256"
        }
      ],
      "stateMutability": "view",
      "type": "function"
    },
    {
      "inputs": [],
      "name": "stakingToken",
      "outputs": [
        {
          "internalType": "contract ERC20",
          "name": "",
          "type": "address"
        }
      ],
      "stateMutability": "view",
      "type": "function"
    },
    {
      "inputs": [],
      "name": "timelock_address",
      "outputs": [
        {
          "internalType": "address",
          "name": "",
          "type": "address"
        }
      ],
      "stateMutability": "view",
      "type": "function"
    },
    {
      "inputs": [],
      "name": "totalBoostedSupply",
      "outputs": [
        {
          "internalType": "uint256",
          "name": "",
          "type": "uint256"
        }
      ],
      "stateMutability": "view",
      "type": "function"
    },
    {
      "inputs": [],
      "name": "totalSupply",
      "outputs": [
        {
          "internalType": "uint256",
          "name": "",
          "type": "uint256"
        }
      ],
      "stateMutability": "view",
      "type": "function"
    },
    {
      "inputs": [
        {
          "internalType": "address",
          "name": "newOwner",
          "type": "address"
        }
      ],
      "name": "transferOwnership",
      "outputs": [],
      "stateMutability": "nonpayable",
      "type": "function"
    },
    {
      "inputs": [],
      "name": "unlockStakes",
      "outputs": [],
      "stateMutability": "nonpayable",
      "type": "function"
    },
    {
      "inputs": [
        {
          "internalType": "address",
          "name": "account",
          "type": "address"
        }
      ],
      "name": "unlockedBalanceOf",
      "outputs": [
        {
          "internalType": "uint256",
          "name": "",
          "type": "uint256"
        }
      ],
      "stateMutability": "view",
      "type": "function"
    },
    {
      "inputs": [],
      "name": "unlockedStakes",
      "outputs": [
        {
          "internalType": "bool",
          "name": "",
          "type": "bool"
        }
      ],
      "stateMutability": "view",
      "type": "function"
    },
    {
      "inputs": [
        {
          "internalType": "address",
          "name": "",
          "type": "address"
        }
      ],
      "name": "userRewardPerTokenPaid_REWARD_PRECISON",
      "outputs": [
        {
          "internalType": "uint256",
          "name": "",
          "type": "uint256"
        }
      ],
      "stateMutability": "view",
      "type": "function"
    },
    {
      "inputs": [
        {
          "internalType": "uint256",
          "name": "amount",
          "type": "uint256"
        }
      ],
      "name": "withdraw",
      "outputs": [],
      "stateMutability": "nonpayable",
      "type": "function"
    },
    {
      "inputs": [
        {
          "internalType": "bytes32",
          "name": "kek_id",
          "type": "bytes32"
        }
      ],
      "name": "withdrawLocked",
      "outputs": [],
      "stateMutability": "nonpayable",
      "type": "function"
    }
  ],
  "transactionHash": "0x6b01e9b22a514f44136d10643b0d3bd1a48f8d4cb5bf7c391c1d79abe034dc8f",
  "args": [],
  "solcInputHash": "36185021115f3fccbe06894bb4a1b398",
  "bytecode": "0x608060405234801561001057600080fd5b50612bb6806100206000396000f3fe608060405234801561001057600080fd5b50600436106102525760003560e01c80637fea886c11610146578063b51f7902116100c3578063dc6663c711610087578063dc6663c71461047f578063e1ba95d214610487578063ebe2b12b1461048f578063f2fde38b14610497578063fecf9734146104aa578063fee2eae6146104bd57610252565b8063b51f790214610441578063c11f534414610454578063c8f33c911461045c578063cc1a378f14610464578063cd3daf9d1461047757610252565b80638da5cb5b1161010a5780638da5cb5b146104035780639143ef941461040b578063941d9f651461041357806399a9cfc614610426578063a694fc3a1461042e57610252565b80637fea886c146103af57806380060d49146103c257806380faa57d146103d557806384955c88146103dd5780638980f11f146103f057610252565b80633184267f116101d4578063593557361161019857806359355736146103645780635c975abb1461037757806370a082311461037f578063715018a61461039257806372f702f31461039a57610252565b80633184267f1461030e57806331ca208c14610321578063399f5467146103415780633d18b9121461034957806351e3fc171461035157610252565b80631beabcd21161021b5780631beabcd2146102b85780631c1f78eb146102cb5780631e090f01146102d357806326f7330d146102f35780632e1a7d4d146102fb57610252565b80628cc262146102575780630700037d146102805780630dda72991461029357806317b18c891461029b57806318160ddd146102b0575b600080fd5b61026a610265366004612344565b6104c5565b6040516102779190612b2b565b60405180910390f35b61026a61028e366004612344565b61055d565b61026a61056f565b6102ae6102a9366004612461565b610576565b005b61026a6108dc565b61026a6102c6366004612344565b6108e2565b61026a6108fd565b6102e66102e1366004612344565b61099a565b604051610277919061253a565b61026a610a41565b6102ae610309366004612431565b610a4d565b6102ae61031c36600461235f565b610bf8565b61033461032f366004612344565b610c71565b60405161027791906125a8565b610334610c86565b6102ae610c8f565b6102ae61035f366004612431565b610df9565b61026a610372366004612344565b611124565b61033461113f565b61026a61038d366004612344565b611148565b6102ae61117b565b6103a2611204565b60405161027791906124e9565b61026a6103bd366004612344565b611213565b61026a6103d0366004612431565b611225565b61026a61129f565b61026a6103eb366004612344565b6112ad565b6102ae6103fe3660046123eb565b6112c8565b6103a26113f5565b61026a611404565b6102ae610421366004612344565b61140a565b61026a611480565b6102ae61043c366004612431565b611486565b61026a61044f366004612344565b61166a565b61026a611685565b61026a61170a565b6102ae610472366004612431565b611710565b61026a6117c9565b6103a26118a0565b6102ae6118af565b61026a611910565b6102ae6104a5366004612344565b611916565b6102ae6104b8366004612393565b6119d7565b6102ae611af2565b6001600160a01b038116600090815260a2602090815260408083205460a1909252822054610555919061054990670de0b6b3a76400009061053d906105189061050c6117c9565b9063ffffffff611b0616565b6001600160a01b038816600090815260a760205260409020549063ffffffff611b5116565b9063ffffffff611b8b16565b9063ffffffff611bcd16565b90505b919050565b60a26020526000908152604090205481565b60a4545b90565b600260985414156105a25760405162461bcd60e51b815260040161059990612af4565b60405180910390fd5b60026098556105af61113f565b156105cc5760405162461bcd60e51b8152600401610599906128b6565b33609c544211156105e4576105df611bf2565b6105fb565b6105ec6117c9565b60a0556105f761129f565b609f555b6001600160a01b0381161561063f57610613816104c5565b6001600160a01b038216600090815260a2602090815260408083209390935560a05460a1909152919020555b6000831161065f5760405162461bcd60e51b815260040161059990612773565b81600a141561068f57609d5460ff1661068a5760405162461bcd60e51b815260040161059990612859565b6106db565b816001148061069e5750816002145b806106a95750816003145b806106b45750816005145b806106bf575081600a145b6106db5760405162461bcd60e51b8152600401610599906126a0565b33600090815260a9602052604090205460ff161561070b5760405162461bcd60e51b8152600401610599906125e6565b6301e133808202600061071d84611225565b90506000610738620f424061053d888563ffffffff611b5116565b33600081815260a8602052604090819020815160a0810190925292935090819061076790428b60c085016124a3565b6040516020818303038152906040528051906020012081526020014281526020018881526020016107a18642611bcd90919063ffffffff16565b8152602090810185905282546001818101855560009485529382902083516005909202019081559082015192810192909255604081015160028301556060810151600383015560800151600490910155609954610809906001600160a01b0316333089611cb9565b60a35461081c908763ffffffff611bcd16565b60a35560a454610832908263ffffffff611bcd16565b60a45533600090815260a66020526040902054610855908763ffffffff611bcd16565b33600090815260a6602090815260408083209390935560a790522054610881908263ffffffff611bcd16565b33600081815260a76020526040908190209290925590517fa5ae833d0bb1dcd632d98a8b70973e8516812898e19bf27b70071ebc8dc52c01906108c79089908790612b34565b60405180910390a25050600160985550505050565b60a35490565b6001600160a01b0316600090815260a7602052604090205490565b609e54609b5460405163964efe8160e01b81526000926109959290916001600160a01b039091169063964efe81906109399030906004016124e9565b60206040518083038186803b15801561095157600080fd5b505afa158015610965573d6000803e3d6000fd5b505050506040513d601f19601f820116820180604052508101906109899190612449565b9063ffffffff611b5116565b905090565b6001600160a01b038116600090815260a860209081526040808320805482518185028101850190935280835260609492939192909184015b82821015610a3657838290600052602060002090600502016040518060a001604052908160008201548152602001600182015481526020016002820154815260200160038201548152602001600482015481525050815260200190600101906109d2565b505050509050919050565b670de0b6b3a764000081565b60026098541415610a705760405162461bcd60e51b815260040161059990612af4565b6002609855609c543390421115610a8e57610a89611bf2565b610aa5565b610a966117c9565b60a055610aa161129f565b609f555b6001600160a01b03811615610ae957610abd816104c5565b6001600160a01b038216600090815260a2602090815260408083209390935560a05460a1909152919020555b60008211610b095760405162461bcd60e51b81526004016105999061292e565b33600090815260a56020526040902054610b29908363ffffffff611b0616565b33600090815260a5602090815260408083209390935560a790522054610b55908363ffffffff611b0616565b33600090815260a7602052604090205560a354610b78908363ffffffff611b0616565b60a35560a454610b8e908363ffffffff611b0616565b60a455609954610bae906001600160a01b0316338463ffffffff611daa16565b336001600160a01b03167f7084f5476618d8e60b11ef0d7d3f06914655adb8793e28ff7f018d4c76d505d583604051610be79190612b2b565b60405180910390a250506001609855565b610c006113f5565b6001600160a01b0316336001600160a01b03161480610c295750609a546001600160a01b031633145b610c455760405162461bcd60e51b815260040161059990612809565b610c4e82611916565b609a80546001600160a01b0319166001600160a01b039290921691909117905550565b60a96020526000908152604090205460ff1681565b60aa5460ff1681565b60026098541415610cb25760405162461bcd60e51b815260040161059990612af4565b6002609855609c543390421115610cd057610ccb611bf2565b610ce7565b610cd86117c9565b60a055610ce361129f565b609f555b6001600160a01b03811615610d2b57610cff816104c5565b6001600160a01b038216600090815260a2602090815260408083209390935560a05460a1909152919020555b33600090815260a260205260409020548015610df05733600081815260a2602052604080822091909155609b54905163413918c960e11b81526001600160a01b0390911691638272319291610d85919085906004016124fd565b600060405180830381600087803b158015610d9f57600080fd5b505af1158015610db3573d6000803e3d6000fd5b50505050336001600160a01b03167fe2403640ba68fed3a2f88b7557551d1993f84b99bb10ff833f0cf8db0c5e048682604051610be79190612b2b565b50506001609855565b60026098541415610e1c5760405162461bcd60e51b815260040161059990612af4565b6002609855609c543390421115610e3a57610e35611bf2565b610e51565b610e426117c9565b60a055610e4d61129f565b609f555b6001600160a01b03811615610e9557610e69816104c5565b6001600160a01b038216600090815260a2602090815260408083209390935560a05460a1909152919020555b610e9d6122fb565b600060408201819052805b33600090815260a86020526040902054811015610f6b5733600090815260a860205260409020805482908110610eda57fe5b906000526020600020906005020160000154851415610f635733600090815260a860205260409020805482908110610f0e57fe5b90600052602060002090600502016040518060a0016040529081600082015481526020016001820154815260200160028201548152602001600382015481526020016004820154815250509250809150610f6b565b600101610ea8565b5081518414610f8c5760405162461bcd60e51b815260040161059990612a06565b816060015142101580610fa6575060aa5460ff1615156001145b610fc25760405162461bcd60e51b8152600401610599906126fd565b60408201516080830151600090610fe990620f42409061053d90859063ffffffff611b5116565b905081156111175733600090815260a66020526040902054611011908363ffffffff611b0616565b33600090815260a6602090815260408083209390935560a79052205461103d908263ffffffff611b0616565b33600090815260a7602052604090205560a354611060908363ffffffff611b0616565b60a35560a454611076908263ffffffff611b0616565b60a45533600090815260a86020526040902080548490811061109457fe5b600091825260208220600590910201818155600181018290556002810182905560038101829055600401556099546110dc906001600160a01b0316338463ffffffff611daa16565b336001600160a01b03167f1f70bda8ea2447de035db87c33fe8f03f7514d49c394293e5cffdb4c34352cf683886040516108c7929190612b34565b5050600160985550505050565b6001600160a01b0316600090815260a6602052604090205490565b60335460ff1690565b6001600160a01b038116600090815260a6602090815260408083205460a59092528220546105559163ffffffff611bcd16565b611183611e05565b6001600160a01b03166111946113f5565b6001600160a01b0316146111ba5760405162461bcd60e51b81526004016105999061299a565b6065546040516000916001600160a01b0316907f8be0079c531659141344cd1fd0a4f28419497f9722a3daafe3b4186f6b6457e0908390a3606580546001600160a01b0319169055565b6099546001600160a01b031681565b60a16020526000908152604090205481565b600081600a141561123b57506302faf080610558565b816005141561124e575062989680610558565b81600314156112615750622dc6c0610558565b8160021415611274575062239948610558565b8160011415611287575062196fb8610558565b60405162461bcd60e51b8152600401610599906129cf565b600061099542609c54611e09565b6001600160a01b0316600090815260a5602052604090205490565b6112d06113f5565b6001600160a01b0316336001600160a01b031614806112f95750609a546001600160a01b031633145b6113155760405162461bcd60e51b815260040161059990612809565b6099546001600160a01b038381169116141561133057600080fd5b816001600160a01b031663a9059cbb6113476113f5565b836040518363ffffffff1660e01b81526004016113659291906124fd565b602060405180830381600087803b15801561137f57600080fd5b505af1158015611393573d6000803e3d6000fd5b505050506040513d601f19601f820116820180604052508101906113b79190612415565b507f8c1256b8896378cd5044f80c202f9772b9d77dc85c8a6eb51967210b09bfaa2882826040516113e99291906124fd565b60405180910390a15050565b6065546001600160a01b031690565b60a05481565b6114126113f5565b6001600160a01b0316336001600160a01b0316148061143b5750609a546001600160a01b031633145b6114575760405162461bcd60e51b815260040161059990612809565b6001600160a01b0316600090815260a960205260409020805460ff19811660ff90911615179055565b609e5481565b600260985414156114a95760405162461bcd60e51b815260040161059990612af4565b60026098556114b661113f565b156114d35760405162461bcd60e51b8152600401610599906128b6565b33609c544211156114eb576114e6611bf2565b611502565b6114f36117c9565b60a0556114fe61129f565b609f555b6001600160a01b038116156115465761151a816104c5565b6001600160a01b038216600090815260a2602090815260408083209390935560a05460a1909152919020555b600082116115665760405162461bcd60e51b815260040161059990612773565b33600090815260a9602052604090205460ff16156115965760405162461bcd60e51b8152600401610599906125e6565b6099546115ae906001600160a01b0316333085611cb9565b60a3546115c1908363ffffffff611bcd16565b60a35560a4546115d7908363ffffffff611bcd16565b60a45533600090815260a560205260409020546115fa908363ffffffff611bcd16565b33600090815260a5602090815260408083209390935560a790522054611626908363ffffffff611bcd16565b33600081815260a76020526040908190209290925590517f9e71bc8eea02a63969f509818f2dafb9254532904319f9dbda79b67bd34a5f3d90610be7908590612b2b565b6001600160a01b0316600090815260a2602052604090205490565b6099546040805163313ce56760e01b815290516000926001600160a01b03169163313ce567916004808301926020929190829003018186803b1580156116ca57600080fd5b505afa1580156116de573d6000803e3d6000fd5b505050506040513d601f19601f820116820180604052508101906117029190612482565b60ff16905090565b609f5481565b6117186113f5565b6001600160a01b0316336001600160a01b031614806117415750609a546001600160a01b031633145b61175d5760405162461bcd60e51b815260040161059990612809565b609c54158061176d5750609c5442115b6117895760405162461bcd60e51b81526004016105999061261d565b609e8190556040517ffb46ca5a5e06d4540d6387b930a7c978bce0db5f449ec6b3f5d07c6e1d44f2d3906117be908390612b2b565b60405180910390a150565b600060a354600014156117df575060a054610573565b60a454609b5460405163964efe8160e01b81526118999261188a92909161053d91670de0b6b3a764000091610989916001600160a01b03169063964efe819061182c9030906004016124e9565b60206040518083038186803b15801561184457600080fd5b505afa158015611858573d6000803e3d6000fd5b505050506040513d601f19601f8201168201806040525081019061187c9190612449565b610989609f5461050c61129f565b60a0549063ffffffff611bcd16565b9050610573565b609a546001600160a01b031681565b6118b76113f5565b6001600160a01b0316336001600160a01b031614806118e05750609a546001600160a01b031633145b6118fc5760405162461bcd60e51b815260040161059990612809565b60aa805460ff19811660ff90911615179055565b609c5481565b61191e611e05565b6001600160a01b031661192f6113f5565b6001600160a01b0316146119555760405162461bcd60e51b81526004016105999061299a565b6001600160a01b03811661197b5760405162461bcd60e51b81526004016105999061272d565b6065546040516001600160a01b038084169216907f8be0079c531659141344cd1fd0a4f28419497f9722a3daafe3b4186f6b6457e090600090a3606580546001600160a01b0319166001600160a01b0392909216919091179055565b600054610100900460ff16806119f057506119f0611e1f565b806119fe575060005460ff16155b611a1a5760405162461bcd60e51b8152600401610599906128e0565b600054610100900460ff16158015611a45576000805460ff1961ff0019909116610100171660011790555b611a4d611e30565b611a55611ec3565b609980546001600160a01b038088166001600160a01b031992831617909255609a8054878416908316179055609b805492861692909116919091179055426097819055609d805484151560ff199182161790915562093a80609e81905560aa8054909216909155609f829055611ad1919063ffffffff611bcd16565b609c5560016098558015611aeb576000805461ff00191690555b5050505050565b609c54421115611b0457611b04611bf2565b565b6000611b4883836040518060400160405280601e81526020017f536166654d6174683a207375627472616374696f6e206f766572666c6f770000815250611f41565b90505b92915050565b600082611b6057506000611b4b565b82820282848281611b6d57fe5b0414611b485760405162461bcd60e51b815260040161059990612959565b6000611b4883836040518060400160405280601a81526020017f536166654d6174683a206469766973696f6e206279207a65726f000000000000815250611f6d565b600082820183811015611b485760405162461bcd60e51b81526004016105999061279b565b609c544211611c135760405162461bcd60e51b8152600401610599906127d2565b6000609e54611c2d609c5442611b0690919063ffffffff16565b81611c3457fe5b049050611c63611c54609e54610989600185611bcd90919063ffffffff16565b609c549063ffffffff611bcd16565b609c55611c6e6117c9565b60a055611c7961129f565b609f556099546040517f6f2b3b3aaf1881d69a5d40565500f93ea73df36e7b6a29bf48b21479a9237fe9916117be916001600160a01b03909116906124e9565b60006060856001600160a01b03166323b872dd868686604051602401611ce193929190612516565b6040516020818303038152906040529060e01b6020820180516001600160e01b038381831617835250505050604051611d1a91906124cd565b6000604051808303816000865af19150503d8060008114611d57576040519150601f19603f3d011682016040523d82523d6000602084013e611d5c565b606091505b5091509150818015611d86575080511580611d86575080806020019051810190611d869190612415565b611da25760405162461bcd60e51b815260040161059990612ab0565b505050505050565b611e008363a9059cbb60e01b8484604051602401611dc99291906124fd565b60408051601f198184030181529190526020810180516001600160e01b03166001600160e01b031990931692909217909152611fa4565b505050565b3390565b6000818310611e185781611b48565b5090919050565b6000611e2a30612033565b15905090565b600054610100900460ff1680611e495750611e49611e1f565b80611e57575060005460ff16155b611e735760405162461bcd60e51b8152600401610599906128e0565b600054610100900460ff16158015611e9e576000805460ff1961ff0019909116610100171660011790555b611ea6612039565b611eae6120ba565b8015611ec0576000805461ff00191690555b50565b600054610100900460ff1680611edc5750611edc611e1f565b80611eea575060005460ff16155b611f065760405162461bcd60e51b8152600401610599906128e0565b600054610100900460ff16158015611f31576000805460ff1961ff0019909116610100171660011790555b611f39612039565b611eae612194565b60008184841115611f655760405162461bcd60e51b815260040161059991906125b3565b505050900390565b60008183611f8e5760405162461bcd60e51b815260040161059991906125b3565b506000838581611f9a57fe5b0495945050505050565b6060611ff9826040518060400160405280602081526020017f5361666545524332303a206c6f772d6c6576656c2063616c6c206661696c6564815250856001600160a01b03166122209092919063ffffffff16565b805190915015611e0057808060200190518101906120179190612415565b611e005760405162461bcd60e51b815260040161059990612a66565b3b151590565b600054610100900460ff16806120525750612052611e1f565b80612060575060005460ff16155b61207c5760405162461bcd60e51b8152600401610599906128e0565b600054610100900460ff16158015611eae576000805460ff1961ff0019909116610100171660011790558015611ec0576000805461ff001916905550565b600054610100900460ff16806120d357506120d3611e1f565b806120e1575060005460ff16155b6120fd5760405162461bcd60e51b8152600401610599906128e0565b600054610100900460ff16158015612128576000805460ff1961ff0019909116610100171660011790555b6000612132611e05565b606580546001600160a01b0319166001600160a01b038316908117909155604051919250906000907f8be0079c531659141344cd1fd0a4f28419497f9722a3daafe3b4186f6b6457e0908290a3508015611ec0576000805461ff001916905550565b600054610100900460ff16806121ad57506121ad611e1f565b806121bb575060005460ff16155b6121d75760405162461bcd60e51b8152600401610599906128e0565b600054610100900460ff16158015612202576000805460ff1961ff0019909116610100171660011790555b6033805460ff191690558015611ec0576000805461ff001916905550565b606061222f8484600085612237565b949350505050565b606061224285612033565b61225e5760405162461bcd60e51b815260040161059990612a2f565b60006060866001600160a01b0316858760405161227b91906124cd565b60006040518083038185875af1925050503d80600081146122b8576040519150601f19603f3d011682016040523d82523d6000602084013e6122bd565b606091505b509150915081156122d157915061222f9050565b8051156122e15780518082602001fd5b8360405162461bcd60e51b815260040161059991906125b3565b6040518060a0016040528060008019168152602001600081526020016000815260200160008152602001600081525090565b80356001600160a01b0381168114611b4b57600080fd5b600060208284031215612355578081fd5b611b48838361232d565b60008060408385031215612371578081fd5b61237b848461232d565b915061238a846020850161232d565b90509250929050565b600080600080608085870312156123a8578182fd5b6123b2868661232d565b93506123c1866020870161232d565b92506123d0866040870161232d565b915060608501356123e081612b72565b939692955090935050565b600080604083850312156123fd578182fd5b612407848461232d565b946020939093013593505050565b600060208284031215612426578081fd5b8151611b4881612b72565b600060208284031215612442578081fd5b5035919050565b60006020828403121561245a578081fd5b5051919050565b60008060408385031215612473578182fd5b50508035926020909101359150565b600060208284031215612493578081fd5b815160ff81168114611b48578182fd5b60609390931b6bffffffffffffffffffffffff191683526014830191909152603482015260540190565b600082516124df818460208701612b42565b9190910192915050565b6001600160a01b0391909116815260200190565b6001600160a01b03929092168252602082015260400190565b6001600160a01b039384168152919092166020820152604081019190915260600190565b602080825282518282018190526000919060409081850190868401855b8281101561259b5781518051855286810151878601528581015186860152606080820151908601526080908101519085015260a09093019290850190600101612557565b5091979650505050505050565b901515815260200190565b60006020825282518060208401526125d2816040850160208701612b42565b601f01601f19169190910160400192915050565b6020808252601b908201527f6164647265737320686173206265656e20677265796c69737465640000000000604082015260600190565b60208082526058908201527f50726576696f7573207265776172647320706572696f64206d7573742062652060408201527f636f6d706c657465206265666f7265206368616e67696e67207468652064757260608201527f6174696f6e20666f7220746865206e657720706572696f640000000000000000608082015260a00190565b6020808252603e908201527f596f752063616e206f6e6c79207374616b65206c6f636b6564206c697175696460408201527f69747920666f7220312c20322c20332c2035206f722031302079656172730000606082015260800190565b6020808252601690820152755374616b65206973207374696c6c206c6f636b65642160501b604082015260600190565b60208082526026908201527f4f776e61626c653a206e6577206f776e657220697320746865207a65726f206160408201526564647265737360d01b606082015260800190565b6020808252600e908201526d043616e6e6f74207374616b6520360941b604082015260600190565b6020808252601b908201527f536166654d6174683a206164646974696f6e206f766572666c6f770000000000604082015260600190565b6020808252601b908201527f506572696f6420686173206e6f74206578706972656420796574210000000000604082015260600190565b60208082526030908201527f596f7520617265206e6f7420746865206f776e6572206f722074686520676f7660408201526f65726e616e63652074696d656c6f636b60801b606082015260800190565b6020808252603e908201527f596f752063616e206f6e6c79207374616b65206c6f636b6564206c697175696460408201527f69747920313020796561727320666f72207472756520424420706f6f6c730000606082015260800190565b60208082526010908201526f14185d5cd8589b194e881c185d5cd95960821b604082015260600190565b6020808252602e908201527f496e697469616c697a61626c653a20636f6e747261637420697320616c72656160408201526d191e481a5b9a5d1a585b1a5e995960921b606082015260800190565b602080825260119082015270043616e6e6f74207769746864726177203607c1b604082015260600190565b60208082526021908201527f536166654d6174683a206d756c7469706c69636174696f6e206f766572666c6f6040820152607760f81b606082015260800190565b6020808252818101527f4f776e61626c653a2063616c6c6572206973206e6f7420746865206f776e6572604082015260600190565b6020808252601e908201527f4e6f7420737570706f72746564207374616b696e67206475726174696f6e0000604082015260600190565b6020808252600f908201526e14dd185ad9481b9bdd08199bdd5b99608a1b604082015260600190565b6020808252601d908201527f416464726573733a2063616c6c20746f206e6f6e2d636f6e7472616374000000604082015260600190565b6020808252602a908201527f5361666545524332303a204552433230206f7065726174696f6e20646964206e6040820152691bdd081cdd58d8d9595960b21b606082015260800190565b60208082526024908201527f5472616e7366657248656c7065723a205452414e534645525f46524f4d5f46416040820152631253115160e21b606082015260800190565b6020808252601f908201527f5265656e7472616e637947756172643a207265656e7472616e742063616c6c00604082015260600190565b90815260200190565b918252602082015260400190565b60005b83811015612b5d578181015183820152602001612b45565b83811115612b6c576000848401525b50505050565b8015158114611ec057600080fdfea2646970667358221220761105004527f0d4d4439c95a026ba3ab20c0e933c0bf3501b4d53daa659d73c64736f6c634300060b0033",
  "devdoc": {
    "kind": "dev",
    "methods": {
      "owner()": {
        "details": "Returns the address of the current owner."
      },
      "paused()": {
        "details": "Returns true if the contract is paused, and false otherwise."
      },
      "renounceOwnership()": {
        "details": "Leaves the contract without owner. It will not be possible to call `onlyOwner` functions anymore. Can only be called by the current owner. NOTE: Renouncing ownership will leave the contract without an owner, thereby removing any functionality that is only available to the owner."
      },
      "transferOwnership(address)": {
        "details": "Transfers ownership of the contract to a new account (`newOwner`). Can only be called by the current owner."
      }
    },
    "version": 1
  },
  "userdoc": {
    "kind": "user",
    "methods": {},
    "version": 1
  },
  "storageLayout": {
    "storage": [
      {
        "astId": 492,
        "contract": "contracts/Staking/StakingRewards.sol:StakingRewards",
        "label": "_initialized",
        "offset": 0,
        "slot": "0",
        "type": "t_bool"
      },
      {
        "astId": 495,
        "contract": "contracts/Staking/StakingRewards.sol:StakingRewards",
        "label": "_initializing",
        "offset": 1,
        "slot": "0",
        "type": "t_bool"
      },
      {
        "astId": 1447,
        "contract": "contracts/Staking/StakingRewards.sol:StakingRewards",
        "label": "__gap",
        "offset": 0,
        "slot": "1",
        "type": "t_array(t_uint256)50_storage"
      },
      {
        "astId": 1469,
        "contract": "contracts/Staking/StakingRewards.sol:StakingRewards",
        "label": "_paused",
        "offset": 0,
        "slot": "51",
        "type": "t_bool"
      },
      {
        "astId": 1560,
        "contract": "contracts/Staking/StakingRewards.sol:StakingRewards",
        "label": "__gap",
        "offset": 0,
        "slot": "52",
        "type": "t_array(t_uint256)49_storage"
      },
      {
        "astId": 10,
        "contract": "contracts/Staking/StakingRewards.sol:StakingRewards",
        "label": "_owner",
        "offset": 0,
        "slot": "101",
        "type": "t_address"
      },
      {
        "astId": 129,
        "contract": "contracts/Staking/StakingRewards.sol:StakingRewards",
        "label": "__gap",
        "offset": 0,
        "slot": "102",
        "type": "t_array(t_uint256)49_storage"
      },
      {
        "astId": 8942,
        "contract": "contracts/Staking/StakingRewards.sol:StakingRewards",
        "label": "DeploymentTimestamp",
        "offset": 0,
        "slot": "151",
        "type": "t_uint256"
      },
      {
        "astId": 8950,
        "contract": "contracts/Staking/StakingRewards.sol:StakingRewards",
        "label": "_reentry_guard_status",
        "offset": 0,
        "slot": "152",
        "type": "t_uint256"
      },
      {
        "astId": 8952,
        "contract": "contracts/Staking/StakingRewards.sol:StakingRewards",
        "label": "stakingToken",
        "offset": 0,
        "slot": "153",
        "type": "t_contract(ERC20)2158"
      },
      {
        "astId": 8954,
        "contract": "contracts/Staking/StakingRewards.sol:StakingRewards",
        "label": "timelock_address",
        "offset": 0,
        "slot": "154",
        "type": "t_address"
      },
      {
        "astId": 8956,
        "contract": "contracts/Staking/StakingRewards.sol:StakingRewards",
        "label": "stakingRewardsDistribution",
        "offset": 0,
        "slot": "155",
        "type": "t_contract(StakingRewardsDistribution)10660"
      },
      {
        "astId": 8958,
        "contract": "contracts/Staking/StakingRewards.sol:StakingRewards",
        "label": "periodFinish",
        "offset": 0,
        "slot": "156",
        "type": "t_uint256"
      },
      {
        "astId": 8960,
        "contract": "contracts/Staking/StakingRewards.sol:StakingRewards",
        "label": "isTrueBdPool",
        "offset": 0,
        "slot": "157",
        "type": "t_bool"
      },
      {
        "astId": 8962,
        "contract": "contracts/Staking/StakingRewards.sol:StakingRewards",
        "label": "rewardsDurationSeconds",
        "offset": 0,
        "slot": "158",
        "type": "t_uint256"
      },
      {
        "astId": 8964,
        "contract": "contracts/Staking/StakingRewards.sol:StakingRewards",
        "label": "lastUpdateTime",
        "offset": 0,
        "slot": "159",
        "type": "t_uint256"
      },
      {
        "astId": 8966,
        "contract": "contracts/Staking/StakingRewards.sol:StakingRewards",
        "label": "rewardPerTokenStored_REWARD_PRECISON",
        "offset": 0,
        "slot": "160",
        "type": "t_uint256"
      },
      {
        "astId": 8970,
        "contract": "contracts/Staking/StakingRewards.sol:StakingRewards",
        "label": "userRewardPerTokenPaid_REWARD_PRECISON",
        "offset": 0,
        "slot": "161",
        "type": "t_mapping(t_address,t_uint256)"
      },
      {
        "astId": 8974,
        "contract": "contracts/Staking/StakingRewards.sol:StakingRewards",
        "label": "rewards",
        "offset": 0,
        "slot": "162",
        "type": "t_mapping(t_address,t_uint256)"
      },
      {
        "astId": 8976,
        "contract": "contracts/Staking/StakingRewards.sol:StakingRewards",
        "label": "_staking_token_supply",
        "offset": 0,
        "slot": "163",
        "type": "t_uint256"
      },
      {
        "astId": 8978,
        "contract": "contracts/Staking/StakingRewards.sol:StakingRewards",
        "label": "_staking_token_boosted_supply",
        "offset": 0,
        "slot": "164",
        "type": "t_uint256"
      },
      {
        "astId": 8982,
        "contract": "contracts/Staking/StakingRewards.sol:StakingRewards",
        "label": "_unlocked_balances",
        "offset": 0,
        "slot": "165",
        "type": "t_mapping(t_address,t_uint256)"
      },
      {
        "astId": 8986,
        "contract": "contracts/Staking/StakingRewards.sol:StakingRewards",
        "label": "_locked_balances",
        "offset": 0,
        "slot": "166",
        "type": "t_mapping(t_address,t_uint256)"
      },
      {
        "astId": 8990,
        "contract": "contracts/Staking/StakingRewards.sol:StakingRewards",
        "label": "_boosted_balances",
        "offset": 0,
        "slot": "167",
        "type": "t_mapping(t_address,t_uint256)"
      },
      {
        "astId": 8995,
        "contract": "contracts/Staking/StakingRewards.sol:StakingRewards",
        "label": "lockedStakes",
        "offset": 0,
        "slot": "168",
        "type": "t_mapping(t_address,t_array(t_struct(LockedStake)9012_storage)dyn_storage)"
      },
      {
        "astId": 8999,
        "contract": "contracts/Staking/StakingRewards.sol:StakingRewards",
        "label": "greylist",
        "offset": 0,
        "slot": "169",
        "type": "t_mapping(t_address,t_bool)"
      },
      {
        "astId": 9001,
        "contract": "contracts/Staking/StakingRewards.sol:StakingRewards",
        "label": "unlockedStakes",
        "offset": 0,
        "slot": "170",
        "type": "t_bool"
      }
    ],
    "types": {
      "t_address": {
        "encoding": "inplace",
        "label": "address",
        "numberOfBytes": "20"
      },
      "t_array(t_struct(LockedStake)9012_storage)dyn_storage": {
        "base": "t_struct(LockedStake)9012_storage",
        "encoding": "dynamic_array",
        "label": "struct StakingRewards.LockedStake[]",
        "numberOfBytes": "32"
      },
      "t_array(t_uint256)49_storage": {
        "base": "t_uint256",
        "encoding": "inplace",
        "label": "uint256[49]",
        "numberOfBytes": "1568"
      },
      "t_array(t_uint256)50_storage": {
        "base": "t_uint256",
        "encoding": "inplace",
        "label": "uint256[50]",
        "numberOfBytes": "1600"
      },
      "t_bool": {
        "encoding": "inplace",
        "label": "bool",
        "numberOfBytes": "1"
      },
      "t_bytes32": {
        "encoding": "inplace",
        "label": "bytes32",
        "numberOfBytes": "32"
      },
      "t_contract(ERC20)2158": {
        "encoding": "inplace",
        "label": "contract ERC20",
        "numberOfBytes": "20"
      },
      "t_contract(StakingRewardsDistribution)10660": {
        "encoding": "inplace",
        "label": "contract StakingRewardsDistribution",
        "numberOfBytes": "20"
      },
      "t_mapping(t_address,t_array(t_struct(LockedStake)9012_storage)dyn_storage)": {
        "encoding": "mapping",
        "key": "t_address",
        "label": "mapping(address => struct StakingRewards.LockedStake[])",
        "numberOfBytes": "32",
        "value": "t_array(t_struct(LockedStake)9012_storage)dyn_storage"
      },
      "t_mapping(t_address,t_bool)": {
        "encoding": "mapping",
        "key": "t_address",
        "label": "mapping(address => bool)",
        "numberOfBytes": "32",
        "value": "t_bool"
      },
      "t_mapping(t_address,t_uint256)": {
        "encoding": "mapping",
        "key": "t_address",
        "label": "mapping(address => uint256)",
        "numberOfBytes": "32",
        "value": "t_uint256"
      },
      "t_struct(LockedStake)9012_storage": {
        "encoding": "inplace",
        "label": "struct StakingRewards.LockedStake",
        "members": [
          {
            "astId": 9003,
            "contract": "contracts/Staking/StakingRewards.sol:StakingRewards",
            "label": "kek_id",
            "offset": 0,
            "slot": "0",
            "type": "t_bytes32"
          },
          {
            "astId": 9005,
            "contract": "contracts/Staking/StakingRewards.sol:StakingRewards",
            "label": "start_timestamp",
            "offset": 0,
            "slot": "1",
            "type": "t_uint256"
          },
          {
            "astId": 9007,
            "contract": "contracts/Staking/StakingRewards.sol:StakingRewards",
            "label": "amount",
            "offset": 0,
            "slot": "2",
            "type": "t_uint256"
          },
          {
            "astId": 9009,
            "contract": "contracts/Staking/StakingRewards.sol:StakingRewards",
            "label": "ending_timestamp",
            "offset": 0,
            "slot": "3",
            "type": "t_uint256"
          },
          {
            "astId": 9011,
            "contract": "contracts/Staking/StakingRewards.sol:StakingRewards",
            "label": "multiplier_LOCK_MULTIPLIER_PRECISION",
            "offset": 0,
            "slot": "4",
            "type": "t_uint256"
          }
        ],
        "numberOfBytes": "160"
      },
      "t_uint256": {
        "encoding": "inplace",
        "label": "uint256",
        "numberOfBytes": "32"
      }
    }
  }
}