{
  "address": "0x073A1FB70Cdf7509F5c283D492d69fEE8FB8b626",
  "abi": [
    {
      "inputs": [
        {
          "internalType": "address",
          "name": "_feeToSetter",
          "type": "address"
        },
        {
          "internalType": "address",
          "name": "_treasury",
          "type": "address"
        }
      ],
      "stateMutability": "nonpayable",
      "type": "constructor"
    },
    {
      "anonymous": false,
      "inputs": [
        {
          "indexed": true,
          "internalType": "address",
          "name": "token0",
          "type": "address"
        },
        {
          "indexed": true,
          "internalType": "address",
          "name": "token1",
          "type": "address"
        },
        {
          "indexed": false,
          "internalType": "address",
          "name": "pair",
          "type": "address"
        },
        {
          "indexed": false,
          "internalType": "uint256",
          "name": "",
          "type": "uint256"
        }
      ],
      "name": "PairCreated",
      "type": "event"
    },
    {
      "inputs": [
        {
          "internalType": "uint256",
          "name": "",
          "type": "uint256"
        }
      ],
      "name": "allPairs",
      "outputs": [
        {
          "internalType": "address",
          "name": "",
          "type": "address"
        }
      ],
      "stateMutability": "view",
      "type": "function"
    },
    {
      "inputs": [],
      "name": "allPairsLength",
      "outputs": [
        {
          "internalType": "uint256",
          "name": "",
          "type": "uint256"
        }
      ],
      "stateMutability": "view",
      "type": "function"
    },
    {
      "inputs": [
        {
          "internalType": "address",
          "name": "tokenA",
          "type": "address"
        },
        {
          "internalType": "address",
          "name": "tokenB",
          "type": "address"
        }
      ],
      "name": "createPair",
      "outputs": [
        {
          "internalType": "address",
          "name": "pair",
          "type": "address"
        }
      ],
      "stateMutability": "nonpayable",
      "type": "function"
    },
    {
      "inputs": [],
      "name": "feeTo",
      "outputs": [
        {
          "internalType": "address",
          "name": "",
          "type": "address"
        }
      ],
      "stateMutability": "view",
      "type": "function"
    },
    {
      "inputs": [],
      "name": "feeToSetter",
      "outputs": [
        {
          "internalType": "address",
          "name": "",
          "type": "address"
        }
      ],
      "stateMutability": "view",
      "type": "function"
    },
    {
      "inputs": [
        {
          "internalType": "address",
          "name": "",
          "type": "address"
        },
        {
          "internalType": "address",
          "name": "",
          "type": "address"
        }
      ],
      "name": "getPair",
      "outputs": [
        {
          "internalType": "address",
          "name": "",
          "type": "address"
        }
      ],
      "stateMutability": "view",
      "type": "function"
    },
    {
      "inputs": [
        {
          "internalType": "address",
          "name": "_feeTo",
          "type": "address"
        }
      ],
      "name": "setFeeTo",
      "outputs": [],
      "stateMutability": "nonpayable",
      "type": "function"
    },
    {
      "inputs": [
        {
          "internalType": "address",
          "name": "_feeToSetter",
          "type": "address"
        }
      ],
      "name": "setFeeToSetter",
      "outputs": [],
      "stateMutability": "nonpayable",
      "type": "function"
    },
    {
      "inputs": [
        {
          "internalType": "address",
          "name": "_treasury",
          "type": "address"
        }
      ],
      "name": "setTreasury",
      "outputs": [],
      "stateMutability": "nonpayable",
      "type": "function"
    },
    {
      "inputs": [],
      "name": "treasury",
      "outputs": [
        {
          "internalType": "address",
          "name": "",
          "type": "address"
        }
      ],
      "stateMutability": "view",
      "type": "function"
    }
  ],
  "transactionHash": "0x30644c42468a99bd5973eecc672bbf58a14f00af3d03685d9434e1b9080b879e",
  "args": [
    "0x774289Cb40c98B4f5b64a152BF7e5F94Fee38669",
    "0x13Cb548287fde6931fA7782CcaB9772c858EFB99"
  ],
  "solcInputHash": "36185021115f3fccbe06894bb4a1b398",
  "bytecode": "0x608060405234801561001057600080fd5b50604051613ae2380380613ae28339818101604052604081101561003357600080fd5b508051602090910151600180546001600160a01b039384166001600160a01b03199182161790915560028054939092169216919091179055613a688061007a6000396000f3fe608060405234801561001057600080fd5b506004361061009e5760003560e01c8063a2e74af611610066578063a2e74af61461010e578063c9c6539614610136578063e6a4390514610164578063f0f4426014610192578063f46901ed146101b85761009e565b8063017e7e58146100a3578063094b7415146100c75780631e3dd18b146100cf578063574f2ba3146100ec57806361d027b314610106575b600080fd5b6100ab6101de565b604080516001600160a01b039092168252519081900360200190f35b6100ab6101ed565b6100ab600480360360208110156100e557600080fd5b50356101fc565b6100f4610223565b60408051918252519081900360200190f35b6100ab610229565b6101346004803603602081101561012457600080fd5b50356001600160a01b0316610238565b005b6100ab6004803603604081101561014c57600080fd5b506001600160a01b03813581169160200135166102b0565b6100ab6004803603604081101561017a57600080fd5b506001600160a01b03813581169160200135166106ff565b610134600480360360208110156101a857600080fd5b50356001600160a01b0316610725565b610134600480360360208110156101ce57600080fd5b50356001600160a01b031661079d565b6000546001600160a01b031681565b6001546001600160a01b031681565b6004818154811061020957fe5b6000918252602090912001546001600160a01b0316905081565b60045490565b6002546001600160a01b031681565b6001546001600160a01b0316331461028e576040805162461bcd60e51b81526020600482015260146024820152732ab734b9bbb0b82b191d102327a92124a22222a760611b604482015290519081900360640190fd5b600180546001600160a01b0319166001600160a01b0392909216919091179055565b6000816001600160a01b0316836001600160a01b03161415610319576040805162461bcd60e51b815260206004820152601e60248201527f556e697377617056323a204944454e544943414c5f4144445245535345530000604482015290519081900360640190fd5b600080836001600160a01b0316856001600160a01b03161061033c57838561033f565b84845b90925090506001600160a01b03821661039f576040805162461bcd60e51b815260206004820152601760248201527f556e697377617056323a205a45524f5f41444452455353000000000000000000604482015290519081900360640190fd5b6001600160a01b03828116600090815260036020908152604080832085851684529091529020541615610412576040805162461bcd60e51b8152602060048201526016602482015275556e697377617056323a20504149525f45584953545360501b604482015290519081900360640190fd5b60606040518060200161042490610815565b601f1982820381018352601f9091011660408181526001546001600160a01b03908116602084810191909152825180850382018152838501845260025490921660608086019190915283518086039091018152608085019093528451919360a0019182918601908083835b602083106104ae5780518252601f19909201916020918201910161048f565b51815160209384036101000a600019018019909216911617905286519190930192860191508083835b602083106104f65780518252601f1990920191602091820191016104d7565b51815160209384036101000a600019018019909216911617905285519190930192850191508083835b6020831061053e5780518252601f19909201916020918201910161051f565b51815160209384036101000a60001901801990921691161790526040805192909401828103601f1901835280855260608c811b6bffffffffffffffffffffffff1990811683850152908c901b16603482015284518082036028018152604890910190945283519381019390932081519198509650869550935050850190506000f56040805163485cc95560e01b81526001600160a01b038781166004830152868116602483015291519297509087169163485cc9559160448082019260009290919082900301818387803b15801561061557600080fd5b505af1158015610629573d6000803e3d6000fd5b505050506001600160a01b0384811660008181526003602081815260408084208987168086529083528185208054978d166001600160a01b031998891681179091559383528185208686528352818520805488168517905560048054600181018255958190527f8a35acfbc15ff81a39ae7d344fd709f28e8600b4aa8c65c6b64bfe7fe36bd19b90950180549097168417909655925483519283529082015281517f0d3648bd0f6ba80134a33ba9275ac585d9d315f0ad8355cddefde31afa28d0e9929181900390910190a35050505092915050565b60036020908152600092835260408084209091529082529020546001600160a01b031681565b6001546001600160a01b0316331461077b576040805162461bcd60e51b81526020600482015260146024820152732ab734b9bbb0b82b191d102327a92124a22222a760611b604482015290519081900360640190fd5b600280546001600160a01b0319166001600160a01b0392909216919091179055565b6001546001600160a01b031633146107f3576040805162461bcd60e51b81526020600482015260146024820152732ab734b9bbb0b82b191d102327a92124a22222a760611b604482015290519081900360640190fd5b600080546001600160a01b0319166001600160a01b0392909216919091179055565b613210806108238339019056fe6080604052610e10600c556078600d55600e805460ff1916905560006016556001601a5534801561002f57600080fd5b506040516132103803806132108339818101604052604081101561005257600080fd5b508051602090910151600580546001600160a01b03199081163317909155601780546001600160a01b039485169083161790556019805493909216921691909117905561316c806100a46000396000f3fe608060405234801561001057600080fd5b50600436106102d65760003560e01c80635a3d549311610182578063a9059cbb116100e9578063d505accf116100a2578063dd62ed3e1161007c578063dd62ed3e1461087b578063eef772f2146108a9578063f1551aea146108c6578063fff6cae9146108e5576102d6565b8063d505accf1461081a578063d6f124f01461086b578063dc6663c714610873576102d6565b8063a9059cbb146107a8578063b4d1d795146107d4578063ba9a7a56146107dc578063bc25cf77146107e4578063c45a01551461080a578063d21220a714610812576102d6565b80637ecebe001161013b5780637ecebe001461072357806380edef8e1461074957806389afcb441461075157806395d89b41146107905780639de12e2914610798578063a367e27d146107a0576102d6565b80635a3d5493146106895780635bef6a5f146106915780635cb9a714146106b25780636a627842146106cf57806370a08231146106f55780637464fc3d1461071b576102d6565b80631ac2c8251161024157806334dd1c88116101fa5780633fcb55ca116101d45780633fcb55ca14610643578063405ce1be1461064b578063485cc955146106535780635909c0d514610681576102d6565b806334dd1c88146105e95780633644e5151461060f5780633ddac95314610617576102d6565b80631ac2c825146105575780631e5a209e1461055f5780632232db221461056757806323b872dd1461058d57806330adf81f146105c3578063313ce567146105cb576102d6565b806309bf39ed1161029357806309bf39ed146104a85780630dfe1681146104b05780630f3a9f65146104d457806318160ddd146104f1578063185bec681461050b578063193fd18514610531576102d6565b8063022c0d9f146102db57806305585f991461036957806306fdde031461038d57806308acfd2e1461040a5780630902f1ac14610430578063095ea7b314610468575b600080fd5b610367600480360360808110156102f157600080fd5b8135916020810135916001600160a01b03604083013516919081019060808101606082013564010000000081111561032857600080fd5b82018360208201111561033a57600080fd5b8035906020019184600183028401116401000000008311171561035c57600080fd5b5090925090506108ed565b005b610371610f90565b604080516001600160e01b039092168252519081900360200190f35b610395610f9f565b6040805160208082528351818301528351919283929083019185019080838360005b838110156103cf5781810151838201526020016103b7565b50505050905090810190601f1680156103fc5780820380516001836020036101000a031916815260200191505b509250505060405180910390f35b6103676004803603602081101561042057600080fd5b50356001600160a01b0316610fc7565b610438611047565b604080516001600160701b03948516815292909316602083015263ffffffff168183015290519081900360600190f35b6104946004803603604081101561047e57600080fd5b506001600160a01b038135169060200135611071565b604080519115158252519081900360200190f35b610494611088565b6104b86110de565b604080516001600160a01b039092168252519081900360200190f35b610367600480360360208110156104ea57600080fd5b50356110ed565b6104f9611150565b60408051918252519081900360200190f35b6104f96004803603602081101561052157600080fd5b50356001600160a01b0316611156565b6103676004803603602081101561054757600080fd5b50356001600160a01b0316611168565b6104946111e8565b6104f96111f1565b6103676004803603602081101561057d57600080fd5b50356001600160a01b03166111f7565b610494600480360360608110156105a357600080fd5b506001600160a01b03813581169160208101359091169060400135611277565b6104f9611311565b6105d3611335565b6040805160ff9092168252519081900360200190f35b6104f9600480360360208110156105ff57600080fd5b50356001600160a01b031661133a565b6104f961134c565b6104f96004803603604081101561062d57600080fd5b506001600160a01b038135169060200135611352565b6104f96114bd565b6103716114c3565b6103676004803603604081101561066957600080fd5b506001600160a01b03813581169160200135166114d2565b6104f9611556565b6104f961155c565b610699611562565b6040805163ffffffff9092168252519081900360200190f35b610367600480360360208110156106c857600080fd5b503561156e565b6104f9600480360360208110156106e557600080fd5b50356001600160a01b03166115d1565b6104f96004803603602081101561070b57600080fd5b50356001600160a01b03166118d1565b6104f96118e3565b6104f96004803603602081101561073957600080fd5b50356001600160a01b03166118e9565b6104b86118fb565b6107776004803603602081101561076757600080fd5b50356001600160a01b031661190a565b6040805192835260208301919091528051918290030190f35b610395611cb0565b6104f9611cd2565b6104b8611cd8565b610494600480360360408110156107be57600080fd5b506001600160a01b038135169060200135611ce7565b6104f9611cf4565b6104f9611cfa565b610367600480360360208110156107fa57600080fd5b50356001600160a01b0316611d00565b6104b8611e66565b6104b8611e75565b610367600480360360e081101561083057600080fd5b506001600160a01b03813581169160208101359091169060408101359060608101359060ff6080820135169060a08101359060c00135611e84565b610367612086565b6104b8612213565b6104f96004803603604081101561089157600080fd5b506001600160a01b0381358116916020013516612222565b610367600480360360208110156108bf57600080fd5b503561223f565b610367600480360360208110156108dc57600080fd5b503515156122a2565b610367612313565b601a54600114610938576040805162461bcd60e51b8152602060048201526011602482015270155b9a5cddd85c158c8e881313d0d2d151607a1b604482015290519081900360640190fd5b6000601a558415158061094b5750600084115b6109865760405162461bcd60e51b8152600401808060200182810382526025815260200180612fd56025913960400191505060405180910390fd5b600080610991611047565b5091509150816001600160701b0316871080156109b65750806001600160701b031686105b6109f15760405162461bcd60e51b81526004018080602001828103825260218152602001806130536021913960400191505060405180910390fd5b60065460009081906001600160a01b03888116911614801590610a2257506007546001600160a01b03888116911614155b610a6b576040805162461bcd60e51b8152602060048201526015602482015274556e697377617056323a20494e56414c49445f544f60581b604482015290519081900360640190fd5b8815610b3c576016546001600160a01b038816600090815260156020526040902054610a9e90439063ffffffff61247516565b1015610b0957600654610acb906001600160a01b031688610ac68c600a63ffffffff6124be16565b612500565b600654601954610b04916001600160a01b039081169116610ac6600a610af88e600963ffffffff61269a16565b9063ffffffff6124be16565b610b20565b600654610b20906001600160a01b0316888b612500565b6001600160a01b03871660009081526014602052604090204390555b8715610bfc576016546001600160a01b038816600090815260146020526040902054610b6f90439063ffffffff61247516565b1015610bc957600754610b97906001600160a01b031688610ac68b600a63ffffffff6124be16565b600754601954610bc4916001600160a01b039081169116610ac6600a610af88d600963ffffffff61269a16565b610be0565b600754610be0906001600160a01b0316888a612500565b6001600160a01b03871660009081526015602052604090204390555b8415610cb757866001600160a01b03166310d1e85c338b8b8a8a6040518663ffffffff1660e01b815260040180866001600160a01b03166001600160a01b03168152602001858152602001848152602001806020018281038252848482818152602001925080828437600081840152601f19601f8201169050808301925050509650505050505050600060405180830381600087803b158015610c9e57600080fd5b505af1158015610cb2573d6000803e3d6000fd5b505050505b600654604080516370a0823160e01b815230600482015290516001600160a01b03909216916370a0823191602480820192602092909190829003018186803b158015610d0257600080fd5b505afa158015610d16573d6000803e3d6000fd5b505050506040513d6020811015610d2c57600080fd5b5051600754604080516370a0823160e01b815230600482015290519294506001600160a01b03909116916370a0823191602480820192602092909190829003018186803b158015610d7c57600080fd5b505afa158015610d90573d6000803e3d6000fd5b505050506040513d6020811015610da657600080fd5b5051905060006001600160701b0385168a90038311610dc6576000610dd5565b89856001600160701b03160383035b9050600089856001600160701b0316038311610df2576000610e01565b89856001600160701b03160383035b90506000821180610e125750600081115b610e4d5760405162461bcd60e51b8152600401808060200182810382526024815260200180612ffa6024913960400191505060405180910390fd5b6000610e81610e6384600363ffffffff61269a16565b610e75876103e863ffffffff61269a16565b9063ffffffff61247516565b90506000610e99610e6384600363ffffffff61269a16565b9050610eca620f4240610ebe6001600160701b038b8116908b1663ffffffff61269a16565b9063ffffffff61269a16565b610eda838363ffffffff61269a16565b1015610f1c576040805162461bcd60e51b815260206004820152600c60248201526b556e697377617056323a204b60a01b604482015290519081900360640190fd5b5050610f2a848488886126f3565b60408051838152602081018390528082018d9052606081018c905290516001600160a01b038b169133917fd78ad95fa46c994b6551d0da85fc275fe613ce37657fb8d5e3d130840159d8229181900360800190a350506001601a55505050505050505050565b6010546001600160e01b031681565b6040518060400160405280600c81526020016b0426c696e64657820537761760a41b81525081565b6017546001600160a01b0316331480610fea57506018546001600160a01b031633145b6110255760405162461bcd60e51b815260040180806020018281038252602f815260200180613108602f913960400191505060405180910390fd5b601980546001600160a01b0319166001600160a01b0392909216919091179055565b6008546001600160701b0380821692600160701b830490911691600160e01b900463ffffffff1690565b600061107e3384846128cb565b5060015b92915050565b6000603c8161109561292d565b601354600d54600c5463ffffffff938416945091909216830391018390038110806110c25750600e5460ff165b156110d357600093505050506110db565b600193505050505b90565b6006546001600160a01b031681565b6017546001600160a01b031633148061111057506018546001600160a01b031633145b61114b5760405162461bcd60e51b815260040180806020018281038252602f815260200180613108602f913960400191505060405180910390fd5b600c55565b60005481565b60146020526000908152604090205481565b6017546001600160a01b031633148061118b57506018546001600160a01b031633145b6111c65760405162461bcd60e51b815260040180806020018281038252602f815260200180613108602f913960400191505060405180910390fd5b601780546001600160a01b0319166001600160a01b0392909216919091179055565b600e5460ff1681565b60115481565b6017546001600160a01b031633148061121a57506018546001600160a01b031633145b6112555760405162461bcd60e51b815260040180806020018281038252602f815260200180613108602f913960400191505060405180910390fd5b601880546001600160a01b0319166001600160a01b0392909216919091179055565b6001600160a01b0383166000908152600260209081526040808320338452909152812054600019146112fc576001600160a01b03841660009081526002602090815260408083203384529091529020546112d7908363ffffffff61247516565b6001600160a01b03851660009081526002602090815260408083203384529091529020555b611307848484612937565b5060019392505050565b7f6e71edae12b1b97f4d1f60370fef10105fa2faae0126114a169c64845d6126c981565b601281565b60156020526000908152604090205481565b60035481565b60008061135d61292d565b601354600d54600c5463ffffffff938416945091909216830391018110806113875750600e5460ff165b6113c25760405162461bcd60e51b815260040180806020018281038252603581526020018061301e6035913960400191505060405180910390fd5b6006546001600160a01b038681169116141561141a576040805160208101909152600f546001600160e01b0316815261140a90611405908663ffffffff6129f116565b612a6f565b6001600160901b031692506114b5565b6007546001600160a01b0386811691161461147c576040805162461bcd60e51b815260206004820181905260248201527f556e6973776170506169724f7261636c653a20494e56414c49445f544f4b454e604482015290519081900360640190fd5b60408051602081019091526010546001600160e01b031681526114a990611405908663ffffffff6129f116565b6001600160901b031692505b505092915050565b600d5481565b600f546001600160e01b031681565b6005546001600160a01b03163314611528576040805162461bcd60e51b81526020600482015260146024820152732ab734b9bbb0b82b191d102327a92124a22222a760611b604482015290519081900360640190fd5b600680546001600160a01b039384166001600160a01b03199182161790915560078054929093169116179055565b60095481565b600a5481565b60135463ffffffff1681565b6017546001600160a01b031633148061159157506018546001600160a01b031633145b6115cc5760405162461bcd60e51b815260040180806020018281038252602f815260200180613108602f913960400191505060405180910390fd5b600d55565b6000601a5460011461161e576040805162461bcd60e51b8152602060048201526011602482015270155b9a5cddd85c158c8e881313d0d2d151607a1b604482015290519081900360640190fd5b6000601a8190558061162e611047565b50600654604080516370a0823160e01b815230600482015290519395509193506000926001600160a01b03909116916370a08231916024808301926020929190829003018186803b15801561168257600080fd5b505afa158015611696573d6000803e3d6000fd5b505050506040513d60208110156116ac57600080fd5b5051600754604080516370a0823160e01b815230600482015290519293506000926001600160a01b03909216916370a0823191602480820192602092909190829003018186803b1580156116ff57600080fd5b505afa158015611713573d6000803e3d6000fd5b505050506040513d602081101561172957600080fd5b505190506000611748836001600160701b03871663ffffffff61247516565b90506000611765836001600160701b03871663ffffffff61247516565b905060006117738787612a7a565b600054909150806117b05761179c6103e8610e75611797878763ffffffff61269a16565b612bd7565b98506117ab60006103e8612c28565b6117ff565b6117fc6001600160701b0389166117cd868463ffffffff61269a16565b816117d457fe5b046001600160701b0389166117ef868563ffffffff61269a16565b816117f657fe5b04612cbe565b98505b6000891161183e5760405162461bcd60e51b815260040180806020018281038252602881526020018061309c6028913960400191505060405180910390fd5b6118488a8a612c28565b61185486868a8a6126f3565b811561188457600854611880906001600160701b0380821691600160701b90041663ffffffff61269a16565b600b555b6040805185815260208101859052815133927f4c209b5fc8ad50758f13e2e1088ba56a560dff690a1c6fef26394f4c03821c4f928290030190a250506001601a5550949695505050505050565b60016020526000908152604090205481565b600b5481565b60046020526000908152604090205481565b6017546001600160a01b031681565b600080601a54600114611958576040805162461bcd60e51b8152602060048201526011602482015270155b9a5cddd85c158c8e881313d0d2d151607a1b604482015290519081900360640190fd5b6000601a81905580611968611047565b50600654600754604080516370a0823160e01b815230600482015290519496509294506001600160a01b039182169391169160009184916370a08231916024808301926020929190829003018186803b1580156119c457600080fd5b505afa1580156119d8573d6000803e3d6000fd5b505050506040513d60208110156119ee57600080fd5b5051604080516370a0823160e01b815230600482015290519192506000916001600160a01b038516916370a08231916024808301926020929190829003018186803b158015611a3c57600080fd5b505afa158015611a50573d6000803e3d6000fd5b505050506040513d6020811015611a6657600080fd5b505130600090815260016020526040812054919250611a858888612a7a565b60005490915080611a9c848763ffffffff61269a16565b81611aa357fe5b049a5080611ab7848663ffffffff61269a16565b81611abe57fe5b04995060008b118015611ad1575060008a115b611b0c5760405162461bcd60e51b81526004018080602001828103825260288152602001806130746028913960400191505060405180910390fd5b611b163084612cd4565b611b21878d8d612500565b611b2c868d8c612500565b604080516370a0823160e01b815230600482015290516001600160a01b038916916370a08231916024808301926020929190829003018186803b158015611b7257600080fd5b505afa158015611b86573d6000803e3d6000fd5b505050506040513d6020811015611b9c57600080fd5b5051604080516370a0823160e01b815230600482015290519196506001600160a01b038816916370a0823191602480820192602092909190829003018186803b158015611be857600080fd5b505afa158015611bfc573d6000803e3d6000fd5b505050506040513d6020811015611c1257600080fd5b50519350611c2285858b8b6126f3565b8115611c5257600854611c4e906001600160701b0380821691600160701b90041663ffffffff61269a16565b600b555b604080518c8152602081018c905281516001600160a01b038f169233927fdccd412f0b1252819cb1fd330b93224ca42612892bb3f4f789976e6d81936496929081900390910190a35050505050505050506001601a81905550915091565b6040518060400160405280600681526020016504244535741560d41b81525081565b60125481565b6019546001600160a01b031681565b600061107e338484612937565b600c5481565b6103e881565b601a54600114611d4b576040805162461bcd60e51b8152602060048201526011602482015270155b9a5cddd85c158c8e881313d0d2d151607a1b604482015290519081900360640190fd5b6000601a55600654600754600854604080516370a0823160e01b815230600482015290516001600160a01b039485169490931692611df59285928792610ac6926001600160701b03169185916370a0823191602480820192602092909190829003018186803b158015611dbd57600080fd5b505afa158015611dd1573d6000803e3d6000fd5b505050506040513d6020811015611de757600080fd5b50519063ffffffff61247516565b600854604080516370a0823160e01b81523060048201529051611e5c9284928792610ac692600160701b90046001600160701b0316916001600160a01b038616916370a0823191602480820192602092909190829003018186803b158015611dbd57600080fd5b50506001601a5550565b6005546001600160a01b031681565b6007546001600160a01b031681565b42841015611ece576040805162461bcd60e51b8152602060048201526012602482015271155b9a5cddd85c158c8e881156141254915160721b604482015290519081900360640190fd5b6003546001600160a01b0380891660008181526004602090815260408083208054600180820190925582517f6e71edae12b1b97f4d1f60370fef10105fa2faae0126114a169c64845d6126c98186015280840196909652958d166060860152608085018c905260a085019590955260c08085018b90528151808603909101815260e08501825280519083012061190160f01b6101008601526101028501969096526101228085019690965280518085039096018652610142840180825286519683019690962095839052610162840180825286905260ff89166101828501526101a284018890526101c28401879052519193926101e280820193601f1981019281900390910190855afa158015611fe9573d6000803e3d6000fd5b5050604051601f1901519150506001600160a01b0381161580159061201f5750886001600160a01b0316816001600160a01b0316145b612070576040805162461bcd60e51b815260206004820152601c60248201527f556e697377617056323a20494e56414c49445f5349474e415455524500000000604482015290519081900360640190fd5b61207b8989896128cb565b505050505050505050565b600061209061292d565b601354600c5491925063ffffffff9081168303919082161015806120be57506017546001600160a01b031633145b1561220f57600954600a5460085463ffffffff858116600160e01b90920416146121655760085463ffffffff600160e01b8204811686039190821690612116906001600160701b03600160701b820481169116612d72565b516008546001600160e01b0390911691909102939093019263ffffffff821690612153906001600160701b0380821691600160701b900416612d72565b516001600160e01b0316029190910190505b60405180602001604052808463ffffffff1660115485038161218357fe5b046001600160e01b039081169091529051600f80546001600160e01b031916919092161790556040805160208101909152601254819063ffffffff8616908403816121ca57fe5b046001600160e01b039081169091529051601080546001600160e01b031916919092161790556011919091556012556013805463ffffffff191663ffffffff84161790555b5050565b6018546001600160a01b031681565b600260209081526000928352604080842090915290825290205481565b6017546001600160a01b031633148061226257506018546001600160a01b031633145b61229d5760405162461bcd60e51b815260040180806020018281038252602f815260200180613108602f913960400191505060405180910390fd5b601655565b6017546001600160a01b03163314806122c557506018546001600160a01b031633145b6123005760405162461bcd60e51b815260040180806020018281038252602f815260200180613108602f913960400191505060405180910390fd5b600e805460ff1916911515919091179055565b601a5460011461235e576040805162461bcd60e51b8152602060048201526011602482015270155b9a5cddd85c158c8e881313d0d2d151607a1b604482015290519081900360640190fd5b6000601a55600654604080516370a0823160e01b8152306004820152905161246e926001600160a01b0316916370a08231916024808301926020929190829003018186803b1580156123af57600080fd5b505afa1580156123c3573d6000803e3d6000fd5b505050506040513d60208110156123d957600080fd5b5051600754604080516370a0823160e01b815230600482015290516001600160a01b03909216916370a0823191602480820192602092909190829003018186803b15801561242657600080fd5b505afa15801561243a573d6000803e3d6000fd5b505050506040513d602081101561245057600080fd5b50516008546001600160701b0380821691600160701b9004166126f3565b6001601a55565b60006124b783836040518060400160405280601e81526020017f536166654d6174683a207375627472616374696f6e206f766572666c6f770000815250612e22565b9392505050565b60006124b783836040518060400160405280601a81526020017f536166654d6174683a206469766973696f6e206279207a65726f000000000000815250612eb9565b604080518082018252601981527f7472616e7366657228616464726573732c75696e74323536290000000000000060209182015281516001600160a01b0385811660248301526044808301869052845180840390910181526064909201845291810180516001600160e01b031663a9059cbb60e01b1781529251815160009460609489169392918291908083835b602083106125ad5780518252601f19909201916020918201910161258e565b6001836020036101000a0380198251168184511680821785525050505050509050019150506000604051808303816000865af19150503d806000811461260f576040519150601f19603f3d011682016040523d82523d6000602084013e612614565b606091505b5091509150818015612642575080511580612642575080806020019051602081101561263f57600080fd5b50515b612693576040805162461bcd60e51b815260206004820152601a60248201527f556e697377617056323a205452414e534645525f4641494c4544000000000000604482015290519081900360640190fd5b5050505050565b6000826126a957506000611082565b828202828482816126b657fe5b04146124b75760405162461bcd60e51b81526004018080602001828103825260218152602001806130c46021913960400191505060405180910390fd5b6001600160701b03841180159061271157506001600160701b038311155b612758576040805162461bcd60e51b8152602060048201526013602482015272556e697377617056323a204f564552464c4f5760681b604482015290519081900360640190fd5b60085463ffffffff42811691600160e01b9004811682039081161580159061278857506001600160701b03841615155b801561279c57506001600160701b03831615155b1561280d578063ffffffff166127ca856127b586612f1e565b6001600160e01b03169063ffffffff612f3016565b600980546001600160e01b03929092169290920201905563ffffffff81166127f5846127b587612f1e565b600a80546001600160e01b0392909216929092020190555b600880546dffffffffffffffffffffffffffff19166001600160701b03888116919091176dffffffffffffffffffffffffffff60701b1916600160701b91881691909102176001600160e01b0316600160e01b63ffffffff851602179055612873612086565b600854604080516001600160701b038084168252600160701b909304909216602083015280517f1c411e9a96e071241c2f21f7726b17ae89e3cab4c78be50e062b03a9fffbbad19281900390910190a1505050505050565b6001600160a01b03808416600081815260026020908152604080832094871680845294825291829020859055815185815291517f8c5be1e5ebec7d5bd14f71427d1e84f3dd0314c0f7b2291e5b200ac8c7c3b9259281900390910190a3505050565b63ffffffff421690565b6001600160a01b038316600090815260016020526040902054612960908263ffffffff61247516565b6001600160a01b038085166000908152600160205260408082209390935590841681522054612995908263ffffffff612f5516565b6001600160a01b0380841660008181526001602090815260409182902094909455805185815290519193928716927fddf252ad1be2c89b69c2b068fc378daa952ba7f163c4a11628f55a4df523b3ef92918290030190a3505050565b6129f9612faf565b6000821580612a1f57505082516001600160e01b031682810290838281612a1c57fe5b04145b612a5a5760405162461bcd60e51b81526004018080602001828103825260238152602001806130e56023913960400191505060405180910390fd5b60408051602081019091529081529392505050565b805160701c5b919050565b600080600560009054906101000a90046001600160a01b03166001600160a01b031663017e7e586040518163ffffffff1660e01b815260040160206040518083038186803b158015612acb57600080fd5b505afa158015612adf573d6000803e3d6000fd5b505050506040513d6020811015612af557600080fd5b5051600b546001600160a01b038216158015945091925090612bc4578015612bbf576000612b386117976001600160701b0388811690881663ffffffff61269a16565b90506000612b4583612bd7565b905080821115612bbc576000612b73612b64848463ffffffff61247516565b6000549063ffffffff61269a16565b90506000612b9883612b8c86600563ffffffff61269a16565b9063ffffffff612f5516565b90506000818381612ba557fe5b0490508015612bb857612bb88782612c28565b5050505b50505b6114b5565b80156114b5576000600b55505092915050565b60006003821115612c1a575080600160028204015b81811015612c1457809150600281828581612c0357fe5b040181612c0c57fe5b049050612bec565b50612a75565b8115612a7557506001919050565b600054612c3b908263ffffffff612f5516565b60009081556001600160a01b038316815260016020526040902054612c66908263ffffffff612f5516565b6001600160a01b03831660008181526001602090815260408083209490945583518581529351929391927fddf252ad1be2c89b69c2b068fc378daa952ba7f163c4a11628f55a4df523b3ef9281900390910190a35050565b6000818310612ccd57816124b7565b5090919050565b6001600160a01b038216600090815260016020526040902054612cfd908263ffffffff61247516565b6001600160a01b03831660009081526001602052604081209190915554612d2a908263ffffffff61247516565b60009081556040805183815290516001600160a01b038516917fddf252ad1be2c89b69c2b068fc378daa952ba7f163c4a11628f55a4df523b3ef919081900360200190a35050565b612d7a612fc2565b6000826001600160701b031611612dd8576040805162461bcd60e51b815260206004820152601760248201527f4669786564506f696e743a204449565f42595f5a45524f000000000000000000604482015290519081900360640190fd5b6040805160208101909152806001600160701b0384166dffffffffffffffffffffffffffff60701b607087901b1681612e0d57fe5b046001600160e01b0316815250905092915050565b60008184841115612eb15760405162461bcd60e51b81526004018080602001828103825283818151815260200191508051906020019080838360005b83811015612e76578181015183820152602001612e5e565b50505050905090810190601f168015612ea35780820380516001836020036101000a031916815260200191505b509250505060405180910390fd5b505050900390565b60008183612f085760405162461bcd60e51b8152602060048201818152835160248401528351909283926044909101919085019080838360008315612e76578181015183820152602001612e5e565b506000838581612f1457fe5b0495945050505050565b6001600160701b0316600160701b0290565b60006001600160701b0382166001600160e01b03841681612f4d57fe5b049392505050565b6000828201838110156124b7576040805162461bcd60e51b815260206004820152601b60248201527f536166654d6174683a206164646974696f6e206f766572666c6f770000000000604482015290519081900360640190fd5b6040518060200160405280600081525090565b6040805160208101909152600081529056fe556e697377617056323a20494e53554646494349454e545f4f55545055545f414d4f554e54556e697377617056323a20494e53554646494349454e545f494e5055545f414d4f554e54556e6973776170506169724f7261636c653a2050524943455f49535f5354414c455f4e4545445f544f5f43414c4c5f555044415445556e697377617056323a20494e53554646494349454e545f4c4951554944495459556e697377617056323a20494e53554646494349454e545f4c49515549444954595f4255524e4544556e697377617056323a20494e53554646494349454e545f4c49515549444954595f4d494e544544536166654d6174683a206d756c7469706c69636174696f6e206f766572666c6f774669786564506f696e743a204d554c5449504c49434154494f4e5f4f564552464c4f57596f7520617265206e6f7420616e206f776e6572206f722074686520676f7665726e616e63652074696d656c6f636ba2646970667358221220fd378d4cd410162188972eef12a815c434d29e58289119ac75e34c85e1048b1364736f6c634300060b0033a264697066735822122082cc945fbee12b650c4a932ef8cf182b62ef765187911a7b5d410ec1620a0e4f64736f6c634300060b0033",
  "devdoc": {
    "kind": "dev",
    "methods": {},
    "version": 1
  },
  "userdoc": {
    "kind": "user",
    "methods": {},
    "version": 1
  },
  "storageLayout": {
    "storage": [
      {
        "astId": 12375,
        "contract": "contracts/Uniswap/UniswapV2Factory.sol:UniswapV2Factory",
        "label": "feeTo",
        "offset": 0,
        "slot": "0",
        "type": "t_address"
      },
      {
        "astId": 12378,
        "contract": "contracts/Uniswap/UniswapV2Factory.sol:UniswapV2Factory",
        "label": "feeToSetter",
        "offset": 0,
        "slot": "1",
        "type": "t_address"
      },
      {
        "astId": 12381,
        "contract": "contracts/Uniswap/UniswapV2Factory.sol:UniswapV2Factory",
        "label": "treasury",
        "offset": 0,
        "slot": "2",
        "type": "t_address"
      },
      {
        "astId": 12388,
        "contract": "contracts/Uniswap/UniswapV2Factory.sol:UniswapV2Factory",
        "label": "getPair",
        "offset": 0,
        "slot": "3",
        "type": "t_mapping(t_address,t_mapping(t_address,t_address))"
      },
      {
        "astId": 12392,
        "contract": "contracts/Uniswap/UniswapV2Factory.sol:UniswapV2Factory",
        "label": "allPairs",
        "offset": 0,
        "slot": "4",
        "type": "t_array(t_address)dyn_storage"
      }
    ],
    "types": {
      "t_address": {
        "encoding": "inplace",
        "label": "address",
        "numberOfBytes": "20"
      },
      "t_array(t_address)dyn_storage": {
        "base": "t_address",
        "encoding": "dynamic_array",
        "label": "address[]",
        "numberOfBytes": "32"
      },
      "t_mapping(t_address,t_address)": {
        "encoding": "mapping",
        "key": "t_address",
        "label": "mapping(address => address)",
        "numberOfBytes": "32",
        "value": "t_address"
      },
      "t_mapping(t_address,t_mapping(t_address,t_address))": {
        "encoding": "mapping",
        "key": "t_address",
        "label": "mapping(address => mapping(address => address))",
        "numberOfBytes": "32",
        "value": "t_mapping(t_address,t_address)"
      }
    }
  }
}