{
  "address": "0x5cCeF3941e064b29ea7ea76D0023CD8839ddB64b",
  "abi": [
    {
      "inputs": [
        {
          "internalType": "address",
          "name": "_owner",
          "type": "address"
        },
        {
          "internalType": "address",
          "name": "_treasury",
          "type": "address"
        },
        {
          "internalType": "uint256",
          "name": "_maxSpotVsOraclePriceDivergence_d12",
          "type": "uint256"
        }
      ],
      "stateMutability": "nonpayable",
      "type": "constructor"
    },
    {
      "anonymous": false,
      "inputs": [
        {
          "indexed": true,
          "internalType": "address",
          "name": "token0",
          "type": "address"
        },
        {
          "indexed": true,
          "internalType": "address",
          "name": "token1",
          "type": "address"
        },
        {
          "indexed": false,
          "internalType": "address",
          "name": "pair",
          "type": "address"
        },
        {
          "indexed": false,
          "internalType": "uint256",
          "name": "",
          "type": "uint256"
        }
      ],
      "name": "PairCreated",
      "type": "event"
    },
    {
      "inputs": [
        {
          "internalType": "uint256",
          "name": "",
          "type": "uint256"
        }
      ],
      "name": "allPairs",
      "outputs": [
        {
          "internalType": "address",
          "name": "",
          "type": "address"
        }
      ],
      "stateMutability": "view",
      "type": "function"
    },
    {
      "inputs": [],
      "name": "allPairsLength",
      "outputs": [
        {
          "internalType": "uint256",
          "name": "",
          "type": "uint256"
        }
      ],
      "stateMutability": "view",
      "type": "function"
    },
    {
      "inputs": [
        {
          "internalType": "address",
          "name": "tokenA",
          "type": "address"
        },
        {
          "internalType": "address",
          "name": "tokenB",
          "type": "address"
        }
      ],
      "name": "createPair",
      "outputs": [
        {
          "internalType": "address",
          "name": "pair",
          "type": "address"
        }
      ],
      "stateMutability": "nonpayable",
      "type": "function"
    },
    {
      "inputs": [],
      "name": "feeTo",
      "outputs": [
        {
          "internalType": "address",
          "name": "",
          "type": "address"
        }
      ],
      "stateMutability": "view",
      "type": "function"
    },
    {
      "inputs": [
        {
          "internalType": "address",
          "name": "",
          "type": "address"
        },
        {
          "internalType": "address",
          "name": "",
          "type": "address"
        }
      ],
      "name": "getPair",
      "outputs": [
        {
          "internalType": "address",
          "name": "",
          "type": "address"
        }
      ],
      "stateMutability": "view",
      "type": "function"
    },
    {
      "inputs": [],
      "name": "maxSpotVsOraclePriceDivergence_d12",
      "outputs": [
        {
          "internalType": "uint256",
          "name": "",
          "type": "uint256"
        }
      ],
      "stateMutability": "view",
      "type": "function"
    },
    {
      "inputs": [],
      "name": "owner",
      "outputs": [
        {
          "internalType": "address",
          "name": "",
          "type": "address"
        }
      ],
      "stateMutability": "view",
      "type": "function"
    },
    {
      "inputs": [
        {
          "internalType": "address",
          "name": "_feeTo",
          "type": "address"
        }
      ],
      "name": "setFeeTo",
      "outputs": [],
      "stateMutability": "nonpayable",
      "type": "function"
    },
    {
      "inputs": [
        {
          "internalType": "uint256",
          "name": "_maxSpotVsOraclePriceDivergence_d12",
          "type": "uint256"
        }
      ],
      "name": "setMaxSpotVsOraclePriceDivergence_d12",
      "outputs": [],
      "stateMutability": "nonpayable",
      "type": "function"
    },
    {
      "inputs": [
        {
          "internalType": "address",
          "name": "_owner",
          "type": "address"
        }
      ],
      "name": "setOwner",
      "outputs": [],
      "stateMutability": "nonpayable",
      "type": "function"
    },
    {
      "inputs": [
        {
          "internalType": "address",
          "name": "_treasury",
          "type": "address"
        }
      ],
      "name": "setTreasury",
      "outputs": [],
      "stateMutability": "nonpayable",
      "type": "function"
    },
    {
      "inputs": [],
      "name": "treasury",
      "outputs": [
        {
          "internalType": "address",
          "name": "",
          "type": "address"
        }
      ],
      "stateMutability": "view",
      "type": "function"
    }
  ],
  "transactionHash": "0xca6f5d00067967248efaf713e112fc28fcdd95a8e5936681b38165a4f0b0b160",
  "args": [
    "0x774289Cb40c98B4f5b64a152BF7e5F94Fee38669",
    "0x13Cb548287fde6931fA7782CcaB9772c858EFB99",
    10000000000
  ],
  "solcInputHash": "7fc5f7df362effb291697cb25232d91e",
  "bytecode": "0x608060405234801561001057600080fd5b50604051613b34380380613b348339818101604052606081101561003357600080fd5b5080516020820151604090920151600180546001600160a01b039384166001600160a01b0319918216179091556002805493909416921691909117909155600355613ab1806100836000396000f3fe608060405234801561001057600080fd5b50600436106100b45760003560e01c80638aa6d2cf116100715780638aa6d2cf146101615780638da5cb5b14610169578063c9c6539614610171578063e6a439051461019f578063f0f44260146101cd578063f46901ed146101f3576100b4565b8063017e7e58146100b957806313af4035146100dd5780631e3dd18b1461010557806346346a1214610122578063574f2ba31461013f57806361d027b314610159575b600080fd5b6100c1610219565b604080516001600160a01b039092168252519081900360200190f35b610103600480360360208110156100f357600080fd5b50356001600160a01b0316610228565b005b6100c16004803603602081101561011b57600080fd5b50356102a0565b6101036004803603602081101561013857600080fd5b50356102c7565b610147610322565b60408051918252519081900360200190f35b6100c1610328565b610147610337565b6100c161033d565b6100c16004803603604081101561018757600080fd5b506001600160a01b038135811691602001351661034c565b6100c1600480360360408110156101b557600080fd5b506001600160a01b038135811691602001351661079b565b610103600480360360208110156101e357600080fd5b50356001600160a01b03166107c1565b6101036004803603602081101561020957600080fd5b50356001600160a01b0316610839565b6000546001600160a01b031681565b6001546001600160a01b0316331461027e576040805162461bcd60e51b81526020600482015260146024820152732ab734b9bbb0b82b191d102327a92124a22222a760611b604482015290519081900360640190fd5b600180546001600160a01b0319166001600160a01b0392909216919091179055565b600581815481106102ad57fe5b6000918252602090912001546001600160a01b0316905081565b6001546001600160a01b0316331461031d576040805162461bcd60e51b81526020600482015260146024820152732ab734b9bbb0b82b191d102327a92124a22222a760611b604482015290519081900360640190fd5b600355565b60055490565b6002546001600160a01b031681565b60035481565b6001546001600160a01b031681565b6000816001600160a01b0316836001600160a01b031614156103b5576040805162461bcd60e51b815260206004820152601e60248201527f556e697377617056323a204944454e544943414c5f4144445245535345530000604482015290519081900360640190fd5b600080836001600160a01b0316856001600160a01b0316106103d85783856103db565b84845b90925090506001600160a01b03821661043b576040805162461bcd60e51b815260206004820152601760248201527f556e697377617056323a205a45524f5f41444452455353000000000000000000604482015290519081900360640190fd5b6001600160a01b038281166000908152600460209081526040808320858516845290915290205416156104ae576040805162461bcd60e51b8152602060048201526016602482015275556e697377617056323a20504149525f45584953545360501b604482015290519081900360640190fd5b6060604051806020016104c0906108b1565b601f1982820381018352601f9091011660408181526001546001600160a01b03908116602084810191909152825180850382018152838501845260025490921660608086019190915283518086039091018152608085019093528451919360a0019182918601908083835b6020831061054a5780518252601f19909201916020918201910161052b565b51815160209384036101000a600019018019909216911617905286519190930192860191508083835b602083106105925780518252601f199092019160209182019101610573565b51815160209384036101000a600019018019909216911617905285519190930192850191508083835b602083106105da5780518252601f1990920191602091820191016105bb565b51815160209384036101000a60001901801990921691161790526040805192909401828103601f1901835280855260608c811b6bffffffffffffffffffffffff1990811683850152908c901b16603482015284518082036028018152604890910190945283519381019390932081519198509650869550935050850190506000f56040805163485cc95560e01b81526001600160a01b038781166004830152868116602483015291519297509087169163485cc9559160448082019260009290919082900301818387803b1580156106b157600080fd5b505af11580156106c5573d6000803e3d6000fd5b505050506001600160a01b0384811660008181526004602081815260408084208987168086529083528185208054978d166001600160a01b031998891681179091559383528185208686528352818520805488168517905560058054600181018255958190527f036b6384b5eca791c62761152d0c79bb0604c104a5fb6f4eb0703f3154bb3db090950180549097168417909655925483519283529082015281517f0d3648bd0f6ba80134a33ba9275ac585d9d315f0ad8355cddefde31afa28d0e9929181900390910190a35050505092915050565b60046020908152600092835260408084209091529082529020546001600160a01b031681565b6001546001600160a01b03163314610817576040805162461bcd60e51b81526020600482015260146024820152732ab734b9bbb0b82b191d102327a92124a22222a760611b604482015290519081900360640190fd5b600280546001600160a01b0319166001600160a01b0392909216919091179055565b6001546001600160a01b0316331461088f576040805162461bcd60e51b81526020600482015260146024820152732ab734b9bbb0b82b191d102327a92124a22222a760611b604482015290519081900360640190fd5b600080546001600160a01b0319166001600160a01b0392909216919091179055565b6131bd806108bf8339019056fe6080604052610e10600c556078600d55603c600e55600f805460ff1916905560006017556001601a5534801561003457600080fd5b506040516131bd3803806131bd8339818101604052604081101561005757600080fd5b508051602090910151600580546001600160a01b03199081163317909155601880546001600160a01b0394851690831617905560198054939092169216919091179055613114806100a96000396000f3fe608060405234801561001057600080fd5b50600436106102d65760003560e01c80635bef6a5f11610182578063a9059cbb116100e9578063d21220a7116100a2578063dd62ed3e1161007c578063dd62ed3e14610872578063eef772f2146108a0578063f1551aea146108bd578063fff6cae9146108dc576102d6565b8063d21220a714610811578063d505accf14610819578063d6f124f01461086a576102d6565b8063a9059cbb1461078a578063b4d1d795146107b6578063ba9a7a56146107be578063bc25cf77146107c6578063c3ce111d146107ec578063c45a015514610809576102d6565b806380edef8e1161013b57806380edef8e1461072357806389afcb441461072b57806395d89b411461076a5780639bd9a31c146107725780639de12e291461077a578063a367e27d14610782576102d6565b80635bef6a5f1461066b5780635cb9a7141461068c5780636a627842146106a957806370a08231146106cf5780637464fc3d146106f55780637ecebe00146106fd576102d6565b80631ac2c825116102415780633644e515116101fa578063405ce1be116101d4578063405ce1be14610625578063485cc9551461062d5780635909c0d51461065b5780635a3d549314610663576102d6565b80633644e515146105e95780633ddac953146105f15780633fcb55ca1461061d576102d6565b80631ac2c825146105575780631e5a209e1461055f57806323b872dd1461056757806330adf81f1461059d578063313ce567146105a557806334dd1c88146105c3576102d6565b806309bf39ed1161029357806309bf39ed146104a85780630dfe1681146104b05780630f3a9f65146104d457806318160ddd146104f1578063185bec681461050b578063193fd18514610531576102d6565b8063022c0d9f146102db57806305585f991461036957806306fdde031461038d57806308acfd2e1461040a5780630902f1ac14610430578063095ea7b314610468575b600080fd5b610367600480360360808110156102f157600080fd5b8135916020810135916001600160a01b03604083013516919081019060808101606082013564010000000081111561032857600080fd5b82018360208201111561033a57600080fd5b8035906020019184600183028401116401000000008311171561035c57600080fd5b5090925090506108e4565b005b610371610f87565b604080516001600160e01b039092168252519081900360200190f35b610395610f96565b6040805160208082528351818301528351919283929083019185019080838360005b838110156103cf5781810151838201526020016103b7565b50505050905090810190601f1680156103fc5780820380516001836020036101000a031916815260200191505b509250505060405180910390f35b6103676004803603602081101561042057600080fd5b50356001600160a01b0316610fbe565b610438611036565b604080516001600160701b03948516815292909316602083015263ffffffff168183015290519081900360600190f35b6104946004803603604081101561047e57600080fd5b506001600160a01b038135169060200135611060565b604080519115158252519081900360200190f35b610494611077565b6104b86110fb565b604080516001600160a01b039092168252519081900360200190f35b610367600480360360208110156104ea57600080fd5b503561110a565b6104f9611165565b60408051918252519081900360200190f35b6104f96004803603602081101561052157600080fd5b50356001600160a01b031661116b565b6103676004803603602081101561054757600080fd5b50356001600160a01b031661117d565b6104946111f5565b6104f96111fe565b6104946004803603606081101561057d57600080fd5b506001600160a01b03813581169160208101359091169060400135611204565b6104f961129e565b6105ad6112c2565b6040805160ff9092168252519081900360200190f35b6104f9600480360360208110156105d957600080fd5b50356001600160a01b03166112c7565b6104f96112d9565b6104f96004803603604081101561060757600080fd5b506001600160a01b0381351690602001356112df565b6104f9611434565b61037161143a565b6103676004803603604081101561064357600080fd5b506001600160a01b0381358116916020013516611449565b6104f96114cd565b6104f96114d3565b6106736114d9565b6040805163ffffffff9092168252519081900360200190f35b610367600480360360208110156106a257600080fd5b50356114e5565b6104f9600480360360208110156106bf57600080fd5b50356001600160a01b0316611540565b6104f9600480360360208110156106e557600080fd5b50356001600160a01b0316611840565b6104f9611852565b6104f96004803603602081101561071357600080fd5b50356001600160a01b0316611858565b6104b861186a565b6107516004803603602081101561074157600080fd5b50356001600160a01b0316611879565b6040805192835260208301919091528051918290030190f35b610395611c1f565b6104f9611c41565b6104f9611c47565b6104b8611c4d565b610494600480360360408110156107a057600080fd5b506001600160a01b038135169060200135611c5c565b6104f9611c69565b6104f9611c6f565b610367600480360360208110156107dc57600080fd5b50356001600160a01b0316611c75565b6103676004803603602081101561080257600080fd5b5035611ddb565b6104b8611e36565b6104b8611e45565b610367600480360360e081101561082f57600080fd5b506001600160a01b03813581169160208101359091169060408101359060608101359060ff6080820135169060a08101359060c00135611e54565b610367612056565b6104f96004803603604081101561088857600080fd5b506001600160a01b03813581169160200135166121e3565b610367600480360360208110156108b657600080fd5b5035612200565b610367600480360360208110156108d357600080fd5b5035151561225b565b6103676122c4565b601a5460011461092f576040805162461bcd60e51b8152602060048201526011602482015270155b9a5cddd85c158c8e881313d0d2d151607a1b604482015290519081900360640190fd5b6000601a55841515806109425750600084115b61097d5760405162461bcd60e51b8152600401808060200182810382526025815260200180612f866025913960400191505060405180910390fd5b600080610988611036565b5091509150816001600160701b0316871080156109ad5750806001600160701b031686105b6109e85760405162461bcd60e51b8152600401808060200182810382526021815260200180612ff26021913960400191505060405180910390fd5b60065460009081906001600160a01b03888116911614801590610a1957506007546001600160a01b03888116911614155b610a62576040805162461bcd60e51b8152602060048201526015602482015274556e697377617056323a20494e56414c49445f544f60581b604482015290519081900360640190fd5b8815610b33576017546001600160a01b038816600090815260166020526040902054610a9590439063ffffffff61242616565b1015610b0057600654610ac2906001600160a01b031688610abd8c600a63ffffffff61246f16565b6124b1565b600654601954610afb916001600160a01b039081169116610abd600a610aef8e600963ffffffff61264b16565b9063ffffffff61246f16565b610b17565b600654610b17906001600160a01b0316888b6124b1565b6001600160a01b03871660009081526015602052604090204390555b8715610bf3576017546001600160a01b038816600090815260156020526040902054610b6690439063ffffffff61242616565b1015610bc057600754610b8e906001600160a01b031688610abd8b600a63ffffffff61246f16565b600754601954610bbb916001600160a01b039081169116610abd600a610aef8d600963ffffffff61264b16565b610bd7565b600754610bd7906001600160a01b0316888a6124b1565b6001600160a01b03871660009081526016602052604090204390555b8415610cae57866001600160a01b03166310d1e85c338b8b8a8a6040518663ffffffff1660e01b815260040180866001600160a01b03166001600160a01b03168152602001858152602001848152602001806020018281038252848482818152602001925080828437600081840152601f19601f8201169050808301925050509650505050505050600060405180830381600087803b158015610c9557600080fd5b505af1158015610ca9573d6000803e3d6000fd5b505050505b600654604080516370a0823160e01b815230600482015290516001600160a01b03909216916370a0823191602480820192602092909190829003018186803b158015610cf957600080fd5b505afa158015610d0d573d6000803e3d6000fd5b505050506040513d6020811015610d2357600080fd5b5051600754604080516370a0823160e01b815230600482015290519294506001600160a01b03909116916370a0823191602480820192602092909190829003018186803b158015610d7357600080fd5b505afa158015610d87573d6000803e3d6000fd5b505050506040513d6020811015610d9d57600080fd5b5051905060006001600160701b0385168a90038311610dbd576000610dcc565b89856001600160701b03160383035b9050600089856001600160701b0316038311610de9576000610df8565b89856001600160701b03160383035b90506000821180610e095750600081115b610e445760405162461bcd60e51b8152600401808060200182810382526024815260200180612fab6024913960400191505060405180910390fd5b6000610e78610e5a84600363ffffffff61264b16565b610e6c876103e863ffffffff61264b16565b9063ffffffff61242616565b90506000610e90610e5a84600363ffffffff61264b16565b9050610ec1620f4240610eb56001600160701b038b8116908b1663ffffffff61264b16565b9063ffffffff61264b16565b610ed1838363ffffffff61264b16565b1015610f13576040805162461bcd60e51b815260206004820152600c60248201526b556e697377617056323a204b60a01b604482015290519081900360640190fd5b5050610f21848488886126a4565b60408051838152602081018390528082018d9052606081018c905290516001600160a01b038b169133917fd78ad95fa46c994b6551d0da85fc275fe613ce37657fb8d5e3d130840159d8229181900360800190a350506001601a55505050505050505050565b6011546001600160e01b031681565b6040518060400160405280600c81526020016b0426c696e64657820537761760a41b81525081565b6018546001600160a01b03163314611014576040805162461bcd60e51b81526020600482015260146024820152732cb7ba9030b932903737ba1030b71037bbb732b960611b604482015290519081900360640190fd5b601980546001600160a01b0319166001600160a01b0392909216919091179055565b6008546001600160701b0380821692600160701b830490911691600160e01b900463ffffffff1690565b600061106d33848461287c565b5060015b92915050565b6000806110826128de565b601454600e54600d54600c5463ffffffff948516955093909216840392909101038110806110b25750600f5460ff165b806110c657506008546001600160701b0316155b806110e15750600854600160701b90046001600160701b0316155b156110f1576000925050506110f8565b6001925050505b90565b6006546001600160a01b031681565b6018546001600160a01b03163314611160576040805162461bcd60e51b81526020600482015260146024820152732cb7ba9030b932903737ba1030b71037bbb732b960611b604482015290519081900360640190fd5b600c55565b60005481565b60156020526000908152604090205481565b6018546001600160a01b031633146111d3576040805162461bcd60e51b81526020600482015260146024820152732cb7ba9030b932903737ba1030b71037bbb732b960611b604482015290519081900360640190fd5b601880546001600160a01b0319166001600160a01b0392909216919091179055565b600f5460ff1681565b60125481565b6001600160a01b038316600090815260026020908152604080832033845290915281205460001914611289576001600160a01b0384166000908152600260209081526040808320338452909152902054611264908363ffffffff61242616565b6001600160a01b03851660009081526002602090815260408083203384529091529020555b6112948484846128e8565b5060019392505050565b7f6e71edae12b1b97f4d1f60370fef10105fa2faae0126114a169c64845d6126c981565b601281565b60166020526000908152604090205481565b60035481565b6000806112ea6128de565b601454600d54600c5463ffffffff938416945091909216830391018110806113145750600f5460ff165b61134f5760405162461bcd60e51b81526004018080602001828103825260388152602001806130a76038913960400191505060405180910390fd5b6006546001600160a01b03868116911614156113a75760408051602081019091526010546001600160e01b0316815261139790611392908663ffffffff6129a216565b612a20565b6001600160901b0316925061142c565b6007546001600160a01b038681169116146113f35760405162461bcd60e51b8152600401808060200182810382526023815260200180612fcf6023913960400191505060405180910390fd5b60408051602081019091526011546001600160e01b0316815261142090611392908663ffffffff6129a216565b6001600160901b031692505b505092915050565b600d5481565b6010546001600160e01b031681565b6005546001600160a01b0316331461149f576040805162461bcd60e51b81526020600482015260146024820152732ab734b9bbb0b82b191d102327a92124a22222a760611b604482015290519081900360640190fd5b600680546001600160a01b039384166001600160a01b03199182161790915560078054929093169116179055565b60095481565b600a5481565b60145463ffffffff1681565b6018546001600160a01b0316331461153b576040805162461bcd60e51b81526020600482015260146024820152732cb7ba9030b932903737ba1030b71037bbb732b960611b604482015290519081900360640190fd5b600d55565b6000601a5460011461158d576040805162461bcd60e51b8152602060048201526011602482015270155b9a5cddd85c158c8e881313d0d2d151607a1b604482015290519081900360640190fd5b6000601a8190558061159d611036565b50600654604080516370a0823160e01b815230600482015290519395509193506000926001600160a01b03909116916370a08231916024808301926020929190829003018186803b1580156115f157600080fd5b505afa158015611605573d6000803e3d6000fd5b505050506040513d602081101561161b57600080fd5b5051600754604080516370a0823160e01b815230600482015290519293506000926001600160a01b03909216916370a0823191602480820192602092909190829003018186803b15801561166e57600080fd5b505afa158015611682573d6000803e3d6000fd5b505050506040513d602081101561169857600080fd5b5051905060006116b7836001600160701b03871663ffffffff61242616565b905060006116d4836001600160701b03871663ffffffff61242616565b905060006116e28787612a2b565b6000549091508061171f5761170b6103e8610e6c611706878763ffffffff61264b16565b612b88565b985061171a60006103e8612bd9565b61176e565b61176b6001600160701b03891661173c868463ffffffff61264b16565b8161174357fe5b046001600160701b03891661175e868563ffffffff61264b16565b8161176557fe5b04612c6f565b98505b600089116117ad5760405162461bcd60e51b815260040180806020018281038252602881526020018061303b6028913960400191505060405180910390fd5b6117b78a8a612bd9565b6117c386868a8a6126a4565b81156117f3576008546117ef906001600160701b0380821691600160701b90041663ffffffff61264b16565b600b555b6040805185815260208101859052815133927f4c209b5fc8ad50758f13e2e1088ba56a560dff690a1c6fef26394f4c03821c4f928290030190a250506001601a5550949695505050505050565b60016020526000908152604090205481565b600b5481565b60046020526000908152604090205481565b6018546001600160a01b031681565b600080601a546001146118c7576040805162461bcd60e51b8152602060048201526011602482015270155b9a5cddd85c158c8e881313d0d2d151607a1b604482015290519081900360640190fd5b6000601a819055806118d7611036565b50600654600754604080516370a0823160e01b815230600482015290519496509294506001600160a01b039182169391169160009184916370a08231916024808301926020929190829003018186803b15801561193357600080fd5b505afa158015611947573d6000803e3d6000fd5b505050506040513d602081101561195d57600080fd5b5051604080516370a0823160e01b815230600482015290519192506000916001600160a01b038516916370a08231916024808301926020929190829003018186803b1580156119ab57600080fd5b505afa1580156119bf573d6000803e3d6000fd5b505050506040513d60208110156119d557600080fd5b5051306000908152600160205260408120549192506119f48888612a2b565b60005490915080611a0b848763ffffffff61264b16565b81611a1257fe5b049a5080611a26848663ffffffff61264b16565b81611a2d57fe5b04995060008b118015611a40575060008a115b611a7b5760405162461bcd60e51b81526004018080602001828103825260288152602001806130136028913960400191505060405180910390fd5b611a853084612c85565b611a90878d8d6124b1565b611a9b868d8c6124b1565b604080516370a0823160e01b815230600482015290516001600160a01b038916916370a08231916024808301926020929190829003018186803b158015611ae157600080fd5b505afa158015611af5573d6000803e3d6000fd5b505050506040513d6020811015611b0b57600080fd5b5051604080516370a0823160e01b815230600482015290519196506001600160a01b038816916370a0823191602480820192602092909190829003018186803b158015611b5757600080fd5b505afa158015611b6b573d6000803e3d6000fd5b505050506040513d6020811015611b8157600080fd5b50519350611b9185858b8b6126a4565b8115611bc157600854611bbd906001600160701b0380821691600160701b90041663ffffffff61264b16565b600b555b604080518c8152602081018c905281516001600160a01b038f169233927fdccd412f0b1252819cb1fd330b93224ca42612892bb3f4f789976e6d81936496929081900390910190a35050505050505050506001601a81905550915091565b6040518060400160405280600681526020016504244535741560d41b81525081565b600e5481565b60135481565b6019546001600160a01b031681565b600061106d3384846128e8565b600c5481565b6103e881565b601a54600114611cc0576040805162461bcd60e51b8152602060048201526011602482015270155b9a5cddd85c158c8e881313d0d2d151607a1b604482015290519081900360640190fd5b6000601a55600654600754600854604080516370a0823160e01b815230600482015290516001600160a01b039485169490931692611d6a9285928792610abd926001600160701b03169185916370a0823191602480820192602092909190829003018186803b158015611d3257600080fd5b505afa158015611d46573d6000803e3d6000fd5b505050506040513d6020811015611d5c57600080fd5b50519063ffffffff61242616565b600854604080516370a0823160e01b81523060048201529051611dd19284928792610abd92600160701b90046001600160701b0316916001600160a01b038616916370a0823191602480820192602092909190829003018186803b158015611d3257600080fd5b50506001601a5550565b6018546001600160a01b03163314611e31576040805162461bcd60e51b81526020600482015260146024820152732cb7ba9030b932903737ba1030b71037bbb732b960611b604482015290519081900360640190fd5b600e55565b6005546001600160a01b031681565b6007546001600160a01b031681565b42841015611e9e576040805162461bcd60e51b8152602060048201526012602482015271155b9a5cddd85c158c8e881156141254915160721b604482015290519081900360640190fd5b6003546001600160a01b0380891660008181526004602090815260408083208054600180820190925582517f6e71edae12b1b97f4d1f60370fef10105fa2faae0126114a169c64845d6126c98186015280840196909652958d166060860152608085018c905260a085019590955260c08085018b90528151808603909101815260e08501825280519083012061190160f01b6101008601526101028501969096526101228085019690965280518085039096018652610142840180825286519683019690962095839052610162840180825286905260ff89166101828501526101a284018890526101c28401879052519193926101e280820193601f1981019281900390910190855afa158015611fb9573d6000803e3d6000fd5b5050604051601f1901519150506001600160a01b03811615801590611fef5750886001600160a01b0316816001600160a01b0316145b612040576040805162461bcd60e51b815260206004820152601c60248201527f556e697377617056323a20494e56414c49445f5349474e415455524500000000604482015290519081900360640190fd5b61204b89898961287c565b505050505050505050565b60006120606128de565b601454600c5491925063ffffffff90811683039190821610158061208e57506018546001600160a01b031633145b156121df57600954600a5460085463ffffffff858116600160e01b90920416146121355760085463ffffffff600160e01b82048116860391908216906120e6906001600160701b03600160701b820481169116612d23565b516008546001600160e01b0390911691909102939093019263ffffffff821690612123906001600160701b0380821691600160701b900416612d23565b516001600160e01b0316029190910190505b60405180602001604052808463ffffffff1660125485038161215357fe5b046001600160e01b039081169091529051601080546001600160e01b031916919092161790556040805160208101909152601354819063ffffffff86169084038161219a57fe5b046001600160e01b039081169091529051601180546001600160e01b031916919092161790556012919091556013556014805463ffffffff191663ffffffff84161790555b5050565b600260209081526000928352604080842090915290825290205481565b6018546001600160a01b03163314612256576040805162461bcd60e51b81526020600482015260146024820152732cb7ba9030b932903737ba1030b71037bbb732b960611b604482015290519081900360640190fd5b601755565b6018546001600160a01b031633146122b1576040805162461bcd60e51b81526020600482015260146024820152732cb7ba9030b932903737ba1030b71037bbb732b960611b604482015290519081900360640190fd5b600f805460ff1916911515919091179055565b601a5460011461230f576040805162461bcd60e51b8152602060048201526011602482015270155b9a5cddd85c158c8e881313d0d2d151607a1b604482015290519081900360640190fd5b6000601a55600654604080516370a0823160e01b8152306004820152905161241f926001600160a01b0316916370a08231916024808301926020929190829003018186803b15801561236057600080fd5b505afa158015612374573d6000803e3d6000fd5b505050506040513d602081101561238a57600080fd5b5051600754604080516370a0823160e01b815230600482015290516001600160a01b03909216916370a0823191602480820192602092909190829003018186803b1580156123d757600080fd5b505afa1580156123eb573d6000803e3d6000fd5b505050506040513d602081101561240157600080fd5b50516008546001600160701b0380821691600160701b9004166126a4565b6001601a55565b600061246883836040518060400160405280601e81526020017f536166654d6174683a207375627472616374696f6e206f766572666c6f770000815250612dd3565b9392505050565b600061246883836040518060400160405280601a81526020017f536166654d6174683a206469766973696f6e206279207a65726f000000000000815250612e6a565b604080518082018252601981527f7472616e7366657228616464726573732c75696e74323536290000000000000060209182015281516001600160a01b0385811660248301526044808301869052845180840390910181526064909201845291810180516001600160e01b031663a9059cbb60e01b1781529251815160009460609489169392918291908083835b6020831061255e5780518252601f19909201916020918201910161253f565b6001836020036101000a0380198251168184511680821785525050505050509050019150506000604051808303816000865af19150503d80600081146125c0576040519150601f19603f3d011682016040523d82523d6000602084013e6125c5565b606091505b50915091508180156125f35750805115806125f357508080602001905160208110156125f057600080fd5b50515b612644576040805162461bcd60e51b815260206004820152601a60248201527f556e697377617056323a205452414e534645525f4641494c4544000000000000604482015290519081900360640190fd5b5050505050565b60008261265a57506000611071565b8282028284828161266757fe5b04146124685760405162461bcd60e51b81526004018080602001828103825260218152602001806130636021913960400191505060405180910390fd5b6001600160701b0384118015906126c257506001600160701b038311155b612709576040805162461bcd60e51b8152602060048201526013602482015272556e697377617056323a204f564552464c4f5760681b604482015290519081900360640190fd5b60085463ffffffff42811691600160e01b9004811682039081161580159061273957506001600160701b03841615155b801561274d57506001600160701b03831615155b156127be578063ffffffff1661277b8561276686612ecf565b6001600160e01b03169063ffffffff612ee116565b600980546001600160e01b03929092169290920201905563ffffffff81166127a68461276687612ecf565b600a80546001600160e01b0392909216929092020190555b600880546dffffffffffffffffffffffffffff19166001600160701b03888116919091176dffffffffffffffffffffffffffff60701b1916600160701b91881691909102176001600160e01b0316600160e01b63ffffffff851602179055612824612056565b600854604080516001600160701b038084168252600160701b909304909216602083015280517f1c411e9a96e071241c2f21f7726b17ae89e3cab4c78be50e062b03a9fffbbad19281900390910190a1505050505050565b6001600160a01b03808416600081815260026020908152604080832094871680845294825291829020859055815185815291517f8c5be1e5ebec7d5bd14f71427d1e84f3dd0314c0f7b2291e5b200ac8c7c3b9259281900390910190a3505050565b63ffffffff421690565b6001600160a01b038316600090815260016020526040902054612911908263ffffffff61242616565b6001600160a01b038085166000908152600160205260408082209390935590841681522054612946908263ffffffff612f0616565b6001600160a01b0380841660008181526001602090815260409182902094909455805185815290519193928716927fddf252ad1be2c89b69c2b068fc378daa952ba7f163c4a11628f55a4df523b3ef92918290030190a3505050565b6129aa612f60565b60008215806129d057505082516001600160e01b0316828102908382816129cd57fe5b04145b612a0b5760405162461bcd60e51b81526004018080602001828103825260238152602001806130846023913960400191505060405180910390fd5b60408051602081019091529081529392505050565b805160701c5b919050565b600080600560009054906101000a90046001600160a01b03166001600160a01b031663017e7e586040518163ffffffff1660e01b815260040160206040518083038186803b158015612a7c57600080fd5b505afa158015612a90573d6000803e3d6000fd5b505050506040513d6020811015612aa657600080fd5b5051600b546001600160a01b038216158015945091925090612b75578015612b70576000612ae96117066001600160701b0388811690881663ffffffff61264b16565b90506000612af683612b88565b905080821115612b6d576000612b24612b15848463ffffffff61242616565b6000549063ffffffff61264b16565b90506000612b4983612b3d86600563ffffffff61264b16565b9063ffffffff612f0616565b90506000818381612b5657fe5b0490508015612b6957612b698782612bd9565b5050505b50505b61142c565b801561142c576000600b55505092915050565b60006003821115612bcb575080600160028204015b81811015612bc557809150600281828581612bb457fe5b040181612bbd57fe5b049050612b9d565b50612a26565b8115612a2657506001919050565b600054612bec908263ffffffff612f0616565b60009081556001600160a01b038316815260016020526040902054612c17908263ffffffff612f0616565b6001600160a01b03831660008181526001602090815260408083209490945583518581529351929391927fddf252ad1be2c89b69c2b068fc378daa952ba7f163c4a11628f55a4df523b3ef9281900390910190a35050565b6000818310612c7e5781612468565b5090919050565b6001600160a01b038216600090815260016020526040902054612cae908263ffffffff61242616565b6001600160a01b03831660009081526001602052604081209190915554612cdb908263ffffffff61242616565b60009081556040805183815290516001600160a01b038516917fddf252ad1be2c89b69c2b068fc378daa952ba7f163c4a11628f55a4df523b3ef919081900360200190a35050565b612d2b612f73565b6000826001600160701b031611612d89576040805162461bcd60e51b815260206004820152601760248201527f4669786564506f696e743a204449565f42595f5a45524f000000000000000000604482015290519081900360640190fd5b6040805160208101909152806001600160701b0384166dffffffffffffffffffffffffffff60701b607087901b1681612dbe57fe5b046001600160e01b0316815250905092915050565b60008184841115612e625760405162461bcd60e51b81526004018080602001828103825283818151815260200191508051906020019080838360005b83811015612e27578181015183820152602001612e0f565b50505050905090810190601f168015612e545780820380516001836020036101000a031916815260200191505b509250505060405180910390fd5b505050900390565b60008183612eb95760405162461bcd60e51b8152602060048201818152835160248401528351909283926044909101919085019080838360008315612e27578181015183820152602001612e0f565b506000838581612ec557fe5b0495945050505050565b6001600160701b0316600160701b0290565b60006001600160701b0382166001600160e01b03841681612efe57fe5b049392505050565b600082820183811015612468576040805162461bcd60e51b815260206004820152601b60248201527f536166654d6174683a206164646974696f6e206f766572666c6f770000000000604482015290519081900360640190fd5b6040518060200160405280600081525090565b6040805160208101909152600081529056fe556e697377617056323a20494e53554646494349454e545f4f55545055545f414d4f554e54556e697377617056323a20494e53554646494349454e545f494e5055545f414d4f554e54556e6973776170563250616972204f7261636c653a20494e56414c49445f544f4b454e556e697377617056323a20494e53554646494349454e545f4c4951554944495459556e697377617056323a20494e53554646494349454e545f4c49515549444954595f4255524e4544556e697377617056323a20494e53554646494349454e545f4c49515549444954595f4d494e544544536166654d6174683a206d756c7469706c69636174696f6e206f766572666c6f774669786564506f696e743a204d554c5449504c49434154494f4e5f4f564552464c4f57556e6973776170563250616972204f7261636c653a2050524943455f49535f5354414c455f4e4545445f544f5f43414c4c5f555044415445a26469706673582212209d756c7dfc62eeca40aa88926d15fecfc1ad527f9c348fab026409206b4aa7de64736f6c634300060b0033a264697066735822122019c8b83558cfe981c0b6fa032b7a4ae3aa98ea4b7dbab8cc60c07a91a6dcd97364736f6c634300060b0033",
  "devdoc": {
    "kind": "dev",
    "methods": {},
    "version": 1
  },
  "userdoc": {
    "kind": "user",
    "methods": {},
    "version": 1
  },
  "storageLayout": {
    "storage": [
      {
        "astId": 12102,
        "contract": "contracts/Uniswap/UniswapV2Factory.sol:UniswapV2Factory",
        "label": "feeTo",
        "offset": 0,
        "slot": "0",
        "type": "t_address"
      },
      {
        "astId": 12105,
        "contract": "contracts/Uniswap/UniswapV2Factory.sol:UniswapV2Factory",
        "label": "owner",
        "offset": 0,
        "slot": "1",
        "type": "t_address"
      },
      {
        "astId": 12108,
        "contract": "contracts/Uniswap/UniswapV2Factory.sol:UniswapV2Factory",
        "label": "treasury",
        "offset": 0,
        "slot": "2",
        "type": "t_address"
      },
      {
        "astId": 12111,
        "contract": "contracts/Uniswap/UniswapV2Factory.sol:UniswapV2Factory",
        "label": "maxSpotVsOraclePriceDivergence_d12",
        "offset": 0,
        "slot": "3",
        "type": "t_uint256"
      },
      {
        "astId": 12118,
        "contract": "contracts/Uniswap/UniswapV2Factory.sol:UniswapV2Factory",
        "label": "getPair",
        "offset": 0,
        "slot": "4",
        "type": "t_mapping(t_address,t_mapping(t_address,t_address))"
      },
      {
        "astId": 12122,
        "contract": "contracts/Uniswap/UniswapV2Factory.sol:UniswapV2Factory",
        "label": "allPairs",
        "offset": 0,
        "slot": "5",
        "type": "t_array(t_address)dyn_storage"
      }
    ],
    "types": {
      "t_address": {
        "encoding": "inplace",
        "label": "address",
        "numberOfBytes": "20"
      },
      "t_array(t_address)dyn_storage": {
        "base": "t_address",
        "encoding": "dynamic_array",
        "label": "address[]",
        "numberOfBytes": "32"
      },
      "t_mapping(t_address,t_address)": {
        "encoding": "mapping",
        "key": "t_address",
        "label": "mapping(address => address)",
        "numberOfBytes": "32",
        "value": "t_address"
      },
      "t_mapping(t_address,t_mapping(t_address,t_address))": {
        "encoding": "mapping",
        "key": "t_address",
        "label": "mapping(address => mapping(address => address))",
        "numberOfBytes": "32",
        "value": "t_mapping(t_address,t_address)"
      },
      "t_uint256": {
        "encoding": "inplace",
        "label": "uint256",
        "numberOfBytes": "32"
      }
    }
  }
}