{
  "address": "0x3d48DCc72F54d99512bDA379288eBB9CaB00f54d",
  "abi": [
    {
      "inputs": [
        {
          "internalType": "address",
          "name": "_factory",
          "type": "address"
        },
        {
          "internalType": "address",
          "name": "_WETH",
          "type": "address"
        }
      ],
      "stateMutability": "nonpayable",
      "type": "constructor"
    },
    {
      "inputs": [],
      "name": "WETH",
      "outputs": [
        {
          "internalType": "address",
          "name": "",
          "type": "address"
        }
      ],
      "stateMutability": "view",
      "type": "function"
    },
    {
      "inputs": [
        {
          "internalType": "address",
          "name": "tokenA",
          "type": "address"
        },
        {
          "internalType": "address",
          "name": "tokenB",
          "type": "address"
        },
        {
          "internalType": "uint256",
          "name": "amountADesired",
          "type": "uint256"
        },
        {
          "internalType": "uint256",
          "name": "amountBDesired",
          "type": "uint256"
        },
        {
          "internalType": "uint256",
          "name": "amountAMin",
          "type": "uint256"
        },
        {
          "internalType": "uint256",
          "name": "amountBMin",
          "type": "uint256"
        },
        {
          "internalType": "address",
          "name": "to",
          "type": "address"
        },
        {
          "internalType": "uint256",
          "name": "deadline",
          "type": "uint256"
        }
      ],
      "name": "addLiquidity",
      "outputs": [
        {
          "internalType": "uint256",
          "name": "amountA",
          "type": "uint256"
        },
        {
          "internalType": "uint256",
          "name": "amountB",
          "type": "uint256"
        },
        {
          "internalType": "uint256",
          "name": "liquidity",
          "type": "uint256"
        }
      ],
      "stateMutability": "nonpayable",
      "type": "function"
    },
    {
      "inputs": [
        {
          "internalType": "address",
          "name": "token",
          "type": "address"
        },
        {
          "internalType": "uint256",
          "name": "amountTokenDesired",
          "type": "uint256"
        },
        {
          "internalType": "uint256",
          "name": "amountTokenMin",
          "type": "uint256"
        },
        {
          "internalType": "uint256",
          "name": "amountETHMin",
          "type": "uint256"
        },
        {
          "internalType": "address",
          "name": "to",
          "type": "address"
        },
        {
          "internalType": "uint256",
          "name": "deadline",
          "type": "uint256"
        }
      ],
      "name": "addLiquidityETH",
      "outputs": [
        {
          "internalType": "uint256",
          "name": "amountToken",
          "type": "uint256"
        },
        {
          "internalType": "uint256",
          "name": "amountETH",
          "type": "uint256"
        },
        {
          "internalType": "uint256",
          "name": "liquidity",
          "type": "uint256"
        }
      ],
      "stateMutability": "payable",
      "type": "function"
    },
    {
      "inputs": [
        {
          "internalType": "address",
          "name": "tokenIn",
          "type": "address"
        },
        {
          "internalType": "uint256",
          "name": "amountIn",
          "type": "uint256"
        },
        {
          "internalType": "address",
          "name": "tokenOut",
          "type": "address"
        }
      ],
      "name": "consult",
      "outputs": [
        {
          "internalType": "uint256",
          "name": "amountOut",
          "type": "uint256"
        }
      ],
      "stateMutability": "view",
      "type": "function"
    },
    {
      "inputs": [],
      "name": "factory",
      "outputs": [
        {
          "internalType": "address",
          "name": "",
          "type": "address"
        }
      ],
      "stateMutability": "view",
      "type": "function"
    },
    {
      "inputs": [
        {
          "internalType": "uint256",
          "name": "amountOut",
          "type": "uint256"
        },
        {
          "internalType": "uint256",
          "name": "reserveIn",
          "type": "uint256"
        },
        {
          "internalType": "uint256",
          "name": "reserveOut",
          "type": "uint256"
        }
      ],
      "name": "getAmountIn",
      "outputs": [
        {
          "internalType": "uint256",
          "name": "amountIn",
          "type": "uint256"
        }
      ],
      "stateMutability": "pure",
      "type": "function"
    },
    {
      "inputs": [
        {
          "internalType": "uint256",
          "name": "amountIn",
          "type": "uint256"
        },
        {
          "internalType": "uint256",
          "name": "reserveIn",
          "type": "uint256"
        },
        {
          "internalType": "uint256",
          "name": "reserveOut",
          "type": "uint256"
        }
      ],
      "name": "getAmountOut",
      "outputs": [
        {
          "internalType": "uint256",
          "name": "amountOut",
          "type": "uint256"
        }
      ],
      "stateMutability": "pure",
      "type": "function"
    },
    {
      "inputs": [
        {
          "internalType": "uint256",
          "name": "amountOut",
          "type": "uint256"
        },
        {
          "internalType": "address[]",
          "name": "path",
          "type": "address[]"
        }
      ],
      "name": "getAmountsIn",
      "outputs": [
        {
          "internalType": "uint256[]",
          "name": "amounts",
          "type": "uint256[]"
        }
      ],
      "stateMutability": "view",
      "type": "function"
    },
    {
      "inputs": [
        {
          "internalType": "uint256",
          "name": "amountIn",
          "type": "uint256"
        },
        {
          "internalType": "address[]",
          "name": "path",
          "type": "address[]"
        }
      ],
      "name": "getAmountsOut",
      "outputs": [
        {
          "internalType": "uint256[]",
          "name": "amounts",
          "type": "uint256[]"
        }
      ],
      "stateMutability": "view",
      "type": "function"
    },
    {
      "inputs": [
        {
          "internalType": "address",
          "name": "_tokenA",
          "type": "address"
        },
        {
          "internalType": "address",
          "name": "_tokenB",
          "type": "address"
        }
      ],
      "name": "getReserves",
      "outputs": [
        {
          "internalType": "uint256",
          "name": "",
          "type": "uint256"
        },
        {
          "internalType": "uint256",
          "name": "",
          "type": "uint256"
        }
      ],
      "stateMutability": "view",
      "type": "function"
    },
    {
      "inputs": [
        {
          "internalType": "uint256",
          "name": "amountA",
          "type": "uint256"
        },
        {
          "internalType": "uint256",
          "name": "reserveA",
          "type": "uint256"
        },
        {
          "internalType": "uint256",
          "name": "reserveB",
          "type": "uint256"
        }
      ],
      "name": "quote",
      "outputs": [
        {
          "internalType": "uint256",
          "name": "amountB",
          "type": "uint256"
        }
      ],
      "stateMutability": "pure",
      "type": "function"
    },
    {
      "inputs": [
        {
          "internalType": "address",
          "name": "tokenA",
          "type": "address"
        },
        {
          "internalType": "address",
          "name": "tokenB",
          "type": "address"
        },
        {
          "internalType": "uint256",
          "name": "liquidity",
          "type": "uint256"
        },
        {
          "internalType": "uint256",
          "name": "amountAMin",
          "type": "uint256"
        },
        {
          "internalType": "uint256",
          "name": "amountBMin",
          "type": "uint256"
        },
        {
          "internalType": "address",
          "name": "to",
          "type": "address"
        },
        {
          "internalType": "uint256",
          "name": "deadline",
          "type": "uint256"
        }
      ],
      "name": "removeLiquidity",
      "outputs": [
        {
          "internalType": "uint256",
          "name": "amountA",
          "type": "uint256"
        },
        {
          "internalType": "uint256",
          "name": "amountB",
          "type": "uint256"
        }
      ],
      "stateMutability": "nonpayable",
      "type": "function"
    },
    {
      "inputs": [
        {
          "internalType": "address",
          "name": "token",
          "type": "address"
        },
        {
          "internalType": "uint256",
          "name": "liquidity",
          "type": "uint256"
        },
        {
          "internalType": "uint256",
          "name": "amountTokenMin",
          "type": "uint256"
        },
        {
          "internalType": "uint256",
          "name": "amountETHMin",
          "type": "uint256"
        },
        {
          "internalType": "address",
          "name": "to",
          "type": "address"
        },
        {
          "internalType": "uint256",
          "name": "deadline",
          "type": "uint256"
        }
      ],
      "name": "removeLiquidityETH",
      "outputs": [
        {
          "internalType": "uint256",
          "name": "amountToken",
          "type": "uint256"
        },
        {
          "internalType": "uint256",
          "name": "amountETH",
          "type": "uint256"
        }
      ],
      "stateMutability": "nonpayable",
      "type": "function"
    },
    {
      "inputs": [
        {
          "internalType": "address",
          "name": "token",
          "type": "address"
        },
        {
          "internalType": "uint256",
          "name": "liquidity",
          "type": "uint256"
        },
        {
          "internalType": "uint256",
          "name": "amountTokenMin",
          "type": "uint256"
        },
        {
          "internalType": "uint256",
          "name": "amountETHMin",
          "type": "uint256"
        },
        {
          "internalType": "address",
          "name": "to",
          "type": "address"
        },
        {
          "internalType": "uint256",
          "name": "deadline",
          "type": "uint256"
        }
      ],
      "name": "removeLiquidityETHSupportingFeeOnTransferTokens",
      "outputs": [
        {
          "internalType": "uint256",
          "name": "amountETH",
          "type": "uint256"
        }
      ],
      "stateMutability": "nonpayable",
      "type": "function"
    },
    {
      "inputs": [
        {
          "internalType": "address",
          "name": "token",
          "type": "address"
        },
        {
          "internalType": "uint256",
          "name": "liquidity",
          "type": "uint256"
        },
        {
          "internalType": "uint256",
          "name": "amountTokenMin",
          "type": "uint256"
        },
        {
          "internalType": "uint256",
          "name": "amountETHMin",
          "type": "uint256"
        },
        {
          "internalType": "address",
          "name": "to",
          "type": "address"
        },
        {
          "internalType": "uint256",
          "name": "deadline",
          "type": "uint256"
        },
        {
          "internalType": "bool",
          "name": "approveMax",
          "type": "bool"
        },
        {
          "internalType": "uint8",
          "name": "v",
          "type": "uint8"
        },
        {
          "internalType": "bytes32",
          "name": "r",
          "type": "bytes32"
        },
        {
          "internalType": "bytes32",
          "name": "s",
          "type": "bytes32"
        }
      ],
      "name": "removeLiquidityETHWithPermit",
      "outputs": [
        {
          "internalType": "uint256",
          "name": "amountToken",
          "type": "uint256"
        },
        {
          "internalType": "uint256",
          "name": "amountETH",
          "type": "uint256"
        }
      ],
      "stateMutability": "nonpayable",
      "type": "function"
    },
    {
      "inputs": [
        {
          "internalType": "address",
          "name": "token",
          "type": "address"
        },
        {
          "internalType": "uint256",
          "name": "liquidity",
          "type": "uint256"
        },
        {
          "internalType": "uint256",
          "name": "amountTokenMin",
          "type": "uint256"
        },
        {
          "internalType": "uint256",
          "name": "amountETHMin",
          "type": "uint256"
        },
        {
          "internalType": "address",
          "name": "to",
          "type": "address"
        },
        {
          "internalType": "uint256",
          "name": "deadline",
          "type": "uint256"
        },
        {
          "internalType": "bool",
          "name": "approveMax",
          "type": "bool"
        },
        {
          "internalType": "uint8",
          "name": "v",
          "type": "uint8"
        },
        {
          "internalType": "bytes32",
          "name": "r",
          "type": "bytes32"
        },
        {
          "internalType": "bytes32",
          "name": "s",
          "type": "bytes32"
        }
      ],
      "name": "removeLiquidityETHWithPermitSupportingFeeOnTransferTokens",
      "outputs": [
        {
          "internalType": "uint256",
          "name": "amountETH",
          "type": "uint256"
        }
      ],
      "stateMutability": "nonpayable",
      "type": "function"
    },
    {
      "inputs": [
        {
          "internalType": "address",
          "name": "tokenA",
          "type": "address"
        },
        {
          "internalType": "address",
          "name": "tokenB",
          "type": "address"
        },
        {
          "internalType": "uint256",
          "name": "liquidity",
          "type": "uint256"
        },
        {
          "internalType": "uint256",
          "name": "amountAMin",
          "type": "uint256"
        },
        {
          "internalType": "uint256",
          "name": "amountBMin",
          "type": "uint256"
        },
        {
          "internalType": "address",
          "name": "to",
          "type": "address"
        },
        {
          "internalType": "uint256",
          "name": "deadline",
          "type": "uint256"
        },
        {
          "internalType": "bool",
          "name": "approveMax",
          "type": "bool"
        },
        {
          "internalType": "uint8",
          "name": "v",
          "type": "uint8"
        },
        {
          "internalType": "bytes32",
          "name": "r",
          "type": "bytes32"
        },
        {
          "internalType": "bytes32",
          "name": "s",
          "type": "bytes32"
        }
      ],
      "name": "removeLiquidityWithPermit",
      "outputs": [
        {
          "internalType": "uint256",
          "name": "amountA",
          "type": "uint256"
        },
        {
          "internalType": "uint256",
          "name": "amountB",
          "type": "uint256"
        }
      ],
      "stateMutability": "nonpayable",
      "type": "function"
    },
    {
      "inputs": [
        {
          "internalType": "uint256",
          "name": "amountOut",
          "type": "uint256"
        },
        {
          "internalType": "address[]",
          "name": "path",
          "type": "address[]"
        },
        {
          "internalType": "address",
          "name": "to",
          "type": "address"
        },
        {
          "internalType": "uint256",
          "name": "deadline",
          "type": "uint256"
        }
      ],
      "name": "swapETHForExactTokens",
      "outputs": [
        {
          "internalType": "uint256[]",
          "name": "amounts",
          "type": "uint256[]"
        }
      ],
      "stateMutability": "payable",
      "type": "function"
    },
    {
      "inputs": [
        {
          "internalType": "uint256",
          "name": "amountOutMin",
          "type": "uint256"
        },
        {
          "internalType": "address[]",
          "name": "path",
          "type": "address[]"
        },
        {
          "internalType": "address",
          "name": "to",
          "type": "address"
        },
        {
          "internalType": "uint256",
          "name": "deadline",
          "type": "uint256"
        }
      ],
      "name": "swapExactETHForTokens",
      "outputs": [
        {
          "internalType": "uint256[]",
          "name": "amounts",
          "type": "uint256[]"
        }
      ],
      "stateMutability": "payable",
      "type": "function"
    },
    {
      "inputs": [
        {
          "internalType": "uint256",
          "name": "amountOutMin",
          "type": "uint256"
        },
        {
          "internalType": "address[]",
          "name": "path",
          "type": "address[]"
        },
        {
          "internalType": "address",
          "name": "to",
          "type": "address"
        },
        {
          "internalType": "uint256",
          "name": "deadline",
          "type": "uint256"
        }
      ],
      "name": "swapExactETHForTokensSupportingFeeOnTransferTokens",
      "outputs": [],
      "stateMutability": "payable",
      "type": "function"
    },
    {
      "inputs": [
        {
          "internalType": "uint256",
          "name": "amountIn",
          "type": "uint256"
        },
        {
          "internalType": "uint256",
          "name": "amountOutMin",
          "type": "uint256"
        },
        {
          "internalType": "address[]",
          "name": "path",
          "type": "address[]"
        },
        {
          "internalType": "address",
          "name": "to",
          "type": "address"
        },
        {
          "internalType": "uint256",
          "name": "deadline",
          "type": "uint256"
        }
      ],
      "name": "swapExactTokensForETH",
      "outputs": [
        {
          "internalType": "uint256[]",
          "name": "amounts",
          "type": "uint256[]"
        }
      ],
      "stateMutability": "nonpayable",
      "type": "function"
    },
    {
      "inputs": [
        {
          "internalType": "uint256",
          "name": "amountIn",
          "type": "uint256"
        },
        {
          "internalType": "uint256",
          "name": "amountOutMin",
          "type": "uint256"
        },
        {
          "internalType": "address[]",
          "name": "path",
          "type": "address[]"
        },
        {
          "internalType": "address",
          "name": "to",
          "type": "address"
        },
        {
          "internalType": "uint256",
          "name": "deadline",
          "type": "uint256"
        }
      ],
      "name": "swapExactTokensForETHSupportingFeeOnTransferTokens",
      "outputs": [],
      "stateMutability": "nonpayable",
      "type": "function"
    },
    {
      "inputs": [
        {
          "internalType": "uint256",
          "name": "amountIn",
          "type": "uint256"
        },
        {
          "internalType": "uint256",
          "name": "amountOutMin",
          "type": "uint256"
        },
        {
          "internalType": "address[]",
          "name": "path",
          "type": "address[]"
        },
        {
          "internalType": "address",
          "name": "to",
          "type": "address"
        },
        {
          "internalType": "uint256",
          "name": "deadline",
          "type": "uint256"
        }
      ],
      "name": "swapExactTokensForTokens",
      "outputs": [
        {
          "internalType": "uint256[]",
          "name": "amounts",
          "type": "uint256[]"
        }
      ],
      "stateMutability": "nonpayable",
      "type": "function"
    },
    {
      "inputs": [
        {
          "internalType": "uint256",
          "name": "amountIn",
          "type": "uint256"
        },
        {
          "internalType": "uint256",
          "name": "amountOutMin",
          "type": "uint256"
        },
        {
          "internalType": "address[]",
          "name": "path",
          "type": "address[]"
        },
        {
          "internalType": "address",
          "name": "to",
          "type": "address"
        },
        {
          "internalType": "uint256",
          "name": "deadline",
          "type": "uint256"
        }
      ],
      "name": "swapExactTokensForTokensSupportingFeeOnTransferTokens",
      "outputs": [],
      "stateMutability": "nonpayable",
      "type": "function"
    },
    {
      "inputs": [
        {
          "internalType": "uint256",
          "name": "amountOut",
          "type": "uint256"
        },
        {
          "internalType": "uint256",
          "name": "amountInMax",
          "type": "uint256"
        },
        {
          "internalType": "address[]",
          "name": "path",
          "type": "address[]"
        },
        {
          "internalType": "address",
          "name": "to",
          "type": "address"
        },
        {
          "internalType": "uint256",
          "name": "deadline",
          "type": "uint256"
        }
      ],
      "name": "swapTokensForExactETH",
      "outputs": [
        {
          "internalType": "uint256[]",
          "name": "amounts",
          "type": "uint256[]"
        }
      ],
      "stateMutability": "nonpayable",
      "type": "function"
    },
    {
      "inputs": [
        {
          "internalType": "uint256",
          "name": "amountOut",
          "type": "uint256"
        },
        {
          "internalType": "uint256",
          "name": "amountInMax",
          "type": "uint256"
        },
        {
          "internalType": "address[]",
          "name": "path",
          "type": "address[]"
        },
        {
          "internalType": "address",
          "name": "to",
          "type": "address"
        },
        {
          "internalType": "uint256",
          "name": "deadline",
          "type": "uint256"
        }
      ],
      "name": "swapTokensForExactTokens",
      "outputs": [
        {
          "internalType": "uint256[]",
          "name": "amounts",
          "type": "uint256[]"
        }
      ],
      "stateMutability": "nonpayable",
      "type": "function"
    },
    {
      "stateMutability": "payable",
      "type": "receive"
    }
  ],
  "transactionHash": "0x638403b2b66d6b0b5398baa26c8340262f79905a4d998a300764d4d027ec740c",
  "args": [
    "0x5cCeF3941e064b29ea7ea76D0023CD8839ddB64b",
    "0xd0a1e359811322d97991e03f863a0c30c2cf029c"
  ],
  "solcInputHash": "7fc5f7df362effb291697cb25232d91e",
  "bytecode": "0x60c060405234801561001057600080fd5b5060405162004e3e38038062004e3e8339818101604052604081101561003557600080fd5b5080516020909101516001600160601b0319606092831b8116608052911b1660a05260805160601c60a05160601c614ca562000199600039806101955280610d985280610dd35280610eca52806110e8528061147252806115d8528061199f5280611a995280611b4f5280611c1d5280611d635280611deb528061217852806121f352806122a2528061236e5280612403528061247752806129b55280612c285280612c7e5280612cb25280612d265280612ec652806130095280613091525080610f58528061102f52806111ae52806111e75280611322528061150052806115b652806117265280611cb05280611e1d5280611f80528061203352806124a9528061270252806128fa5280612923528061295452806129935280612b005280612c5c5280612f5952806130c3528061394652806139895280613c6c5280613deb52806142a35280614397528061441a528061454f528061470f5250614ca56000f3fe6080604052600436106101855760003560e01c80638c86f1e4116100d1578063c45a01551161008a578063ded9382a11610064578063ded9382a14610b8e578063e8e3370014610c01578063f305d71914610c81578063fb3bdb4114610cc7576101be565b8063c45a015514610a89578063d06ca61f14610a9e578063d52bb6f414610b53576101be565b80638c86f1e4146108ab578063ad5c4648146108ee578063ad615dec1461091f578063af2979eb14610955578063b6f9de95146109a8578063baa2abde14610a2c576101be565b80634a25d94a1161013e578063791ac94711610118578063791ac947146106c55780637ff36ab51461075b57806385f8c259146107df5780638803dbee14610815576101be565b80634a25d94a146105265780635b0d5984146105bc5780635c11d7951461062f576101be565b806302751cec146101c3578063054d50d41461022f57806318cbafe5146102775780631f00ca741461035d5780632195995c1461041257806338ed173914610490576101be565b366101be57336001600160a01b037f000000000000000000000000000000000000000000000000000000000000000016146101bc57fe5b005b600080fd5b3480156101cf57600080fd5b50610216600480360360c08110156101e657600080fd5b506001600160a01b0381358116916020810135916040820135916060810135916080820135169060a00135610d4b565b6040805192835260208301919091528051918290030190f35b34801561023b57600080fd5b506102656004803603606081101561025257600080fd5b5080359060208101359060400135610e65565b60408051918252519081900360200190f35b34801561028357600080fd5b5061030d600480360360a081101561029a57600080fd5b813591602081013591810190606081016040820135600160201b8111156102c057600080fd5b8201836020820111156102d257600080fd5b803590602001918460208302840111600160201b831117156102f357600080fd5b91935091506001600160a01b038135169060200135610e7a565b60408051602080825283518183015283519192839290830191858101910280838360005b83811015610349578181015183820152602001610331565b505050509050019250505060405180910390f35b34801561036957600080fd5b5061030d6004803603604081101561038057600080fd5b81359190810190604081016020820135600160201b8111156103a157600080fd5b8201836020820111156103b357600080fd5b803590602001918460208302840111600160201b831117156103d457600080fd5b9190808060200260200160405190810160405280939291908181526020018383602002808284376000920191909152509295506111a7945050505050565b34801561041e57600080fd5b50610216600480360361016081101561043657600080fd5b506001600160a01b038135811691602081013582169160408201359160608101359160808201359160a08101359091169060c08101359060e081013515159060ff61010082013516906101208101359061014001356111dd565b34801561049c57600080fd5b5061030d600480360360a08110156104b357600080fd5b813591602081013591810190606081016040820135600160201b8111156104d957600080fd5b8201836020820111156104eb57600080fd5b803590602001918460208302840111600160201b8311171561050c57600080fd5b91935091506001600160a01b0381351690602001356112d7565b34801561053257600080fd5b5061030d600480360360a081101561054957600080fd5b813591602081013591810190606081016040820135600160201b81111561056f57600080fd5b82018360208201111561058157600080fd5b803590602001918460208302840111600160201b831117156105a257600080fd5b91935091506001600160a01b038135169060200135611422565b3480156105c857600080fd5b5061026560048036036101408110156105e057600080fd5b506001600160a01b0381358116916020810135916040820135916060810135916080820135169060a08101359060c081013515159060ff60e082013516906101008101359061012001356115ae565b34801561063b57600080fd5b506101bc600480360360a081101561065257600080fd5b813591602081013591810190606081016040820135600160201b81111561067857600080fd5b82018360208201111561068a57600080fd5b803590602001918460208302840111600160201b831117156106ab57600080fd5b91935091506001600160a01b0381351690602001356116bc565b3480156106d157600080fd5b506101bc600480360360a08110156106e857600080fd5b813591602081013591810190606081016040820135600160201b81111561070e57600080fd5b82018360208201111561072057600080fd5b803590602001918460208302840111600160201b8311171561074157600080fd5b91935091506001600160a01b038135169060200135611951565b61030d6004803603608081101561077157600080fd5b81359190810190604081016020820135600160201b81111561079257600080fd5b8201836020820111156107a457600080fd5b803590602001918460208302840111600160201b831117156107c557600080fd5b91935091506001600160a01b038135169060200135611bd5565b3480156107eb57600080fd5b506102656004803603606081101561080257600080fd5b5080359060208101359060400135611f28565b34801561082157600080fd5b5061030d600480360360a081101561083857600080fd5b813591602081013591810190606081016040820135600160201b81111561085e57600080fd5b82018360208201111561087057600080fd5b803590602001918460208302840111600160201b8311171561089157600080fd5b91935091506001600160a01b038135169060200135611f35565b3480156108b757600080fd5b50610265600480360360608110156108ce57600080fd5b506001600160a01b0381358116916020810135916040909101351661202e565b3480156108fa57600080fd5b50610903612176565b604080516001600160a01b039092168252519081900360200190f35b34801561092b57600080fd5b506102656004803603606081101561094257600080fd5b508035906020810135906040013561219a565b34801561096157600080fd5b50610265600480360360c081101561097857600080fd5b506001600160a01b0381358116916020810135916040820135916060810135916080820135169060a001356121a7565b6101bc600480360360808110156109be57600080fd5b81359190810190604081016020820135600160201b8111156109df57600080fd5b8201836020820111156109f157600080fd5b803590602001918460208302840111600160201b83111715610a1257600080fd5b91935091506001600160a01b038135169060200135612328565b348015610a3857600080fd5b50610216600480360360e0811015610a4f57600080fd5b506001600160a01b038135811691602081013582169160408201359160608101359160808201359160a08101359091169060c001356126b4565b348015610a9557600080fd5b506109036128f8565b348015610aaa57600080fd5b5061030d60048036036040811015610ac157600080fd5b81359190810190604081016020820135600160201b811115610ae257600080fd5b820183602082011115610af457600080fd5b803590602001918460208302840111600160201b83111715610b1557600080fd5b91908080602002602001604051908101604052809392919081815260200183836020028082843760009201919091525092955061291c945050505050565b348015610b5f57600080fd5b5061021660048036036040811015610b7657600080fd5b506001600160a01b0381358116916020013516612949565b348015610b9a57600080fd5b506102166004803603610140811015610bb257600080fd5b506001600160a01b0381358116916020810135916040820135916060810135916080820135169060a08101359060c081013515159060ff60e08201351690610100810135906101200135612989565b348015610c0d57600080fd5b50610c636004803603610100811015610c2557600080fd5b506001600160a01b038135811691602081013582169160408201359160608101359160808201359160a08101359160c0820135169060e00135612a9d565b60408051938452602084019290925282820152519081900360600190f35b610c63600480360360c0811015610c9757600080fd5b506001600160a01b0381358116916020810135916040820135916060810135916080820135169060a00135612bd9565b61030d60048036036080811015610cdd57600080fd5b81359190810190604081016020820135600160201b811115610cfe57600080fd5b820183602082011115610d1057600080fd5b803590602001918460208302840111600160201b83111715610d3157600080fd5b91935091506001600160a01b038135169060200135612e7e565b6000808242811015610d92576040805162461bcd60e51b81526020600482015260186024820152600080516020614c50833981519152604482015290519081900360640190fd5b610dc1897f00000000000000000000000000000000000000000000000000000000000000008a8a8a308a6126b4565b9093509150610dd1898685613200565b7f00000000000000000000000000000000000000000000000000000000000000006001600160a01b0316632e1a7d4d836040518263ffffffff1660e01b815260040180828152602001915050600060405180830381600087803b158015610e3757600080fd5b505af1158015610e4b573d6000803e3d6000fd5b50505050610e59858361336a565b50965096945050505050565b6000610e72848484613462565b949350505050565b60608142811015610ec0576040805162461bcd60e51b81526020600482015260186024820152600080516020614c50833981519152604482015290519081900360640190fd5b6001600160a01b037f00000000000000000000000000000000000000000000000000000000000000001686866000198101818110610efa57fe5b905060200201356001600160a01b03166001600160a01b031614610f53576040805162461bcd60e51b815260206004820152601d6024820152600080516020614b6d833981519152604482015290519081900360640190fd5b610fb17f00000000000000000000000000000000000000000000000000000000000000008988888080602002602001604051908101604052809392919081815260200183836020028082843760009201919091525061355292505050565b91508682600184510381518110610fc457fe5b602002602001015110156110095760405162461bcd60e51b815260040180806020018281038252602b815260200180614bd6602b913960400191505060405180910390fd5b6110a78686600081811061101957fe5b905060200201356001600160a01b03163361108d7f00000000000000000000000000000000000000000000000000000000000000008a8a600081811061105b57fe5b905060200201356001600160a01b03168b8b600181811061107857fe5b905060200201356001600160a01b031661369e565b8560008151811061109a57fe5b602002602001015161373a565b6110e682878780806020026020016040519081016040528093929190818152602001838360200280828437600092019190915250309250613897915050565b7f00000000000000000000000000000000000000000000000000000000000000006001600160a01b0316632e1a7d4d8360018551038151811061112557fe5b60200260200101516040518263ffffffff1660e01b815260040180828152602001915050600060405180830381600087803b15801561116357600080fd5b505af1158015611177573d6000803e3d6000fd5b5050505061119c848360018551038151811061118f57fe5b602002602001015161336a565b509695505050505050565b60606111d47f00000000000000000000000000000000000000000000000000000000000000008484613add565b90505b92915050565b600080600061120d7f00000000000000000000000000000000000000000000000000000000000000008f8f61369e565b905060008761121c578c611220565b6000195b6040805163d505accf60e01b815233600482015230602482015260448101839052606481018c905260ff8a16608482015260a4810189905260c4810188905290519192506001600160a01b0384169163d505accf9160e48082019260009290919082900301818387803b15801561129657600080fd5b505af11580156112aa573d6000803e3d6000fd5b505050506112bd8f8f8f8f8f8f8f6126b4565b809450819550505050509b509b9950505050505050505050565b6060814281101561131d576040805162461bcd60e51b81526020600482015260186024820152600080516020614c50833981519152604482015290519081900360640190fd5b61137b7f00000000000000000000000000000000000000000000000000000000000000008988888080602002602001604051908101604052809392919081815260200183836020028082843760009201919091525061355292505050565b9150868260018451038151811061138e57fe5b602002602001015110156113d35760405162461bcd60e51b815260040180806020018281038252602b815260200180614bd6602b913960400191505060405180910390fd5b6113e38686600081811061101957fe5b61119c82878780806020026020016040519081016040528093929190818152602001838360200280828437600092019190915250899250613897915050565b60608142811015611468576040805162461bcd60e51b81526020600482015260186024820152600080516020614c50833981519152604482015290519081900360640190fd5b6001600160a01b037f000000000000000000000000000000000000000000000000000000000000000016868660001981018181106114a257fe5b905060200201356001600160a01b03166001600160a01b0316146114fb576040805162461bcd60e51b815260206004820152601d6024820152600080516020614b6d833981519152604482015290519081900360640190fd5b6115597f000000000000000000000000000000000000000000000000000000000000000089888880806020026020016040519081016040528093929190818152602001838360200280828437600092019190915250613add92505050565b9150868260008151811061156957fe5b602002602001015111156110095760405162461bcd60e51b8152600401808060200182810382526027815260200180614b466027913960400191505060405180910390fd5b6000806115fc7f00000000000000000000000000000000000000000000000000000000000000008d7f000000000000000000000000000000000000000000000000000000000000000061369e565b905060008661160b578b61160f565b6000195b6040805163d505accf60e01b815233600482015230602482015260448101839052606481018b905260ff8916608482015260a4810188905260c4810187905290519192506001600160a01b0384169163d505accf9160e48082019260009290919082900301818387803b15801561168557600080fd5b505af1158015611699573d6000803e3d6000fd5b505050506116ab8d8d8d8d8d8d6121a7565b9d9c50505050505050505050505050565b8042811015611700576040805162461bcd60e51b81526020600482015260186024820152600080516020614c50833981519152604482015290519081900360640190fd5b6117758585600081811061171057fe5b905060200201356001600160a01b03163361176f7f00000000000000000000000000000000000000000000000000000000000000008989600081811061175257fe5b905060200201356001600160a01b03168a8a600181811061107857fe5b8a61373a565b60008585600019810181811061178757fe5b905060200201356001600160a01b03166001600160a01b03166370a08231856040518263ffffffff1660e01b815260040180826001600160a01b03166001600160a01b0316815260200191505060206040518083038186803b1580156117ec57600080fd5b505afa158015611800573d6000803e3d6000fd5b505050506040513d602081101561181657600080fd5b50516040805160208881028281018201909352888252929350611858929091899189918291850190849080828437600092019190915250889250613c15915050565b8661190a828888600019810181811061186d57fe5b905060200201356001600160a01b03166001600160a01b03166370a08231886040518263ffffffff1660e01b815260040180826001600160a01b03166001600160a01b0316815260200191505060206040518083038186803b1580156118d257600080fd5b505afa1580156118e6573d6000803e3d6000fd5b505050506040513d60208110156118fc57600080fd5b50519063ffffffff613f2016565b10156119475760405162461bcd60e51b815260040180806020018281038252602b815260200180614bd6602b913960400191505060405180910390fd5b5050505050505050565b8042811015611995576040805162461bcd60e51b81526020600482015260186024820152600080516020614c50833981519152604482015290519081900360640190fd5b6001600160a01b037f000000000000000000000000000000000000000000000000000000000000000016858560001981018181106119cf57fe5b905060200201356001600160a01b03166001600160a01b031614611a28576040805162461bcd60e51b815260206004820152601d6024820152600080516020614b6d833981519152604482015290519081900360640190fd5b611a388585600081811061171057fe5b611a76858580806020026020016040519081016040528093929190818152602001838360200280828437600092019190915250309250613c15915050565b604080516370a0823160e01b815230600482015290516000916001600160a01b037f000000000000000000000000000000000000000000000000000000000000000016916370a0823191602480820192602092909190829003018186803b158015611ae057600080fd5b505afa158015611af4573d6000803e3d6000fd5b505050506040513d6020811015611b0a57600080fd5b5051905086811015611b4d5760405162461bcd60e51b815260040180806020018281038252602b815260200180614bd6602b913960400191505060405180910390fd5b7f00000000000000000000000000000000000000000000000000000000000000006001600160a01b0316632e1a7d4d826040518263ffffffff1660e01b815260040180828152602001915050600060405180830381600087803b158015611bb357600080fd5b505af1158015611bc7573d6000803e3d6000fd5b50505050611947848261336a565b60608142811015611c1b576040805162461bcd60e51b81526020600482015260186024820152600080516020614c50833981519152604482015290519081900360640190fd5b7f00000000000000000000000000000000000000000000000000000000000000006001600160a01b031686866000818110611c5257fe5b905060200201356001600160a01b03166001600160a01b031614611cab576040805162461bcd60e51b815260206004820152601d6024820152600080516020614b6d833981519152604482015290519081900360640190fd5b611d097f00000000000000000000000000000000000000000000000000000000000000003488888080602002602001604051908101604052809392919081815260200183836020028082843760009201919091525061355292505050565b91508682600184510381518110611d1c57fe5b60200260200101511015611d615760405162461bcd60e51b815260040180806020018281038252602b815260200180614bd6602b913960400191505060405180910390fd5b7f00000000000000000000000000000000000000000000000000000000000000006001600160a01b031663d0e30db083600081518110611d9d57fe5b60200260200101516040518263ffffffff1660e01b81526004016000604051808303818588803b158015611dd057600080fd5b505af1158015611de4573d6000803e3d6000fd5b50505050507f00000000000000000000000000000000000000000000000000000000000000006001600160a01b031663a9059cbb611e497f00000000000000000000000000000000000000000000000000000000000000008989600081811061175257fe5b84600081518110611e5657fe5b60200260200101516040518363ffffffff1660e01b815260040180836001600160a01b03166001600160a01b0316815260200182815260200192505050602060405180830381600087803b158015611ead57600080fd5b505af1158015611ec1573d6000803e3d6000fd5b505050506040513d6020811015611ed757600080fd5b5051611edf57fe5b611f1e82878780806020026020016040519081016040528093929190818152602001838360200280828437600092019190915250899250613897915050565b5095945050505050565b6000610e72848484613f62565b60608142811015611f7b576040805162461bcd60e51b81526020600482015260186024820152600080516020614c50833981519152604482015290519081900360640190fd5b611fd97f000000000000000000000000000000000000000000000000000000000000000089888880806020026020016040519081016040528093929190818152602001838360200280828437600092019190915250613add92505050565b91508682600081518110611fe957fe5b602002602001015111156113d35760405162461bcd60e51b8152600401808060200182810382526027815260200180614b466027913960400191505060405180910390fd5b6000807f00000000000000000000000000000000000000000000000000000000000000006001600160a01b031663e6a4390586856040518363ffffffff1660e01b815260040180836001600160a01b03166001600160a01b03168152602001826001600160a01b03166001600160a01b031681526020019250505060206040518083038186803b1580156120c157600080fd5b505afa1580156120d5573d6000803e3d6000fd5b505050506040513d60208110156120eb57600080fd5b505160408051633ddac95360e01b81526001600160a01b03888116600483015260248201889052915192935090831691633ddac95391604480820192602092909190829003018186803b15801561214157600080fd5b505afa158015612155573d6000803e3d6000fd5b505050506040513d602081101561216b57600080fd5b505195945050505050565b7f000000000000000000000000000000000000000000000000000000000000000081565b6000610e72848484614052565b600081428110156121ed576040805162461bcd60e51b81526020600482015260186024820152600080516020614c50833981519152604482015290519081900360640190fd5b61221c887f000000000000000000000000000000000000000000000000000000000000000089898930896126b4565b604080516370a0823160e01b815230600482015290519194506122a092508a9187916001600160a01b038416916370a0823191602480820192602092909190829003018186803b15801561226f57600080fd5b505afa158015612283573d6000803e3d6000fd5b505050506040513d602081101561229957600080fd5b5051613200565b7f00000000000000000000000000000000000000000000000000000000000000006001600160a01b0316632e1a7d4d836040518263ffffffff1660e01b815260040180828152602001915050600060405180830381600087803b15801561230657600080fd5b505af115801561231a573d6000803e3d6000fd5b5050505061119c848361336a565b804281101561236c576040805162461bcd60e51b81526020600482015260186024820152600080516020614c50833981519152604482015290519081900360640190fd5b7f00000000000000000000000000000000000000000000000000000000000000006001600160a01b0316858560008181106123a357fe5b905060200201356001600160a01b03166001600160a01b0316146123fc576040805162461bcd60e51b815260206004820152601d6024820152600080516020614b6d833981519152604482015290519081900360640190fd5b60003490507f00000000000000000000000000000000000000000000000000000000000000006001600160a01b031663d0e30db0826040518263ffffffff1660e01b81526004016000604051808303818588803b15801561245c57600080fd5b505af1158015612470573d6000803e3d6000fd5b50505050507f00000000000000000000000000000000000000000000000000000000000000006001600160a01b031663a9059cbb6124d57f00000000000000000000000000000000000000000000000000000000000000008989600081811061175257fe5b836040518363ffffffff1660e01b815260040180836001600160a01b03166001600160a01b0316815260200182815260200192505050602060405180830381600087803b15801561252557600080fd5b505af1158015612539573d6000803e3d6000fd5b505050506040513d602081101561254f57600080fd5b505161255757fe5b60008686600019810181811061256957fe5b905060200201356001600160a01b03166001600160a01b03166370a08231866040518263ffffffff1660e01b815260040180826001600160a01b03166001600160a01b0316815260200191505060206040518083038186803b1580156125ce57600080fd5b505afa1580156125e2573d6000803e3d6000fd5b505050506040513d60208110156125f857600080fd5b5051604080516020898102828101820190935289825292935061263a9290918a918a918291850190849080828437600092019190915250899250613c15915050565b8761190a828989600019810181811061264f57fe5b905060200201356001600160a01b03166001600160a01b03166370a08231896040518263ffffffff1660e01b815260040180826001600160a01b03166001600160a01b0316815260200191505060206040518083038186803b1580156118d257600080fd5b60008082428110156126fb576040805162461bcd60e51b81526020600482015260186024820152600080516020614c50833981519152604482015290519081900360640190fd5b60006127287f00000000000000000000000000000000000000000000000000000000000000008c8c61369e565b604080516323b872dd60e01b81523360048201526001600160a01b03831660248201819052604482018d9052915192935090916323b872dd916064808201926020929091908290030181600087803b15801561278357600080fd5b505af1158015612797573d6000803e3d6000fd5b505050506040513d60208110156127ad57600080fd5b50506040805163226bf2d160e21b81526001600160a01b03888116600483015282516000938493928616926389afcb44926024808301939282900301818787803b1580156127fa57600080fd5b505af115801561280e573d6000803e3d6000fd5b505050506040513d604081101561282457600080fd5b5080516020909101519092509050600061283e8e8e6140fe565b509050806001600160a01b03168e6001600160a01b031614612861578183612864565b82825b90975095508a8710156128a85760405162461bcd60e51b8152600401808060200182810382526026815260200180614b8d6026913960400191505060405180910390fd5b898610156128e75760405162461bcd60e51b8152600401808060200182810382526026815260200180614a7b6026913960400191505060405180910390fd5b505050505097509795505050505050565b7f000000000000000000000000000000000000000000000000000000000000000081565b60606111d47f00000000000000000000000000000000000000000000000000000000000000008484613552565b60008060008061297a7f000000000000000000000000000000000000000000000000000000000000000087876141d5565b909450925050505b9250929050565b60008060006129d97f00000000000000000000000000000000000000000000000000000000000000008e7f000000000000000000000000000000000000000000000000000000000000000061369e565b90506000876129e8578c6129ec565b6000195b6040805163d505accf60e01b815233600482015230602482015260448101839052606481018c905260ff8a16608482015260a4810189905260c4810188905290519192506001600160a01b0384169163d505accf9160e48082019260009290919082900301818387803b158015612a6257600080fd5b505af1158015612a76573d6000803e3d6000fd5b50505050612a888e8e8e8e8e8e610d4b565b909f909e509c50505050505050505050505050565b60008060008342811015612ae6576040805162461bcd60e51b81526020600482015260186024820152600080516020614c50833981519152604482015290519081900360640190fd5b612af48c8c8c8c8c8c61429c565b90945092506000612b267f00000000000000000000000000000000000000000000000000000000000000008e8e61369e565b9050612b348d33838861373a565b612b408c33838761373a565b806001600160a01b0316636a627842886040518263ffffffff1660e01b815260040180826001600160a01b03166001600160a01b03168152602001915050602060405180830381600087803b158015612b9857600080fd5b505af1158015612bac573d6000803e3d6000fd5b505050506040513d6020811015612bc257600080fd5b5051949d939c50939a509198505050505050505050565b60008060008342811015612c22576040805162461bcd60e51b81526020600482015260186024820152600080516020614c50833981519152604482015290519081900360640190fd5b612c508a7f00000000000000000000000000000000000000000000000000000000000000008b348c8c61429c565b90945092506000612ca27f00000000000000000000000000000000000000000000000000000000000000008c7f000000000000000000000000000000000000000000000000000000000000000061369e565b9050612cb08b33838861373a565b7f00000000000000000000000000000000000000000000000000000000000000006001600160a01b031663d0e30db0856040518263ffffffff1660e01b81526004016000604051808303818588803b158015612d0b57600080fd5b505af1158015612d1f573d6000803e3d6000fd5b50505050507f00000000000000000000000000000000000000000000000000000000000000006001600160a01b031663a9059cbb82866040518363ffffffff1660e01b815260040180836001600160a01b03166001600160a01b0316815260200182815260200192505050602060405180830381600087803b158015612da457600080fd5b505af1158015612db8573d6000803e3d6000fd5b505050506040513d6020811015612dce57600080fd5b5051612dd657fe5b806001600160a01b0316636a627842886040518263ffffffff1660e01b815260040180826001600160a01b03166001600160a01b03168152602001915050602060405180830381600087803b158015612e2e57600080fd5b505af1158015612e42573d6000803e3d6000fd5b505050506040513d6020811015612e5857600080fd5b5051925034841015612e7057612e703385340361336a565b505096509650969350505050565b60608142811015612ec4576040805162461bcd60e51b81526020600482015260186024820152600080516020614c50833981519152604482015290519081900360640190fd5b7f00000000000000000000000000000000000000000000000000000000000000006001600160a01b031686866000818110612efb57fe5b905060200201356001600160a01b03166001600160a01b031614612f54576040805162461bcd60e51b815260206004820152601d6024820152600080516020614b6d833981519152604482015290519081900360640190fd5b612fb27f000000000000000000000000000000000000000000000000000000000000000088888880806020026020016040519081016040528093929190818152602001838360200280828437600092019190915250613add92505050565b91503482600081518110612fc257fe5b602002602001015111156130075760405162461bcd60e51b8152600401808060200182810382526027815260200180614b466027913960400191505060405180910390fd5b7f00000000000000000000000000000000000000000000000000000000000000006001600160a01b031663d0e30db08360008151811061304357fe5b60200260200101516040518263ffffffff1660e01b81526004016000604051808303818588803b15801561307657600080fd5b505af115801561308a573d6000803e3d6000fd5b50505050507f00000000000000000000000000000000000000000000000000000000000000006001600160a01b031663a9059cbb6130ef7f00000000000000000000000000000000000000000000000000000000000000008989600081811061175257fe5b846000815181106130fc57fe5b60200260200101516040518363ffffffff1660e01b815260040180836001600160a01b03166001600160a01b0316815260200182815260200192505050602060405180830381600087803b15801561315357600080fd5b505af1158015613167573d6000803e3d6000fd5b505050506040513d602081101561317d57600080fd5b505161318557fe5b6131c482878780806020026020016040519081016040528093929190818152602001838360200280828437600092019190915250899250613897915050565b816000815181106131d157fe5b6020026020010151341115611f1e57611f1e33836000815181106131f157fe5b6020026020010151340361336a565b604080516001600160a01b038481166024830152604480830185905283518084039091018152606490920183526020820180516001600160e01b031663a9059cbb60e01b178152925182516000946060949389169392918291908083835b6020831061327d5780518252601f19909201916020918201910161325e565b6001836020036101000a0380198251168184511680821785525050505050509050019150506000604051808303816000865af19150503d80600081146132df576040519150601f19603f3d011682016040523d82523d6000602084013e6132e4565b606091505b5091509150818015613312575080511580613312575080806020019051602081101561330f57600080fd5b50515b613363576040805162461bcd60e51b815260206004820152601f60248201527f5472616e7366657248656c7065723a205452414e534645525f4641494c454400604482015290519081900360640190fd5b5050505050565b604080516000808252602082019092526001600160a01b0384169083906040518082805190602001908083835b602083106133b65780518252601f199092019160209182019101613397565b6001836020036101000a03801982511681845116808217855250505050505090500191505060006040518083038185875af1925050503d8060008114613418576040519150601f19603f3d011682016040523d82523d6000602084013e61341d565b606091505b505090508061345d5760405162461bcd60e51b8152600401808060200182810382526023815260200180614bb36023913960400191505060405180910390fd5b505050565b60008084116134a25760405162461bcd60e51b815260040180806020018281038252602b815260200180614c25602b913960400191505060405180910390fd5b6000831180156134b25750600082115b6134ed5760405162461bcd60e51b8152600401808060200182810382526028815260200180614aa16028913960400191505060405180910390fd5b6000613501856103e563ffffffff6147ea16565b90506000613515828563ffffffff6147ea16565b9050600061353b8361352f886103e863ffffffff6147ea16565b9063ffffffff61484316565b905080828161354657fe5b04979650505050505050565b60606002825110156135ab576040805162461bcd60e51b815260206004820152601e60248201527f556e697377617056324c6962726172793a20494e56414c49445f504154480000604482015290519081900360640190fd5b815167ffffffffffffffff811180156135c357600080fd5b506040519080825280602002602001820160405280156135ed578160200160208202803683370190505b50905082816000815181106135fe57fe5b60200260200101818152505060005b6001835103811015613696576000806136508786858151811061362c57fe5b602002602001015187866001018151811061364357fe5b60200260200101516141d5565b9150915061367284848151811061366357fe5b60200260200101518383613462565b84846001018151811061368157fe5b6020908102919091010152505060010161360d565b509392505050565b60008060006136ad85856140fe565b6040805163e6a4390560e01b81526001600160a01b0380851660048301528084166024830152915193955091935088169163e6a4390591604480820192602092909190829003018186803b15801561370457600080fd5b505afa158015613718573d6000803e3d6000fd5b505050506040513d602081101561372e57600080fd5b50519695505050505050565b604080516001600160a01b0385811660248301528481166044830152606480830185905283518084039091018152608490920183526020820180516001600160e01b03166323b872dd60e01b17815292518251600094606094938a169392918291908083835b602083106137bf5780518252601f1990920191602091820191016137a0565b6001836020036101000a0380198251168184511680821785525050505050509050019150506000604051808303816000865af19150503d8060008114613821576040519150601f19603f3d011682016040523d82523d6000602084013e613826565b606091505b5091509150818015613854575080511580613854575080806020019051602081101561385157600080fd5b50515b61388f5760405162461bcd60e51b8152600401808060200182810382526024815260200180614c016024913960400191505060405180910390fd5b505050505050565b60005b6001835103811015613ad7576000808483815181106138b557fe5b60200260200101518584600101815181106138cc57fe5b60200260200101519150915060006138e483836140fe565b50905060008785600101815181106138f857fe5b60200260200101519050600080836001600160a01b0316866001600160a01b0316146139265782600061392a565b6000835b91509150600060028a510388106139415788613982565b6139827f0000000000000000000000000000000000000000000000000000000000000000878c8b6002018151811061397557fe5b602002602001015161369e565b90506139af7f0000000000000000000000000000000000000000000000000000000000000000888861369e565b6001600160a01b031663022c0d9f84848460006040519080825280601f01601f1916602001820160405280156139ec576020820181803683370190505b506040518563ffffffff1660e01b815260040180858152602001848152602001836001600160a01b03166001600160a01b0316815260200180602001828103825283818151815260200191508051906020019080838360005b83811015613a5d578181015183820152602001613a45565b50505050905090810190601f168015613a8a5780820380516001836020036101000a031916815260200191505b5095505050505050600060405180830381600087803b158015613aac57600080fd5b505af1158015613ac0573d6000803e3d6000fd5b50506001909901985061389a975050505050505050565b50505050565b6060600282511015613b36576040805162461bcd60e51b815260206004820152601e60248201527f556e697377617056324c6962726172793a20494e56414c49445f504154480000604482015290519081900360640190fd5b815167ffffffffffffffff81118015613b4e57600080fd5b50604051908082528060200260200182016040528015613b78578160200160208202803683370190505b5090508281600183510381518110613b8c57fe5b60209081029190910101528151600019015b801561369657600080613bce87866001860381518110613bba57fe5b602002602001015187868151811061364357fe5b91509150613bf0848481518110613be157fe5b60200260200101518383613f62565b846001850381518110613bff57fe5b6020908102919091010152505060001901613b9e565b60005b600183510381101561345d57600080848381518110613c3357fe5b6020026020010151858460010181518110613c4a57fe5b6020026020010151915091506000613c6283836140fe565b5090506000613c927f0000000000000000000000000000000000000000000000000000000000000000858561369e565b9050600080600080846001600160a01b0316630902f1ac6040518163ffffffff1660e01b815260040160606040518083038186803b158015613cd357600080fd5b505afa158015613ce7573d6000803e3d6000fd5b505050506040513d6060811015613cfd57600080fd5b5080516020909101516001600160701b0391821693501690506000806001600160a01b038a811690891614613d33578284613d36565b83835b91509150613d94828b6001600160a01b03166370a082318a6040518263ffffffff1660e01b815260040180826001600160a01b03166001600160a01b0316815260200191505060206040518083038186803b1580156118d257600080fd5b9550613da1868383613462565b945050505050600080856001600160a01b0316886001600160a01b031614613dcb57826000613dcf565b6000835b91509150600060028c51038a10613de6578a613e1a565b613e1a7f0000000000000000000000000000000000000000000000000000000000000000898e8d6002018151811061397557fe5b604080516000808252602082019283905263022c0d9f60e01b835260248201878152604483018790526001600160a01b038086166064850152608060848501908152845160a48601819052969750908c169563022c0d9f958a958a958a9591949193919260c486019290918190849084905b83811015613ea4578181015183820152602001613e8c565b50505050905090810190601f168015613ed15780820380516001836020036101000a031916815260200191505b5095505050505050600060405180830381600087803b158015613ef357600080fd5b505af1158015613f07573d6000803e3d6000fd5b50506001909b019a50613c189950505050505050505050565b60006111d483836040518060400160405280601e81526020017f536166654d6174683a207375627472616374696f6e206f766572666c6f77000081525061489d565b6000808411613fa25760405162461bcd60e51b815260040180806020018281038252602c815260200180614a2a602c913960400191505060405180910390fd5b600083118015613fb25750600082115b613fed5760405162461bcd60e51b8152600401808060200182810382526028815260200180614aa16028913960400191505060405180910390fd5b60006140116103e8614005868863ffffffff6147ea16565b9063ffffffff6147ea16565b9050600061402b6103e5614005868963ffffffff613f2016565b9050614048600182848161403b57fe5b049063ffffffff61484316565b9695505050505050565b60008084116140925760405162461bcd60e51b8152600401808060200182810382526025815260200180614aea6025913960400191505060405180910390fd5b6000831180156140a25750600082115b6140dd5760405162461bcd60e51b8152600401808060200182810382526028815260200180614aa16028913960400191505060405180910390fd5b826140ee858463ffffffff6147ea16565b816140f557fe5b04949350505050565b600080826001600160a01b0316846001600160a01b031614156141525760405162461bcd60e51b8152600401808060200182810382526025815260200180614a566025913960400191505060405180910390fd5b826001600160a01b0316846001600160a01b031610614172578284614175565b83835b90925090506001600160a01b038216612982576040805162461bcd60e51b815260206004820152601e60248201527f556e697377617056324c6962726172793a205a45524f5f414444524553530000604482015290519081900360640190fd5b60008060006141e485856140fe565b5090506000806141f588888861369e565b6001600160a01b0316630902f1ac6040518163ffffffff1660e01b815260040160606040518083038186803b15801561422d57600080fd5b505afa158015614241573d6000803e3d6000fd5b505050506040513d606081101561425757600080fd5b5080516020909101516001600160701b0391821693501690506001600160a01b038781169084161461428a57808261428d565b81815b90999098509650505050505050565b60008060007f00000000000000000000000000000000000000000000000000000000000000006001600160a01b031663e6a439058a8a6040518363ffffffff1660e01b815260040180836001600160a01b03166001600160a01b03168152602001826001600160a01b03166001600160a01b031681526020019250505060206040518083038186803b15801561433157600080fd5b505afa158015614345573d6000803e3d6000fd5b505050506040513d602081101561435b57600080fd5b505190506001600160a01b03811661441157604080516364e329cb60e11b81526001600160a01b038b811660048301528a8116602483015291517f00000000000000000000000000000000000000000000000000000000000000009092169163c9c65396916044808201926020929091908290030181600087803b1580156143e257600080fd5b505af11580156143f6573d6000803e3d6000fd5b505050506040513d602081101561440c57600080fd5b505190505b806000806144407f00000000000000000000000000000000000000000000000000000000000000008d8d6141d5565b91509150816000148015614452575080155b15614462578995508894506147db565b600061446f8b8484614052565b905089811161461f57878110156144b75760405162461bcd60e51b8152600401808060200182810382526026815260200180614a7b6026913960400191505060405180910390fd5b60408051633ddac95360e01b81526001600160a01b038f81166004830152602482018e90529151600092871691633ddac953916044808301926020929190829003018186803b15801561450957600080fd5b505afa15801561451d573d6000803e3d6000fd5b505050506040513d602081101561453357600080fd5b5051905060006145438383614934565b90508115806145d557507f00000000000000000000000000000000000000000000000000000000000000006001600160a01b0316638aa6d2cf6040518163ffffffff1660e01b815260040160206040518083038186803b1580156145a657600080fd5b505afa1580156145ba573d6000803e3d6000fd5b505050506040513d60208110156145d057600080fd5b505181105b6146105760405162461bcd60e51b8152600401808060200182810382526037815260200180614b0f6037913960400191505060405180910390fd5b508b97509095508590506147d9565b600061462c8b8486614052565b90508b81111561463857fe5b898110156146775760405162461bcd60e51b8152600401808060200182810382526026815260200180614b8d6026913960400191505060405180910390fd5b60408051633ddac95360e01b81526001600160a01b038f81166004830152602482018e90529151600092881691633ddac953916044808301926020929190829003018186803b1580156146c957600080fd5b505afa1580156146dd573d6000803e3d6000fd5b505050506040513d60208110156146f357600080fd5b5051905060006147038383614934565b905081158061479557507f00000000000000000000000000000000000000000000000000000000000000006001600160a01b0316638aa6d2cf6040518163ffffffff1660e01b815260040160206040518083038186803b15801561476657600080fd5b505afa15801561477a573d6000803e3d6000fd5b505050506040513d602081101561479057600080fd5b505181105b6147d05760405162461bcd60e51b8152600401808060200182810382526037815260200180614b0f6037913960400191505060405180910390fd5b509097508a9650505b505b50505050965096945050505050565b6000826147f9575060006111d7565b8282028284828161480657fe5b04146111d45760405162461bcd60e51b8152600401808060200182810382526021815260200180614ac96021913960400191505060405180910390fd5b6000828201838110156111d4576040805162461bcd60e51b815260206004820152601b60248201527f536166654d6174683a206164646974696f6e206f766572666c6f770000000000604482015290519081900360640190fd5b6000818484111561492c5760405162461bcd60e51b81526004018080602001828103825283818151815260200191508051906020019080838360005b838110156148f15781810151838201526020016148d9565b50505050905090810190601f16801561491e5780820380516001836020036101000a031916815260200191505b509250505060405180910390fd5b505050900390565b60008183111561496c576149658361495984820364e8d4a5100063ffffffff6147ea16565b9063ffffffff61498716565b90506111d7565b6149658261495985820364e8d4a5100063ffffffff6147ea16565b60006111d483836040518060400160405280601a81526020017f536166654d6174683a206469766973696f6e206279207a65726f00000000000081525060008183614a135760405162461bcd60e51b81526020600482018181528351602484015283519092839260449091019190850190808383600083156148f15781810151838201526020016148d9565b506000838581614a1f57fe5b049594505050505056fe556e697377617056324c6962726172793a20494e53554646494349454e545f4f55545055545f414d4f554e54556e697377617056324c6962726172793a204944454e544943414c5f414444524553534553556e69737761705632526f757465723a20494e53554646494349454e545f425f414d4f554e54556e697377617056324c6962726172793a20494e53554646494349454e545f4c4951554944495459536166654d6174683a206d756c7469706c69636174696f6e206f766572666c6f77556e697377617056324c6962726172793a20494e53554646494349454e545f414d4f554e5453706f74207673204f7261636c6520417665726167656420707269636520646976657267656e6365206578636565646573206c696d6974556e69737761705632526f757465723a204558434553534956455f494e5055545f414d4f554e54556e69737761705632526f757465723a20494e56414c49445f50415448000000556e69737761705632526f757465723a20494e53554646494349454e545f415f414d4f554e545472616e7366657248656c7065723a204554485f5452414e534645525f4641494c4544556e69737761705632526f757465723a20494e53554646494349454e545f4f55545055545f414d4f554e545472616e7366657248656c7065723a205452414e534645525f46524f4d5f4641494c4544556e697377617056324c6962726172793a20494e53554646494349454e545f494e5055545f414d4f554e54556e69737761705632526f757465723a20455850495245440000000000000000a264697066735822122040658dbc64caf3321e02553d6576dca597679f0d7d4b9c50e5d6afbd7b0a233364736f6c634300060b0033",
  "devdoc": {
    "kind": "dev",
    "methods": {},
    "version": 1
  },
  "userdoc": {
    "kind": "user",
    "methods": {},
    "version": 1
  },
  "storageLayout": {
    "storage": [],
    "types": null
  }
}