{
  "address": "0x93615E03510a0cFDff496c8D974ef46E8690E06C",
  "abi": [
    {
      "anonymous": false,
      "inputs": [
        {
          "indexed": true,
          "internalType": "address",
          "name": "previousOwner",
          "type": "address"
        },
        {
          "indexed": true,
          "internalType": "address",
          "name": "newOwner",
          "type": "address"
        }
      ],
      "name": "OwnershipTransferred",
      "type": "event"
    },
    {
      "anonymous": false,
      "inputs": [
        {
          "indexed": false,
          "internalType": "address",
          "name": "user",
          "type": "address"
        },
        {
          "indexed": false,
          "internalType": "uint256",
          "name": "amount",
          "type": "uint256"
        }
      ],
      "name": "RewardClaimed",
      "type": "event"
    },
    {
      "anonymous": false,
      "inputs": [
        {
          "indexed": false,
          "internalType": "address",
          "name": "user",
          "type": "address"
        },
        {
          "indexed": false,
          "internalType": "uint256",
          "name": "amount",
          "type": "uint256"
        }
      ],
      "name": "ScheduleCreated",
      "type": "event"
    },
    {
      "inputs": [],
      "name": "claim",
      "outputs": [],
      "stateMutability": "nonpayable",
      "type": "function"
    },
    {
      "inputs": [
        {
          "internalType": "address",
          "name": "_vestedTokenAddress",
          "type": "address"
        },
        {
          "internalType": "address",
          "name": "_vestingScheduler",
          "type": "address"
        },
        {
          "internalType": "address",
          "name": "_fundsProvider",
          "type": "address"
        },
        {
          "internalType": "uint256",
          "name": "_vestingTimeInSeconds",
          "type": "uint256"
        }
      ],
      "name": "initialize",
      "outputs": [],
      "stateMutability": "nonpayable",
      "type": "function"
    },
    {
      "inputs": [],
      "name": "owner",
      "outputs": [
        {
          "internalType": "address",
          "name": "",
          "type": "address"
        }
      ],
      "stateMutability": "view",
      "type": "function"
    },
    {
      "inputs": [],
      "name": "renounceOwnership",
      "outputs": [],
      "stateMutability": "nonpayable",
      "type": "function"
    },
    {
      "inputs": [
        {
          "internalType": "address",
          "name": "_receiver",
          "type": "address"
        },
        {
          "internalType": "uint256",
          "name": "_amount_d18",
          "type": "uint256"
        }
      ],
      "name": "schedule",
      "outputs": [],
      "stateMutability": "nonpayable",
      "type": "function"
    },
    {
      "inputs": [
        {
          "internalType": "address",
          "name": "_fundsProvider",
          "type": "address"
        }
      ],
      "name": "setFundsProvider",
      "outputs": [],
      "stateMutability": "nonpayable",
      "type": "function"
    },
    {
      "inputs": [
        {
          "internalType": "address",
          "name": "_vestingScheduler",
          "type": "address"
        }
      ],
      "name": "setVestingScheduler",
      "outputs": [],
      "stateMutability": "nonpayable",
      "type": "function"
    },
    {
      "inputs": [
        {
          "internalType": "uint256",
          "name": "_vestingTimeInSeconds",
          "type": "uint256"
        }
      ],
      "name": "setVestingTimeInSeconds",
      "outputs": [],
      "stateMutability": "nonpayable",
      "type": "function"
    },
    {
      "inputs": [
        {
          "internalType": "address",
          "name": "newOwner",
          "type": "address"
        }
      ],
      "name": "transferOwnership",
      "outputs": [],
      "stateMutability": "nonpayable",
      "type": "function"
    },
    {
      "inputs": [
        {
          "internalType": "address",
          "name": "",
          "type": "address"
        },
        {
          "internalType": "uint256",
          "name": "",
          "type": "uint256"
        }
      ],
      "name": "vestingSchedules",
      "outputs": [
        {
          "internalType": "uint256",
          "name": "vestingStartedTimeStamp",
          "type": "uint256"
        },
        {
          "internalType": "uint256",
          "name": "totalVestedAmount_d18",
          "type": "uint256"
        },
        {
          "internalType": "uint256",
          "name": "releasedAmount_d18",
          "type": "uint256"
        }
      ],
      "stateMutability": "view",
      "type": "function"
    },
    {
      "inputs": [],
      "name": "vestingTimeInSeconds",
      "outputs": [
        {
          "internalType": "uint256",
          "name": "",
          "type": "uint256"
        }
      ],
      "stateMutability": "view",
      "type": "function"
    }
  ],
  "transactionHash": "0x00325680205c28807feaed69f2b5168599782d42e8662790700674469498ed28",
  "args": [],
  "solcInputHash": "7fc5f7df362effb291697cb25232d91e",
  "bytecode": "0x608060405234801561001057600080fd5b506111c6806100206000396000f3fe608060405234801561001057600080fd5b50600436106100a95760003560e01c80638f242197116100715780638f24219714610115578063a7ee9c8a14610128578063b84c8ce51461013b578063bfa56bbd1461014e578063cf756fdf14610161578063f2fde38b14610174576100a9565b806345626bd6146100ae5780634e71d92d146100d9578063530f702c146100e3578063715018a6146100f85780638da5cb5b14610100575b600080fd5b6100c16100bc366004610dec565b610187565b6040516100d093929190611135565b60405180910390f35b6100e16101c6565b005b6100eb6103cf565b6040516100d0919061112c565b6100e16103d5565b610108610467565b6040516100d09190610e6a565b6100e1610123366004610e36565b610476565b6100e1610136366004610d81565b6104b3565b6100e1610149366004610dec565b61050d565b6100e161015c366004610d81565b6105da565b6100e161016f366004610d9c565b610634565b6100e1610182366004610d81565b610705565b606560205281600052604060002081815481106101a057fe5b600091825260209091206003909102018054600182015460029092015490935090915083565b33600090815260656020526040812090805b825481101561037a5761022c8382815481106101f057fe5b906000526020600020906003020160405180606001604052908160008201548152602001600182015481526020016002820154815250506107c6565b156102be5761028e61028184838154811061024357fe5b90600052602060002090600302016002015485848154811061026157fe5b9060005260206000209060030201600101546107e790919063ffffffff16565b839063ffffffff61083216565b915082818154811061029c57fe5b6000918252602082206003909102018181556001810182905560020155610372565b600061030b8483815481106102cf57fe5b90600052602060002090600302016040518060600160405290816000820154815260200160018201548152602001600282015481525050610857565b905061031d838263ffffffff61083216565b925061034f8185848154811061032f57fe5b90600052602060002090600302016002015461083290919063ffffffff16565b84838154811061035b57fe5b906000526020600020906003020160020181905550505b6001016101d8565b50606954610392906001600160a01b031633836108aa565b7f106f923f993c2149d49b4255ff723acafa1f2d94393f561d3eda32ae348f724133826040516103c3929190610e7e565b60405180910390a15050565b60685481565b6103dd610991565b6001600160a01b03166103ee610467565b6001600160a01b03161461041d5760405162461bcd60e51b8152600401610414906110b3565b60405180910390fd5b6033546040516000916001600160a01b0316907f8be0079c531659141344cd1fd0a4f28419497f9722a3daafe3b4186f6b6457e0908390a3603380546001600160a01b0319169055565b6033546001600160a01b031690565b61047e610467565b6001600160a01b0316336001600160a01b0316146104ae5760405162461bcd60e51b815260040161041490610fa2565b606855565b6104bb610467565b6001600160a01b0316336001600160a01b0316146104eb5760405162461bcd60e51b815260040161041490610fa2565b606780546001600160a01b0319166001600160a01b0392909216919091179055565b6066546001600160a01b031633146105375760405162461bcd60e51b815260040161041490610fd1565b6001600160a01b038083166000908152606560209081526040808320815160608101835242815280840187815292810185815282546001818101855593875294909520905160039094020192835590519082015590516002909101556069546067546105a99291821691163084610995565b7f9c52cb9bbb9b7fa6ddb26d1e82afc4e62c9ec50c0f3488c10bb8ad22d4edc4c382826040516103c3929190610e7e565b6105e2610467565b6001600160a01b0316336001600160a01b0316146106125760405162461bcd60e51b815260040161041490610fa2565b606680546001600160a01b0319166001600160a01b0392909216919091179055565b600054610100900460ff168061064d575061064d610a86565b8061065b575060005460ff16155b6106775760405162461bcd60e51b815260040161041490611024565b600054610100900460ff161580156106a2576000805460ff1961ff0019909116610100171660011790555b6106aa610a97565b606980546001600160a01b038088166001600160a01b031992831617909255606680548784169083161790556067805492861692909116919091179055606882905580156106fe576000805461ff00191690555b5050505050565b61070d610991565b6001600160a01b031661071e610467565b6001600160a01b0316146107445760405162461bcd60e51b8152600401610414906110b3565b6001600160a01b03811661076a5760405162461bcd60e51b815260040161041490610f25565b6033546040516001600160a01b038084169216907f8be0079c531659141344cd1fd0a4f28419497f9722a3daafe3b4186f6b6457e090600090a3603380546001600160a01b0319166001600160a01b0392909216919091179055565b606854815160009142916107df9163ffffffff61083216565b111592915050565b600061082983836040518060400160405280601e81526020017f536166654d6174683a207375627472616374696f6e206f766572666c6f770000815250610b2a565b90505b92915050565b6000828201838110156108295760405162461bcd60e51b815260040161041490610f6b565b600061082c826040015161089e6068546108926108818760000151426107e790919063ffffffff16565b60208801519063ffffffff610b5616565b9063ffffffff610b9016565b9063ffffffff6107e716565b60006060846001600160a01b031663a9059cbb85856040516024016108d0929190610e7e565b6040516020818303038152906040529060e01b6020820180516001600160e01b0383818316178352505050506040516109099190610e4e565b6000604051808303816000865af19150503d8060008114610946576040519150601f19603f3d011682016040523d82523d6000602084013e61094b565b606091505b50915091508180156109755750805115806109755750808060200190518101906109759190610e16565b6106fe5760405162461bcd60e51b815260040161041490610eee565b3390565b60006060856001600160a01b03166323b872dd8686866040516024016109bd93929190610e97565b6040516020818303038152906040529060e01b6020820180516001600160e01b0383818316178352505050506040516109f69190610e4e565b6000604051808303816000865af19150503d8060008114610a33576040519150601f19603f3d011682016040523d82523d6000602084013e610a38565b606091505b5091509150818015610a62575080511580610a62575080806020019051810190610a629190610e16565b610a7e5760405162461bcd60e51b8152600401610414906110e8565b505050505050565b6000610a9130610bd2565b15905090565b600054610100900460ff1680610ab05750610ab0610a86565b80610abe575060005460ff16155b610ada5760405162461bcd60e51b815260040161041490611024565b600054610100900460ff16158015610b05576000805460ff1961ff0019909116610100171660011790555b610b0d610bd8565b610b15610c59565b8015610b27576000805461ff00191690555b50565b60008184841115610b4e5760405162461bcd60e51b81526004016104149190610ebb565b505050900390565b600082610b655750600061082c565b82820282848281610b7257fe5b04146108295760405162461bcd60e51b815260040161041490611072565b600061082983836040518060400160405280601a81526020017f536166654d6174683a206469766973696f6e206279207a65726f000000000000815250610d33565b3b151590565b600054610100900460ff1680610bf15750610bf1610a86565b80610bff575060005460ff16155b610c1b5760405162461bcd60e51b815260040161041490611024565b600054610100900460ff16158015610b15576000805460ff1961ff0019909116610100171660011790558015610b27576000805461ff001916905550565b600054610100900460ff1680610c725750610c72610a86565b80610c80575060005460ff16155b610c9c5760405162461bcd60e51b815260040161041490611024565b600054610100900460ff16158015610cc7576000805460ff1961ff0019909116610100171660011790555b6000610cd1610991565b603380546001600160a01b0319166001600160a01b038316908117909155604051919250906000907f8be0079c531659141344cd1fd0a4f28419497f9722a3daafe3b4186f6b6457e0908290a3508015610b27576000805461ff001916905550565b60008183610d545760405162461bcd60e51b81526004016104149190610ebb565b506000838581610d6057fe5b0495945050505050565b80356001600160a01b038116811461082c57600080fd5b600060208284031215610d92578081fd5b6108298383610d6a565b60008060008060808587031215610db1578283fd5b8435610dbc8161117b565b93506020850135610dcc8161117b565b92506040850135610ddc8161117b565b9396929550929360600135925050565b60008060408385031215610dfe578182fd5b610e088484610d6a565b946020939093013593505050565b600060208284031215610e27578081fd5b81518015158114610829578182fd5b600060208284031215610e47578081fd5b5035919050565b60008251610e6081846020870161114b565b9190910192915050565b6001600160a01b0391909116815260200190565b6001600160a01b03929092168252602082015260400190565b6001600160a01b039384168152919092166020820152604081019190915260600190565b6000602082528251806020840152610eda81604085016020870161114b565b601f01601f19169190910160400192915050565b6020808252601f908201527f5472616e7366657248656c7065723a205452414e534645525f4641494c454400604082015260600190565b60208082526026908201527f4f776e61626c653a206e6577206f776e657220697320746865207a65726f206160408201526564647265737360d01b606082015260800190565b6020808252601b908201527f536166654d6174683a206164646974696f6e206f766572666c6f770000000000604082015260600190565b6020808252601590820152742cb7ba9030b932903737ba103a34329037bbb732b960591b604082015260600190565b60208082526033908201527f4f6e6c792076657374696e67207363686564756c65722063616e206372656174604082015272652076657374696e67207363686564756c657360681b606082015260800190565b6020808252602e908201527f496e697469616c697a61626c653a20636f6e747261637420697320616c72656160408201526d191e481a5b9a5d1a585b1a5e995960921b606082015260800190565b60208082526021908201527f536166654d6174683a206d756c7469706c69636174696f6e206f766572666c6f6040820152607760f81b606082015260800190565b6020808252818101527f4f776e61626c653a2063616c6c6572206973206e6f7420746865206f776e6572604082015260600190565b60208082526024908201527f5472616e7366657248656c7065723a205452414e534645525f46524f4d5f46416040820152631253115160e21b606082015260800190565b90815260200190565b9283526020830191909152604082015260600190565b60005b8381101561116657818101518382015260200161114e565b83811115611175576000848401525b50505050565b6001600160a01b0381168114610b2757600080fdfea2646970667358221220f0abf23bd755be8f34a5c92e69efc82e06690e8082de42c0a5f52ec0b967708a64736f6c634300060b0033",
  "devdoc": {
    "kind": "dev",
    "methods": {
      "owner()": {
        "details": "Returns the address of the current owner."
      },
      "renounceOwnership()": {
        "details": "Leaves the contract without owner. It will not be possible to call `onlyOwner` functions anymore. Can only be called by the current owner. NOTE: Renouncing ownership will leave the contract without an owner, thereby removing any functionality that is only available to the owner."
      },
      "transferOwnership(address)": {
        "details": "Transfers ownership of the contract to a new account (`newOwner`). Can only be called by the current owner."
      }
    },
    "version": 1
  },
  "userdoc": {
    "kind": "user",
    "methods": {},
    "version": 1
  },
  "storageLayout": {
    "storage": [
      {
        "astId": 492,
        "contract": "contracts/Staking/Vesting.sol:Vesting",
        "label": "_initialized",
        "offset": 0,
        "slot": "0",
        "type": "t_bool"
      },
      {
        "astId": 495,
        "contract": "contracts/Staking/Vesting.sol:Vesting",
        "label": "_initializing",
        "offset": 1,
        "slot": "0",
        "type": "t_bool"
      },
      {
        "astId": 1447,
        "contract": "contracts/Staking/Vesting.sol:Vesting",
        "label": "__gap",
        "offset": 0,
        "slot": "1",
        "type": "t_array(t_uint256)50_storage"
      },
      {
        "astId": 10,
        "contract": "contracts/Staking/Vesting.sol:Vesting",
        "label": "_owner",
        "offset": 0,
        "slot": "51",
        "type": "t_address"
      },
      {
        "astId": 129,
        "contract": "contracts/Staking/Vesting.sol:Vesting",
        "label": "__gap",
        "offset": 0,
        "slot": "52",
        "type": "t_array(t_uint256)49_storage"
      },
      {
        "astId": 10350,
        "contract": "contracts/Staking/Vesting.sol:Vesting",
        "label": "vestingSchedules",
        "offset": 0,
        "slot": "101",
        "type": "t_mapping(t_address,t_array(t_struct(VestingSchedule)10345_storage)dyn_storage)"
      },
      {
        "astId": 10352,
        "contract": "contracts/Staking/Vesting.sol:Vesting",
        "label": "vestingScheduler",
        "offset": 0,
        "slot": "102",
        "type": "t_address"
      },
      {
        "astId": 10354,
        "contract": "contracts/Staking/Vesting.sol:Vesting",
        "label": "fundsProvider",
        "offset": 0,
        "slot": "103",
        "type": "t_address"
      },
      {
        "astId": 10356,
        "contract": "contracts/Staking/Vesting.sol:Vesting",
        "label": "vestingTimeInSeconds",
        "offset": 0,
        "slot": "104",
        "type": "t_uint256"
      },
      {
        "astId": 10358,
        "contract": "contracts/Staking/Vesting.sol:Vesting",
        "label": "vestedToken",
        "offset": 0,
        "slot": "105",
        "type": "t_contract(ERC20)5857"
      }
    ],
    "types": {
      "t_address": {
        "encoding": "inplace",
        "label": "address",
        "numberOfBytes": "20"
      },
      "t_array(t_struct(VestingSchedule)10345_storage)dyn_storage": {
        "base": "t_struct(VestingSchedule)10345_storage",
        "encoding": "dynamic_array",
        "label": "struct Vesting.VestingSchedule[]",
        "numberOfBytes": "32"
      },
      "t_array(t_uint256)49_storage": {
        "base": "t_uint256",
        "encoding": "inplace",
        "label": "uint256[49]",
        "numberOfBytes": "1568"
      },
      "t_array(t_uint256)50_storage": {
        "base": "t_uint256",
        "encoding": "inplace",
        "label": "uint256[50]",
        "numberOfBytes": "1600"
      },
      "t_bool": {
        "encoding": "inplace",
        "label": "bool",
        "numberOfBytes": "1"
      },
      "t_contract(ERC20)5857": {
        "encoding": "inplace",
        "label": "contract ERC20",
        "numberOfBytes": "20"
      },
      "t_mapping(t_address,t_array(t_struct(VestingSchedule)10345_storage)dyn_storage)": {
        "encoding": "mapping",
        "key": "t_address",
        "label": "mapping(address => struct Vesting.VestingSchedule[])",
        "numberOfBytes": "32",
        "value": "t_array(t_struct(VestingSchedule)10345_storage)dyn_storage"
      },
      "t_struct(VestingSchedule)10345_storage": {
        "encoding": "inplace",
        "label": "struct Vesting.VestingSchedule",
        "members": [
          {
            "astId": 10340,
            "contract": "contracts/Staking/Vesting.sol:Vesting",
            "label": "vestingStartedTimeStamp",
            "offset": 0,
            "slot": "0",
            "type": "t_uint256"
          },
          {
            "astId": 10342,
            "contract": "contracts/Staking/Vesting.sol:Vesting",
            "label": "totalVestedAmount_d18",
            "offset": 0,
            "slot": "1",
            "type": "t_uint256"
          },
          {
            "astId": 10344,
            "contract": "contracts/Staking/Vesting.sol:Vesting",
            "label": "releasedAmount_d18",
            "offset": 0,
            "slot": "2",
            "type": "t_uint256"
          }
        ],
        "numberOfBytes": "96"
      },
      "t_uint256": {
        "encoding": "inplace",
        "label": "uint256",
        "numberOfBytes": "32"
      }
    }
  }
}