{
  "address": "0x8cd716CCd4d857F7441b3a1A06468bA9B6b9ACD0",
  "abi": [
    {
      "inputs": [
        {
          "internalType": "address",
          "name": "_wethAddress",
          "type": "address"
        }
      ],
      "stateMutability": "nonpayable",
      "type": "constructor"
    },
    {
      "inputs": [
        {
          "internalType": "address",
          "name": "tokenIn",
          "type": "address"
        },
        {
          "internalType": "uint256",
          "name": "amountIn",
          "type": "uint256"
        }
      ],
      "name": "consult",
      "outputs": [
        {
          "internalType": "uint256",
          "name": "amountOut",
          "type": "uint256"
        }
      ],
      "stateMutability": "view",
      "type": "function"
    },
    {
      "inputs": [],
      "name": "shouldUpdateOracle",
      "outputs": [
        {
          "internalType": "bool",
          "name": "",
          "type": "bool"
        }
      ],
      "stateMutability": "view",
      "type": "function"
    },
    {
      "inputs": [],
      "name": "updateOracle",
      "outputs": [],
      "stateMutability": "nonpayable",
      "type": "function"
    }
  ],
  "transactionHash": "0xbd81273562830d92de215e9027e8a80182f74d6bac507ed6f0edaac64975d339",
  "args": [
    "0xd0a1e359811322d97991e03f863a0c30c2cf029c"
  ],
  "solcInputHash": "36185021115f3fccbe06894bb4a1b398",
  "bytecode": "0x608060405234801561001057600080fd5b506040516101cd3803806101cd8339818101604052602081101561003357600080fd5b5051600080546001600160a01b039092166001600160a01b0319909216919091179055610168806100656000396000f3fe608060405234801561001057600080fd5b50600436106100415760003560e01c806309bf39ed146100465780633ddac95314610062578063d6f124f0146100a0575b600080fd5b61004e6100aa565b604080519115158252519081900360200190f35b61008e6004803603604081101561007857600080fd5b506001600160a01b0381351690602001356100af565b60408051918252519081900360200190f35b6100a8610102565b005b600090565b600080546001600160a01b038481169116146100fc5760405162461bcd60e51b815260040180806020018281038252602e815260200180610105602e913960400191505060405180910390fd5b50919050565b56fe54686973206f7261636c65206f6e6c79206163636570747320636f6e73756c74696e67205745544820696e707574a2646970667358221220cc65bd45a4852d058565fb046230a74588c7028fe4a135a59feb568033c7917d64736f6c634300060b0033",
  "devdoc": {
    "kind": "dev",
    "methods": {},
    "version": 1
  },
  "userdoc": {
    "kind": "user",
    "methods": {},
    "version": 1
  },
  "storageLayout": {
    "storage": [
      {
        "astId": 8866,
        "contract": "contracts/Oracle/WethToWethOracle.sol:WethToWethOracle",
        "label": "wethAddress",
        "offset": 0,
        "slot": "0",
        "type": "t_address"
      }
    ],
    "types": {
      "t_address": {
        "encoding": "inplace",
        "label": "address",
        "numberOfBytes": "20"
      }
    }
  }
}