{
  "address": "0x76fe83900281125deC19BaBb3A9463ABea19a781",
  "abi": [
    {
      "inputs": [
        {
          "internalType": "address",
          "name": "_wethAddress",
          "type": "address"
        }
      ],
      "stateMutability": "nonpayable",
      "type": "constructor"
    },
    {
      "inputs": [
        {
          "internalType": "address",
          "name": "tokenIn",
          "type": "address"
        },
        {
          "internalType": "uint256",
          "name": "amountIn",
          "type": "uint256"
        }
      ],
      "name": "consult",
      "outputs": [
        {
          "internalType": "uint256",
          "name": "amountOut",
          "type": "uint256"
        }
      ],
      "stateMutability": "view",
      "type": "function"
    },
    {
      "inputs": [],
      "name": "shouldUpdateOracle",
      "outputs": [
        {
          "internalType": "bool",
          "name": "",
          "type": "bool"
        }
      ],
      "stateMutability": "view",
      "type": "function"
    },
    {
      "inputs": [],
      "name": "updateOracle",
      "outputs": [],
      "stateMutability": "nonpayable",
      "type": "function"
    }
  ],
  "transactionHash": "0x8f3674bb14b83a334a922d1fa7bd291c52ad0df180d51a88fc67a6dcecffd4a5",
  "args": [
    "0xd0a1e359811322d97991e03f863a0c30c2cf029c"
  ],
  "solcInputHash": "7fc5f7df362effb291697cb25232d91e",
  "bytecode": "0x608060405234801561001057600080fd5b506040516101cd3803806101cd8339818101604052602081101561003357600080fd5b5051600080546001600160a01b039092166001600160a01b0319909216919091179055610168806100656000396000f3fe608060405234801561001057600080fd5b50600436106100415760003560e01c806309bf39ed146100465780633ddac95314610062578063d6f124f0146100a0575b600080fd5b61004e6100aa565b604080519115158252519081900360200190f35b61008e6004803603604081101561007857600080fd5b506001600160a01b0381351690602001356100af565b60408051918252519081900360200190f35b6100a8610102565b005b600090565b600080546001600160a01b038481169116146100fc5760405162461bcd60e51b815260040180806020018281038252602e815260200180610105602e913960400191505060405180910390fd5b50919050565b56fe54686973206f7261636c65206f6e6c79206163636570747320636f6e73756c74696e67205745544820696e707574a2646970667358221220b1c91a594ca977e27c73193c593ab0d9dbcd118fb6127e640f2956b6ad590bf464736f6c634300060b0033",
  "devdoc": {
    "kind": "dev",
    "methods": {},
    "version": 1
  },
  "userdoc": {
    "kind": "user",
    "methods": {},
    "version": 1
  },
  "storageLayout": {
    "storage": [
      {
        "astId": 8457,
        "contract": "contracts/Oracle/WethToWethOracle.sol:WethToWethOracle",
        "label": "wethAddress",
        "offset": 0,
        "slot": "0",
        "type": "t_address"
      }
    ],
    "types": {
      "t_address": {
        "encoding": "inplace",
        "label": "address",
        "numberOfBytes": "20"
      }
    }
  }
}